:020000040800F2
:10000000F0FF0120A554060835FA000899D004082D
:100010001D5506081D5506081D5506080000000060
:1000200000000000000000000000000031FA00089D
:100030002DFA00080000000029FA0008B1B90408F0
:100040001D5506081D5506081D5506081D550608B0
:100050001D5506081D55060889D2040851D204080A
:1000600019D20408E1D10408A9D10408AD28060872
:100070009D2806088D2806087D2806086928060898
:1000800055280608412806081D55060800000000EE
:1000900000000000000000000000000071D1040812
:1000A00099A40408E9A4040889A4040811A5040873
:1000B000D9A40408C9A40408B9A40408854F0608F3
:1000C0008D4F0608794F0608814F06081D55060812
:1000D0001D55060861BB0408A9BA04080000000009
:1000E00039D104081D550608ED1201080000000072
:1000F0000000000000000000000000002D2806089D
:10010000000000001D550608A9A404081D55060896
:1001100000000000000000000000000000000000DF
:100120001928060805280608F1270608DD2706080D
:10013000C9270608000000000000000000000000C1
:10014000000000000000000000000000BDF30008F7
:10015000B5270608A12706088D270608F1B9040867
:100160006D4F0608754F06080000000000000000F3
:10017000000000000000000000000000000000007F
:10018000000000001D5506080000000000000000EF
:080190001D5506081D55060867
:080198004450060001000000C4
:1001A0000E02010002000000E0720020287300200F
:1001B000000000006C88070824730020130201006F
:1001C000040000007C2700203073002000000000A5
:1001D0006E8807082C730020031101000A0000003C
:1001E000287200203873002000000000451C010820
:1001F0003473002023200100100000001072002042
:10020000487300200000000031820208447300207F
:10021000EA0301000E000000E47100205C7300207E
:100220000000000072880708587300200D100100BC
:100230004C000000EC6D00207073002000000000F6
:10024000290004086C73002009020100010000006D
:10025000746D0020C0730020000000008088070833
:10026000BC730020FD01010024000000386D002057
:10027000C873002000000000BB8B0408C47300207A
:10028000160215003F000000CC290020F07300206A
:1002900000000000FD210508EC730020061001009D
:1002A000300000003C2900203474002000000000D1
:1002B0006182050830740020FB010100010000008C
:1002C000B86800206874002000000000352205088E
:1002D00064740020FC010100090000008467002014
:1002E00070740020000000003D2205086C7400209E
:1002F000F7010100060000007C67002080740020E8
:1003000000000000828807087C740020F9010100C9
:1003100004000000786700208C74002000000000BA
:10032000758C040888740020110201000800000088
:10033000506700209474002000000000888807089F
:100340009074002012120100040000004867002091
:10035000A074002000000000908807089C74002012
:100360001830010020000000146D0020A874002047
:100370000000000099220508A47400201900010063
:100380001200000034670020CC7400200000000040
:1003900094880708C8740020E803010004000000E6
:1003A00028660020E474002000000000D1820508C7
:1003B000E07400202A02010006000000EC5D00202D
:1003C000EC74002000000000A6880708E8740020F4
:1003D000000201000B000000C0560020F87400204D
:1003E00000000000F5820508F4740020FF210100E0
:1003F000050000006C560020087500200000000079
:100400002522050804750020081203000F000000D3
:10041000785600201475002000000000FD820508B9
:1004200010750020FA01010003000000D84F0020E1
:100430002875002000000000DD82050824750020DA
:100440000C02010004000000644E00203075002002
:1004500000000000C18205082C750020FE0101008B
:1004600014000000DC40002038750020000000006F
:1004700055830508347500201C0201000E000000A1
:10048000844000205075002000000000F19805080D
:100490004C7500200B3001001E000000FCA1002064
:1004A0003CA6002000000000AC88070838A6002009
:1004B0001F50010028000000CCA1002060A60020F1
:1004C00000000000CC8807085CA60020050201009F
:1004D0000A000000589F00208CA6002000000000A9
:1004E000F488070888A600201B20010014000000E3
:1004F000CCA70020B8B6002000000000318401081D
:10050000B4B60020210201006801000008A8002004
:10051000D0B60020000000002D9D0108CCB60020C0
:100520003710010030000000C8B000203CB80020A7
:10053000000000000089070838B800202F100100D3
:100540002200000090B6002070B8002000000000DB
:10055000308907086CB80020232201001000000039
:10056000A0AB002098B800200000000054890708C4
:1005700094B800201E000100090000008CAB002090
:10058000ACB800200000000064890708A8B800206B
:1005900005200100080000004CAC0020BCB8002081
:1005A0000000000070890708B8B80020FD070100AE
:1005B0007A00000098A60020C8B8002000000000C3
:1005C000157D0108C4B80020F59101006C00000001
:1005D00058A7002048B9002000000000519C0108E5
:1005E00044B900202610010008000000C0B9002016
:1005F000B8B90020000000001D7B0108B4B900203C
:10060000123001001100000074AB0020CCB90020B2
:100610000000000078890708C8B900201010010008
:10062000020000007CE100209CE1002000000000AE
:100630008C89070898E1002028300100160000008E
:1006400064E10020A4E10020000000004DBB02088E
:10065000A0E10020200201006000000004E1002071
:10066000C0E100200000000000000000BCE100200C
:10067000012001000C000000ACCF002024E200208B
:10068000000000008E89070820E200200C400600D0
:100690000801000090CD002034E20020000000009E
:1006A0008520030830E200200E000600F40500005B
:1006B000E0D2002040E3002000000000792205087D
:1006C0003CE300200A900100200000005CCD0020E7
:1006D00038E90020000000000582020834E900200B
:1006E000131001000400000078DC00205CE9002009
:1006F000000000009C89070858E900200001010063
:10070000040000009CCC002064E9002000000000F0
:10071000A089070860E90020020101000300000031
:1007200098CC00206CE900200000000001A703081D
:1007300068E90020220201001C0100003CDA0020D0
:1007400074E90020000000003923050870E900204A
:10075000010201000B000000A8CC002094EA002058
:1007600000000000E582050890EA00200202010076
:10077000030000001CD00020A4EA002000000000BC
:1007800000000000A0EA00201B0201001000000091
:10079000E4CF0020ACEA002000000000552205084C
:1007A000A8EA002034000100080000008CF60020B8
:1007B00098F600200000000055B8020894F60020CA
:1007C0002A00080080000000DCF50020A4F60020CC
:1007D0000000000029B80208A0F60020E90301008B
:1007E00018000000BCF5002028F7002000000000E1
:1007F000A489070824F700202B0012002400000021
:1008000068F7002044F7002000000000E1A2020881
:1008100040F70020292014007800000064F4002034
:1008200090F7002000000000000000008CF700207E
:100830000A020100140000000C0C0120280C012009
:100840000000000035280308240C0120F6210100D7
:100850000C0000008C060120400C0120000000006C
:10086000BC8907083C0C012038000100070000008B
:1008700018F80020500C012000000000C88907086B
:100880004C0C0120EC031D00AE00000040FB0020DA
:100890005C0C0120000000008D170308580C01209B
:1008A000EB03200000010000F0FB0020100D0120F0
:1008B00000000000000000000C0D01202530200089
:1008C000000200009C130120AC1701200000000072
:1008D00000000000A81701202902010040000000CC
:1008E000F40E0120B019012000000000D089070893
:1008F000AC1901202C020100040000005810012056
:10090000F419012000000000108A0708F0190120E6
:10091000031201003D000000261301201C1A0120D3
:1009200000000000148A0708181A0120F83101009D
:100930000200000024130120601A012000000000C2
:10094000528A07085C1A0120020001000C00000016
:1009500018130120681A01200000000000000000A8
:10096000641A012039000100050000006C1201200A
:10097000781A012000000000ED210508741A0120FA
:10098000061203001200000058120120841A0120F0
:100990000000000035990508801A01201D020200A0
:1009A00006000000E01101209C1A01200000000058
:1009B00000000000981A0120280204000400000032
:1009C000C0340120DC35012000000000752205083C
:1009D000D83501202702040004000000BC340120A7
:1009E000E43501200000000069220508E0350120FF
:1009F0001F02080010000000AC340120EC3501207B
:100A00000000000001220508E83501201A0201005B
:100A1000490000005C300120003601200000000089
:100A200079990508FC35012016100100040000002A
:100A300070360120D436012000000000548A0708D7
:040A4000D03601208B
:100A44000403090412010002EF0201408304563238
:100A54000002010203010000120100020202004030
:100A6400830440570002010203010000FFFFFFFF5F
:100A7400006002401060024000000000000000001E
:100A840000000000000B0000000000000000000057
:100A940000000000006002402860024001000000E5
:100AA4000000000000000000060C00000000000030
:100AB40000000000000000000060024040600240AE
:100AC400020000000000000000000000100D000003
:100AD4000000000000000000000000000060024070
:100AE4005860024003000000000000000000000005
:100AF400160E0000000000000000000000000000CE
:100B04000060024070600240040000000000000029
:100B140000000000200F00000000000000000000A2
:100B240000000000006002408860024005000000F0
:100B3400000000000000000026100000000000007B
:100B4400000000000000000000600240A0600240BD
:100B5400060000000000000000000000301100004A
:100B640000000000000000000000000000600240DF
:100B7400B860024007000000000000000000000010
:100B8400362F0000000000000000000000000000FC
:100B940000640240106402400000000000000000F5
:100BA4000000000000380000000000000000000009
:100BB40000000000006402402864024001000000BC
:100BC40000000000000000000639000000000000E2
:100BD4000000000000000000006402404064024085
:100BE400020000000000000000000000103A0000B5
:100BF400000000000000000000000000006402404B
:100C040058640240030000000000000000000000DF
:100C1400163B00000000000000000000000000007F
:100C24000064024070640240040000000000000000
:100C340000000000203C0000000000000000000054
:100C440000000000006402408864024005000000C7
:100C54000000000000000000264400000000000026
:100C6400000000000000000000640240A064024094
:100C740006000000000000000000000030450000F5
:100C840000000000000000000000000000640240BA
:100C9400B8640240070000000000000000000000EB
:100CA40036460000000000000000000000000000C4
:100CB4007D000000A18200089D820008998200083E
:100CC4008D820008898200089582000891820008BC
:100CD400212101086D200108452101089D420108D8
:100CE40019430108E943010861140108B9830008A4
:100CF400B1830008010000000000803FF14F0108AB
:100D0400F55401086D500108FD140108E1160108AD
:100D14000D15010829150108D5140108C514010889
:100D2400000000000000000009022000010104C0CE
:100D3400320904000002080650050705810240003C
:100D4400000705010240000009026400030100C01D
:100D5400320904000001030000000921110100010F
:100D64002236000705830309000A080B0102020268
:100D74000100090401000102020100052400100120
:100D840005240100020424020205240601020705C9
:100D940082030800FF09040200020A00000007059C
:100DA40001024000000705810240000009024300DF
:100DB400020100C0320904000001020201000524FE
:100DC4000010010524010001042402020524060088
:100DD40001070582030800FF09040100020A00005C
:100DE40000070501024000000705810240000000E1
:100DF400FF000000140000FF0000000000000000DD
:100E0400AA550701000001AA55050100002D202D57
:100E14002D202D2D2D2D202D2D2D2D0000000000F9
:100E240000000000000000000000000008000000B6
:100E340058820608FF1FFF1F00000000000000008A
:100E440001000000000000000000000080A200205B
:100E5400000000000100000000000000000000008D
:100E6400000000000000000000000000000000007E
:100E7400000000000000000000000000000000006E
:100E8400010000000000000005010905A101A10006
:100E940005010930093109320933093509340936A4
:100EA40009371581257F75089508810205091901FF
:100EB400290815002501950875018102C0C00000AC
:100EC40009022200010100E03209040000010301CB
:100ED40002000921110100012236000705830309DC
:100EE400000A0000000000000102030401020304E0
:100EF40006070809AA550B010000AA5505010000C0
:100F0400AA550902000000AA5503009F0100000031
:100F1400C0120000FFFFFFFF30A600200000000009
:100F240000A6002000000000010000000F000000E7
:100F34000200000001000000000001007EFFFF002D
:100F4400FFFFFFFF0101FF01E0010100E5F40108DB
:100F54000000000000000000C488060808FF00002C
:100F6400000000000000000000000000B49F06081C
:100F74000000000000000000000000006CA0060853
:100F840000000000000000000000000018A0060897
:100F94000000000000000000F50B0208A6D20020AB
:100FA400291602080000000000000000449F060803
:100FB40001010000F1390208A93B02080000000009
:100FC400D0A1060845390208000000000000000016
:100FD40034A10608913D0208000000000000000052
:100FE400ECA006082D202D2D202D2D2D2D202D2D6E
:100FF4002D000000000000000000000000000000C0
:1010040000000000FFFFFFFF01000000FA000000E5
:10101400010000000100000001010000F4CE0020E6
:101024000000F40101000000F2CE00200000F401F1
:1010340001000000F0CE00200000F40101000000D7
:10104400EECE00200000F40101000000ECCE0020F0
:101054000000F40101000000EACE00200000F401C9
:1010640001000000E8CE00200000F40101000000AF
:1010740001FC0108C5FB010800000000348E0608CD
:10108400D8CE002005320100E6CE00206400F40131
:1010940001000000E4CE00206400C4090100000047
:1010A400D6CE0020E803D00701000000D4CE0020F3
:1010B400E803D00701000000D2CE0020E803D007E7
:1010C40001000000D0CE00201E00B80B010000007B
:1010D400DECE002005000F0001000000E0CE00205D
:1010E40003000A0001000000CECE00201E00F4011F
:1010F40001000000E2CE002002000000C08E0608BD
:10110400CCCE00201400640001000000DACE0020E0
:101114003200E80301000000CACE00200000C8002D
:10112400010000001C02070824020708E0CF002089
:101134000100C40900000000DECF00200100C40942
:1011440000000000DCCF00200100C4090000000002
:10115400DACF00200100C40900000000D8CF00202D
:101164000100C40900000000D6CF00200100C4091A
:1011740000000000D4CF00200100C40900000000DA
:10118400D2CF00200100C40900000000C9CC002017
:1011940000C80100C8CC002000C80100C6CC002053
:1011A4000000FFFF0A000000C4CC00200100C800BA
:1011B40001000000C2CC0020320030753200000073
:1011C400C0CC00207EFF140005000000BECC00202F
:1011D40005002C0105000000BCCC0020055A0500C8
:1011E400B9CC002000FF0100BBCC002002000000AD
:1011F4007C080020B7CC0020030000001C830608F4
:10120400B8CC002000FF0100BACC0020020000008E
:101214007C080020B6CC0020030000001C830608D4
:101224000CCC0020FF7F010008CC0020000000004F
:10123400FFFFFFFF0100000004CC002000000000BD
:10124400FFFFFFFF0100000000CC002000000000B1
:10125400FFFFFFFF0100000055FB0108E5FA01084C
:1012640000000000D88E0608BCCF0020EE02CA0899
:1012740001000000BACF002000C801006400000093
:10128400B9CF002002C8010064000000B8CF0020DC
:1012940002000000CC8E0608A2CC00200083007D52
:1012A40005000000A0CC002080C1803E05000000A5
:1012B4009BCC002000FF010094CC00206400F401CA
:1012C4000100000092CC00206400F4010100000041
:1012D40090CC00206400F401010000008ECC0020BA
:1012E40003000000E48F06088DCC002002000000FB
:1012F400F48F060851CD00200D0000000090060870
:101304004ECD0020006401004CCD00203200102797
:101314000A0000004ACD00200D00000000900608DD
:1013240049CD00200D0000000090060848CD0020A3
:1013340003000000389006080000000000000000D0
:101344000000000048900608C2CF00204E000000B4
:1013540080900608C0CF00200100401F010000005B
:10136400BECF002003000000BC91060853CD00202E
:1013740003000000CC91060852CD002003000000B9
:10138400CC9106087ECD00200000E8030100000097
:101394007CCD00200000E803010000005ACD0020AD
:1013A400C800E8030100000058CD00203C00FA000A
:1013B4000100000056CD00200A0064000100000076
:1013C40054CD0020000801008ACD00200000F40163
:1013D4000100000088CD00200000F401010000009D
:1013E40086CD00200000F4010100000084CD00201F
:1013F4000000F4010100000082CD00200000E80399
:101404000100000080CD00200000E803010000007E
:10141400B1CE0020006401000A000000B0CE00201C
:10142400006401000A000000AACE0020006401004C
:101434000A000000A9CE0020006401000A00000098
:10144400A8CE0020006401000A000000AECE0020F7
:1014540000FF01000A000000ADCE002000FF0100E3
:101464000A000000ACCE002000FF01000A000000CA
:10147400A6CE002001FF01000A000000A5CE002036
:1014840001FF01000A000000A4CE002001FF0100BA
:101494000A000000D6D8002000C80100D5D80020DA
:1014A40000C80100D4D8002000C80100E4D80020FE
:1014B4000000D00701000000DFD8002000C80100B0
:1014C400DED8002000C80100DDD8002000C80100DB
:1014D400E2D800200000D00701000000DCD8002082
:1014E40000C80100DBD8002000C80100DAD80020C1
:1014F40000C80100E0D800200000D007010000006F
:10150400D9D8002000C80100D8D8002000C80100A4
:10151400D7D8002000C801001810070800000000F8
:1015240000007EE1002024100708070000000000EE
:10153400680C00202C100708070000000000600C55
:10154400002034100708070000000000580C002099
:101554003C1007080800000000004C0C0020441058
:101564000708070000000000440C00204C10070886
:101574000700000000003C0C00205410070807007E
:1015840000000000340C00205C1007080800000074
:101594000000280C00206410070807000000000069
:1015A400200C00206C100708070000000000180C35
:1015B400002074100708070000000000100C002031
:1015C4007C100708080000000000040C0020E00163
:1015D40007080100000000000000000000000000F7
:1015E40010000000000000000000000019F90108CC
:1015F400FDF8010879FE0108DC91060844CD0020BD
:10160400E803D00701000000000000000000000013
:10161400350C020878920608B5CC002003000000BF
:10162400CC920608B4CC002000030100B3CC002007
:101634000003010069F801081DF80108000000001A
:10164400DC920608DDF7010895F7010800000000A8
:1016540078930608B5F801080D160208000000008A
:10166400F8930608A4CC002001030100A9F40108A2
:1016740081F40108000000005C970608E9FC0108F9
:10168400BDFC010800000000DC97060815F70108FE
:10169400CDF60108000000004C98060829F901085D
:1016A400A545020800000000E8980608B9190208D8
:1016B40015FD0108000000009099060879F9010859
:1016C40000000000000000002C9A0608C5F901087B
:1016D4008DF9010800000000909A060841FA0108FB
:1016E400FDF9010800000000109B06086181020852
:1016F40085FA010800000000909B0608C8CE00206F
:10170400010601001D810208B11702080000000053
:10171400549C0608A9810208ED1702080000000085
:10172400700C0020C7CE002001060100E5F8010876
:10173400CDF8010800000000A89C0608AD150208B9
:101744000000000000000000F09C06085DF701089E
:10175400F5150208000000008C9D0608000000003A
:101764000000000000000000289E0608BDFA0108E1
:101774006518020800000000A89E0608000000008A
:101784000000000000000000B4A00608309F002004
:101794009CFF2C0100000000ECDB0020E0150C177E
:1017A40000000000EEDB002002000000B8A20608E2
:1017B40089CC002002000000B8A2060884CC0020D6
:1017C40088136F170100000086CC002088136F1760
:1017D400000000005C720020000000000000000017
:1017E4005A7200200000000000000000587200201F
:1017F40000000000000000005672002000000000FD
:1018040000000000547200200000000000000000EE
:101814005272002000000000000000006806002052
:1018240000000000000000000DCC002003000000B8
:1018340034A206087CCC002088136F170100000036
:1018440032A3002088136F1700000000ADF50108D3
:10185400000000000000000044A2060871D200202D
:101864000100000098A2060834A300200100000033
:10187400A4A206082AA3002002000000ACA20608C5
:10188400000000000000000000000000C4A20608E0
:1018940095F50108000000000000000060A30608A0
:1018A400000000000000000000000000B4A30608CF
:1018B40000000000000000000000000024A406084E
:1018C40088CC002002000000B8A206082EA3002045
:1018D400E0150C170000000038EC00208CEC002010
:1018E40001F11F3FD60100000001010100FF0100CA
:1018F4000000803F00000000000000000000000025
:101904000000803F00000000000000000000000014
:1019140000000000000000000000000000000000C3
:1019240000000000000000009D38050800000000D1
:10193400000000000000000000000000081A012060
:101944000800000000000000F81901200800000051
:10195400010000001CAE0608D4100020C5000408D5
:1019640000000000000000000000000071000408F6
:10197400000000000000000000000000431C0108FB
:101984003F1C0108371C01081D1A0108952901088C
:1019940029290108DD2801082D1C01081D1C010846
:1019A4000D1C0108FD1B0108A91901080000000015
:1019B40001000000A00F0000B80B00000102FFFFAF
:1019C40001020000494F0108F1150108E14E010828
:1019D40000000000C1140108C9570108314E010874
:1019E400854A01080000000000000000811401087D
:1019F400B1820008A5820008F98A0008158B000846
:101A0400DD8A0008C18A0008A58A0008014F010880
:101A1400CD150108354E0108000000009914010895
:101A2400894A0108054E0108F14901080000000037
:101A3400000000008D140108FF0000000C2D0708B1
:101A4400983D0708000000007DA70308A086010058
:101A5400040000000C2D0708142D070800000000E6
:101A640029CC0408E80300000400000090080708DB
:101A740000000000000000000D8C03087D00000041
:101A8400FF0000002C060708000000000000000012
:101A9400153B03087D000000FF000000180B070839
:101AA4000000000000000000795203087D000000DF
:101AB400FF00000098080708000000000000000074
:101AC400952C0408E8030000030000001C2D0708FF
:101AD400000000000000000091730308D00700001C
:101AE400030000009C7207080000000051A10208D6
:101AF400A15B04085F760000050000001876070863
:101B04000000000000000000D9870408102700002E
:101B140002000000282D070800000000000000005B
:101B2400218A0408E803000005000000342D07089A
:101B3400000000000000000039A90308102700007D
:101B440003000000442D070800000000000000000E
:101B5400E5A703081027000003000000542D070820
:101B6400000000000000000031580408400D03008C
:101B7400030000003C1907080000000000000000FA
:101B8400AD5504081027000002000000A8FA06085A
:101B94000000000000000000B11E02081027000031
:101BA40003000000642D070800000000000000008E
:101BB400D12F0408A086010002000000D406070803
:101BC4000000000000000000CD32040850C30000F3
:101BD400020000005819070800000000000000007F
:101BE40015010408A00F0000020000006C2D070876
:101BF40000000000000000006DD50108102700005F
:101C0400020000000812070800000000C97C010857
:101C140069C9010885450100020000004404070861
:101C24000000000000000000012D01081027000042
:101C34000200000090FA0608000000000000000006
:101C4400ED4E020850C3000002000000782D070882
:101C54000000000000000000C1290108400D03003D
:101C640001000000802D07080000000000000000B3
:101C7400E5FF0308400D030002000000882D07085B
:101C84000000000000000000012D020850C3000005
:101C940003000000942D070800000000000000006D
:101CA400A1AF030840420F0001000000A02D070867
:101CB4000000000000000000ED00040850C3000014
:101CC40001000000AC2D0708000000000000000027
:101CD400F99901081027000002000000FFFF00002E
:101CE400FFFFFFFF787207080000080205030300E6
:101CF40000000000847207080100080205040300C4
:101D040000000000907207080000080205030300A9
:101D1400000000009872070801000802050403008F
:101D240000000000781507080200FE0101100300FE
:101D340000000000880507080300140200030000E7
:101D440000000000A072070804001F02020008003F
:101D540000000000A872070805001F020201080025
:101D6400000000001A030000000000000000000052
:101D7400000000000000000000000000000000005F
:101D840004030904120100020000004083042057E8
:101D94000002010203010100020000000000000033
:101DA40084160020943E012002000000010000007F
:101DB4008585050880160020000000000100000051
:101DC40001000000C5850508F01400200000000093
:101DD40000000000000000000000000000000000FF
:101DE40000000000000000000100000000000000EE
:101DF40000000000000000000000000001000000DE
:101E040000000000000000000000000000000000CE
:101E14000100000000000000D800000000000000E5
:101E24000500000006000000050001010300000099
:101E34000000000005000000FFFFFFFFFF0000009E
:101E440009A10508F1A00508E1A005087D8305089E
:101E540091A0050839A005086D830508881600209F
:101E6400059A050885830508818305087983050893
:101E7400519B0508758305087183050804F206085B
:101E840065570108AD15010845560108000000001A
:101E940000000000DD4D0108ED4C010800000000C9
:101EA4000000000000000000751401081D840508EE
:101EB400118405086DA1050889A10508C9830508D1
:101EC40051A1050835A105081F0000001C000000F1
:101ED4001F0000001E0000001F0000001E00000084
:101EE4001F0000001F0000001E0000001F00000073
:101EF4001E0000001F0000000068214C00000000CC
:101F040000000000000000000100000000000000CC
:101F140000000000000000000000000001000000BC
:101F240000000000F40100000600000005000000AD
:101F3400008002021F00000053544D202020202066
:101F440050726F64757420202020202020202020CF
:101F5400302E3031FF0000000000040100000200B8
:101F64000100000210000000070000000000000053
:101F7400000000000102030406070809C70000006E
:101F84000500000006FF0000E41600200000000029
:101F94002C8807084C8807080C88070800000000F4
:101FA400000000000000000000000000000000002D
:101FB400000000000000000000000000000000001D
:101FC400000000000000000000000000000000000D
:101FD40000000000000000000000000000000000FD
:0C1FE400000000000000000000000000F1
:08280000082800080040000850
:04400000FFFFFFFFC0
:10800000074AD2E90031994208D0D1180133097AE0
:108010000170C3F30A03136001207047002070470A
:1080200048170020044BD3E90030C01AC0F30A00FF
:10803000C0F50060704700BF48170020012380F89A
:108040005130704707B501A8FFF7DAFF0028FAD0D2
:108050009DF8040003B05DF804FB034BD3E9003046
:10806000C01AC0F30A00704748170020012070476B
:10807000024BC3F80828C3F80C18704748170020B3
:10808000024BC3F81028C3F8141870474817002093
:108090007047704730B4104DD5E900239A1AC2F3E7
:1080A0000A020A44B2F5006F11D899B101444A1E80
:1080B000013810F8014FE918824203F101030C72F4
:1080C000C3F30A03F5D16B60002030BC7047022077
:1080D00030BC70470846F8E74817002070B5144CCC
:1080E00094F81838002BFBD1F9B101444E1E451EFF
:1080F00002E0012043F0BCFBD4F81C38D4F820285F
:108100000133C3F30A039342F3D0D4F81C28D4F804
:108110001C3815F8011F22440133C3F30A03B5428A
:1081200082F82418C4F81C38E6D1002070BD00BFC6
:108130004817002010B5094C54F8D43C08461146A5
:108140005BB154F8D43C052B07D1002A54F8D03C3D
:1081500003DDFFF7C3FF54F8D03C10BD40280020DA
:1081600010B590F85010002380F8503081B10B4CBE
:1081700054F8D42C72B154F8D42C052A0CD13C30CC
:1081800054F8D03CFFF7AAFF54F8D03C012010BDB2
:108190000120FCE71046FAE71846F8E740280020DF
:1081A000002280F85120DBE790F85020531C024455
:1081B000DBB280F8503082F83C1090F851200AB1C0
:1081C000132B00D9CCE77047212838B50C4605D0D1
:1081D00022282FD0202813D0002038BD0029FBD022
:1081E000072AF9D11A4B53F8CC0C13F8C81C13F812
:1081F000C72C13F8C63C206021716271A371EBE7B4
:108200000029E9D0072AE7D1124AD2F80C381BB16D
:10821000D2F80808096898470D4B256820796179DC
:10822000A27943F8CC5C03F8C80C03F8C71C03F828
:10823000C62CD1E70029CFD0022ACDD1054AD2F8E9
:108240001438002BC8D00988D2F810089847C3E723
:108250004028002048170020024B002043F8D40C8F
:10826000704700BF40280020054B064A002005212A
:1082700042F8D41CC3F81408C3F80C08704700BFB8
:108280004817002040280020704700BF704700BFFB
:10829000704700BF704700BF704700BF704700BF06
:1082A000704700BF042301480B80704798010020ED
:1082B00010B4074A074B12F8C40C122403F114023D
:1082C0000C8001280CBF184610465DF8044B70471F
:1082D000402800209C010020A0B182680D4B12B103
:1082E00007229A7070471978DA6003294FF004006A
:1082F0000CBF80214FF48071C3E901111A611A7516
:1083000098707047034B41F2E47101225A545A703D
:10831000704700BF608500200378022B10D00069F1
:1083200008B9012070470C4B1B78032B0EBF0B4B79
:1083300080B24FF6F773984294BF00200120704737
:108340000549436841F650028A58B3EB422F2CBFCF
:1083500001200020704700BF60850020F7FFFF0F5D
:108360000378022B14D030B4104A4368006941F6F8
:10837000480402F5C2511559096841F63C042B40E6
:1083800012595B0A023801FB0030104430BC7047C0
:10839000064B426841F6340141F6300059581858EE
:1083A00000EB410000EB5220704700BF60850020C9
:1083B00000487047A8270020034B13F89C0C0328A3
:1083C00094BF002001207047402800203B4B98427A
:1083D0002DE9F0410ED003F568530833984249D097
:1083E000374B0020C3E92800A3F89C00A3F8A8009D
:1083F000BDE8F081324C334FDFF8D0800223636355
:1084000004F138060025FB6AAB42294605F1010557
:1084100003D0D4F8B80055F037F994F8BC30D4F84C
:10842000B82086F8243032623046414655F0D0FA02
:10843000636B9D4206F13006E5DB002384F8AA3029
:10844000D4E91003616BA28FB4F84850C4F8C83067
:1084500012FB01F203FB01F3A4F89C20E18F1A4AFE
:10846000A4F8A850C4E92803A4F89E10C4F89820E2
:108470000120BDE7124C134F0223636304F1380659
:108480000025FB6AAB42294605F1010503D0D4F86B
:10849000B80055F0F9F894F8BC30D4F8B82086F854
:1084A00024303262304655F04BFA636B9D4206F140
:1084B0003006E6DB012384F8AA30C1E71971EF002A
:1084C0004028002098010020188006081940EF007D
:1084D0002DE9F04FBA4DBB4F06460FCD07F1CC0446
:1084E0002DED048B0FC40FCD0FC497F8FE302A6812
:1084F00022608BB0022B97F80421029600F036829E
:10850000032B00F02C82002B00F03582DFEDAE7AD9
:10851000F0EE678A002AAD49AD4AC7F8DC20AD48C5
:10852000AD4BC7F8E4000EBF002201220B460392B8
:1085300037EEA87AF5EE006AC6EE879AA74DC7F81F
:10854000E030A5F1230B05F160084FF0000A9FED24
:10855000A48A9FEDA49A27EE888A029B534540F394
:1085600091811BF8014B002C00F0AD81002302E04B
:10857000152B00F0A88103EB43024FEA430918F8DA
:108580000210A14203F10103F2D13A4492F88D1195
:10859000002900F0FE81204642F014FA06463046DB
:1085A00042F02EFB0178002940F08D81B9440AF198
:1085B000010300930322DBB289F8CD3189F8CC2185
:1085C000002E00F080814FEA141909F1FF39B9F14A
:1085D000040F04F00F0C00F2A981834C04EB490155
:1085E000B1F8500040FA0CF111F0010100F09E8149
:1085F000012101FA0CFC0CF1FF3C0CEA0000A14443
:1086000001935CF0D7FD99F85CC0DFF8E4E1019BD1
:1086100060440EEBC00C03228CF807308CF8062067
:108620005EF83000C5F814C000F13F4303F57E0347
:1086300004EB9324012194F86430727A03F01F0450
:108640005B09032B01FA04F100F08281042B00F096
:108650007A81022B00F07281BCF80440B4FA84F3F2
:10866000C3F11F03C3F3CC0100EB810103F0070347
:10867000D1F820C09B004FF00F0E0EFA03FE2CEA3B
:108680000E0CC1F820C0D1F820C002FA03F343EA6F
:108690000C0305AA0B62114602230192CDE90543A2
:1086A0000DF0A2FB019A039B002B00F02781B7F885
:1086B000FC30D7F878C4346807EE903AF8EEE77AE1
:1086C000FCEEE77A17EE900ABCFBF0F303F57F436C
:1086D000FF331B0CBCFBF3F3B3FBF0F001381FFAC4
:1086E00080FE07EE903ABCFBF3F3B8EE677A218880
:1086F000DFF800C167EE087A013BC5ED027A69EE4A
:10870000677A6445E7EE287A9BB289B2C5ED037AB1
:1087100011D0364884420ED0B4F1804F0BD0ACF566
:108720007C4C644507D00CF5806C644503D00CF597
:10873000806C644502D121F0700189B2DFF8B8C0C5
:10874000644500F0CA800CF5806C644500F0C5807B
:1087500021F440710CF56C4C89B264452180C4F859
:108760002CE0238540F0E580002323860120A082B1
:10877000337A96F805900021CDE907114FF0600C8F
:10878000ADF8181009919907CDF814C040F1AA80EE
:10879000DB0003F008030421ADF82230ADF8181017
:1087A0004946204641F004FDB9F10C0F2ED8DFE810
:1087B00009F0812D2D2D782D2D2D6F2D2D2D25009E
:1087C00044800608402800206F1203395D8C04089D
:1087D000618C04087D2A0308792303086C29002092
:1087E0006F12833A00007A441880060800040140A2
:1087F000382A00200000014000100040A38B23F421
:1088000000631B041B0C43F40063A3833368B3F8B9
:1088100044206FEA42426FEA524292B2A3F84420E7
:108820001A88194692B242F0010221F8342B70796D
:108830006B600C1800222C600A50BAF1000F00F097
:108840008C80D7F830118B4200F08E80BAF1010F86
:1088500000F08380D7F848118B4200F08580BAF190
:10886000030F7AD1D7F86021D31A18BF0123DDF89E
:1088700000A02B740122BAF1040F6A7405F11805E7
:108880007FF46BAE44480BB0BDEC048BBDE8F08FB9
:10889000A38B23F008031B041B0C43F00803A383E2
:1088A000B4E7238B23F400631B041B0C43F4006325
:1088B0002383ABE7238B23F008031B041B0C43F03B
:1088C00008032383A2E7354A354B0020C7E9383235
:1088D0000BB0BDEC048BBDE8F08F2180C4F82CE018
:1088E000238543E75B0003F002034FF48071ADF88A
:1088F0002030ADF81600ADF8241051E7B0EE690A4B
:1089000001925CF013FEFCEEC07AD7F878C43468AC
:10891000019A17EE903ABCFBF3F303F57F43FF3364
:108920001B0C4FF6FE7EBCFBF3F3DAE6696105AA89
:10893000B9E61C4B9C423FF417AF17E71A4B5C6C2F
:108940002143596488E6184B1C6B2143196383E665
:10895000154B1C6C214319647EE6012387E7DFED8C
:10896000137ADFED138AD5E5134680E7DFED117A40
:10897000F0EE678ACEE5104BDFED107A104AC7F8AB
:10898000DC3001230393C7F8E420054BF0EE678A3F
:10899000CEE50E4603E600BF0C2900209927030808
:1089A0005D8C04080004014000380240ACC5A737C4
:1089B000ACC5A73628293038618C04086F12833A79
:1089C0007D2A0308F8B5104ED6F8784405460068AD
:1089D0000F4664080DF00CF9B4FBF7F1B1F5803FD8
:1089E00003D3012CFAD96408F6E72246284689B257
:1089F00041F088FE054BC6F8E03C28460449BDE836
:108A0000F840002241F08CBD40280020E93E0208D9
:108A100020350020214B93F8182E03F6E84191ED04
:108A2000060A1AB91E4B83ED4D0A704793F81A2EA9
:108A30004AB1052A11D003F6186393ED150A184BB5
:108A400083ED4D0A704703F6186383ED150A83ED35
:108A5000190A134B83ED4D0A7047D3F81C0E53F8D7
:108A6000D01CD3F82C2E091A07EE901A0132B8EE5A
:108A7000E77A07EE902AF8EEE77A03F61863C7EE76
:108A8000276AF7EE007A77EEE67A93ED157A67EECD
:108A9000877AE0EE267AB0EE670AC3E74028002026
:108AA000C436002010B5044C04480A4621460BF099
:108AB00023FF204610BD00BFC03900202CF406085B
:108AC00010B5044C04480A4621460BF015FF204619
:108AD00010BD00BFC03900203CF4060810B5044C9E
:108AE00004480A4621460BF007FF204610BD00BF90
:108AF000C039002048F4060810B5044C04480A4662
:108B000021460BF0F9FE204610BD00BFC039002001
:108B100054F4060810B5044C04480A4621460BF0EC
:108B2000EBFE204610BD00BFC039002060F40608EF
:108B300070B5214DD5F8883193F82620DAB11B693C
:108B40009847E0B1D5F8883193F824208AB105F52B
:108B5000C67600241A19E0B29B6992F82C10B6EC84
:108B6000010A9847D5F8883193F8242001349442BB
:108B7000F0DB5B69984795F89C31332B00D070BDD2
:108B800095F89D31002BFAD0D5F8883193F8243030
:108B9000042B1E46A8BF0426002BF0D00024074D4E
:108BA0002346184658F0D6FA0134E3B29E4245F8FF
:108BB000040BF6D870BD00BF38390020D83A002029
:108BC0002DE9F84FCA4C94F8C0110546C1F3400195
:108BD000D4F8C80143F0C8FF94F8C011D4F8C40118
:108BE000C94301F0010143F0BFFF002D00F0ED800B
:108BF00005F1FF38BF4EC04D5FFA88F80127D4F861
:108C0000C83133B11A689B8851690B4214BF538332
:108C10001383D4F8C43133B11A689B8851690B426D
:108C200014BF53831383B4F8D031002B40F0688114
:108C300094F8D211D4F8D40143F096FFDFF8BCC207
:108C4000FA204FF0100E4FF47A71DCF80430C3F3C1
:108C50000803002B40F01E81EFF31183002B40F03E
:108C6000198156F8D02CAB6856F8D09C4A45F8D1FB
:108C7000D4F8FC914B45F4D8D4F8F8A1994601FBFF
:108C80000AF3A3EB0903B3FBFAF301FB0232DCF8AE
:108C90000430C3F30803002B40F0BA80EFF31183D4
:108CA000002B40F0B58056F8D03CD5F808B056F807
:108CB000D09C4B45F7D1D4F8FC91CB45F3D8D4F8F0
:108CC000F8A101FB0AF9A9EB0B09B9FBFAF901FBC1
:108CD00003939B1AB3F57A7FD9D30138B5D1D4F871
:108CE000C83133B11A689B8851690B4214BF538352
:108CF0001383D4F8C43133B11A689B8851690B428D
:108D000014BF53831383B4F8D031002B40F0E380B9
:108D100094F8D211D4F8D40181F0010143F024FF7A
:108D2000DFF8D8C1FA204FF0100E4FF47A71DCF85A
:108D30000430C3F30803002B40F08B80EFF3118362
:108D4000002B40F0868056F8D02CAB6856F8D09CAB
:108D50004A45F8D1D4F8FC914B45F4D8D4F8F8A1A1
:108D6000994601FB0AF3A3EB0903B3FBFAF301FBFA
:108D70000232DCF80430C3F3080343BBEFF3118382
:108D80002BBB56F8D03CD5F808B056F8D09C4B45D4
:108D9000F7D1D4F8FC91CB45F3D8D4F8F8A101FB76
:108DA0000AF9A9EB0B09B9FBFAF901FB03939B1A2A
:108DB000B3F57A7FDDD30138B9D108F1FF385FFA16
:108DC00088F8B8F1FF0F7FF41AAFBDE8F88FEFF322
:108DD000118A8EF31288D5F808B02B68DB0344BFE4
:108DE000C4F8F471D5F808B056F8D03CD4F8F49132
:108DF0005FFA8AFA8AF31188D4F8F8A14B4401FB90
:108E00000AF9A9EB0B09B9FBFAF901FB0393CEE7C9
:108E1000EFF3118A8EF31288D5F808B02B68DB03C4
:108E200044BFC4F8F471D5F808B056F8D03CD4F873
:108E3000F4915FFA8AFA8AF31188D4F8F8A14B44C6
:108E400001FB0AF9A9EB0B09B9FBFAF901FB039342
:108E50003FE7EFF311898EF31288D5F808A02B684D
:108E6000DA0344BFC4F8F471D5F808A056F8D03C32
:108E7000D4F8F4215FFA89F989F31188D4F8F891CC
:108E80001A4401FB09F3A3EB0A03B3FBF9F301FB5B
:108E900002326EE7EFF311898EF31288D5F808A03D
:108EA0002B68DA0344BFC4F8F471D5F808A056F86B
:108EB000D03CD4F8F4215FFA89F989F31188D4F809
:108EC000F8911A4401FB09F3A3EB0A03B3FBF9F38E
:108ED00001FB0232DBE6D4F8EC31002B3FF420AF8B
:108EE000D4F8D8210023136084F8E93118E700BFD3
:108EF000383900204028002010E000E000ED00E0BC
:108F0000D4F8EC31002B3FF499AED4F8D821B4F862
:108F1000F0310449B1FBF3F35B10136084F8E9719D
:108F20008CE600BF40420F002DE9F84FCE4CCF4EEB
:108F300094F8C011D4F8C801CD4DC1F3400143F0FD
:108F400013FE94F8C011D4F8C401C94301F0010123
:108F500043F00AFE4FF005080127D4F8C83133B1B9
:108F60001A689B8851690B4214BF53831383D4F84A
:108F7000C43133B11A689B8851690B4214BF5383C3
:108F80001383B4F8D031002B40F05D8194F8D211F6
:108F9000D4F8D40143F0E8FDDFF8DCC232204FF012
:108FA000100E4FF47A71DCF80430C3F30803002B81
:108FB00040F01C81EFF31183002B40F0178156F82D
:108FC000D02CAB6856F8D09C4A45F8D1D4F8FC9127
:108FD0004B45F4D8D4F8F8A1994601FB0AF3A3EB6A
:108FE0000903B3FBFAF301FB0232DCF80430C3F3EC
:108FF0000803002B40F0B880EFF31183002B40F002
:10900000B38056F8D03CD5F808B056F8D09C4B4504
:10901000F7D1D4F8FC91CB45F3D8D4F8F8A101FBF3
:109020000AF9A9EB0B09B9FBFAF901FB03939B1AA7
:10903000B3F57A7FD9D30138B5D1D4F8C83133B17B
:109040001A689B8851690B4214BF53831383D4F869
:10905000C43133B11A689B8851690B4214BF5383E2
:109060001383B4F8D031002B40F0E18094F8D21192
:10907000D4F8D40181F0010143F076FDDFF8F8C1A6
:1090800032204FF0100E4FF47A71DCF80430C3F345
:109090000803002B40F08980EFF31183002B40F090
:1090A000848056F8D02CAB6856F8D09C4A45F8D14D
:1090B000D4F8FC914B45F4D8D4F8F8A1994601FBBB
:1090C0000AF3A3EB0903B3FBFAF301FB0232DCF86A
:1090D0000430C3F3080333BBEFF311831BBB56F813
:1090E000D03CD5F808B056F8D09C4B45F7D1D4F811
:1090F000FC91CB45F3D8D4F8F8A101FB0AF9A9EB10
:109100000B09B9FBFAF901FB03939B1AB3F57A7FBC
:10911000DDD30138B9D108F1FF3818F0FF087FF42A
:109120001CAFBDE8F88FEFF3118A8EF31288D5F8E3
:1091300008B02B68DB0344BFC4F8F471D5F808B05D
:1091400056F8D03CD4F8F4915FFA8AFA8AF3118881
:10915000D4F8F8A14B4401FB0AF9A9EB0B09B9FBC0
:10916000FAF901FB0393D0E7EFF3118A8EF312882B
:10917000D5F808B02B68DB0344BFC4F8F471D5F808
:1091800008B056F8D03CD4F8F4915FFA8AFA8AF322
:109190001188D4F8F8A14B4401FB0AF9A9EB0B099B
:1091A000B9FBFAF901FB039341E7EFF311898EF361
:1091B0001288D5F808A02B68DA0344BFC4F8F4710C
:1091C000D5F808A056F8D03CD4F8F4215FFA89F914
:1091D00089F31188D4F8F8911A4401FB09F3A3EB41
:1091E0000A03B3FBF9F301FB023270E7EFF31189D5
:1091F0008EF31288D5F808A02B68DA0344BFC4F8B0
:10920000F471D5F808A056F8D03CD4F8F4215FFAF0
:1092100089F989F31188D4F8F8911A4401FB09F30C
:10922000A3EB0A03B3FBF9F301FB0232DDE6D4F84A
:10923000EC31002B3FF422AFD4F8D8210023136087
:1092400084F8E9311AE7D4F8EC31002B3FF4A4AEEE
:10925000D4F8D821B4F8F0310649B1FBF3F35B1030
:10926000136084F8E97197E638390020402800201F
:1092700010E000E040420F0000ED00E00E4B30B483
:10928000DB68427801780D4CDB43C3F30223C3F162
:109290000403DBB202FA03F360181B0101F01F059F
:1092A0000122490903F0F003AA4080F8003344F892
:1092B000212030BC704700BF00ED00E000E100E07D
:1092C00030B503685A4D5B4C1A88D5F87804B0FB6A
:1092D000F1F0A34200F1FF3083B080B292B211D01E
:1092E00055498B420ED0B3F1804F0BD0A1F58031A0
:1092F0008B4207D001F580618B4203D001F580617C
:109300008B4202D122F0700292B24C498B4268D05B
:1093100001F580618B4243D022F4407201F56C412B
:1093200092B24FF6FF748B421A80DC62188564D1CA
:1093300000221A8601229A821A883E4992B242F08D
:1093400001028B421A8063D0B3F1804F62D03C4A55
:10935000934261D002F5806293425FD002F5806251
:1093600093425DD002F5806293425BD002F5806249
:10937000934259D002F59632934257D002F580625B
:10938000934213D002F58062934208BF09220ED0A7
:109390004FF0012301A80193FFF770FF03B030BD28
:1093A0004FF6FF711A80D9621885C3E70822254B52
:1093B00003EBC20301A893F871408DF80440012229
:1093C0004FF480738DF80520ADF80630FFF756FF97
:1093D0001B2CE3D11C4B019301A8FFF74FFF03B0F7
:1093E00030BD01214FF6FF741A80DC621885998226
:1093F0001A8892B20A431A80A9E70F4A934297D07B
:1094000001229A821A8892B242F001021A809BE7E6
:109410000022CCE70122CAE70222C8E70322C6E7FE
:109420000422C4E70522C2E70622C0E70722BEE7FE
:1094300040280020000001400004014000100040CE
:1094400000040040188006081901000100F01F0206
:1094500040090123032803FA02F304D004280CD0A6
:10946000022805D07047074A116C0B4313647047FC
:10947000044A516C0B4353647047024A116B0B430F
:10948000136370470038024000285FD00368374AF2
:109490002DE9F04103F13F4404F57E0402EB9422F0
:1094A000012492F8642002F01F055209032A04FAED
:1094B00005F456D0042A4FD0022A48D08588B5FA40
:1094C00085F0C0F11F00C0F3CC0603EB860600F068
:1094D000070082000F24306A944020EA04003062C2
:1094E000306A01FA02F20243002132624FF0010EAB
:1094F0000A464FF0030C02270EFA02F838EA05007C
:1095000002F101021CD118680CFA01F420EA0400EF
:109510001860186807FA01F606431E609E6826EA7E
:1095200004069E6098689860586820EA08005860B1
:1095300058685860D86820EA0400D860D868D860B5
:10954000102A01F10201D7D1BDE8F0817047084A25
:10955000556C2C435464B1E7054A156B2C431463D6
:10956000ACE7034A156C2C431464A7E7188006087F
:109570000038024000487047982A0020002877D021
:10958000F0B58388B3FA83F3202B83B00446C3F18C
:109590001F0258D0374D384E15444FF0004006EBAF
:1095A000820230FA03F395F8BC50C2F8001205D0DD
:1095B000324A116821EA03011160536120460021FB
:1095C00041F032FDA38822682C49B3FA83F7C7F132
:1095D0001F0404F0FC0000F1804000F59C3004F012
:1095E0000304A40002F13F434FF00F0C82680CFA11
:1095F00004FC22EA0C02826003F57E038268C3F356
:109600008723A340134383600A681D484FF000433B
:10961000FB4022EA03020A604A6822EA03024A6027
:109620000A681A430A608A6822EA03028A60CA68E2
:1096300022EA0302CA6002682E441343036096F8CC
:109640004032F02B01D803B0F0BD0E4B5B5D8DF8BE
:109650000430F02103224FF4807301A886F84012F1
:109660008DF80520ADF80630FFF708FE03B0F0BD19
:10967000704700BF1880060838390020003C0140C0
:10968000083C0140D4F406082DE9F041684CD4F8B8
:1096900094321E78012E84B01AD194F85027013AE2
:1096A0001A7194F8515704F52577002D08BF6825E5
:1096B00038464FF0000833460DF10502752184F855
:1096C00098528DF8058044F061FC0546002845D18C
:1096D000D4F8943202221A7094F84F3723B9002537
:1096E000284604B0BDE8F08194F84E17514844F084
:1096F000C5F905460028F2D094F84F0742F054FF10
:1097000094F84C37C4F89C020133DBB210B122222A
:10971000C3718271092141F087FCD4F89C0243F0A7
:109720001DFA454A52F8D03C632BFBD94348444FBD
:10973000444EDFF8008144F0D7F9A4F8980202E023
:1097400057F8046B5EB34046B04703460028F7D095
:10975000384884F85C3344F095FBC1E7384644F060
:1097600091FB3346414638460DF1060244F00EFCAB
:109770009DF8063003F07E038DF8063008B1682BA3
:1097800015D09DF8053003F07E03682B8DF8053069
:1097900010D0702BA4D1042384F85C33A0E794F894
:1097A0004F0742F001FF43F0D3FF354698E784F8B6
:1097B0005C6395E7062302261E4884F85C6319461D
:1097C00002AA44F0E3FBD8B19DF80D309DF80B20C0
:1097D0009DF80910B3405200324003F004031343D4
:1097E00001F0010213430BD0012B1DD0022B17D027
:1097F00003F00303032B13D0032046F02BFC6FE789
:109800000C4801230DF107020C2144F0BFFB002896
:10981000F2D09DF8073013F00F03EDD0042B03D0E6
:10982000012384F85D335BE7002384F85D3357E759
:1098300038390020CC3B00204028002040420F0057
:10984000E8800608B9970508034B53F8682C136A9B
:10985000002BFCD1704700BF4028002010B4B8B1E5
:109860000D4CD4F85C37102B05D15DF8044B052165
:10987000002041F079BD03EB4302224482F86117D6
:1098800001210B4482F8600782F86217C4F85C3744
:109890005DF8044B704700BF38390020F0B53E4CEE
:1098A000D4F894221378012B95B006D0022B01D165
:1098B000136AE3B1002015B0F0BD92F904506A1CA0
:1098C000F8D0022DF6DC0DF10E06024694F898123F
:1098D000009628465BF04CF90028EBD028465BF058
:1098E000F7F90028E6D09DF80E0015B0F0BD60F045
:1098F0007F0001210DF10F058DF80F0000260DF1FD
:109900000E000027CDE90833CDE90E6705938DF8E9
:109910001C300D9310931293049506910B918DF8C2
:1099200030108DF844100A90EFF31180102383F368
:109930001288D4F894321B6A0BB3069B04AD2946F7
:109940001BB1CB691431002BFBD1136A0BB39A689E
:109950003AB98B420AD01A682AB15B689A68002A21
:10996000F7D01433F3E70D4AC3E90025C0B280F302
:109970001188D4F89422136A002BFCD1B3E704AB0E
:10998000C0B2136280F3118804F5257059F048F8CD
:10999000EFE7024A1A60FFDE38390020CC3B002096
:1099A0002DE9F04FDFF8ACA32DED028B9AF8A41748
:1099B000002297B0CAF89427CAF89827CAF89C27BB
:1099C000CAF8A027CAF8902719B19AF8A5278AF8EB
:1099D00090279AF8A6271AB19AF8A7278AF89F27FE
:1099E0009AF8AA271AB19AF8AB278AF89A279AF810
:1099F000A8271AB19AF8A9278AF895279AF8AC37B8
:109A000005935A1ED3B257B203937B1C00F0AA8071
:109A1000C54AC64E52F83790029602EBC7020023A1
:109A20001279019308EE102A1D463446984626788E
:109A30003946304644F002FD83463046BBF1000F04
:109A40001ED042F0B1FDEA1D1321D2B220B14FF079
:109A5000000E827180F807E041F0E6FA207844F0C9
:109A600017FD4FF0070308F1010223714FF00103C6
:109A700084F802806070CDF804B05FFA82F8E37079
:109A80000135042D04F10504D1D118EE100A029E0F
:109A9000CDF81080FFF7DAFCA549A64A48680240D5
:109AA00042F440324A600FB9019B5BB9A24C482096
:109AB000FFF7CCFC204602215BF07AFAA26842F064
:109AC0000102A2609A489C4A4168BAF8AE4741F444
:109AD00000014160516821F480515160916B21F483
:109AE000401141F480119163D16841F46001D1606B
:109AF000956B85F44011C1F3015101EB81011F20E9
:109B000000FA01FC25EA0C0C112505FA01F141EAE5
:109B10000C019163D16841F0E061D160956BC5F3B0
:109B20000151C1F10401C9B201EB810188404FF03C
:109B3000120C25EA00000CFA01F108439063E4B12D
:109B4000BAF8B017CAF8B847A1B1BAF8B227CAF83C
:109B5000BC1762B1019B7948521A90FBF2F2CAF825
:109B6000C0276BB917B0BDEC028BBDE8F08F744A0B
:109B70001288EFE7734A1188E7E7734A1488DFE732
:109B8000484604995BF014FA684B012003F114086D
:109B90000723F278441CE4B252B375783279A5F108
:109BA0000A0101EB410105EB450C092D03FA01FE09
:109BB00003FA0CFB02FA01F140F2A080D9F80C2064
:109BC00022EA0E0E41EA0E01C9F80C10421E02EB09
:109BD00082021F21062801FA02FC05FA02F273D85C
:109BE000D9F8341021EA0C010A432046C9F8342080
:109BF00005364645CDD1D9F80820039942F40072C4
:109C0000C9F80820D9F8082042F48072C9F8082061
:109C1000D9F80820574442F00102C9F8082097F902
:109C2000B427022042F0CCF9044600289AD04668B6
:109C3000304642F0B3F9454A431E242101FB032379
:109C400093F84C50002D8DD1059983F84D100622C4
:109C500083F84C20002885D0304642F09FF957F019
:109C60002BFB60680BF08EFF07A80BF04DFF049EE6
:109C7000A26837480792012E8CBF4FF480630023FF
:109C80000D9309F14C034FF48072CDE90A56089305
:109C900009904FF4003360680C9507A94FF40067F2
:109CA0004FF40056CDE91023CDE90E760BF03EFFC0
:109CB0006268136843F001031360D9F8083043F079
:109CC0008043C9F808304DE7C11FA0F10D0201EB38
:109CD00081014FF01F0E02EB82020C280EFA01FCEC
:109CE0000EFA02F005FA01F113D8D9F8302022EA71
:109CF0000C0211432046C9F8301079E7D9F810104A
:109D000002FA0CF221EA0B0B42EA0B02C9F810200E
:109D10005CE7D9F82C1005FA02F221EA00010A43A7
:109D20002046C9F82C2063E704810608C8400020BB
:109D300000230140E030FCFF00200140803801009A
:109D40002E7AFF1F2C7AFF1F2A7AFF1F980100200E
:109D5000FC400020383900202DE9F84F2E4F00EB51
:109D6000800407EBC404D4F8D0672EB1054694F8FC
:109D7000E50700F0FF0820B14FF000084046BDE8BD
:109D8000F88F89469A46934641F046FD4FEA4901CD
:109D90000123C9B284F8E61784F8E7B784F8E937F5
:109DA00084F8EA8784F8E83784F8E53784F8E487AC
:109DB000B288C4F8ECA791058146C4F8F0A71DD479
:109DC0003388DA0510D442F20F7405E041F024FD27
:109DD000A0EB0903A34215DC33889B05F6D4338836
:109DE0009BB243F480733380B3889BB243F44073D7
:109DF0004FF00108B3804046BDE8F88F98464046D2
:109E0000BDE8F88FB7F8443801339BB22846A7F86D
:109E100044385AF00BFDB1E7383900200128B5EE7F
:109E2000C00A10D0F1EE10FA0BDD9FED177ADFEDCE
:109E3000177AE0EE077AFCEEE77A17EE903A98B2DE
:109E4000704700207047F1EE10FA0BDD9FED107A9D
:109E5000DFED107AE0EE077AFCEEE77A17EE903A43
:109E600098B27047EDD5F7EE007A30EE270A9FEDF5
:109E70000A7ADFED0A7AE0EE077AFCEEE77A17EE6F
:109E8000903A98B2704700BF00E0F94400004042A9
:109E900000C079440000834400C079C400E08244DB
:109EA00070B5464E96F8464804EB840306EB8303F0
:109EB000A50093F84838032B6ED8DFE803F0592942
:109EC0001E02254406EB8505D5F84C08002870D104
:109ED00096F898389C425FD0013404F00302934214
:109EE00086F8462858D002EB820406EB840402234D
:109EF000C4F84C0884F8483870BD2B1906EB83036E
:109F0000D3F84C2872B1013AC3F84C28002070BD38
:109F10002B1906EB8303D3F84C28002AF3D1022235
:109F200083F84828254406EB850595F85438013B0D
:109F3000DBB285F854388BBB214B96F89868D3F880
:109F40007012D5F85008621C02F003024B1E032465
:109F5000B242034485F84848B3FBF1F0C5F84C0819
:109F60001AD0994218D80138C5F84C08012070BDA4
:109F700044F0ECF880B1124B2C44D3F8702206EB7D
:109F80008404012102F51C5384F848180F33B3FBF5
:109F9000F2F3C4F84C3870BD012070BD084BD3F803
:109FA0007022012002F2E733B3FBF2F3C5F84C381C
:109FB00070BD0138C5F84C08002070BD383900204C
:109FC0009801002003681A78012A01D00020704708
:109FD00093F90430044A03EB830302EBC30393F8C1
:109FE000E507C0B2704700BF3839002010B50C4CEF
:109FF000D4F89C381B78022B10D1D4F8A40842F076
:10A00000ADFDD4F8A40808B12123C380012141F09B
:10A010000BF8044843F068FDA4F8A00810BD00BF89
:10A02000383900208096980030B583B00D46012362
:10A0300001460DF107020446074843F0A7FF9DF8CB
:10A04000072035EA020304D003482A43214644F09E
:10A0500033F803B030BD00BFD441002038B5054609
:10A060000A460C460648294643F06AFE45F0800140
:10A07000034843F063FD231A5842584138BD00BFDE
:10A08000D4410020F0B53B4CD4F89C582B78022BDF
:10A0900095B018D0012B02D0002015B0F0BD95F975
:10A0A00004506B1CF8D0022DF6DC0091134694F896
:10A0B000A018024628465AF05BFD0028ECD028463E
:10A0C0005AF006FEE9E72B6A002BE5D10DF10F0CE3
:10A0D0008DF80F00002601200027CDE90833CDE9D7
:10A0E0000A12CDE90E6705938DF81C300D9310937D
:10A0F0001293CDF810C006908DF830008DF8440012
:10A10000EFF31180102383F31288D4F89C381B6A74
:10A1100013B3069B04AE32461BB1D3691432002B35
:10A12000FBD12B6A13B3996839B993420AD01968E5
:10A1300029B15B6899680029F7D01433F3E70E4A18
:10A14000C3E90026C0B280F31188D4F89C28136AB2
:10A15000002BFCD10120A0E704ABC0B22B6280F33E
:10A16000118804F69C0058F05BFCEEE7024A1A6086
:10A17000FFDE00BF38390020D441002070B50368ED
:10A180001D78022D14D0012D01D0002070BD044691
:10A1900093F904000A4B421C83F86859F5D0022851
:10A1A000F3DC0A4603F668132179BDE87040D3E575
:10A1B0001B6A002BE9D1012243F0C2FD012070BDD2
:10A1C0003839002013B53A4C0023D4F878298DF89B
:10A1D0000730137803F0FD01012905D194F87C19AB
:10A1E00011B90C2184F87C19022B1ED0032B2ED020
:10A1F00001220B212F4854F063FE042041F038FB6C
:10A200002C4801230DF10702002154F07BFE0028A9
:10A2100039D09DF80730482B35D1274BC4F86C391D
:10A22000264BC4F8703902B010BDD4F8800942F052
:10A2300095FCD4F8800908B13423C380012140F093
:10A24000F3FE1F4843F050FCA4F87C09D0E7D4F893
:10A25000283E506846F2A8111961002380F8883022
:10A260001222372154F000FED4F878390D225868B4
:10A27000242154F0F9FDD4F87839302258686A2145
:10A2800054F0F2FDB4E7D4F878391A78022A03D0F2
:10A29000032A07D00020C6E7D4F8800943F058FA13
:10A2A0000020C0E758681022372154F0DDFDF1E7A7
:10A2B00038390020B042002063EF0508E5EF0508BB
:10A2C000809698002DE9F04FDFF804B3B94EBA4FED
:10A2D000002395B00D4604464FF4F07220210BF197
:10A2E0007400CDE900458BF870308BF871305DF06B
:10A2F000E7FC20210BF515704FF4F0725DF0E0FCE7
:10A30000DFF8D0C2AD4932254FF0100E4FF47A700D
:10A310004FF00108DCF80430C3F30803002B40F0D1
:10A320002881EFF31183002B40F0238157F8D02CC4
:10A330008C6857F8D03C9A42F8D1D6F8FC319C4250
:10A34000F4D8D6F8F89100FB09F31B1BB3FBF9F323
:10A3500000FB0232DCF80430C3F30803002B40F0AA
:10A36000E780EFF31183002B40F0E28057F8D03CF8
:10A37000D1F808A057F8D04CA342F7D1D6F8FC4149
:10A38000A245F3D8D6F8F89100FB09F4A4EB0A042F
:10A39000B4FBF9F400FB03439B1AB3F57A7FD9D3DE
:10A3A000013DB7D19BF83524002A00F0BC809BF812
:10A3B0003634013B022B00F2B68003EB83000BEB3B
:10A3C000C0017F4C91F8D05404EBC0004FF0010C59
:10A3D000022DCBF838048BF8C0C400F0BC82DBB28D
:10A3E0000BEB0313D3F84835C1F8D434002B00F03D
:10A3F0009A8002234FF4807081F8D034A4F188034E
:10A400004C3CA1F8DC04C1F8E834C1F8EC44140970
:10A41000013C042C02F00F0200F28082694D05EB32
:10A420004403B3F8500040FA02F3DB0740F17682B0
:10A43000012303FA02F2013A10402C445AF0BAFE0A
:10A4400094F85C20604B104403EBC000CBF8400450
:10A45000837913F0BF0F66D12323C380092140F015
:10A46000E3FDDBF8403413B11A689B881383D7F8F7
:10A470007824564BB3EB920F80F07382B3EBD20F7C
:10A4800080F07182B3EB121F80F07182B3EB521F28
:10A4900080F07182B3EB921F80F07182B3EBD21F18
:10A4A00080F07182B3EB122F80F06F824FF48072D4
:10A4B00000230DF10D01FF20ABF83C240122CDE972
:10A4C0000413CDE90833CDE90A33DBF838148DF8ED
:10A4D0000D000D9306928DF81C208DF83020EFF3BF
:10A4E0001180102383F31288DBF838341B6A002BA9
:10A4F00000F01882069B04AC22461BB1D3691432CB
:10A50000002BFBD10B6A002B00F05582996841B9F2
:10A510009A4264D0196800295ED05B689968002966
:10A52000F6D01433F2E76FF0010015B0BDE8F08FFC
:10A53000EFF311898EF31288D1F808A00B68DC03C1
:10A5400044BFC6F8F481D1F808A057F8D03CD6F83B
:10A55000F4415FFA89F989F31188D6F8F891234418
:10A5600000FB09F4A4EB0A04B4FBF9F400FB034379
:10A5700012E7EFF311848EF31288D1F808900B687C
:10A58000DB0344BFC6F8F481D1F8089057F8D03CFB
:10A59000D6F8F421E4B284F31188D6F8F8411A44CD
:10A5A00000FB04F3A3EB0903B3FBF4F300FB02325B
:10A5B000D0E600BF383900204028002010E000E03D
:10A5C000004F002018800608382A0020404B4C001D
:10A5D000304A002000ED00E0B34AC3E90024C0B2D5
:10A5E00080F31188DBF838140B6A002BFCD18C2225
:10A5F0000120CDE908330DF10E050DF10F0905938A
:10A600008DF81C300D93109312938DF80E200023BB
:10A610000022CDE90E23049506900B908DF83000B2
:10A620008DF84400CDF82890EFF31180102383F3C8
:10A630001288DBF838341B6A002B00F07C81069B03
:10A6400022461BB1D3691432002BFBD10B6A002BBD
:10A6500000F0B181996839B993420AD0196829B1DB
:10A660005B6899680029F7D01433F3E78E4AC3E991
:10A670000024C0B280F31188DBF83824136A002B61
:10A68000FCD19DF80F301B2B40F08581DBF8403466
:10A6900001228BF870200BB12322DA80DFF80882C8
:10A6A000402240460A2143F04BFB8A21002301222D
:10A6B0008DF80E1000200021CDE90E01CDE9083300
:10A6C000DBF838140495CDF8289005938DF81C30EC
:10A6D0000D931093129306920B928DF830208DF803
:10A6E0004420EFF31180102383F31288DBF8383411
:10A6F0001B6A002B00F02781069B22461BB1D36901
:10A700001432002BFBD10B6A002B00F051819968A9
:10A7100039B9934209D0196829B15B689968002951
:10A72000F7D01433F3E7C3E90084C0B280F3118893
:10A73000DBF83824136A002BFCD19DF80F209BF81E
:10A740003414C2F380128BF87825002900F0CA80F7
:10A75000022900F0AF80D7F878345449B1EB930F59
:10A7600080F01581B1EBD30F80F0FF80B1EB131FA8
:10A7700080F0FF80B1EB531F80F0FF80B1EB931F9F
:10A7800080F0FF80B1EBD31F80F00381B1EB132F7A
:10A7900034BF4FF48077802796F89C11ABF87A7518
:10A7A00018290DD142490198C6F8A0015B08C6E9F5
:10A7B0006927B3FBF7F3A1FB03135B0BC6F8AC31BE
:10A7C0003948ABF83C740222002143F0B9FAC820A2
:10A7D00040F012FFDBF838044FF0800A0026002713
:10A7E00000230122CDE90E67CDE908338DF80EA0D4
:10A7F0000495CDF8289005938DF81C300D93109397
:10A80000129306920B928DF830208DF84420EFF3CE
:10A810001182102383F31288DBF838341B6A002B73
:10A8200038D0069B002B3DD02346D969143300292C
:10A83000FBD1006A002800F0B880816839B98342F2
:10A8400009D0016829B1406881680029F7D0143027
:10A85000F3E7C0E90084D2B282F31188DBF8380450
:10A86000036A002BFCD19DF80F3013F00203B7D11F
:10A8700000984178827800788BF87C05C1F120013E
:10A88000C2F1100218468BF87D158BF87E2515B0A5
:10A89000BDE8F08F0462D2B282F31188024858F00A
:10A8A000BFF8DBE72346C4E7684E00208096980097
:10A8B0005917B7D1D7F878344048B0EB930F72D21C
:10A8C000B0EBD30F51D2B0EB131F52D2B0EB531FEA
:10A8D00053D2B0EB931F54D2B0EBD31F34BF8027B9
:10A8E000402759E7D7F878343549B1EB930F4ED26A
:10A8F000B1EBD30F39D2B1EB131F3AD2B1EB531FE7
:10A900003BD2B1EB931F3CD2B1EBD31F41D2B1EBA1
:10A91000132F34BF4FF4807780273DE70020CBF81A
:10A9200040049BE504ACC0B20C6280F3118825485A
:10A9300058F076F856E60C62C0B280F311882148D0
:10A9400058F06EF898E60C62C0B280F31188404669
:10A9500058F066F8ECE691F8DD34634481F8DD34B4
:10A9600055E50222A4E50422A2E5042714E7082203
:10A970009EE5082710E710229AE510270CE7202211
:10A9800096E5202708E7402292E5802290E50227FD
:10A9900002E7402700E7DBF84004202140F044FBB9
:10A9A0004FF0FF30C1E50F46F6E6C0F80080FFDE4D
:10A9B000C3F80080FFDE034A1A60FFDE002D31017C
:10A9C000404B4C00684E002010B58CB000234CF278
:10A9D0000502044601A9CDE90633CDE90833ADF8F7
:10A9E00000208DF8023003220B930123CDE90312DE
:10A9F0008DF814308DF82830CDF808D043F03CFAAB
:10AA0000204602A942F0C4FE204643F035FA9DF8E4
:10AA100006000CB010BD00BF0848002302461178A4
:10AA2000022902F1060204D00133062BF7D10020DF
:10AA3000704703EB430300EB43007047B04F002027
:10AA40002DE9F041674C82B0242204F5B06000216A
:10AA50005DF036F994F8A9750023C4F8A435002FE9
:10AA60003CD1614ED6F8983063B39B6A53B35F48CC
:10AA70009847836833B303885D48013B9BB28446A3
:10AA8000064600253178032906F106061ED0013559
:10AA9000062DF7D100220178022900F1060000F00E
:10AAA00094800132062AF6D1D4F8A415052909D0DC
:10AAB000481C02FB01C2C4F8A405022000219380B7
:10AAC00010705180384602B0BDE8F081062303FBC8
:10AAD0000545B5F88235013B9BB2DBE794F8A80544
:10AAE00004F5B663C4F8AC3510B93F4E0027B9E79A
:10AAF00041F05AFDC4F8B80518B1837913F0BF0FBF
:10AB0000F3D13C48394642F0B9FF80460028ECD0EA
:10AB1000D4F8AC35354A9868C3F8942008B120239E
:10AB2000C380092140F080FAD4F8AC352E4E9868E5
:10AB300042F014F83048D4F8AC5542F0D5FF012368
:10AB4000A8803220C6F8B85086F8BC3040F090FE9D
:10AB50000423D4F8AC0500250DEB03029F210195D9
:10AB600043F09AF89DF805509DF804309DF80610C2
:10AB70002D0245EA03450D43294606F1980052F09F
:10AB800027FF60BB2846FDF721FC40BB9DF806501F
:10AB90009DF805309DF807202D0245EA0345174B27
:10ABA00015439D4215D0C6E92800A6F89C00A6F8DA
:10ABB000A8002846FDF70AFC074680B994F8A805C6
:10ABC00041F0F2FC42F0C4FD4CE7062101FB02C259
:10ABD00073E706F1980052F0B3FE0028E9D047462B
:10ABE00040E700BF304A002040280020D82800203D
:10ABF000B04F0020E04F0020404B4C0021AAEF0056
:10AC0000F0B40D6800240CE0BCF1050F18D8A0F1D9
:10AC100037030A2B14D104EB840415F8010B03EB62
:10AC20004404A0F13003DEB2092EA0F16107A0F1C7
:10AC3000410CF0D9052FE7D8A0F157030A2BEAD031
:10AC40000D601460F0BC70472DE9F041C54BC64E55
:10AC5000C64DC74C0822C3F88820336B82B043F03E
:10AC60000103336307464FF4C052284640F20233D3
:10AC700088466946CDE900230BF0B6F86B6AC4F844
:10AC80002C8C23F470436B626B6AC4F8347C43F4FD
:10AC900020436B626B6AB749C4F8301C23F47023FD
:10ACA0006B626B6AB448C4F8480643F420236B62B5
:10ACB000736CB249C4F84C1643F480437364736BED
:10ACC000AF48B049C4F8580643F0800302257363C7
:10ACD000AD4F84F85056AD4EAD4DC4F89C164FF0B4
:10ACE000A043C4F85436AB4AC4F8647603F5346321
:10ACF000A1F5D071C4F8A056C4F86866C4F8A436AB
:10AD0000C4F86C160123DFF8BCC2C4F860C607F5AE
:10AD10001077A5F5E465A6F5A066A1F58C61C4F8E9
:10AD2000A876C4F85C56C4F8146784F8533605F561
:10AD3000A075536106F5B076C4F8D81684F85A3772
:10AD40001946954B954AC4F8E056A7F5BC67A0355F
:10AD5000C4F8EC66924EC4F8E876C4F8F03607F50D
:10AD6000D45703F56953C4F8F4564FF0502500202A
:10AD7000DFF854E2C4F81827ACF5687C02F5A0426D
:10AD8000C4F81C77C4F8206707F5A04706F5A0466D
:10AD9000C4F82437C4F82857A3F5485304F5C96507
:10ADA000C4F82C27C4F83467C4F85437C4F8DCE678
:10ADB000C4F8E4C60246C4F830772B4684F85C0732
:10ADC000402683F81C21A3F822210132042AC3E97A
:10ADD000496083F81D1183F81F01C3F8300103F1A6
:10ADE0002803EED1002211462B46402083F874231D
:10ADF000A3F87A230132042AC3E9DF0183F875132B
:10AE000083F87713C3F8881303F12803EED14FF0CA
:10AE1000A04364489A6822F001029A60DA6842F01E
:10AE20004002DA600AF09EF894F85136002221219F
:10AE300061F317420BB142F4801294F84B16D4F828
:10AE4000543601299A6300F0E480DA68D4F8546734
:10AE5000D4F85806C2F3076121F0600141F04001C7
:10AE600061F31F620021DA603160026861F3CC2275
:10AE7000026094F85326012A00F0B88010214A4855
:10AE80000AF0C2FB48480AF0A5FBD4F8580694F82B
:10AE9000493600224FF0FF31026142618161C26197
:10AEA00053B305F11407414E114607EB83074FEAF0
:10AEB000830C4FF0FF0E56F8042F1368002BACBF25
:10AEC00000234FF09043B74213601161C2F808E0CD
:10AED000F1D105F15003364963440027FF2651F8AC
:10AEE000042F1568002DACBF00254FF09045994206
:10AEF000156017619660F2D1036994F84B1643F41C
:10AF000080730129036161D0D4F8542629480023B5
:10AF1000936100294FF0FF336FF08041516153601E
:10AF2000516114BF00231023906143F470139069A2
:10AF3000D4F8301C43F4605343F008030343936197
:10AF40009368096843F00103936088471A4B1B4AD2
:10AF5000DA6068461A4B0093FEF790F902B0BDE83C
:10AF6000F08100BF00E100E0003802400000024034
:10AF7000304A00200C040020080401004000400179
:10AF800000080050000B00502009005040090050FC
:10AF9000200B0050003C0140C00500500010005044
:10AFA0000030005084500020785000208C50002049
:10AFB000C85000200008008000ED00E00005FA0500
:10AFC000430200010009005020050050D4F8542627
:10AFD000144B03636FF08041134D00234FF0FF309B
:10AFE000936151615060516195619EE701680F4A1C
:10AFF0000F4E41F003010160802159629E62C3F847
:10B000000421E022C3F80821C0F24002C3F80C2159
:10B0100034E79A6822F03E0141F02A0161F3070209
:10B020009A6012E70301810000080080A000400040
:10B030008000200010B5194C94F83D0C90B9184BC5
:10B0400003F86F0C43F86C0C94F8403C012B20D0B3
:10B05000D4F8443C0BB313495B68BDE81040A1F140
:10B060000C00184741F0A0FA94F83F2C0C49003A24
:10B0700018BF012201F86F2C41F86C0C0028E3D0B6
:10B080001F22C28020213FF0CFFF94F8403C012BCB
:10B09000DED1054BC4F8443CDDE710BD304A00204A
:10B0A00040280020785600202804002099B10A6B1F
:10B0B000824216D9154BD3F8842C914221D34C39B6
:10B0C00091421ED30B6B9842F9D38B6B9842F6D802
:10B0D0000B46184670470D4BD3F8841C0A6B904200
:10B0E00012D30B680BB9F4E70A6B90420B4602D3FC
:10B0F0008A6B9042EDD951F84C3F002BF4D11846A1
:10B1000070470023184670470A46D8E7304A0020A7
:10B110002DE9F047CC0143D10346224A43F8082BDE
:10B120004FF0FF324260022418467E26DFF8788016
:10B13000D8F8889C2644013E051D49466FF07047AB
:10B140004FF0010A08E0A3421CD0631C45F8043C00
:10B15000321B1C460435CAB10B6BA34202D88B6B61
:10B16000A34204D22046FFF7A1FF014690B10A791D
:10B170004B6B002AE7D1A34204D0E6D245F8042C59
:10B18000631CE5E745F8047C631CE1E7C8F8881C0C
:10B19000BDE8F08745F804AC321B631C4946D8E78C
:10B1A0008026C3E7F8FFFF0F304A002070B44479CF
:10B1B00041BB03684FF400524FF400762025022172
:10B1C0003CBB1A8C22F001021204120C1A841A8B56
:10B1D000188C22F0F30280B2120420F00A00120C44
:10B1E000014342F0010241F001011A8319841A8BD4
:10B1F00022F00C021204120C1A831A8B92B270BC49
:10B200001A83704700220368164615461146002C23
:10B21000D7D0042C21D0082C38D0198C21F480519F
:10B220000904090C19849C8B1D8C45F6FF7040F6AF
:10B23000FF4128402140024342F4805241F4807192
:10B2400099831A849A8B22F440621204120C9A8316
:10B250009A8B92B270BC9A8370471A8C22F01002BB
:10B260001204120C1A84188B198C89B240F6FF4212
:10B2700021F0A00102400D4342F4807245F0100518
:10B280001A831D841A8B22F44062B3E71A8C22F4CD
:10B2900080721204120C1A84998B1A8C21F0F3011B
:10B2A00092B2090422F42062090C324342F4807203
:10B2B00041F0010199831A849A8B22F00C02C4E7B1
:10B2C00038B50E4D044600680AF092FCD5F8782493
:10B2D000204652084FF6FF713FF014FA2046002135
:10B2E000FFF764FF064BC5F8E43C05F6E441204651
:10B2F0000022BDE838403FF013B900BF40280020CD
:10B300001D120208036870B55E6A26B13346052235
:10B31000BDE87040184704460D464E1D00E0236806
:10B320009B68204698470028F9D0236815F8011B30
:10B330001B6820469847B542F1D170BD2DE9F04712
:10B34000164D0746002095F9959C05F69C4684B05D
:10B3500007EB010805F63C7504464FF0B60A336862
:10B36000ABB193F83830142B11D019F1020F01D082
:10B370004B450CD1002269463046CDE90244CDE967
:10B380000078ADF808A08DF80D4030F0A1FCE03653
:10B39000B542E4D104B0BDE8F08700BF304A0020D8
:10B3A0002DE9F0479AB0DDE9226ADDF89090044675
:10B3B0000D461746984602E0206840F0AFFE206830
:10B3C00040F0B4FE0028F7D10146642201A85CF0E9
:10B3D00077FC264B8DF80450CDF85CA00293002D2D
:10B3E00040D0AB1E012B3FD9042D14BF00220322F5
:10B3F0001F4B039653F8D03C8DF805201E440123C3
:10B40000CDE9059404968DF85B3037B14246394654
:10B4100007A85BF0FBFC8DF85A80164E96F87E9FCD
:10B4200000231893B9F1000F19D196F87D0F64220B
:10B4300002FB006001A900F578605BF0E7FC0123E6
:10B4400086F87D9F86F87E3F236843B143463A469F
:10B45000294620461AB0BDE8F04717F02DBC1AB0B7
:10B46000BDE8F0870522C3E70222C1E76C5900203E
:10B4700040280020304A0020014488420ED010B4F9
:10B480000346074C074813F8012B04FB00F09942D0
:10B4900080EA0200F7D15DF8044B7047014870471D
:10B4A00093010001C59D1C810A44914215D030B41E
:10B4B00041F2210511F8014B082380EA042010F421
:10B4C000004F85EA40040ABF4000A0B280B2013BB1
:10B4D000F5D18A42EED130BC704770472DE9F04F6C
:10B4E000A34AA44CB2F84C12B2F84A32A24E2DED47
:10B4F000068B07EE901A0AEE103A94F8C532DFED8B
:10B500009FAAF8EE679A07EE903AB4F8C632F8EEC2
:10B51000E77AF2EE046A0A2B87EEA67AB8BF0A230E
:10B52000A6F6E87A9146002285B0CAF8F82F04F50D
:10B530003E7707EE903AB4F8C83286ED007A08EE0E
:10B54000103AF8EEE78AB8EEC88AB6EE009AF4EE42
:10B55000488A29EE890AF1EE10FAC8BFB0EE688A6F
:10B5600094F8C432C6ED018AB4EEC80AF1EE10FABE
:10B57000D8BFB0EE408A082BA8BF0823B1F57A7F68
:10B5800038BF134680EE080ACAF8F43F86ED028AF7
:10B590005AF05AF8B7EE007AB4EE470AF1EE10FA14
:10B5A00048BFB0EE470AFDEEC07AB8EE4AAAF8EE00
:10B5B000E76A17EE905AC4EDB37ACAEE297A67EEBD
:10B5C000A67A87EE276A89EEA67ADFED6D7A84ED9A
:10B5D000B46AC7EE279A88EEA90AC4EDB59A5AF064
:10B5E000B3F80228B8BF022088EE290A8046C4F8C2
:10B5F000D8025AF0A9F82328A8BF2320B8F1230FB6
:10B60000A8BF4FF023084045C4F8DC02B8BF40464D
:10B61000A0EB0801012DD4EDB87A9FED5A8A83463C
:10B62000B8BF01250131F5EE407AF1EE10FA2CD1C8
:10B63000554A9FED56AA0195002302971D461746CD
:10B6400007EE905AF8EEE79A039169EEAA9A01354F
:10B65000B0EE690A4CF042F9F0EE408AB0EE690AA9
:10B660004CF0C8F8A8EE880A242D039920EE0A0AA7
:10B6700068EE8A8A87ED000AC7ED018A07F108079C
:10B68000DED1DDE90157DFED427A91FBF5F20023CF
:10B6900047E9053847F8082C47F80CBC47F8045C24
:10B6A0003A460133482BA2EC018AFAD13948D0F846
:10B6B000F4C0D0F8F80007F5907300220132242A74
:10B6C000C3F800C0586003F10803F7D1324B07F507
:10B6D00015779F42A7D1DFF8C880DFED308AC4ED2F
:10B6E000B87A00257019C3460027DAF8F43F9F4264
:10B6F00000F1240430DA07EE907A96ED016AF8EE54
:10B70000E76AD6ED027A36EE897A77EEC67A743039
:10B7100067EE877A07EE103AB8EEC77AB9F84A3280
:10B7200087EE870A0421013700EE903A30EE060AD0
:10B73000F8EE600AABEC010A96ED001A84ED178A68
:10B74000A6EEA81A84ED168A84ED158A84ED148A73
:10B750004CF0EEF92046C8E705F59075B5F5587F31
:10B7600008F12008BED105B0BDEC068BBDE8F08F16
:10B7700038390020285B0020185A0020C3B8B23D99
:10B7800000009042000000000865002072F97F3F31
:10B79000BC297E3F188006081C650020CDCC4C3E9D
:10B7A0002C5A00202DE9F04F2DED028BDFF87C8123
:10B7B000DFF87C91DFF87CA19FED578A85B008F116
:10B7C0002C040127FEB218F8010B324657213FF036
:10B7D0004DFA054600287CD00368A0600122B3F131
:10B7E000804F04F8282C00F08D804C4A934200F0E2
:10B7F0008980D9F8783407EE903AF8EE677A00211C
:10B800008020AAFB0323DB08002244F80C3C4FF401
:10B81000005C012344F8100C44E906C218F8010C3E
:10B8200044ED087A04F8271C04ED098A44F8082C32
:10B8300024F81C3C24F81A3C40F0B6FEE06030B11D
:10B840005722C67182716A7A422140F0BBFCD9F856
:10B8500078142846FDF734FD14F8273C002B43D01C
:10B8600021462F4B41F8043D002228463EF058FE69
:10B870006B792868ADF80430042301254FF0000BE4
:10B880000DEB0301ADF80C30ADF806B0029509F0F0
:10B89000A5FF54F8103CA2682249126891F8E41BF5
:10B8A000013B9BB2013E1385F6B24FF0FF33D362EA
:10B8B000B1424FF40053958244F814BC44F808BCDC
:10B8C00024F81C5C24F81A5C44F8183C01D13EF0C2
:10B8D00015FC0137052F04F138047FF473AF05B070
:10B8E000BDEC028BBDE8F08F0F48DFF84CC044F888
:10B8F000040C63602246211F2846C4F800C03EF0B5
:10B900000FFEB5E7D9F8783407EE903A0121F8EE4A
:10B91000677A084675E700BF00000000000C004091
:10B920005D8D0408285B0020918E040828660020A5
:10B93000402800201F85EB5121A104080C480D4B25
:10B94000D0F8001C10B40C4CC0F8F03B8A1E223119
:10B95000B0F80C3C1B01A4FB03C3DB08A3F5B063E8
:10B9600022F8023F9142F3D15DF8044B704700BFCB
:10B97000285B0020258D0208CDCCCCCC70B5084CBE
:10B98000251D2E4614F8010B30F08AFB28B10379EF
:10B9900005F8013BB442F5D170BDFF23F8E700BFC5
:10B9A000486700202DE9F0471D4F012607F10805E3
:10B9B000B2464FF03B094FF0000817F8010B40F07A
:10B9C000F3FD044690B180F80690C671FB7803F051
:10B9D0007F02012A18D013F0800F20460DD185F880
:10B9E000048041F0B5F885F805802C600136052EFD
:10B9F00005F10805E1D1BDE8F08785F804A041F024
:10BA0000ADF885F805A0F0E71B0605D40121204616
:10BA10003FF00AFBFB78DEE741F0A0F8F6E700BF55
:10BA2000506700202DE9F04F0C68B94EB94F2588BA
:10BA3000D6F87864B6FBF2F285B0013A013BBC421D
:10BA400096B2BDF838809BB2AAB211D0B24DAC42CA
:10BA50000ED0B4F1804F0BD0A5F58035AC4207D0A5
:10BA600005F58065AC4203D005F58065AC4202D196
:10BA700022F0700292B2A94DAC4211D005F580655A
:10BA8000AC420DD022F4407205F56C4592B2AC4246
:10BA90002280E362268540F026810023238602E08F
:10BAA0002280E36226850125A58291F808904A79D3
:10BAB00019F0020676D000254FEAC909402109F0A5
:10BAC0000809AE460395AC462F462B4601954FF428
