:020000040800F2
:10000000F0FF01200506060815EC0008818C0408A5
:100010007D0606087D0606087D060608000000002D
:1000200000000000000000000000000011EC0008CB
:100030000DEC00080000000009EC00080D2A04087F
:100040007D0606087D0606087D0606087D0606086C
:100050007D0606087D06060841D1040809D104087A
:10006000D1D0040899D0040861D0040855C9050806
:1000700045C9050835C9050825C9050811C9050878
:10008000FDC80508E9C805087D060608000000004F
:1000900000000000000000000000000029D004085B
:1000A000D514040821150408C514040845150408CE
:1000B0001515040805150408F51404085DFE050867
:1000C00065FE050851FE050859FE05087D0606086F
:1000D0007D060608E15604082556040800000000C5
:1000E000F1CF04087D060608CD04010800000000D9
:1000F000000000000000000000000000D5C8050856
:10010000000000007D060608E51404087D060608C8
:1001100000000000000000000000000000000000DF
:10012000C1C80508ADC8050899C8050885C80508EF
:1001300071C8050800000000000000000000000079
:100140000000000000000000000000008DE5000835
:100150005DC8050849C8050835C80508695504087B
:1001600045FE05084DFE05080000000000000000E7
:10017000000000000000000000000000000000007F
:10018000000000007D0606080000000000000000DE
:080190007D0606087D06060845
:08019800A401060001000000B3
:1001A0000E02010002000000606B0020186C0020AD
:1001B000000000006C430708146C002013020100CB
:1001C00004000000C8280020206C0020000000006F
:1001D0006E4307081C6C0020031101000A00000098
:1001E000A86A0020286C00200000000069110108A6
:1001F000246C0020232001001000000074690020FE
:10020000386C002000000000C1610208346C00203E
:100210000D1001004C000000646B00204C6C0020AD
:1002200000000000718F0308486C002009020100E3
:1002300001000000D06800209C6C0020000000003D
:1002400072430708986C00202C0005001400000081
:10025000B8680020A46C002000000000A182020801
:10026000A06C0020FD010100240000008068002037
:10027000BC6C0020000000001F000408B86C0020C7
:10028000160215003F000000242A0020E46C002024
:1002900000000000F9250508E06C002006100100B0
:1002A0003000000094290020286D0020000000008C
:1002B00095260508246D0020FB01010001000000C7
:1002C0001C6400205C6D0020000000003126050841
:1002D000586D0020FC01010009000000E8620020C8
:1002E000646D00200000000039260508606D0020C4
:1002F000F701010006000000E0620020746D00209C
:100300000000000074430708706D0020F90101002F
:1003100004000000DC620020806D0020000000006E
:10032000B90004087C6D00201102010008000000E3
:10033000B4620020886D0020000000007A430708A6
:10034000846D00201212010004000000AC62002045
:10035000946D00200000000082430708906D00208B
:1003600018300100300000007C6200209C6D0020ED
:1003700000000000693D0508986D0020E8030100B9
:100380000400000070610020D06D0020000000001B
:1003900005270508CC6D00202042010090000000D8
:1003A00020580020D86D002000000000FDFA02084F
:1003B000D46D0020EA0301001000000088500020E6
:1003C0006C6E00200000000086430708686E002065
:1003D000000201000B000000304D0020806E002064
:1003E00000000000292705087C6E0020FF21010085
:1003F00005000000DC4C0020906E00200000000092
:10040000212605088C6E0020081203000F00000052
:10041000E84C00209C6E00200000000031270508F9
:10042000986E0020FA0101000300000048460020F9
:10043000B06E00200000000011270508AC6E0020FF
:100440000C02010004000000D8440020B86E002017
:1004500000000000F5260508B46E0020FE01010032
:100460001400000050370020C06E00200000000083
:1004700089270508BC6E0020123001001100000021
:10048000E4A2002058A300200000000098430708C1
:1004900054A300200B3001001E000000649B0020CC
:1004A000A8A3002000000000AA430708A4A300207E
:1004B0001F50010024000000249B0020CCA300203A
:1004C00000000000C8430708C8A30020050201007F
:1004D0000A000000B89A0020F4A3002000000000E9
:1004E000EC430708F0A300201B02010010000000ED
:1004F00084A8002004B30020000000005126050855
:1005000000B300201B200100140000003CA50020C7
:1005100018B3002000000000CD7F010814B30020B4
:10052000210201006801000078A5002030B30020FE
:1005300000000000518001082CB30020371001009A
:100540003000000064AA00209CB4002000000000DD
:10055000F843070898B400202F1001002200000083
:10056000DCB20020D0B400200000000028440708BE
:10057000CCB400202322010010000000ACA7002012
:10058000F8B40020000000004C440708F4B4002038
:100590001E0001000900000098A700200CB50020F3
:1005A000000000005C44070808B500200520010099
:1005B0000800000024A800201CB500200000000056
:1005C0006844070818B50020FD0701007A00000004
:1005D00008A4002028B5002000000000A177010831
:1005E00024B50020F59101006C000000C8A4002093
:1005F000A8B5002000000000518A0108A4B5002021
:10060000261001000800000020B6002018B60020C7
:1006100000000000A975010814B6002010100100A8
:100620000200000024DB00204CDB00200000000062
:100630007044070848DB0020283001001600000045
:100640000CDB002054DB002000000000519B02085E
:1006500050DB0020190001000800000004DB00202E
:1006600070DB002000000000724407086CDB0020F3
:10067000012001000C00000078CA00207CDB002073
:10068000000000007A44070878DB00200C400600D8
:100690000801000074C800208CDB0020000000006E
:1006A000D5FF020888DB00200E000600480300008A
:1006B00094CD002098DC002000000000752605087D
:1006C00094DC00200A9001002E00000028C80020C1
:1006D000E4DF0020000000007D610208E0DF002070
:1006E0001310010004000000F4D4002018E00020E2
:1006F000000000008844070814E000200001010009
:100700000400000070C7002020E00020000000006E
:100710008C4407081CE000200201010003000000D7
:100720006CC7002028E0002000000000B907030883
:1007300024E00020220201001C010000B8D20020A9
:1007400030E0002000000000213D05082CE00020E2
:10075000010201000B0000007CC7002050E10020D6
:1007600000000000192705084CE1002002020100EA
:1007700003000000C0CA002060E10020000000006B
:10078000000000005CE10020E90301001A00000005
:100790007CEB0020B8EB002000000000904407082C
:1007A000B4EB00202B00120024000000FCEB002022
:1007B000D8EB00200000000075820208D4EB002076
:1007C000292014007800000028EA002024EC0020F2
:1007D000000000000000000020EC0020F6210100D5
:1007E0000C00000010E80020A0EC00200000000039
:1007F000AC4407089CEC00201C0202001C00000016
:10080000BCE70020F4EC0020000000000D3B0508D0
:10081000F0EC00200A02010014000000E4F80020BF
:1008200000F900200000000085070308FCF8002004
:100830003800010008000000B4EF002018F9002083
:1008400000000000B844070814F90020EC031D0064
:10085000AE000000F0EE002024F9002000000000AF
:1008600065FC020820F90020EB03200000010000D5
:10087000E0EF0020D8F90020000000000000000098
:10088000D4F90020340001000800000044F30020E7
:10089000DCFA002000000000E9FA0208D8FA002083
:1008A0002A00080080000000E0F00020E8FA0020A4
:1008B00000000000BDFA0208E4FA00200200010076
:1008C0000C00000060FC002000020120000000007D
:1008D00000000000FC010120F831010002000000CE
:1008E000B4FE00201002012000000000C0440708F0
:1008F0000C02012025302000000200006CFC0020CA
:100900001802012000000000000000001402012075
:10091000290201004000000004FC00201C0401200A
:1009200000000000C2440708180401202C02010046
:1009300004000000B4FF002060040120000000005B
:10094000024507085C04012028020400040000009E
:10095000200D0120340E0120000000007126050842
:10096000300E012027020400040000001C0D0120AD
:100970003C0E01200000000065260508380E01200D
:100980001F02080010000000600A0120440E012030
:1009900000000000FD250508400E01201A0201009C
:1009A0004900000098040120580E012000000000BA
:1009B000B53D0508540E0120031201003D00000062
:1009C000FC090120A80E01200000000006450708D0
:1009D000A40E01201D02020006000000681901207B
:1009E0004C1B01200000000000000000481B0120FB
:1009F000061203001200000078190120D82B0120F4
:100A000000000000D93B0508D42B0120390001006B
:100A1000050000008C190120F02B012000000000CF
:100A2000E5250508EC2B012016100100040000004C
:100A300014130120FC2B012000000000444507088E
:040A4000F82B01206E
:100A44000403090412010002EF0201408304563238
:100A54000002010203010000120100020202004030
:100A6400830440570002010203010000FFFFFFFF5F
:100A74000000000000000000010000000000000071
:100A8400000000007F36002000000000010000008C
:100A94000000000000000000000000000000000052
:100AA4000000000000000000000000000000000042
:100AB4000000000000000000010000000000000031
:100AC40000600240106002400000000000000000CE
:100AD40000000000000B0000000000000000000007
:100AE4000000000000600240286002400100000095
:100AF4000000000000000000060C000000000000E0
:100B0400000000000000000000600240406002405D
:100B1400020000000000000000000000100D0000B2
:100B2400000000000000000000000000006002401F
:100B340058600240030000000000000000000000B4
:100B4400160E00000000000000000000000000007D
:100B540000600240706002400400000000000000D9
:100B640000000000200F0000000000000000000052
:100B740000000000006002408860024005000000A0
:100B8400000000000000000026100000000000002B
:100B9400000000000000000000600240A06002406D
:100BA40006000000000000000000000030110000FA
:100BB400000000000000000000000000006002408F
:100BC400B8600240070000000000000000000000C0
:100BD400362F0000000000000000000000000000AC
:100BE40000640240106402400000000000000000A5
:100BF40000000000003800000000000000000000B9
:100C0400000000000064024028640240010000006B
:100C14000000000000000000063900000000000091
:100C24000000000000000000006402404064024034
:100C3400020000000000000000000000103A000064
:100C440000000000000000000000000000640240FA
:100C5400586402400300000000000000000000008F
:100C6400163B00000000000000000000000000002F
:100C740000640240706402400400000000000000B0
:100C840000000000203C0000000000000000000004
:100C94000000000000640240886402400500000077
:100CA40000000000000000002644000000000000D6
:100CB400000000000000000000640240A064024044
:100CC40006000000000000000000000030450000A5
:100CD400000000000000000000000000006402406A
:100CE400B86402400700000000000000000000009B
:100CF4003646000000000000000000000000000074
:100D04007D000000B5830008B1830008AD830008AE
:100D1400A18300089D830008A9830008A583000817
:100D2400A1A00008F1860008E1880008718F00087E
:100D3400ED8F0008B5900008DD860008CD8400081A
:100D4400C5840008010000000000803F9D3F0108A9
:100D5400A144010819400108210A0108050C0108F1
:100D6400310A01084D0A0108F9090108E9090108D5
:100D7400000000000000000009022000010104C07E
:100D840032090400000208065005070581024000EC
:100D9400000705010240000009026400030100C0CD
:100DA40032090400000103000000092111010001BF
:100DB4002236000705830309000A080B0102020218
:100DC40001000904010001020201000524001001D0
:100DD4000524010002042402020524060102070579
:100DE40082030800FF09040200020A00000007054C
:100DF400010240000007058102400000090243008F
:100E0400020100C0320904000001020201000524AD
:100E14000010010524010001042402020524060037
:100E240001070582030800FF09040100020A00000B
:100E34000007050102400000070581024000000090
:100E4400FF000000140000FF00000000000000008C
:100E5400AA5507010000AA55050100002D202D2DDB
:100E6400202D2D2D2D202D2D2D2D000000000000D6
:100E74000000000000000000000000081C3F0608FD
:100E8400FF1FFF1F01000000FFFFFFFF0501090511
:100E9400A101A100050109300931093209330935DD
:100EA4000934093609371581257F750895088102AB
:100EB4000509190129081500250195087501810204
:100EC400C0C0000009022200010100E03209040050
:100ED400000103010200092111010001223600076B
:100EE40005830309000A0000000000000102030456
:100EF4000102030406070809AA550B010000AA55BC
:100F040005010000AA550902000000AA5503009F2C
:100F140001000000C01200009CA30020000000009B
:100F24006CA3002000000000010000000F0000007E
:100F34000200000001000000000001007EFFFF002D
:100F4400FFFFFFFF0101FF01E0010100C5EE010801
:100F540000000000000000008845060808FF0000AB
:100F6400000000000000000000000000445C0608CF
:100F7400000000000000000000000000FC5C060807
:100F8400000000000000000000000000A85C06084B
:100F94000000000000000000190302085CCD0020DE
:100FA40001010000091A0208BD1B0208000000002C
:100FB400605E0608551902080000000000000000E9
:100FC400C45D0608A51D0208000000000000000022
:100FD4007C5D06082D202D2D202D2D2D2D202D2D31
:100FE4002D000000000000000000000000000000D0
:100FF40000000000FFFFFFFFD50D02080000000005
:1010040000000000D45B060801000000FA000000A4
:10101400010000000100000001000000D8C9002008
:101024000000F40101000000D6C900200000F40112
:1010340001000000D4C900200000F40101000000F8
:10104400D2C900200000F40101000000D0C9002032
:101054000000F40101000000CEC900200000F401EA
:1010640001000000CCC900200000F40101000000D0
:1010740011F60108D5F5010800000000684A0608C9
:10108400BCC9002005320100CAC900206400F40173
:1010940001000000C8C900206400C4090100000068
:1010A400BAC90020E803D00701000000B8C9002035
:1010B400E803D00701000000B6C90020E803D00708
:1010C40001000000B4C900201E00B80B010000009C
:1010D400C2C9002005000F0001000000C4C900209F
:1010E40003000A0001000000B2C900201E00F40140
:1010F40001000000C6C9002002000000F44A0608EE
:10110400B0C900201400640001000000BEC9002022
:101114003200E80301000000AEC900200000C8004E
:101124000100000048BE060850BE06085ACD002043
:101134000100C4090000000058CD00200100C409CA
:101144000000000056CD00200100C409000000008A
:1011540054CD00200100C409000000004ECD002041
:101164000100C4090000000052CD00200100C409A0
:10117400000000004CCD00200100C4090000000064
:101184004ACD00200100C409000000009DC70020D2
:1011940000C801009CC7002000C801009AC70020B5
:1011A4000000FFFF0A00000098C700200100C800EB
:1011B4000100000096C700203200307532000000A4
:1011C40094C700207EFF14000500000092C7002091
:1011D40005002C010500000090C70020055A0500F9
:1011E4008DC7002000FF01008FC70020020000000F
:1011F4007C0800208BC7002003000000BC3F0608C9
:101204008CC7002000FF01008EC7002002000000F0
:101214007C0800208AC7002003000000BC3F0608A9
:10122400E0C60020FF7F0100DCC6002000000000B3
:10123400FFFFFFFF01000000D8C6002000000000EF
:10124400FFFFFFFF01000000D4C6002000000000E3
:10125400FFFFFFFF0100000065F50108F5F4010838
:1012640000000000184B060888CA0020EE02CA08D5
:101274000100000086CA002000C8010064000000CC
:1012840085CA002002C801006400000084CA00204E
:1012940002000000004B060876C700200083007D92
:1012A4000500000074C7002080C1803E05000000D6
:1012B4006FC7002000FF010068C700206400F4012C
:1012C4000100000066C700206400F4010100000072
:1012D40064C700206400F4010100000062C700201C
:1012E40003000000244C060861C70020020000002F
:1012F400344C060825C800200D000000404C0608A8
:1013040022C800200064010020C8002032001027F9
:101314000A0000001EC800200D000000404C060812
:101324001DC800200D000000404C06081CC8002009
:1013340003000000784C06080000000000000000D4
:1013440000000000884C06088ECA00204A000000F5
:10135400C04C06088CCA00200100401F0100000098
:101364008BCA002003000000EC4D060827C80020AB
:1013740003000000FC4D060826C8002003000000FE
:10138400FC4D060864C800200000E80301000000CA
:1013940062C800200000E8030100000060C80020CB
:1013A4000000E803010000005EC800200000E8031C
:1013B4000100000072C80020020000000C4B060867
:1013C40070C800200000F401010000006EC8002075
:1013D4000000F401010000006CC800200000F401CA
:1013E400010000006AC800200000F40101000000B0
:1013F40068C800200000E8030100000066C800205F
:101404000000E8030100000095C900200064010009
:101414000A00000094C90020006401000A000000D2
:101424008EC90020006401000A0000008DC900205C
:10143400006401000A0000008CC90020006401005F
:101444000A00000092C9002000FF01000A00000009
:1014540091C9002000FF01000A00000090C900208B
:1014640000FF01000A0000008AC9002001FF0100FA
:101474000A00000089C9002001FF01000A000000E1
:1014840088C9002001FF01000A0000005CC8002098
:101494000000E803010000005AC800200000E8032F
:1014A4000100000058C800200000E803010000000B
:1014B40056C800200000E80301000000DED0002030
:1014C40000C80100DDD0002000C80100DCD00020ED
:1014D40000C80100ECD000200000D007010000008B
:1014E400E7D0002000C80100E6D0002000C80100B9
:1014F400E5D0002000C80100EAD000200000D00799
:1015040001000000E4D0002000C80100E3D0002066
:1015140000C80100E2D0002000C80100E8D000208B
:101524000000D00701000000E1D0002000C8010045
:10153400E0D0002000C80100DFD0002000C8010076
:1015440040CC06080000000000002CDB00204CCC3E
:101554000608070000000000900C002054CC060888
:10156400070000000000880C00205CCC060807007F
:1015740000000000800C002064CC06080800000075
:101584000000740C00206CCC06080700000000006A
:101594006C0C002074CC0608070000000000640CEA
:1015A40000207CCC06080700000000005C0C002032
:1015B40084CC0608080000000000500C00208CCCED
:1015C4000608070000000000480C002094CC060820
:1015D400070000000000400C00209CCC0608070017
:1015E40000000000380C0020A4CC0608080000000D
:1015F40000002C0C0020E8BD0608010000000000DB
:1016040000000000000000001000000000000000C6
:1016140000000000E9F20108CDF20108B10D020852
:101624000C4E060818C80020E803D007010000008B
:10163400000000000000000059030208A84E06083C
:1016440089C7002003000000FC4E060888C700205C
:101654000003010087C700200003010039F20108DC
:10166400EDF10108000000000C4F0608ADF101087F
:1016740065F1010800000000A84F060885F2010882
:10168400950D0208000000002850060878C70020C5
:101694000103010091EE010871EE01080000000051
:1016A4008C530608F9F60108CDF601080000000085
:1016B4000C540608E5F001089DF001080000000044
:1016C4007C540608F9F20108B9250208000000005C
:1016D400185506086511020825F7010800000000E6
:1016E400C055060849F3010800000000000000008E
:1016F4005C560608E1F30108B5F301080000000098
:10170400C056060851F401080DF401080000000059
:1017140024570608E55F020895F40108000000005C
:10172400B0570608ACC900200106010089F301087E
:101734005DF301080000000074580608A15F020868
:101744005D0F020800000000D85806082D6002084A
:10175400990F020800000000980C0020ABC900207B
:1017640001060100B5F201089DF201080000000025
:101774002C590608350D0208000000000000000086
:10178400745906082DF101087D0D020800000000BF
:10179400105A0608000000000000000000000000CD
:1017A400AC5A0608CDF4010811100208000000002C
:1017B4002C5B060800000000000000000000000090
:1017C400445D0608909A00209CFF2C010000000054
:1017D40068D40020E0150C17000000006AD4002033
:1017E40002000000485F06085DC7002002000000F8
:1017F400485F060858C7002088136F1701000000CF
:101804005AC7002088136F1700000000DC6A00200C
:101814000000000000000000DA6A00200000000060
:1018240000000000D86A0020000000000000000052
:10183400D66A00200000000000000000D46A0020E6
:101844000000000000000000D26A00200000000038
:10185400000000006C0600200000000000000000F2
:10186400E1C6002003000000C45E060850C7002043
:1018740088136F17010000004AA0002088136F1717
:10188400000000007DEF01080000000000000000DF
:10189400D45E060815CD002001000000285F06086C
:1018A4004CA0002001000000345F060842A0002084
:1018B400020000003C5F0608000000000000000079
:1018C40000000000545F060865EF010800000000F6
:1018D40000000000F05F06080000000000000000A7
:1018E4000000000044600608000000000000000042
:1018F40000000000B46006085CC70020020000007D
:10190400485F060846A00020E0150C170000000000
:10191400DCE2002030E3002001F11F3FD601FF018B
:101924000100000000010101000000000000803FF0
:101934000000000000000000000000000000803FE4
:101944000000000000000000000000000000000093
:101954000000000000000000000000000000000083
:1019640000000000555B05080000000000000000B6
:1019740000000000000000007404012008000000C2
:10198400000000006404012008000000F53E010886
:10199400150B01088D3E010800000000E50901084F
:1019A40075470108DD3D0108313A010800000000D7
:1019B40000000000A5090108C5830008B9830008D8
:1019C400ED8E0008098F0008D18E0008B58E00083E
:1019D400998E0008AD3E0108F10A0108E13D0108B5
:1019E40000000000BD090108353A0108B13D0108B5
:1019F4009D3901080000000000000000B109010841
:101A04003CD40608C4B6060800000000E58E0308AE
:101A1400A0860100040000003CD4060844D4060853
:101A24000000000085070408E8030000040000002B
:101A340074C406080000000000000000594C0308AC
:101A44007D000000FF00000044C206080000000002
:101A540000000000950803087D000000FF0000005E
:101A640004C70608000000000000000091200308DD
:101A74007D000000FF0000007CC406080000000098
:101A840000000000B9030408E8030000030000009C
:101A94004CD406080000000000000000F55E0308B6
:101AA400D007000003000000DC3807080000000035
:101AB400E5800208A92A04085F76000005000000FA
:101AC400583C07080000000000000000E58C0408F2
:101AD400102700000200000058D40608000000008F
:101AE40000000000B5FE0308E80300000500000044
:101AF40064D406080000000000000000B98F030849
:101B0400102700000300000074D406080000000041
:101B140000000000A9500308102700000300000083
:101B240084D406080000000000000000C50004087A
:101B3400400D03000300000094D4060800000000D8
:101B44000000000099BA03081027000002000000FA
:101B5400F0B606080000000000000000E5D101080E
:101B640010270000030000009CD4060800000000B9
:101B74000000000085890408A0860100020000001E
:101B8400ECC206080000000000000000A1250408C3
:101B940050C3000002000000A4D4060800000000A6
:101BA40000000000A95B0408A00F00000200000070
:101BB400B0D406080000000000000000BDBA01080F
:101BC400102700000200000038CE060800000000C4
:101BD4005577010889AE010885450100020000001F
:101BE40070C006080000000000000000B51E0108D7
:101BF4001027000002000000D8B60608000000000C
:101C040000000000F12E020850C300000200000092
:101C1400BCD406080000000000000000511B0108AD
:101C2400400D030001000000C4D4060800000000B9
:101C3400000000002D8F0308400D03000200000087
:101C4400CCD406080000000000000000B9E101083F
:101C540050C3000003000000D8D4060800000000B0
:101C6400000000005D97030840420F0001000000DF
:101C7400E4D406080000000000000000C994030832
:101C840050C3000001000000F0D40608000000006A
:101C940000000000B1490108102700000200000004
:101CA400A1FE030800000000000000000000000086
:101CB4007D94030800000000000000000000000004
:101CC40002FF0100A00F0000B80B00000102FFFF9B
:101CD40001000000FFFF0000FFFFFFFFB838070806
:101CE400000008020503030000000000C4380708D0
:101CF400010008020504030000000000D0380708B2
:101D0400000008020503030000000000D83807089B
:101D140001000802050403000000000094D1060835
:101D24000200FE010110030000000000A0C106082B
:101D3400030014020003000000000000E03807085C
:101D440004001F020200080000000000E838070831
:101D540005001F0202010800000000001A03000031
:101D6400000000000000000000000000000000006F
:101D74000000000000000000040309041201000236
:101D84000000004083042057000201020301010007
:101D9400020000000000000084160020441B012003
:101DA4000200000001000000A92905088016002097
:101DB400000000000100000001000000E529050802
:101DC400E8140020000000000000000000000000F3
:101DD40000000000000000000000000000000000FF
:101DE40001000000000000000000000000000000EE
:101DF40000000000010000000000000000000000DE
:101E040000000000000000000100000000000000CD
:101E1400D8000000000000000500000006000000DB
:101E240005000101354405086144050825440508F9
:101E3400B1270508D54305087D430508A1270508F2
:101E440088160020413E0508B9270508B52705086E
:101E5400AD270508953E0508A9270508A527050807
:101E640058AB060811470108D10A0108F1450108D9
:101E74000000000000000000893D0108993C0108B1
:101E840000000000000000000000000099090108A3
:101E94005128050845280508B1440508CD4405081E
:101EA400FD2705089544050879440508FFFFFFFF51
:101EB40003000000000000000500FF001F000000F8
:101EC4001C0000001F0000001E0000001F00000096
:101ED4001E0000001F0000001F0000001E00000084
:101EE4001F0000001E0000001F0000000068214CBD
:101EF400010000007CAB0608AC16002000000000C6
:101F040000000000000000000100000000000000CC
:101F140000000000000000000000000001000000BC
:101F240000000000F40100000600000005000000AD
:101F3400008002021F00000053544D202020202066
:101F440050726F64757420202020202020202020CF
:101F5400302E303167110108631101085B1101084B
:101F6400410F0108B91A0108E51A01086D1A0108A0
:101F74005111010841110108311101082111010811
:101F8400CD0E010800000000FF0000000000040165
:101F94000000020001000002100000000700000021
:101FA4000000000000000000010203040607080905
:101FB400C70000000500000006FF000018170020FD
:101FC400000000002C4307084C4307080C43070893
:101FD40000000000000000000000000000000000FD
:101FE40000000000000000000000000000000000ED
:101FF40000000000000000000000000000000000DD
:1020040000000000000000000000000000000000CC
:1020140000000000000000000000000000000000BC
:08280000082800080040000850
:04400000FFFFFFFFC0
:10800000024B9A6D136A002BFCD170477817002041
:108010001248002302461178032902F1060218D003
:108020000133062BF7D10E4AD2F81831052B0FD0A9
:10803000591C03EB4303C2F8181100EB4303032060
:1080400040F2EB3140F2FF32187059809A8070474D
:10805000704703EB430300EB4303F0E76C18002089
:108060007817002030B51349134B8DB00825012235
:1080700001F15800069381F8F05000230DEB050143
:108080000DF10704CDE90733CDE9034202938DF8E2
:10809000143009930B938DF8282045F05DFBFFF712
:1080A000AFFF9DF80700A0F1FF00B0FA80F0400993
:1080B0000DB030BD78170020BD800008826D136AB6
:1080C0005B681B78FF2B08D090F8F030013BDBB2E7
:1080D00080F8F0301BB10120704700207047126A11
:1080E000526802201370704770B4C3080D4CE25CF4
:1080F00000F00706B24004EBD004D2B20020C6F173
:1081000008038B4228BF0B46C3F108052A4198405B
:10811000C91A40EA02004FF0000614F8012FEED110
:1081200070BC7047B8170020084AD2E9473199421D
:108130000AD0D118013391F824110170C3F30A0356
:10814000C2F81C31012070470020704778170020CA
:10815000044BD3E94730C01AC0F30A00C0F50060F1
:10816000704700BF78170020012380F85130704716
:1081700007B501A8FFF7D8FF0028FAD09DF8040042
:1081800003B05DF804FB034BD3E94730C01AC0F3DA
:108190000A0070477817002001207047024BC3F88F
:1081A0002429C3F82819704778170020024BC3F818
:1081B0002C29C3F830197047781700207047704792
:1081C00030B4114DD5E947239A1AC2F30A020A4482
:1081D000B2F5006F13D8A9B101444A1E013810F856
:1081E000014FE918824203F1010381F82441C3F3EE
:1081F0000A03F4D1C5F82031002030BC70470220BA
:1082000030BC70470846F8E77817002070B5144C6A
:1082100094F83439002BFBD1F9B101444E1E451EB0
:1082200002E001203AF052FBD4F83839D4F83C2966
:108230000133C3F30A039342F3D0D4F83829D4F8B6
:10824000383915F8011F22440133C3F30A03B5423C
:1082500082F84019C4F83839E6D1002070BD00BF5B
:108260007817002010B5074CA36C0846114643B19F
:10827000A36C052B05D1002AE36C02DDFFF7C6FFD6
:10828000E36C10BD7028002010B590F8501000234A
:1082900080F8503061B1094CA26C5AB1A26C052A29
:1082A0000AD13C30E36CFFF7B1FFE36C012010BD55
:1082B0000120FCE71046FAE71846F8E7702800208E
:1082C000002280F85120DFE790F85020531C024430
:1082D000DBB280F8503082F83C1090F851200AB19F
:1082E000132B00D9D0E77047212838B50C4605D0AC
:1082F00022282DD0202812D0002038BD0029FBD004
:10830000072AF9D1194B186D93F8541093F855209A
:1083100093F85630206021716271A371ECE7002957
:10832000EAD0072AE8D1124AD2F828391BB1D2F88C
:108330002409096898470D4B256820796179A2794D
:108340001D6583F8540083F8551083F85620D3E751
:108350000029D1D0022ACFD1054AD2F83039002BDA
:10836000CAD00988D2F82C099847C5E770280020A0
:1083700078170020014B0020986470477028002077
:10838000044B054A002005219164C3F83009C3F865
:10839000280970477817002070280020704700BF18
:1083A000704700BF704700BF704700BF704700BFF5
:1083B000704700BF704700BF042301480B8070471F
:1083C0009801002010B4074A074B92F85800122475
:1083D00003F114020C8001280CBF184610465DF80A
:1083E000044B7047702800209C010020A0B18268D7
:1083F0000D4B12B107229A7070471978DA60032981
:108400004FF004000CBF80214FF48071C3E90111CB
:108410001A611A7598707047034B41F2E47101229A
:108420005A545A70704700BFD47E00200378022B44
:1084300010D0006908B9012070470C4B1B78032B42
:108440000EBF0B4B80B24FF6F773984294BF0020DB
:10845000012070470549436841F650028A58B3EB42
:10846000422F2CBF01200020704700BFD47E002087
:10847000F7FFFF0F0378022B14D030B4104A436883
:10848000006941F6480402F5C2511559096841F6E0
:108490003C042B4012595B0A023801FB00301044A7
:1084A00030BC7047064B426841F6340141F630005B
:1084B0005958185800EB410000EB5220704700BF9C
:1084C000D47E002000487047A0170020034B93F88B
:1084D0002400032894BF0020012070477817002053
:1084E00070B592B00B0E0D0C40F04006952204467C
:1084F0008DF80810080A01A98DF805308DF806508E
:10850000002306258DF807008DF809200DF10300E2
:108510000122039114498DF80460CDE90733CDE9B8
:108520000D33CDE9090204938DF818308DF82C3005
:108530000F93119305958DF840200C91FFF792FD54
:1085400000B974B9094B082203F1580003A983F854
:10855000F02045F001F9FFF753FD9DF8030012B03C
:1085600070BDFF2012B070BD718500087817002023
:10857000836D1B6A5B681B78FF2B0AD190F8F03083
:10858000002B03F1FF3380F8F03014BF01200220EC
:1085900070470020704700BF30B51049104B8DB0B8
:1085A0000546012201F15800069381F8F05000239E
:1085B00002A90DF10704CDE90733CDE90342029387
:1085C0008DF8143009930B938DF8282045F0C4F8EA
:1085D000FFF716FD9DF807000DB030BD781700209D
:1085E0007185000870B51B4E90B00024FD22012556
:1085F0000DF1030306F1580001A98DF8032006933D
:10860000CDE90144CDE90A44CDE90C4434628DF84A
:108610001040059407948DF824400F940395089515
:108620008DF8385045F098F8FFF7EAFC2846FFF738
:10863000B3FFFF2808D0084BDB6C73612046092389
:1086400086F8243010B070BD0423022086F8243050
:1086500010B070BD781700207028002070B5064655
:1086600090B008200D46FFF797FFFF2822D0FE2884
:1086700002D0022010B070BD0024022201230F4856
:10868000089201A98DF83830CDE90544CDE90A44B6
:10869000CDE90C440296039501948DF8104007949F
:1086A0008DF824400F9445F057F8FFF7A9FC2046B9
:1086B00010B070BD012010B070BD00BFD0170020F9
:1086C00008B5FFF79DFC0A2039F078FE024B186EC2
:1086D000BDE8084044F06ABC78170020034B93F8CB
:1086E0002400003818BF0120704700BF7817002011
:1086F000F0B50379264C002B14BF012200228BB069
:1087000084F8502003D184F824300BB0F0BD054626
:1087100090F9001004F1580045F08EF9AD785DBB7A
:1087200001271C482566C4F8EC4084F8647045F0C5
:10873000B9F9194E03464FF47A70A4F85C303AF058
:10874000C5F8206E44F032FC0FCE6D460FC50FCE3B
:108750000FC596E8030085E803001048694644F019
:10876000FBFFFFF74DFC0E4B84F82470DB6C63615C
:10877000002323760BB0F0BD284643F0D9FF054611
:1087800008B11E23C3800921284644F069FAC7E7CF
:1087900078170020801A0600BC3C0608D01700207D
:1087A000702800202DE9F84F474B98420ED003F572
:1087B0006853083398424BD0444B0020C3E9320041
:1087C000A3F8C400A3F8D000BDE8F88F3F4C404F99
:1087D000DFF808810223E36504F160060025FB6AE7
:1087E000AB42294605F1010503D0D4F8E0004EF074
:1087F00057FC94F8E430D4F8E02086F82430326254
:10880000304641464EF060FEE36D9D4206F1300673
:10881000E5DB002384F8D230D4E91A03E16DB4F823
:108820006420B4F87050C4F8F03012FB01F203FB7E
:1088300001F3A4F8C420B4F86610264AA4F8D05076
:10884000C4E93203A4F8C610C4F8C0200120BBE775
:108850001E4C1F4F0223E36504F160054FF0000B2F
:108860004FF4806A4FF040094FF40068FA6A01261D
:108870005A455946B34403D0D4F8E0004EF010FCFA
:10888000D4F8E01094F8E420296285F824204FF40D
:1088900000314FF00062C5E90212A5F804A0A5F866
:1088A0001090A5F80680AE74FFF7B2FB28466E76EE
:1088B0004EF056FDE26D084B45F8303B9345D5DB55
:1088C00084F8D260A8E700BF1971EF00702800207B
:1088D00098010020103D0608E43C06081940EF000E
:1088E0002DE9F843194C94F82460042E0546894676
:1088F00090461F4608D0082E02D00020BDE8F8831D
:10890000FFF770FE0228F8D1206E44F049FBA37EE9
:1089100093B969021120FFF7E3FD98B90C4BC4F835
:108920000090DA6C65600523C4E90387626184F80E
:1089300024300120BDE8F88329461120FFF7D0FD3F
:108940000028EBD0FFF7BCFED7E700BF7817002068
:10895000702800202DE9F04FBA4DBB4F06460FCDD1
:1089600007F1F4042DED048B0FC40FCD0FC497F85D
:1089700026312A6822608BB0022B97F82C210296B0
:1089800000F03682032B00F02C82002B00F03582A1
:10899000DFEDAE7AF0EE678A002AAD49AD4AC7F83E
:1089A0000421AD48AD4BC7F80C010EBF00220122D7
:1089B0000B46039237EEA87AF5EE006AC6EE879A68
:1089C000A74DC7F80831A5F1230B05F160084FF05A
:1089D000000A9FEDA48A9FEDA49A27EE888A029B45
:1089E000534540F391811BF8014B002C00F0AD8101
:1089F000002302E0152B00F0A88103EB43024FEAAD
:108A0000430918F80210A14203F10103F2D13A44DC
:108A100092F8B511002900F0FE81204638F0ECFFF5
:108A20000646304639F008F80178002940F08D817B
:108A3000B9440AF1010300930322DBB289F8F5314E
:108A400089F8F421002E00F080814FEA141909F111
:108A5000FF39B9F1040F04F00F0C00F2A981834C27
:108A600004EB4901B1F8A40040FA0CF111F0010146
:108A700000F09E81012101FA0CFC0CF1FF3C0CEA94
:108A80000000A144019357F045FC99F8B0C0DFF80D
:108A9000E4E1019B60440EEBC00C03228CF807302C
:108AA0008CF806205EF83000C5F814C000F13F4392
:108AB00003F57E0304EB9324012194F8B830727A15
:108AC00003F01F045B09032B01FA04F100F082811B
:108AD000042B00F07A81022B00F07281BCF8044074
:108AE000B4FA84F3C3F11F03C3F3CC0100EB81019B
:108AF00003F00703D1F820C09B004FF00F0E0EFAD1
:108B000003FE2CEA0E0CC1F820C0D1F820C002FAF6
:108B100003F343EA0C0305AA0B62114602230192F8
:108B2000CDE905430CF0D0F9019A039B002B00F02E
:108B30002781B7F82431D7F8A0C4346807EE903AFB
:108B4000F8EEE77AFCEEE77A17EE900ABCFBF0F35A
:108B500003F57F43FF331B0CBCFBF3F3B3FBF0F0D7
:108B600001381FFA80FE07EE903ABCFBF3F3B8EE33
:108B7000677A2188DFF800C167EE087A013BC5ED0E
:108B8000027A69EE677A6445E7EE287A9BB289B289
:108B9000C5ED037A11D0364884420ED0B4F1804F2F
:108BA0000BD0ACF57C4C644507D00CF5806C64456B
:108BB00003D00CF5806C644502D121F0700189B2BC
:108BC000DFF8B8C0644500F0CA800CF5806C6445DD
:108BD00000F0C58021F440710CF56C4C89B26445FD
:108BE0002180C4F82CE0238540F0E5800023238613
:108BF0000120A082337A96F805900021CDE9071173
:108C00004FF0600CADF8181009919907CDF814C019
:108C100040F1AA80DB0003F008030421ADF8223004
:108C2000ADF818104946204638F0E0FAB9F10C0FBB
:108C30002ED8DFE809F0812D2D2D782D2D2D6F2DCB
:108C40002D2D25003C3D0608702800206F120339A9
:108C5000A1000408A50004082D0E0308C90203089A
:108C6000C42900206F12833A00007A44BC3C0608F5
:108C700000040140902A0020000001400010004044
:108C8000A38B23F400631B041B0C43F40063A38336
:108C90003368B3F844206FEA42426FEA524292B21C
:108CA000A3F844201A88194692B242F0010221F832
:108CB000342B70796B600C1800222C600A50BAF1CA
:108CC000000F00F08C80D7F858118B4200F08E8096
:108CD000BAF1010F00F08380D7F870118B4200F0D9
:108CE0008580BAF1030F7AD1D7F88821D31A18BF3B
:108CF0000123DDF800A02B740122BAF1040F6A747D
:108D000005F118057FF46BAE44480BB0BDEC048B45
:108D1000BDE8F08FA38B23F008031B041B0C43F06A
:108D20000803A383B4E7238B23F400631B041B0C09
:108D300043F400632383ABE7238B23F008031B0476
:108D40001B0C43F008032383A2E7354A354B002070
:108D5000C7E942320BB0BDEC048BBDE8F08F218037
:108D6000C4F82CE0238543E75B0003F002034FF4D3
:108D70008071ADF82030ADF81600ADF8241051E741
:108D8000B0EE690A019258F0F1F9FCEEC07AD7F81A
:108D9000A0C43468019A17EE903ABCFBF3F303F5D4
:108DA0007F43FF331B0C4FF6FE7EBCFBF3F3DAE68A
:108DB000696105AAB9E61C4B9C423FF417AF17E75F
:108DC0001A4B5C6C2143596488E6184B1C6B214399
:108DD000196383E6154B1C6C214319647EE601235D
:108DE00087E7DFED137ADFED138AD5E5134680E7D9
:108DF000DFED117AF0EE678ACEE5104BDFED107AE9
:108E0000104AC7F8043101230393C7F80C21054B1E
:108E1000F0EE678ACEE50E4603E600BF6429002027
:108E2000E9060308A10004080004014000380240DC
:108E3000ACC5A737ACC5A73628293038A50004082B
:108E40006F12833A2D0E0308F8B5104ED6F8A044E1
:108E5000054600680F4664080BF03AFFB4FBF7F1D3
:108E6000B1F5803F03D3012CFAD96408F6E7224616
:108E7000284689B238F060FC054BC6F8083D284604
:108E80000449BDE8F840002238F064BB7028002097
:108E9000FD1E02087835002010B5044C04480A462F
:108EA00021460AF0FFFC204610BD00BF803500209F
:108EB00048AF060810B5044C04480A4621460AF09B
:108EC000F1FC204610BD00BF8035002058AF0608D9
:108ED00010B5044C04480A4621460AF0E3FC20463B
:108EE00010BD00BF8035002064AF060810B5044CEB
:108EF00004480A4621460AF0D5FC204610BD00BFB2
:108F00008035002070AF060810B5044C04480A46AE
:108F100021460AF0C7FC204610BD00BF8035002066
:108F20007CAF060810B50AF091FC0E4C48B194F8DD
:108F30002430032B10D8237E0133DBB2072B23769A
:108F400003D9002384F8243010BD074A0123D26CD2
:108F5000626184F8243010BD044844F0A3FDA4F8F5
:108F60005C00E8E77817002070280020801A0600CF
:108F700070B51D4C94F82430042B06460D4608D0DD
:108F8000082B20D1E36983422BD0FFF72BFB02286B
:108F900019D1206E44F004F800213720FFF7A0FA21
:108FA00029461720FFF79CFAA8B9A37E6BB9710276
:108FB0001920FFF795FA70B90823C4E9076584F80A
:108FC0002430022070BD012070BD31461920FFF70A
:108FD00087FA0028F0D0FFF773FBFFF7A3FF032009
:108FE00070BD022070BD00BF781700202DE9F04150
:108FF0002B4C0546884617461E4694F82400042844
:1090000034D0082806D1E369AB4206D0FFF7EAFA6C
:109010000228F2D00120BDE8F0814FF0FC0CA26DD7
:109020002048117B204B80F80FCEC3F8588051B1F7
:10903000526942B194F8E020002A0CBF4FF48072CC
:109040004FF4007201E04FF480721A661749184815
:1090500044F082FB01220623C4E90085C4E90376BB
:10906000227284F824300020BDE8F081206E43F0A5
:1090700097FFA37E5BB969021820FFF731FA40B968
:1090800094F82430082BC8D04FF0FE0CC7E72946CF
:10909000F2E7FFF715FBFFF745FF0320BBE700BF33
:1090A000781700207028002098010020C8010020B7
:1090B000D01700202DE9F04FC54C94F8506095B0C2
:1090C000002E00F07F8194F82420C24F04F158084C
:1090D00004F14009531E082B00F29580DFE813F0DD
:1090E000330059001E0193008200A3001800930072
:1090F0000900FEF7B7FF002840F018826369FA6C98
:10910000FA3393427CD2FFF70DFF94F82420E1E775
:10911000FEF7A8FF0028F1D0236A0022012B227657
:1091200040F21982E269013B511CC4E9071308228D
:1091300084F82420A2F10806B6FA86F676093046AD
:1091400015B0BDE8F08F206E43F02AFF00210846DD
:10915000FFF7C6F90546FFF7B3FA012D50D1206E8F
:109160004FF0000A84F819A043F01AFF40F2AB1147
:109170000820FFF7B5F9052800F07881012800F0F4
:109180004181FFF79DFA627E002AD1D0022384F844
:109190002430206E43F004FF637E022B0CBF4FF09F
:1091A0008045002500213720FFF79AF9294629201C
:1091B000FFF796F90546FFF783FA0DBB637E022B96
:1091C00000F06781A576206E43F0EAFE00210920B9
:1091D000FFF786F9002872D0FFF772FA94F824207E
:1091E000531E10E020684FF40071FFF737FA012892
:1091F00000F02581022800F02881002800F0388145
:1092000094F82420531EDBB2022B09D8714B6169FC
:10921000DB6C5B1AC82B8DD9FFF784FE94F82420F1
:10922000042A87D18BE7A26D117B136A002900F015
:10923000D5805269002A00F0D18094F8E020002AFD
:1092400000F0CC80B3FA83F35B09002BD8D004A9DB
:1092500000250DF10F0302224FF0010A059140464F
:1092600005A9CDE90B3A0792CDE90955CDE90E558F
:10927000CDE91055ADF8105006958DF820508DF8B9
:10928000345013958DF848A044F066FAFEF7B8FE06
:109290009DF80F3003F01F03052B00F05081FFF7FE
:1092A00041FED4F80CB0BBF1000F00F0DC802A4680
:1092B000236961685046D84794F824200AE71021B2
:1092C0004846FFF7CBF98246002885D101217F204F
:1092D000FEF70AFF012805467FF47EAF50460221C3
:1092E000FEF702FF002800F0038101287FF474AF2D
:1092F00016213A20FEF7F8FE01308002A062FFF747
:10930000DFF9206E43F04CFE00210A20FFF7E8F859
:10931000002840F0E680032384F82430102105A8BB
:10932000FFF79CF900287FF46BAF9DF821309DF882
:1093300022109DF81C209DF815009DF816501B0169
:10934000DBB243EA111303F5FA636387DDF81D30DE
:1093500001F00F0184F83C101BBA110902F00F0252
:1093600045EA002084F8381084F839209DF814105C
:109370009DF817206363069B2363A08584F82E1055
:1093800084F82F20FFF79CF9A37E6BB9206E43F081
:1093900007FE4FF400711020FFF7A2F80546FFF713
:1093A0008FF9002D7FF4AFAE0B4844F07BFB002219
:1093B0000423A4F85C003046226284F8243015B0FF
:1093C000BDE8F08F304684F8246015B0BDE8F08F1A
:1093D000781700207028002040787D012268217ACB
:1093E0004FF4807302EB01214046002244F0DCFC84
:1093F000237A0133DBB22372A3F10203B3FA83F3BE
:109400005B0922E7042304AA8DF8340005A940462D
:1094100007930692CDE909AACDE90BAACDF814A0CD
:109420008DF820A0CDF838A044F096F9FEF7E8FDBD
:109430009DF81330AB2B04BF02236376A1E663696A
:10944000FA6C64339342BFF4DBAEFFF739F9FFF7F0
:1094500069FDE5683DB10022104623696168A847AF
:1094600094F8242036E694F8242033E6657688E6DE
:109470000190FFF725F9E56801982076042384F828
:109480002430002D3FF45BAED4E900212369A847C6
:10949000B6E6206E43F084FD29463A20FFF720F817
:1094A00004A98246042201230691404605A9079299
:1094B0008DF83430CDE90955CDE90B5505958DF87A
:1094C00020500E9544F048F9FEF79AFDBAF1000FCE
:1094D00007D1FFF7F5F8049B1BBAC3F38073A3769B
:1094E00071E6FFF7EDF8FFF71DFD94F82420F1E594
:1094F00004212C20FEF7F8FD032182464E20FEF7C2
:10950000F3FD0C2183463620FEF7EEFD0BF1020B36
:10951000421C02FA0BF205FA0AF5A2FB0501420A07
:1095200042EAC152A262FFF7CBF8EAE60190FFF7E8
:10953000C7F801980423064684F82430FFE50E4B53
:10954000E568DB6C6361072284F82420002D3FF47A
:10955000F1AD504698E708D0042384F82430FFF793
:10956000AFF894F82420531E4DE6FFF73BF802288D
:109570007FF446AE30E600BF702800202DE9F84F9A
:10958000C34C94F8101E0546C1F34001D4F8180EE0
:1095900043F012FD94F8101ED4F8140EC94301F0E4
:1095A000010143F009FD002D00F0E38005F1FF38D3
:1095B000B84D5FFA88F80127D4F8183E33B11A681D
:1095C0009B8851690B4214BF53831383D4F8143E14
:1095D00033B11A689B8851690B4214BF53831383BC
:1095E000B4F8203E002B40F0598194F8221ED4F8A4
:1095F000240E43F0E1FCDFF8A0C2FA204FF0100E79
:109600004FF47A71DCF80430C3F30803002B40F008
:109610001281EFF31183002B40F00D81E26CD5F83D
:109620000890E36C9A42F9D1D4F84C3E9945F5D8AC
:10963000D4F8486E01FB06F3A3EB0903B3FBF6F382
:1096400001FB0232DCF80430C3F30803002B40F0C6
:10965000B280EFF31183002B40F0AD80E36CD5F8BE
:1096600008B0E66CB342F9D1D4F84C6EB345F5D8E6
:10967000D4F8486E01FB06F9A9EB0B09B9FBF6F922
:1096800001FB03939B1AB3F57A7FDBD30138B9D181
:10969000D4F8183E33B11A689B8851690B4214BF45
:1096A00053831383D4F8143E33B11A689B885169ED
:1096B0000B4214BF53831383B4F8203E002B40F0B9
:1096C000DA8094F8221ED4F8240E81F0010143F0D0
:1096D00073FCDFF8C4C1FA204FF0100E4FF47A711A
:1096E000DCF80430C3F30803002B40F08480EFF370
:1096F0001183002B7FD1E26CD5F80890E36C9A427D
:10970000F9D1D4F84C3E9945F5D8D4F8486E01FB10
:1097100006F3A3EB0903B3FBF6F301FB0232DCF81B
:109720000430C3F3080333BBEFF311831BBBE36CBB
:10973000D5F808B0E66CB342F9D1D4F84C6EB34515
:10974000F5D8D4F8486E01FB06F9A9EB0B09B9FB73
:10975000F6F901FB03939B1AB3F57A7FDFD3013847
:10976000BED108F1FF385FFA88F8B8F1FF0F7FF437
:1097700023AFBDE8F88FEFF3118A8EF31288D5F886
:1097800008B02B68DB0344BFC4F8447ED5F808B0AA
:10979000E36CD4F8449E5FFA8AFA8AF31188D4F80D
:1097A000486E4B4401FB06F9A9EB0B09B9FBF6F92E
:1097B00001FB0393CFE7EFF3118A8EF31288D5F8FC
:1097C00008B02B68DE0344BFC4F8447ED5F808B067
:1097D000E36CD4F8449E5FFA8AFA8AF31188D4F8CD
:1097E000486E4B4401FB06F9A9EB0B09B9FBF6F9EE
:1097F00001FB039346E7EFF311898EF31288D5F846
:1098000008A02B68DA0344BFC4F8447ED5F808A04A
:10981000E36CD4F8442E5FFA89F989F31188D4F8FF
:10982000486E1A4401FB06F3A3EB0A03B3FBF6F3FD
:1098300001FB023273E7EFF311898EF31288D5F83A
:1098400008A02B68DB0344BFC4F8447ED5F808A009
:10985000E36CD4F8442E5FFA89F989F31188D4F8BF
:10986000486E1A4401FB06F3A3EB0A03B3FBF6F3BD
:1098700001FB0232E6E6D4F83C3E002B3FF429AF70
:10988000D4F8282E0023136084F8393E21E700BF66
:109890007028002010E000E000ED00E0D4F83C3E2D
:1098A000002B3FF4A8AED4F8282EB4F8403E04496B
:1098B000B1FBF3F35B10136084F8397E9BE600BFC5
:1098C00040420F002DE9F84FC74CC84D94F8101EC8
:1098D000D4F8180EC1F3400143F06EFB94F8101E4B
:1098E000D4F8140EC94301F0010143F065FB4FF0B9
:1098F00005080127D4F8183E33B11A689B885169CE
:109900000B4214BF53831383D4F8143E33B11A6847
:109910009B8851690B4214BF53831383B4F8203ED4
:10992000002B40F0508194F8221ED4F8240E43F00E
:1099300043FBDFF8C0C232204FF0100E4FF47A71B3
:10994000DCF80430C3F30803002B40F01081EFF380
:109950001183002B40F00B81E26CD5F80890E36C8A
:109960009A42F9D1D4F84C3E9945F5D8D4F8486ECE
:1099700001FB06F3A3EB0903B3FBF6F301FB023291
:10998000DCF80430C3F30803002B40F0B080EFF3A1
:109990001183002B40F0AB80E36CD5F808B0E66C87
:1099A000B342F9D1D4F84C6EB345F5D8D4F8486E2B
:1099B00001FB06F9A9EB0B09B9FBF6F901FB0393CF
:1099C0009B1AB3F57A7FDBD30138B9D1D4F8183EAE
:1099D00033B11A689B8851690B4214BF53831383B8
:1099E000D4F8143E33B11A689B8851690B4214BFF6
:1099F00053831383B4F8203E002B40F0D88094F8B2
:109A0000221ED4F8240E81F0010143F0D5FADFF8CC
:109A1000E4C132204FF0100E4FF47A71DCF80430BC
:109A2000C3F30803002B40F08280EFF31183002B77
:109A30007DD1E26CD5F80890E36C9A42F9D1D4F864
:109A40004C3E9945F5D8D4F8486E01FB06F3A3EBDC
:109A50000903B3FBF6F301FB0232DCF80430C3F375
:109A6000080323BBEFF311830BBBE36CD5F808B0FD
:109A7000E66CB342F9D1D4F84C6EB345F5D8D4F8BE
:109A8000486E01FB06F9A9EB0B09B9FBF6F901FBDE
:109A900003939B1AB3F57A7FDFD30138BED108F167
:109AA000FF3818F0FF087FF425AFBDE8F88FEFF31B
:109AB000118A8EF31288D5F808B02B68DB0344BFF7
:109AC000C4F8447ED5F808B0E36CD4F8449E5FFA3D
:109AD0008AFA8AF31188D4F8486E4B4401FB06F9E0
:109AE000A9EB0B09B9FBF6F901FB0393D1E7EFF3FF
:109AF000118A8EF31288D5F808B02B68DE0344BFB4
:109B0000C4F8447ED5F808B0E36CD4F8449E5FFAFC
:109B10008AFA8AF31188D4F8486E4B4401FB06F99F
:109B2000A9EB0B09B9FBF6F901FB039348E7EFF347
:109B300011898EF31288D5F808A02B68DA0344BF88
:109B4000C4F8447ED5F808A0E36CD4F8442E5FFA3C
:109B500089F989F31188D4F8486E1A4401FB06F399
:109B6000A3EB0A03B3FBF6F301FB023275E7EFF355
:109B700011898EF31288D5F808A02B68DB0344BF47
:109B8000C4F8447ED5F808A0E36CD4F8442E5FFAFC
:109B900089F989F31188D4F8486E1A4401FB06F359
:109BA000A3EB0A03B3FBF6F301FB0232E8E6D4F8B9
:109BB0003C3E002B3FF42BAFD4F8282E002313603B
:109BC00084F8393E23E7D4F83C3E002B3FF4B1AE95
:109BD000D4F8282EB4F8403E0549B1FBF3F35B10EE
:109BE000136084F8397EA4E67028002010E000E0BD
:109BF00040420F0000ED00E00E4B30B4DB684278CD
:109C000001780D4CDB43C3F30223C3F10403DBB241
:109C100002FA03F360181B0101F01F050122490934
:109C200003F0F003AA4080F8003344F8212030BC50
:109C3000704700BF00ED00E000E100E030B50368D0
:109C40005A4D5B4C1A88D5F8A004B0FBF1F0A34242
:109C500000F1FF3083B080B292B211D055498B42EF
:109C60000ED0B3F1804F0BD0A1F580318B4207D0DD
:109C700001F580618B4203D001F580618B4202D1F6
:109C800022F0700292B24C498B4268D001F580619B
:109C90008B4243D022F4407201F56C4192B24FF6F0
:109CA000FF748B421A80DC62188564D100221A8608
:109CB00001229A821A883E4992B242F001028B42F6
:109CC0001A8063D0B3F1804F62D03C4A934261D096
:109CD00002F5806293425FD002F5806293425DD0CC
:109CE00002F5806293425BD002F58062934259D0C4
:109CF00002F59632934257D002F58062934213D018
:109D000002F58062934208BF09220ED04FF0012372
:109D100001A80193FFF770FF03B030BD4FF6FF714C
:109D20001A80D9621885C3E70822254B03EBC203CA
:109D300001A893F8C5408DF8044001224FF48073C8
:109D40008DF80520ADF80630FFF756FF1B2CE3D148
:109D50001C4B019301A8FFF74FFF03B030BD012159
:109D60004FF6FF741A80DC62188599821A8892B2C5
:109D70000A431A80A9E70F4A934297D001229A8298
:109D80001A8892B242F001021A809BE70022CCE7C7
:109D90000122CAE70222C8E70322C6E70422C4E779
:109DA0000522C2E70622C0E70722BEE7702800208E
:109DB0000000014000040140001000400004004089
:109DC000BC3C06081901000100F01F0240090123F4
:109DD000032803FA02F304D004280CD0022805D08B
:109DE0007047074A116C0B4313647047044A516C67
:109DF0000B4353647047024A116B0B431363704764
:109E00000038024000285FD00368374A2DE9F0414E
:109E100003F13F4404F57E0402EB9422012492F8FE
:109E2000B82002F01F055209032A04FA05F456D09F
:109E3000042A4FD0022A48D08588B5FA85F0C0F1AF
:109E40001F00C0F3CC0603EB860600F0070082007B
:109E50000F24306A944020EA04003062306A01FA2C
:109E600002F20243002132624FF0010E0A464FF027
:109E7000030C02270EFA02F838EA050002F101028B
:109E80001CD118680CFA01F420EA04001860186864
:109E900007FA01F606431E609E6826EA04069E60E5
:109EA00098689860586820EA0800586058685860B8
:109EB000D86820EA0400D860D868D860102A01F178
:109EC0000201D7D1BDE8F0817047084A556C2C4398
:109ED0005464B1E7054A156B2C431463ACE7034A9D
:109EE000156C2C431464A7E7BC3C060800380240FC
:109EF00000487047F02A0020144A154BD2F8A024DD
:109F0000B3EB920F15D2B3EBD20F14D2B3EB121FF7
:109F100013D2B3EB521F12D2B3EB921F11D2B3EB99
:109F2000D21F10D2B3EB122F34BF4FF480708020B9
:109F300070470220704704207047082070471020A7
:109F40007047202070474020704700BF70280020D5
:109F500080969800002877D0F0B58388B3FA83F311
:109F6000202B83B00446C3F11F0258D0374D384E22
:109F700015444FF0004006EB820230FA03F395F8E7
:109F80001051C2F8501E05D0324A116821EA03016F
:109F9000116053612046002142F062FEA3882268CE
:109FA0002C49B3FA83F7C7F11F0404F0FC0000F159
:109FB000804000F59C3004F00304A40002F13F430C
:109FC0004FF00F0C82680CFA04FC22EA0C0282604B
:109FD00003F57E038268C3F38723A34013438360A2
:109FE0000A681D484FF00043FB4022EA03020A6062
:109FF0004A6822EA03024A600A681A430A608A68C9
:10A0000022EA03028A60CA6822EA0302CA6002687E
:10A010002E441343036096F8903EF02B01D803B012
:10A02000F0BD0E4B5B5D8DF80430F02103224FF440
:10A03000807301A886F8901E8DF80520ADF80630D3
:10A04000FFF7DAFD03B0F0BD704700BFBC3C060867
:10A0500070280020003C0140083C0140F0AF060899
:10A0600010B4B8B10D4CD4F8983E102B05D15DF862
:10A07000044B0521002038F059B803EB4302224479
:10A0800082F89D1E01210B4482F89C0E82F89E1ED0
:10A09000C4F8983E5DF8044B704700BF702800205C
:10A0A00080782021DCE700BF2DE9F04FDFF8ACA37A
:10A0B0002DED028B9AF8E01E002297B0CAF8D02E40
:10A0C000CAF8D42ECAF8D82ECAF8DC2ECAF8CC2E7C
:10A0D00019B19AF8E12E8AF8CC2E9AF8E22E1AB12C
:10A0E0009AF8E32E8AF8DB2E9AF8E62E1AB19AF83F
:10A0F000E72E8AF8D62E9AF8E42E1AB19AF8E52EB1
:10A100008AF8D12E9AF8E83E05935A1ED3B257B278
:10A1100003937B1C00F0AA80C54AC64E52F83790C4
:10A12000029602EBC70200231279019308EE102A6F
:10A130001D463446984626783946304644F0C8FADB
:10A1400083463046BBF1000F1ED042F0F1FAEA1D03
:10A150001321D2B220B14FF0000E827180F807E0D7
:10A1600042F07EFD207844F0DDFA4FF0070308F15D
:10A17000010223714FF0010384F802806070CDF872
:10A1800004B05FFA82F8E3700135042D04F1050490
:10A19000D1D118EE100A029ECDF81080FFF714FE00
:10A1A000A549A64A4868024042F440324A600FB9C5
:10A1B000019B5BB9A24C4820FFF706FE2046022116
:10A1C00055F062FEA26842F00102A2609A489C4AE1
:10A1D0004168BAF8EA4E41F400014160516821F447
:10A1E00080515160916B21F4401141F480119163D1
:10A1F000D16841F46001D160956B85F44011C1F3E1
:10A20000015101EB81011F2000FA01FC25EA0C0C31
:10A21000112505FA01F141EA0C019163D16841F081
:10A22000E061D160956BC5F30151C1F10401C9B280
:10A2300001EB810188404FF0120C25EA00000CFA76
:10A2400001F108439063E4B1BAF8EC1ECAF8F44E89
:10A25000A1B1BAF8EE2ECAF8F81E62B1019B794896
:10A26000521A90FBF2F2CAF8FC2E6BB917B0BDEC93
:10A27000028BBDE8F08F744A1288EFE7734A1188A9
:10A28000E7E7734A1488DFE74846049955F0FCFD78
:10A29000684B012003F114080723F278441CE4B250
:10A2A00052B375783279A5F10A0101EB410105EB52
:10A2B000450C092D03FA01FE03FA0CFB02FA01F129
:10A2C00040F2A080D9F80C2022EA0E0E41EA0E01DD
:10A2D000C9F80C10421E02EB82021F21062801FA67
:10A2E00002FC05FA02F273D8D9F8341021EA0C0105
:10A2F0000A432046C9F8342005364645CDD1D9F861
:10A300000820039942F40072C9F80820D9F80820FF
:10A3100042F48072C9F80820D9F80820574442F066
:10A320000102C9F8082097F9F02E022043F000F846
:10A33000044600289AD04668304643F05FF9454A03
:10A34000431E242101FB032393F89C50002D8DD143
:10A35000059983F89D10062283F89C20002885D05B
:10A36000304643F04BF950F0FBFF60680AF07AFC8E
:10A3700007A80AF039FC049EA26837480792012E0C
:10A380008CBF4FF4806300230D9309F14C034FF40D
:10A390008072CDE90A56089309904FF40033606843
:10A3A0000C9507A94FF400674FF40056CDE9102330
:10A3B000CDE90E760AF02AFC6268136843F00103C7
:10A3C0001360D9F8083043F08043C9F808304DE7EE
:10A3D000C11FA0F10D0201EB81014FF01F0E02EB36
:10A3E00082020C280EFA01FC0EFA02F005FA01F1C5
:10A3F00013D8D9F8302022EA0C0211432046C9F8BC
:10A40000301079E7D9F8101002FA0CF221EA0B0BA0
:10A4100042EA0B02C9F810205CE7D9F82C1005FAC3
:10A4200002F221EA00010A432046C9F82C2063E722
:10A43000DC3D06083C37002000230140E030FCFFF3
:10A4400000200140803801002E7AFF1F2C7AFF1F68
:10A450002A7AFF1F98010020703700207028002002
:10A460002DE9F84F2E4F00EB800407EBC404D4F81D
:10A470000C6F2EB1054694F8210F00F0FF0820B1B3
:10A480004FF000084046BDE8F88F89469A4693464B
:10A4900038F0F0F94FEA49010123C9B284F8221FCC
:10A4A00084F823BF84F8253F84F8268F84F8243F5E
:10A4B00084F8213F84F8208FB288C4F828AF910532
:10A4C0008146C4F82CAF1DD43388DA0510D442F28B
:10A4D0000F7405E038F0CEF9A0EB0903A34215DCB8
:10A4E00033889B05F6D433889BB243F48073338062
:10A4F000B3889BB243F440734FF00108B3804046E9
:10A50000BDE8F88F98464046BDE8F88FB7F8803F21
:10A5100001339BB22846A7F8803F54F045FFB1E7CE
:10A52000702800200128B5EEC00A10D0F1EE10FA14
:10A530000BDD9FED177ADFED177AE0EE077AFCEE80
:10A54000E77A17EE903A98B2704700207047F1EE24
:10A5500010FA0BDD9FED107ADFED107AE0EE077A4E
:10A56000FCEEE77A17EE903A98B27047EDD5F7EE29
:10A57000007A30EE270A9FED0A7ADFED0A7AE0EEE4
:10A58000077AFCEEE77A17EE903A98B2704700BF70
:10A5900000E0F9440000404200C0794400008344D8
:10A5A00000C079C400E0824470B5464E96F8824FF0
:10A5B00004EB840306EB8303A50093F8843F032B8D
:10A5C0006ED8DFE803F059291E02254406EB850505
:10A5D000D5F8880F002870D196F8D43F9C425FD000
:10A5E000013404F00302934286F8822F58D002EB24
:10A5F000820406EB84040223C4F8880F84F8843FA5
:10A6000070BD2B1906EB8303D3F8882F72B1013A82
:10A61000C3F8882F002070BD2B1906EB8303D3F8F5
:10A62000882F002AF3D1022283F8842F254406EBD9
:10A63000850595F8903F013BDBB285F8903F8BBBD9
:10A64000214B96F8D46FD3F8C012D5F88C0F621C4A
:10A6500002F003024B1E0324B242034485F8844FE8
:10A66000B3FBF1F0C5F8880F1AD0994218D8013819
:10A67000C5F8880F012070BD43F046FD80B1124B34
:10A680002C44D3F8C02206EB8404012102F51C53AC
:10A6900084F8841F0F33B3FBF2F3C4F8883F70BD16
:10A6A000012070BD084BD3F8C022012002F2E7332D
:10A6B000B3FBF2F3C5F8883F70BD0138C5F8880FC9
:10A6C000002070BD702800209801002003681A78CF
:10A6D000012A01D00020704793F90430044A03EBAB
:10A6E000830302EBC30393F8210FC0B2704700BF8E
:10A6F0007028002010B50B4CD4F8D83F1B78022BE3
:10A700000FD1D4F8E00F42F051FCD4F8E00F08B1BB
:10A710002123C380012142F0A3FAFFF7EDFBA4F847
:10A72000DC0F10BD7028002030B583B00D4601232A
:10A7300001460DF107020446074843F005FC9DF869
:10A74000072035EA020304D003482A43214643F098
:10A7500091FC03B030BD00BF4838002038B5054635
:10A760000A460C460648294643F0C8FA45F08001DF
:10A77000034843F0C1F9231A5842584138BD00BF7D
:10A7800048380020F0B53B4CD4F8D85F2B78022B2A
:10A7900095B018D0012B02D0002015B0F0BD95F96E
:10A7A00004506B1CF8D0022DF6DC0091134694F88F
:10A7B000DC1F0246284654F099FF0028ECD02846BA
:10A7C00055F044F8E9E72B6A002BE5D10DF10F0CA9
:10A7D0008DF80F00002601200027CDE90833CDE9D0
:10A7E0000A12CDE90E6705938DF81C300D93109376
:10A7F0001293CDF810C006908DF830008DF844000B
:10A80000EFF31180102383F31288D4F8D83F1B6A2A
:10A8100013B3069B04AE32461BB1D3691432002B2E
:10A82000FBD12B6A13B3996839B993420AD01968DE
:10A8300029B15B6899680029F7D01433F3E70E4A11
:10A84000C3E90026C0B280F31188D4F8D82F136A68
:10A85000002BFCD10120A0E704ABC0B22B6280F337
:10A86000118804F6D87052F02FF9EEE7024A1A6008
:10A87000FFDE00BF702800204838002070B5036854
:10A880001D78022D13D0012D01D0002070BD04468B
:10A8900093F904000A4B421C03F8545CF5D00228DB
:10A8A000F3DC0A46543B2179BDE87040D8E51B6AC9
:10A8B000002BEAD1012243F021FA012070BD00BF34
:10A8C0006839002013B53A4C002354F8442C8DF815
:10A8D0000730137803F0FD01012905D114F8401C5D
:10A8E00011B90C2104F8401C022B1ED0032B2DD0D3
:10A8F00001220B212F484DF075FF042037F0E6FFB1
:10A900002C4801230DF1070200214DF08DFF002896
:10A9100038D09DF80730482B34D1274B44F8503CB1
:10A92000264B44F84C3C02B010BD54F83C0C42F0AD
:10A930003DFB54F83C0C08B13423C380012142F0A4
:10A940008FF9FFF7D9FA24F8400CD1E7D4F86C342A
:10A95000506846F2A8111961002380F8883012224D
:10A9600037214DF013FF54F8443C0D225868242140
:10A970004DF00CFF54F8443C302258686A214DF0E9
:10A9800005FFB5E754F8443C1A78022A03D0032A9D
:10A9900007D00020C7E754F83C0C42F0BDFE002071
:10A9A000C1E75868102237214DF0F0FEF1E700BFF3
:10A9B000683900202439002087880508098905089E
:10A9C0002DE9F04FB54CB64E95B0002305464FF437
:10A9D000F0728B4604F5F660202184F8AC3784F8D9
:10A9E000AD37019558F0BEFF202104F519604FF4F2
:10A9F000F07258F0B7FFDFF8C0C2AA4932274FF013
:10AA0000100E4FF47A704FF00108DCF80430C3F3F5
:10AA10000803002B40F02381EFF31183002B40F05B
:10AA20001E81F26C8D68F36C9A42FAD1D6F84C3ED6
:10AA30009D42F6D8D6F8489E00FB09F35B1BB3FB9A
:10AA4000F9F300FB0232DCF80430C3F30803002BF7
:10AA500040F0E580EFF31183002B40F0E080F36CD1
:10AA6000D1F808A0F56CAB42F9D1D6F84C5EAA45F6
:10AA7000F5D8D6F8489E00FB09F5A5EB0A05B5FB0D
:10AA8000F9F500FB03539B1AB3F57A7FDBD3013F43
:10AA9000BBD194F8712B002A00F0BC8094F8723B73
:10AAA000013B022B00F2B68003EB830004EBC001F4
:10AAB0007D4D91F80C7C05EBC0004FF0010C022F8E
:10AAC000C4F8740B84F8FCCB00F0BB82DBB204EB5F
:10AAD0000313D3F8843CC1F8103C002B00F09A809B
:10AAE00002234FF4807081F80C3CA5F188034C3DA3
:10AAF000A1F8180CC1F8243CC1F8285C1509013DE7
:10AB0000042D02F00F0200F27F82684F07EB45032D
:10AB1000B3F8A40040FA02F3DB0740F17582012389
:10AB200003FA02F2013A10403D4455F0F3FB95F868
:10AB3000B0205F4B104403EBC000C4F87C0B83795A
:10AB400013F0BF0F66D12323C380092142F088F898
:10AB5000D4F87C3B13B11A689B881383D6F8A024E1
:10AB6000544BB3EB920F80F07282B3EBD20F80F0B4
:10AB70007082B3EB121F80F07082B3EB521F80F033
:10AB80007082B3EB921F80F07082B3EBD21F80F023
:10AB90007082B3EB122F80F06E824FF4807200232C
:10ABA0000DF10D01FF20A4F8782B0122CDE904134B
:10ABB000CDE90833CDE90A33D4F8741B8DF80D00C4
:10ABC0000D9306928DF81C208DF83020EFF3118044
:10ABD000102383F31288D4F8743B1B6A002B00F017
:10ABE0001782069B04AD2A461BB1D3691432002B91
:10ABF000FBD10B6A002B00F05482996841B99A424C
:10AC00005FD01968002959D05B6899680029F6D08F
:10AC10001433F2E76FF0010015B0BDE8F08FEFF3E9
:10AC200011898EF31288D1F808A00B68DD0344BFA8
:10AC3000C6F8448ED1F808A0F36CD6F8445E5FFAEB
:10AC400089F989F31188D6F8489E2B4400FB09F551
:10AC5000A5EB0A05B5FBF9F500FB035313E7EFF38A
:10AC600011858EF31288D1F808900B68DB0344BF7E
:10AC7000C6F8448ED1F80890F36CD6F8442EEDB2A5
:10AC800085F31188D6F8485E1A4400FB05F3A3EB60
:10AC90000903B3FBF5F300FB0232D4E66839002068
:10ACA0007028002010E000E074450020BC3C06083D
:10ACB000902A0020404B4C0000ED00E0B54AC3E96B
:10ACC0000025C0B280F31188D4F8741B0B6A002BE6
:10ACD000FCD18C220120CDE908330DF10E080DF1D5
:10ACE0000F0A05938DF81C300D93109312938DF875
:10ACF0000E2000230022CDE90E23CDF8108006900F
:10AD00000B908DF830008DF84400CDF828A0EFF3BB
:10AD10001180102383F31288D4F8743B1B6A002B34
:10AD200000F07F81069B2A461BB1D3691432002BA9
:10AD3000FBD10B6A002B00F0B481996839B99342BA
:10AD40000AD0196829B15B6899680029F7D01433D3
:10AD5000F3E7904AC3E90025C0B280F31188D4F824
:10AD6000742B136A002BFCD19DF80F301B2B40F085
:10AD70008881D4F87C3B012284F8AC270BB12322D4
:10AD8000DA80DFF81092402248460A2142F0B6FFEE
:10AD90008A21002301228DF80E1000200021CDE928
:10ADA0000E01CDE90833D4F8741BCDF81080CDF82E
:10ADB00028A005938DF81C300D93109312930692E2
:10ADC0000B928DF830208DF84420EFF31180102382
:10ADD00083F31288D4F8743B1B6A002B00F029819E
:10ADE000069B2A461BB1D3691432002BFBD10B6A98
:10ADF000002B00F05381996839B9934209D0196842
:10AE000029B15B6899680029F7D01433F3E7C3E9E7
:10AE10000095C0B280F31188D4F8742B136A002B0C
:10AE2000FCD19DF80F2094F8701BC2F3801284F8B7
:10AE3000B42C002900F0CC80022900F0B180D6F8B3
:10AE4000A0345549B1EB930F80F01781B1EBD30FCC
:10AE500080F00181B1EB131F80F00181B1EB531F32
:10AE600080F00181B1EB931F80F00181B1EBD31F22
:10AE700080F00581B1EB132F34BF4FF4807680262C
:10AE800094F8B81CA4F8B66C18290ED14349C4F83C
:10AE9000BCBC5B08B3FBF6F3A1FB03135B0BC4F86C
:10AEA000C02CC4F8C46CC4F8C83C3A48A4F8786B09
:10AEB0000222002142F022FFC82037F07FFAD4F8A6
:10AEC000740B4FF0800B0026002700230122CDE9F0
:10AED0000E67CDE908338DF80EB0CDF81080CDF8AF
:10AEE00028A005938DF81C300D93109312930692B1
:10AEF0000B928DF830208DF84420EFF3118210234F
:10AF000083F31288D4F8743B1B6A002B38D0069B5D
:10AF1000002B3DD02B46D96914330029FBD1006AA0
:10AF2000002800F0B880816839B9834209D00168EF
:10AF300029B1406881680029F7D01430F3E7C0E9EF
:10AF40000095D2B282F31188D4F8740B036A002BF7
:10AF5000FCD19DF80F3013F00203B6D1019841786F
:10AF60008278007884F8DC0CC1F12001C2F1100273
:10AF7000184684F8DD1C84F8DE2C15B0BDE8F08F8F
:10AF80000562D2B282F31188024851F09DFDDBE7E1
:10AF90002B46C4E7DC440020809698005917B7D1AF
:10AFA000D6F8A0344048B0EB930F72D2B0EBD30F79
:10AFB00051D2B0EB131F52D2B0EB531F53D2B0EBB0
:10AFC000931F54D2B0EBD31F34BF8026402657E7DF
:10AFD000D6F8A0343549B1EB930F4ED2B1EBD30F75
:10AFE00039D2B1EB131F3AD2B1EB531F3BD2B1EBC5
:10AFF000931F3CD2B1EBD31F41D2B1EB132F34BF1F
:10B000004FF4807680263BE70020C4F87C0B9CE55B
:10B0100004ADC0B20D6280F31188254851F054FD93
:10B0200052E60D62C0B280F31188214851F04CFD08
:10B0300095E60D62C0B280F31188484651F044FD98
:10B04000EAE691F8193C634481F8193C56E502227E
:10B05000A5E50422A3E5042612E708229FE50826B9
:10B060000EE710229BE510260AE7202297E520260E
:10B0700006E7402293E5802291E5022600E740267C
:10B08000FEE6D4F87C0B202141F0EAFD4FF0FF30C2
:10B09000C2E50E46F4E6C0F80090FFDEC3F800906B
:10B0A000FFDE034A1A60FFDE002D3101404B4C00E9
:10B0B000DC44002010B58CB000234CF2050204469D
:10B0C00001A9CDE90633CDE90833ADF800208DF8AC
:10B0D000023003220B930123CDE903128DF81430C3
:10B0E0008DF82830CDF808D042F0A4FE204602A901
:10B0F00042F032FB204642F09DFE9DF806000CB067
:10B1000010BD00BF0848002302461178022902F151
:10B11000060204D00133062BF7D10020704703EB61
:10B12000430300EB430070476C1800202DE9F04307
:10B13000784D794F83B005F1F4002422002158F0B6
:10B1400011FC97F8E14C0023C5F81831002C3CD1D4
:10B15000724ED6F8C03063B39B6A53B370489847B9
:10B16000836833B303886F4F013B9BB2BC463846BC
:10B1700000210678032E00F106001ED001310629B9
:10B18000F7D100223978022907F1060700F0A180E3
:10B190000132062AF6D1D5F81811052909D0481C24
:10B1A00002FB01C2C5F81801022000219380107033
:10B1B0005180204603B0BDE8F083062303FB015114
:10B1C000B1F8F630013B9BB2DBE797F8E00C07F6ED
:10B1D000E843C7F8E43C10B9504E0024B9E741F009
:10B1E000A7FAC7F8F00C18B1837913F0BF0FF3D1A9
:10B1F00021464D4842F020FC04460028ECD0D7F808
:10B20000E43C474A9868C3F8942008B12023C380DF
:10B21000092141F025FDD7F8E43C404E986841F003
:10B22000C5FE4248D7F8E48C42F03CFC4FF00109DF
:10B23000A8F804003220C6F8E08086F8E49037F0E1
:10B2400045FB0423D7F8E40C4FF0000C0DEB030290
:10B250009F21CDF804C042F0FDFC9DF805809DF8CB
:10B2600004309DF806104FEA082848EA034848EAE7
:10B270000108414606F1C0004CF026F900287FF491
:10B2800068AF4046FDF78EFA034600287FF461AFB1
:10B290009DF806009DF805209DF80710000240EA81
:10B2A0000240234A0843904217D0C6E93233A6F839
:10B2B000C430A6F8D030FDF775FA804600287FF438
:10B2C00048AF97F8E00C41F033FA42F025FA4446D3
:10B2D0003FE7062101FB02C266E7164AC6F8C42012
:10B2E0004FF400334FF00062C6F8C8304023A6F890
:10B2F000D030C6F8CC2086F8D290FCF789FE06F153
:10B30000C00086F8D9904CF02BF80B4BC6F8C03033
:10B310001FE700BF78170020683900207028002040
:10B32000302900206C18002050460020404B4C0073
:10B3300021AAEF0000040008E43C0608F0B40D6800
:10B3400000240CE0BCF1050F18D8A0F137030A2B3C
:10B3500014D104EB840415F8010B03EB4404A0F1B1
:10B360003003DEB2092EA0F16107A0F1410CF0D943
:10B37000052FE7D8A0F157030A2BEAD00D6014601F
:10B38000F0BC70472DE9F041C94BCA4ECA4DCB4CB9
:10B390000822C3F88820336B82B043F00103336383
:10B3A00007464FF4C052284640F2023388466946A9
:10B3B000CDE9002309F088FD6B6AC14ADFF848C374
:10B3C00023F470436B626B6A43F420436B626B6AD5
:10B3D00023F470236B626B6A43F420236B62736CFB
:10B3E000B84D43F4804341F264317364736B44F8A5
:10B3F000018041F26C3143F08003675041F2683EB6
:10B40000B14973630227C4F8841DB04EB04BB149F3
:10B4100044F80E5084F8887D4FF0A045AE4FC4F834
:10B420008C5DC4F8906DC4F8983DC4F8D41D05F542
:10B43000326506F5A07603F51073A1F5D071C4F856
:10B440009C7DC4F8D85DC4F8A06DC4F8DC3DC4F898
:10B45000A41D012307F51077A5F5E465A6F5A06600
:10B46000A1F58C61C4F880CDC4F8E07DC4F8945D8A
:10B47000C4F84C6E84F88B3D05F5A075536106F554
:10B48000B076C4F8101E84F8923E1946934B944A45
:10B49000C4F8185EA7F5BC67A035C4F8246E914EB9
:10B4A000C4F8207EC4F8283E07F5D45703F5695345
:10B4B000C4F82C5E4FF050250020DFF850E2DFF892
:10B4C00050C2C4F8502EC4F8547E02F5A04207F5CD
:10B4D000A047C4F8586EC4F85C3E06F5A046A3F534
:10B4E0004853C4F8605E04F55865C4F8642EC4F887
:10B4F0006C6EC4F88C3EC4F814EEC4F81CCE024640
:10B50000C4F8687E2B4684F8940E402683F81C21EC
:10B51000A3F822210132042AC3E9496083F81D11EE
:10B5200083F81F01C3F8300103F12803EED1002294
:10B5300011462B46402083F87423A3F87A23013266
:10B54000042AC3E9DF0183F8751383F87713C3F87E
:10B55000881303F12803EED14FF0A04362489A68A4
:10B5600022F001029A60DA6842F04002DA6008F0E4
:10B57000CFFC94F8893D0022212161F317420BB1E1
:10B5800042F4801294F8831DD4F88C3D01299A630B
:10B5900000F0E380DA68D4F88C6ED4F8900DC2F332
:10B5A000076121F0600141F0400161F31F62002159
:10B5B000DA603160026861F3CC22026094F88B2D6E
:10B5C000012A00F0B7801021484808F0F3FF4748EF
:10B5D00008F0D6FFD4F8900D94F8813D00224FF08A
:10B5E000FF31026142618161C26153B305F1140709
:10B5F0003F4E114607EB83074FEA830C4FF0FF0ED7
:10B6000056F8042F1368002BACBF00234FF0904373
:10B61000B74213601161C2F808E0F1D105F150039F
:10B62000344963440027FF2651F8042F1568002D84
:10B63000ACBF00254FF090459942156017619660A8
:10B64000F2D1036994F8831D43F4807301290361E7
:10B6500060D0D4F88C2D28480023936100294FF046
:10B66000FF336FF0804151615360516114BF00237B
:10B670001023906143F47013916943F4605343F0D5
:10B6800008030B43936141F268319368615843F0BA
:10B69000010393600B689847184B194ADA606846B3
:10B6A000184B0093FEF7A8FA02B0BDE8F08100BF86
:10B6B00000E100E00038024000000240683900204C
:10B6C000003C01405C0400204000400100080050A4
:10B6D00000090050000B005020090050C005005028
:10B6E0000010005000300050F4460020E8460020D2
:10B6F000FC460020384700200008008000ED00E0F4
:10B700000005FA054302000108040100200500506D
:10B7100060050050D4F88C2D144B03636FF080410A
:10B72000134D00234FF0FF30936151615060516120
:10B7300095619FE701680F4A0F4E41F003010160D8
:10B74000802159629E62C3F80421E022C3F80821D7
:10B75000C0F24002C3F80C2135E79A6822F03E019E
:10B7600041F02A0161F307029A6013E703018100A7
:10B7700000080080A00040008000200010B5184C98
:10B7800094F87D0288B9174B83F85100586594F8F6
:10B790008032012B1FD0D4F8843203B312495B6886
:10B7A000BDE81040A1F10C00184740F0C1FF94F82B
:10B7B0007F220C49003A18BF012281F851204865C8
:10B7C0000028E4D01F22C280202141F049FA94F8D9
:10B7D0008032012BDFD1054BC4F88432DEE710BD87
:10B7E000604A002078170020E84C002078040020F0
:10B7F00099B10A6B824216D9154BD3F8C4229142F3
:10B8000021D34C3991421ED30B6B9842F9D38B6BE9
:10B810009842F6D80B46184670470D4BD3F8C41221
:10B820000A6B904212D30B680BB9F4E70A6B904293
:10B830000B4602D38A6B9042EDD951F84C3F002B56
:10B84000F4D1184670470023184670470A46D8E7D7
:10B85000604A00202DE9F047CC0143D10346224A3B
:10B8600043F8082B4FF0FF324260022418467E2630
:10B87000DFF87880D8F8C8922644013E051D494675
:10B880006FF070474FF0010A08E0A3421CD0631C20
:10B8900045F8043C321B1C460435CAB10B6BA3426D
:10B8A00002D88B6BA34204D22046FFF7A1FF0146CA
:10B8B00090B10A794B6B002AE7D1A34204D0E6D2BB
:10B8C00045F8042C631CE5E745F8047C631CE1E7BC
:10B8D000C8F8C812BDE8F08745F804AC321B631CF9
:10B8E0004946D8E78026C3E7F8FFFF0F604A0020EB
:10B8F00070B4447941BB03684FF400524FF40076B2
:10B90000202502213CBB1A8C22F001021204120CE9
:10B910001A841A8B188C22F0F30280B2120420F0E1
:10B920000A00120C014342F0010241F001011A83A6
:10B9300019841A8B22F00C021204120C1A831A8B2F
:10B9400092B270BC1A8370470022036816461546EF
:10B950001146002CD7D0042C21D0082C38D0198CBB
:10B9600021F480510904090C19849C8B1D8C45F627
:10B97000FF7040F6FF4128402140024342F48052CC
:10B9800041F4807199831A849A8B22F440621204E4
:10B99000120C9A839A8B92B270BC9A8370471A8C5D
:10B9A00022F010021204120C1A84188B198C89B21E
:10B9B00040F6FF4221F0A00102400D4342F48072A4
:10B9C00045F010051A831D841A8B22F44062B3E7F8
:10B9D0001A8C22F480721204120C1A84998B1A8C1D
:10B9E00021F0F30192B2090422F42062090C3243DF
:10B9F00042F4807241F0010199831A849A8B22F0FB
:10BA00000C02C4E738B50E4D0446006809F060F931
:10BA1000D5F8A024204652084FF6FF7135F08CFE71
:10BA200020460021FFF764FF064BC5F80C3D05F6E4
:10BA30000C5120460022BDE8384035F08BBD00BFD8
:10BA400070280020AD090208036870B55E6A26B14F
:10BA500033460522BDE87040184704460D464E1D8A
:10BA600000E023689B68204698470028F9D02368A7
:10BA700015F8011B1B6820469847B542F1D170BDEF
:10BA80000A44914217D010B40139541E11F8013FF5
:10BA900008225840430010F0800F08BF400083F098
