:020000040800F2
:10000000F0FF0120B5360608A9EA00087157040878
:100010002D3706082D3706082D370608000000008A
:10002000000000000000000000000000A5EA000839
:10003000A1EA0008000000009DEA0008D557040866
:100040002D3706082D3706082D3706082D370608E8
:100050002D3706082D370608E9BE0408B1BE04088E
:1000600079BE040841BE040809BE040885ED0508F0
:1000700075ED050865ED050855ED050841ED050828
:100080002DED050819ED05082D37060800000000C4
:10009000000000000000000000000000D1BD0408C6
:1000A00099150408E91504088915040811160408AF
:1000B000D9150408C9150408B91504080D2F060838
:1000C000152F0608012F0608092F06082D370608E8
:1000D0002D370608C98804081188040800000000AC
:1000E00099BD04082D3706086103010800000000CF
:1000F00000000000000000000000000005ED050801
:10010000000000002D370608A91504082D37060841
:1001100000000000000000000000000000000000DF
:10012000F1EC0508DDEC0508C9EC0508B5EC05089F
:10013000A1EC050800000000000000000000000025
:1001400000000000000000000000000021E40008A2
:100150008DEC050879EC050865EC0508598704085D
:10016000F52E0608FD2E0608000000000000000025
:10017000000000000000000000000000000000007F
:10018000000000002D3706080000000000000000FD
:080190002D3706082D37060883
:080198005432060001000000D2
:1001A0000E02010002000000EC690020A46A002099
:1001B00000000000FC660708A06A0020130201008E
:1001C0000400000070280020AC6A0020000000003D
:1001D000FE660708A86A0020031101000A0000005B
:1001E00034690020B46A002000000000FD0F0108FF
:1001F000B06A00202320010010000000806700206A
:10020000C46A002000000000955F0208C06A002058
:100210000D1001004C000000F0690020D86A002099
:1002200000000000FDFD0308D46A0020090201005F
:1002300001000000DC660020286B002000000000A8
:1002400002670708246B00202C0005001400000042
:10025000C4660020306B002000000000758002089A
:100260002C6B0020FD010100240000008C660020A2
:10027000486B002000000000038D0408446B002040
:10028000160215003F000000CC290020706B0020F2
:10029000000000000D2905086C6B0020061001000D
:1002A000300000003C290020B46B0020000000005A
:1002B000A9290508B06B0020FB0101000100000026
:1002C00028620020E86B0020000000004529050896
:1002D000E46B0020FC01010009000000F460002034
:1002E000F06B0020000000004D290508EC6B002099
:1002F000F701010006000000EC600020006C002007
:100300000000000004670708FC6B0020F9010100F1
:1003100004000000E86000200C6C002000000000D9
:10032000BD8D0408086C00201102010008000000C7
:10033000C0600020146C0020000000000A6707085D
:10034000106C00201212010004000000B8600020B0
:10035000206C002000000000126707081C6C0020C1
:10036000183001003000000088600020286C002058
:1003700000000000F1310508246C0020E8030100B2
:10038000040000007C5F00205C6C00200000000086
:10039000192A0508586C0020204201009000000036
:1003A000EC560020646C002000000000C19302089D
:1003B000606C0020EA0301000E00000030500020B5
:1003C000F86C00200000000016670708F46C00209D
:1003D000000201000B000000D84C00200C6D002032
:1003E000000000003D2A0508086D0020FF210100E3
:1003F00005000000844C00201C6D0020000000005F
:1004000035290508186D0020081203000F000000B0
:10041000904C0020286D002000000000452A0508AF
:10042000246D0020FA01010003000000F0450020C7
:100430003C6D002000000000252A0508386D0020D2
:100440000C0201000400000080440020446D0020E4
:1004500000000000092A0508406D0020FE0101008F
:1004600014000000F83600204C6D00200000000051
:100470009D2A0508486D002012300100110000007F
:100480006CA10020E8A100200000000024670708FC
:10049000E4A100200B3001001E000000EC990020B8
:1004A00038A20020000000003667070834A20020B0
:1004B0001F50010024000000AC9900205CA2002025
:1004C000000000005467070858A200200502010040
:1004D0000A0000004099002084A2002000000000D3
:1004E0007867070880A200201B02010010000000AE
:1004F00010A700201CB1002000000000652905089D
:1005000018B100201B20010014000000CCA3002023
:1005100030B1002000000000197F01082CB100203C
:10052000210201006801000008A4002048B1002059
:10053000000000009D7F010844B100203710010039
:1005400030000000F0A80020B4B20020000000003D
:1005500084670708B0B200202F10010022000000BD
:10056000F4B00020E8B2002000000000B4670708E3
:10057000E4B2002023220100100000003CA600206D
:1005800010B3002000000000D86707080CB300205B
:100590001E0001000900000028A6002024B300204E
:1005A00000000000E867070820B3002005200100D4
:1005B00008000000B0A6002034B3002000000000B6
:1005C000F467070830B30020FD0701007A0000003F
:1005D00098A2002040B3002000000000ED76010842
:1005E0003CB30020F59101006C00000058A30020EE
:1005F000C0B300200000000099890108BCB30020AE
:10060000261001000800000038B4002030B400209B
:1006100000000000F57401082CB400201010010047
:1006200002000000F0DA002018DB002000000000CB
:10063000FC67070814DB00202830010016000000CA
:10064000D8DA002020DB002000000000C597020857
:100650001CDB00201900010006000000D0DA002099
:100660003CDB002000000000FE67070838DB0020AC
:10067000012001000C00000090C8002048DB002091
:10068000000000000468070844DB00200C4006005E
:100690000801000074C6002058DB002000000000A4
:1006A0000500030854DB00200E00060024030000B0
:1006B000ACCB002064DC0020000000008929050884
:1006C00060DC00200A9001002000000040C60020ED
:1006D0008CDF002000000000695F020888DF002036
:1006E000131001000400000088D40020B0DF0020B7
:1006F0000000000010680708ACDF002000010100C6
:100700000400000088C50020B8DF002000000000C1
:1007100014680708B4DF0020020101000300000094
:1007200084C50020C0DF002000000000A988030865
:10073000BCDF0020220201001C0100004CD200207E
:10074000C8DF002000000000A9310508C4DF002038
:10075000010201000B00000094C50020E8E0002029
:10076000000000002D2A0508E4E00020020201003C
:1007700003000000D8C80020F8E0002000000000BE
:1007800000000000F4E00020340001000800000038
:10079000C4EC0020F4ED002000000000AD9302083E
:1007A000F0ED00202A0008008000000034EC00205A
:1007B00000EE00200000000081930208FCED002004
:1007C000E90301001800000004EC002084EE002082
:1007D000000000001868070880EE00202B001200BF
:1007E00024000000C4EE0020A0EE00200000000065
:1007F000498002089CEE00202920140078000000A7
:10080000C0E90020ECEE0020000000000000000025
:10081000E8EE0020F62101000C000000A8E700200F
:1008200068EF0020000000003068070864EF002037
:100830001C0202001C00000054E70020BCEF002056
:1008400000000000ED2D0508B8EF00200A020100AD
:1008500014000000F4F9002010FA0020000000004D
:10086000B50703080CFA002038000100070000005B
:10087000DCEF002028FA0020000000003C68070898
:1008800024FA0020EC031D00AE000000A0F10020BF
:1008900034FA0020000000001DFA020830FA00209F
:1008A000EB03200000010000ACF20020E8FA002079
:1008B0000000000000000000E4FA002025302000C5
:1008C0000002000048FE0020E005012000000000BA
:1008D00000000000DC0501202902010040000000AA
:1008E000D0FC0020E4070120000000004468070855
:1008F000E00701202C0201000400000038FE002067
:10090000280801200000000084680708240801204E
:10091000031201003D0000005C030120500801208B
:1009200000000000886807084C080120F831010029
:100930000200000090000120940801200000000047
:10094000C668070890080120020001000C000000A2
:100950003CFE00209C080120000000000000000078
:10096000980801203900010005000000B0020120B4
:10097000AC08012000000000FD280508A80801209F
:1009800006120300120000009C020120B80801209A
:1009900000000000BD2E0508B40801201D02020061
:1009A000060000006C020120D008012000000000B9
:1009B00000000000CC0801201A02010049000000DC
:1009C000701901209C220120000000003D32050822
:1009D0009822012028020400040000008C2301203A
:1009E0009824012000000000852905089424012096
:1009F000270204000400000088230120A024012015
:100A000000000000792905089C2401201F0208002D
:100A10001000000078230120A8240120000000001D
:100A200011290508A424012016100100040000006B
:100A300070260120502B012000000000C868070824
:040A40004C2B01201A
:100A44000403090412010002EF0201408304563238
:100A54000002010203010000120100020202004030
:100A6400830440570002010203010000FFFFFFFF5F
:100A74000000000000000000010000000000000071
:100A840000000000273600200000000001000000E4
:100A94000000000000000000000000000000000052
:100AA4000000000000000000000000000000000042
:100AB4000000000000000000010000000000000031
:100AC40000600240106002400000000000000000CE
:100AD40000000000000B0000000000000000000007
:100AE4000000000000600240286002400100000095
:100AF4000000000000000000060C000000000000E0
:100B0400000000000000000000600240406002405D
:100B1400020000000000000000000000100D0000B2
:100B2400000000000000000000000000006002401F
:100B340058600240030000000000000000000000B4
:100B4400160E00000000000000000000000000007D
:100B540000600240706002400400000000000000D9
:100B640000000000200F0000000000000000000052
:100B740000000000006002408860024005000000A0
:100B8400000000000000000026100000000000002B
:100B9400000000000000000000600240A06002406D
:100BA40006000000000000000000000030110000FA
:100BB400000000000000000000000000006002408F
:100BC400B8600240070000000000000000000000C0
:100BD400362F0000000000000000000000000000AC
:100BE40000640240106402400000000000000000A5
:100BF40000000000003800000000000000000000B9
:100C0400000000000064024028640240010000006B
:100C14000000000000000000063900000000000091
:100C24000000000000000000006402404064024034
:100C3400020000000000000000000000103A000064
:100C440000000000000000000000000000640240FA
:100C5400586402400300000000000000000000008F
:100C6400163B00000000000000000000000000002F
:100C740000640240706402400400000000000000B0
:100C840000000000203C0000000000000000000004
:100C94000000000000640240886402400500000077
:100CA40000000000000000002644000000000000D6
:100CB400000000000000000000640240A064024044
:100CC40006000000000000000000000030450000A5
:100CD400000000000000000000000000006402406A
:100CE400B86402400700000000000000000000009B
:100CF4003646000000000000000000000000000074
:100D04007D000000B5830008B1830008AD830008AE
:100D1400A18300089D830008A9830008A583000817
:100D2400A1A00008F1860008E1880008718F00087E
:100D3400ED8F0008B5900008DD860008CD8400081A
:100D4400C5840008010000000000803F313E010816
:100D540035430108AD3E0108B5080108990A0108A8
:100D6400C5080108E10801088D0801087D0801088B
:100D7400000000000000000009022000010104C07E
:100D840032090400000208065005070581024000EC
:100D9400000705010240000009026400030100C0CD
:100DA40032090400000103000000092111010001BF
:100DB4002236000705830309000A080B0102020218
:100DC40001000904010001020201000524001001D0
:100DD4000524010002042402020524060102070579
:100DE40082030800FF09040200020A00000007054C
:100DF400010240000007058102400000090243008F
:100E0400020100C0320904000001020201000524AD
:100E14000010010524010001042402020524060037
:100E240001070582030800FF09040100020A00000B
:100E34000007050102400000070581024000000090
:100E4400FF000000140000FF00000000000000008C
:100E5400AA5507010000AA55050100002D202D2DDB
:100E6400202D2D2D2D202D2D2D2D000000000000D6
:100E7400000000000000000000000008EC64060808
:100E8400FF1FFF1F01000000FFFFFFFF0501090511
:100E9400A101A100050109300931093209330935DD
:100EA4000934093609371581257F750895088102AB
:100EB4000509190129081500250195087501810204
:100EC400C0C0000009022200010100E03209040050
:100ED400000103010200092111010001223600076B
:100EE40005830309000A0000000000000102030456
:100EF4000102030406070809AA550B010000AA55BC
:100F040005010000AA550902000000AA5503009F2C
:100F140001000000C01200002CA20020000000000C
:100F2400FCA1002000000000010000000F000000F0
:100F34000200000001000000000001007EFFFF002D
:100F4400FFFFFFFF0101FF01E001010009EE0108BD
:100F54000000000000000000586B060808FF0000B5
:100F6400000000000000000000000000948106085A
:100F74000000000000000000000000004C82060891
:100F8400000000000000000000000000F8810608D6
:100F94000000000000000000E501020874CB0020FE
:100FA40001010000D5180208891A02080000000097
:100FB400B0830608211802080000000000000000A9
:100FC40014830608711C02080000000000000000E1
:100FD400CC8206082D202D2D202D2D2D2D202D2DBC
:100FE4002D000000000000000000000000000000D0
:100FF40000000000FFFFFFFFA10C0208000000003A
:10100400000000002481060801000000FA0000002E
:10101400010000000100000001010000D8C7002009
:101024000000F40101000000D6C700200000F40114
:1010340001000000D4C700200000F40101000000FA
:10104400D2C700200000F40101000000D0C7002036
:101054000000F40101000000CEC700200000F401EC
:1010640001000000CCC700200000F40101000000D2
:10107400DDF40108A1F40108000000004470060832
:10108400BCC7002005320100CAC700206400F40177
:1010940001000000C8C700206400C409010000006A
:1010A400BAC70020E803D00701000000B8C7002039
:1010B400E803D00701000000B6C70020E803D0070A
:1010C40001000000B4C700201E00B80B010000009E
:1010D400C2C7002005000F0001000000C4C70020A3
:1010E40003000A0001000000B2C700201E00F40142
:1010F40001000000C6C7002002000000D0700608EE
:10110400B0C700201400640001000000BEC7002026
:101114003200E80301000000AEC700200000C80050
:1011240001000000E8E20608F0E2060872CB0020A5
:101134000100C4090000000070CB00200100C409B4
:10114400000000006ECB00200100C4090000000074
:101154006CCB00200100C4090000000066CB002015
:101164000100C409000000006ACB00200100C4098A
:101174000000000064CB00200100C409000000004E
:1011840062CB00200100C40900000000B5C50020A6
:1011940000C80100B4C5002000C80100B2C5002089
:1011A4000000FFFF0A000000B0C500200100C800D5
:1011B40001000000AEC5002032003075320000008E
:1011C400ACC500207EFF140005000000AAC5002065
:1011D40005002C0105000000A8C50020055A0500E3
:1011E400A5C5002000FF0100A7C5002002000000E3
:1011F4007C080020A3C50020030000008C650608BD
:10120400A4C5002000FF0100A6C5002002000000C4
:101214007C080020A2C50020030000008C6506089D
:10122400F8C40020FF7F0100F4C400200000000087
:10123400FFFFFFFF01000000F0C4002000000000D9
:10124400FFFFFFFF01000000ECC4002000000000CD
:10125400FFFFFFFF0100000031F40108C1F30108A2
:1012640000000000F4700608A0C80020EE02CA08BE
:10127400010000009EC8002000C8010064000000B6
:101284009DC8002002C80100640000009CC8002022
:1012940002000000DC7006088EC500200083007D7B
:1012A400050000008CC5002080C1803E05000000C0
:1012B40087C5002000FF010080C500206400F40100
:1012C400010000007EC500206400F401010000005C
:1012D4007CC500206400F401010000007AC50020F0
:1012E400030000000072060879C500200200000017
:1012F400107206083DC600200D0000001C7206088E
:101304003AC600200064010038C6002032001027CD
:101314000A00000036C600200D0000001C720608FA
:1013240035C600200D0000001C72060834C60020DB
:1013340003000000547206080000000000000000D2
:101344000000000064720608A6C800204A000000DD
:101354009C720608A4C800200100401F0100000080
:10136400A3C8002003000000C87306083FC600207D
:1013740003000000D87306083EC6002003000000E6
:10138400D873060862C600200000E80301000000CC
:1013940060C600200000E8030100000070C60020C1
:1013A40002000000E87006086EC600200000F40188
:1013B400010000006CC600200000F40101000000E0
:1013C4006AC600200000F4010100000068C6002085
:1013D4000000F4010100000066C600200000E803DC
:1013E4000100000064C600200000E80301000000C2
:1013F40095C70020006401000A00000094C7002083
:10140400006401000A0000008EC70020006401008F
:101414000A0000008DC70020006401000A000000DB
:101424008CC70020006401000A00000092C700205D
:1014340000FF01000A00000091C7002000FF010026
:101444000A00000090C7002000FF01000A0000000D
:101454008AC7002001FF01000A00000089C700209C
:1014640001FF01000A00000088C7002001FF0100FD
:101474000A000000D2CE002000C80100D1CE002016
:1014840000C80100D0CE002000C80100E0CE00203A
:101494000000D00701000000DBCE002000C80100DE
:1014A400DACE002000C80100D9CE002000C8010017
:1014B400DECE00200000D00701000000D8CE0020BE
:1014C40000C80100D7CE002000C80100D6CE0020FD
:1014D40000C80100DCCE00200000D007010000009D
:1014E400D5CE002000C80100D4CE002000C80100E1
:1014F400D3CE002000C8010074F0060800000000EC
:101504000000F8DA002080F0060807000000000060
:10151400480C002088F00608070000000000400C7A
:10152400002090F00608070000000000380C00209E
:1015340098F006080800000000002C0C0020A0F021
:101544000608070000000000240C0020A8F006088C
:101554000700000000001C0C0020B0F00608070083
:1015640000000000140C0020B8F006080800000079
:101574000000080C0020C0F006080700000000006E
:10158400000C0020C8F00608070000000000F80B5B
:101594000020D0F00608070000000000F00B002037
:1015A400D8F00608080000000000E40B002094E2D4
:1015B4000608010000000000000000000000000018
:1015C4001000000000000000000000002DF20108DF
:1015D40011F201087D0C0208E873060830C60020E9
:1015E400E803D00701000000000000000000000034
:1015F4002502020884740608A1C500200300000027
:10160400D8740608A0C50020000301009FC500206F
:10161400000301007DF1010831F101080000000020
:10162400E8740608F1F00108A9F0010800000000C0
:1016340084750608C9F10108610C02080000000065
:101644000476060890C5002001030100D5ED0108C9
:10165400B5ED01080000000068790608C5F5010829
:1016640099F5010800000000E879060829F001084E
:10167400E1EF010800000000587A06083DF2010875
:101684008524020800000000F47A060831100208DC
:10169400F1F50108000000009C7B06088DF20108AA
:1016A4000000000000000000387C0608BDF20108BC
:1016B400A1F20108000000009C7C06081DF301084B
:1016C400D9F2010800000000E47C0608D15D02089C
:1016D40061F3010800000000707D0608ACC700201B
:1016E400010601008D5D0208290E020800000000B9
:1016F400347E0608195E0208650E02080000000028
:10170400500C0020ABC7002001060100F9F10108CC
:10171400E1F1010800000000887E0608010C0208BF
:101724000000000000000000D07E060871F00108EF
:10173400490C0208000000006C7F0608000000004D
:1017440000000000000000000880060899F301086A
:10175400DD0E02080000000088800608000000007A
:101764000000000000000000948206081899002080
:101774009CFF2C0100000000FCD30020E0150C1796
:1017840000000000FED30020020000009884060838
:1017940075C50020020000009884060870C500206A
:1017A40088136F170100000072C5002088136F179B
:1017B4000000000068690020000000000000000034
:1017C4006669002000000000000000006469002039
:1017D400000000000000000062690020000000001A
:1017E400000000006069002000000000000000000C
:1017F4005E69002000000000000000006C0600206C
:101804000000000000000000F9C4002003000000F4
:101814001484060868C5002088136F1701000000AF
:10182400D29E002088136F1700000000C1EE01084B
:101834000000000000000000248406082DCB0020D6
:101844000100000078840608D49E002001000000F6
:1018540084840608CA9E0020020000008C840608C6
:10186400000000000000000000000000A48406083E
:10187400A9EE0108000000000000000040850608F1
:10188400000000000000000000000000948506082D
:1018940000000000000000000000000004860608AC
:1018A40074C500200200000098840608CE9E002023
:1018B400E0150C170000000074E20020C8E20020CC
:1018C40001F11F3FD601FF010001010100000000EA
:1018D4000000803F00000000000000000000000045
:1018E4000000803F00000000000000000000000035
:1018F40000000000000000000000000000000000E4
:101904000000000000000000D94C050800000000A1
:101914000000000000000000000000003C0801205E
:1019240008000000000000002C080120080000004E
:10193400893D0108A9090108213D010800000000B2
:101944007908010809460108713C0108C5380108F5
:10195400000000000000000039080108C5830008E9
:10196400B9830008ED8E0008098F0008D18E0008A5
:10197400B58E0008998E0008413D010885090108CB
:10198400753C01080000000051080108C93801082D
:10199400453C010831380108000000000000000047
:1019A4004508010801000000788F0608281100206E
:1019B40099C00308000000000000000000000000BF
:1019C400BD890308000000000000000000000000C2
:1019D400FB0F0108F70F0108EF0F0108D50D0108EF
:1019E4004D1901087919010801190108E50F0108C9
:1019F400D50F0108C50F0108B50F0108610D0108D5
:101A040000000000D40C0708DCDB0608000000001E
:101A140025890308A086010004000000D40C0708EF
:101A2400DC0C070800000000A5040408E80300001B
:101A34000400000014E90608000000000000000093
:101A4400E14A03087D000000FF000000E4E6060808
:101A54000000000000000000891503087D0000005C
:101A6400FF0000009CEB06080000000000000000DE
:101A74000D1C03087D000000FF0000001CE906089F
:101A840000000000000000006DFE0308E8030000F1
:101A940003000000E40C0708000000000000000040
:101AA40069590308D0070000030000005C570708C9
:101AB40000000000B97E0208195F04085F76000088
:101AC40005000000D85A07080000000000000000CC
:101AD400818904081027000002000000F00C0708A8
:101AE4000000000000000000D1FD0308E80300002E
:101AF40005000000FC0C07080000000000000000C6
:101B0400218B030810270000030000000C0D0708B8
:101B14000000000000000000CD8903081027000029
:101B2400030000001C0D0708000000000000000076
:101B34001D5C0408400D03000300000090F8060833
:101B440000000000000000003959040810270000BC
:101B54000200000008DC060800000000000000008D
:101B64002DD1010810270000030000002C0D0708E8
:101B74000000000000000000A9010408A086010084
:101B8400020000008CE706080000000000000000CE
:101B9400F552040850C3000002000000ACF8060827
:101BA40000000000000000006D260408A00F0000E3
:101BB40002000000340D07080000000000000000CF
:101BC400EDB90108102700000200000064F20608C5
:101BD40000000000A1760108D1AD0108854501008F
:101BE4000200000010E506080000000000000000EC
:101BF400491D01081027000002000000F0DB060860
:101C04000000000000000000BD2D020850C30000C9
:101C140002000000400D0708000000000000000062
:101C2400E5190108400D030001000000480D0708F4
:101C340000000000000000008DFD0308400D0300BB
:101C440002000000500D0708000000000000000022
:101C5400FDE0010850C30000030000005C0D07080C
:101C640000000000000000009D91030840420F00A6
:101C740001000000680D07080000000000000000DB
:101C840045FE030850C3000001000000740D07085E
:101C94000000000000000000454801081027000073
:101CA4000200000001000000A00F0000B80B0000BB
:101CB4000102FFFF0102FF00FFFF0000FFFFFFFF23
:101CC400385707080000080205030300000000005D
:101CD400445707080100080205040300000000003F
:101CE4005057070800000802050303000000000025
:101CF400585707080100080205040300000000000B
:101D0400C8F506080200FE010110030000000000EF
:101D140040E606080300140200030000000000006F
:101D24006057070804001F020200080000000000BA
:101D34006857070805001F020201080000000000A0
:101D44001A03000000000000000000000000000072
:101D5400000000000000000000000000040309046B
:101D64001201000200000040830420570002010217
:101D740003010100020000000000000030160020F2
:101D8400482B01200200000001000000BD2C0508C2
:101D94002C160020000000000100000001000000DB
:101DA400F92C0508CC1400200000000000000000FD
:101DB400000000000000000000000000000000001F
:101DC400000000000100000000000000000000000E
:101DD40000000000000000000100000000000000FE
:101DE40000000000000000000000000001000000EE
:101DF40000000000D8000000000000000500000002
:101E040006000000FFFFFFFF0300000000000000C9
:101E14000500000005000000913805087938050820
:101E240069380508C52A050819380508C1370508A1
:101E3400B52A050834160020C9320508CD2A05083C
:101E4400C92A0508C12A0508D9320508BD2A05088A
:101E5400B92A050878D00608A545010865090108CE
:101E64008544010800000000000000001D3C01083A
:101E74002D3B0108000000000000000000000000ED
:101E84002D080108652B0508592B0508F5380508A8
:101E940011390508112B0508D9380508BD3805087E
:101EA4001F0000001C0000001F0000001E000000B6
:101EB4001F0000001E0000001F0000001F000000A3
:101EC4001E0000001F0000001E0000001F00000094
:101ED4000068214C0600000005000000008002029A
:101EE4001F00000053544D202020202050726F64A6
:101EF400757420202020202020202020302E3031F6
:101F04000101FF00000000000000000000000000CC
:101F140001000000000000000000000000000000BC
:101F2400000000000100000000000000FF000000AD
:101F3400F40100000000040100000200010000029E
:101F44001000000007000000000000000000000076
:101F54000102030406070809C70000000500000089
:101F640006FF0000C016002000000000BC66070841
:101F7400DC6607089C6607080000000000000000FB
:101F8400000000000000000000000000000000004D
:101F9400000000000000000000000000000000003D
:101FA400000000000000000000000000000000002D
:101FB400000000000000000000000000000000001D
:081FC400000000000000000015
:08280000082800080040000850
:04400000FFFFFFFFC0
:10800000024B9A6D136A002BFCD170472017002099
:108010001248002302461178032902F1060218D003
:108020000133062BF7D10E4AD2F81831052B0FD0A9
:10803000591C03EB4303C2F8181100EB4303032060
:1080400040F2EB3140F2FF32187059809A8070474D
:10805000704703EB430300EB4303F0E714180020E1
:108060002017002030B51349134B8DB0082501228D
:1080700001F15800069381F8F05000230DEB050143
:108080000DF10704CDE90733CDE9034202938DF8E2
:10809000143009930B938DF8282044F0A9F9FFF7C9
:1080A000AFFF9DF80700A0F1FF00B0FA80F0400993
:1080B0000DB030BD20170020BD800008826D136A0E
:1080C0005B681B78FF2B08D090F8F030013BDBB2E7
:1080D00080F8F0301BB10120704700207047126A11
:1080E000526802201370704770B4C3080D4CE25CF4
:1080F00000F00706B24004EBD004D2B20020C6F173
:1081000008038B4228BF0B46C3F108052A4198405B
:10811000C91A40EA02004FF0000614F8012FEED110
:1081200070BC704760170020084AD2E94731994275
:108130000AD0D118013391F824110170C3F30A0356
:10814000C2F81C3101207047002070472017002022
:10815000044BD3E94730C01AC0F30A00C0F50060F1
:10816000704700BF20170020012380F8513070476E
:1081700007B501A8FFF7D8FF0028FAD09DF8040042
:1081800003B05DF804FB034BD3E94730C01AC0F3DA
:108190000A0070472017002001207047024BC3F8E7
:1081A0002429C3F82819704720170020024BC3F870
:1081B0002C29C3F8301970472017002070477047EA
:1081C00030B4114DD5E947239A1AC2F30A020A4482
:1081D000B2F5006F13D8A9B101444A1E013810F856
:1081E000014FE918824203F1010381F82441C3F3EE
:1081F0000A03F4D1C5F82031002030BC70470220BA
:1082000030BC70470846F8E72017002070B5144CC2
:1082100094F83439002BFBD1F9B101444E1E451EB0
:1082200002E001203DF004FAD4F83839D4F83C29B2
:108230000133C3F30A039342F3D0D4F83829D4F8B6
:10824000383915F8011F22440133C3F30A03B5423C
:1082500082F84019C4F83839E6D1002070BD00BF5B
:108260002017002010B5074CA36C0846114643B1F7
:10827000A36C052B05D1002AE36C02DDFFF7C6FFD6
:10828000E36C10BD1828002010B590F850100023A2
:1082900080F8503061B1094CA26C5AB1A26C052A29
:1082A0000AD13C30E36CFFF7B1FFE36C012010BD55
:1082B0000120FCE71046FAE71846F8E718280020E6
:1082C000002280F85120DFE790F85020531C024430
:1082D000DBB280F8503082F83C1090F851200AB19F
:1082E000132B00D9D0E77047212838B50C4605D0AC
:1082F00022282DD0202812D0002038BD0029FBD004
:10830000072AF9D1194B186D93F8541093F855209A
:1083100093F85630206021716271A371ECE7002957
:10832000EAD0072AE8D1124AD2F828391BB1D2F88C
:108330002409096898470D4B256820796179A2794D
:108340001D6583F8540083F8551083F85620D3E751
:108350000029D1D0022ACFD1054AD2F83039002BDA
:10836000CAD00988D2F82C099847C5E718280020F8
:1083700020170020014B0020986470471828002027
:10838000044B054A002005219164C3F83009C3F865
:10839000280970472017002018280020704700BFC8
:1083A000704700BF704700BF704700BF704700BFF5
:1083B000704700BF704700BF042301480B8070471F
:1083C0009801002010B4074A074B92F85800122475
:1083D00003F114020C8001280CBF184610465DF80A
:1083E000044B7047182800209C010020A0B182682F
:1083F0000D4B12B107229A7070471978DA60032981
:108400004FF004000CBF80214FF48071C3E90111CB
:108410001A611A7598707047034B41F2E47101229A
:108420005A545A70704700BF607D00200378022BB9
:1084300010D0006908B9012070470C4B1B78032B42
:108440000EBF0B4B80B24FF6F773984294BF0020DB
:10845000012070470549436841F650028A58B3EB42
:10846000422F2CBF01200020704700BF607D0020FC
:10847000F7FFFF0F0378022B14D030B4104A436883
:10848000006941F6480402F5C2511559096841F6E0
:108490003C042B4012595B0A023801FB00301044A7
:1084A00030BC7047064B426841F6340141F630005B
:1084B0005958185800EB410000EB5220704700BF9C
:1084C000607D00200048704748170020034B93F858
:1084D0002400032894BF00200120704720170020AB
:1084E00070B592B00B0E0D0C40F04006952204467C
:1084F0008DF80810080A01A98DF805308DF806508E
:10850000002306258DF807008DF809200DF10300E2
:108510000122039114498DF80460CDE90733CDE9B8
:108520000D33CDE9090204938DF818308DF82C3005
:108530000F93119305958DF840200C91FFF792FD54
:1085400000B974B9094B082203F1580003A983F854
:10855000F02043F04DFFFFF753FD9DF8030012B0EC
:1085600070BDFF2012B070BD71850008201700207B
:10857000836D1B6A5B681B78FF2B0AD190F8F03083
:10858000002B03F1FF3380F8F03014BF01200220EC
:1085900070470020704700BF30B51049104B8DB0B8
:1085A0000546012201F15800069381F8F05000239E
:1085B00002A90DF10704CDE90733CDE90342029387
:1085C0008DF8143009930B938DF8282043F010FF99
:1085D000FFF716FD9DF807000DB030BD20170020F5
:1085E0007185000870B51B4E90B00024FD22012556
:1085F0000DF1030306F1580001A98DF8032006933D
:10860000CDE90144CDE90A44CDE90C4434628DF84A
:108610001040059407948DF824400F940395089515
:108620008DF8385043F0E4FEFFF7EAFC2846FFF7E8
:10863000B3FFFF2808D0084BDB6C73612046092389
:1086400086F8243010B070BD0423022086F8243050
:1086500010B070BD201700201828002070B5064605
:1086600090B008200D46FFF797FFFF2822D0FE2884
:1086700002D0022010B070BD0024022201230F4856
:10868000089201A98DF83830CDE90544CDE90A44B6
:10869000CDE90C440296039501948DF8104007949F
:1086A0008DF824400F9443F0A3FEFFF7A9FC204669
:1086B00010B070BD012010B070BD00BF7817002051
:1086C00008B5FFF79DFC0A2039F0DEFE024B186E5C
:1086D000BDE8084043F012BB20170020034B93F87D
:1086E0002400003818BF0120704700BF2017002069
:1086F000F0B50379264C002B14BF012200228BB069
:1087000084F8502003D184F824300BB0F0BD054626
:1087100090F9001004F1580043F0E0FFAD785DBB24
:1087200001271C482566C4F8EC4084F8647044F0C6
:108730000BF8194E03464FF47A70A4F85C303CF005
:1087400077FF206E43F0DAFA0FCE6D460FC50FCEDD
:108750000FC596E8030085E803001048694643F01A
:1087600047FEFFF74DFC0E4B84F82470DB6C636111
:10877000002323760BB0F0BD284642F045FE0546A7
:1087800008B11E23C3800921284643F0EBF8C7E750
:1087900020170020801A06008C6206087817002037
:1087A000182800202DE9F84F474B98420ED003F5CA
:1087B0006853083398424BD0444B0020C3E9320041
:1087C000A3F8C400A3F8D000BDE8F88F3F4C404F99
:1087D000DFF808810223E36504F160060025FB6AE7
:1087E000AB42294605F1010503D0D4F8E00050F072
:1087F0005BFB94F8E430D4F8E02086F82430326251
:108800003046414650F064FDE36D9D4206F130066E
:10881000E5DB002384F8D230D4E91A03E16DB4F823
:108820006420B4F87050C4F8F03012FB01F203FB7E
:1088300001F3A4F8C420B4F86610264AA4F8D05076
:10884000C4E93203A4F8C610C4F8C0200120BBE775
:108850001E4C1F4F0223E36504F160054FF0000B2F
:108860004FF4806A4FF040094FF40068FA6A01261D
:108870005A455946B34403D0D4F8E00050F014FBF5
:10888000D4F8E01094F8E420296285F824204FF40D
:1088900000314FF00062C5E90212A5F804A0A5F866
:1088A0001090A5F80680AE74FFF7B2FB28466E76EE
:1088B00050F05AFCE26D084B45F8303B9345D5DB50
:1088C00084F8D260A8E700BF1971EF0018280020D3
:1088D00098010020E0620608B46206081940EF0023
:1088E0002DE9F843194C94F82460042E0546894676
:1088F00090461F4608D0082E02D00020BDE8F8831D
:10890000FFF770FE0228F8D1206E43F0F1F9A37E44
:1089100093B969021120FFF7E3FD98B90C4BC4F835
:108920000090DA6C65600523C4E90387626184F80E
:1089300024300120BDE8F88329461120FFF7D0FD3F
:108940000028EBD0FFF7BCFED7E700BF20170020C0
:10895000182800202DE9F04FBA4DBB4F06460FCD29
:1089600007F1F4042DED048B0FC40FCD0FC497F85D
:1089700026312A6822608BB0022B97F82C210296B0
:1089800000F03682032B00F02C82002B00F03582A1
:10899000DFEDAE7AF0EE678A002AAD49AD4AC7F83E
:1089A0000421AD48AD4BC7F80C010EBF00220122D7
:1089B0000B46039237EEA87AF5EE006AC6EE879A68
:1089C000A74DC7F80831A5F1230B05F160084FF05A
:1089D000000A9FEDA48A9FEDA49A27EE888A029B45
:1089E000534540F391811BF8014B002C00F0AD8101
:1089F000002302E0152B00F0A88103EB43024FEAAD
:108A0000430918F80210A14203F10103F2D13A44DC
:108A100092F8B511002900F0FE81204639F052F895
:108A20000646304639F06EF80178002940F08D8115
:108A3000B9440AF1010300930322DBB289F8F5314E
:108A400089F8F421002E00F080814FEA141909F111
:108A5000FF39B9F1040F04F00F0C00F2A981834C27
:108A600004EB4901B1F8A40040FA0CF111F0010146
:108A700000F09E81012101FA0CFC0CF1FF3C0CEA94
:108A80000000A14401935AF09DFC99F8B0C0DFF8B2
:108A9000E4E1019B60440EEBC00C03228CF807302C
:108AA0008CF806205EF83000C5F814C000F13F4392
:108AB00003F57E0304EB9324012194F8B830727A15
:108AC00003F01F045B09032B01FA04F100F082811B
:108AD000042B00F07A81022B00F07281BCF8044074
:108AE000B4FA84F3C3F11F03C3F3CC0100EB81019B
:108AF00003F00703D1F820C09B004FF00F0E0EFAD1
:108B000003FE2CEA0E0CC1F820C0D1F820C002FAF6
:108B100003F343EA0C0305AA0B62114602230192F8
:108B2000CDE905430CF01AF9019A039B002B00F0E4
:108B30002781B7F82431D7F8A0C4346807EE903AFB
:108B4000F8EEE77AFCEEE77A17EE900ABCFBF0F35A
:108B500003F57F43FF331B0CBCFBF3F3B3FBF0F0D7
:108B600001381FFA80FE07EE903ABCFBF3F3B8EE33
:108B7000677A2188DFF800C167EE087A013BC5ED0E
:108B8000027A69EE677A6445E7EE287A9BB289B289
:108B9000C5ED037A11D0364884420ED0B4F1804F2F
:108BA0000BD0ACF57C4C644507D00CF5806C64456B
:108BB00003D00CF5806C644502D121F0700189B2BC
:108BC000DFF8B8C0644500F0CA800CF5806C6445DD
:108BD00000F0C58021F440710CF56C4C89B26445FD
:108BE0002180C4F82CE0238540F0E5800023238613
:108BF0000120A082337A96F805900021CDE9071173
:108C00004FF0600CADF8181009919907CDF814C019
:108C100040F1AA80DB0003F008030421ADF8223004
:108C2000ADF818104946204638F042FBB9F10C0F58
:108C30002ED8DFE809F0812D2D2D782D2D2D6F2DCB
:108C40002D2D25000C630608182800206F1203390B
:108C5000A58D0408A98D0408F11A0308F902030878
:108C60006C2900206F12833A00007A448C62060857
:108C700000040140382A002000000140001000409C
:108C8000A38B23F400631B041B0C43F40063A38336
:108C90003368B3F844206FEA42426FEA524292B21C
:108CA000A3F844201A88194692B242F0010221F832
:108CB000342B70796B600C1800222C600A50BAF1CA
:108CC000000F00F08C80D7F858118B4200F08E8096
:108CD000BAF1010F00F08380D7F870118B4200F0D9
:108CE0008580BAF1030F7AD1D7F88821D31A18BF3B
:108CF0000123DDF800A02B740122BAF1040F6A747D
:108D000005F118057FF46BAE44480BB0BDEC048B45
:108D1000BDE8F08FA38B23F008031B041B0C43F06A
:108D20000803A383B4E7238B23F400631B041B0C09
:108D300043F400632383ABE7238B23F008031B0476
:108D40001B0C43F008032383A2E7354A354B002070
:108D5000C7E942320BB0BDEC048BBDE8F08F218037
:108D6000C4F82CE0238543E75B0003F002034FF4D3
:108D70008071ADF82030ADF81600ADF8241051E741
:108D8000B0EE690A01925AF0D9FCFCEEC07AD7F82D
:108D9000A0C43468019A17EE903ABCFBF3F303F5D4
:108DA0007F43FF331B0C4FF6FE7EBCFBF3F3DAE68A
:108DB000696105AAB9E61C4B9C423FF417AF17E75F
:108DC0001A4B5C6C2143596488E6184B1C6B214399
:108DD000196383E6154B1C6C214319647EE601235D
:108DE00087E7DFED137ADFED138AD5E5134680E7D9
:108DF000DFED117AF0EE678ACEE5104BDFED107AE9
:108E0000104AC7F8043101230393C7F80C21054B1E
:108E1000F0EE678ACEE50E4603E600BF0C2900207F
:108E200019070308A58D040800040140003802401A
:108E3000ACC5A737ACC5A73628293038A98D04089A
:108E40006F12833AF11A0308F8B5104ED6F8A04411
:108E5000054600680F4664080BF084FEB4FBF7F18A
:108E6000B1F5803F03D3012CFAD96408F6E7224616
:108E7000284689B238F0C6FC054BC6F8083D28469E
:108E80000449BDE8F840002238F0CABB1828002089
:108E9000C91D02082035002010B5044C04480A46BC
:108EA00021460AF049FC204610BD00BF28350020AD
:108EB00034D4060810B5044C04480A4621460AF08A
:108EC0003BFC204610BD00BF2835002044D40608D6
:108ED00010B5044C04480A4621460AF02DFC2046F1
:108EE00010BD00BF2835002050D4060810B5044C32
:108EF00004480A4621460AF01FFC204610BD00BF68
:108F0000283500205CD4060810B5044C04480A46F5
:108F100021460AF011FC204610BD00BF2835002074
:108F200068D4060810B50AF0DBFB0E4C48B194F883
:108F30002430032B10D8237E0133DBB2072B23769A
:108F400003D9002384F8243010BD074A0123D26CD2
:108F5000626184F8243010BD044843F0F5FBA4F8A6
:108F60005C00E8E72017002018280020801A06007F
:108F700070B51D4C94F82430042B06460D4608D0DD
:108F8000082B20D1E36983422BD0FFF72BFB02286B
:108F900019D1206E42F0ACFE00213720FFF7A0FA75
:108FA00029461720FFF79CFAA8B9A37E6BB9710276
:108FB0001920FFF795FA70B90823C4E9076584F80A
:108FC0002430022070BD012070BD31461920FFF70A
:108FD00087FA0028F0D0FFF773FBFFF7A3FF032009
:108FE00070BD022070BD00BF201700202DE9F041A8
:108FF0002B4C0546884617461E4694F82400042844
:1090000034D0082806D1E369AB4206D0FFF7EAFA6C
:109010000228F2D00120BDE8F0814FF0FC0CA26DD7
:109020002048117B204B80F80FCEC3F8588051B1F7
:10903000526942B194F8E020002A0CBF4FF48072CC
:109040004FF4007201E04FF480721A661749184815
:1090500043F0CEF901220623C4E90085C4E9037672
:10906000227284F824300020BDE8F081206E42F0A6
:109070003FFEA37E5BB969021820FFF731FA40B9C1
:1090800094F82430082BC8D04FF0FE0CC7E72946CF
:10909000F2E7FFF715FBFFF745FF0320BBE700BF33
:1090A000201700201828002098010020C801002067
:1090B000781700202DE9F04FC54C94F8506095B01A
:1090C000002E00F07F8194F82420C24F04F158084C
:1090D00004F14009531E082B00F29580DFE813F0DD
:1090E000330059001E0193008200A3001800930072
:1090F0000900FEF7B7FF002840F018826369FA6C98
:10910000FA3393427CD2FFF70DFF94F82420E1E775
:10911000FEF7A8FF0028F1D0236A0022012B227657
:1091200040F21982E269013B511CC4E9071308228D
:1091300084F82420A2F10806B6FA86F676093046AD
:1091400015B0BDE8F08F206E42F0D2FD0021084638
:10915000FFF7C6F90546FFF7B3FA012D50D1206E8F
:109160004FF0000A84F819A042F0C2FD40F2AB11A2
:109170000820FFF7B5F9052800F07881012800F0F4
:109180004181FFF79DFA627E002AD1D0022384F844
:109190002430206E42F0ACFD637E022B0CBF4FF0FA
:1091A0008045002500213720FFF79AF9294629201C
:1091B000FFF796F90546FFF783FA0DBB637E022B96
:1091C00000F06781A576206E42F092FD0021092013
:1091D000FFF786F9002872D0FFF772FA94F824207E
:1091E000531E10E020684FF40071FFF737FA012892
:1091F00000F02581022800F02881002800F0388145
:1092000094F82420531EDBB2022B09D8714B6169FC
:10921000DB6C5B1AC82B8DD9FFF784FE94F82420F1
:10922000042A87D18BE7A26D117B136A002900F015
:10923000D5805269002A00F0D18094F8E020002AFD
:1092400000F0CC80B3FA83F35B09002BD8D004A9DB
:1092500000250DF10F0302224FF0010A059140464F
:1092600005A9CDE90B3A0792CDE90955CDE90E558F
:10927000CDE91055ADF8105006958DF820508DF8B9
:10928000345013958DF848A043F0B2F8FEF7B8FEBD
:109290009DF80F3003F01F03052B00F05081FFF7FE
:1092A00041FED4F80CB0BBF1000F00F0DC802A4680
:1092B000236961685046D84794F824200AE71021B2
:1092C0004846FFF7CBF98246002885D101217F204F
:1092D000FEF70AFF012805467FF47EAF50460221C3
:1092E000FEF702FF002800F0038101287FF474AF2D
:1092F00016213A20FEF7F8FE01308002A062FFF747
:10930000DFF9206E42F0F4FC00210A20FFF7E8F8B4
:10931000002840F0E680032384F82430102105A8BB
:10932000FFF79CF900287FF46BAF9DF821309DF882
:1093300022109DF81C209DF815009DF816501B0169
:10934000DBB243EA111303F5FA636387DDF81D30DE
:1093500001F00F0184F83C101BBA110902F00F0252
:1093600045EA002084F8381084F839209DF814105C
:109370009DF817206363069B2363A08584F82E1055
:1093800084F82F20FFF79CF9A37E6BB9206E42F082
:10939000AFFC4FF400711020FFF7A2F80546FFF76D
:1093A0008FF9002D7FF4AFAE0B4843F0CDF90022CA
:1093B0000423A4F85C003046226284F8243015B0FF
:1093C000BDE8F08F304684F8246015B0BDE8F08F1A
:1093D000201700201828002040787D012268217A7B
:1093E0004FF4807302EB01214046002243F02EFB34
:1093F000237A0133DBB22372A3F10203B3FA83F3BE
:109400005B0922E7042304AA8DF8340005A940462D
:1094100007930692CDE909AACDE90BAACDF814A0CD
:109420008DF820A0CDF838A042F0E2FFFEF7E8FD6D
:109430009DF81330AB2B04BF02236376A1E663696A
:10944000FA6C64339342BFF4DBAEFFF739F9FFF7F0
:1094500069FDE5683DB10022104623696168A847AF
:1094600094F8242036E694F8242033E6657688E6DE
:109470000190FFF725F9E56801982076042384F828
:109480002430002D3FF45BAED4E900212369A847C6
:10949000B6E6206E42F02CFC29463A20FFF720F871
:1094A00004A98246042201230691404605A9079299
:1094B0008DF83430CDE90955CDE90B5505958DF87A
:1094C00020500E9542F094FFFEF79AFDBAF1000F7E
:1094D00007D1FFF7F5F8049B1BBAC3F38073A3769B
:1094E00071E6FFF7EDF8FFF71DFD94F82420F1E594
:1094F00004212C20FEF7F8FD032182464E20FEF7C2
:10950000F3FD0C2183463620FEF7EEFD0BF1020B36
:10951000421C02FA0BF205FA0AF5A2FB0501420A07
:1095200042EAC152A262FFF7CBF8EAE60190FFF7E8
:10953000C7F801980423064684F82430FFE50E4B53
:10954000E568DB6C6361072284F82420002D3FF47A
:10955000F1AD504698E708D0042384F82430FFF793
:10956000AFF894F82420531E4DE6FFF73BF802288D
:109570007FF446AE30E600BF182800202DE9F84FF2
:10958000C34C94F8101E0546C1F34001D4F8180EE0
:1095900042F0BAFB94F8101ED4F8140EC94301F03F
:1095A000010142F0B1FB002D00F0E38005F1FF382E
:1095B000B84D5FFA88F80127D4F8183E33B11A681D
:1095C0009B8851690B4214BF53831383D4F8143E14
:1095D00033B11A689B8851690B4214BF53831383BC
:1095E000B4F8203E002B40F0598194F8221ED4F8A4
:1095F000240E42F089FBDFF8A0C2FA204FF0100ED3
:109600004FF47A71DCF80430C3F30803002B40F008
:109610001281EFF31183002B40F00D81E26CD5F83D
:109620000890E36C9A42F9D1D4F84C3E9945F5D8AC
:10963000D4F8486E01FB06F3A3EB0903B3FBF6F382
:1096400001FB0232DCF80430C3F30803002B40F0C6
:10965000B280EFF31183002B40F0AD80E36CD5F8BE
:1096600008B0E66CB342F9D1D4F84C6EB345F5D8E6
:10967000D4F8486E01FB06F9A9EB0B09B9FBF6F922
:1096800001FB03939B1AB3F57A7FDBD30138B9D181
:10969000D4F8183E33B11A689B8851690B4214BF45
:1096A00053831383D4F8143E33B11A689B885169ED
:1096B0000B4214BF53831383B4F8203E002B40F0B9
:1096C000DA8094F8221ED4F8240E81F0010142F0D1
:1096D0001BFBDFF8C4C1FA204FF0100E4FF47A7173
:1096E000DCF80430C3F30803002B40F08480EFF370
:1096F0001183002B7FD1E26CD5F80890E36C9A427D
:10970000F9D1D4F84C3E9945F5D8D4F8486E01FB10
:1097100006F3A3EB0903B3FBF6F301FB0232DCF81B
:109720000430C3F3080333BBEFF311831BBBE36CBB
:10973000D5F808B0E66CB342F9D1D4F84C6EB34515
:10974000F5D8D4F8486E01FB06F9A9EB0B09B9FB73
:10975000F6F901FB03939B1AB3F57A7FDFD3013847
:10976000BED108F1FF385FFA88F8B8F1FF0F7FF437
:1097700023AFBDE8F88FEFF3118A8EF31288D5F886
:1097800008B02B68DB0344BFC4F8447ED5F808B0AA
:10979000E36CD4F8449E5FFA8AFA8AF31188D4F80D
:1097A000486E4B4401FB06F9A9EB0B09B9FBF6F92E
:1097B00001FB0393CFE7EFF3118A8EF31288D5F8FC
:1097C00008B02B68DE0344BFC4F8447ED5F808B067
:1097D000E36CD4F8449E5FFA8AFA8AF31188D4F8CD
:1097E000486E4B4401FB06F9A9EB0B09B9FBF6F9EE
:1097F00001FB039346E7EFF311898EF31288D5F846
:1098000008A02B68DA0344BFC4F8447ED5F808A04A
:10981000E36CD4F8442E5FFA89F989F31188D4F8FF
:10982000486E1A4401FB06F3A3EB0A03B3FBF6F3FD
:1098300001FB023273E7EFF311898EF31288D5F83A
:1098400008A02B68DB0344BFC4F8447ED5F808A009
:10985000E36CD4F8442E5FFA89F989F31188D4F8BF
:10986000486E1A4401FB06F3A3EB0A03B3FBF6F3BD
:1098700001FB0232E6E6D4F83C3E002B3FF429AF70
:10988000D4F8282E0023136084F8393E21E700BF66
:109890001828002010E000E000ED00E0D4F83C3E85
:1098A000002B3FF4A8AED4F8282EB4F8403E04496B
:1098B000B1FBF3F35B10136084F8397E9BE600BFC5
:1098C00040420F002DE9F84FC74CC84D94F8101EC8
:1098D000D4F8180EC1F3400142F016FA94F8101EA5
:1098E000D4F8140EC94301F0010142F00DFA4FF013
:1098F00005080127D4F8183E33B11A689B885169CE
:109900000B4214BF53831383D4F8143E33B11A6847
:109910009B8851690B4214BF53831383B4F8203ED4
:10992000002B40F0508194F8221ED4F8240E42F00F
:10993000EBF9DFF8C0C232204FF0100E4FF47A710D
:10994000DCF80430C3F30803002B40F01081EFF380
:109950001183002B40F00B81E26CD5F80890E36C8A
:109960009A42F9D1D4F84C3E9945F5D8D4F8486ECE
:1099700001FB06F3A3EB0903B3FBF6F301FB023291
:10998000DCF80430C3F30803002B40F0B080EFF3A1
:109990001183002B40F0AB80E36CD5F808B0E66C87
:1099A000B342F9D1D4F84C6EB345F5D8D4F8486E2B
:1099B00001FB06F9A9EB0B09B9FBF6F901FB0393CF
:1099C0009B1AB3F57A7FDBD30138B9D1D4F8183EAE
:1099D00033B11A689B8851690B4214BF53831383B8
:1099E000D4F8143E33B11A689B8851690B4214BFF6
:1099F00053831383B4F8203E002B40F0D88094F8B2
:109A0000221ED4F8240E81F0010142F07DF9DFF826
:109A1000E4C132204FF0100E4FF47A71DCF80430BC
:109A2000C3F30803002B40F08280EFF31183002B77
:109A30007DD1E26CD5F80890E36C9A42F9D1D4F864
:109A40004C3E9945F5D8D4F8486E01FB06F3A3EBDC
:109A50000903B3FBF6F301FB0232DCF80430C3F375
:109A6000080323BBEFF311830BBBE36CD5F808B0FD
:109A7000E66CB342F9D1D4F84C6EB345F5D8D4F8BE
:109A8000486E01FB06F9A9EB0B09B9FBF6F901FBDE
:109A900003939B1AB3F57A7FDFD30138BED108F167
:109AA000FF3818F0FF087FF425AFBDE8F88FEFF31B
:109AB000118A8EF31288D5F808B02B68DB0344BFF7
:109AC000C4F8447ED5F808B0E36CD4F8449E5FFA3D
:109AD0008AFA8AF31188D4F8486E4B4401FB06F9E0
:109AE000A9EB0B09B9FBF6F901FB0393D1E7EFF3FF
:109AF000118A8EF31288D5F808B02B68DE0344BFB4
:109B0000C4F8447ED5F808B0E36CD4F8449E5FFAFC
:109B10008AFA8AF31188D4F8486E4B4401FB06F99F
:109B2000A9EB0B09B9FBF6F901FB039348E7EFF347
:109B300011898EF31288D5F808A02B68DA0344BF88
:109B4000C4F8447ED5F808A0E36CD4F8442E5FFA3C
:109B500089F989F31188D4F8486E1A4401FB06F399
:109B6000A3EB0A03B3FBF6F301FB023275E7EFF355
:109B700011898EF31288D5F808A02B68DB0344BF47
:109B8000C4F8447ED5F808A0E36CD4F8442E5FFAFC
:109B900089F989F31188D4F8486E1A4401FB06F359
:109BA000A3EB0A03B3FBF6F301FB0232E8E6D4F8B9
:109BB0003C3E002B3FF42BAFD4F8282E002313603B
:109BC00084F8393E23E7D4F83C3E002B3FF4B1AE95
:109BD000D4F8282EB4F8403E0549B1FBF3F35B10EE
:109BE000136084F8397EA4E61828002010E000E015
:109BF00040420F0000ED00E00E4B30B4DB684278CD
:109C000001780D4CDB43C3F30223C3F10403DBB241
:109C100002FA03F360181B0101F01F050122490934
:109C200003F0F003AA4080F8003344F8212030BC50
:109C3000704700BF00ED00E000E100E030B50368D0
:109C40005A4D5B4C1A88D5F8A004B0FBF1F0A34242
:109C500000F1FF3083B080B292B211D055498B42EF
:109C60000ED0B3F1804F0BD0A1F580318B4207D0DD
:109C700001F580618B4203D001F580618B4202D1F6
:109C800022F0700292B24C498B4268D001F580619B
:109C90008B4243D022F4407201F56C4192B24FF6F0
:109CA000FF748B421A80DC62188564D100221A8608
:109CB00001229A821A883E4992B242F001028B42F6
:109CC0001A8063D0B3F1804F62D03C4A934261D096
:109CD00002F5806293425FD002F5806293425DD0CC
:109CE00002F5806293425BD002F58062934259D0C4
:109CF00002F59632934257D002F58062934213D018
:109D000002F58062934208BF09220ED04FF0012372
:109D100001A80193FFF770FF03B030BD4FF6FF714C
:109D20001A80D9621885C3E70822254B03EBC203CA
:109D300001A893F8C5408DF8044001224FF48073C8
:109D40008DF80520ADF80630FFF756FF1B2CE3D148
:109D50001C4B019301A8FFF74FFF03B030BD012159
:109D60004FF6FF741A80DC62188599821A8892B2C5
:109D70000A431A80A9E70F4A934297D001229A8298
:109D80001A8892B242F001021A809BE70022CCE7C7
:109D90000122CAE70222C8E70322C6E70422C4E779
:109DA0000522C2E70622C0E70722BEE718280020E6
:109DB0000000014000040140001000400004004089
:109DC0008C6206081901000100F01F0240090123FE
:109DD000032803FA02F304D004280CD0022805D08B
:109DE0007047074A116C0B4313647047044A516C67
:109DF0000B4353647047024A116B0B431363704764
:109E00000038024000285FD00368374A2DE9F0414E
:109E100003F13F4404F57E0402EB9422012492F8FE
:109E2000B82002F01F055209032A04FA05F456D09F
:109E3000042A4FD0022A48D08588B5FA85F0C0F1AF
:109E40001F00C0F3CC0603EB860600F0070082007B
:109E50000F24306A944020EA04003062306A01FA2C
:109E600002F20243002132624FF0010E0A464FF027
:109E7000030C02270EFA02F838EA050002F101028B
:109E80001CD118680CFA01F420EA04001860186864
:109E900007FA01F606431E609E6826EA04069E60E5
:109EA00098689860586820EA0800586058685860B8
:109EB000D86820EA0400D860D868D860102A01F178
:109EC0000201D7D1BDE8F0817047084A556C2C4398
:109ED0005464B1E7054A156B2C431463ACE7034A9D
:109EE000156C2C431464A7E78C6206080038024006
:109EF00000487047982A0020144A154BD2F8A02435
:109F0000B3EB920F15D2B3EBD20F14D2B3EB121FF7
:109F100013D2B3EB521F12D2B3EB921F11D2B3EB99
:109F2000D21F10D2B3EB122F34BF4FF480708020B9
:109F300070470220704704207047082070471020A7
:109F40007047202070474020704700BF182800202D
:109F500080969800002877D0F0B58388B3FA83F311
:109F6000202B83B00446C3F11F0258D0374D384E22
:109F700015444FF0004006EB820230FA03F395F8E7
:109F80001051C2F8501E05D0324A116821EA03016F
:109F9000116053612046002141F0E4FCA38822684F
:109FA0002C49B3FA83F7C7F11F0404F0FC0000F159
:109FB000804000F59C3004F00304A40002F13F430C
:109FC0004FF00F0C82680CFA04FC22EA0C0282604B
:109FD00003F57E038268C3F38723A34013438360A2
:109FE0000A681D484FF00043FB4022EA03020A6062
:109FF0004A6822EA03024A600A681A430A608A68C9
:10A0000022EA03028A60CA6822EA0302CA6002687E
:10A010002E441343036096F8903EF02B01D803B012
:10A02000F0BD0E4B5B5D8DF80430F02103224FF440
:10A03000807301A886F8901E8DF80520ADF80630D3
:10A04000FFF7DAFD03B0F0BD704700BF8C62060871
:10A0500018280020003C0140083C0140DCD40608E0
:10A0600010B4B8B10D4CD4F8983E102B05D15DF862
:10A07000044B0521002038F0BFB803EB4302224413
:10A0800082F89D1E01210B4482F89C0E82F89E1ED0
:10A09000C4F8983E5DF8044B704700BF18280020B4
:10A0A00080782021DCE700BF2DE9F04FDFF8ACA37A
:10A0B0002DED028B9AF8E01E002297B0CAF8D02E40
:10A0C000CAF8D42ECAF8D82ECAF8DC2ECAF8CC2E7C
:10A0D00019B19AF8E12E8AF8CC2E9AF8E22E1AB12C
:10A0E0009AF8E32E8AF8DB2E9AF8E62E1AB19AF83F
:10A0F000E72E8AF8D62E9AF8E42E1AB19AF8E52EB1
:10A100008AF8D12E9AF8E83E05935A1ED3B257B278
:10A1100003937B1C00F0AA80C54AC64E52F83790C4
:10A12000029602EBC70200231279019308EE102A6F
:10A130001D463446984626783946304643F01AF98B
:10A1400083463046BBF1000F1ED041F05DF9EA1D99
:10A150001321D2B220B14FF0000E827180F807E0D7
:10A1600041F000FC207843F02FF94FF0070308F18D
:10A17000010223714FF0010384F802806070CDF872
:10A1800004B05FFA82F8E3700135042D04F1050490
:10A19000D1D118EE100A029ECDF81080FFF714FE00
:10A1A000A549A64A4868024042F440324A600FB9C5
:10A1B000019B5BB9A24C4820FFF706FE2046022116
:10A1C00058F0BAFEA26842F00102A2609A489C4A86
:10A1D0004168BAF8EA4E41F400014160516821F447
:10A1E00080515160916B21F4401141F480119163D1
:10A1F000D16841F46001D160956B85F44011C1F3E1
:10A20000015101EB81011F2000FA01FC25EA0C0C31
:10A21000112505FA01F141EA0C019163D16841F081
:10A22000E061D160956BC5F30151C1F10401C9B280
:10A2300001EB810188404FF0120C25EA00000CFA76
:10A2400001F108439063E4B1BAF8EC1ECAF8F44E89
:10A25000A1B1BAF8EE2ECAF8F81E62B1019B794896
:10A26000521A90FBF2F2CAF8FC2E6BB917B0BDEC93
:10A27000028BBDE8F08F744A1288EFE7734A1188A9
:10A28000E7E7734A1488DFE74846049958F054FE1C
:10A29000684B012003F114080723F278441CE4B250
:10A2A00052B375783279A5F10A0101EB410105EB52
:10A2B000450C092D03FA01FE03FA0CFB02FA01F129
:10A2C00040F2A080D9F80C2022EA0E0E41EA0E01DD
:10A2D000C9F80C10421E02EB82021F21062801FA67
:10A2E00002FC05FA02F273D8D9F8341021EA0C0105
:10A2F0000A432046C9F8342005364645CDD1D9F861
:10A300000820039942F40072C9F80820D9F80820FF
:10A3100042F48072C9F80820D9F80820574442F066
:10A320000102C9F8082097F9F02E022040F02AFD1A
:10A33000044600289AD04668304640F011FD454A50
:10A34000431E242101FB032393F89C50002D8DD143
:10A35000059983F89D10062283F89C20002885D05B
:10A36000304640F0FDFC53F013FA60680AF0C4FB7D
:10A3700007A80AF083FB049EA26837480792012EC3
:10A380008CBF4FF4806300230D9309F14C034FF40D
:10A390008072CDE90A56089309904FF40033606843
:10A3A0000C9507A94FF400674FF40056CDE9102330
:10A3B000CDE90E760AF074FB6268136843F001037E
:10A3C0001360D9F8083043F08043C9F808304DE7EE
:10A3D000C11FA0F10D0201EB81014FF01F0E02EB36
:10A3E00082020C280EFA01FC0EFA02F005FA01F1C5
:10A3F00013D8D9F8302022EA0C0211432046C9F8BC
:10A40000301079E7D9F8101002FA0CF221EA0B0BA0
:10A4100042EA0B02C9F810205CE7D9F82C1005FAC3
:10A4200002F221EA00010A432046C9F82C2063E722
:10A43000AC630608E436002000230140E030FCFF56
:10A4400000200140803801002E7AFF1F2C7AFF1F68
:10A450002A7AFF1F980100201837002018280020B2
:10A460002DE9F84F2E4F00EB800407EBC404D4F81D
:10A470000C6F2EB1054694F8210F00F0FF0820B1B3
:10A480004FF000084046BDE8F88F89469A4693464B
:10A490003BF0A2F84FEA49010123C9B284F8221F18
:10A4A00084F823BF84F8253F84F8268F84F8243F5E
:10A4B00084F8213F84F8208FB288C4F828AF910532
:10A4C0008146C4F82CAF1DD43388DA0510D442F28B
:10A4D0000F7405E03BF080F8A0EB0903A34215DC04
:10A4E00033889B05F6D433889BB243F48073338062
:10A4F000B3889BB243F440734FF00108B3804046E9
:10A50000BDE8F88F98464046BDE8F88FB7F8803F21
:10A5100001339BB22846A7F8803F57F071FFB1E79F
:10A52000182800200128B5EEC00A10D0F1EE10FA6C
:10A530000BDD9FED177ADFED177AE0EE077AFCEE80
:10A54000E77A17EE903A98B2704700207047F1EE24
:10A5500010FA0BDD9FED107ADFED107AE0EE077A4E
:10A56000FCEEE77A17EE903A98B27047EDD5F7EE29
:10A57000007A30EE270A9FED0A7ADFED0A7AE0EEE4
:10A58000077AFCEEE77A17EE903A98B2704700BF70
:10A5900000E0F9440000404200C0794400008344D8
:10A5A00000C079C400E0824470B5464E96F8824FF0
:10A5B00004EB840306EB8303A50093F8843F032B8D
:10A5C0006ED8DFE803F059291E02254406EB850505
:10A5D000D5F8880F002870D196F8D43F9C425FD000
:10A5E000013404F00302934286F8822F58D002EB24
:10A5F000820406EB84040223C4F8880F84F8843FA5
:10A6000070BD2B1906EB8303D3F8882F72B1013A82
:10A61000C3F8882F002070BD2B1906EB8303D3F8F5
:10A62000882F002AF3D1022283F8842F254406EBD9
:10A63000850595F8903F013BDBB285F8903F8BBBD9
:10A64000214B96F8D46FD3F8C012D5F88C0F621C4A
:10A6500002F003024B1E0324B242034485F8844FE8
:10A66000B3FBF1F0C5F8880F1AD0994218D8013819
:10A67000C5F8880F012070BD42F098FB80B1124BE5
:10A680002C44D3F8C02206EB8404012102F51C53AC
:10A6900084F8841F0F33B3FBF2F3C4F8883F70BD16
:10A6A000012070BD084BD3F8C022012002F2E7332D
:10A6B000B3FBF2F3C5F8883F70BD0138C5F8880FC9
:10A6C000002070BD182800209801002003681A7827
:10A6D000012A01D00020704793F90430044A03EBAB
:10A6E000830302EBC30393F8210FC0B2704700BF8E
:10A6F0001828002010B50B4CD4F8D83F1B78022B3B
:10A700000FD1D4F8E00F41F0F9FAD4F8E00F08B116
:10A710002123C380012141F025F9FFF7EDFBA4F8C7
:10A72000DC0F10BD1828002030B583B00D46012382
:10A7300001460DF107020446074842F057FA9DF81A
:10A74000072035EA020304D003482A43214642F099
:10A75000E3FA03B030BD00BFF037002038B505463E
:10A760000A460C460648294642F01AF945F080018F
:10A77000034842F013F8231A5842584138BD00BF2D
:10A78000F0370020F0B53B4CD4F8D85F2B78022B83
:10A7900095B018D0012B02D0002015B0F0BD95F96E
:10A7A00004506B1CF8D0022DF6DC0091134694F88F
:10A7B000DC1F0246284657F0C5FF0028ECD028468B
:10A7C00058F09CF8E9E72B6A002BE5D10DF10F0C4E
:10A7D0008DF80F00002601200027CDE90833CDE9D0
:10A7E0000A12CDE90E6705938DF81C300D93109376
:10A7F0001293CDF810C006908DF830008DF844000B
:10A80000EFF31180102383F31288D4F8D83F1B6A2A
:10A8100013B3069B04AE32461BB1D3691432002B2E
:10A82000FBD12B6A13B3996839B993420AD01968DE
:10A8300029B15B6899680029F7D01433F3E70E4A11
:10A84000C3E90026C0B280F31188D4F8D82F136A68
:10A85000002BFCD10120A0E704ABC0B22B6280F337
:10A86000118804F6D87054F047FBEEE7024A1A60EC
:10A87000FFDE00BF18280020F037002070B5036805
:10A880001D78022D13D0012D01D0002070BD04468B
:10A8900093F904000A4B421C03F8545CF5D00228DB
:10A8A000F3DC0A46543B2179BDE87040D8E51B6AC9
:10A8B000002BEAD1012242F073F8012070BD00BFE5
:10A8C0001039002013B53A4C002354F8442C8DF86D
:10A8D0000730137803F0FD01012905D114F8401C5D
:10A8E00011B90C2104F8401C022B1ED0032B2DD0D3
:10A8F00001220B212F4852F043FA04203AF098FE2F
:10A900002C4801230DF10702002152F05BFA0028C8
:10A9100038D09DF80730482B34D1274B44F8503CB1
:10A92000264B44F84C3C02B010BD54F83C0C41F0AE
:10A93000E5F954F83C0C08B13423C380012141F0FF
:10A9400011F8FFF7D9FA24F8400CD1E7D4F86C34A9
:10A95000506846F2A8111961002380F8883012224D
:10A96000372152F0E1F954F8443C0D225868242173
:10A9700052F0DAF954F8443C302258686A2152F017
:10A98000D3F9B5E754F8443C1A78022A03D0032AD5
:10A9900007D00020C7E754F83C0C41F009FD002027
:10A9A000C1E758681022372152F0BEF9F1E700BF25
:10A9B00010390020CC38002023CE0508A5CE05088C
:10A9C0002DE9F04FB54CB64E95B0002305464FF437
:10A9D000F0728B4604F5F660202184F8AC3784F8D9
:10A9E000AD3701955BF0A6FA202104F519604FF40C
:10A9F000F0725BF09FFADFF8C0C2AA4932274FF02D
:10AA0000100E4FF47A704FF00108DCF80430C3F3F5
:10AA10000803002B40F02381EFF31183002B40F05B
:10AA20001E81F26C8D68F36C9A42FAD1D6F84C3ED6
:10AA30009D42F6D8D6F8489E00FB09F35B1BB3FB9A
:10AA4000F9F300FB0232DCF80430C3F30803002BF7
:10AA500040F0E580EFF31183002B40F0E080F36CD1
:10AA6000D1F808A0F56CAB42F9D1D6F84C5EAA45F6
:10AA7000F5D8D6F8489E00FB09F5A5EB0A05B5FB0D
:10AA8000F9F500FB03539B1AB3F57A7FDBD3013F43
:10AA9000BBD194F8712B002A00F0BC8094F8723B73
:10AAA000013B022B00F2B68003EB830004EBC001F4
:10AAB0007D4D91F80C7C05EBC0004FF0010C022F8E
:10AAC000C4F8740B84F8FCCB00F0BB82DBB204EB5F
:10AAD0000313D3F8843CC1F8103C002B00F09A809B
:10AAE00002234FF4807081F80C3CA5F188034C3DA3
:10AAF000A1F8180CC1F8243CC1F8285C1509013DE7
:10AB0000042D02F00F0200F27F82684F07EB45032D
:10AB1000B3F8A40040FA02F3DB0740F17582012389
:10AB200003FA02F2013A10403D4458F04BFC95F80C
:10AB3000B0205F4B104403EBC000C4F87C0B83795A
:10AB400013F0BF0F66D12323C380092140F00AFF11
:10AB5000D4F87C3B13B11A689B881383D6F8A024E1
:10AB6000544BB3EB920F80F07282B3EBD20F80F0B4
:10AB70007082B3EB121F80F07082B3EB521F80F033
:10AB80007082B3EB921F80F07082B3EBD21F80F023
:10AB90007082B3EB122F80F06E824FF4807200232C
:10ABA0000DF10D01FF20A4F8782B0122CDE904134B
:10ABB000CDE90833CDE90A33D4F8741B8DF80D00C4
:10ABC0000D9306928DF81C208DF83020EFF3118044
:10ABD000102383F31288D4F8743B1B6A002B00F017
:10ABE0001782069B04AD2A461BB1D3691432002B91
:10ABF000FBD10B6A002B00F05482996841B99A424C
:10AC00005FD01968002959D05B6899680029F6D08F
:10AC10001433F2E76FF0010015B0BDE8F08FEFF3E9
:10AC200011898EF31288D1F808A00B68DD0344BFA8
:10AC3000C6F8448ED1F808A0F36CD6F8445E5FFAEB
:10AC400089F989F31188D6F8489E2B4400FB09F551
:10AC5000A5EB0A05B5FBF9F500FB035313E7EFF38A
:10AC600011858EF31288D1F808900B68DB0344BF7E
:10AC7000C6F8448ED1F80890F36CD6F8442EEDB2A5
:10AC800085F31188D6F8485E1A4400FB05F3A3EB60
:10AC90000903B3FBF5F300FB0232D4E610390020C0
:10ACA0001828002010E000E01C4500208C620608F7
:10ACB000382A0020404B4C0000ED00E0B54AC3E9C3
:10ACC0000025C0B280F31188D4F8741B0B6A002BE6
:10ACD000FCD18C220120CDE908330DF10E080DF1D5
:10ACE0000F0A05938DF81C300D93109312938DF875
:10ACF0000E2000230022CDE90E23CDF8108006900F
:10AD00000B908DF830008DF84400CDF828A0EFF3BB
:10AD10001180102383F31288D4F8743B1B6A002B34
:10AD200000F07F81069B2A461BB1D3691432002BA9
:10AD3000FBD10B6A002B00F0B481996839B99342BA
:10AD40000AD0196829B15B6899680029F7D01433D3
:10AD5000F3E7904AC3E90025C0B280F31188D4F824
:10AD6000742B136A002BFCD19DF80F301B2B40F085
:10AD70008881D4F87C3B012284F8AC270BB12322D4
:10AD8000DA80DFF81092402248460A2141F008FE9E
:10AD90008A21002301228DF80E1000200021CDE928
:10ADA0000E01CDE90833D4F8741BCDF81080CDF82E
:10ADB00028A005938DF81C300D93109312930692E2
:10ADC0000B928DF830208DF84420EFF31180102382
:10ADD00083F31288D4F8743B1B6A002B00F029819E
:10ADE000069B2A461BB1D3691432002BFBD10B6A98
:10ADF000002B00F05381996839B9934209D0196842
:10AE000029B15B6899680029F7D01433F3E7C3E9E7
:10AE10000095C0B280F31188D4F8742B136A002B0C
:10AE2000FCD19DF80F2094F8701BC2F3801284F8B7
:10AE3000B42C002900F0CC80022900F0B180D6F8B3
:10AE4000A0345549B1EB930F80F01781B1EBD30FCC
:10AE500080F00181B1EB131F80F00181B1EB531F32
:10AE600080F00181B1EB931F80F00181B1EBD31F22
:10AE700080F00581B1EB132F34BF4FF4807680262C
:10AE800094F8B81CA4F8B66C18290ED14349C4F83C
:10AE9000BCBC5B08B3FBF6F3A1FB03135B0BC4F86C
:10AEA000C02CC4F8C46CC4F8C83C3A48A4F8786B09
:10AEB0000222002141F074FDC82037F0E5FAD4F8F1
:10AEC000740B4FF0800B0026002700230122CDE9F0
:10AED0000E67CDE908338DF80EB0CDF81080CDF8AF
:10AEE00028A005938DF81C300D93109312930692B1
:10AEF0000B928DF830208DF84420EFF3118210234F
:10AF000083F31288D4F8743B1B6A002B38D0069B5D
:10AF1000002B3DD02B46D96914330029FBD1006AA0
:10AF2000002800F0B880816839B9834209D00168EF
:10AF300029B1406881680029F7D01430F3E7C0E9EF
:10AF40000095D2B282F31188D4F8740B036A002BF7
:10AF5000FCD19DF80F3013F00203B6D1019841786F
:10AF60008278007884F8DC0CC1F12001C2F1100273
:10AF7000184684F8DD1C84F8DE2C15B0BDE8F08F8F
:10AF80000562D2B282F31188024853F0B5FFDBE7C5
:10AF90002B46C4E784440020809698005917B7D107
:10AFA000D6F8A0344048B0EB930F72D2B0EBD30F79
:10AFB00051D2B0EB131F52D2B0EB531F53D2B0EBB0
:10AFC000931F54D2B0EBD31F34BF8026402657E7DF
:10AFD000D6F8A0343549B1EB930F4ED2B1EBD30F75
:10AFE00039D2B1EB131F3AD2B1EB531F3BD2B1EBC5
:10AFF000931F3CD2B1EBD31F41D2B1EB132F34BF1F
:10B000004FF4807680263BE70020C4F87C0B9CE55B
:10B0100004ADC0B20D6280F31188254853F06CFF77
:10B0200052E60D62C0B280F31188214853F064FFEC
:10B0300095E60D62C0B280F31188484653F05CFF7C
:10B04000EAE691F8193C634481F8193C56E502227E
:10B05000A5E50422A3E5042612E708229FE50826B9
:10B060000EE710229BE510260AE7202297E520260E
:10B0700006E7402293E5802291E5022600E740267C
:10B08000FEE6D4F87C0B202140F06CFC4FF0FF3042
:10B09000C2E50E46F4E6C0F80090FFDEC3F800906B
:10B0A000FFDE034A1A60FFDE002D3101404B4C00E9
:10B0B0008444002010B58CB000234CF205020446F5
:10B0C00001A9CDE90633CDE90833ADF800208DF8AC
:10B0D000023003220B930123CDE903128DF81430C3
:10B0E0008DF82830CDF808D041F0F6FC204602A9B2
:10B0F00041F07EF9204641F0EFFC9DF806000CB0CF
:10B1000010BD00BF0848002302461178022902F151
:10B11000060204D00133062BF7D10020704703EB61
:10B12000430300EB43007047141800202DE9F0435F
:10B13000784D794F83B005F1F400242200215AF0B4
:10B14000F9FE97F8E14C0023C5F81831002C3CD1EA
:10B15000724ED6F8C03063B39B6A53B370489847B9
:10B16000836833B303886F4F013B9BB2BC463846BC
:10B1700000210678032E00F106001ED001310629B9
:10B18000F7D100223978022907F1060700F0A180E3
:10B190000132062AF6D1D5F81811052909D0481C24
:10B1A00002FB01C2C5F81801022000219380107033
:10B1B0005180204603B0BDE8F083062303FB015114
:10B1C000B1F8F630013B9BB2DBE797F8E00C07F6ED
:10B1D000E843C7F8E43C10B9504E0024B9E740F00A
:10B1E00013F9C7F8F00C18B1837913F0BF0FF3D13E
:10B1F00021464D4841F072FA04460028ECD0D7F8B9
:10B20000E43C474A9868C3F8942008B12023C380DF
:10B21000092140F0A7FBD7F8E43C404E986840F085
:10B220006DFD4248D7F8E48C41F08EFA4FF00109E9
:10B23000A8F804003220C6F8E08086F8E4903AF0DE
:10B24000F7F90423D7F8E40C4FF0000C0DEB0302E0
:10B250009F21CDF804C041F04FFB9DF805809DF87B
:10B2600004309DF806104FEA082848EA034848EAE7
:10B270000108414606F1C0004EF02AF800287FF48C
:10B2800068AF4046FDF78EFA034600287FF461AFB1
:10B290009DF806009DF805209DF80710000240EA81
:10B2A0000240234A0843904217D0C6E93233A6F839
:10B2B000C430A6F8D030FDF775FA804600287FF438
:10B2C00048AF97F8E00C40F09FF841F071F8444621
:10B2D0003FE7062101FB02C266E7164AC6F8C42012
:10B2E0004FF400334FF00062C6F8C8304023A6F890
:10B2F000D030C6F8CC2086F8D290FCF789FE06F153
:10B30000C00086F8D9904DF02FFF0B4BC6F8C03027
:10B310001FE700BF20170020103900201828002048
:10B32000D828002014180020F8450020404B4C007D
:10B3300021AAEF0000040008B4620608F0B40D680A
:10B3400000240CE0BCF1050F18D8A0F137030A2B3C
:10B3500014D104EB840415F8010B03EB4404A0F1B1
:10B360003003DEB2092EA0F16107A0F1410CF0D943
:10B37000052FE7D8A0F157030A2BEAD00D6014601F
:10B38000F0BC70472DE9F041C94BCA4ECA4DCB4CB9
:10B390000822C3F88820336B82B043F00103336383
:10B3A00007464FF4C052284640F2023388466946A9
:10B3B000CDE9002309F0D2FC6B6AC14ADFF848C32B
:10B3C00023F470436B626B6A43F420436B626B6AD5
:10B3D00023F470236B626B6A43F420236B62736CFB
:10B3E000B84D43F4804341F264317364736B44F8A5
:10B3F000018041F26C3143F08003675041F2683EB6
:10B40000B14973630227C4F8841DB04EB04BB149F3
:10B4100044F80E5084F8887D4FF0A045AE4FC4F834
:10B420008C5DC4F8906DC4F8983DC4F8D41D05F542
:10B43000326506F5A07603F51073A1F5D071C4F856
:10B440009C7DC4F8D85DC4F8A06DC4F8DC3DC4F898
:10B45000A41D012307F51077A5F5E465A6F5A06600
:10B46000A1F58C61C4F880CDC4F8E07DC4F8945D8A
:10B47000C4F84C6E84F88B3D05F5A075536106F554
:10B48000B076C4F8101E84F8923E1946934B944A45
:10B49000C4F8185EA7F5BC67A035C4F8246E914EB9
:10B4A000C4F8207EC4F8283E07F5D45703F5695345
:10B4B000C4F82C5E4FF050250020DFF850E2DFF892
:10B4C00050C2C4F8502EC4F8547E02F5A04207F5CD
:10B4D000A047C4F8586EC4F85C3E06F5A046A3F534
:10B4E0004853C4F8605E04F55865C4F8642EC4F887
:10B4F0006C6EC4F88C3EC4F814EEC4F81CCE024640
:10B50000C4F8687E2B4684F8940E402683F81C21EC
:10B51000A3F822210132042AC3E9496083F81D11EE
:10B5200083F81F01C3F8300103F12803EED1002294
:10B5300011462B46402083F87423A3F87A23013266
:10B54000042AC3E9DF0183F8751383F87713C3F87E
:10B55000881303F12803EED14FF0A04362489A68A4
:10B5600022F001029A60DA6842F04002DA6008F0E4
:10B5700019FC94F8893D0022212161F317420BB197
:10B5800042F4801294F8831DD4F88C3D01299A630B
:10B5900000F0E380DA68D4F88C6ED4F8900DC2F332
:10B5A000076121F0600141F0400161F31F62002159
:10B5B000DA603160026861F3CC22026094F88B2D6E
:10B5C000012A00F0B7801021484808F03DFF4748A5
:10B5D00008F020FFD4F8900D94F8813D00224FF040
:10B5E000FF31026142618161C26153B305F1140709
:10B5F0003F4E114607EB83074FEA830C4FF0FF0ED7
:10B6000056F8042F1368002BACBF00234FF0904373
:10B61000B74213601161C2F808E0F1D105F150039F
:10B62000344963440027FF2651F8042F1568002D84
:10B63000ACBF00254FF090459942156017619660A8
:10B64000F2D1036994F8831D43F4807301290361E7
:10B6500060D0D4F88C2D28480023936100294FF046
:10B66000FF336FF0804151615360516114BF00237B
:10B670001023906143F47013916943F4605343F0D5
:10B6800008030B43936141F268319368615843F0BA
:10B69000010393600B689847184B194ADA606846B3
:10B6A000184B0093FEF7A8FA02B0BDE8F08100BF86
:10B6B00000E100E0003802400000024010390020A4
:10B6C000003C01405C0400204000400100080050A4
:10B6D00000090050000B005020090050C005005028
:10B6E00000100050003000509C4600209046002082
:10B6F000A4460020E04600200008008000ED00E0A5
:10B700000005FA054302000108040100200500506D
:10B7100060050050D4F88C2D144B03636FF080410A
:10B72000134D00234FF0FF30936151615060516120
:10B7300095619FE701680F4A0F4E41F003010160D8
:10B74000802159629E62C3F80421E022C3F80821D7
:10B75000C0F24002C3F80C2135E79A6822F03E019E
:10B7600041F02A0161F307029A6013E703018100A7
:10B7700000080080A00040008000200010B5184C98
:10B7800094F87D0288B9174B83F85100586594F8F6
:10B790008032012B1FD0D4F8843203B312495B6886
:10B7A000BDE81040A1F10C0018473FF02DFE94F8C1
:10B7B0007F220C49003A18BF012281F851204865C8
:10B7C0000028E4D01F22C280202140F0CBF894F85A
:10B7D0008032012BDFD1054BC4F88432DEE710BD87
:10B7E000084A002020170020904C002078040020F8
:10B7F00099B10A6B824216D9154BD3F8C4229142F3
:10B8000021D34C3991421ED30B6B9842F9D38B6BE9
:10B810009842F6D80B46184670470D4BD3F8C41221
:10B820000A6B904212D30B680BB9F4E70A6B904293
:10B830000B4602D38A6B9042EDD951F84C3F002B56
:10B84000F4D1184670470023184670470A46D8E7D7
:10B85000084A00202DE9F047CC0143D10346224A93
:10B8600043F8082B4FF0FF324260022418467E2630
:10B87000DFF87880D8F8C8922644013E051D494675
:10B880006FF070474FF0010A08E0A3421CD0631C20
:10B8900045F8043C321B1C460435CAB10B6BA3426D
:10B8A00002D88B6BA34204D22046FFF7A1FF0146CA
:10B8B00090B10A794B6B002AE7D1A34204D0E6D2BB
:10B8C00045F8042C631CE5E745F8047C631CE1E7BC
:10B8D000C8F8C812BDE8F08745F804AC321B631CF9
:10B8E0004946D8E78026C3E7F8FFFF0F084A002043
:10B8F00070B4447941BB03684FF400524FF40076B2
:10B90000202502213CBB1A8C22F001021204120CE9
:10B910001A841A8B188C22F0F30280B2120420F0E1
:10B920000A00120C014342F0010241F001011A83A6
:10B9300019841A8B22F00C021204120C1A831A8B2F
:10B9400092B270BC1A8370470022036816461546EF
:10B950001146002CD7D0042C21D0082C38D0198CBB
:10B9600021F480510904090C19849C8B1D8C45F627
:10B97000FF7040F6FF4128402140024342F48052CC
:10B9800041F4807199831A849A8B22F440621204E4
:10B99000120C9A839A8B92B270BC9A8370471A8C5D
:10B9A00022F010021204120C1A84188B198C89B21E
:10B9B00040F6FF4221F0A00102400D4342F48072A4
:10B9C00045F010051A831D841A8B22F44062B3E7F8
:10B9D0001A8C22F480721204120C1A84998B1A8C1D
:10B9E00021F0F30192B2090422F42062090C3243DF
:10B9F00042F4807241F0010199831A849A8B22F0FB
:10BA00000C02C4E738B50E4D0446006809F0AAF8E8
:10BA1000D5F8A024204652084FF6FF7135F0F2FE0B
:10BA200020460021FFF764FF064BC5F80C3D05F6E4
:10BA30000C5120460022BDE8384035F0F1BD00BF72
:10BA40001828002079080208036870B55E6A26B1DC
:10BA500033460522BDE87040184704460D464E1D8A
:10BA600000E023689B68204698470028F9D02368A7
:10BA700015F8011B1B6820469847B542F1D170BDEF
:10BA80000A44914217D010B40139541E11F8013FF5
:10BA900008225840430010F0800F08BF400083F098
:10BAA000D50314BFD8B2C0B2013AF3D1A142EDD14F
:10BAB0005DF8044B704770472DE9F047164D074677
:10BAC000002095F9D59205F5377684B007EB01088B
:10BAD00005F27C5504464FF0B60A3368ABB193F8D3
:10BAE0003830142B11D019F1020F01D04B450CD175
