:020000040800F2
:10000000F0FF00101DFD0508610101089142040880
:10001000BDFD0508BDFD0508BDFD0508000000008B
:100020000000000000000000000000005D01010869
:10003000590101080000000055010108D9290408F0
:10004000BDFD0508BDFD0508BDFD0508BDFD050894
:10005000BDFD0508BDFD0508F96E0408C16E040864
:10006000896E0408516E0408196E040821C705083A
:1000700011C7050801C70508F1C60508DDC6050852
:10008000C9C60508B5C60508BDFD0508BDFD0508BE
:10009000BDFD0508BDFD0508BDFD0508E16D0408B1
:1000A0007D120408051304086D1204082D130408BA
:1000B000F5120408E5120408D5120408F5EA05084B
:1000C000FDEA0508E9EA0508F1EA0508BDFD0508AD
:1000D000BDFD0508D52D04081D2D0408652C040858
:1000E000A96D0408BDFD0508191A01085D12040870
:1000F0008D1204084D120408B5120408A1C60508A3
:10010000BDFD050895A30508C5120408BDFD050839
:10011000AD2B0408F52A0408BDFD0508BDFD050842
:100120008DC6050879C6050865C6050851C60508C7
:100130003DC60508BDFD0508BDFD0508BDFD05085A
:10014000BDFD0508BDFD0508BDFD0508E9FA00086F
:1001500029C6050815C6050801C605083D2A040874
:10016000DDEA0508E5EA0508BDFD0508BDFD050851
:10017000BDFD0508BDFD0508BDFD0508BDFD050863
:08018000BDFD0508BDFD0508E9
:08280000082800080040000850
:10800000F0B401292A4C2B4D23684FF0000694BF91
:1080100000270127EE626662A6626763676B47EA24
:1080200042076763EE63EC6B002A38D144F4957421
:10803000EC631C6824F001041C601C68E407FCD499
:10804000490289085960D8601968EAB921F04001ED
:10805000196019498B421DD018494FF47410C8603B
:10806000196841F01E011960596941F08001596198
:10807000196841F00101196022B90E4AD36A43F030
:108080000803D362F0BC704741F0400119600A490F
:108090008B42E1D14FF0746041F8500CE0E744F0BE
:1080A0001A04EC63EC6A44F00804EC62C1E700BF18
:1080B000C0130020002C01405864024000640240BC
:1080C000F0B5076887B001390026044689B2384602
:1080D00002911546ADF80C6001968DF80E6052F0D5
:1080E0008FFC3C4AA2FB00239B0C013B384601A9B4
:1080F000ADF804300DF09CFB237AADF808606022E7
:1081000001929A07CDE90466276866793AD5DB00C3
:1081100003F008030422ADF81230ADF8082001AADC
:1081200031463846039538F00DFF0C2E10D8DFE8A5
:1081300006F0360F0F0F3F0F0F0F480F0F0F0700FE
:10814000BB8B23F400631B041B0C43F40063BB8351
:1081500022682148B2F844306FEA43436FEA534340
:108160009BB2A2F84430138811469BB243F001033E
:1081700021F8343B6379C263CC1800228463CA506F
:1081800007B0F0BD5B0003F002030122ADF8103030
:108190004FF48073ADF80620ADF81430BFE73B8B89
:1081A00023F008031B041B0C43F008033B83CFE7B9
:1081B0003B8B23F400631B041B0C43F400633B83E1
:1081C000C6E7BB8B23F008031B041B0C43F008031A
:1081D000BB83BDE783DE1B43C013002070B4C3081C
:1081E0000D4CE25C00F00706B24004EBD004D2B2C2
:1081F0000020C6F108038B4228BF0B46C3F10805D7
:108200002A419840C91A40EA02004FF0000614F8CB
:10821000012FEED170BC704750140020084AD2E9FB
:10822000513199420AD0D118013391F84C110170A3
:10823000C3F30A03C2F8443101207047002070479D
:10824000C0130020044BD3E95130C01AC0F30A0018
:10825000C0F50060704700BFC0130020012380F804
:108260005130704707B501A8FFF7D8FF0028FAD0B2
:108270009DF8040003B05DF804FB034BD3E95130D3
:10828000C01AC0F30A007047C013002001207047D5
:10829000024BC3F84C29C3F850197047C013002093
:1082A000024BC3F85429C3F858197047C013002073
:1082B0007047704730B4114DD5E951239A1AC2F373
:1082C0000A020A44B2F5006F13D8A9B101444A1E4C
:1082D000013810F8014FE918824203F1010381F8D7
:1082E0004C41C3F30A03F4D1C5F84831002030BC37
:1082F0007047022030BC70470846F8E7C0130020E2
:10830000212838B50C4605D022282ED0202813D09D
:10831000002038BD0029FBD0072AF9D11A4BD3F829
:108320005C0993F8601993F8612993F86239206029
:1083300021716271A371EBE70029E9D0072AE7D127
:10834000114DD5F850391BB10968D5F84C0998473B
:10835000206821796279A379C5F85C0985F86019EC
:1083600085F8612985F86239D2E70029D0D0022A40
:10837000CED1054AD2F85839002BC9D00988D2F895
:1083800054099847C4E700BFC0130020024B0020E7
:10839000C3F86409704700BFC0130020044B0020DD
:1083A0000522C3F86429C3F85809C3F85009704777
:1083B000C0130020704700BF704700BF704700BF68
:1083C000704700BF704700BF704700BF704700BFD5
:1083D000042301480B8070478801002010B4074A2D
:1083E000074B92F86809122403F114020C8001284B
:1083F0000CBF184610465DF8044B7047C0130020B0
:108400008C01002000487047381400200048704755
:1084100038140020034B93F87400032894BF002005
:1084200001207047C0130020034B93F87400032809
:1084300094BF002001207047C0130020034B93F825
:108440007400003818BF0120704700BFC01300201F
:10845000A0B182680D4B12B107229A70704719784B
:10846000DA6003294FF004000CBF80214FF48071C3
:10847000C3E901111A611A7598707047034B41F2F4
:10848000E47101225A545A70704700BFF0800020F6
:108490000378022B10D0006908B9012070470C4BFB
:1084A0001B78032B0EBF0B4B80B24FF6F77398422D
:1084B00094BF0020012070470549436841F65002EF
:1084C0008A58B3EB422F2CBF01200020704700BF19
:1084D000F0800020F7FFFF0F0378022B14D030B498
:1084E000104A4368006941F6480402F5C251155923
:1084F000096841F63C042B4012595B0A023801FB23
:108500000030104430BC7047064B426841F63401DD
:1085100041F630005958185800EB410000EB52204A
:10852000704700BFF080002070B5144C94F86C398F
:10853000002BFBD1F9B101444E1E451E02E0012083
:108540003AF0AAF9D4F87039D4F874290133C3F396
:108550000A039342F3D0D4F87029D4F8703915F88F
:10856000011F22440133C3F30A03B54282F878198C
:10857000C4F87039E6D1002070BD00BFC0130020E0
:108580000A4B0846D3F8641910B569B1D3F86439B9
:10859000052B09D1064C002AD4F8803004DD1146A1
:1085A000FFF7C2FFD4F8803010BD00BFC013002019
:1085B000B824002010B590F85010002380F85030F7
:1085C00089B10C4CD4F864297AB1D4F86429052A0D
:1085D0000DD1094C3C30D4F88030FFF7A5FFD4F81A
:1085E0008030012010BD0120FCE71046FAE7184654
:1085F000F8E700BFC0130020B8240020002280F854
:108600005120D7E790F85020531C0244DBB280F889
:10861000503082F83C1090F851200AB1132B00D949
:10862000C8E770473F4B98422DE9F0410ED003F563
:108630006853083398424ED03B4B0020C3E93C00BE
:10864000A3F8EC00A3F8F800BDE8F081364C374FF2
:10865000DFF8E0800223C4F8843004F188060025A6
:10866000FB6AAB42294605F1010503D0D4F80801A5
:108670004EF06EFF94F80C31D4F8082186F82430BF
:108680003262304641464FF007F9D4F884309D42BB
:1086900006F13006E4DB002384F8FA30D4E9240341
:1086A000D4F88410B4F88C20B4F89850C4F8183179
:1086B00012FB01F203FB01F3A4F8EC20B4F88E10D6
:1086C0001B4AA4F8F850C4E93C03A4F8EE10C4F81F
:1086D000E8200120B8E7144C144F0223C4F884307A
:1086E00004F188060025FB6AAB42294605F1010525
:1086F00003D0D4F808014EF02BFF94F80C31D4F8D5
:10870000082186F82430326230464FF07DF8D4F8E4
:1087100084309D4206F13006E5DB012384F8FA300F
:10872000BCE700BF1971EF00B824002088010020C9
:10873000042906081940EF002DE9F04F284DDFF815
:10874000C8A0DFF8C8B006460FCD54462DED048B07
:108750000FC40FCD0FC49BF81E312A6822608DB064
:10876000022B9BF82421059600F07882032B00F061
:108770006E82002B00F07782DFED1A7AF0EE678AC6
:10878000002A1949194ACAF810201948194BCAF881
:1087900018000EBF002201220B46029238EEA77A83
:1087A000F5EE006AC6EE879A134A144E0192CAF893
:1087B000143002F123074FF000099FED118A9FED5D
:1087C000119A27EE888A059B4B4540F3BB81019B9C
:1087D00013F8014B0193002C00F0D58100231AE01F
:1087E000302906086F12033955000408590004089F
:1087F000FD200308E91C0308E125002028010010E2
:108800006F12833A00007A44F8000010B824002068
:10881000152B00F0B88103EB43024FEA4308B95C23
:10882000A14203F10103F3D15A4492F84D110029FA
:1088300000F02782204638F081FF0546284639F0AF
:108840009DF80178002940F09E81D84409F1010388
:1088500003930322DBB288F88D3188F88C21002D38
:1088600000F091814FEA141808F1FF38B8F1050FB4
:1088700004F00F0C00F2CB81CC4C04EB4801B1F8B2
:10888000500040FA0CF111F0010100F0C08101210B
:1088900001FA0CFC0CF1FF3C0CEA0000A04404932C
:1088A00057F084F898F85CC0DFF814E3049B604448
:1088B0000EEBC00C03228CF807308CF806205EF813
:1088C0003000C6F814C000F13F4303F57E0304EB0B
:1088D0009324012194F864306A7A03F01F045B0941
:1088E000032B01FA04F100F0AB81042B00F0A3810B
:1088F000022B00F09B81BCF80440B4FA84F3C3F16E
:108900001F03C3F3CC0100EB810103F00703D1F88F
:1089100020C09B004FF00F0E0EFA03FE2CEA0E0C47
:10892000C1F820C0D1F820C002FA03F343EA0C03D7
:1089300007AA0B62114602230492CDE907430DF00A
:10894000D3F9049A029B002B00F04081BBF81C3144
:1089500000EE103AB8EEC00AFCEEC07A17EE90EACC
:108960002C68934B9C4200F01881A3F580639C42D5
:1089700000F0138103F580439C4200F00E8103F563
:1089800080639C4200F0098103F580639C4200F003
:108990000481DBF8B8044108B1FBFEF303F57F4323
:1089A000FF334FEA134C029BB1FBFCFC002B00F0A1
:1089B0002481BCFBFEF1013989B207EE90CAB8EE02
:1089C000677A7B4B67EE086A9C4269EE667AC6ED71
:1089D000026AE7EE287AC6ED037A00F01181A3F56A
:1089E00080639C4200F00C8103F580439C4200F0C0
:1089F000118103F580639C4200F00C8103F58063D4
:108A00009C4200F0078123884008B0FBFCF001384D
:108A100080B29BB2B4F1804F0BD0DFF8A8C164459F
:108A200007D00CF5806C644503D00CF5806C644570
:108A300002D123F070039BB2DFF88CC1644500F0D3
:108A4000B0800CF5806C644500F0AB8023F440737B
:108A50000CF56C4C9BB264452380E162208540F0AC
:108A6000E080002323860120A0822B7A95F80580E0
:108A70000021CDE909114FF0600CADF820100B91E9
:108A80009907CDF81CC040F1AC80DB0003F008036F
:108A90000421ADF82A30ADF820104146204638F0C8
:108AA00051FAB8F10C0F10D8DFE808F0640F0F0F7F
:108AB0005B0F0F0F520F0F0F0700A38B23F4006300
:108AC0001B041B0C43F40063A3832B68B3F84420FE
:108AD0006FEA42426FEA524292B2A3F844201A88E7
:108AE000194692B242F0010221F8342B6879736082
:108AF0000C18002234600A50B9F1000F00F0A58074
:108B0000DAF834108B4200F0A780B9F1010F00F0C1
:108B10009C80DAF84C108B4200F09E80B9F1030F74
:108B200040F09380DAF86420D31A18BF0123DDF8EF
:108B30000C9033740122B9F1040F727406F1180617
:108B40007FF441AE1B480DB0BDEC048BBDE8F08F47
:108B5000A38B23F008031B041B0C43F00803A3831F
:108B6000B3E7238B23F400631B041B0C43F4006363
:108B70002383AAE7238B23F008031B041B0C43F079
:108B800008032383A1E70C4A0C4B0020CAE90532F5
:108B90000DB0BDEC048BBDE8F08FDBF8B8140846CF
:108BA000FAE62380E16220855DE700BF042906081C
:108BB00000040140F80000107D1E03085500040861
:108BC000702600200004004000100040B0EE690A4A
:108BD000049257F0FBF8FCEEC07A049A17EE90EA84
:108BE000BEE65B0003F002034FF48071ADF828305D
:108BF000ADF81E00ADF82C104FE74FF6FE71DCE625
:108C00002388B0FBFCF0013880B29BB211E77161A0
:108C100007AA97E62388B0FBFCF0013880B29BB22C
:108C2000F8E6194B9C423FF41CAF1CE7174B5C6CF9
:108C3000214359645FE6154B1C6B214319635AE6C7
:108C4000124B1C6C2143196455E601236FE7DFEDDD
:108C5000107ADFED108A93E5134668E7DFED0E7AB0
:108C6000F0EE678A8CE50D4BDFED0D7A0D4ACAF800
:108C7000103001230293CAF818200B4BF0EE678ADC
:108C80008CE50D46DAE500BF0004014000380240E3
:108C9000ACC5A737ACC5A736282930385900040819
:108CA0006F12833AFD20030855000408F8B5104EF2
:108CB000D6F8B844054600680F4664080CF018FF63
:108CC000B4FBF7F1B1F5803F03D3012CFAD9640866
:108CD000F6E72246284689B238F0B2FB054BC6F8C3
:108CE000203D28460449BDE8F840002238F026BB64
:108CF000B8240020B5DA0108D83100201C4B93F8C5
:108D0000D02193ED2A0A12B983EDE60A704793F851
:108D1000D22132B1052A0BD093ED890A83EDE60A00
:108D2000704783ED890A83ED8D0A83EDE60A70476B
:108D3000104AD3F8D401D2F88010D3F8E421D3ED4F
:108D4000895A091A07EE901A0132F8EEE76A07EE1F
:108D5000902AB8EEE77AF7EE007A86EE876A77EE29
:108D6000C67A67EEA57AE0EE067AB0EE670ACBE740
:108D7000F8000010B824002010B5044C04480A463E
:108D800021460BF039FD204610BD00BFE031002028
:108D900030B8060810B5044C04480A4621460BF0CA
:108DA0002BFD204610BD00BFE031002040B8060872
:108DB00010B5044C04480A4621460BF01DFD204620
:108DC00010BD00BFE03100204CB8060810B5044CBF
:108DD00004480A4621460BF00FFD204610BD00BF97
:108DE000E031002058B8060810B5044C04480A4683
:108DF00021460BF001FD204610BD00BFE0310020F0
:108E000064B8060810B50C4C94F84221002323677F
:108E100012B10A4AC2F8283E51F01CFB20B10423CB
:108E2000022084F8743010BD044BD3F880306366A0
:108E3000092384F8743010BDC0130020B82400202A
:108E400070B50D4D95F87430042B04460E460AD0CB
:108E5000082B06D1EB6E83420CD0FFF7D3FF02281C
:108E600001D0012070BD0823C5E91B4685F8743088
:108E7000022070BD022070BDC013002070B50379C0
:108E8000234C002B14BF0123002384F8A03003D10E
:108E9000002384F8743070BD1E4D002195F92F2EEB
:108EA00003203AF0C7F90028F2D0466830463AF07D
:108EB000AFF984F841010028EAD095F82D3E003B37
:108EC00018BF0123304684F8423152F063FA0BF0A8
:108ED00041FC38B994F8683084F87400013384F8A0
:108EE000683070BD51F0A0FB40B194F868300022AA
:108EF000013384F8683084F8742070BDD5F8803070
:108F00006366012384F8680084F8743070BD00BF84
:108F1000C0130020B824002010B551F085FB58B1D3
:108F20000C4C94F868300133DBB2072B84F86830BE
:108F300003D9002384F8743010BD0BF00BFC00281B
:108F4000F7D0054A0123D2F88020626684F8743095
:108F500010BD00BFC0130020B82400202DE9F0414F
:108F6000874C94F8A050002D00F0F78094F87420FE
:108F7000844E0227531E082B40D8DFE803F0363812
:108F80009E3F6950153F050051F064FA002840F0FB
:108F9000EB80636ED6F88020FA3393422BD2FFF732
:108FA000BBFF94F87420E5E751F054FA0028F0D0A4
:108FB000236F0022012B84F8682040F2D980E16EF3
:108FC00094F84201013B0131C4E91B1310B16D4B10
:108FD000C3F8282E082284F87420A2F10805B5FAF7
:108FE00085F56D092846BDE8F08184F8747051F06C
:108FF00031FA002843D194F87420531EDBB2022BBF
:109000000AD8604B616ED3F880305B1AC82BE4D964
:10901000FFF782FF94F87420042ADED1E2E7236B85
:10902000002BDAD1574BE66DD3F880306366072208
:1090300084F87420002ED0D0D4E91421236E0120AE
:10904000B047D8E7636ED6F8801064338B42C4D241
:10905000D4F82C80B8F1000FF4D151F0FBF90028BE
:109060009FD0E66D84F86880042384F87430002E65
:1090700078D0D4E91421236E4046B047BBE750F0C6
:109080008FFE0028B7D196F8313E002BA3F10203E2
:10909000B3FA83F314BF022201225B0984F869202A
:1090A00084F86A3050F07CFE00287FF478AF364AAE
:1090B0000323926CA26784F8743050F071FE00288C
:1090C00099D1304B206793F8646EB3F8660ED3F8ED
:1090D00068EED3F868CED3F8687ED3F8682E84F8AB
:1090E0007E6093F86C1EA4F87C0093F86D6E84F893
:1090F000822093F86D0ED3F8702EC4F88420B3F854
:10910000768EB3F8762E84F88310B3F8761EC2F309
:109110000B1343EA182303F00F0301F00F024FEA89
:109120001E6E4FEA1C4C3F0A360900F00F0003F593
:10913000FA63042184F8890084F87FE084F880C011
:1091400084F8817084F88860A4F88A3084F88C20D0
:1091500084F874102846BDE8F08184F874502846DD
:10916000BDE8F08105463DE7042384F8743039E713
:10917000FAD1FFF747FE94F87420531E3EE700BF74
:10918000C0130020B8240020F03200202DE9F8435D
:109190001A4C94F87460042E0546894690461F4682
:1091A00008D0082E02D00020BDE8F8830BF0F8F9B3
:1091B0000228F8D1D4F8B0003AF004FE94F86A30EE
:1091C0009BB9690211200BF059FAA0B90C4BC4F8F5
:1091D0005090D3F8802065650523C4E9178762663F
:1091E00084F874300120BDE8F883294611200BF083
:1091F00045FA0028EAD00BF089FAD4E7C013002022
:10920000B824002070B51E4C94F87430042B064628
:109210000D4608D0082B22D1E36E83422DD00BF0EF
:10922000BFF902281BD1D4F8B0003AF0CBFD0021E1
:1092300037200BF023FA294617200BF01FFAB0B99C
:1092400094F86A306BB9710219200BF017FA70B9F3
:109250000823C4E91B6584F87430022070BD012026
:1092600070BD314619200BF009FA0028F0D00BF040
:109270004DFA0BF081FA032070BD022070BD00BFD3
:10928000C01300202DE9F0412D4C054688461746B5
:109290001E4694F87400042836D0082806D1E36EE0
:1092A000AB4206D00BF07CF90228F2D00120BDE8D9
:1092B000F0814FF0FC0CD4F8A8202248117B224BFF
:1092C00080F890CEC3F8588051B1526942B194F8F9
:1092D0003021002A0CBF4FF480724FF4007201E07D
:1092E0004FF480721A66194919483EF06FF801224E
:1092F0000623C4E91485C4E9177684F8582084F855
:1093000074300020BDE8F081D4F8B0003AF05AFD86
:1093100094F86A305BB9690218200BF0AFF940B9D4
:1093200094F87430082BC4D04FF0FE0CC3E72946E4
:10933000F2E70BF0EBF90BF01FFA0320B7E700BFE1
:10934000C0130020B824002088010020B8010020AC
:109350006814002070B5214DD5F8603593F82620AB
:10936000DAB11B699847E0B1D5F8603593F824204D
:109370008AB105F2645600241A19E0B29B6992F88A
:109380002C10B6EC010A9847D5F8603593F82420E4
:1093900001349442F0DB5B69984795F87435332BC0
:1093A00000D070BD95F87835002BFAD0D5F860352F
:1093B00093F82430042B1E46A8BF0426002BF0D0BF
:1093C0000024074D2346184651F05CFE0134E3B2F9
:1093D0009E4245F8040BF6D870BD00BFF80000109F
:1093E000740600102DE9F04FC74C94F8911E83B01D
:1093F0000546C1F34001D4F8980E3AF0EFFC94F81A
:10940000911ED4F8940EC94301F001016F1E3AF089
:10941000E5FCFBB20193002D00F0E580DFF8F4825B
:10942000BA4EBB4DD4F8983E33B11A689B88516947
:109430000B4214BF53831383D4F8943E33B11A689C
:109440009B8851690B4214BF53831383B4F8A03E29
:10945000002B40F0618194F8A21ED4F8A40E3AF0DB
:10946000BDFCFA204FF0100C4FF47A714FF0010E52
:109470007368C3F30803002B40F01981EFF31183E5
:10948000002B40F01481D4F88020D5F80890D4F84F
:1094900080309A42F7D1D4F8B03E9945F3D8D4F849
:1094A000AC7E01FB07F3A3EB0903B3FBF7F301FB6E
:1094B00002327368C3F30803002B40F0B680EFF369
:1094C0001183002B40F0B180D4F88030D5F808B07B
:1094D000D4F88070BB42F7D1D4F8B07EBB45F3D846
:1094E000D4F8AC7E01FB07F9A9EB0B09B9FBF7F93E
:1094F00001FB03939B1AB3F57A7FDAD30138B7D116
:10950000D4F8983E33B11A689B8851690B4214BF56
:1095100053831383D4F8943E33B11A689B885169FE
:109520000B4214BF53831383B4F8A03E002B40F0CA
:10953000DF8094F8A21ED4F8A40E81F001013AF065
:109540004DFCFA204FF0100C4FF47A714FF0010EE1
:109550007368C3F30803002B40F08880EFF3118396
:10956000002B40F08380D4F88020D5F80890D4F800
:1095700080309A42F7D1D4F8B03E9945F3D8D4F868
:10958000ACAE01FB0AF3A3EB0903B3FBFAF301FB57
:1095900002327368C3F3080343BBEFF311832BBBA1
:1095A000D4F88030D5F808B0D4F88070BB42F7D139
:1095B000D4F8B07EBB45F3D8D4F8ACAE01FB0AF9C1
:1095C000A9EB0B09B9FBFAF901FB03939B1AB3F55D
:1095D0007A7FDED30138BBD1019B5F1EFBB2FF2B2C
:1095E00001937FF41FAF03B0BDE8F08FEFF3118A52
:1095F0008CF31288AF682B68DB0344BFC4F8A8EE75
:10960000AF68D4F88030D4F8A89E5FFA8AFA8AF35B
:109610001188D4F8ACAE4B4401FB0AF9A9EB070959
:10962000B9FBFAF901FB0393D0E7EFF3118A8CF34E
:109630001288D5F808B02B68DF0344BFC4F8A8EE41
:10964000D5F808B0D4F88030D4F8A89E5FFA8AFA2A
:109650008AF31188D4F8AC7E4B4401FB07F9A9EBDF
:109660000B09B9FBF7F901FB039343E7EFF311890A
:109670008CF31288D5F808A02B68DA0344BFC4F82D
:10968000A8EED5F808A0D4F88030D4F8A82E5FFA58
:1096900089F989F31188D4F8AC9E1A4401FB09F3C7
:1096A000A3EB0A03B3FBF9F301FB023271E7EFF31B
:1096B00011898CF31288D5F808A02B68DB0344BF0E
:1096C000C4F8A8EED5F808A0D4F88030D4F8A82EB5
:1096D0005FFA89F989F31188D4F8AC7E1A4401FB4A
:1096E00007F3A3EB0A03B3FBF7F301FB0232E0E657
:1096F000D8F84C30002B3FF424AFD8F838200023A2
:10970000136088F849301CE7B824002000ED00E021
:1097100010E000E0C0130020D8F84C30002B3FF4DC
:10972000A0AE39F079F99CE62DE9F04FC94CDFF88D
:10973000308394F8911ED4F8980EC74FC74D83B06C
:10974000C1F340013AF04AFB94F8911ED4F8940E0C
:10975000C94301F001013AF041FB05230193D4F81C
:10976000983E33B11A689B8851690B4214BF5383EA
:109770001383D4F8943E33B11A689B8851690B4225
:1097800014BF53831383B4F8A03E002B40F05981DB
:1097900094F8A21ED4F8A40E3AF020FB32204FF029
:1097A000100C4FF47A7101267B68C3F30803002B79
:1097B00040F01A81EFF31183002B40F01581D4F8AB
:1097C0008020D5F80890D4F880309A42F7D1D4F8A8
:1097D000B03E9945F3D8D4F8ACAE01FB0AF3A3EB45
:1097E0000903B3FBFAF301FB02327B68C3F30803FE
:1097F000002B40F0B780EFF31183002B40F0B280D4
:10980000D4F88030D5F808B0D4F880904B45F7D123
:10981000D4F8B09ECB45F3D8D4F8ACAE01FB0AF92E
:10982000A9EB0B09B9FBFAF901FB03939B1AB3F5FA
:109830007A7FDAD30138B7D1D4F8983E33B11A68B9
:109840009B8851690B4214BF53831383D4F8943E11
:1098500033B11A689B8851690B4214BF5383138339
:10986000B4F8A03E002B40F0E08094F8A21ED4F89B
:10987000A40E81F001013AF0B1FA32204FF0100C41
:109880004FF47A7101267B68C3F30803002B40F084
:109890008A80EFF31183002B40F08580D4F880207C
:1098A000D5F80890D4F880309A42F7D1D4F8B03E79
:1098B0009945F3D8D4F8ACAE01FB0AF3A3EB090346
:1098C000B3FBFAF301FB02327B68C3F3080343BB2B
:1098D000EFF311832BBBD4F88030D5F808B0D4F85F
:1098E00080904B45F7D1D4F8B09ECB45F3D8D4F84F
:1098F000ACAE01FB0AF9A9EB0B09B9FBFAF901FBC4
:1099000003939B1AB3F57A7FDED30138BBD1019B59
:109910005E1E16F0FF0301937FF421AF03B0BDE894
:10992000F08FEFF3118A8CF31288D5F808B02B680A
:10993000DB0344BFC4F8A86ED5F808B0D4F8803073
:10994000D4F8A89E5FFA8AFA8AF31188D4F8ACAEEC
:109950004B4401FB0AF9A9EB0B09B9FBFAF901FB2E
:109960000393CEE7EFF3118A8CF31288D5F808B091
:109970002B68DB0344BFC4F8A86ED5F808B0D4F850
:109980008030D4F8A89E5FFA8AFA8AF31188D4F856
:10999000ACAE4B4401FB0AF9A9EB0B09B9FBFAF990
:1099A00001FB039342E7EFF311898CF31288D5F89A
:1099B00008A02B68DA0344BFC4F8A86ED5F808A045
:1099C000D4F88030D4F8A82E5FFA89F989F3118889
:1099D000D4F8AC9E1A4401FB09F3A3EB0A03B3FBD2
:1099E000F9F301FB02326FE7EFF311898CF3128870
:1099F000D5F808A02B68DA0344BFC4F8A86ED5F8E0
:109A000008A0D4F88030D4F8A82E5FFA89F989F339
:109A10001188D4F8AC9E1A4401FB09F3A3EB0A03A6
:109A2000B3FBF9F301FB0232DFE6D8F84C30002B30
:109A30003FF423AFD8F838200023136088F849306A
:109A40001BE7D8F84C30002B3FF4A8AE38F0E4FF09
:109A5000A4E600BFB824002000ED00E010E000E024
:109A6000C01300200E4B30B4DB68427801780D4CF7
:109A7000DB43C3F30223C3F10403DBB202FA03F3B3
:109A800060181B0101F01F050122490903F0F003D2
:109A9000AA4080F8003344F8212030BC704700BF52
:109AA00000ED00E000E100E010B5854A0368934254
:109AB00082B000F0C580A2F58062934200F0C080C1
:109AC00002F58042934200F08D8002F5806293425D
:109AD00000F0888002F58062934200F0838079482C
:109AE0001A88D0F8B8044008B0FBF1F1013989B206
:109AF00092B2B3F1804F0AD07348834207D000F589
:109B00008060834203D000F58060834202D122F05E
:109B1000700292B26D48834200F09C8000F5806034
:109B2000834200F0A38022F4407200F56C4092B2B0
:109B30004FF6FF7483421A80DC62198540F09C80E6
:109B400000221A8601229A821A88614992B242F052
:109B500001028B421A8000F09B80B3F1804F00F02D
:109B60009980594A934200F0978002F580629342AF
:109B700000F0948002F58062934200F0918002F53B
:109B80008062934200F08E8002F58062934200F082
:109B90008B8002F57042934200F0888002F570528B
:109BA000934200F0858002F58062934200F082804B
:109BB00002F5806293427FD0A2F5983293427DD025
:109BC00002F58062934217D002F58062934208BF8B
:109BD0000D2212D04FF0012301A80193FFF742FF9D
:109BE00002B010BD37481A88D0F8B804B0FBF1F1C4
:109BF000013989B292B27CE70C22364B03EBC203E7
:109C000001A893F871408DF8044001224FF480734D
:109C10008DF80520ADF80630FFF724FF1B2C06D188
:109C20002D4B019301A8FFF71DFF02B010BD2E2C94
:109C3000D6D12A4B019301A8FFF714FF02B010BD43
:109C400020481A88D0F8B804B0FBF1F1013989B284
:109C500092B25CE701204FF6FF741A80DC6219852E
:109C600098821A8892B202431A807AE74FF6FF7000
:109C70001A80D862198565E7114A93423FF460AFB4
:109C800001229A821A8892B242F001021A8064E795
:109C90000022B2E70122B0E70222AEE70322ACE7DE
:109CA0000422AAE70522A8E70622A6E70722A4E7DE
:109CB0000822A2E70922A0E70A229EE70B229CE7DE
:109CC00000040140B82400200004004000100040BF
:109CD0000000014004290608190100012C010001BF
:109CE00000F01F0240090123032803FA02F304D005
:109CF00004280CD0022805D07047074A116C0B438A
:109D000013647047044A516C0B4353647047024A12
:109D1000116B0B43136370470038024000285FD07B
:109D20000368374A2DE9F04103F13F4404F57E040E
:109D300002EB9422012492F8642002F01F055209DC
:109D4000032A04FA05F456D0042A4FD0022A48D038
:109D50008588B5FA85F0C0F11F00C0F3CC0603EB8F
:109D6000860600F0070082000F24306A944020EA43
:109D700004003062306A01FA02F2024300213262CA
:109D80004FF0010E0A464FF0030C02270EFA02F8BC
:109D900038EA050002F101021CD118680CFA01F43E
:109DA00020EA04001860186807FA01F606431E60EE
:109DB0009E6826EA04069E6098689860586820EAC3
:109DC0000800586058685860D86820EA0400D860D5
:109DD000D868D860102A01F10201D7D1BDE8F0811E
:109DE0007047084A556C2C435464B1E7054A156B1B
:109DF0002C431463ACE7034A156C2C431464A7E7A7
:109E00000429060800380240002877D0F0B583887E
:109E1000B3FA83F3202B83B00446C3F11F0258D05A
:109E2000374D384E15444FF0004006EB820230FAB1
:109E300003F395F8DC50C2F8B41E05D0324A11681D
:109E400021EA0301116053612046002137F0BAFF77
:109E5000A38822682C49B3FA83F7C7F11F0404F0E2
:109E6000FC0000F1804000F59C3004F00304A400E5
:109E700002F13F434FF00F0C82680CFA04FC22EA17
:109E80000C02826003F57E038268C3F38723A3403C
:109E9000134383600A681D484FF00043FB4022EAE9
:109EA00003020A604A6822EA03024A600A681A4307
:109EB0000A608A6822EA03028A60CA6822EA030208
:109EC000CA6002682E441343036096F8F43EF02BF8
:109ED00001D803B0F0BD0E4B5B5D8DF80430F0216E
:109EE00003224FF4807301A886F8F41E8DF8052034
:109EF000ADF80630FFF7B6FD03B0F0BD704700BF08
:109F000004290608B8240020003C0140083C014018
:109F1000E8B80608034BD3F8A820136A002BFCD13D
:109F2000704700BFC0130020B0B10C49D1F8FC3E0F
:109F3000102B03D10521002038F0E4B803EB4302D5
:109F40000A4482F8000F202082F8010F0120034408
:109F500082F8020FC1F8FC3E704700BFB824002011
:109F60002DE9F04F2DED028BAA4C95B01E2204F581
:109F70007360002158F01AFB94F8503F1BB194F81D
:109F8000513F84F8303F94F8523F1BB194F8533F4F
:109F900084F8353F94F8543F1BB194F8553F84F84A
:109FA0003A3F94F8563F1BB194F8573F84F83F3F2F
:109FB00094F8583F1BB194F8593F84F8443F94F803
:109FC0005A3F1BB194F85B3F84F8493F94F8623FD5
:109FD0000393013B5FB2DBB202937B1C00F0B080C5
:109FE0008D4B8E4E53F83720019203EBC7034FF091
:109FF000000A1B7908EE103AB146D046D34699F8CC
:10A0000000503946284645B33DF0CCFF034628466C
:10A010001D4613B339F002FC0BF107031321DBB229
:10A0200020B14FF0000C837180F807C037F0CAFEF2
:10A0300099F800003DF0ECFF08F1010389F8028077
:10A040005FFA83F84FF0070389F804304FF00103FB
:10A0500089F80100AA4689F803300BF1010BBBF126
:10A06000060F09F10509CAD118EE100AFFF738FEEC
:10A070006B4A6C4B51680B4043F44033536017B943
:10A08000BAF1000F0BD1684D4820FFF729FE284692
:10A09000022154F045FDAB6843F00103AB60604919
:10A0A000614B4A68B4F85C0F42F400024A605A6897
:10A0B00022F480525A609A6B22F4401242F48012C9
:10A0C0009A63DA6842F46002DA609D6B85F44012AC
:10A0D000C2F3015202EB82021F2101FA02FC25EABF
:10A0E0000C054FF0110C0CFA02F22A439A63DA685D
:10A0F00042F4E012DA609D6BC5F30152C2F1040232
:10A10000D2B202EB820291404FF0100C25EA010519
:10A110000CFA02F22A439A63E8B1B4F85E2FC4F84D
:10A12000680FAAB1B4F8603FC4F86C2F6BB13F4917
:10A130009B1A91FBF3F3C4F8703FBAF1000F0DD1F5
:10A1400015B0BDEC028BBDE8F08F394B1B88EEE7F4
:10A15000384B1A88E6E7384B1888DEE7019D414600
:10A16000284654F0DDFC06F11E0E012117E0EB68D5
:10A1700023EA0B031A43EA604B1E03EB83031F22FF
:10A18000062902FA03F90CFA03F329D86A6B22EACA
:10A190000902134301466B63053676454ED0F378CA
:10A1A000481CC0B2002BF7D096F801C03379ACF14F
:10A1B0000A0202EB42024FF0070A0CEB4C09BCF119
:10A1C000090F0AFA02FB03FA02F20AFA09FACED8D8
:10A1D0002A6903FA09F322EA0A0213432B61CBE747
:10A1E000CA1FA1F10D0302EB82024FF01F0A03EB1D
:10A1F00083030C290AFA02F90AFA03F10CFA02F2B3
:10A2000000F284802B6B23EA09031A4301462A6378
:10A21000C2E700BFB8240020F0290608E833002078
:10A2200000230140E030FCFF0020014080380100A5
:10A230002E7AFF1F2C7AFF1F2A7AFF1F019A02999C
:10A24000936843F400739360936843F4807393605E
:10A2500093683C4443F0010393601746022094F94D
:10A26000632F38F0E7FF044600283FF469AF4668E3
:10A27000304638F0CDFF2A4A431E242101FB032338
:10A2800093F89C50002D7FF45BAF039983F89D10E9
:10A29000062283F89C2000283FF452AF304638F065
:10A2A000B7FF50F0A3FF60680BF07CFB05A80BF034
:10A2B0003BFBB8F1010F8CBF4FF480630023A26811
:10A2C0000B933B46174801974C3305924FF40067B8
:10A2D0004FF48072069307904FF4003360680A953C
:10A2E00005A94FF40056CDE90E23CDE90C76CDE952
:10A2F00008580BF02BFB6268019F136843F00103C1
:10A300001360BB6843F08043BB6019E7EA6A0CFA4C
:10A3100003F322EA010213430146EB623CE700BF6C
:10A32000880100202C3400202DE9F84F2E4F00EB3F
:10A33000800407EBC404D4F8846F2EB1054694F86A
:10A34000990F00F0FF0820B14FF000084046BDE82B
:10A35000F88F89469A46934638F072FA4FEA4901D7
:10A360000123C9B284F89A1F84F89BBF84F89D3FEB
:10A3700084F89E8F84F89C3F84F8993F84F8988FE6
:10A38000B288C4F8A0AF91058146C4F8A4AF1DD42B
:10A390003388DA0510D442F20F7405E038F050FA31
:10A3A000A0EB0903A34215DC33889B05F6D4338860
:10A3B0009BB243F480733380B3889BB243F4407301
:10A3C0004FF00108B3804046BDE8F88F98464046FC
:10A3D000BDE8F88FB7F8F83F01339BB22846A7F8DD
:10A3E000F83F53F0C5FFB1E7B82400200128B5EECF
:10A3F000C00A10D0F1EE10FA0BDD9FED177ADFEDF9
:10A40000177AE0EE077AFCEEE77A17EE903A98B208
:10A41000704700207047F1EE10FA0BDD9FED107AC7
:10A42000DFED107AE0EE077AFCEEE77A17EE903A6D
:10A4300098B27047EDD5F7EE007A30EE270A9FED1F
:10A440000A7ADFED0A7AE0EE077AFCEEE77A17EE99
:10A45000903A98B2704700BF00E0F94400004042D3
:10A4600000C079440000834400C079C400E0824405
:10A47000F8B5454E96F8FA4F04EB840306EB8303D8
:10A48000A50093F8FC2F032A6ED8DFE802F05827C6
:10A490001E0225443D4AAD005059002870D13C4B66
:10A4A00013F8AC3C9C425FD0013404F003018B42B2
:10A4B00086F8FA1F58D001EB810406EB84030221D1
:10A4C00042F8240083F8FC1FF8BD2B192F499B008C
:10A4D000CA586AB1013ACA500020F8BD2B192B495D
:10A4E0009B00CA58002AF5D13344022283F8FC2F7E
:10A4F000254401EB8502AD00137A013BDBB21372F8
:10A50000A3BB234B234A13F8AC7CD2F8C0227319A7
:10A5100041F204000134185804F00304032683F8C0
:10A52000FC6FBC4202F1FF330344B3FBF2F048512D
:10A530001AD09A4218D8013848510120F8BD3DF090
:10A540001BFC88B1134B1149D3F8C0222C4406EBF5
:10A550008403012583F8FC5F02F51C530F33B3FB22
:10A56000F2F341F82430F8BD0120F8BD094BD3F8CF
:10A57000C022012002F2E733B3FBF2F34B51F8BDE6
:10A58000013850510020F8BDB8240020B834002014
:10A59000B0350020880100202DE9F84F3249DFF85E
:10A5A000D4B091F8311E01240229074619461046FD
:10A5B000CBF82C404FF000022C4C1D4618BF7F02F8
:10A5C000FDF71EFD2A4B63626B02A362E36A40F251
:10A5D000FF5943F093034FF400704FF48A62E36233
:10A5E0000121C4F83890A0601020E2604FF024FDF3
:10A5F000012D40F251434E46C4F83890CA4640F20D
:10A6000052488EBF4FF0120998464FF011090A25A3
:10A61000C4F838A00121A7604846C4F80C804FF068
:10A620000BFD03464FF0000C40F27742012137202A
:10A63000A6632BB900231846CBF82830BDE8F88F65
:10A64000A663C4F808C0E2604FF0F6FC013DA663C3
:10A650000028EFD015F0FF05DAD10346CBF82C50D7
:10A66000CBF82830BDE8F88FB8240020002C01403A
:10A6700000E1F505C01300202DE9F843DFF87480F0
:10A6800098F87450042D0446894617461E4608D093
:10A69000082D02D00020BDE8F883FEF7B3FB0228A6
:10A6A000F8D101234A4620460021FFF775FF68B123
:10A6B000FEF732FCD8F85C40002CEBD00022D8F832
:10A6C0006030D8F854101046A047E3E7084BC8F8AC
:10A6D0005090D3F88020C8F854400523C8E9177675
:10A6E000C8F8642088F874300120BDE8F88300BF02
:10A6F000B8240020C01300202DE9F84F2F49DFF8BF
:10A70000C49091F8311E1E4602292D4B07464FF08A
:10A71000010418BF4702012E40F259481C6398BF3C
:10A720004FF48B683B469346474640F2FF55B04690
:10A730008CBF4FF0190A4FF0180A0A241E4640F247
:10A74000FF53C9F838300121C9F808605046C9F8EC
:10A750000C704FF071FC03464FF0000C40F2774252
:10A7600001213720C9F83850A3B958464146012283
:10A77000FDF746FC4646134A134B53627602966237
:10A78000D36A43F09103D3620D4B002108469962CE
:10A79000BDE8F88FC9F83850C9F808C0C9F80C20CE
:10A7A0004FF04AFC013CC9F838500028DDD014F0C5
:10A7B000FF04C4D1024B1C63BDE8F88FB82400200D
:10A7C000C0130020002C014000E1F5052DE9F04701
:10A7D000364C82B005460E461746984694F87400EB
:10A7E00004280CD0082806D1E36EAB4207D0FEF750
:10A7F00009FB0228F2D0012002B0BDE8F087DFF8A3
:10A80000B4A02665DAF8289E6565C9F34F210F29A3
:10A810004FEA592222D8236F0193FBB194F84201E9
:10A82000E0B1B9F5005F13D0214831464FF4007212
:10A83000484456F061FF09F50072C2F34F21102918
:10A84000CAF8282E4FEA522202D0019B012B21D1B7
:10A8500092B2013A164EAD1A0B4600E00123324681
:10A860002846062601250021E765C4F8608084F8A3
:10A87000585084F87460FFF73FFF0028BCD0FEF703
:10A880004BFBE66D86B12846236E616D0022B04712
:10A890000320B1E7E26E013B01320421C4E91B232E
:10A8A00084F874100220A7E70320A5E7C013002056
:10A8B000F0500020B824002003681A78012A01D043
:10A8C0000020704793F90430044A03EB830302EB42
:10A8D000C30393F8990FC0B2704700BFB82400209B
:10A8E00010B50C4C54F8A83C1B78022B10D154F82E
:10A8F000A00C39F06DFA54F8A00C08B12323C380E2
:10A90000012137F05FFA04483CF014FF24F8A40C4E
:10A9100010BD00BFB03500208096980030B583B0E0
:10A920000D46012301460DF10702044607483DF09C
:10A9300053F99DF8072035EA020304D003482A435F
:10A9400021463DF0DFF903B030BD00BF08350020DF
:10A9500038B505460A460C46064829463DF016F825
:10A9600045F0800103483CF00FFF231A584258413C
:10A9700038BD00BF08350020F0B53B4C54F8A85C4A
:10A980002B78022B95B018D0012B02D0002015B0E7
:10A99000F0BD95F904506B1CF8D0022DF6DC009147
:10A9A000134614F8A41C0246284653F083FE0028E0
:10A9B000ECD0284653F02EFFE9E72B6A002BE5D1B7
:10A9C0000DF10F0C8DF80F00002601200027CDE9B6
:10A9D0000833CDE90A12CDE90E6705938DF81C30D6
:10A9E0000D9310931293CDF810C006908DF830009F
:10A9F0008DF84400EFF31180102383F3128854F88C
:10AA0000A83C1B6A13B3069B04AE32461BB1D36944
:10AA10001432002BFBD12B6A13B3996839B99342D6
:10AA20000AD0196829B15B6899680029F7D01433F6
:10AA3000F3E70E4AC3E90026C0B280F3118854F848
:10AA4000A82C136A002BFCD10120A0E704ABC0B2F4
:10AA50002B6280F31188A4F1A80051F01BFFEEE7F0
:10AA6000024A1A60FFDE00BFB03500200835002022
:10AA700070B503681D78022D13D0012D01D0002080
:10AA800070BD044693F904000A4B421C83F824501D
:10AA9000F5D00228F3DC0A4624332179BDE8704062
:10AAA00042E41B6A002BEAD101223CF06FFF012037
:10AAB00070BD00BFB035002013B5354C0023626B6C
:10AAC0008DF80730137803F0FD01012905D194F8C2
:10AAD000381011B90C2184F83810022B1CD0032B2C
:10AAE00029D001220B212B484DF0ACFB042037F07C
:10AAF000D3FE284801230DF1070200214DF0C4FBCD
:10AB0000002832D09DF80730482B2ED1224BA3626B
:10AB1000224BE36202B010BDE06B39F059F9E06BF3
:10AB200008B13623C380012137F04CF91C483CF0B2
:10AB300001FE2087D5E7D4F8E434506846F2A81126
:10AB40001961002380F88830122237214DF04EFB26
:10AB5000636B0D22586824214DF048FB636B302253
:10AB600058686A214DF042FBBBE7636B1A78022AF2
:10AB700003D0032A06D00020CCE7E06B3CF006FCB3
:10AB80000020C7E75868102237214DF02FFBF2E76D
:10AB9000B0350020E4350020E78205086983050808
:10ABA0008096980010B58CB000234CF20502044644
:10ABB00001A9CDE90633CDE90833ADF800208DF8C1
:10ABC000023003220B930123CDE903128DF81430D8
:10ABD0008DF82830CDF808D03CF074FF204602A94B
:10ABE0003CF0F4FB20463CF06DFF9DF806000CB0F5
:10ABF00010BD00BF0848002302461178022902F167
:10AC0000060204D00133062BF7D10020704703EB76
:10AC1000430300EB43007047143D00202DE9F04151
:10AC2000674C82B0242204F26470002157F0BEFC0D
:10AC300094F88D770023C4F88837002F3CD1614EFB
:10AC4000D6F8E83063B39B6A53B35F48984783688C
:10AC500033B303885D48013B9BB28446064600251A
:10AC60003178032906F106061ED00135062DF7D1ED
:10AC700000220178022900F1060000F094800132E0
:10AC8000062AF6D1D4F88817052909D0481C02FBFA
:10AC900001C2C4F8880702200021938010705180FF
:10ACA000384602B0BDE8F081062303FB0545B5F840
:10ACB0006637013B9BB2DBE794F88C0704F2947390
:10ACC000C4F8903710B93F4E0027B9E738F0A6FD19
:10ACD000C4F89C0718B183790BB1422BF3D13C48DF
:10ACE00039463CF0E9FC80460028ECD0D4F8903797
:10ACF000354A9868C3F8942008B12223C3800921FB
:10AD000037F060F8D4F890372E4E986839F060F834
:10AD10003048D4F890573CF00DFD0123A880322034
:10AD2000C6F8085186F80C3137F0B6FD0423D4F884
:10AD3000900700250DEB03029F2101953CF0D2FD09
:10AD40009DF805509DF804309DF806102D0245EA47
:10AD500003450D43294606F1E8004CF09DFD60BB1C
:10AD60002846FDF75FFC40BB9DF806509DF8053076
:10AD70009DF807202D0245EA0345174B15439D42D8
:10AD800015D0C6E93C00A6F8EC00A6F8F800284665
:10AD9000FDF748FC074680B994F88C0738F03EFD73
:10ADA0003CF0F4FA4CE7062101FB02C273E706F11E
:10ADB000E8004CF029FD0028E9D0474640E700BFF5
:10ADC000B0350020B8240020A0250020143D00202C
:10ADD000443D0020404B4C0021AAEF00F0B40D6828
:10ADE00000240CE0BCF1050F18D8A0F137030A2BA2
:10ADF00014D104EB840415F8010B03EB4404A0F117
:10AE00003003DEB2092EA0F16107A0F1410CF0D9A8
:10AE1000052FE7D8A0F157030A2BEAD00D60146084
:10AE2000F0BC70472DE9F041C54BC64EC64DC74C2E
:10AE30000822C3F88820336B82B043F001033363E8
:10AE400007464FF4C052284640F20233884669460E
:10AE5000CDE900230AF048FF6B6AC4F8108E23F492
:10AE600070436B626B6AC4F8187E43F420436B62D4
:10AE70006B6AB749C4F8141E23F470236B626B6AC3
:10AE8000B448C4F82C0843F420236B62736CB249B5
:10AE9000C4F8301843F480437364736BAF48B0490F
:10AEA000C4F83C0843F0800302257363AD4F84F877
:10AEB0003458AD4EAD4DC4F880184FF0A043C4F8DF
:10AEC0003838AB4AC4F8487803F53463A1F5D0713B
:10AED000C4F88458C4F84C68C4F88838C4F85018CA
:10AEE0000123DFF8BCC2C4F844C807F51077A5F504
:10AEF000E465A6F5A066A1F58C61C4F88C78C4F869
:10AF00004058C4F8F86884F8373805F5A0755361DF
:10AF100006F5B076C4F8BC1884F83E391946954B4E
:10AF2000954AC4F8C458A7F5BC67A035C4F8D068E2
:10AF3000924EC4F8CC78C4F8D43807F5D45703F54A
:10AF40006953C4F8D8584FF050250020DFF854E278
:10AF5000C4F8FC28ACF5687C02F5A042C4F800797E
:10AF6000C4F8046907F5A04706F5A046C4F80839F7
:10AF7000C4F80C59A3F5485304F62C05C4F810295D
:10AF8000C4F81869C4F83839C4F8C0E8C4F8C8C8A7
:10AF90000246C4F814792B4684F84009402683F809
:10AFA0001C21A3F822210132042AC3E9496083F855
:10AFB0001D1183F81F01C3F8300103F12803EED1FE
:10AFC000002211462B46402083F87423A3F87A23ED
:10AFD0000132042AC3E9DF0183F8751383F877137C
:10AFE000C3F8881303F12803EED14FF0A04364485F
:10AFF0009A6822F001029A60DA6842F04002DA6050
:10B0000009F030FF94F835380022212161F317420E
:10B010000BB142F4801294F82F18D4F83838012973
:10B020009A6300F0E480DA68D4F83869D4F83C0810
:10B03000C2F3076121F0600141F0400161F31F623A
:10B040000021DA603160026861F3CC22026094F87A
:10B050003728012A00F0B88010214A480AF054FA33
:10B0600048480AF037FAD4F83C0894F82D38002202
:10B070004FF0FF31026142618161C26153B305F15A
:10B080001407414E114607EB83074FEA830C4FF03C
:10B09000FF0E56F8042F1368002BACBF00234FF0AF
:10B0A0009043B74213601161C2F808E0F1D105F195
:10B0B0005003364963440027FF2651F8042F1568D2
:10B0C000002DACBF00254FF09045994215601761E7
:10B0D0009660F2D1036994F82F1843F48073012924
:10B0E000036161D0D4F838282948002393610029EE
:10B0F0004FF0FF336FF0804151615360516114BFD5
:10B1000000231023906143F470139069D4F8141E47
:10B1100043F4605343F00803034393619368096861
:10B1200043F00103936088471A4B1B4ADA60684674
:10B130001A4B0093FEF796FC02B0BDE8F08100BF09
:10B1400000E100E00038024000000240B03500207D
:10B150004C04002008040100400040010008005099
:10B16000000B00502009005040090050200B0050F7
:10B17000003C0140C005005000100050003000505D
:10B18000E83D0020DC3D0020F03D00202C3E00206A
:10B190000008008000ED00E00005FA054302000110
:10B1A0000009005020050050D4F83828144B0363E0
:10B1B0006FF08041134D00234FF0FF3093615161D8
:10B1C0005060516195619EE701680F4A0F4E41F052
:10B1D00003010160802159629E62C3F80421E022CC
:10B1E000C3F80821C0F24002C3F80C2134E79A6882
:10B1F00022F03E0141F02A0161F307029A6012E752
:10B200000301810000080080A000400080002000B1
:10B2100010B51A4C94F8210EC0B9194B83F8A1004F
:10B22000C3F8A40094F8243E012B05D0022B21D0B2
:10B23000D4F8283E1BB910BD124BC4F8283E124961
:10B240005B68BDE81040A1F10C00184738F0E6FA41
:10B2500094F8232E0A49003A18BF012281F8A12050
:10B26000C1F8A4000028DDD02122C280202136F0C0
:10B27000A9FDD7E7054BC4F8283EE0E7B03500202C
:10B28000C01300208C040020DC4300206804002050
:10B2900099B10A6B824216D9154BD3F86C2E9142A4
:10B2A00021D34C3991421ED30B6B9842F9D38B6B4F
:10B2B0009842F6D80B46184670470D4BD3F86C1ED3
:10B2C0000A6B904212D30B680BB9F4E70A6B9042F9
:10B2D0000B4602D38A6B9042EDD951F84C3F002BBC
:10B2E000F4D1184670470023184670470A46D8E73D
:10B2F000B03500202DE9F047CC0143D10346224A66
:10B3000043F8082B4FF0FF324260022418467E2695
:10B31000DFF87880D8F8709E2644013E051D494626
:10B320006FF070474FF0010A08E0A3421CD0631C85
:10B3300045F8043C321B1C460435CAB10B6BA342D2
:10B3400002D88B6BA34204D22046FFF7A1FF01462F
:10B3500090B10A794B6B002AE7D1A34204D0E6D220
:10B3600045F8042C631CE5E745F8047C631CE1E721
:10B37000C8F8701EBDE8F08745F804AC321B631CAA
:10B380004946D8E78026C3E7F8FFFF0FB035002015
:10B3900070B4447941BB03684FF400524FF4007617
:10B3A000202502213CBB1A8C22F001021204120C4F
:10B3B0001A841A8B188C22F0F30280B2120420F047
:10B3C0000A00120C014342F0010241F001011A830C
:10B3D00019841A8B22F00C021204120C1A831A8B95
:10B3E00092B270BC1A837047002203681646154655
:10B3F0001146002CD7D0042C21D0082C38D0198C21
:10B4000021F480510904090C19849C8B1D8C45F68C
:10B41000FF7040F6FF4128402140024342F4805231
:10B4200041F4807199831A849A8B22F44062120449
:10B43000120C9A839A8B92B270BC9A8370471A8CC2
:10B4400022F010021204120C1A84188B198C89B283
:10B4500040F6FF4221F0A00102400D4342F4807209
:10B4600045F010051A831D841A8B22F44062B3E75D
:10B470001A8C22F480721204120C1A84998B1A8C82
:10B4800021F0F30192B2090422F42062090C324344
:10B4900042F4807241F0010199831A849A8B22F060
:10B4A0000C02C4E738B50E4D044600680AF020FBD4
:10B4B000D5F8B824204652084FF6FF7135F0C0FF8A
:10B4C00020460021FFF764FF064BC5F8243D05F632
:10B4D000245120460022BDE8384035F02FBF00BF80
:10B4E000B824002095A301082DE9F047154B054627
:10B4F00003F68464002093F97D8E84B06F1804F500
:10B50000287A06464FF0B6092368ABB193F8383075
:10B51000142B11D018F1020F01D043450CD1002299
:10B5200069462046CDE90266CDE90057ADF808909E
:10B530008DF80D602BF03EFDE034A245E4D104B05F
:10B54000BDE8F087B0350020B5EE400AF1EE10FA04
:10B5500004D0F5EE400AF1EE10FA07D1074B084986
:10B56000084A8260C0E900310C301847064B074991
:10B57000044A8260C0E90031F6E700BF8D16050875
:10B580009116050889160508C1A70408C19E04087C
:10B590002DE9F04FA24FA34AB7F8A015B7F89E3592
:10B5A000A14C2DED068B07EE901A0AEE103A92F898
:10B5B0002D30DFED9EAAF8EE679A07EE903AD38D14
:10B5C000F8EEE77AF2EE046A0A2B87EEA67AB8BFA5
:10B5D0000A2385B007F63C48A4F1BC0604F5C86B05
:10B5E00007EE903A138E88ED007A08EE103AF8EEE6
:10B5F000E78AB8EEC88AB6EE009AF4EE488A29EED9
:10B60000890AF1EE10FAC8BFB0EE688A92F82C30C1
:10B61000C8ED018AB4EEC80AF1EE10FAD8BFB0EE58
:10B62000408A082BA8BF08230022B1F57A7F38BFD3
:10B63000134680EE080AC7F84C2CC7F8483C88ED42
:10B64000028A54F051FCB7EE007AB4EE470AF1EEEC
:10B6500010FA48BFB0EE470AFDEEC07AB8EE4AAA2B
:10B66000F8EEE76A17EE905A44ED3A7ACAEE297A74
:10B6700067EEA67A87EE276A89EEA67ADFED6C7A06
:10B6800004ED396AC7EE279A88EEA90A44ED389A84
:10B6900054F0AAFC0228B8BF022088EE290A81468D
:10B6A00044F8DC0C54F0A0FC2328A8BF2320B9F1F7
:10B6B000230FA8BF4FF02309484544F8D80CB8BF62
:10B6C0004846A0EB0902012D54ED357A9FED598AC9
:10B6D0008246B8BF01250132F5EE407AF1EE10FA4C
:10B6E0002AD155499FED55AA002307EE903AF8EE6E
:10B6F000E79ACDE9021269EEAA9A0193B0EE690ABF
:10B7000045F0AEFBF0EE408AB0EE690A45F034FB3E
:10B71000A8EE880A019B0299039A20EE0A0A68EEB5
:10B720008A8A0133242B81ED000AC1ED018A01F1DF
:10B730000801DAD1DFED427A92FBF5F1002346E908
:10B74000053946F8081C46F80CAC46F8045C31464E
:10B750000133482BA1EC018AFAD13A48D0F804C150
:10B76000D0F8080106F59073002101312429C3F8AF
:10B7700000C0586003F10803F7D106F515765E4561
:10B78000AAD1DFF8C890DFED308A44ED357A002584
:10B7900008EB0500CA460026D7F8483C9E4200F157
:10B7A000240430DA07EE906A98ED016AF8EEE76A51
:10B7B000D8ED027A36EE897A77EEC67A743067EE83
:10B7C000877A07EE103AB8EEC77AB7F89E3587EE5B
:10B7D000870A0421013600EE903A30EE060AF8EEB0
:10B7E000600AAAEC010A98ED001A84ED178AA6EE09
:10B7F000A81A84ED168A84ED158A84ED148A4BF01C
:10B80000D9F92046C8E705F59075B5F5587F09F1D7
:10B810002009BDD105B0BDEC068BBDE8F08F00BF9F
:10B82000F8000010A8460020F0110010C3B8B23D87
:10B8300000009042000000001C18001072F97F3FC9
:10B84000BC297E3F04290608CDCC4C3E480D001093
:10B850002DE9F04F2DED028B604CDFF89481DFF87D
:10B8600094A19FED5F8A85B0A4F274790127FEB29E
:10B8700018F8010B3246592136F0B6F80546002873
:10B8800000F08580D0F800B0A0600123BBF1804FAC
:10B8900004F8283C00F09480524B9B4500F09080C7
:10B8A0000023584604F8273C4FF0AAF807EE900A08
:10B8B000F8EE677A4FF4807344ED087A00224FF473
:10B8C0000051584644E9061244F8103C44F8082C4C
:10B8D0004FF096F8AAFB0030C308012218F8010CBB
:10B8E00044F80C3C04ED098A24F81C2C24F81A2C8A
:10B8F00037F094FFE06040B15922C67182716A7AD4
:10B90000222137F099FDD5F800B058464FF078F86D
:10B9100001462846FEF7C8F814F8273C002B41D012
:10B920002146314B41F8043D0022284635F006FD02
:10B930006B792868ADF804300423012502220DEB51
:10B940000301ADF80620ADF80C30029509F0C6FEF3
:10B9500054F8103CA26899F82C181268013E013B7B
:10B960009BB2F6B213854FF0FF3C00234FF400501A
:10B97000B142C2F82CC0958244E9060324F81C5C4D
:10B9800024F81A5C44F8083C01D135F081FA0137FB
:10B99000052F04F138047FF46AAF05B0BDEC028BCB
:10B9A000BDE8F08F1148DFF850C044F8040C22467F
:10B9B000211F28466360C4F800C035F0BFFCB7E71C
:10B9C0000123584604F8273C4FF01AF807EE900A76
:10B9D000F8EE677A012344ED087A6FE764190010E6
:10B9E00000000000000C00406504040899050408EC
:10B9F000DC4600201F85EB51B50E04080B480C4BAC
:10BA0000016D10B40B4C03648A1E2231B0F85C3017
:10BA10001B01A4FB03C3DB08A3F5B06322F8023FBC
:10BA20009142F3D15DF8044B704700BFA846002057
:10BA300015090208CDCCCCCC70B5084C251D2E467E
:10BA400014F8010B2BF0D2FC28B1037905F8013B67
:10BA5000B442F5D170BDFF23F8E700BF18470020BE
:10BA60002DE9F0471D4F012607F10805B2464FF0BA
:10BA70003D094FF0000817F8010B37F0CFFE0446E0
:10BA800090B180F80690C671FB7803F07F02012A1E
:10BA900018D013F0800F20460DD185F8048038F0BF
:10BAA00091F985F805802C600136052E05F1080511
:10BAB000E1D1BDE8F08785F804A038F089F985F870
:10BAC00005A0F0E71B0605D40121204636F07AF9DF
:10BAD000FB78DEE738F07CF9F6E700BF204700206E
:10BAE0002DE9F04F0C68BB4D013BAC4283B09BB2DB
:10BAF00000F07A81A5F58065AC4200F0758105F50E
:10BB00008045AC425BD005F58065AC4257D005F569
:10BB10008065AC4253D0B04E2588D6F8B8747F0803
:10BB2000B7FBF2F6013EB6B2AAB2B4F1804F0AD02A
:10BB3000AA4DAC4207D005F58065AC4203D005F5AF
:10BB40008065AC4202D122F0700292B2A44DAC42A8
:10BB500000F02B8105F58065AC4200F0268122F4CF
:10BB6000407205F56C4592B2AC422280E3622685B4
:10BB700040F04481002323860125A5820B7A4A796F
:10BB800013F0020600F015810027DB0003F0080324
:10BB9000B84601973946BC46BE463D464FF48066DE
:10BBA0004FF0400A4FF0040B0C2A12D8DFE802F0E5
:10BBB000CA1111119A111111221111116A00864E28
:10BBC0002588D6F8B864B6FBF2F6013EB6B2AAB242
:10BBD000ABE70C2A3ED8DFE812F0DF003D003D0065
:10BBE0003D00AC003D003D003D003D003D003D00FE
:10BBF0003D007C00218C7B4F21F480710904090CED
:10BC00002184218CB4F80490A58B89B225F07305AA
:10BC100021F400712D044CEA01012D0CBC4241EAD3
:10BC20000E211FFA89F945F0600500F0EC8007F558
:10BC30008067BC4200F0E7800023A4F80490A5834D
:10BC4000E3632184A38B23F008031B041B0C43F044
:10BC50000803A383B4F844306FEA43436FEA5343C5
:10BC60009BB2A4F84430238821469BB243F00103E1
:10BC700021F8343B00238D18C0E900548B5003B0E9
:10BC8000BDE8F08F238C574923F480531B041B0C11
:10BC90002384238CB4F804C0A68B9BB226F4E6461A
:10BCA00023F40053360448EA0305360C8C4245EA77
:10BCB0000E3346F4C0461FFA8CF500F0B08001F553
:10BCC00080618C4200F0AB800021A580A6832164B6
:10BCD0002384A38B23F400631B041B0C43F4006335
:10BCE000A383B7E7258C3F4E25F010052D042D0CBE
:10BCF0002584B4F820C0A788258B1FFA8CFC25F476
:10BD0000E6452CF0200C2D0441EA0C012D0CB44228
:10BD100041EA0E11BFB245F4C04500F08F8006F530
:10BD20008066B44200F08A800023A7802583A36345
:10BD30002184238B23F400631B041B0C43F4006356
:10BD4000238387E7218C274F21F001010904090C87
:10BD50002184268CB4F80480B4F8189026F00206EA
:10BD600029F0730936044FEA09494EEA0501360CF9
:10BD70004FEA1949BC4241EA06011FFA88F849F026
:10BD8000600950D0134DAC424DD00023A4F804807C
:10BD9000A4F8189063632184238B23F008031B0409
:10BDA0001B0C43F00803238354E72280E3622685BB
:10BDB000E2E65B004FF4806103F0020E0191B246AF
:10BDC0003346B3464FF480474FF4805810214FF468
:10BDD000807CE9E600040140B82400200004004013
:10BDE00000100040000001401B4E2588D6F8B864C2
:10BDF000B6FBF2F6013EB6B2AAB2A4E6174B9C42DD
:10BE00003FF4B8AEB8E621F4006141EA032323F41D
:10BE1000806129F44059314349EA08090CE725F4C7
:10BE200080453D4350E74FF6F3760E4028F44078C6
:10BE3000334348EA0C0843EA0B01A6E721F08001EE
:10BE400041EA031323F04001019B27F4406741EAD4
:10BE50000A011F4368E700BFB82400200004014026
:10BE6000354BB3F89E3507EE103A2DE9F041BAEEA6
:10BE7000EF7A2DED048BB4EEC70AF1EE10FADFED88
:10BE80002F8AB0EE408AF0EE607AF0EE419A06DD3D
:10BE9000F4EEC70AF1EE10FA45D5B0EE478AB5EEDA
:10BEA000C08AF1EE10FA43DDF5EEC07AF1EE10FA39
:10BEB0003EDD27EE887A67EEE77AE8EE087A87EECD
:10BEC000279A1F4E1F4FDFF8848000F10C0400F109
:10BED0009C0544E9028744F80C6CB5EEC08AF1EE8B
:10BEE00010FA19DDB5EEC09AF1EE10FA14DD164B1A
:10BEF00044F8083CC4ED038AC4ED028AC4ED018A0B
:10BF0000C4ED008A0421B0EE491AF0EE690AB0EEE1
:10BF1000480A20464AF04EFE3034AC42D9D1BDEC3E
:10BF2000048BBDE8F081B0EE688AB0EE689AC8E78D
:10BF30009FED029AC5E700BFF80000100000000066
:10BF40008D16050889160508C19E04089116050876
:10BF50000A44914215D030B441F2210511F8014B49
:10BF6000082380EA042010F4004F85EA40040ABF49
:10BF70004000A0B280B2013BF5D18A42EED130BC84
:10BF800070477047014488420ED010B40346074CF6
:10BF9000074813F8012B04FB00F0994280EA0200E5
:10BFA000F7D15DF8044B70470148704793010001D9
:10BFB000C59D1C812DE9F041204E214F96F8A330FC
:10BFC00087F8913EA03607F6946500244FF00508E7
:10BFD00016F8010B20BB28600134032C05F1040581
:10BFE000F6D197F8911ED7F8940EC94301F00101DC
:10BFF00037F0F4FE97F8911ED7F8980E81F0020101
:10C00000C1F3400137F0EAFE97F8911ED7F89C0E75
:10C0100081F00401BDE8F041C1F3800137F0DEBEDC
:10C0200037F0FCFB013401212860E3B210B180F845
:10C030000680C371286835F0C5FECEE7A84600200B
:10C04000B8240020F8B5244C244EB4F8A850A6F823
:10C05000A05EE5B994F8A40037F0E0FB94F8A520C1
:10C06000C6F8A40E003A18BF012286F8A22E48B1E5
:10C0700094F8A6102D22002914BF11210121C2809D
:10C0800035F0A0FEBDE8F840002038F03DB994F846
:10C09000A470002238462D2135F0A6FC064638460D
:10C0A00037F0BCFBB8B1B6B10D4F2D22F864C28099
:10C0B000717AFDF733FE0B49B1FBF5F13046C1F360
:10C0C0004F0289B2A4F8AA50FBF7FAFFBA6B00231B
:10C0D000136087F84930F8BDA8460020B824002036
:10C0E000C013002040420F002DE9F84F244C94F873
:10C0F000B83084F8AC3004F1AF070026CC345FFAD6
:10C1000086FB0BF101085FFA88F8012117F8010F8F
:10C1100042460E448A4635F067FC4FF0000905465A
:10C1200038B3387804F80E9C04F80D9C04F80FBC62
:10C1300004F810AC44F8045C37F070FB18B180F8D8
:10C1400006A080F80780697AFDF7E8FD0D492846CA
:10C15000FDF7AAFC0C4B23600C4B221D2146284600
:10C16000C4E9013935F0EAF8697928684A4629F0C6
:10C170005BFC082E04F11C04C1D1BDE8F88F00BFA0
:10C18000A846002040420F00615A0308DD1A030848
:10C1900070B52B4C2B4B94F8E401C4F8DC31002231
:10C1A0000221C4E96722C4F8A421C4F8D821A4F864
:10C1B000E02135F019FC002834D0234B06680546F1
:10C1C00003F160015A7C12B15A6896422BD01833A1
:10C1D0008B42F7D1002394F8E401C4F8C85084F8E6
:10C1E000BC3037F01BFB08B10223C380697AFDF72E
:10C1F00095FD28461549FDF757FC154A1549C4F821
:10C20000CC100026111F2846134BC4F8D030C4F8B8
:10C21000D46035F093F8697928683246BDE87040FB
:10C2200029F002BC70BD30464EF0EAFB328D0B495E
:10C2300092B2531CB0FBF3F081F82803CAE700BFA9
:10C24000A846002000FFFF002801001040420F0018
:10C2500078470020051B0308A11C03088801002063
:10C260002DE9F04FC14D95F81E71032F85B083461F
:10C27000A7F105032DD8DFF800830124032B88F8EC
:10C28000204933D90023584688F89038FCF754FAEF
:10C29000B74EC6F86005D6F86035002B00F09580E3
:10C2A0000022012183F824B083F8251083F826208A
:10C2B0009A62BBF1000F09D02C33AE4A03EB0B009E
:10C2C00012F8011B03F8011B9842F9D105B0BDE833
:10C2D000F08FDAB2032ACED9A74A0021032B82F8C5
:10C2E00020196DD9A24E82F89018D4E795F827311D
:10C2F00088F89048012B00F08F80022B71D09F4B63
:10C30000DFF8A4C203931C46BCE80F000FC4BCE8CE
:10C310000F000FC495F826E1DCF80020944E22604F
:10C32000BEF1000218BF0122954B86F87825072F31
:10C33000C8F8703800F2FB80042F00F23B81914B6B
:10C34000DFF868920093002402965FFA84FA0AF1FB
:10C350000107FFB2A3453A464FF0030104F101047F
:10C3600029DD009810F8013B00901846019335F044
:10C370003BFB019B06461846002E00F0DF8037F09D
:10C380004DFA034651463046C9F814301BB14FF000
:10C3900003029A71DF71337A95F81E214FF0DEF8AF
:10C3A000002800F0CB804FF00103042C89F81130F5
:10C3B00009F11809C9D1DDE90263C6F860356AE7F9
:10C3C00001236B4E82F8903865E76F4D6F4C0FCDAF
:10C3D0000FC40FCD0FC42B6844F82039C6F8604550
:10C3E00074E795F82631002B89D0082F14D1DFF897
:10C3F000B8C15F4EBCE80F0008F5066703970FC78A
:10C40000BCE80F000FC7DCF800205D4B3A6086F8EF
:10C410007845C8F870388DE0DFF894C15C4C95F829
:10C420002651534EC8F894B8BCE80F000FC4BCE8BE
:10C430000F000FC400216D1A564ADCF8003044F892
:10C44000503B18BF012586F87855154602F5077050
:10C450004FF44C7285F8187285F8E6110F4656F0C5
:10C46000A5F8484B06F13009CDE9003BBB46D8F8AA
:10C4700094385B4554DD009B13F8015B009328461C
:10C4800035F038FB8246284637F0C8F99AF808702C
:10C49000404B96F8781507F0010A0AF1010A0546A3
:10C4A00083F8E5A109B187F00107002D4FD0A979E4
:10C4B00091B1422910D0384AC8F84828374A384B39
:10C4C000C8F84428334AC8F84038012382F8E631D6
:10C4D000DDF804B0002370E728463AF05BFC4FEA31
:10C4E0004A110BF1010B41F009014FF003036161A7
:10C4F0006060E560277485F807B0AB71284635F0B9
:10C5000061FCFB0728460FD537F05CFCE368C9F8EF
:10C510001430BBF1040F04F1200409F11809A6D16D
:10C52000DDF804B01A4B48E737F052FCEEE7082F6D
:10C530007FF405AF1B4BC8F8983800E7174B164A35
:10C54000C8F87438029EC8F87828002335E72846D2
:10C550003AF020FC4FEA4A1A4AF009010BF1010BAC
:10C5600061616060E5602774C8E700BFB8240020FF
:10C57000F8000010D8250020F0110010501A00100B
:10C58000098F0508E1250020102A060890480020A0
:10C59000201A0010A8460020510004085500040885
:10C5A00059000408C9000408342A060828010010AC
:10C5B000582A060895F82531064AC8F89828012B0C
:10C5C00005D0022B06BFBEFA8EF35B09002388F864
:10C5D0009C38B4E6F9000408F8B56E4F97F8630587
:10C5E00097F8645537F01AF960B12F23C3802021E2
:10C5F000044635F0E7FB0A2035F0CCFE20463AF041
:10C60000BFFB18B9D7F86C35DA0000D5F8BD013D8D
:10C61000092DFBD897F86245D4B9402030F092FA42
:10C620000028F3D090F9043097F83910092BC8BFCF
:10C63000143B3B440A2993F8704500F09D8093F821
:10C640007C3597F85625002A08BF1C46002CDDD003
:10C65000204637F0E3F80546002800F085802F23B8
:10C66000C380012135F0AEFB0121084637F0BEFB47
:10C670002B68AA881A833C2036F00EF9002101208D
:10C6800037F0B4FB97F86435002B4CD0424C0026B1
:10C690001FE02B68AA885A8335F07CFE94F8911E1F
:10C6A000D4F8940E01F0010137F098FB94F8911E34
:10C6B000D4F89C0EC1F3800137F090FB2B68AA8858
:10C6C0001A83782035F066FE97F8643501369E426D
:10C6D00029DA94F8911ED4F8940EC94301F00101AF
:10C6E00037F07CFB94F8911ED4F89C0E81F0040185
:10C6F000C1F3800137F072FB7820002DC9D178207A
:10C7000035F048FE94F8911ED4F8940E01F0010122
:10C7100037F064FB94F8911ED4F89C0EC1F38001AD
:10C7200037F05CFBCDE797F86235ABB997F8633526
:10C73000002B7FF46BAF97F86535012B7FF466AF64
:10C74000D7F86C3513F080537FF460AF87F8643509
:10C75000BDE8F8403FF04ABF322036F09DF8284649
:10C76000002135F02FFBE1E7012135F02BFB012102
:10C77000084637F03BFB7EE7D7F894355B057FF53D
:10C7800045AF0BF047FD00287FF440AF002C7FF44D
:10C790005FAF3BE7A8460020B824002070B43448BF
:10C7A00090F89835A3F13001092957D800F5B36402
:10C7B000224600F2A75012F8015FA5F130010929C5
:10C7C00004D88242F7D1002070BC7047141B022CA1
:10C7D0004ADD2848002101E010F8013B01EB81010E
:10C7E00003EB4103161A303B022E044603F0FF010F
:10C7F000F2DC214B03FB01F1A2424FF000030DD903
:10C8000003EB830314F8016B5B00303B3344A2421B
:10C8100003F0FF03F4D1194800FB03F32E2D06D0DB
:10C820001748A0FB032301EB930070BC7047013253
:10C8300004200024157804EB8404303D6400092DA5
:10C8400000F1FF30A4B202D82C44A4B2013210F09F
:10C85000FF00EFD1642202FB0433E1E700211D4613
:10C8600000F5B3620B46D9E7064C0021C4E700BFD0
:10C87000A8460020414C00208096980040420F00BE
:10C88000ABAAAAAA404C00202DE9F047041E0D4691
:10C8900012DB092C26DC824A0B468248A0FB0410DE
:10C8A000C00800EB8000A4EB40000021125C1A706D
:10C8B00059702846BDE8F08764422D23092C01F801
:10C8C000013B24D8764A774BA3FB0403DB0803EB38
:10C8D0008303A4EB43030020D35C48700B7028460D
:10C8E000BDE8F0876F4B632CA3FB04264FEAD60606
:10C8F00021DC6B4A0B466B49A1FB0601C90801EB21
:10C900008101A6EB4101515C03F8011BC5E7654AB3
:10C91000632CA2FB04364FEAD60637D8604A614B37
:10C92000A3FB0603DB0803EB8303A6EB4303D35C03
:10C9300001F8013BC7E7A3FB0627B4F57A7F4FEA6E
:10C94000D7070DD2564A0B465649A1FB0701C90825
:10C9500001EB8101A7EB4101515C03F8011BCAE720
:10C96000A3FB072842F20F7294424FEAD80836D848
:10C970004B4A0B464B49A1FB0801C90801EB810159
:10C98000A8EB4101515C03F8011BDDE7A2FB063770
:10C99000B4F57A7F4FEAD7070CD2414A414BA3FB4B
:10C9A0000703DB0803EB8303A7EB4303D35C01F826
:10C9B000013BB4E7A2FB073842F20F739C424FEAF7
:10C9C000D80821D8364A374BA3FB0803DB0803EB12
:10C9D0008303A8EB4303D35C01F8013BDEE7324A53
:10C9E000A3FB080994424FEAD90921D82C4A0B46E7
:10C9F0002C49A1FB0901C90801EB8101A9EB410107
:10CA0000515C03F8011BB5E7274BA2FB08099C42C8
:10CA10004FEAD90921D8224A224BA3FB0903DB089C
:10CA200003EB8303A9EB4303D35C01F8013BCAE7A3
:10CA30001E4AA3FB090394424FEAD30A21D80B46AE
:10CA40001849174AA1FB0A01C90801EB8101AAEBA9
:10CA50004101515C03F8011BCAE7144BA2FB090218
:10CA60009C424FEAD20A13D80E4B0D4AA3FB0A038D
:10CA7000DB0803EB8303AAEB4303D35C01F8013B20
:10CA8000CAE70A22BAFBF2F03EF09AFE0346D7E765
:10CA90000A22BAFBF2F03EF093FE0146E4E700BF43
:10CAA0007CB80608CDCCCCCC9F8601003F420F005D
:10CAB00083B50C461646054630F010F8204630F097
:10CAC0000DF80021204B0846002E08BF1E4637F007
:10CAD0008DF90021012037F089F9284636F060FCF5
:10CAE000B0B10121002037F081F9284636F050FC22
:10CAF0000746204636F050FC0028FAD0394620463A
:10CB000036F052FC3846B0470021084637F06EF93F
:10CB1000204636F045FC0028DFD00121002037F008
:10CB200065F9204636F034FC01462846019136F07E
:10CB300033FC01990028F8D0284636F035FC002156
:10CB4000084637F053F9C8E7697D0308F0B50023BC
:10CB5000C1E90033C1E902330B61D0E900258DB092
:10CB600007AEDFF898E0C2F3056C37464CFA03F0E5
:10CB7000C0073C4604D513F80E0004F8010B274605
:10CB80000133062BF2D11B4CDFF874E0C2F3032013
:10CB90000023205C3B708DF82400C2F3073C0DF1AC
:10CBA00025074CFA03F0C0073C4604D513F80E00E5
:10CBB00004F8010B27460133082BF2D100233B7008
:10CBC000C5F3435CC5F3434409AB0846C5F34F05C1
:10CBD000C2F30351CDE902150193CDE9044C02F0F3
:10CBE0000F0305490096C2F3031243F0F9FB0DB0A1
:10CBF000F0BD00BFD8B80608A4B80608E0B806081B
:10CC0000CCB8060870B5094CD4F8A825054662B121
:10CC10000026D4F8A8052D2101363BF099F8AE4244
:10CC2000F7DBBDE870403EF0ABBB70BDA84600200E
:10CC30002DE9F04F5FFA81F9002185B007460846DB
:10CC4000164637F0D3F80021012037F0CFF836F040
:10CC5000D5FB022E0AD0042E44F6C01818BF4FF49C
:10CC60009648B9F1030F07D900200CE0B9F1FF0F86
:10CC70004FF41648F5D10326CD4D95F8AC352BB9B8
:10CC80000020C5F8B00505B0BDE8F08F032EC94CF3
:10CC90000DD0A144002299F82901032134F0A4FE0B
:10CCA0000028EDD0C4F80005037A9A07E8D495F877
:10CCB000AC0584F81B6D0022032134F095FEC4F806
:10CCC00004090028DCD0BC4ABC4BC4F8BC3402F1D7
:10CCD000480003234FF48061A4F8C034C4F8D004A2
:10CCE000002302F24C404FF0010A032EC4F8C48422
:10CCF000C4F8E834C4F8C814C4F8DC34C4F8D83430
:10CD0000C4F8D404C4F8CC14C4F8E434C4F8E0344F
:10CD100084F80C3DA4F808ADC4F8143DA4F8183DFF
:10CD200084F81A3D91460ED0D4F800B59BF8040063
:10CD300036F074FDC4F8FC04584610F0CDFD5146A1
:10CD4000484610F0DDFD322035F0A6FD002E5FD103
:10CD5000D4F80489D8F8000008F0CAFE4046984A82
:10CD6000222134F06DFB974B9749C4F8203D3246A1
:10CD7000404634F0E3FAD4F80085D8F8000008F013
:10CD8000B7FE8F4A4FF6FF71404634F059FB3146EB
:10CD90004046FEF7FDFA8D4B8D49C4F8243D3246DE
:10CDA000404634F0CBFAC5F8B0954FF0060A022E93
:10CDB00012D0D5F8B00536F0F3FA68B101210020A1
:10CDC00037F014F8D5F8B00536F0EAFA0146002835
:10CDD00040F09A8037F00AF8384636F0E1FA88B128
:10CDE0000121084637F002F84FF0050B4FF000081C
:10CDF000384636F0D5FA0146002840F08E800120F2
:10CE000036F0F4FF042ED4D0052035F045FDCEE7F2
:10CE1000012E09D1D4F804094146FBF747FFD4F8A5
:10CE20000005FEF73FFBBEE7022E09D1D4F800054E
:10CE300010F041FDD4F804094146FBF737FFB2E793
:10CE4000032E59D14FF0000A5146624884F81CADB8
:10CE5000202255F0ABFB8DF80FA0DFF87CA19DF8E8
:10CE60000F30032B09D95448012110F049FDD4F8A3
:10CE700004094146FBF71AFF95E79DF80F3003EBD5
:10CE800043030AEBC30393F8413073B39DF80F30AB
:10CE900003EB43030AEBC3035B6C33B39DF80F3022
:10CEA000234493F8290100B30022032134F09CFDB0
:10CEB0008346D0B110F0FFFC9DF80F3094F81C2D84
:10CEC00003EB43030AEBC30305EBC2015B6CC1F840
:10CED000B4359BF80830DB0748BF012302F101029B
:10CEE00048BF81F8B83584F81C2D9DF80F30013308
:10CEF000DBB28DF80F30B2E7042E7FF454AFD4F8D4
:10CF0000000510F0D8FC85E7D5F8B00536F040FAFA
:10CF10000146384636F048FA54E7384636F038FAD3
:10CF200095F8E23501468BB9242803D14FF001036F
:10CF300085F8E235012E04D13846019136F034FAF5
:10CF40000199D5F8B00536F02FFA51E7012B06D13B
:10CF50004D280CBF0223002385F8E235EAE7022BB7
:10CF600006D13C280CBF0323002385F8E235E1E716
:10CF7000032B10D10A2802D985F8E285DAE70423C9
:10CF800085F8D50585F8D48585F8D78585F8D60543
:10CF900085F8E235CEE7042B20D195F8D63585F813
:10CFA000E305434085F8D63585F8E2B5C2E700BF12
:10CFB000A8460020B8240020742900207C2A0608F6
:10CFC00040420F008DD90108D8310020B1A20108DC
:10CFD000DC3100205C4C0020F8000010052BA9D1AA
:10CFE00095F8D43595F8D59595F8D6054B4509D2E1
:10CFF0005A1C2B44484085F8D60585F8D42583F87B
:10D00000D81597E78842B7D195F8E33585F8E2A5BA
:10D01000F42B8FD1B9F1000F8CD12421384685F83B
:10D02000E29536F0C1F94D21384636F0BDF93E2182
:10D03000384636F0B9F94946384636F0B5F9F421A4
:10D04000384636F0B1F9F421384636F0ADF9032E02
:10D050001BD0D4F80005437901689D080223AB403A
:10D06000DB439BB20B828D892B408B810079202181
:10D0700010F010FCD4F800054A46494634F05EF939
:10D08000D4F80035186808F033FD0022D4F80409FC
:10D09000114634F053F9D4F80439186808F028FD23
:10D0A0000120F0E510B5036804469B68012198470C
:10D0B000FF230122A373627310BD00BF70B51D4C26
:10D0C0000968D4F8E8551C4ED4F8E445D6EDCB7A7F
:10D0D000DFED1A6A491B00EE901A0168F8EEE00ACB
:10D0E000091B60EEA70A00EE101A20EEA07AB8EE37
:10D0F000C00A1C46A0EE007AB1EE400AF1EEC77AF3
:10D1000067EEA67AFCEEE77AC2ED007A43F0C6FD40
:10D110009FED0B7ADFED0B7AE0EE077AFDEEE77A12
:10D1200017EE902A002ABCBF02F50C42A032226002
:10D1300070BD00BFA8460020880100202C7D8E3FD6
:10D14000A00CB34500A00C4638B50F4C94F803165C
:10D1500001F03F018B1C024601F10A0584F80136FB
:10D1600084F8FE5504F2FC5084F8FF2508311DF0C8
:10D17000F1FE254485F8FA0594F8FE351C44000AB2
:10D1800084F8FB0538BD00BFA84600202DE9F04F0C
:10D190008DB0CF4CDFF84C93CE4D00904FF000088F
:10D1A00054F80B0C002800F0FE8036F0F9F8064623
:10D1B000002800F0C981D9F8803044F8073CE02607
:10D1C0000023C54F04F8033CA4F10B0A06FB08F644
:10D1D00054F80B0C36F0E4F8002800F0E48054F822
:10D1E0000B0C36F0D5F814F8023C5A1E83460B2A75
:10D1F0000DD8DFE812F01F003A004600530083000C
:10D200009B00E300170137014201790191012428B5
:10D210000CD0009A3AB995F89226824240F0828169
:10D22000012204F8032C0D2BD2D186E0012304F84F
:10D23000023CCDE700234D28C4F8C53084F8CD303A
:10D2400084F8CE3004D0582808D004F8023CBFE758
:10D25000022204F8022C84F8C430B9E7032304F84E
:10D26000023C022384F8C430B2E704233C2804F8CB
:10D27000023C0BD0BBF13E0F0CD0002304F8023C63
:10D28000A6E70A233C2804F8023CF3D1002304F863
:10D29000013C9DE7012304F8013C99E7D4F8C5005F
:10D2A000BB190344421CC4F8C52083F88FBE94F810
:10D2B000CD00022A8BEA000184F8CD1088D12378B2
:10D2C000C02BDAD86278FF2A08D1052BD5D90123E3
:10D2D00084F8C430072304F8023C79E7A4F8C1209D
:10D2E00000229342C4F8C93014BF0523062384F8F2
:10D2F000C320C4F8C52004F8023C69E7D4F8C5008F
:10D30000BB190344421CC4F8C52083F88FBE94F8AF
:10D31000CD00D4F8C9308BEA00019A4284F8CD10D0
:10D320007FF456AF062304F8023C51E794F8CD3061
:10D330008342A2D10D2304F8023C14F8017C002F93
:10D3400040F0F680654B08940FCB04AE86E80F00E2
:10D35000D4F8C930D4F8D100ADF82A702344099329
:10D36000B4F8C130ADF8283094F8C3308DF82C30C3
:10D3700001238DF82D30324603AB08A903972FF017
:10D38000C1FE48B1049B059394F8C420544B049308
:10D390003146504629F00EFE039E002304F8023C5D
:10D3A000002E40F0C98008F10108B8F1030F04F124
:10D3B000E0047FF4F5AE0DB0BDE8F08FD4F8C50001
:10D3C000BA190244431CC4F8C53082F88FBE94F8E1
:10D3D000CD2094F8CE0001938BEA020284F8CD2090
:10D3E0005946D52249F020FF019B84F8CE00072B37
:10D3F0007FF4EEAEB4F80530C02B3FF63EAFB4F884
:10D400000320A4F8C120A27884F8C320002293420C
:10D41000C4F8C93014BF08230923C4F8C52004F890
:10D42000023CD5E6D522014694F8CE0049F0FCFE38
:10D4300094F8CD3084F8CE008BEA0303D4F8C5000D
:10D4400084F8CD30BB190344421CC4F8C52083F8CE
:10D450008FBED4F8C9309A427FF4BAAE092304F8DB
:10D46000023CB5E694F8CD30434084F8CD3094F8D2
:10D47000CE3083427FF401AF54E7D4F8C500BA1927
:10D480000244431CC4F8C53082F88FBE94F8CE0025
:10D490000193D522594649F0C7FE019B84F8CE007E
:10D4A000052B7FF495AEB4F80120B4F80330A4F84E
:10D4B000C120227884F8C32000229342C4F8C930E6
:10D4C00014BF0B230C23C4F8C52004F8023C7FE6EC
:10D4D0003F440020A8460020B0350020AC2A0608B2
:10D4E0009C580120B8240020D522014694F8CE0093
:10D4F00049F09AFE84F8CE00D4F8C500BB19034465
:10D50000421CC4F8C52083F88FBED4F8C9309A42B3
:10D510007FF45EAE0C2398E694F8CE3083427FF41D
:10D52000ACAE07E7232804BF022204F8032C7AE6F6
:10D53000002304F8023C36E754F80B0C2FF0CEFA27
:10D5400054F80B0CB0472EE714F8030C00283FF4F6
:10D550002AAFD9F8803054F8072C9B1A632B7FF63A
:10D5600022AF01282AD002287FF41DAF54F80B3CCB
:10D57000C5F89836C5F89C36C5F8A4364023A5F8FA
:10D58000AC36104B1048C5F8A8360122103B85F880
:10D5900094260E4AC5F8A026C5F8A835C5F8F03679
:10D5A0003DF0F2FE4FF400502FF0A4FD08483DF08E
:10D5B000E1FE85F8F46685F8F566F4E63BF0A0FF39
:10D5C000F1E600BF584D0020F0B80608E1FF03085F
:10D5D00026B906082DE9F843A54C94F84B322DEDF9
:10D5E0000A8B0546002B4BD004F29C53D4ED8F6A76
:10D5F000D3ED0E7A9FED9F7A9FED9F5ADFED9F4A04
:10D6000094EDD34AD4EDD23A94EDDE6AD4EDDD5AEE
:10D6100067EEA67AB6EE003A67EE877AB7EE007A42
:10D6200067EEA76A66EE836AB0EE473AA6EEC53AA1
:10D63000A6EEE47A67EE837AB0EE443A26EE877A75
:10D64000A7EE863AF0EE636AE7EEA56A67EEA34AB4
:10D6500027EE845AE7EE254AA7EE065AF0EE437A03
:10D66000E7EE636AE7EE447A75EEE45A36EE456A11
:10D67000C4EDDD5AC4EDD26A84EDDE6AC4EDD37A1E
:10D6800094F84432022B00F08F84032B00F0D482F4
:10D69000012B00F00181DFF8FC81B8F8F86616F084
:10D6A000430740F0FD8616F0040094ED280A41F08F
:10D6B0006D8116F00807724D41F01E8294F8D091EA
:10D6C000B9F1000F41F03581D4EDB77A84EDD00A7D
:10D6D00020EE270A0023C4F8243384EDCC0A84ED1D
:10D6E000CF0AC4F82833C4F82C33002F41F01C8132
:10D6F000720794ED290A01F14481330701F1AC81ED
:10D70000B9F1000F41F00481D4EDBE7A84EDDB0A5B
:10D7100020EE270A0027C4F8507384EDD70A84ED61
:10D72000DA0AC4F85473C4F85873FBF7E7FAD4ED77
:10D73000C57A98F8F626534EC4F87C7320EE278AF3
:10D74000C4F88073F0EE488AC4F8847384EDE28AEA
:10D7500084EDE58A02F0010294F8D031D4ED2B7A01
:10D76000002B40F0CE869FED487A98F8FC3667EEA5
:10D77000877A002BBFEE000AB7EE00BA08BFB0EE02
:10D7800040BAC4EDA17A002A00F0D58795F8B43AE2
:10D790001BB11FF073FA2BEE00BAD6ED04CA94ED5C
:10D7A000AE9A94EDAF6AD6ED5DBAD4EDB16A94ED60
:10D7B000B07AD4EDB27AD4F88C327CEEC95AF0EE5D
:10D7C000ECAAA5EE869AF0EEEB9A3CEEC9CA6AEE98
:10D7D000A6AA69EE879AB0EECCAA2AEE27AA3AEE5C
:10D7E000A90A84EDAE9A30EE0A0A2BB12748984771
:10D7F00094EDE28AD4EDE58A94F8743520EE0B0AB4
:10D80000482B30EE088A70EE288A84EDE28AC4ED57
:10D81000E58A00F03587D4EDB37AD4EDD76A94ED7C
:10D82000DA7A6CEEA77A472B76EEA76A37EE277A7C
:10D83000C4EDD76A84EDDA7A11D19FED157A6CEEDA
:10D8400087CA67EE877AFDEEECCAFDEEE77A1CEE3A
:10D85000903AC4F87C3517EE903AC4F8803595F8C4
:10D86000A03C002B40F06187BDEC0A8BBDE8F8833B
:10D87000F800001035FA8E3CABAAAA3EABAA2A3EAD
:10D88000F0110010141B00106F12833A8C0300106B
:10D8900000007A44A8460020DFF88C83B8F8F836F8
:10D8A00013F0430040F0ED8513F0040294ED28AA34
:10D8B00041F05E801E07D24D01F1108194F8D03105
:10D8C000002B40F0FC87CF4ED4F8AC3396ED0C9A89
:10D8D00084EDD0AA33B1B0EE490AA6F5F4709847AA
:10D8E000B0EE409A7AEE498AD4F83C3484EDD19A6D
:10D8F000B0EE680A0BB1C4489847C44BD4EDB49A53
:10D90000D3ED007A93ED016AD3ED026AB5F83C0AD3
:10D910001A4632ED018AB1EE497A77EE677A28EE3F
:10D92000468A60EE299AA7EEA68A83ED007A82EDF8
:10D93000008AC4EDC99A002800F06B8794F847323A
