:020000040800F2
:10000000F0FF012045370608D5E50008195504081A
:10001000BD370608BD370608BD37060800000000DA
:10002000000000000000000000000000D1E5000812
:10003000CDE5000800000000C9E500087D55040872
:10004000BD370608BD370608BD370608BD370608A8
:10005000BD370608BD37060875BC04083DBC04085A
:1000600005BC0408CDBB040895BB04080DEE0508CB
:10007000FDED0508EDED0508DDED0508C9ED050808
:10008000B5ED0508A1ED0508BD3706080000000024
:100090000000000000000000000000005DBB04083C
:1000A000411304089113040831130408B913040818
:1000B000811304087113040861130408952F0608BE
:1000C0009D2F0608892F0608912F0608BD370608C0
:1000D000BD370608B1A604089D850408000000008D
:1000E00025BB0408BD3706088DFE0008000000008F
:1000F0000000000000000000000000008DED050879
:1001000000000000BD37060851130408BD3706087B
:1001100000000000000000000000000000000000DF
:1001200079ED050865ED050851ED05083DED05087B
:1001300029ED05080000000000000000000000009C
:100140000000000000000000000000004DDF00087B
:1001500015ED050801ED0508EDEC0508E58404083A
:100160007D2F0608852F0608000000000000000013
:10017000000000000000000000000000000000007F
:1001800000000000BD37060800000000000000006D
:08019000BD370608BD37060863
:08019800E43206000100000042
:1001A0000E0201000200000040610020F861002002
:1001B00000000000BC660708F46100201302010083
:1001C00004000000702800200062002000000000F1
:1001D000BE660708FC610020031101000A00000050
:1001E000886000200862002000000000290B010840
:1001F000046200202320010010000000D45E0020D3
:100200001862002000000000395B02081462002020
:100210000D1001004C000000446100202C62002001
:100220000000000029FB03082862002009020100E9
:1002300001000000305E00207C6200200000000011
:10024000C2660708786200202C0005001400000038
:10025000185E00208462002000000000197C020863
:1002600080620020FD01010024000000E05D00200C
:100270009C62002000000000D789040898620020DA
:10028000160215003F000000CC290020C4620020A7
:1002900000000000D1280508C062002006100100FF
:1002A000300000003C29002008630020000000000E
:1002B0006D29050804630020FB0101000100000016
:1002C0007C5900203C63002000000000092905083B
:1002D00038630020FC01010009000000485800209C
:1002E000446300200000000011290508406300203D
:1002F000F701010006000000405800205463002070
:1003000000000000C466070850630020F9010100E6
:10031000040000003C580020606300200000000042
:10032000918A04085C6300201102010008000000AB
:10033000745100206863002000000000CA660708AE
:100340006463002012120100040000006C510020C0
:100350007463002000000000D2660708706300206C
:1003600018300100300000003C5100207C63002068
:1003700000000000B531050878630020E8030100A3
:100380000400000030500020B06300200000000096
:10039000DD290508AC630020000201000B0000000D
:1003A000D84C0020B863002000000000012A050896
:1003B000B4630020FF21010005000000844C0020F0
:1003C000C863002000000000F9280508C46300206D
:1003D000081203000F000000904C0020D46300209E
:1003E00000000000092A0508D0630020FA0101007E
:1003F00003000000F0450020E8630020000000003A
:10040000E9290508E46300200C0201000400000053
:1004100080440020F063002000000000CD29050882
:10042000EC630020FE01010014000000F8360020FB
:10043000F863002000000000612A0508F463002032
:1004400012300100110000002C980020A898002014
:1004500000000000D8660708A49800200B300100B7
:100460001E000000A8900020F89800200000000066
:10047000EA660708F49800201F50010024000000DD
:10048000689000201C990020000000000867070801
:1004900018990020050201000A000000F88F0020D2
:1004A00044990020000000002C67070840990020B4
:1004B0001B02010010000000D09D002070A600204B
:1004C00000000000292905086CA600201B2001005F
:1004D000140000008C9A002084A600200000000078
:1004E000C57A010880A600202102010068010000F1
:1004F000C89A0020A0A6002000000000497B010847
:1005000098A600203710010030000000B09F0020A6
:100510000CA80020000000003867070808A8002089
:100520002F1001002200000048A6002040A8002053
:1005300000000000686707083CA800202322010093
:1005400010000000FC9C002068A8002000000000B3
:100550008C67070864A800201E0001000900000045
:10056000E89C00207CA80020000000009C67070891
:1005700078A800200520010008000000709D0020E0
:100580008CA8002000000000A867070888A80020A9
:10059000FD0701007A0000005899002098A800206B
:1005A000000000009972010894A80020F591010054
:1005B0006C000000189A002018A90020000000001C
:1005C0004585010814A9002026100100080000003C
:1005D00090A9002088A9002000000000A170010857
:1005E00084A9002010100100020000007CD100202E
:1005F000A4D1002000000000B0670708A0D10020AF
:10060000283001001600000064D10020ACD1002089
:100610000000000005930208A8D10020200201007C
:100620006000000004D10020C8D1002000000000BC
:1006300000000000C4D100201900010006000000E5
:10064000FCD000202CD2002000000000B267070878
:1006500028D20020012001000C00000054BF00201F
:1006600038D2002000000000B867070834D200200C
:100670000C4006000801000038BD002048D20020D0
:100680000000000071F7020844D200200E000600AE
:100690001803000070C2002054D3002000000000A6
:1006A0004D29050850D300200A90010020000000C9
:1006B00004BD002070D60020000000000D5B020881
:1006C0006CD600201310010004000000B4CA002002
:1006D00094D6002000000000C467070890D60020D0
:1006E00000010100040000004CBC00209CD600204A
:1006F00000000000C867070898D60020020101002A
:100700000300000048BC0020A4D600200000000028
:1007100091840308A0D60020220201001C010000E1
:1007200078C80020ACD60020000000006D3105081C
:10073000A8D60020010201000B00000058BC0020D8
:10074000CCD7002000000000F1290508C8D7002000
:1007500002020100030000009CBF0020DCD7002043
:100760000000000000000000D8D700203400010085
:1007700008000000B8E30020ECE4002000000000C6
:10078000558F0208E8E400202A00080080000000DD
:1007900028E30020F8E4002000000000298F020870
:1007A000F4E40020EA0301000E0000007CDD0020DC
:1007B0007CE5002000000000CC67070878E50020F9
:1007C000E903010018000000F4E2002090E5002099
:1007D00000000000DA6707088CE500202B001200FB
:1007E00024000000D0E50020ACE50020000000005F
:1007F000ED7B0208A8E50020292014007800000005
:10080000B0E00020F8E5002000000000000000003B
:10081000F4E50020F62101000C00000098DE002025
:1008200074E6002000000000F467070870E600206E
:100830001C0202001C00000044DE0020C8E600206C
:1008400000000000B12D0508C4E6002038000100BA
:1008500007000000E8E60020ECF80020000000009F
:1008600000680708E8F80020EC031D00AE00000057
:10087000ACE80020F8F800200000000089F1020830
:10088000F4F80020EB03200000010000B8F1002084
:10089000ACF900200000000000000000A8F90020D2
:1008A00025302000000200003CFD0020D40401207F
:1008B0000000000000000000D00401202902010017
:1008C0004000000094FB0020D8060120000000003A
:1008D00008680708D40601202C020100040000006B
:1008E0002CFD00201C0701200000000048680708BC
:1008F00018070120031201003D00000050020120F2
:1009000044070120000000004C6807084007012050
:10091000F83101000200000084FF00208807012058
:10092000000000008A680708840701200200010017
:100930000C00000030FD00209007012000000000A6
:10094000000000008C0701203900010005000000B4
:10095000A4010120A007012000000000C128050813
:100960009C070120061203001200000090010120E4
:10097000AC07012000000000812E0508A807012017
:100980001D0202000600000060010120C4070120D2
:100990000000000000000000C00701200A02010062
:1009A00014000000F0FB002050180120000000009F
:1009B0005D8403084C1801201A0201004900000060
:1009C0007C180120A8210120000000000132050848
:1009D000A421012028020400040000009822012024
:1009E000A42301200000000049290508A0230120BC
:1009F000270204000400000094220120AC230120FF
:100A0000000000003D290508A82301201F0208005E
:100A10001000000084220120B42301200000000007
:100A2000D5280508B023012016100100040000009D
:100A30007C2501205C2A0120000000008C6807084A
:040A4000582A01200F
:100A44000403090412010002EF0201408304563238
:100A54000002010203010000120100020202004030
:100A6400830440570002010203010000FFFFFFFF5F
:100A74000000000000000000010000000000000071
:100A840000000000273600200000000001000000E4
:100A94000000000000000000000000000000000052
:100AA4000000000000000000000000000000000042
:100AB4000000000000000000010000000000000031
:100AC40000600240106002400000000000000000CE
:100AD40000000000000B0000000000000000000007
:100AE4000000000000600240286002400100000095
:100AF4000000000000000000060C000000000000E0
:100B0400000000000000000000600240406002405D
:100B1400020000000000000000000000100D0000B2
:100B2400000000000000000000000000006002401F
:100B340058600240030000000000000000000000B4
:100B4400160E00000000000000000000000000007D
:100B540000600240706002400400000000000000D9
:100B640000000000200F0000000000000000000052
:100B740000000000006002408860024005000000A0
:100B8400000000000000000026100000000000002B
:100B9400000000000000000000600240A06002406D
:100BA40006000000000000000000000030110000FA
:100BB400000000000000000000000000006002408F
:100BC400B8600240070000000000000000000000C0
:100BD400362F0000000000000000000000000000AC
:100BE40000640240106402400000000000000000A5
:100BF40000000000003800000000000000000000B9
:100C0400000000000064024028640240010000006B
:100C14000000000000000000063900000000000091
:100C24000000000000000000006402404064024034
:100C3400020000000000000000000000103A000064
:100C440000000000000000000000000000640240FA
:100C5400586402400300000000000000000000008F
:100C6400163B00000000000000000000000000002F
:100C740000640240706402400400000000000000B0
:100C840000000000203C0000000000000000000004
:100C94000000000000640240886402400500000077
:100CA40000000000000000002644000000000000D6
:100CB400000000000000000000640240A064024044
:100CC40006000000000000000000000030450000A5
:100CD400000000000000000000000000006402406A
:100CE400B86402400700000000000000000000009B
:100CF4003646000000000000000000000000000074
:100D04007D000000B5850008B1850008AD850008A8
:100D1400A18500089D850008A9850008A58500080F
:100D2400A1A20008F1880008E18A00087191000876
:100D3400ED910008B5920008DD880008CD86000812
:100D4400C5860008010000000000803FE139010869
:100D5400E53E01085D3A0108E1030108C505010803
:100D6400F10301080D040108B9030108A9030108EE
:100D7400000000000000000009022000010104C07E
:100D840032090400000208065005070581024000EC
:100D9400000705010240000009026400030100C0CD
:100DA40032090400000103000000092111010001BF
:100DB4002236000705830309000A080B0102020218
:100DC40001000904010001020201000524001001D0
:100DD4000524010002042402020524060102070579
:100DE40082030800FF09040200020A00000007054C
:100DF400010240000007058102400000090243008F
:100E0400020100C0320904000001020201000524AD
:100E14000010010524010001042402020524060037
:100E240001070582030800FF09040100020A00000B
:100E34000007050102400000070581024000000090
:100E4400FF000000140000FF00000000000000008C
:100E5400AA5507010000AA55050100002D202D2DDB
:100E6400202D2D2D2D202D2D2D2D000000000000D6
:100E74000000000000000000000000087C65060877
:100E8400FF1FFF1F01000000FFFFFFFF0501090511
:100E9400A101A100050109300931093209330935DD
:100EA4000934093609371581257F750895088102AB
:100EB4000509190129081500250195087501810204
:100EC400C0C0000009022200010100E03209040050
:100ED400000103010200092111010001223600076B
:100EE40005830309000A0000000000000102030456
:100EF4000102030406070809AA550B010000AA55BC
:100F040005010000AA550902000000AA5503009F2C
:100F140001000000C0120000EC9800200000000056
:100F2400BC98002000000000010000000F00000039
:100F34000200000001000000000001007EFFFF002D
:100F4400FFFFFFFF0101FF01E001010065E9010866
:100F54000000000000000000E86B060808FF000025
:100F640000000000000000000000000024820608C9
:100F7400000000000000000000000000DC82060801
:100F84000000000000000000000000008882060845
:100F940000000000000000000DFE010838C200201F
:100FA40001010000D9140208911602080000000093
:100FB400408406081D140208000000000000000020
:100FC400A48306087918020800000000000000004D
:100FD4005C8306082D202D2D202D2D2D2D202D2D2B
:100FE4002D000000000000000000000000000000D0
:100FF40000000000FFFFFFFFD1080208000000000E
:1010040000000000B481060801000000FA0000009E
:101014000100000001000000010100009CBE00204E
:101024000000F401010000009ABE00200000F40159
:101034000100000098BE00200000F401010000003F
:1010440096BE00200000F4010100000094BE0020C0
:101054000000F4010100000092BE00200000F40131
:101064000100000090BE00200000F4010100000017
:1010740049F001080DF0010800000000D4700608D2
:1010840080BE0020053201008EBE00206400F40101
:10109400010000008CBE00206400C40901000000AF
:1010A4007EBE0020E803D007010000007CBE0020C3
:1010B400E803D007010000007ABE0020E803D0074F
:1010C4000100000078BE00201E00B80B01000000E3
:1010D40086BE002005000F000100000088BE00202D
:1010E40003000A000100000076BE00201E00F40187
:1010F400010000008ABE00200200000060710608A2
:1011040074BE0020140064000100000082BE0020B0
:101114003200E8030100000072BE00200000C80095
:101124000100000004E306080CE3060836C20020B0
:101134000100C4090000000034C200200100C409F9
:101144000000000032C200200100C40900000000B9
:1011540030C200200100C409000000002AC200209F
:101164000100C409000000002EC200200100C409CF
:101174000000000028C200200100C4090000000093
:1011840026C200200100C4090000000079BC002030
:1011940000C8010078BC002000C8010076BC002013
:1011A4000000FFFF0A00000074BC00200100C8001A
:1011B4000100000072BC00203200307532000000D3
:1011C40070BC00207EFF1400050000006EBC0020EF
:1011D40005002C01050000006CBC0020055A050028
:1011E40069BC002000FF01006BBC0020020000006D
:1011F4007C08002067BC0020030000001C66060871
:1012040068BC002000FF01006ABC0020020000004E
:101214007C08002066BC0020030000001C66060851
:10122400BCBB0020FF7F0100B8BB00200000000011
:10123400FFFFFFFF01000000B4BB0020000000001E
:10124400FFFFFFFF01000000B0BB00200000000012
:10125400FFFFFFFF010000009DEF01082DEF0108D3
:10126400000000008471060864BF0020EE02CA0872
:101274000100000062BF002000C8010064000000FB
:1012840061BF002002C801006400000060BF0020AC
:10129400020000006C71060852BC00200083007D2F
:1012A4000500000050BC002080C1803E0500000005
:1012B4004BBC002000FF010044BC00206400F4018A
:1012C4000100000042BC00206400F40101000000A1
:1012D40040BC00206400F401010000003EBC00207A
:1012E40003000000907206083DBC002002000000CC
:1012F400A072060801BD00200D000000AC720608B3
:10130400FEBC002000640100FCBC00203200102759
:101314000A000000FABC00200D000000AC720608B0
:10132400F9BC00200D000000AC720608F8BC0020D7
:1013340003000000E4720608000000000000000042
:1013440000000000F47206086ABF00204A00000092
:101354002C73060868BF00200100401F0100000034
:1013640067BF0020030000005874060803BD002076
:10137400030000006874060802BD0020030000009A
:101384006874060826BD00200000E8030100000080
:1013940024BD00200000E8030100000034BD00204B
:1013A400020000007871060832BD00200000F4013C
:1013B4000100000030BD00200000F4010100000025
:1013C4002EBD00200000F401010000002CBD00200F
:1013D4000000F401010000002ABD00200000E80321
:1013E4000100000028BD00200000E8030100000007
:1013F40059BE0020006401000A00000058BE00200D
:10140400006401000A00000052BE002000640100D4
:101414000A00000051BE0020006401000A00000020
:1014240050BE0020006401000A00000056BE0020E7
:1014340000FF01000A00000055BE002000FF01006B
:101444000A00000054BE002000FF01000A00000052
:101454004EBE002001FF01000A0000004DBE002026
:1014640001FF01000A0000004CBE002001FF010042
:101474000A0000008AC5002000C8010089C50020B8
:1014840000C8010088C5002000C8010098C50020DC
:101494000000D0070100000093C5002000C801002F
:1014A40092C5002000C8010091C5002000C80100B9
:1014B40096C500200000D0070100000090C5002060
:1014C40000C801008FC5002000C801008EC500209F
:1014D40000C8010094C500200000D00701000000EE
:1014E4008DC5002000C801008CC5002000C8010083
:1014F4008BC5002000C8010090F006080000000021
:10150400000084D100209CF00608070000000000C1
:10151400480C0020A4F00608070000000000400C5E
:101524000020ACF00608070000000000380C002082
:10153400B4F006080800000000002C0C0020BCF0E9
:101544000608070000000000240C0020C4F0060870
:101554000700000000001C0C0020CCF00608070067
:1015640000000000140C0020D4F00608080000005D
:101574000000080C0020DCF0060807000000000052
:10158400000C0020E4F00608070000000000F80B3F
:101594000020ECF00608070000000000F00B00201B
:1015A400F4F00608080000000000E40B0020B0E29C
:1015B4000608010000000000000000000000000018
:1015C40010000000000000000000000099ED010878
:1015D4007DED0108AD08020878740608F4BC00200B
:1015E400E803D00701000000000000000000000034
:1015F4004DFE01081475060865BC002003000000B8
:101604006875060864BC00200003010063BC002068
:1016140000030100E9EC01089DEC01080000000052
:10162400787506085DEC010815EC0108000000005F
:101634001476060835ED0108910802080000000040
:101644009476060854BC00200103010029E901082E
:1016540001E9010800000000F879060835F10108E5
:1016640009F1010800000000787A060895EB0108EA
:101674004DEB010800000000E87A0608A9ED010816
:101684008D20020800000000847B0608610C02081B
:1016940061F10108000000002C7C0608F9ED010846
:1016A4000000000000000000C87C060829EE0108C4
:1016B4000DEE0108000000002C7D060889EE0108EB
:1016C40045EE010800000000747D06087159020807
:1016D400CDEE010800000000007E060870BE002068
:1016E400010601002D590208590A020800000000F1
:1016F400C47E0608B9590208950A020800000000D1
:10170400500C00206FBE00200106010065ED0108A9
:101714004DED010800000000187F0608310802089A
:101724000000000000000000607F0608DDEB0108F7
:101734007908020800000000FC7F06080000000091
:1017440000000000000000009880060805EF010872
:101754000D0B0208000000001881060800000000BC
:10176400000000000000000024830608D08F002041
:101774009CFF2C010000000028CA0020E0150C1773
:10178400000000002ACA0020020000002885060884
:1017940039BC0020020000002885060834BC002063
:1017A40088136F170100000036BC002088136F17E0
:1017B40000000000BC6000200000000000000000E9
:1017C400BA6000200000000000000000B8600020A3
:1017D4000000000000000000B660002000000000CF
:1017E40000000000B46000200000000000000000C1
:1017F400B260002000000000000000006C06002021
:101804000000000000000000BDBB00200300000039
:10181400A48406082CBC002088136F170100000064
:101824009295002088136F17000000002DEA01082C
:101834000000000000000000B4840608F1C100208C
:1018440001000000088506089495002001000000AE
:10185400148506088A950020020000001C850608ED
:1018640000000000000000000000000034850608AD
:1018740015EA01080000000000000000D0850608F9
:10188400000000000000000000000000248606089C
:10189400000000000000000000000000948606081C
:1018A40038BC002002000000288506088E95002020
:1018B400E0150C170000000058D90020ACD9002016
:1018C40001F11F3FD601FF010001010100000000EA
:1018D4000000803F00000000000000000000000045
:1018E4000000803F00000000000000000000000035
:1018F40000000000000000000000000000000000E4
:101904000000000000000000094D05080000000070
:10191400000000000000000000000000300701206B
:10192400080000000000000020070120080000005B
:1019340039390108D5040108D13801080000000034
:10194400A5030108B94101082138010875340108CB
:10195400000000000000000065030108C5850008C0
:10196400B9850008ED90000809910008D19000089D
:10197400B590000899900008F1380108B1040108F5
:1019840025380108000000007D03010879340108AE
:10199400F5370108E13301080000000000000000F1
:1019A40071030108010000000490060828110020BA
:1019B400D9BD030800000000000000000000000082
:1019C400E1860308000000000000000000000000A1
:1019D400270B0108230B01081B0B0108010901084F
:1019E400511401087D14010805140108110B0108A4
:1019F400010B0108F10A0108E10A01088D08010838
:101A040000000000B40C070814DC06080000000005
:101A14000D850308A086010004000000B40C07082B
:101A2400BC0C070800000000D1010408E803000012
:101A34000400000030E90608000000000000000077
:101A4400AD4503087D000000FF00000000E7060824
:101A54000000000000000000411003087D000000A9
:101A6400FF000000B8EB06080000000000000000C2
:101A7400B91603087D000000FF00000038E90608DD
:101A8400000000000000000099FB0308E8030000C8
:101A940003000000C40C0708000000000000000060
:101AA40025570308D0070000030000001C5707084F
:101AB400000000005D7A0208C15C04085F76000043
:101AC40005000000985A070800000000000000000C
:101AD400558604081027000002000000D00C0708F7
:101AE4000000000000000000FDFA0308E803000005
:101AF40005000000DC0C07080000000000000000E6
:101B0400458803081027000003000000EC0C0708B8
:101B14000000000000000000F18603081027000008
:101B240003000000FC0C0708000000000000000097
:101B3400C5590408400D030003000000ACF8060872
:101B44000000000000000000E15604081027000017
:101B54000200000040DC0608000000000000000055
:101B6400F9CC010810270000030000000C0D070841
:101B74000000000000000000D5FE0308A08601005C
:101B840002000000A8E706080000000000000000B2
:101B94009D50040850C3000002000000C8F8060865
:101BA400000000000000000015240408A00F00003D
:101BB40002000000140D07080000000000000000EF
:101BC40099B50108102700000200000080F2060801
:101BD400000000004D7201087DA90108854501003F
:101BE400020000002CE506080000000000000000D0
:101BF4004D180108102700000200000028DC060828
:101C04000000000000000000D529020850C30000B5
:101C140002000000200D0708000000000000000082
:101C2400E9140108400D030001000000280D070815
:101C34000000000000000000B9FA0308400D030092
:101C440002000000300D0708000000000000000042
:101C5400C9DC010850C30000030000003C0D070864
:101C64000000000000000000BD8F030840420F0088
:101C740001000000480D07080000000000000000FB
:101C840071FB030850C3000001000000540D070855
:101C94000000000000000000F543010810270000C8
:101CA4000200000001000000A00F0000B80B0000BB
:101CB4000102FFFF0102FF00FFFF0000FFFFFFFF23
:101CC400F85607080000080205030300000000009E
:101CD400045707080100080205040300000000007F
:101CE4001057070800000802050303000000000065
:101CF400185707080100080205040300000000004B
:101D0400E4F506080200FE010110030000000000D3
:101D14005CE6060803001402000300000000000053
:101D24002057070804001F020200080000000000FA
:101D34002857070805001F020201080000000000E0
:101D44001A03000000000000000000000000000072
:101D5400000000000000000000000000040309046B
:101D64001201000200000040830420570002010217
:101D740003010100020000000000000030160020F2
:101D8400542A01200200000001000000812C0508F3
:101D94002C160020000000000100000001000000DB
:101DA400BD2C0508CC140020000000000000000039
:101DB400000000000000000000000000000000001F
:101DC400000000000100000000000000000000000E
:101DD40000000000000000000100000000000000FE
:101DE40000000000000000000000000001000000EE
:101DF40000000000D8000000000000000500000002
:101E040006000000FFFFFFFF0300000000000000C9
:101E14000500000005000000553805083D38050898
:101E24002D380508892A0508DD3705088537050892
:101E3400792A0508341600208D320508912A0508F0
:101E44008D2A0508852A05089D320508812A05087A
:101E54007D2A0508B0D006085541010891040108FF
:101E6400354001080000000000000000CD370108E3
:101E7400DD36010800000000000000000000000042
:101E840059030108292B05081D2B0508B938050835
:101E9400D5380508D52A05089D3805088138050870
:101EA4001F0000001C0000001F0000001E000000B6
:101EB4001F0000001E0000001F0000001F000000A3
:101EC4001E0000001F0000001E0000001F00000094
:101ED4000068214C0600000005000000008002029A
:101EE4001F00000053544D202020202050726F64A6
:101EF400757420202020202020202020302E3031F6
:101F04000101FF00000000000000000000000000CC
:101F140001000000000000000000000000000000BC
:101F2400000000000100000000000000FF000000AD
:101F3400F40100000000040100000200010000029E
:101F44001000000007000000000000000000000076
:101F54000102030406070809C70000000500000089
:101F640006FF0000C0160020000000007C66070881
:101F74009C6607085C66070800000000000000007B
:101F8400000000000000000000000000000000004D
:101F9400000000000000000000000000000000003D
:101FA400000000000000000000000000000000002D
:101FB400000000000000000000000000000000001D
:081FC400000000000000000015
:08280000082800080040000850
:04400000FFFFFFFFC0
:10800000024B9A6D136A002BFCD170472017002099
:108010001248002302461178032902F1060218D003
:108020000133062BF7D10E4AD2F81831052B0FD0A9
:10803000591C03EB4303C2F8181100EB4303032060
:1080400040F2EB3140F2FF32187059809A8070474D
:10805000704703EB430300EB4303F0E714180020E1
:10806000201700209FED737A9FED736A60EE877A88
:10807000F4EEC07AF1EE10FA98BFB0EE670A60EE47
:10808000067AC7EEA06AFDEEE67A17EE903A203344
:10809000402B00F2C080DFED697AF4EEE76AF1EE82
:1080A00010FAF0EE667A0ADDDFED655AB0EE677A17
:1080B000B4EEE57AF1EE10FA77EEC67AF6DC9FEDD3
:1080C000617AF4EEC77AF1EE10FA0CD5DFED5A5A68
:1080D0009FED5D6AB0EE677AB4EEC67AF1EE10FA03
:1080E00077EEA57AF6D49FED597AF4EEC77AF1EEE1
:1080F00010FA00F388809FED567AF4EEC77AF1EE1D
:1081000010FA44BF9FED4F7A77EE677A67EEA75A71
:108110009FED505A9FED507A9FED506AA5EE857AFB
:1081200027EEA55AA5EE876AB6EE007AE5EE067A46
:1081300027EE877A9FED456A76EE867AFDEEE75A5E
:1081400015EE903A2033402B62D8F4EEC66AF1EE79
:1081500010FA0CDDDFED385A9FED396AF0EE676AF0
:10816000F4EEC66AF1EE10FA77EEE57AF6DCDFEDB2
:10817000356AF4EEE67AF1EE10FA0CD5DFED2E5A00
:108180009FED316AF0EE676AF4EEC66AF1EE10FA1E
:1081900077EEA57AF6D4DFED2D6AF4EEE67AF1EE0D
:1081A00010FA3BDDDFED256A76EEE77A67EEA75A37
:1081B0009FED285A9FED286ADFED286AA5EE856AB3
:1081C00027EEA55AE5EE866AB8EE006AE5EE267A55
:1081D00067EE867AC7EE016AB7EE006A76EE865AD7
:1081E00076EE666A86EE257A67EE277A66EE876A0D
:1081F000C0ED057AC0ED077A80ED047A80ED067A4D
:10820000C0ED086A70479FED0D7A77EE677A7DE7DB
:10821000DFED137ADEE79FED127A8BE7DFED0C6A74
:10822000F4EEE67AF1EE10FA44BFDFED066A76EE80
:10823000E77ABBE73333F33EDB0FC940DB0F49403E
:10824000E4CB1641DB0F49C0E4CB16C1DB0FC93FBD
:10825000DB0FC9BF92E741B99730083C15A82ABE89
:108260000000000030B51349134B8DB008250122E2
:1082700001F15800069381F8F05000230DEB050141
:108280000DF10704CDE90733CDE9034202938DF8E0
:10829000143009930B938DF8282043F06FFFFFF7FC
:1082A000AFFE9DF80700A0F1FF00B0FA80F0400992
:1082B0000DB030BD20170020BD820008826D136A0A
:1082C0005B681B78FF2B08D090F8F030013BDBB2E5
:1082D00080F8F0301BB10120704700207047126A0F
:1082E000526802201370704770B4C3080D4CE25CF2
:1082F00000F00706B24004EBD004D2B20020C6F171
:1083000008038B4228BF0B46C3F108052A41984059
:10831000C91A40EA02004FF0000614F8012FEED10E
:1083200070BC704760170020084AD2E94731994273
:108330000AD0D118013391F824110170C3F30A0354
:10834000C2F81C3101207047002070472017002020
:10835000044BD3E94730C01AC0F30A00C0F50060EF
:10836000704700BF20170020012380F8513070476C
:1083700007B501A8FFF7D8FF0028FAD09DF8040040
:1083800003B05DF804FB034BD3E94730C01AC0F3D8
:108390000A0070472017002001207047024BC3F8E5
:1083A0002429C3F82819704720170020024BC3F86E
:1083B0002C29C3F8301970472017002070477047E8
:1083C00030B4114DD5E947239A1AC2F30A020A4480
:1083D000B2F5006F13D8A9B101444A1E013810F854
:1083E000014FE918824203F1010381F82441C3F3EC
:1083F0000A03F4D1C5F82031002030BC70470220B8
:1084000030BC70470846F8E72017002070B5144CC0
:1084100094F83439002BFBD1F9B101444E1E451EAE
:1084200002E001203CF0D8FFD4F83839D4F83C29D8
:108430000133C3F30A039342F3D0D4F83829D4F8B4
:10844000383915F8011F22440133C3F30A03B5423A
:1084500082F84019C4F83839E6D1002070BD00BF59
:108460002017002010B5074CA36C0846114643B1F5
:10847000A36C052B05D1002AE36C02DDFFF7C6FFD4
:10848000E36C10BD1828002010B590F850100023A0
:1084900080F8503061B1094CA26C5AB1A26C052A27
:1084A0000AD13C30E36CFFF7B1FFE36C012010BD53
:1084B0000120FCE71046FAE71846F8E718280020E4
:1084C000002280F85120DFE790F85020531C02442E
:1084D000DBB280F8503082F83C1090F851200AB19D
:1084E000132B00D9D0E77047212838B50C4605D0AA
:1084F00022282DD0202812D0002038BD0029FBD002
:10850000072AF9D1194B186D93F8541093F8552098
:1085100093F85630206021716271A371ECE7002955
:10852000EAD0072AE8D1124AD2F828391BB1D2F88A
:108530002409096898470D4B256820796179A2794B
:108540001D6583F8540083F8551083F85620D3E74F
:108550000029D1D0022ACFD1054AD2F83039002BD8
:10856000CAD00988D2F82C099847C5E718280020F6
:1085700020170020014B0020986470471828002025
:10858000044B054A002005219164C3F83009C3F863
:10859000280970472017002018280020704700BFC6
:1085A000704700BF704700BF704700BF704700BFF3
:1085B000704700BF704700BF042301480B8070471D
:1085C0009801002010B4074A074B92F85800122473
:1085D00003F114020C8001280CBF184610465DF808
:1085E000044B7047182800209C010020A0B182682D
:1085F0000D4B12B107229A7070471978DA6003297F
:108600004FF004000CBF80214FF48071C3E90111C9
:108610001A611A7598707047034B41F2E471012298
:108620005A545A70704700BF0C7400200378022B14
:1086300010D0006908B9012070470C4B1B78032B40
:108640000EBF0B4B80B24FF6F773984294BF0020D9
:10865000012070470549436841F650028A58B3EB40
:10866000422F2CBF01200020704700BF0C74002057
:10867000F7FFFF0F0378022B14D030B4104A436881
:10868000006941F6480402F5C2511559096841F6DE
:108690003C042B4012595B0A023801FB00301044A5
:1086A00030BC7047064B426841F6340141F6300059
:1086B0005958185800EB410000EB5220704700BF9A
:1086C0000C7400200048704748170020034B93F8B3
:1086D0002400032894BF00200120704720170020A9
:1086E00070B592B00B0E0D0C40F04006952204467A
:1086F0008DF80810080A01A98DF805308DF806508C
:10870000002306258DF807008DF809200DF10300E0
:108710000122039114498DF80460CDE90733CDE9B6
:108720000D33CDE9090204938DF818308DF82C3003
:108730000F93119305958DF840200C91FFF792FD52
:1087400000B974B9094B082203F1580003A983F852
:10875000F02043F013FDFFF753FC9DF8030012B027
:1087600070BDFF2012B070BD718700082017002077
:10877000836D1B6A5B681B78FF2B0AD190F8F03081
:10878000002B03F1FF3380F8F03014BF01200220EA
:1087900070470020704700BF30B51049104B8DB0B6
:1087A0000546012201F15800069381F8F05000239C
:1087B00002A90DF10704CDE90733CDE90342029385
:1087C0008DF8143009930B938DF8282043F0D6FCD4
:1087D000FFF716FC9DF807000DB030BD20170020F4
:1087E0007187000870B51B4E90B00024FD22012552
:1087F0000DF1030306F1580001A98DF8032006933B
:10880000CDE90144CDE90A44CDE90C4434628DF848
:108810001040059407948DF824400F940395089513
:108820008DF8385043F0AAFCFFF7EAFB2846FFF723
:10883000B3FFFF2808D0084BDB6C73612046092387
:1088400086F8243010B070BD0423022086F824304E
:1088500010B070BD201700201828002070B5064603
:1088600090B008200D46FFF797FFFF2822D0FE2882
:1088700002D0022010B070BD0024022201230F4854
:10888000089201A98DF83830CDE90544CDE90A44B4
:10889000CDE90C440296039501948DF8104007949D
:1088A0008DF824400F9443F069FCFFF7A9FB2046A4
:1088B00010B070BD012010B070BD00BF781700204F
:1088C00008B5FFF79DFB0A2039F0B2FC024B186E89
:1088D000BDE8084043F0D8B820170020034B93F8B8
:1088E0002400003818BF0120704700BF2017002067
:1088F000F0B50379264C002B14BF012200228BB067
:1089000084F8502003D184F824300BB0F0BD054624
:1089100090F9001004F1580043F0A6FDAD785DBB5E
:1089200001271C482566C4F8EC4084F8647043F0C5
:10893000D1FD194E03464FF47A70A4F85C303CF038
:108940004BFD206E43F0A0F80FCE6D460FC50FCE45
:108950000FC596E8030085E803001048694643F018
:108960000DFCFFF74DFB0E4B84F82470DB6C63614C
:10897000002323760BB0F0BD284642F00BFC0546E1
:1089800008B11E23C3800921284642F0B1FEC7E783
:1089900020170020801A06001C63060878170020A4
:1089A000182800202DE9F84F474B98420ED003F5C8
:1089B0006853083398424BD0444B0020C3E932003F
:1089C000A3F8C400A3F8D000BDE8F88F3F4C404F97
:1089D000DFF808810223E36504F160060025FB6AE5
:1089E000AB42294605F1010503D0D4F8E00050F070
:1089F0009FFA94F8E430D4F8E02086F8243032620C
:108A00003046414650F0A8FCE36D9D4206F1300629
:108A1000E5DB002384F8D230D4E91A03E16DB4F821
:108A20006420B4F87050C4F8F03012FB01F203FB7C
:108A300001F3A4F8C420B4F86610264AA4F8D05074
:108A4000C4E93203A4F8C610C4F8C0200120BBE773
:108A50001E4C1F4F0223E36504F160054FF0000B2D
:108A60004FF4806A4FF040094FF40068FA6A01261B
:108A70005A455946B34403D0D4F8E00050F058FAB0
:108A8000D4F8E01094F8E420296285F824204FF40B
:108A900000314FF00062C5E90212A5F804A0A5F864
:108AA0001090A5F80680AE74FFF7B2FA28466E76ED
:108AB00050F09EFBE26D084B45F8303B9345D5DB0B
:108AC00084F8D260A8E700BF1971EF0018280020D1
:108AD0009801002070630608446306081940EF00FF
:108AE0002DE9F843194C94F82460042E0546894674
:108AF00090461F4608D0082E02D00020BDE8F8831B
:108B0000FFF770FE0228F8D1206E42F0B7FFA37E77
:108B100093B969021120FFF7E3FD98B90C4BC4F833
:108B20000090DA6C65600523C4E90387626184F80C
:108B300024300120BDE8F88329461120FFF7D0FD3D
:108B40000028EBD0FFF7BCFED7E700BF20170020BE
:108B5000182800202DE9F04FBA4DBB4F06460FCD27
:108B600007F1F4042DED048B0FC40FCD0FC497F85B
:108B700026312A6822608BB0022B97F82C210296AE
:108B800000F03682032B00F02C82002B00F035829F
:108B9000DFEDAE7AF0EE678A002AAD49AD4AC7F83C
:108BA0000421AD48AD4BC7F80C010EBF00220122D5
:108BB0000B46039237EEA87AF5EE006AC6EE879A66
:108BC000A74DC7F80831A5F1230B05F160084FF058
:108BD000000A9FEDA48A9FEDA49A27EE888A029B43
:108BE000534540F391811BF8014B002C00F0AD81FF
:108BF000002302E0152B00F0A88103EB43024FEAAB
:108C0000430918F80210A14203F10103F2D13A44DA
:108C100092F8B511002900F0FE81204638F026FEBA
:108C20000646304638F042FE0178002940F08D813A
:108C3000B9440AF1010300930322DBB289F8F5314C
:108C400089F8F421002E00F080814FEA141909F10F
:108C5000FF39B9F1040F04F00F0C00F2A981834C25
:108C600004EB4901B1F8A40040FA0CF111F0010144
:108C700000F09E81012101FA0CFC0CF1FF3C0CEA92
:108C80000000A14401935AF0E5FB99F8B0C0DFF869
:108C9000E4E1019B60440EEBC00C03228CF807302A
:108CA0008CF806205EF83000C5F814C000F13F4390
:108CB00003F57E0304EB9324012194F8B830727A13
:108CC00003F01F045B09032B01FA04F100F0828119
:108CD000042B00F07A81022B00F07281BCF8044072
:108CE000B4FA84F3C3F11F03C3F3CC0100EB810199
:108CF00003F00703D1F820C09B004FF00F0E0EFACF
:108D000003FE2CEA0E0CC1F820C0D1F820C002FAF4
:108D100003F343EA0C0305AA0B62114602230192F6
:108D2000CDE905430BF0F2FD019A039B002B00F007
:108D30002781B7F82431D7F8A0C4346807EE903AF9
:108D4000F8EEE77AFCEEE77A17EE900ABCFBF0F358
:108D500003F57F43FF331B0CBCFBF3F3B3FBF0F0D5
:108D600001381FFA80FE07EE903ABCFBF3F3B8EE31
:108D7000677A2188DFF800C167EE087A013BC5ED0C
:108D8000027A69EE677A6445E7EE287A9BB289B287
:108D9000C5ED037A11D0364884420ED0B4F1804F2D
:108DA0000BD0ACF57C4C644507D00CF5806C644569
:108DB00003D00CF5806C644502D121F0700189B2BA
:108DC000DFF8B8C0644500F0CA800CF5806C6445DB
:108DD00000F0C58021F440710CF56C4C89B26445FB
:108DE0002180C4F82CE0238540F0E5800023238611
:108DF0000120A082337A96F805900021CDE9071171
:108E00004FF0600CADF8181009919907CDF814C017
:108E100040F1AA80DB0003F008030421ADF8223002
:108E2000ADF818104946204638F016F9B9F10C0F84
:108E30002ED8DFE809F0812D2D2D782D2D2D6F2DC9
:108E40002D2D25009C630608182800206F12033979
:108E5000798A04087D8A04089D15030865FA0208CA
:108E60006C2900206F12833A00007A441C630608C4
:108E700000040140382A002000000140001000409A
:108E8000A38B23F400631B041B0C43F40063A38334
:108E90003368B3F844206FEA42426FEA524292B21A
:108EA000A3F844201A88194692B242F0010221F830
:108EB000342B70796B600C1800222C600A50BAF1C8
:108EC000000F00F08C80D7F858118B4200F08E8094
:108ED000BAF1010F00F08380D7F870118B4200F0D7
:108EE0008580BAF1030F7AD1D7F88821D31A18BF39
:108EF0000123DDF800A02B740122BAF1040F6A747B
:108F000005F118057FF46BAE44480BB0BDEC048B43
:108F1000BDE8F08FA38B23F008031B041B0C43F068
:108F20000803A383B4E7238B23F400631B041B0C07
:108F300043F400632383ABE7238B23F008031B0474
:108F40001B0C43F008032383A2E7354A354B00206E
:108F5000C7E942320BB0BDEC048BBDE8F08F218035
:108F6000C4F82CE0238543E75B0003F002034FF4D1
:108F70008071ADF82030ADF81600ADF8241051E73F
:108F8000B0EE690A01925AF021FCFCEEC07AD7F8E3
:108F9000A0C43468019A17EE903ABCFBF3F303F5D2
:108FA0007F43FF331B0C4FF6FE7EBCFBF3F3DAE688
:108FB000696105AAB9E61C4B9C423FF417AF17E75D
:108FC0001A4B5C6C2143596488E6184B1C6B214397
:108FD000196383E6154B1C6C214319647EE601235B
:108FE00087E7DFED137ADFED138AD5E5134680E7D7
:108FF000DFED117AF0EE678ACEE5104BDFED107AE7
:10900000104AC7F8043101230393C7F80C21054B1C
:10901000F0EE678ACEE50E4603E600BF0C2900207D
:1090200085FE0208798A04080004014000380240E5
:10903000ACC5A737ACC5A736282930387D8A0408C7
:109040006F12833A9D150308F8B5104ED6F8A04468
:10905000054600680F4664080BF05CFBB4FBF7F1B3
:10906000B1F5803F03D3012CFAD96408F6E7224614
:10907000284689B238F09AFA054BC6F8083D2846CA
:109080000449BDE8F840002238F09EB918280020B5
:10909000D11902082035002010B5044C04480A46B6
:1090A00021460AF021F9204610BD00BF28350020D6
:1090B0006CD4060810B5044C04480A4621460AF050
:1090C00013F9204610BD00BF283500207CD40608C7
:1090D00010B5044C04480A4621460AF005F920461A
:1090E00010BD00BF2835002088D4060810B5044CF8
:1090F00004480A4621460AF0F7F8204610BD00BF92
:109100002835002094D4060810B5044C04480A46BB
:1091100021460AF0E9F8204610BD00BF283500209E
:10912000A0D4060810B50AF0B3F80E4C48B194F874
:109130002430032B10D8237E0133DBB2072B237698
:1091400003D9002384F8243010BD074A0123D26CD0
:10915000626184F8243010BD044843F0BBF9A4F8E0
:109160005C00E8E72017002018280020801A06007D
:1091700070B51D4C94F82430042B06460D4608D0DB
:10918000082B20D1E36983422BD0FFF72BFB022869
:1091900019D1206E42F072FC00213720FFF7A0FAAF
:1091A00029461720FFF79CFAA8B9A37E6BB9710274
:1091B0001920FFF795FA70B90823C4E9076584F808
:1091C0002430022070BD012070BD31461920FFF708
:1091D00087FA0028F0D0FFF773FBFFF7A3FF032007
:1091E00070BD022070BD00BF201700202DE9F041A6
:1091F0002B4C0546884617461E4694F82400042842
:1092000034D0082806D1E369AB4206D0FFF7EAFA6A
:109210000228F2D00120BDE8F0814FF0FC0CA26DD5
:109220002048117B204B80F80FCEC3F8588051B1F5
:10923000526942B194F8E020002A0CBF4FF48072CA
:109240004FF4007201E04FF480721A661749184813
:1092500042F094FF01220623C4E90085C4E90376A5
:10926000227284F824300020BDE8F081206E42F0A4
:1092700005FCA37E5BB969021820FFF731FA40B9FB
:1092800094F82430082BC8D04FF0FE0CC7E72946CD
:10929000F2E7FFF715FBFFF745FF0320BBE700BF31
:1092A000201700201828002098010020C801002065
:1092B000781700202DE9F04FC54C94F8506095B018
:1092C000002E00F07F8194F82420C24F04F158084A
:1092D00004F14009531E082B00F29580DFE813F0DB
:1092E000330059001E0193008200A3001800930070
:1092F0000900FEF7B7FF002840F018826369FA6C96
:10930000FA3393427CD2FFF70DFF94F82420E1E773
:10931000FEF7A8FF0028F1D0236A0022012B227655
:1093200040F21982E269013B511CC4E9071308228B
:1093300084F82420A2F10806B6FA86F676093046AB
:1093400015B0BDE8F08F206E42F098FB0021084672
:10935000FFF7C6F90546FFF7B3FA012D50D1206E8D
:109360004FF0000A84F819A042F088FB40F2AB11DC
:109370000820FFF7B5F9052800F07881012800F0F2
:109380004181FFF79DFA627E002AD1D0022384F842
:109390002430206E42F072FB637E022B0CBF4FF034
:1093A0008045002500213720FFF79AF9294629201A
:1093B000FFF796F90546FFF783FA0DBB637E022B94
:1093C00000F06781A576206E42F058FB002109204D
:1093D000FFF786F9002872D0FFF772FA94F824207C
:1093E000531E10E020684FF40071FFF737FA012890
:1093F00000F02581022800F02881002800F0388143
:1094000094F82420531EDBB2022B09D8714B6169FA
:10941000DB6C5B1AC82B8DD9FFF784FE94F82420EF
:10942000042A87D18BE7A26D117B136A002900F013
:10943000D5805269002A00F0D18094F8E020002AFB
:1094400000F0CC80B3FA83F35B09002BD8D004A9D9
:1094500000250DF10F0302224FF0010A059140464D
:1094600005A9CDE90B3A0792CDE90955CDE90E558D
:10947000CDE91055ADF8105006958DF820508DF8B7
:10948000345013958DF848A042F078FEFEF7B8FDF1
:109490009DF80F3003F01F03052B00F05081FFF7FC
:1094A00041FED4F80CB0BBF1000F00F0DC802A467E
:1094B000236961685046D84794F824200AE71021B0
:1094C0004846FFF7CBF98246002885D101217F204D
:1094D000FEF70AFF012805467FF47EAF50460221C1
:1094E000FEF702FF002800F0038101287FF474AF2B
:1094F00016213A20FEF7F8FE01308002A062FFF745
:10950000DFF9206E42F0BAFA00210A20FFF7E8F8EE
:10951000002840F0E680032384F82430102105A8B9
:10952000FFF79CF900287FF46BAF9DF821309DF880
:1095300022109DF81C209DF815009DF816501B0167
:10954000DBB243EA111303F5FA636387DDF81D30DC
:1095500001F00F0184F83C101BBA110902F00F0250
:1095600045EA002084F8381084F839209DF814105A
:109570009DF817206363069B2363A08584F82E1053
:1095800084F82F20FFF79CF9A37E6BB9206E42F080
:1095900075FA4FF400711020FFF7A2F80546FFF7A7
:1095A0008FF9002D7FF4AFAE0B4842F093FF0022FD
:1095B0000423A4F85C003046226284F8243015B0FD
:1095C000BDE8F08F304684F8246015B0BDE8F08F18
:1095D000201700201828002040787D012268217A79
:1095E0004FF4807302EB01214046002243F0F4F86F
:1095F000237A0133DBB22372A3F10203B3FA83F3BC
:109600005B0922E7042304AA8DF8340005A940462B
:1096100007930692CDE909AACDE90BAACDF814A0CB
:109620008DF820A0CDF838A042F0A8FDFEF7E8FCA8
:109630009DF81330AB2B04BF02236376A1E6636968
:10964000FA6C64339342BFF4DBAEFFF739F9FFF7EE
:1096500069FDE5683DB10022104623696168A847AD
:1096600094F8242036E694F8242033E6657688E6DC
:109670000190FFF725F9E56801982076042384F826
:109680002430002D3FF45BAED4E900212369A847C4
:10969000B6E6206E42F0F2F929463A20FFF720F8AC
:1096A00004A98246042201230691404605A9079297
:1096B0008DF83430CDE90955CDE90B5505958DF878
:1096C00020500E9542F05AFDFEF79AFCBAF1000FB9
:1096D00007D1FFF7F5F8049B1BBAC3F38073A37699
:1096E00071E6FFF7EDF8FFF71DFD94F82420F1E592
:1096F00004212C20FEF7F8FD032182464E20FEF7C0
:10970000F3FD0C2183463620FEF7EEFD0BF1020B34
:10971000421C02FA0BF205FA0AF5A2FB0501420A05
:1097200042EAC152A262FFF7CBF8EAE60190FFF7E6
:10973000C7F801980423064684F82430FFE50E4B51
:10974000E568DB6C6361072284F82420002D3FF478
:10975000F1AD504698E708D0042384F82430FFF791
:10976000AFF894F82420531E4DE6FFF73BF802288B
:109770007FF446AE30E600BF182800202DE9F84FF0
:10978000C34C94F8101E0546C1F34001D4F8180EDE
:1097900042F080F994F8101ED4F8140EC94301F079
:1097A000010142F077F9002D00F0E38005F1FF3868
:1097B000B84D5FFA88F80127D4F8183E33B11A681B
:1097C0009B8851690B4214BF53831383D4F8143E12
:1097D00033B11A689B8851690B4214BF53831383BA
:1097E000B4F8203E002B40F0598194F8221ED4F8A2
:1097F000240E42F04FF9DFF8A0C2FA204FF0100E0D
:109800004FF47A71DCF80430C3F30803002B40F006
:109810001281EFF31183002B40F00D81E26CD5F83B
:109820000890E36C9A42F9D1D4F84C3E9945F5D8AA
:10983000D4F8486E01FB06F3A3EB0903B3FBF6F380
:1098400001FB0232DCF80430C3F30803002B40F0C4
:10985000B280EFF31183002B40F0AD80E36CD5F8BC
:1098600008B0E66CB342F9D1D4F84C6EB345F5D8E4
:10987000D4F8486E01FB06F9A9EB0B09B9FBF6F920
:1098800001FB03939B1AB3F57A7FDBD30138B9D17F
:10989000D4F8183E33B11A689B8851690B4214BF43
:1098A00053831383D4F8143E33B11A689B885169EB
:1098B0000B4214BF53831383B4F8203E002B40F0B7
:1098C000DA8094F8221ED4F8240E81F0010142F0CF
:1098D000E1F8DFF8C4C1FA204FF0100E4FF47A71AE
:1098E000DCF80430C3F30803002B40F08480EFF36E
:1098F0001183002B7FD1E26CD5F80890E36C9A427B
:10990000F9D1D4F84C3E9945F5D8D4F8486E01FB0E
:1099100006F3A3EB0903B3FBF6F301FB0232DCF819
:109920000430C3F3080333BBEFF311831BBBE36CB9
:10993000D5F808B0E66CB342F9D1D4F84C6EB34513
:10994000F5D8D4F8486E01FB06F9A9EB0B09B9FB71
:10995000F6F901FB03939B1AB3F57A7FDFD3013845
:10996000BED108F1FF385FFA88F8B8F1FF0F7FF435
:1099700023AFBDE8F88FEFF3118A8EF31288D5F884
:1099800008B02B68DB0344BFC4F8447ED5F808B0A8
:10999000E36CD4F8449E5FFA8AFA8AF31188D4F80B
:1099A000486E4B4401FB06F9A9EB0B09B9FBF6F92C
:1099B00001FB0393CFE7EFF3118A8EF31288D5F8FA
:1099C00008B02B68DE0344BFC4F8447ED5F808B065
:1099D000E36CD4F8449E5FFA8AFA8AF31188D4F8CB
:1099E000486E4B4401FB06F9A9EB0B09B9FBF6F9EC
:1099F00001FB039346E7EFF311898EF31288D5F844
:109A000008A02B68DA0344BFC4F8447ED5F808A048
:109A1000E36CD4F8442E5FFA89F989F31188D4F8FD
:109A2000486E1A4401FB06F3A3EB0A03B3FBF6F3FB
:109A300001FB023273E7EFF311898EF31288D5F838
:109A400008A02B68DB0344BFC4F8447ED5F808A007
:109A5000E36CD4F8442E5FFA89F989F31188D4F8BD
:109A6000486E1A4401FB06F3A3EB0A03B3FBF6F3BB
:109A700001FB0232E6E6D4F83C3E002B3FF429AF6E
:109A8000D4F8282E0023136084F8393E21E700BF64
:109A90001828002010E000E000ED00E0D4F83C3E83
:109AA000002B3FF4A8AED4F8282EB4F8403E044969
:109AB000B1FBF3F35B10136084F8397E9BE600BFC3
:109AC00040420F002DE9F84FC74CC84D94F8101EC6
:109AD000D4F8180EC1F3400141F0DCFF94F8101ED9
:109AE000D4F8140EC94301F0010141F0D3FF4FF047
:109AF00005080127D4F8183E33B11A689B885169CC
:109B00000B4214BF53831383D4F8143E33B11A6845
:109B10009B8851690B4214BF53831383B4F8203ED2
:109B2000002B40F0508194F8221ED4F8240E41F00E
:109B3000B1FFDFF8C0C232204FF0100E4FF47A713F
:109B4000DCF80430C3F30803002B40F01081EFF37E
:109B50001183002B40F00B81E26CD5F80890E36C88
:109B60009A42F9D1D4F84C3E9945F5D8D4F8486ECC
:109B700001FB06F3A3EB0903B3FBF6F301FB02328F
:109B8000DCF80430C3F30803002B40F0B080EFF39F
:109B90001183002B40F0AB80E36CD5F808B0E66C85
:109BA000B342F9D1D4F84C6EB345F5D8D4F8486E29
:109BB00001FB06F9A9EB0B09B9FBF6F901FB0393CD
:109BC0009B1AB3F57A7FDBD30138B9D1D4F8183EAC
:109BD00033B11A689B8851690B4214BF53831383B6
:109BE000D4F8143E33B11A689B8851690B4214BFF4
:109BF00053831383B4F8203E002B40F0D88094F8B0
:109C0000221ED4F8240E81F0010141F043FFDFF859
:109C1000E4C132204FF0100E4FF47A71DCF80430BA
:109C2000C3F30803002B40F08280EFF31183002B75
:109C30007DD1E26CD5F80890E36C9A42F9D1D4F862
:109C40004C3E9945F5D8D4F8486E01FB06F3A3EBDA
:109C50000903B3FBF6F301FB0232DCF80430C3F373
:109C6000080323BBEFF311830BBBE36CD5F808B0FB
:109C7000E66CB342F9D1D4F84C6EB345F5D8D4F8BC
:109C8000486E01FB06F9A9EB0B09B9FBF6F901FBDC
:109C900003939B1AB3F57A7FDFD30138BED108F165
:109CA000FF3818F0FF087FF425AFBDE8F88FEFF319
:109CB000118A8EF31288D5F808B02B68DB0344BFF5
:109CC000C4F8447ED5F808B0E36CD4F8449E5FFA3B
:109CD0008AFA8AF31188D4F8486E4B4401FB06F9DE
:109CE000A9EB0B09B9FBF6F901FB0393D1E7EFF3FD
:109CF000118A8EF31288D5F808B02B68DE0344BFB2
:109D0000C4F8447ED5F808B0E36CD4F8449E5FFAFA
:109D10008AFA8AF31188D4F8486E4B4401FB06F99D
:109D2000A9EB0B09B9FBF6F901FB039348E7EFF345
:109D300011898EF31288D5F808A02B68DA0344BF86
:109D4000C4F8447ED5F808A0E36CD4F8442E5FFA3A
:109D500089F989F31188D4F8486E1A4401FB06F397
:109D6000A3EB0A03B3FBF6F301FB023275E7EFF353
:109D700011898EF31288D5F808A02B68DB0344BF45
:109D8000C4F8447ED5F808A0E36CD4F8442E5FFAFA
:109D900089F989F31188D4F8486E1A4401FB06F357
:109DA000A3EB0A03B3FBF6F301FB0232E8E6D4F8B7
:109DB0003C3E002B3FF42BAFD4F8282E0023136039
:109DC00084F8393E23E7D4F83C3E002B3FF4B1AE93
:109DD000D4F8282EB4F8403E0549B1FBF3F35B10EC
:109DE000136084F8397EA4E61828002010E000E013
:109DF00040420F0000ED00E00E4B30B4DB684278CB
:109E000001780D4CDB43C3F30223C3F10403DBB23F
:109E100002FA03F360181B0101F01F050122490932
:109E200003F0F003AA4080F8003344F8212030BC4E
:109E3000704700BF00ED00E000E100E030B50368CE
:109E40005A4D5B4C1A88D5F8A004B0FBF1F0A34240
:109E500000F1FF3083B080B292B211D055498B42ED
:109E60000ED0B3F1804F0BD0A1F580318B4207D0DB
:109E700001F580618B4203D001F580618B4202D1F4
:109E800022F0700292B24C498B4268D001F5806199
:109E90008B4243D022F4407201F56C4192B24FF6EE
:109EA000FF748B421A80DC62188564D100221A8606
:109EB00001229A821A883E4992B242F001028B42F4
:109EC0001A8063D0B3F1804F62D03C4A934261D094
:109ED00002F5806293425FD002F5806293425DD0CA
:109EE00002F5806293425BD002F58062934259D0C2
:109EF00002F59632934257D002F58062934213D016
:109F000002F58062934208BF09220ED04FF0012370
:109F100001A80193FFF770FF03B030BD4FF6FF714A
:109F20001A80D9621885C3E70822254B03EBC203C8
:109F300001A893F8C5408DF8044001224FF48073C6
:109F40008DF80520ADF80630FFF756FF1B2CE3D146
:109F50001C4B019301A8FFF74FFF03B030BD012157
:109F60004FF6FF741A80DC62188599821A8892B2C3
:109F70000A431A80A9E70F4A934297D001229A8296
:109F80001A8892B242F001021A809BE70022CCE7C5
:109F90000122CAE70222C8E70322C6E70422C4E777
:109FA0000522C2E70622C0E70722BEE718280020E4
:109FB0000000014000040140001000400004004087
:109FC0001C6306081901000100F01F02400901236B
:109FD000032803FA02F304D004280CD0022805D089
:109FE0007047074A116C0B4313647047044A516C65
:109FF0000B4353647047024A116B0B431363704762
:10A000000038024000285FD00368374A2DE9F0414C
:10A0100003F13F4404F57E0402EB9422012492F8FC
:10A02000B82002F01F055209032A04FA05F456D09D
:10A03000042A4FD0022A48D08588B5FA85F0C0F1AD
:10A040001F00C0F3CC0603EB860600F00700820079
:10A050000F24306A944020EA04003062306A01FA2A
:10A0600002F20243002132624FF0010E0A464FF025
:10A07000030C02270EFA02F838EA050002F1010289
:10A080001CD118680CFA01F420EA04001860186862
:10A0900007FA01F606431E609E6826EA04069E60E3
:10A0A00098689860586820EA0800586058685860B6
:10A0B000D86820EA0400D860D868D860102A01F176
:10A0C0000201D7D1BDE8F0817047084A556C2C4396
:10A0D0005464B1E7054A156B2C431463ACE7034A9B
:10A0E000156C2C431464A7E71C6306080038024073
:10A0F00000487047982A0020144A154BD2F8A02433
:10A10000B3EB920F15D2B3EBD20F14D2B3EB121FF5
:10A1100013D2B3EB521F12D2B3EB921F11D2B3EB97
:10A12000D21F10D2B3EB122F34BF4FF480708020B7
:10A1300070470220704704207047082070471020A5
:10A140007047202070474020704700BF182800202B
:10A1500080969800002877D0F0B58388B3FA83F30F
:10A16000202B83B00446C3F11F0258D0374D384E20
:10A1700015444FF0004006EB820230FA03F395F8E5
:10A180001051C2F8501E05D0324A116821EA03016D
:10A19000116053612046002141F0AAFAA388226889
:10A1A0002C49B3FA83F7C7F11F0404F0FC0000F157
:10A1B000804000F59C3004F00304A40002F13F430A
:10A1C0004FF00F0C82680CFA04FC22EA0C02826049
:10A1D00003F57E038268C3F38723A34013438360A0
:10A1E0000A681D484FF00043FB4022EA03020A6060
:10A1F0004A6822EA03024A600A681A430A608A68C7
:10A2000022EA03028A60CA6822EA0302CA6002687C
:10A210002E441343036096F8903EF02B01D803B010
:10A22000F0BD0E4B5B5D8DF80430F02103224FF43E
:10A23000807301A886F8901E8DF80520ADF80630D1
:10A24000FFF7DAFD03B0F0BD704700BF1C630608DE
:10A2500018280020003C0140083C014014D50608A5
:10A2600010B4B8B10D4CD4F8983E102B05D15DF860
:10A27000044B0521002037F093BE03EB4302224438
:10A2800082F89D1E01210B4482F89C0E82F89E1ECE
:10A29000C4F8983E5DF8044B704700BF18280020B2
:10A2A00080782021DCE700BF2DE9F04FDFF8ACA378
:10A2B0002DED028B9AF8E01E002297B0CAF8D02E3E
:10A2C000CAF8D42ECAF8D82ECAF8DC2ECAF8CC2E7A
:10A2D00019B19AF8E12E8AF8CC2E9AF8E22E1AB12A
:10A2E0009AF8E32E8AF8DB2E9AF8E62E1AB19AF83D
:10A2F000E72E8AF8D62E9AF8E42E1AB19AF8E52EAF
:10A300008AF8D12E9AF8E83E05935A1ED3B257B276
:10A3100003937B1C00F0AA80C54AC64E52F83790C2
:10A32000029602EBC70200231279019308EE102A6D
:10A330001D463446984626783946304642F0E0FEBF
:10A3400083463046BBF1000F1ED040F023FFEA1DCC
:10A350001321D2B220B14FF0000E827180F807E0D5
:10A3600041F0C6F9207842F0F5FE4FF0070308F1FE
:10A37000010223714FF0010384F802806070CDF870
:10A3800004B05FFA82F8E3700135042D04F105048E
:10A39000D1D118EE100A029ECDF81080FFF714FEFE
:10A3A000A549A64A4868024042F440324A600FB9C3
:10A3B000019B5BB9A24C4820FFF706FE2046022114
:10A3C00058F0FEFDA26842F00102A2609A489C4A41
:10A3D0004168BAF8EA4E41F400014160516821F445
:10A3E00080515160916B21F4401141F480119163CF
:10A3F000D16841F46001D160956B85F44011C1F3DF
:10A40000015101EB81011F2000FA01FC25EA0C0C2F
:10A41000112505FA01F141EA0C019163D16841F07F
:10A42000E061D160956BC5F30151C1F10401C9B27E
:10A4300001EB810188404FF0120C25EA00000CFA74
:10A4400001F108439063E4B1BAF8EC1ECAF8F44E87
:10A45000A1B1BAF8EE2ECAF8F81E62B1019B794894
:10A46000521A90FBF2F2CAF8FC2E6BB917B0BDEC91
:10A47000028BBDE8F08F744A1288EFE7734A1188A7
:10A48000E7E7734A1488DFE74846049958F098FDD7
:10A49000684B012003F114080723F278441CE4B24E
:10A4A00052B375783279A5F10A0101EB410105EB50
:10A4B000450C092D03FA01FE03FA0CFB02FA01F127
:10A4C00040F2A080D9F80C2022EA0E0E41EA0E01DB
:10A4D000C9F80C10421E02EB82021F21062801FA65
:10A4E00002FC05FA02F273D8D9F8341021EA0C0103
:10A4F0000A432046C9F8342005364645CDD1D9F85F
:10A500000820039942F40072C9F80820D9F80820FD
:10A5100042F48072C9F80820D9F80820574442F064
:10A520000102C9F8082097F9F02E022040F0F0FA55
:10A53000044600289AD04668304640F0D7FA454A8B
:10A54000431E242101FB032393F89C50002D8DD141
:10A55000059983F89D10062283F89C20002885D059
:10A56000304640F0C3FA53F057F960680AF09CF89F
:10A5700007A80AF05BF8049EA26837480792012EEC
:10A580008CBF4FF4806300230D9309F14C034FF40B
:10A590008072CDE90A56089309904FF40033606841
:10A5A0000C9507A94FF400674FF40056CDE910232E
:10A5B000CDE90E760AF04CF86268136843F00103A7
:10A5C0001360D9F8083043F08043C9F808304DE7EC
:10A5D000C11FA0F10D0201EB81014FF01F0E02EB34
:10A5E00082020C280EFA01FC0EFA02F005FA01F1C3
:10A5F00013D8D9F8302022EA0C0211432046C9F8BA
:10A60000301079E7D9F8101002FA0CF221EA0B0B9E
:10A6100042EA0B02C9F810205CE7D9F82C1005FAC1
:10A6200002F221EA00010A432046C9F82C2063E720
:10A630003C640608E436002000230140E030FCFFC3
:10A6400000200140803801002E7AFF1F2C7AFF1F66
:10A650002A7AFF1F980100201837002018280020B0
:10A660002DE9F84F2E4F00EB800407EBC404D4F81B
:10A670000C6F2EB1054694F8210F00F0FF0820B1B1
:10A680004FF000084046BDE8F88F89469A46934649
:10A690003AF076FE4FEA49010123C9B284F8221F3D
:10A6A00084F823BF84F8253F84F8268F84F8243F5C
:10A6B00084F8213F84F8208FB288C4F828AF910530
:10A6C0008146C4F82CAF1DD43388DA0510D442F289
:10A6D0000F7405E03AF054FEA0EB0903A34215DC29
:10A6E00033889B05F6D433889BB243F48073338060
:10A6F000B3889BB243F440734FF00108B3804046E7
:10A70000BDE8F88F98464046BDE8F88FB7F8803F1F
:10A7100001339BB22846A7F8803F57F0B5FEB1E75A
:10A72000182800200128B5EEC00A10D0F1EE10FA6A
:10A730000BDD9FED177ADFED177AE0EE077AFCEE7E
:10A74000E77A17EE903A98B2704700207047F1EE22
:10A7500010FA0BDD9FED107ADFED107AE0EE077A4C
:10A76000FCEEE77A17EE903A98B27047EDD5F7EE27
:10A77000007A30EE270A9FED0A7ADFED0A7AE0EEE2
:10A78000077AFCEEE77A17EE903A98B2704700BF6E
:10A7900000E0F9440000404200C0794400008344D6
:10A7A00000C079C400E0824470B5464E96F8824FEE
:10A7B00004EB840306EB8303A50093F8843F032B8B
:10A7C0006ED8DFE803F059291E02254406EB850503
:10A7D000D5F8880F002870D196F8D43F9C425FD0FE
:10A7E000013404F00302934286F8822F58D002EB22
:10A7F000820406EB84040223C4F8880F84F8843FA3
:10A8000070BD2B1906EB8303D3F8882F72B1013A80
:10A81000C3F8882F002070BD2B1906EB8303D3F8F3
:10A82000882F002AF3D1022283F8842F254406EBD7
:10A83000850595F8903F013BDBB285F8903F8BBBD7
:10A84000214B96F8D46FD3F8C012D5F88C0F621C48
:10A8500002F003024B1E0324B242034485F8844FE6
:10A86000B3FBF1F0C5F8880F1AD0994218D8013817
:10A87000C5F8880F012070BD42F05EF980B1124B1F
:10A880002C44D3F8C02206EB8404012102F51C53AA
:10A8900084F8841F0F33B3FBF2F3C4F8883F70BD14
:10A8A000012070BD084BD3F8C022012002F2E7332B
:10A8B000B3FBF2F3C5F8883F70BD0138C5F8880FC7
:10A8C000002070BD182800209801002003681A7825
:10A8D000012A01D00020704793F90430044A03EBA9
:10A8E000830302EBC30393F8210FC0B2704700BF8C
:10A8F0001828002010B50B4CD4F8D83F1B78022B39
:10A900000FD1D4F8E00F41F0BFF8D4F8E00F08B150
:10A910002123C380012140F0EBFEFFF7EDFBA4F8FB
:10A92000DC0F10BD1828002030B583B00D46012380
:10A9300001460DF107020446074842F01DF89DF854
:10A94000072035EA020304D003482A43214642F097
:10A95000A9F803B030BD00BFF037002038B5054678
:10A960000A460C460648294641F0E0FE45F08001C3
:10A97000034841F0D9FD231A5842584138BD00BF61
:10A98000F0370020F0B53B4CD4F8D85F2B78022B81
:10A9900095B018D0012B02D0002015B0F0BD95F96C
:10A9A00004506B1CF8D0022DF6DC0091134694F88D
:10A9B000DC1F0246284657F009FF0028ECD0284645
:10A9C00057F0E0FFE9E72B6A002BE5D10DF10F0C02
:10A9D0008DF80F00002601200027CDE90833CDE9CE
:10A9E0000A12CDE90E6705938DF81C300D93109374
:10A9F0001293CDF810C006908DF830008DF8440009
:10AA0000EFF31180102383F31288D4F8D83F1B6A28
:10AA100013B3069B04AE32461BB1D3691432002B2C
:10AA2000FBD12B6A13B3996839B993420AD01968DC
:10AA300029B15B6899680029F7D01433F3E70E4A0F
:10AA4000C3E90026C0B280F31188D4F8D82F136A66
:10AA5000002BFCD10120A0E704ABC0B22B6280F335
:10AA6000118804F6D87054F08BFAEEE7024A1A60A7
:10AA7000FFDE00BF18280020F037002070B5036803
:10AA80001D78022D13D0012D01D0002070BD044689
:10AA900093F904000A4B421C03F8545CF5D00228D9
:10AAA000F3DC0A46543B2179BDE87040D8E51B6AC7
:10AAB000002BEAD1012241F039FE012070BD00BF18
:10AAC0001039002013B53A4C002354F8442C8DF86B
:10AAD0000730137803F0FD01012905D114F8401C5B
:10AAE00011B90C2104F8401C022B1ED0032B2DD0D1
:10AAF00001220B212F4852F087F904203AF06CFC18
:10AB00002C4801230DF10702002152F09FF9002883
:10AB100038D09DF80730482B34D1274B44F8503CAF
:10AB2000264B44F84C3C02B010BD54F83C0C40F0AD
:10AB3000ABFF54F83C0C08B13423C380012140F032
:10AB4000D7FDFFF7D9FA24F8400CD1E7D4F86C34DC
:10AB5000506846F2A8111961002380F8883012224B
:10AB6000372152F025F954F8443C0D22586824212D
:10AB700052F01EF954F8443C302258686A2152F0D1
:10AB800017F9B5E754F8443C1A78022A03D0032A8F
:10AB900007D00020C7E754F83C0C41F0CFFA002062
:10ABA000C1E758681022372152F002F9F1E700BFDF
:10ABB00010390020CC380020ABCE05082DCF050879
:10ABC0002DE9F04FB54CB64E95B0002305464FF435
:10ABD000F0728B4604F5F660202184F8AC3784F8D7
:10ABE000AD3701955BF0EEF9202104F519604FF4C3
:10ABF000F0725BF0E7F9DFF8C0C2AA4932274FF0E4
:10AC0000100E4FF47A704FF00108DCF80430C3F3F3
:10AC10000803002B40F02381EFF31183002B40F059
:10AC20001E81F26C8D68F36C9A42FAD1D6F84C3ED4
:10AC30009D42F6D8D6F8489E00FB09F35B1BB3FB98
:10AC4000F9F300FB0232DCF80430C3F30803002BF5
:10AC500040F0E580EFF31183002B40F0E080F36CCF
:10AC6000D1F808A0F56CAB42F9D1D6F84C5EAA45F4
:10AC7000F5D8D6F8489E00FB09F5A5EB0A05B5FB0B
:10AC8000F9F500FB03539B1AB3F57A7FDBD3013F41
:10AC9000BBD194F8712B002A00F0BC8094F8723B71
:10ACA000013B022B00F2B68003EB830004EBC001F2
:10ACB0007D4D91F80C7C05EBC0004FF0010C022F8C
:10ACC000C4F8740B84F8FCCB00F0BB82DBB204EB5D
:10ACD0000313D3F8843CC1F8103C002B00F09A8099
:10ACE00002234FF4807081F80C3CA5F188034C3DA1
:10ACF000A1F8180CC1F8243CC1F8285C1509013DE5
:10AD0000042D02F00F0200F27F82684F07EB45032B
:10AD1000B3F8A40040FA02F3DB0740F17582012387
:10AD200003FA02F2013A10403D4458F093FB95F8C3
:10AD3000B0205F4B104403EBC000C4F87C0B837958
:10AD400013F0BF0F66D12323C380092140F0D0FC4C
:10AD5000D4F87C3B13B11A689B881383D6F8A024DF
:10AD6000544BB3EB920F80F07282B3EBD20F80F0B2
:10AD70007082B3EB121F80F07082B3EB521F80F031
:10AD80007082B3EB921F80F07082B3EBD21F80F021
:10AD90007082B3EB122F80F06E824FF4807200232A
:10ADA0000DF10D01FF20A4F8782B0122CDE9041349
:10ADB000CDE90833CDE90A33D4F8741B8DF80D00C2
:10ADC0000D9306928DF81C208DF83020EFF3118042
:10ADD000102383F31288D4F8743B1B6A002B00F015
:10ADE0001782069B04AD2A461BB1D3691432002B8F
:10ADF000FBD10B6A002B00F05482996841B99A424A
:10AE00005FD01968002959D05B6899680029F6D08D
:10AE10001433F2E76FF0010015B0BDE8F08FEFF3E7
:10AE200011898EF31288D1F808A00B68DD0344BFA6
:10AE3000C6F8448ED1F808A0F36CD6F8445E5FFAE9
:10AE400089F989F31188D6F8489E2B4400FB09F54F
:10AE5000A5EB0A05B5FBF9F500FB035313E7EFF388
:10AE600011858EF31288D1F808900B68DB0344BF7C
:10AE7000C6F8448ED1F80890F36CD6F8442EEDB2A3
:10AE800085F31188D6F8485E1A4400FB05F3A3EB5E
:10AE90000903B3FBF5F300FB0232D4E610390020BE
:10AEA0001828002010E000E01C4500201C63060864
:10AEB000382A0020404B4C0000ED00E0B54AC3E9C1
:10AEC0000025C0B280F31188D4F8741B0B6A002BE4
:10AED000FCD18C220120CDE908330DF10E080DF1D3
:10AEE0000F0A05938DF81C300D93109312938DF873
:10AEF0000E2000230022CDE90E23CDF8108006900D
:10AF00000B908DF830008DF84400CDF828A0EFF3B9
:10AF10001180102383F31288D4F8743B1B6A002B32
:10AF200000F07F81069B2A461BB1D3691432002BA7
:10AF3000FBD10B6A002B00F0B481996839B99342B8
:10AF40000AD0196829B15B6899680029F7D01433D1
:10AF5000F3E7904AC3E90025C0B280F31188D4F822
:10AF6000742B136A002BFCD19DF80F301B2B40F083
:10AF70008881D4F87C3B012284F8AC270BB12322D2
:10AF8000DA80DFF81092402248460A2141F0CEFBD9
:10AF90008A21002301228DF80E1000200021CDE926
:10AFA0000E01CDE90833D4F8741BCDF81080CDF82C
:10AFB00028A005938DF81C300D93109312930692E0
:10AFC0000B928DF830208DF84420EFF31180102380
:10AFD00083F31288D4F8743B1B6A002B00F029819C
:10AFE000069B2A461BB1D3691432002BFBD10B6A96
:10AFF000002B00F05381996839B9934209D0196840
:10B0000029B15B6899680029F7D01433F3E7C3E9E5
:10B010000095C0B280F31188D4F8742B136A002B0A
:10B02000FCD19DF80F2094F8701BC2F3801284F8B5
:10B03000B42C002900F0CC80022900F0B180D6F8B1
:10B04000A0345549B1EB930F80F01781B1EBD30FCA
:10B0500080F00181B1EB131F80F00181B1EB531F30
:10B0600080F00181B1EB931F80F00181B1EBD31F20
:10B0700080F00581B1EB132F34BF4FF4807680262A
:10B0800094F8B81CA4F8B66C18290ED14349C4F83A
:10B09000BCBC5B08B3FBF6F3A1FB03135B0BC4F86A
:10B0A000C02CC4F8C46CC4F8C83C3A48A4F8786B07
:10B0B0000222002141F03AFBC82037F0B9F8D4F859
:10B0C000740B4FF0800B0026002700230122CDE9EE
:10B0D0000E67CDE908338DF80EB0CDF81080CDF8AD
:10B0E00028A005938DF81C300D93109312930692AF
:10B0F0000B928DF830208DF84420EFF3118210234D
:10B1000083F31288D4F8743B1B6A002B38D0069B5B
:10B11000002B3DD02B46D96914330029FBD1006A9E
:10B12000002800F0B880816839B9834209D00168ED
:10B1300029B1406881680029F7D01430F3E7C0E9ED
:10B140000095D2B282F31188D4F8740B036A002BF5
:10B15000FCD19DF80F3013F00203B6D1019841786D
:10B160008278007884F8DC0CC1F12001C2F1100271
:10B17000184684F8DD1C84F8DE2C15B0BDE8F08F8D
:10B180000562D2B282F31188024853F0F9FEDBE780
:10B190002B46C4E784440020809698005917B7D105
:10B1A000D6F8A0344048B0EB930F72D2B0EBD30F77
:10B1B00051D2B0EB131F52D2B0EB531F53D2B0EBAE
:10B1C000931F54D2B0EBD31F34BF8026402657E7DD
:10B1D000D6F8A0343549B1EB930F4ED2B1EBD30F73
:10B1E00039D2B1EB131F3AD2B1EB531F3BD2B1EBC3
:10B1F000931F3CD2B1EBD31F41D2B1EB132F34BF1D
:10B200004FF4807680263BE70020C4F87C0B9CE559
:10B2100004ADC0B20D6280F31188254853F0B0FE32
:10B2200052E60D62C0B280F31188214853F0A8FEA7
:10B2300095E60D62C0B280F31188484653F0A0FE37
:10B24000EAE691F8193C634481F8193C56E502227C
:10B25000A5E50422A3E5042612E708229FE50826B7
:10B260000EE710229BE510260AE7202297E520260C
:10B2700006E7402293E5802291E5022600E740267A
:10B28000FEE6D4F87C0B202140F032FA4FF0FF307C
:10B29000C2E50E46F4E6C0F80090FFDEC3F8009069
:10B2A000FFDE034A1A60FFDE002D3101404B4C00E7
:10B2B0008444002010B58CB000234CF205020446F3
:10B2C00001A9CDE90633CDE90833ADF800208DF8AA
:10B2D000023003220B930123CDE903128DF81430C1
:10B2E0008DF82830CDF808D041F0BCFA204602A9EC
:10B2F00040F044FF204641F0B5FA9DF806000CB03E
:10B3000010BD00BF0848002302461178022902F14F
:10B31000060204D00133062BF7D10020704703EB5F
:10B32000430300EB43007047141800202DE9F0435D
:10B33000784D794F83B005F1F400242200215AF0B2
:10B3400041FE97F8E14C0023C5F81831002C3CD1A0
:10B35000724ED6F8C03063B39B6A53B370489847B7
:10B36000836833B303886F4F013B9BB2BC463846BA
:10B3700000210678032E00F106001ED001310629B7
:10B38000F7D100223978022907F1060700F0A180E1
:10B390000132062AF6D1D5F81811052909D0481C22
:10B3A00002FB01C2C5F81801022000219380107031
:10B3B0005180204603B0BDE8F083062303FB015112
:10B3C000B1F8F630013B9BB2DBE797F8E00C07F6EB
:10B3D000E843C7F8E43C10B9504E0024B9E73FF009
:10B3E000D9FEC7F8F00C18B1837913F0BF0FF3D171
:10B3F00021464D4841F038F804460028ECD0D7F8F3
:10B40000E43C474A9868C3F8942008B12023C380DD
:10B41000092140F06DF9D7F8E43C404E986840F0BF
:10B4200033FB4248D7F8E48C41F054F84FF001095F
:10B43000A8F804003220C6F8E08086F8E49039F0DD
:10B44000CBFF0423D7F8E40C4FF0000C0DEB030204
:10B450009F21CDF804C041F015F99DF805809DF8B5
:10B4600004309DF806104FEA082848EA034848EAE5
:10B470000108414606F1C0004DF06EFF00287FF440
:10B4800068AF4046FDF78EFA034600287FF461AFAF
:10B490009DF806009DF805209DF80710000240EA7F
:10B4A0000240234A0843904217D0C6E93233A6F837
:10B4B000C430A6F8D030FDF775FA804600287FF436
:10B4C00048AF97F8E00C3FF065FE40F037FE444689
:10B4D0003FE7062101FB02C266E7164AC6F8C42010
:10B4E0004FF400334FF00062C6F8C8304023A6F88E
:10B4F000D030C6F8CC2086F8D290FCF789FD06F152
:10B50000C00086F8D9904DF073FE0B4BC6F8C030E2
:10B510001FE700BF20170020103900201828002046
:10B52000D828002014180020F8450020404B4C007B
:10B5300021AAEF000004000844630608F0B40D6877
:10B5400000240CE0BCF1050F18D8A0F137030A2B3A
:10B5500014D104EB840415F8010B03EB4404A0F1AF
:10B560003003DEB2092EA0F16107A0F1410CF0D941
:10B57000052FE7D8A0F157030A2BEAD00D6014601D
:10B58000F0BC70472DE9F041C94BCA4ECA4DCB4CB7
:10B590000822C3F88820336B82B043F00103336381
:10B5A00007464FF4C052284640F2023388466946A7
:10B5B000CDE9002309F0AAF96B6AC14ADFF848C354
:10B5C00023F470436B626B6A43F420436B626B6AD3
:10B5D00023F470236B626B6A43F420236B62736CF9
:10B5E000B84D43F4804341F264317364736B44F8A3
:10B5F000018041F26C3143F08003675041F2683EB4
:10B60000B14973630227C4F8841DB04EB04BB149F1
:10B6100044F80E5084F8887D4FF0A045AE4FC4F832
:10B620008C5DC4F8906DC4F8983DC4F8D41D05F540
:10B63000326506F5A07603F51073A1F5D071C4F854
:10B640009C7DC4F8D85DC4F8A06DC4F8DC3DC4F896
:10B65000A41D012307F51077A5F5E465A6F5A066FE
:10B66000A1F58C61C4F880CDC4F8E07DC4F8945D88
:10B67000C4F84C6E84F88B3D05F5A075536106F552
:10B68000B076C4F8101E84F8923E1946934B944A43
:10B69000C4F8185EA7F5BC67A035C4F8246E914EB7
:10B6A000C4F8207EC4F8283E07F5D45703F5695343
:10B6B000C4F82C5E4FF050250020DFF850E2DFF890
:10B6C00050C2C4F8502EC4F8547E02F5A04207F5CB
:10B6D000A047C4F8586EC4F85C3E06F5A046A3F532
:10B6E0004853C4F8605E04F55865C4F8642EC4F885
:10B6F0006C6EC4F88C3EC4F814EEC4F81CCE02463E
:10B70000C4F8687E2B4684F8940E402683F81C21EA
:10B71000A3F822210132042AC3E9496083F81D11EC
:10B7200083F81F01C3F8300103F12803EED1002292
:10B7300011462B46402083F87423A3F87A23013264
:10B74000042AC3E9DF0183F8751383F87713C3F87C
:10B75000881303F12803EED14FF0A04362489A68A2
:10B7600022F001029A60DA6842F04002DA6008F0E2
:10B77000F1F894F8893D0022212161F317420BB1C1
:10B7800042F4801294F8831DD4F88C3D01299A6309
:10B7900000F0E380DA68D4F88C6ED4F8900DC2F330
:10B7A000076121F0600141F0400161F31F62002157
:10B7B000DA603160026861F3CC22026094F88B2D6C
:10B7C000012A00F0B7801021484808F015FC4748CE
:10B7D00008F0F8FBD4F8900D94F8813D00224FF06A
:10B7E000FF31026142618161C26153B305F1140707
:10B7F0003F4E114607EB83074FEA830C4FF0FF0ED5
:10B8000056F8042F1368002BACBF00234FF0904371
:10B81000B74213601161C2F808E0F1D105F150039D
:10B82000344963440027FF2651F8042F1568002D82
:10B83000ACBF00254FF090459942156017619660A6
:10B84000F2D1036994F8831D43F4807301290361E5
:10B8500060D0D4F88C2D28480023936100294FF044
:10B86000FF336FF0804151615360516114BF002379
:10B870001023906143F47013916943F4605343F0D3
:10B8800008030B43936141F268319368615843F0B8
:10B89000010393600B689847184B194ADA606846B1
:10B8A000184B0093FEF7A8FA02B0BDE8F08100BF84
:10B8B00000E100E0003802400000024010390020A2
:10B8C000003C01405C0400204000400100080050A2
:10B8D00000090050000B005020090050C005005026
:10B8E00000100050003000509C4600209046002080
:10B8F000A4460020E04600200008008000ED00E0A3
:10B900000005FA054302000108040100200500506B
:10B9100060050050D4F88C2D144B03636FF0804108
:10B92000134D00234FF0FF3093615161506051611E
:10B9300095619FE701680F4A0F4E41F003010160D6
:10B94000802159629E62C3F80421E022C3F80821D5
:10B95000C0F24002C3F80C2135E79A6822F03E019C
:10B9600041F02A0161F307029A6013E703018100A5
:10B9700000080080A00040008000200010B5184C96
:10B9800094F87D0288B9174B83F85100586594F8F4
:10B990008032012B1FD0D4F8843203B312495B6884
:10B9A000BDE81040A1F10C0018473FF0F3FB94F8FC
:10B9B0007F220C49003A18BF012281F851204865C6
:10B9C0000028E4D01F22C28020213FF091FE94F88D
:10B9D0008032012BDFD1054BC4F88432DEE710BD85
:10B9E000084A002020170020904C002078040020F6
:10B9F00099B10A6B824216D9154BD3F8C4229142F1
:10BA000021D34C3991421ED30B6B9842F9D38B6BE7
:10BA10009842F6D80B46184670470D4BD3F8C4121F
:10BA20000A6B904212D30B680BB9F4E70A6B904291
:10BA30000B4602D38A6B9042EDD951F84C3F002B54
:10BA4000F4D1184670470023184670470A46D8E7D5
:10BA5000084A00202DE9F047CC0143D10346224A91
:10BA600043F8082B4FF0FF324260022418467E262E
:10BA7000DFF87880D8F8C8922644013E051D494673
:10BA80006FF070474FF0010A08E0A3421CD0631C1E
:10BA900045F8043C321B1C460435CAB10B6BA3426B
:10BAA00002D88B6BA34204D22046FFF7A1FF0146C8
:10BAB00090B10A794B6B002AE7D1A34204D0E6D2B9
:10BAC00045F8042C631CE5E745F8047C631CE1E7BA
:10BAD000C8F8C812BDE8F08745F804AC321B631CF7
:10BAE0004946D8E78026C3E7F8FFFF0F084A002041
