:020000040800F2
:10000000F8FF0120CD410A0869420A08253E080888
:1000100069420A0869420A0869420A0800000000A9
:1000200000000000000000000000000069420A0813
:1000300069420A080000000069420A08D541080820
:1000400069420A0869420A0869420A0869420A08BC
:1000500069420A0869420A085DA0080825A0080844
:10006000ED9F0808B59F08087D9F0808712C0000C7
:10007000612C0000512C0000412C00002D2C0000B0
:10008000192C0000052C000069420A0869420A0880
:1000900069420A0869420A0869420A08459F080835
:1000A00069420A089D250A0869420A088D250A083E
:1000B0007D250A086D250A085D250A0879120A08B7
:1000C0009D120A08BD110A08E1110A0869420A08CE
:1000D00069420A0805190000F9180000ED1800002F
:1000E0000D9F080869420A080000000095240A08CC
:1000F000A5240A0885240A08CD240A08F12B00004B
:1001000069420A0835D709084D250A0869420A08D4
:10011000E1180000D5180000DD240A08B16E0408BB
:10012000DD2B0000C92B0000B52B0000A12B000027
:100130008D2B000069420A0869420A0869420A08D0
:1001400000000000000000000000000000000000AF
:10015000792B0000652B0000512B0000C91800000E
:10016000F9100A0821110A0869420A0869420A08B6
:1001700069420A0869420A0869420A080000000048
:1001800069420A0869420A08BD180000B118000057
:1001900069420A0869420A0869420A0869420A086B
:1001A00069420A0869420A0869420A0869420A085B
:1001B00069420A0869420A0869420A0835100A08B1
:1001C0005D100A0869420A0869420A0869420A0879
:1001D00069420A08A172040869420A0869420A08C9
:1001E00069420A0869420A0869420A0869420A081B
:1001F00069420A0869420A0869420A0869420A080B
:1002000069420A0869420A0869420A0869420A08FA
:1002100075240A0865240A0855240A0869420A0850
:1002200069420A0869420A0869420A080000000097
:1002300069D9090869420A080000000069420A08F1
:1002400069420A0869420A0869420A0869420A08BA
:1002500069420A0869420A0869420A0869420A08AA
:1002600069420A0869420A0869420A0869420A089A
:1002700069420A0869420A0869420A080000000047
:1002800069420A080000000069420A0800000000F4
:080290000000000069420A08A9
:0828000000001E080000200882
:020000040802F0
:04000000FFFFFFFF00
:020000040804EE
:1000000010480023024611780632032915D0013327
:10001000062BF8D1426A052A0ED002EB42030132C8
:1000200000EB43034262032040F2EB3140F2FF3227
:10003000187059809A807047704703EB430300EBB8
:100040004303F0E738180024124B30B49D6A6B6A02
:1000500028B943EA01430020AB6230BC7047AC6A68
:10006000013803EB14440BD0002303F140020133A9
:1000700005EB8202DBB25268834204EB1244F4D3F4
:10008000403044EA014405EB80004460002030BC6D
:10009000704700BF38180024037870B42BB30246B1
:1000A000C0F10105531912F8014FDBB2002CF9D150
:1000B00001335B000E4C03220B8084F8303484F84B
:1000C0003124017879B1022300265A1CE518023345
:1000D00054FA82F285F83014DBB282F8306410F8FA
:1000E000011F0029F1D170BC70470223E2E700BF75
:1000F0003818002430B5EFF31181802383F3128880
:100100000A4AD2F83035D2F83445D2F83005D2F860
:100110003455CAB282F31188013BA84294BF4FF410
:10012000006000201B1B184430BD00BF381800249D
:10013000012380F851307047014BD3F838057047E0
:100140003818002401207047024BC3F83C25C3F83F
:100150004015704738180024024BC3F84425C3F8F3
:100160004815704738180024704770472DE9F84348
:10017000884600294FD04718461E284C802507F195
:10018000FF39EFF3118185F31288D4F83025C9B215
:10019000D4F83405D4F83035D4F834C581F3118857
:1001A000634594BF4FF400630023121A1344012BDC
:1001B0001AD1012043F0DAFCEFF3118185F31288A4
:1001C000D4F83025C9B2D4F83405D4F83035D4F891
:1001D000347581F31188BB4294BF4FF40063002350
:1001E000121A1344012BE4D0EFF3118285F3128825
:1001F000D4F83435D2B216F8011F234483F84C15D5
:10020000D4F834350133C3F30A03C4F8343582F328
:1002100011884E45B5D14046BDE8F8833818002412
:10022000F8B5002390F8505080F85030D5B10F4AFF
:1002300092F8E82F032A17D10D4E00F13C0456F82E
:10024000CC7C29462046FFF791FF56F8CC3C2D1A6E
:100250000444DB1B322B01D8002DF2D1B5FA85F016
:100260004009F8BD0120FCE71846FAE738180024D9
:1002700030290024002280F85120D1E790F8502046
:10028000531C0244DBB280F8503082F83C1090F8E6
:1002900051200AB1132B00D9C2E77047F8B50C4BB7
:1002A0000D46144693F8E83F032B0FD1094E56F83C
:1002B000CC7C002C0ADD21462846FFF757FF56F874
:1002C000CC3C241A0544DB1B322BF2D9F8BD00BF0D
:1002D000381800243029002400207047212870B5E8
:1002E00005D0222829D0202810D0002070BD002958
:1002F000FBD0072AF9D1184B18791C685A799B79D9
:10030000087100200C604A718B7170BD0029ECD01F
:10031000072AEAD11148104B0C680E794D79D0F8B4
:10032000402589791C601E715D719971002ADCD0AD
:100330002146D0F83C059047D7E70029D5D0022ABE
:10034000D3D1064AD2F84835002BCED00988D2F84E
:1003500044059847C9E700BF00000024381800246E
:100360000020704703460A2201481A80704700BFE8
:10037000080000240346642201481A80704700BF29
:1003800014000024012901D000207047014BD3F84C
:100390009030184700000024012901D008F046BA27
:1003A000014BD3F88C30184700000024014BD3F8E0
:1003B000883018470000002410B40B780A46044621
:1003C00003F00303012B05D0022B0BD000205DF8B6
:1003D000044B70478B8843B9204611465DF8044BA7
:1003E0000EF0F8BB8B88832BF6D0034B5DF8044BE3
:1003F000D3F88030184700BF0000002438B5054B03
:1004000004460D46DB6F98472946204608F0DCFF7E
:10041000002038BD0000002438B5054B04460D46C9
:100420009B6F98472946204609F006F8002038BD02
:1004300000000024F0B4002452004E1C2746030F95
:10044000B0F1204F4FEA001003F1300503F13703FC
:1004500034BF0D550B5537550234A242EFD1F0BCD5
:10046000704700BF024808B5FFF716FE014808BDF7
:1004700030120B08681C0024024808B5FFF70CFE78
:10048000014808BD40120B08681C00240B481A22C2
:100490000B4B00681B680A80C01801D109487047DF
:1004A000094B0822094910B51C68FFF7C3FF042255
:1004B00007492046FFF7BEFF024810BD00E8F11FC4
:1004C00008E8F11FB000002404E8F11FB200002486
:1004D000C2000024024808B5FFF7DEFD014808BD50
:1004E0004C120B08681C0024024808B5FFF7D4FD25
:1004F000014808BD58120B08681C00240423014859
:100500000B807047CC0000240048704790280024DE
:10051000034B13F8A40C032894BF0020012070475C
:1005200030290024034B13F8A40C003818BF012015
:10053000704700BF30290024B8B182680E4B1AB151
:10054000072283F82E20704793F82C0004219A6329
:100550000328DA6383F840200CBF80224FF48072B6
:1005600083F82E10C3E90C227047034B012283F855
:10057000142283F82D207047302900242DE9F84FEC
:100580004D4B98420FD003F568530833984254D02E
:1005900000234A4A1846A2F8EC32A2F8F832C2E91F
:1005A000BC33BDE8F88F454C02230026444F04F5C8
:1005B0002275DFF81881C4F88432D7F8D03031467C
:1005C000B34206F1010603D0D4F8080356F078FDD3
:1005D00094F80C332846D4F80823414685F8243093
:1005E000303545F8102C56F07DFFD4F884329E4209
:1005F000E3DB002384F8FA32D4F884320120D4F803
:100600009412B4F88C22D4F8905212FB03F201FB3E
:1006100003F3B4F89862A4F8EC22C4F8F432B4F806
:100620008E22284BC4F81813C4F8F052A4F8F862CC
:10063000A4F8EE22C4F8E832B3E7204C02224FF0CF
:10064000000B1F4F04F522754FF4806A4FF04009EC
:100650004FF40068C4F88422D7F8D0200126594608
:100660005A45B34403D0D4F8080356F029FD4FF09F
:100670000062D4F808134FF4003094F80CC32962D8
:1006800085F824C0A5F804A0A5F81090A5F8068068
:10069000AE74C5E90202FFF7B3FC28466E7656F049
:1006A0006FFED4F88422084B934545F8303BD3DBEA
:1006B00084F8FA62A0E700BF1971EF003029002426
:1006C00000000024F46C0A08C86C0A081940EF0006
:1006D00010B50C4656F074FB50B9074B93F81C3319
:1006E000012B4FF012030CBF04480548238010BDB6
:1006F00012230448238010BD30290024FC0000246C
:10070000E8000024D40000240E4B07B5D3F81021D4
:100710005208B2FBF1F3B3F5803F02D3012AF7D8B8
:10072000F9E799B2019062F0F9F80749074B002206
:1007300001F68C3101980B6003B05DF804EB61F0B9
:100740007DBF00BF0000002430290024511F06088F
:1007500010B50C4C002394F82A2044F8A83C0AB1A8
:10076000C4F8943B5EF04AF820B10423022004F858
:10077000A43C10BD54F8CC2C092344F8B42C04F844
:10078000A43C10BD3029002470B50E4D04460E4621
:1007900015F8A43C042B0BD0082B07D155F8AC3C22
:1007A00083420CD0FFF7D4FF022801D0012070BD96
:1007B0000823022045E92B4605F8A43C70BD022021
:1007C00070BD00BF3029002410B50379174C002BF1
:1007D00014BF0122002204F8782C24D094F8993B0D
:1007E000003B18BF012384F82A3009F095FE38B980
:1007F00014F8B03C04F8A40C013304F8B03C10BD6C
:100800005DF0B4F840B114F8B03C0022013304F8B4
:10081000A42C04F8B03C10BD54F8CC2C012304F8EF
:10082000B00C44F8B42C04F8A43C10BD30290024CA
:1008300010B55DF09BF858B10C4C14F8B03C013386
:10084000DBB2072B04F8B03C03D9002304F8A43C26
:1008500010BD09F061FE0028F7D054F8CC2C01231C
:1008600044F8B42C04F8A43C10BD00BF3029002487
:100870002DE9F84F8E4C14F8785C002D00F0FD80C7
:1008800014F8A42C0226531E082B3CD8DFE803F0F2
:100890003234A33B6347163B05005DF0AFFF0028F1
:1008A00040F0FD8054F8B43C54F8CC2CFA33934219
:1008B00026D2FFF7BDFF14F8A42CE4E75DF09EFFFD
:1008C0000028EFD054F8A83C0022012B04F8B02CEB
:1008D00040F2E98054F8AC1C013B94F82A500131F5
:1008E00044E92B130DB1C4F8942B0823054604F8F2
:1008F000A43C11E004F8A46C5DF080FF00284BD10B
:1009000014F8A42C531EDBB2022B3AD9082A18BFC4
:10091000042A0CBF012500252846BDE8F88FD4F82D
:100920001C3CABBB072254F8CC3C54F8BC5C04F82C
:10093000A42C44F8B43C002DEED054F8B83C01206F
:1009400054E93221A847DBE754F8B43C54F8CC2CE6
:10095000643393421CD2D4F8187C002FF4D15DF09C
:100960004DFF0028A7D0042354F8BC5C04F8B07CE9
:1009700004F8A43C002D00F09080384654F8B83CB0
:10098000DEE754F8CC3C54F8B42C9B1AC82B79D829
:1009900000252846BDE8F88F5DF0CEFD0028AFD1D8
:1009A00094F89D3B002BA3F10203B3FA83F314BF29
:1009B000022201225B0904F8AF2C04F8AE3C5DF082
:1009C000BBFD00287FF475AF3A4B03229B6C04F803
:1009D000A42C44F8A03C5DF0AFFD824600288FD1E6
:1009E00094F8CC1B4FF0040EB4F8CEBB0323D4F81C
:1009F000D02B44F8A8ACD4F8D07B4FEA126CD4F8D2
:100A0000D06B04F89A1C3F0CD4F8D09B360A94F8AB
:100A1000D48B94F8D55B94F8D52BD4F8D80B25FA61
:100A20000EF5B4F8DEAB02F00F02B4F8DE1B04F8EA
:100A3000976CC1F30B11B4F8DE6B04F8905C41EADB
:100A40001A2106F00F0504F88F2C724601F00F01F1
:100A500024F89CBC04F899CC01F5FA6104F8987C60
:100A600004F8969C04F8958C44F8940C24F88E1C99
:100A700004F88C5C04F8A4EC45E7284604F8A45C70
:100A8000BDE8F88FFFF7D4FE14F8A45C082D18BF5A
:100A9000042D0CBF012500253EE705463CE7042355
:100AA00004F8A43C38E7FAD1FFF752FE28E700BF6C
:100AB00030290024D0340024154BDB68C3F3022313
:100AC00010B4C3F107041A1D042C28BF0424062AFD
:100AD0004FF0FF328CBF033B0023A240002821EAE5
:100AE000020101FA03F108DB09010A4BC9B2034410
:100AF00083F800135DF8044B704700F00F00090104
:100B0000054BC9B2034419765DF8044B704700BF2A
:100B100000ED00E000E100E0FCEC00E02E4B41F2D3
:100B200087302E490022D3F81031A1FB03132C4942
:100B3000DB0C10B52B4C013B82B0C4F8340C04F62E
:100B40002840C4F8281CC4F8382CC4F8302CC4F849
:100B50002C3C0BF01BFA244B06213720D3F8E8205D
:100B600042F02002C3F8E820D3F8E83003F0200375
:100B70000193019BFFF7A0FF1C4B4FF400025A604A
:100B800094F8653C012B14D1D4F8283C0221184A72
:100B900084F8651CD96841F00101D96099680A4060
:100BA000062A06D0B2F5803F03D01A6842F001024F
:100BB0001A60104B41F2100200200F499A5803F2BC
:100BC0004C54C3F84805C2F81002C3F84005C2E906
:100BD000811402B010BD00BF0000002483DE1B435F
:100BE00000140040302900240044025800E100E0D5
:100BF0000700010038180024A435002403689B0A6C
:100C0000A3F58013522B00D970470F4A134493F871
:100C100058300D2BF8D803EBC30200290B4903EB26
:100C2000420370B584B014BF002602264279012524
:100C300001EB830000246946CDE90065CDE902445B
:100C40000AF0A6FF04B070BDC86C0A08A43D0024D9
:100C50000C4B4FF6FF71D3F8102110B50446520823
:100C600061F05CFE00212046FFF7C8FF0649074BF4
:100C70002046002201F539610B60BDE8104061F0AB
:100C8000DDBC00BF0000002430290024FDFE050863
:100C90004309012200F01F008AB0023B02FA00F073
:100CA000082B11D8DFE803F0665A4E42362A1E128E
:100CB0000500364BD3F8F4200243C3F8F420D3F8F0
:100CC000F42010400190019B0AB070472F4BD3F8DD
:100CD000E0200243C3F8E020D3F8E0201040059064
:100CE000059BF1E7294BD3F8E4200243C3F8E42045
:100CF000D3F8E42010400290029BE5E7234BD3F8A1
:100D0000D4200243C3F8D420D3F8D4201040069056
:100D1000069BD9E71D4BD3F8DC200243C3F8DC2047
:100D2000D3F8DC2010400890089BCDE7174BD3F890
:100D3000D8200243C3F8D820D3F8D8201040099017
:100D4000099BC1E7114BD3F8EC200243C3F8EC2018
:100D5000D3F8EC2010400390039BB5E70B4BD3F87E
:100D6000E8200243C3F8E820D3F8E82010400490BC
:100D7000049BA9E7054BD3F8F0200243C3F8F02009
:100D8000D3F8F02010400790079B9DE700440258DD
:100D90002DE9F04FC24DC34CC34F2DED048B8BB0EA
:100DA00009900FCD0FC40FCD2E6897F8F257022D82
:100DB0000FC497F8F837266000F0AC81032D00F0DF
:100DC000A481002D00F0AB81DFEDB87AF0EE678AE8
:100DD000002BB74AB3480CBF00210121B54B18BF07
:100DE00013460791B44AB5490261816137EEA87A8A
:100DF0009FEDB38AF5EE006AB24AAA4927EE888AC7
:100E000002F123089FEDB09AC6EE879A4B6101F17B
:100E1000300B002306920493099B049A934240F3FB
:100E20002081069B13F8015B0693002D00F01F81C3
:100E3000002302E0152B00F01A8103EB43025C0053
:100E4000013318F80210A942F4D1974B1A4492F8D2
:100E50002118002900F0718128463FF07DFA0646EE
:100E6000059030463FF094FA02780392002A40F051
:100E7000FE80049B5A1C8C4B5FFA82FA23440324A5
:100E8000089283F861A883F86048002E00F0EF8094
:100E90002F0905F00F03013F062F00F22D818B4D26
:100EA00005EB4702B2F8D00040FA03F212F001025B
:100EB00000F0288101262F44DFF82C9206FA03F374
:100EC000013B184062F0B4FF97F8E010804A0144FB
:100ED00009EBC107BC7187F807A059F83130CBF88E
:100EE00014701A44059B920A93F809A005EB420579
:100EF000B5F8E800FFF7CCFEBF8859F83100002FA5
:100F000039D0A646039A0396039D02F007035100C9
:100F10004FF00F0C05FA02F6D4089B004FF00209BF
:100F200037420EFA01F50CFA03FC00EB840402F1DF
:100F300001020AFA03F309FA01F119D0D0F8089076
:100F400029EA0509C0F80890D0F8049029EA0606B5
:100F50004660C66826EA0506C660266A26EA0C0CC4
:100F600043EA0C032362036823EA05030B4303608F
:100F700037FA02F3C8D1079B002B00F083804A4B5D
:100F8000B3F8F03707EE903AF8EEE77AFCEEE77A3E
:100F900017EE904A059B4F4A1B6893420ED002F50C
:100FA000806293420AD04C4902F58042934218BFB6
:100FB0008B4203D002F5806293426AD10BF0FCFFB2
:100FC000464BDA69C2F3022244494FF6FF73444D9F
:100FD0000969C1F3C03142EAC1020799AA5C00FB6A
:100FE00002F0B0FBF4F21A44120CB0FBF2F211B1B1
:100FF000B2FBF4F39BB207EE902A00240599584601
:10100000B8EE677A0194009467EE086A69EE667A32
:10101000CBED026AE7EE287ACBED037A37F074F96C
:10102000049900296CD01F48DBF80430426B9342CE
:101030000AD0012964D0C26C934205D003295FD144
:10104000446EE41A18BF0124089B0BF1180B0BF82F
:10105000084C1A4604930123042A0BF8073C7FF43A
:10106000DBAE10480BB0BDEC048BBDE8F08F1D4A21
:1010700000200F4B0B49C1E905320BB0BDEC048BCE
:10108000BDE8F08FFAFE697AFCEEE77A17EE904A37
:1010900080E70BF0A3FF114BDA69C2F3021293E76A
:1010A000746D0A08F8000020283A00246F120339F2
:1010B0008D7A08087DFB0608917A080891FD0608DC
:1010C0006F12833A2542002400007A44C86C0A0853
:1010D0000000FEA70000014000400140004402580B
:1010E000DC120B08F5FC0608B4420024ACC5A73797
:1010F000ACC5A73628293038039BCBF814303AE723
:101100000124A1E7CBF8142035E75FED087A5FED05
:10111000088A5DE65FED097AF0EE678A58E60123FA
:10112000074ADFED087A0793074BF0EE678A44F829
:10113000082C44F8103C054B58E60E46059190E605
:1011400091FD06086F12833A917A08088D7A080893
:1011500000284DD0274A2DE9F84F0446264B006859
:1011600003449B0A02EB4303B3F8E800FFF790FD4A
:10117000B4F804C02368BCF1000F37D000204FF052
:10118000010B4FF0030A4FF00F0900F007020BFAB2
:1011900000FE45000224C7081CEA0E0F4FEA820237
:1011A0000AFA05F603EB870700F1010009FA02F8D5
:1011B00004FA05F501FA02F215D09C6824EA060447
:1011C0009C605C6824EA0E045C60DC6824EA060427
:1011D000DC603C6A24EA080414433C621A6822EA90
:1011E00006022A431A603CFA00F2CED1BDE8F88F1D
:1011F000704700BFC86C0A080000FEA700284CD04A
:10120000264A2DE9F84F0446254B006803449B0A03
:1012100002EB4303B3F8E800FFF73AFDB4F804C06B
:101220002368BCF1000F36D000204FF0010B4FF0C7
:10123000030A4FF00F0900F007020BFA00FE450009
:101240000224C7081CEA0E0F4FEA82020AFA05F6CA
:1012500003EB870700F1010009FA02F804FA05F52B
:1012600001FA02F214D09C6834439C605C6824EA62
:101270000E045C60DC6824EA0604DC603C6A24EA54
:10128000080414433C621A6822EA06022A431A60E0
:101290003CFA00F2CFD1BDE8F88F7047C86C0A085D
:1012A0000000FEA7004870471443002470B4204D8E
:1012B00006460468E36931EA030323D0D5F80C3C01
:1012C0009B1AB3F1007F23681FD25807F2D5E36958
:1012D0001B05EFD54FF4006220230021032022627A
:1012E000226822F4D0722260A26822F00102A26079
:1012F000C6F8803086F87C10C6F88430C6F888308E
:1013000070BC7047002070BC704723F4D07320225B
:10131000002103202360A36823F00103A360C6F823
:10132000802086F87C10C6F8842070BC704700BF0F
:10133000283A00240128B5EEC00A10D0F1EE10FAC8
:101340000BDD9FED177ADFED177AE0EE077AFCEE02
:10135000E77A17EE903A98B2704700207047F1EEA6
:1013600010FA0BDD9FED107ADFED107AE0EE077AD0
:10137000FCEEE77A17EE903A98B27047EDD5F7EEAB
:10138000006A9FED0B7ADFED0B7A30EE260AE0EE75
:10139000077AFCEEE77A17EE903A98B2704700BFF2
:1013A00000E0F9440000404200C07944000083445A
:1013B00000C079C400E08244F8B5474E96F8104C5E
:1013C00004EB8403A50006EB830393F8143C032B82
:1013D00077D8DFE803F0492A1F02254406EB85058C
:1013E000D5F8183C002B6ED196F8642C944268D046
:1013F000013404F003018A4286F8101C61D001EB2D
:1014000081040222184606EB8404C4F8183C84F8D0
:10141000142CF8BD2B1906EB8303D3F8182C72B1EA
:10142000013A0020C3F8182CF8BD2B1906EB8303F2
:10143000D3F8182C002AF3D1022283F8142C254467
:1014400006EB850595F8203C013BDBB285F8203C96
:10145000F3B1224B0120D3F8142102F2E733B3FB9E
:10146000F2F3C5F8183CF8BD4AF0D0F948B31B4A6E
:1014700042F20F732C440121D2F8142106EB8404AC
:10148000134484F8141CB3FBF2F3C4F8183CF8BD01
:10149000124B601C0327D5F81C1CD3F814213840CC
:1014A00096F8644C531E85F8147C001B0B4418BF3F
:1014B00001209A42B3FBF2F188BF0020C5F8181C46
:1014C00030B90120F8BD013B0020C5F8183CF8BD3B
:1014D0000139C5F8181CF8BD283A00240000002482
:1014E00090F83C30012B00F0BE810123F0B580F86C
:1014F0003C30142A54D8DFE812F05800530053004F
:1015000053009F00530053005300750153005300D4
:101510005300E300530053005300260153005300CF
:10152000530015000368D1F808C01D6A0F6825F440
:101530008015A64E1D62B3421A6AD3F804E05C6DB2
:1015400022F4001224F4E04442EA0C5244EA072454
:101550000ED09F4DAB420BD006F5804605F5804579
:10156000AB4218BFB34203D005F58065AB4204D14E
:101570002EF4003E4D694EEA852E4D68C3F804E016
:101580005C65DD651A625C6D0D6944F400645C6540
:10159000596D21F4806159655A6D42EA05225A65F8
:1015A000002380F83C301846F0BD03688E681D6A41
:1015B0000F6825F00105874C1D621A6A5D6822F0EC
:1015C0000202D3F818C03243804E0CEA0404B3423E
:1015D00044EA07040ED006F58066B3420AD07E4F77
:1015E00006F58046B34218BFBB4203D006F58066BD
:1015F000B3420BD1CE6822F008028F6925F4407502
:1016000032434E693E4322F0040235434E685D602A
:101610009C615E631A629C690D6944F008049C61D8
:10162000996921F0040199619A692A439A6100231A
:1016300080F83C301846F0BD03688E681D6A0F685C
:1016400025F01005654A1D621C6AD3F804C024F019
:1016500020049D6944EA06145C4E2A40B34242EAE3
:10166000072200F002815A4DAB4200F0FE805A4E34
:101670005B4DAB4218BFB34203D005F58065AB426A
:1016800006D14E692CF4406C8D6935434CEA850CCB
:101690004E68C3F804C09A619E631C629C690D6920
:1016A00044F400649C61996921F4806199619A69AC
:1016B00042EA05229A61002380F83C301846F0BDCA
:1016C0000368D1F808C01D6A0F6825F480553F4EA5
:1016D0001D62B3421A6AD3F804E0DC6922F40052B6
:1016E00024F4E64442EA0C3244EA07240ED0384D92
:1016F000AB420BD006F5804605F58045AB4218BFDE
:10170000B34203D005F58065AB4204D12EF4804E80
:101710004D694EEA851E4D68C3F804E0DC611D6426
:101720001A62DC690D6944F40064DC61D96921F452
:101730008061D961DA6942EA0522DA61002380F822
:101740003C301846F0BD0368D1F808C01D6A0F6828
:1017500025F480351D4E1D62B3421A6AD3F804E0A9
:101760005C6D22F4003224F0700442EA0C4244EA38
:1017700007040ED0164DAB420BD006F5804605F59A
:101780008045AB4218BFB34203D005F58065AB423C
:1017900004D12EF4803E4D694EEA052E4D68C3F803
:1017A00004E05C659D651A625C6D0D6944F0080497
:1017B0005C65596D21F0040159655A6D2A435A65DB
:1017C000002380F83C301846F0BD00BF0000014007
:1017D000000401408CFFFEFF00400140FF8CFFFE33
:1017E000004401400368D1F808C01D6A0F6825F461
:1017F0008075264E1D62B3421C6A5D68DA6924F466
:10180000007422F0730244EA0C2442EA070234D046
:1018100006F58066B34230D01D4F1E4EB34218BF4E
:10182000BB4203D006F58066B34206D125F440578B
:101830004E698D69354347EA05154E685D60DA618A
:10184000DE631C62DC690D6944F00804DC61D9695F
:1018500021F00401D961DA692A43DA61002380F8B2
:101860003C301846F0BD0220704724F08004CE685A
:1018700044EA061424F0400403E724F40064CE682C
:1018800044EA062424F48064D0E700BF000001404D
:1018900000400140004401402DE9F04FDFF8C0B1A5
:1018A0008DB0542200210BF6684065F03DF80BF630
:1018B000BC404FF431725E4964F0D4F89BF8803F2D
:1018C0003BB19BF8812F9BF8823F8BF8682C8BF8FB
:1018D000693C9BF8833F1BB1BBF8843FABF88C3C61
:1018E0009BF8893F1BB1BBF88A3FABF8803C9BF863
:1018F000863F3BB19BF8872F9BF8883F8BF8742C71
:101900008BF8753C4B4B00254B4A1B8812881B09F2
:101910004A4C4B49C3EB12102288CBF89C3F130969
:10192000484C494F494ECBF8983F91FBF0F1CBF82A
:10193000A01F0DE0052D00F0DA81062D00F0A38236
:101940002078002840F0A98101350C34072D2BD0D8
:10195000042DEFD102204FF48021B8460246EC233B
:101960004FF0070E4FF0010C607003FB02B32078BC
:10197000C4F80480D3F8A42D84F80AE00A4384F85C
:1019800009C0C3F8A42D0028DED047F0BFFFEB1D2F
:10199000DBB210B100228371C2710135032148F01E
:1019A00071F90C34072DD3D1294C0025DFF8B49000
:1019B000DFF8B480274FDFF8B4A0274E54F8083C76
:1019C000002B00F00681D4F8E020002A00F001810D
:1019D000EC22236002FB05B2D2F8181D41F002018F
:1019E000C2F8181D99689A6801F0040102F0080213
:1019F0000A43DA6846D0920105D5A18A40F2011265
:101A0000914200F0F5829A68520700F1DD829A68EF
:101A1000120708D59A68910705D499680F4A0A40B9
:101A200042F020029A600C21DBF80C0C26E000BF8B
:101A3000C46D0A0820E8F11F40E8F11F60E8F11FBB
:101A40008038010090460024000084CBC86C0A084E
:101A5000EC460024200882E000210240C0FFFF7F06
:101A6000283A00241CF800FC300882E0E03000FE38
:101A7000DBF80C2C121A052A00F2D4829A680A426A
:101A8000F6D1DA6842F400122046DA6012F054F817
:101A9000002800F09282236840F2FF7C9E490022D9
:101AA000D3F804E00EEA0101DFF888E25960C3F8D8
:101AB00000C09968DFF880C221F0A0419960996860
:101AC00041F000519960D96801F08021D960D9684E
:101AD00041F00041D960196901EA090119615969A8
:101AE00001F040415961996901F078419961196AA1
:101AF00001F07C411962596A01F07C415962D3F8C6
:101B0000B01001F07C41C3F8B010D3F8B41001F06C
:101B10007C41C3F8B410D3F8B81001F07C41C3F88D
:101B2000B810D3F8BC1001F07C41C3F8BC10196B9D
:101B300001EA08011963596B39405963996B3940BF
:101B40009963D96B01EA0E0E7449C3F83CE08B42ED
:101B5000D3F860E01A66D3F864E05A66D3F868E018
:101B60009A66D3F86CE0DA66D3F8A02002EA0C0299
:101B7000C3F8A020D3F8A42002EA0C02C3F8A420E2
:101B8000D3F8C02002EA0C02C3F8C020D3F8C42066
:101B900002F0F822C3F8C42000F08B81B34200F0B9
:101BA00088815F4B9B68DB0704D45E4B9A6802EA2E
:101BB0000A029A60EC22002302FB05B2C2F81C3D27
:101BC000C4E91733C2F8183D84F85030002840F0BB
:101BD00061810135EC34032D7FF4F0AEDFF85091D4
:101BE0004FF0000A4D46D046CDF81490D5F8E830B5
:101BF000002B40F0698108F10108EC35B8F1030FC2
:101C0000F4D10026DDF81490DFF830813546464FD8
:101C1000DFF82CA1D9F8E830002B00F02B81D9F89F
:101C200008403E4A944200F04D81444500F04A810C
:101C30003C488268A16849072ED499F858100129B8
:101C40002AD002F01F020121092A89F8581000F257
:101C5000C88140F22121D140C90740F1C281A16869
:101C600011F0010140F08480D4F808E0DFF8D4C01E
:101C70001EEA0C0F42D0EC2303FB05B5D5F8183D46
:101C800085F8141D43F01003C5F8183DD5F81C3D28
:101C900043F00103C5F81C3DFEE7244A002301334D
:101CA0001E2B3FF451AE12F80C1F8842F7D194F965
:101CB00001104A1E49B103EB430106EB810191F883
:101CC000C1131141C80700F1E6800C211848002219
:101CD00001FB03630168EC3029B193F8C113114192
:101CE000C90700F1C0830132032AF3D12CE6022098
:101CF0004FF40021DFF85080024630E6A1683940F9
:101D000041F00101A160DBF80CCC8168C9062CD040
:101D100044452AD12CE000BF00F8FFFF002002401C
:101D20000060025800630258C0FFFF7F88700A08F5
:101D3000E446002420F8FFFF0000F0FF00210240ED
:101D4000002302403F0000800000B8CFA168C80710
:101D500004D4A168394041F00101A160DBF80C1CFA
:101D6000A1EB0C01022900F22C852168C907EDD5F1
:101D7000EC20B649444500FB05B0D0F818CD0CEA7C
:101D8000010141F48071C0F8181D00D142B9EC2264
:101D900002FB05B2D2F8181D21F48011C2F8181DFB
:101DA000EC2202FB05B2D2F8181D11F4805140F06C
:101DB000D682C2F81C1D4FEA530ED9F85400990878
:101DC000A34A0EF0773E01F03331C263DA088E4445
:101DD000A04902F01132A3EB0E0E01649E4B1C21B0
:101DE000AEEB020EC364FF2321600EEB1E1E626881
:101DF00000210EF00F3E42F0100289F8581004F155
:101E000040016260E268BEFBF3F322F0030CD9F8F4
:101E10003420C3EB03234CEA0202DFF864C2AEEBCA
:101E20000303E2600CEB460211F0C2F9D9F8082076
:101E300093683B4043F004039360002840F08483A0
:101E4000D9F8E830854A59089C0801F07731D8085C
:101E500004F0333400F0113021445B1A1B1A03EBF9
:101E6000131303F00F33A2FB0312D209C2EB0222B9
:101E70009B1A1E44013509F1EC09032D7FF4CAAE0B
:101E80000DB0BDE8F08F02204FF40031DFF8F4818F
:101E9000024664E5FEE74FF00C0C4FF0010E50B225
:101EA0000CFB036393F8C813D3F8C4830EFA01F153
:101EB00055E56B4B9B68B2681343DA073FF57AAE82
:101EC000684B73E65046B4E6A8880426FEF7E0FEA9
:101ED000D5F8E830FF22AE6159089C0801F077314F
:101EE000D80804F0333400F01130214403245B1A85
:101EF000EC211B1A286801FB08B103EB1313A8603F
:101F00004FF4403003F00F33E8600820B3FBF2F2E7
:101F1000C2EB0222286101209B1A002268612B6219
:101F20004FF480536877A8622A7785F8242085F8D3
:101F300040200692C5E90B22C5E90D43D1F8183DB2
:101F4000002B00F00782AF68BB68980003D5BA6821
:101F5000454B1340BB60BB6813F0805F434B3ED1E1
:101F6000B9681A460193424BD2F810210B404149FF
:101F7000B2FBF1F243F08053BB600692069B2BB19B
:101F8000069B013B0693069B002BF9D1BB68D90049
:101F900040F1D0810024BB685A0775D5EC2303FBC0
:101FA00008B3D3F8183DEC2303FB08B3D3F8182D7E
:101FB00042F01002C3F8182DFEE7EC23012203FBC8
:101FC00005B3C3F8182D66E59A6891073FF51FAD74
:101FD0009968294A0A4042F010029A6017E5019375
:101FE000D4E7EC22002302FB05B585F8143D53E647
:101FF0001A68500606D4214A01E0013A12D0196845
:102000004906FAD540221A609A68500708D59A689E
:10201000900705D49968184A0A4042F010029A6065
:10202000042101E5EC22012002FB05B2D2F8181DC3
:1020300041F01001C2F8181DD2F81C1D0143C2F86E
:102040001C1DDA6842F40012DA6024E5FEF0FFFF9E
:102050006DFB040869FB040855FB0408818080803F
:102060000020024000230240C0FFFF5F0000002468
:10207000C0FFFF6F400D0300C0FFFF7F00DC0C00BE
:10208000C0340124000052C7EC2303FB08B3D3F88B
:10209000182DD60687D4D3F8182D22F4817242F079
:1020A0000202C3F8182DBB68DB0713D4AF4B9F4265
:1020B00000F07D8303F580739F4200F07883AC4B82
:1020C0009B68D80706D4AB498B68EA6823F47C1375
:1020D00013438B60A84A41F203031268B3EB124F1B
:1020E0002A69C0F0A281AB6B697F134395F8242065
:1020F00043EA413343EA0243012A03D1AA6A013A7F
:1021000043EA4243EA6A22B102F47872296B0A4335
:102110001343F968994A0A401343FB60B868BB68E7
:1021200000F0040003F00803184300F03381AB68AB
:102130006A69012A00F0E9821A6B22F00F021A6321
:10214000EC2707FB08B7D7F8183D07F6185623F019
:10215000030343F00103C7F8183D002C40F09581BC
:1021600095F858300794012B00F08E8105F1080393
:1021700018460493012385F8583011F0DDFC00283F
:1021800040F07C81D7F8181D7D4A7E4B0A407E497D
:1021900042F00202C7F8182DAA689068034043F085
:1021A000004393609368002BC0F27081EC22002002
:1021B000764F02FB08B201460290D2F8183D23F098
:1021C000030343F00103C2F8183D85F8580006E008
:1021D000029B0C370133072B029300F06D817B7A51
:1021E000002BF5D097F901304345F1D1684B00221F
:1021F0004E1C87F808A003EB810095F858300AF1CF
:1022000001010892012BD0F828457A68039100F06B
:102210002981AB680120996885F85800490700F1C9
:102220001281C2F3130EBEF1000F40F0B682C2F36A
:10223000846C910E00FA0CF0D3F81CA04FEA9419AC
:1022400003F1300C04F01F044AEA000A09F00C0004
:102250004FF01F09C3F81CA001EA090150F80CA0B7
:1022600009FA04F9A1402AEA090949EA010140F8FA
:102270000C109868996800F0040001F0080101430F
:1022800045D1D10DC2F3045A03F114044FF00709EC
:1022900001F004014FF0060C09FA0AF908590CFA8A
:1022A0000AFCDFF8D4A020EA090040EA0C0008513B
:1022B000DAF8001001F07041B1F1805FD96800D008
:1022C000D968196E900601F0F841B1EB826F03D125
:1022D000196E21F000411966596E01F0F8418842EB
:1022E00003D1596E21F000415966996E01F0F84111
:1022F000884203D1996E21F000419966D96E01F0B0
:10230000F841884203D1D96E21F00041D96699681D
:10231000C80708D4D3F8C010002A21EA0E01C3F878
:10232000C010C0F2C58100233146DDF80CA085F84D
:1023300058304DE7EC23012403FB08B3D3F8182DE4
:1023400042F01002C3F8182DD3F81C2D2243C3F815
:102350001C2D20E6C1F81C3D85F85830F3E5D2F875
:102360001C1D21F00601C2F81C1D24E500200240BE
:1023700000600258006302580010005C03C0F0FFC8
:10238000FDEEFFFFC0FFFE3F00F8C325904600248E
:10239000C86C0A08FB68B84A297F1A406B6B42EA8E
:1023A000813295F8401013430129FB6000F025822B
:1023B0003B6923F001033B613A69EB6B22F0704209
:1023C000AE4913438F423B6100F00F82AC4B9F42FA
:1023D00000F00B82AB4B9B6813F4403F14BF01230A
:1023E0000023002B00F0D5800AF0B6FDEB68B3F5B2
:1023F000003F00F0CA80B3F5403F00F0B680B3F56F
:10240000803F00F0C280A04A41F203031268B3EBA0
:10241000124FC0F0A1809D4B984240F29780AB686C
:102420009A6842F480729A6082E6102A7FF45BAE6A
:1024300095F82420687F1104AB6B41EA40310B43CF
:1024400043F01C0358E6EC2303FB08B3D3F8182D24
:1024500042F02002C3F8182DEC23002203FB08B33E
:1024600083F8142DFEE793F8C8134FF0010CD3F84E
:10247000C48350B20CFA01F1FFF771BA336887F8E0
:10248000144D43F010033360FEE795E5079B0133DD
:102490000793079B8B42FFF485AEEC23002103FBDF
:1024A00008B3D3F8182D83F8141D22F0120242F05D
:1024B0001002C3F8182DE7E7754B5FFA88F6022083
:1024C0004344314693F9142047F07CFE47680446A4
:1024D000384647F0DBFF01994FF0240C431E0CFBFC
:1024E000031393F8341100297FF4CAAC01364FF07E
:1024F000060C83F8356183F834C100283FF4C0AC82
:10250000A3684FF480644FF48072EF662B674FF43A
:1025100000664FF480334FF40057EC6705F16C040C
:102520006967A967C5E92223C5E920675DF08AFECE
:10253000204610F0E7FF204611F0C6F8049B6C65BA
:10254000C5F8A430FFF757BBFFF7A6BBAB689A6886
:1025500022F480729A60EBE54E4B984207D8AB6844
:102560009A6822F440729A60E2E580084BE74A4B91
:1025700098423FD9494B9842AB689A6824D822F4D4
:10258000407242F400729A60D2E51B0CB0FBF3F08B
:1025900039E7434A936D03F44033B3F5803F5BD092
:1025A000B3F5003F4BD0002B5FD0EB68B3F5101FA5
:1025B00043D00DD8B3F5E01F3DD023D9B3F5001FAC
:1025C0007FF421AF40091EE742F440729A60AFE504
:1025D000B3F5201F4ED0B3F5301F7FF414AF2A4A55
:1025E00041F203031268B3EB124FAFD2294BB3EBA6
:1025F000102FB4D2AB689A6822F4407242F4807211
:102600009A6095E5B3F5801F07D00BD9B3F5A01FED
:1026100003D0B3F5C01F7FF4F6AE9B0C5B00B0FB9C
:10262000F3F0F0E6B3F5002FF7D023F40022B2F573
:10263000802FF2D0E7E60009E5E68009E3E6D36CF7
:1026400013F040530FD0B3F1805F0AD0154AB3F1B5
:10265000005F08BF1046A8E709A809F03DFD0B98E8
:10266000A3E71148A1E711489FE709A809F0E0FD99
:1026700009989AE7C009C6E6FCBFFFFF00200240A8
:1026800000210240006302580010005C002D31015F
:10269000A849002421BCBE0041787D0181F0FA02E6
:1026A0000044025800127A0000093D000090D00357
:1026B0005A498B4231D001F580718B422DD0584957
:1026C00058488468896804F0E07CC94301F001013E
:1026D00000293FF4B8AE54498A423FD053498A4258
:1026E0002CD053498A427FF41EAE64023FF51BAEE4
:1026F0004B4A93427FF417AE836823F0E07343EABA
:102700000C0343F4800383600DE6196B2A6A21F001
:102710000F01013A0A431A6312E546498C680846DC
:10272000A1F5407104F0E07CD1F80890D1F808E1FF
:1027300049EA0E01C94301F00101C9E7E2013FF591
:10274000F2AD374A93427FF4EEAD836823F0E07335
:1027500043EA0C0343F080738360E4E521023FF514
:10276000E2AD2F4A93427FF4DEAD019B8268D3F83D
:102770001031314922F0E072B3FBF1F342EA0C0C64
:102780005A004CF400038360089202E0089B013B6E
:102790000893089B002BF9D1C5E592FAA2FCBCFA7C
:1027A0008CFC910E0CF01F0C00FA0CF044E51B4B56
:1027B000224A9B6892681343DE073FF58BAC1D49A4
:1027C00082E4EC23002203FB05B5D5F8183D85F81B
:1027D000142D43F01003C5F8183DD5F81C3D43F007
:1027E0000103C5F81C3DFFF757BA124B9B6813F461
:1027F000403F14BF01230023F3E5D5E91123E96C21
:10280000013A2E6D0B43396943EA02430C4A3343C4
:102810000A40134343F001033B61CDE50020024031
:102820000060025800630258000084CB000052C7C9
:102830000000B8CF00230240400D030000210240F9
:102840001EF800FC2DE9F041D0F800E00C46DFF85E
:10285000588084B0DEF804501746DFF850C019469F
:1028600005EA0805DDF82880064603932C43424616
:1028700044EA0C0CCEF804C00CF026FB78B93168A1
:102880000246039B30468F628021CDF800800CF019
:102890004BFB003818BF012004B0BDE8F0810120D7
:1028A00004B0BDE8F08100BF009800FC0020018169
:1028B000F8B5134F04460D460AE09B69DB0602D5C6
:1028C0000CF0C2FAD0B9D7F80C3C5B1B0A2B08D825
:1028D00023682A460A2120469E69B606EDD50020C7
:1028E000F8BD636C2021002201200B4384F84020B6
:1028F000636484F8411084F84220F8BD0120F8BDDB
:10290000283A00242DE9F041D0F800E00C46DFF829
:10291000588084B0DEF804501746DFF850C01946DE
:1029200005EA0805DDF82880064603932C43424655
:1029300044EA0C0CCEF804C00CF0C6FA78B9316841
:102940000246039B30468F624021CDF800800CF098
:10295000EBFA003818BF012004B0BDE8F081012077
:1029600004B0BDE8F08100BF009800FC00200180A9
:10297000F8B5364C05460821D4F8A40FD4F80C6CF1
:1029800008F0BCFE00B1F8BDD4F8E81FD4F8A40FDD
:10299000090408F053FE0028F5D1D4F8A43F4FF005
:1029A000FF31082259629A6201301F28FCD9DA6A85
:1029B0000020274941F2331722F0FF0242F0330290
:1029C000DA6298601846DA68114041F288320F43A3
:1029D0003321DF6008F098FD0028D4D1D4F8A42F6B
:1029E0008446074640F22A5104E0D4F80C3C9B1B75
:1029F00001331ED0536B0B42536B09D11B03F4D42C
:102A00000028F2D1D2F880700120D2F880C0ECE723
:102A1000190714D4536B9B070ED4506B10F0200091
:102A200010D19CFA8CF33FBA0A499163C5E900378B
:102A3000F8BD4FF00040F8BD02209063F8BD0820BB
:102A40009063F8BD20209063F8BD00BF283A0024B1
:102A5000C0E0FEFF3A0F001870B5114C41F20D13A3
:102A6000104D41F28832D4F8E81FD4F8A40F0E04B8
:102A70000D218660C66835402B43C36008F044FDD5
:102A800038B1D4F8D82F034600201343C4F8D83FF8
:102A900070BDD4F8A43F5869C0F3432070BD00BF97
:102AA000283A0024C0E0FEFFF8B500286FD0474C5C
:102AB00094F8D43F012BDEB255D18B18D4F8F45FD3
:102AC0000027AB42C4F8D87F50D8D4F8DC3F4FF091
:102AD000030ED4F8A45F4FEA422C012B84F8D4EF04
:102AE0004FF00003EF6218BF49024FF0FF37C4F800
:102AF000CCCFC4F8C80F6F62C5F828C001331F2BB4
:102B0000FCD9EB6A012723F0FF03BA4243F092039A
:102B1000EB62EB6843F04003EB60A8652F6540D99A
:102B200082232B4F2846C4F8D03F41F21213A960EC
:102B30001221EA68174041F288323B43EB6008F00B
:102B4000E3FCD8B1D4F8A41F0122224D00238D63E9
:102B5000D4F8D81F0843C4F8D80F304684F8D42FCF
:102B6000C4F8D03FF8BD02263046F8BDD4F8D83FAF
:102B7000304643F00073C4F8D83FF8BDD4F8A42F12
:102B80000646D36B304643F49573D363F8BD0F4AC2
:102B90000126D2F8D83F304643F00063C2F8D83F50
:102BA000F8BD81230A4F2846C4F8D03F41F21113E3
:102BB000A9601121EA68174041F288323B43EB607B
:102BC00008F0A2FC0028D9D0BCE700BF283A0024B6
:102BD000C0E0FEFFFF0FE01F2DE9F843214C8046C7
:102BE0008946174614F8A45C1E46042D08D0082D0B
:102BF00002D00020BDE8F883FDF7AAFD0228F8D135
:102C000019F01F0F1FD10125174B4FF4007C4146CF
:102C10002A464846C4F8185C43F8D05C43E9369C21
:102C2000FFF742FF78B9052254F8CC3C284644F817
:102C3000C89C44F8C48C04F8A42C44F8B43C44E97F
:102C40002F76BDE8F883FDF7F3FD54F8BC5C002D4A
:102C5000CFD0002254F8B83C54F8C41C1046A84702
:102C6000C7E700BF30290024204B0024F8B55349A2
:102C70000124C1F81C4C12F01F046FD15F02BFF396
:102C80004F8F3FB1D61911464D4DC5F8681220310E
:102C9000B142FAD1BFF34F8FBFF36F8F002A00F01C
:102CA0008480484E96F8D41F012955D103EB000EBD
:102CB000D6F8F45F00218446AE45C6F8D81F6CD81C
:102CC000D6F8DC0F4FF0030ED6F8A45F012886F883
:102CD000D4EFE9624FF0FF3118BF4FEA4C2CC6F831
:102CE000C02F6962C6F8C47FAF6201341F2CFCD9C3
:102CF000E96A012021F0FF01834241F09001E9627D
:102D0000E96841F04001E960AA65286528D9A02258
:102D10002D4C41F219132846C6F8D02F41F28832C3
:102D2000C5F808C0E9680C4019212343EB6008F09E
:102D3000EBFB03464BB3D6F8A40F0121234C002232
:102D400084632A20D6F8D84F2343C6F8D83F86F8A4
:102D5000D41FC6F8D02FF8BD2A20F8BD0920F8BD31
:102D60009022194C41F218132846C6F8D02F41F290
:102D70008832C5F808C0E9680C4018212343EB608D
:102D800008F0C2FB0346002BD5D1D6F8A42F184675
:102D9000D36B43F48D73D363F8BDD6F8D83F2A20A4
:102DA00043F00073C6F8D83FF8BD064A2A20D2F88F
:102DB000D83F43F00063C2F8D83FF8BD3029002463
:102DC00000ED00E0283A0024C0E0FEFFFF0FE01F06
:102DD0002DE9F04705460E4690461F46384C14F83C
:102DE000A40C04280CD0082807D154F8AC3CAB4202
:102DF00006D0FDF7ADFC0228F1D00120BDE8F08738
:102E0000D4F8949B44F8C86CC9F34F234FEA592275
:102E100044F8C45C0F2B2BD854F8A8ACBAF1000FBF
:102E200026D094F82A1019B3B9F5005F41D025488F
:102E30004FF400723146484462F014FE09F5007206
:102E4000C2F34F23C4F8942B520A102B31D0BAF19D
:102E5000010F2ED054F8AC2C0AF1FF3304210220CC
:102E6000013244F8A83C04F8A41C44F8AC2CC5E793
:102E700001234FF00109284606253246002144F877
:102E8000BC8C44F8B87C04F8C09C04F8A45CFFF740
:102E9000EDFE0028B2D0FDF7CBFC54F8BC5C6DB160
:102EA000484654F8B83C54F8C41C0022A8470320F4
:102EB000A4E792B2034E013AAD1ADAE703209DE788
:102EC00030290024E8660024134B53F8D80C53E94A
:102ED000353230B420F01F010025104C03FB0202F4
:102EE000C4F8185C521ABFF34F8FAA420DDD013AA5
:102EF00001F120030A4822F01F021A449342C0F84D
:102F00005C12194603F12003F8D1BFF34F8FBFF3D2
:102F10006F8F30BC704700BF204B00243029002445
:102F200000ED00E00B4BD3F8182C3AB1D3F8202C6D
:102F300000210132C3F8181CC3F8202CD3F81C2C34
:102F40003AB1D3F8242C00210132C3F81C1CC3F879
:102F5000242C70473029002470B5214DD5F89030CD
:102F600093F82620DAB11B699847E0B1D5F8903084
:102F700093F824208AB105F1940600241A19E0B2CE
:102F80009B69013492F82C10B6EC010A9847D5F8E9
:102F9000903093F824209442F0DB5B69984795F8D1
:102FA000A430332B00D070BD95F8A830002BFAD098
:102FB000D5F8903093F82430042B1E46A8BF042681
:102FC000002BF0D00024074D2346013418465BF057
:102FD000E5FC45F8040BE3B29E42F6D870BD00BF95
:102FE000F8000020A40100202E4A00252E4C08B530
:102FF0000023D560C4F89430C4F89830C4F89C30ED
:10300000C4F8A030FFF7A8FF322040F0AFFDD4F89D
:103010009030DB689847D4F8903040F2DC5083F869
:1030200026509D6283F825503DF03CFCD4F8CC300E
:1030300013B11D60C4F8CC50D4F8D4301BB10022B9
:103040001A60C4F8D420D4F8DC301BB100221A6016
:10305000C4F8DC20D4F8E4301BB100221A60C4F8B4
:10306000E420D4F8EC301BB100221A60C4F8EC2044
:10307000D4F8F4301BB100221A60C4F8F420D4F85C
:10308000FC301BB100221A60C4F8FC20D4F80431D3
:103090001BB100221A60C4F80421642040F066FDD0
:1030A0005FF038FD50400058F80000202DE9F84F3F
:1030B000CB4C054614F8CC1C54F8C40CC1F34001A9
:1030C00046F0DCFE14F8CC1C54F8C80CC94301F0DF
:1030D000010146F0D3FE002D00F0E78005F1FF3935
:1030E000C04E4FF01008C04F5FFA89F9BF4D54F839
:1030F000C43C33B11A689B8851690B4218BF1B044A
:10310000936154F8C83C33B11A689B8851690B42EB
:1031100018BF1B04936134F8BC3C002B40F057816E
:1031200014F8BA1C54F8B80C46F0A8FEFA204FF474
:103130007A714FF0010C7B68C3F30803002B40F059
:103140001981EFF31183002B40F0148156F8CC2C39
:10315000D5F808E056F8CC3C9A42F7D154F8943CA4
:103160009E45F3D854F898AC01FB0AF3A3EB0E0389
:10317000B3FBFAF301FB02327B68C3F30803002BB5
:1031800040F0B680EFF31183002B40F0B18056F889
:10319000CC3CD5F808B056F8CCEC7345F7D154F8D0
:1031A00094ECF345F3D854F898AC01FB0AFEAEEB6F
:1031B0000B0EBEFBFAFE01FB03E39B1AB3F57A7F0D
:1031C000DAD30138B7D154F8C43C33B11A689B88BC
:1031D00051690B4218BF1B04936154F8C83C33B1CA
:1031E0001A689B8851690B4218BF1B04936134F81D
:1031F000BC3C002B40F0DF8014F8BA1C54F8B80C2B
:1032000081F0010146F03AFEFA204FF47A714FF056
:10321000010C7B68C3F30803002B40F08A80EFF3B6
:103220001183002B40F0858056F8CC2CD5F808E0AF
:1032300056F8CC3C9A42F7D154F8943C9E45F3D8CA
:1032400054F898AC01FB0AF3A3EB0E03B3FBFAF3BB
:1032500001FB02327B68C3F3080343BBEFF3118326
:103260002BBB56F8CC3CD5F808B056F8CCEC7345DF
:10327000F7D154F894ECF345F3D854F898AC01FB2B
:103280000AFEAEEB0B0EBEFBFAFE01FB03E39B1A3C
:10329000B3F57A7FDED30138BBD109F1FF395FFA8C
:1032A00089F9B9F1FF0F7FF422AFBDE8F88FEFF392
:1032B000118A88F31288D5F808B02B68DB0303D590
:1032C00044F89CCCD5F808B056F8CC3C5FFA8AFAA2
:1032D00054F89CEC8AF3118854F898AC734401FBC1
:1032E0000AFEAEEB0B0EBEFBFAFE01FB03E3CEE7DC
:1032F000EFF3118A88F31288D5F808B02B68DB0346
:1033000003D544F89CCCD5F808B056F8CC3C5FFA0D
:103310008AFA54F89CEC8AF3118854F898AC7344F8
:1033200001FB0AFEAEEB0B0EBEFBFAFE01FB03E354
:1033300043E7EFF3118E88F31288D5F808A02B68C5
:10334000DA0303D544F89CCCD5F808A056F8CC3C59
:103350005FFA8EFE54F89C2C8EF3118854F898EC8A
:103360001A4401FB0EF3A3EB0A03B3FBFEF301FBCC
:1033700002326FE7EFF3118E88F31288D5F808A0B8
:103380002B68DA0303D544F89CCCD5F808A056F88E
:10339000CC3C5FFA8EFE54F89C2C8EF3118854F8C6
:1033A00098EC1A4401FB0EF3A3EB0A03B3FBFEF304
:1033B00001FB0232E0E654F8A03C002B3FF424AFBE
:1033C000002354F8B42C136004F8A33C1CE754F811
:1033D000A03C002B3FF4AAAE40F022FFA6E600BFBF
:1033E000204B00243029002400ED00E010E000E034
:1033F0002DE9F04FCA4C83B00523CA4E14F8CC1CFB
:103400004FF0100954F8C40CC1F34001019346F089
:1034100035FD14F8CC1C54F8C80CC943DFF80C83F4
:10342000C14D01F0010146F029FD54F8C43C33B10F
:103430001A689B8851690B4218BF1B04936154F8AA
:10344000C83C33B11A689B8851690B4218BF1B04F2
:10345000936134F8BC3C002B40F0598114F8BA1C3D
:1034600054F8B80C46F00AFD32204FF47A71012767
:10347000D8F80430C3F30803002B40F01B81EFF3AE
:103480001183002B40F0168156F8CC2CD5F808E0BB
:1034900056F8CC3C9A42F7D154F8943C9E45F3D868
:1034A00054F898AC01FB0AF3A3EB0E03B3FBFAF359
:1034B00001FB0232D8F80430C3F30803002B40F0BC
:1034C000B780EFF31183002B40F0B28056F8CC3C6C
:1034D000D5F808B056F8CCEC7345F7D154F894EC15
:1034E000F345F3D854F898AC01FB0AFEAEEB0B0E93
:1034F000BEFBFAFE01FB03E39B1AB3F57A7FD9D337
:103500000138B5D154F8C43C33B11A689B8851696D
:103510000B4218BF1B04936154F8C83C33B11A68BE
:103520009B8851690B4218BF1B04936134F8BC3C63
:10353000002B40F0E08014F8BA1C54F8B80C81F06D
:10354000010146F09BFC32204FF47A710127D8F834
:103550000430C3F30803002B40F08B80EFF311839A
:10356000002B40F0868056F8CC2CD5F808E056F8B1
:10357000CC3C9A42F7D154F8943C9E45F3D854F889
:1035800098AC01FB0AF3A3EB0E03B3FBFAF301FBC8
:103590000232D8F80430C3F3080343BBEFF31183BE
:1035A0002BBB56F8CC3CD5F808B056F8CCEC73459C
:1035B000F7D154F894ECF345F3D854F898AC01FBE8
:1035C0000AFEAEEB0B0EBEFBFAFE01FB03E39B1AF9
:1035D000B3F57A7FDDD30138B9D1019B5F1E17F0B7
:1035E000FF0301937FF421AF03B0BDE8F08FEFF349
:1035F000118A89F31288D5F808B02B68DB0303D54C
:1036000044F89C7CD5F808B056F8CC3C5FFA8AFAAE
:1036100054F89CEC8AF3118854F898AC734401FB7D
:103620000AFEAEEB0B0EBEFBFAFE01FB03E3CEE798
:10363000EFF3118A89F31288D5F808B02B68DB0301
:1036400003D544F89C7CD5F808B056F8CC3C5FFA1A
:103650008AFA54F89CEC8AF3118854F898AC7344B5
:1036600001FB0AFEAEEB0B0EBEFBFAFE01FB03E311
:1036700042E7EFF3118E89F31288D5F808A02B6882
:10368000DA0303D544F89C7CD5F808A056F8CC3C66
:103690005FFA8EFE54F89C2C8EF3118854F898EC47
:1036A0001A4401FB0EF3A3EB0A03B3FBFEF301FB89
:1036B00002326EE7EFF3118E89F31288D5F808A075
:1036C0002B68DA0303D544F89C7CD5F808A056F89B
:1036D000CC3C5FFA8EFE54F89C2C8EF3118854F883
:1036E00098EC1A4401FB0EF3A3EB0A03B3FBFEF3C1
:1036F00001FB0232DEE654F8A03C002B3FF423AF7E
:10370000002354F8B42C136004F8A33C1BE754F8CE
:10371000A03C002B3FF4A8AE40F082FDA4E600BF21
:10372000204B00243029002410E000E000ED00E0F0
:10373000054B0220054A5B084000934280B201D944
:10374000FF28F8D9704700BF80F0FA0280969800F1
:10375000002800F0FF802DE9F04F848885B0B4FA8E
:1037600084F3202BC3F11F0200F099807A4E4FF0B2
:103770000045DFF80C82164435FA03F308EB8202A9
:1037800096F8686542F8901C019605D0734A116856
:1037900021EA0301116093600368002C79D00021B5
:1037A000DFF8E0E16D4F00944FF00109009809FA4D
:1037B00001F2024069D04FF0030A01FA09FCDD680A
:1037C0004FF00F0B0AFA0CFC01EA0A0021F0030685
:1037D000634C25EA0C05800006F1B046A342DD608B
:1037E0000BFA00F5D3F800B006F580662BEA0C0C56
:1037F000C3F800C0DEF8F4C04CF0020CCEF8F4C000
:10380000DEF8F4C00CF0020CCDF80CC0DDF80CC0F2
:10381000D6F808C02CEA050526D004F58064A3423A
:1038200040D0504CA3426DD04F4CA34276D04F4C69
:10383000A3426DD04E4CA34274D0DFF84CC1634517
:103840007CD0DFF848C163457ED0DFF844C16345D2
:103850006ED0DFF840C163450CBF4FF0090C4FF04C
:103860000A0C0CFA00F00543B5604FF0B0403D681B
:1038700015433D607D6825EA02057D6005681543B6
:103880000560456825EA020242600131009ACA409B
:103890008AD1019B984418F8503CF02B06D805B00B
:1038A000BDE8F08F09FA00F00543DDE7F021314A69
:1038B000314B012008F8501CD2680199C2F3022252
:1038C0002E4D595CC2F10704131D01F01F06042C94
:1038D00000FA06F028BF0424062B4FF0FF338CBFFC
:1038E000033A0022A3406C184909DB4303F00303A9
:1038F00093401B01DBB284F8003345F8210005B08A
:10390000BDE8F08F4FF0020C0CFA00F00543ABE776
:103910004FF0040C0CFA00F00543A5E70AFA00F09A
:103920000543A1E74FF0050C0CFA00F005439BE7B7
:103930004FF0080C0CFA00F0054395E74FF0060C29
:103940000CFA00F005438FE74FF0070C0CFA00F07B
:10395000054389E7704700BFC86C0A08800000581B
:103960000000025800080258000C025800100258CB
:103970000014025800ED00E0F0120B0800E100E036
:10398000204B00240044025800180258001C025822
:103990000020025800240258034B53F8702C136A7D
:1039A000002BFCD1704700BF3029002410B4B8B1FF
:1039B0000D4C54F8483C102B05D1052100205DF832
:1039C000044B3CF027BE03EB4302224402F8431CA5
:1039D000012102F8440C0B4402F8421C44F8483C14
:1039E0005DF8044B704700BF204B00240368187833
:1039F000012801D000207047074A642193F9043060
:103A000001FB032393F84520202AF4D15B689869D1
:103A1000C0F3C030704700BF204B002410B50B4CE2
:103A2000D4F87C311B78022B0FD1D4F8840146F0F6
:103A30001FFAD4F8840108B12123C380012146F084
:103A400021F9FFF775FEA4F8800110BD204B00247A
:103A500030B5044683B001230D460DF10702084836
:103A6000214647F063FB9DF8072035EA020304D0A6
:103A70002A432146024847F08FFE03B030BD00BF05
:103A80009C4C002438B505460A460C460648294693
:103A900047F096F945F08001034847F087F8231A6C
:103AA0005842584138BD00BF9C4C0024F0B5344CFE
:103AB000134693B0D4F87C512A78022A07D00A46DC
:103AC000014604F5BE7047F031FB13B0F0BD2A6A21
:103AD00012B1002013B0F0BD0DF1070C0026002735
:103AE0008DF80700012003928DF814200B920E929E
:103AF0001092CDF808C004908DF828008DF83C0095
:103B0000CDE90622CDE90813CDE90C67EFF311806A
:103B1000102383F31288D4F87C311B6A13B302AEEE
:103B2000049B32461BB1D3691432002BFBD12B6AA4
:103B300013B3996839B993420AD0196829B15B68FF
:103B400099680029F7D01433F3E70E4AC3E9002639
:103B5000C0B280F31188D4F87C21136A002BFCD109
:103B60000120B2E702ABC0B22B6280F3118804F5EA
:103B7000BE705DF02DFDEEE7024A1A60FFDE00BF69
:103B8000204B00249C4C00242DE9F047046882B0AF
:103B90002578022D7FD0012D04D00024204602B0CC
:103BA000BDE8F08794F90470474E032F86F8485219
:103BB000D4BF00240124B7F1FF3F08BF44F0010443
:103BC000002CEAD10A466421034601FB07614868DC
:103BD0000028E2D091F845C0BCF1200FDDD180690A
:103BE00010F40048D9D191F844000128D5D04FF005
:103BF000400C3648DFF8ECE04FF0210993F804A0C0
:103C0000DEF80CEC81F8459081F846C006F5127C90
:103C1000C1F84880CD850863CB8D2D489BB281F8D3
:103C20004450C1F828C0FF2B886347D8B1F82EC094
:103C30004FF000791FFA8CFC64204FEA4A0ACDF855
:103C400000E0192300FB07F722485146F5193844D4
:103C5000A5F82CC0FEF7F6FD30BB6A681E49536814
:103C600095F82C600B401D4CA96B43EA0A03A14256
:103C700043EA064343EA0903536085F8440004D04D
:103C8000174B994218BF4FF0F2081368012443EA1A
:103C90000803136082E7236A002B7FF47EAF0122C2
:103CA000144647F08DF879E7B6F84A32002201331E
:103CB00085F844209BB2A6F84A326FE74FF0FF0C1C
:103CC0004FF08079B8E700BF204B00240000FFFFD1
:103CD00065F60408244B0024009C00FCF5F304085E
:103CE00021F50408283A002413B53A4C0023D4F8EF
:103CF00058228DF80730137803F0FD01012905D112
:103D000094F85C1211B90C2184F85C12022B1ED0BD
:103D1000032B2DD001220B212F4859F083FA0420C8
:103D20003FF024FF01230DF1070200212A4859F03A
:103D30009BFA002838D09DF80730482B34D1274B08
:103D4000C4F84C32264BC4F8503202B010BDD4F83F
:103D5000600246F08DF8D4F8600208B13423C380C5
:103D6000012145F08FFFFFF7E3FCA4F85C02D1E7E7
:103D7000D4F8083746F2A8115068122219610023BE
:103D8000372180F8883059F021FAD4F858320D22C2
:103D90002421586859F01AFAD4F8583230226A218E
:103DA000586859F013FAB5E7D4F858321A78022A4D
:103DB00003D0032A07D00020C7E7D4F8600246F0FA
:103DC000F1FB0020C1E710223721586859F0FEF9B5
:103DD000F1E700BF204B0024784D0024C7D209082A
:103DE00049D309082DE9F04FB64C002395B005469C
:103DF0004FF4F0728B4604F68C20202184F8883A28
:103E0000322784F8893A4FF00108019562F08CFD61
:103E1000202104F66C404FF4F072AB4E62F084FD4A
:103E20004FF0100EDFF8BCC24FF47A70A749DCF8EF
:103E30000430C3F30803002B40F0BC80EFF3118380
:103E4000002B40F0B78056F8CC2C8D6856F8CC3C4F
:103E50009A42F8D154F8943C9D42F4D854F8989C76
:103E600000FB09F35B1BB3FBF9F300FB0232DCF848
:103E70000430C3F30803002B7BD1EFF31183002B35
:103E800077D156F8CC3CD1F808A056F8CC5CAB42C0
:103E9000F7D154F8945CAA45F3D854F8989C00FBE9
:103EA00009F5A5EB0A05B5FBF9F500FB03539B1AD1
:103EB000B3F57A7FDBD3013FB9D194F84D3E002BA7
:103EC00052D094F84E2E013A052A4DD802EB8206C4
:103ED00001257F4804EBC60184F8C85F00EBC606E5
:103EE00091F8505EC4F8406F022D00F09982D2B272
:103EF00004EB0212D2F8D82FC1F8542EA2B34FF41B
:103F000080750227421900F59E7081F8507EA1F855
:103F10005C5EC1F8682EC1F86C0E1D0903F00F033A
:103F2000013D062D00F25D826A4F07EB4502B2F8B3
:103F3000D00040FA03F2D20740F1538201263D44FB
:103F4000DFF8A48106FA03F3013B18405FF070FF2D
:103F500095F8E010014408EBC10A9AF80690C4F8FD
:103F600048AF19F0BF0945D06FF0010015B0BDE8AA
:103F7000F08FEFF311898EF31288D1F808A00B6847
:103F8000DD0303D544F89C8CD1F808A056F8CC3C4E
:103F90005FFA89F954F89C5C89F3118854F8989C6D
:103FA0002B4400FB09F5A5EB0A05B5FBF9F500FB71
:103FB00003537CE7EFF311858EF31288D1F8089054
:103FC0000B68DB0303D544F89C8CD1F8089056F8B5
:103FD000CC3CEDB254F89C2C85F3118854F8985CD5
:103FE0001A4400FB05F3A3EB0903B3FBF5F300FB55
:103FF00002323CE72323384A04ADAAF8063058F8C9
:1040000031301A44920A07EB4207B7F8E800FCF790
:104010003FFE0323BAF8042058F831002946CDF8B2
:104020001890CDE90739CDE904260EF061FAD4F8ED
:10403000483F002B00F002821A68D4F8406F9B883A
:104040009361264A0223264952085B008A429BB2AA
:1040500001D9FF2BF8D9FF220DF10D01A4F8443F3F
:1040600000238DF80D2001220D9306928DF81C205F
:104070008DF83020CDE90413CDE90833CDE90A33BA
:10408000EFF31180102383F31288D4F8403F1B6AAA
:10409000002B00F0AB81069B2A461BB1D36914327A
:1040A000002BFBD1336A002B00F0CB81996839B922
:1040B00093421ED01968C9B15B6899680029F7D08E
:1040C0001433F3E7204B00243029002410E000E0F3
:1040D00070590024C86C0A080000FEA780F0FA029C
:1040E000404B4C0000ED00E0B4420024AF4AC3E96D
:1040F0000025C0B280F31188D4F840CFDCF820301E
:10410000002BFBD101224FF08C0E0DF10E060DF1AC
:104110000F070020002105938DF81C300D9310939C
:1041200012938DF80EE0049606920B928DF83020D3
:104130008DF844200A97CDE90833CDE90E01EFF35D
:104140001180102383F31288D4F8403F1B6A002BA0
:1041500000F05481069B2A461BB1D3691432002B10
:10416000FBD1DCF82030002B00F06B81996839B965
:104170009A420AD0196829B15B6899680029F7D07A
:104180001433F3E7894AC3E90025C0B280F31188EC
:10419000D4F8402F136A002BFCD19DF80F301B2B55
:1041A00040F044810122D4F8483F84F8882A0BB1BA
:1041B0002322DA80DFF8F49140220A21484646F0B3
:1041C000FFFD002301224FF08A0C002000218DF812
:1041D0000EC00496D4F840CF0A9705938DF81C3092
:1041E0000D931093129306920B928DF830208DF858
:1041F0004420CDE90833CDE90E01EFF311801023FF
:1042000083F31288D4F8403F1B6A002B00F0FF8034
:10421000069B2A461BB1D3691432002BFBD1DCF874
:104220002030002B00F01081996839B99A4209D0EA
:10423000196829B15B6899680029F7D01433F3E74E
:10424000C3E90095C0B280F31188D4F8402F136AF7
:10425000002BFCD19DF80F10554AC1F3801194F842
:104260004C3E02F8C01C534A002B00F0AF80022BDA
:1042700000F091800223504852085B0082429BB2BA
:1042800001D9FF2BF8D94A4A22F8BE3C4B4A92F892
:10429000A40018280DD14A48DFF82CC1C2F8B43068
:1042A000C2E92BB1B0FBF3F1ACFB0101490BC2F841
:1042B000B810002102223D484FF08008A4F8443F86
:1042C00046F07EFDC8204FF0000A3CF0EBFA4FF0BC
:1042D000000BD4F8401F002301228DF80E800496B5
:1042E0000A9705938DF81C300D9310931293069244
:1042F0000B928DF830208DF84420CDE90833CDE9BC
:104300000EABEFF31180102383F31288D4F8403FF3
:104310001B6A002B37D0069B2A461BB1D369143287
:10432000002BFBD10B6A002B00F08E80996839B905
:104330009A4209D0196829B15B6899680029F7D0B9
:104340001433F3E7C3E90095C0B280F31188D4F8C1
:10435000401F0B6A002BFCD19DF80F0010F00200EB
:10436000B9D10199124C4A788B78C2F120020978B0
:10437000C3F1100304F8BB2C04F8BA3C04F8BC1CCD
:1043800015B0BDE8F08FC0B20D6280F31188074808
:104390005DF01EF9DBE70B4852085B0082429BB2DE
:1043A0007FF671AFFF2BF7D96DE700BF605A00248D
:1043B000185C002480F0FA0280969800F800002033
:1043C00000E1F505002D31015917B7D1022320482E
:1043D00052085B0082429BB27FF655AFFF2BF7D9A4
:1043E00051E7002304ADC4F8483F2AE6C0B2356265
:1043F00080F3118817485DF0EBF87DE6C0B2CCF889
:10440000205080F3118813485DF0E2F8C0E6C0B296
:10441000CCF8205080F3118848465DF0D9F814E7B5
:1044200091F85D2E013281F85D2E76E5D4F8480FC3
:10443000202145F027FC4FF0FF3097E5D4F8406F7E
:10444000FFE5044A1A60FFDEC3F80090FFDE00BFFC
:10445000404B4C00605A002430B54CF205028DB040
:10446000002304460321ADF8002001AD01228DF8A0
:1044700002300B938DF814208DF82820CDF808D049
:10448000CDE90633CDE90833CDE9035146F036FDD9
:10449000204602A946F0A6F8204646F02FFD9DF8DA
:1044A00006000DB030BD00BF084800230246117859
:1044B0000632022904D00133062BF8D100207047C0
:1044C00003EB430300EB4300704700BF38180024A0
:1044D0002DE9F041714D82B0714E24220021284611
:1044E00062F022FA002316F8B74C6B62002C37D129
:1044F0006C4DD5F8E83243B39B6A33B36A489847AA
:10450000836813B303880022644E013B354631466D
:104510009BB20878063103281BD00132062AF8D155
:10452000002231780636022900F09A800132062AEC
:10453000F7D1696A052908D002FB0152013169628D
:1045400002200021938010705180204602B0BDE807
:10455000F081062303FB02525388013B9BB2DFE745
:10456000A6F1B00316F8B80C46F8B43C10B9002414
:104570004C4DBEE745F0CAF946F8A80C18B183794E
:1045800013F0BF0FF3D12146484846F0C9FA04465C
:104590000028ECD056F8B43C434A9868C3F89420FD
:1045A00008B12023C3800D213E4D45F06BFB56F82A
:1045B000B43C4FF001080027986845F059FC3C488E
:1045C00046F0E2FA56F8B43C024632209A80C5F82A
:1045D000083385F80C833FF0C9FA04239F2156F86D
:1045E000B40C0DEB0302019746F096FB9DF80570A5
:1045F0009DF8043005F53A703F029DF8061047EA31
:1046000003470F43394652F06DFF00287FF471AF26
:104610003846FBF7B3FF034600287FF46AAF9DF8E6
:1046200006009DF8052000029DF8071040EA0240B0
:10463000204A0843904217D0A5F8EC32A5F8F8328A
:10464000C5E9BC33FBF79AFF034600287FF451AF5E
:1046500016F8B80C1C4645F059F945F0A3FF48E799
:10466000062101FB02526BE713484FF4003140234F
:104670004FF0006285F8FA82A5F8F832C5F8F42206
:10468000C5E9BB01FBF7BCFC05F53A7085F8018371
:1046900052F076FE094BC5F8E8322AE738180024B4
:1046A000185C002430290024182C0024685B0024A6
:1046B000404B4C0021AAEF0000040008C86C0A0817
:1046C000F0B500230E680DE0BCF1050F17D9BEF15F
:1046D000050F18D80A2C16D103EB830316F8010B2B
:1046E00004EB4303A0F13005A0F1610CA0F1410EF1
:1046F000A0F13704EFB2092FE6D82C46ECE7A0F181
:1047000057040A2CE8D00E601360F0BD30B541F2BA
:10471000040283B0084C002503460DF10600ADF8F5
:104720000650A350DB6A984741F20C030246284624
:10473000E25003B030BD00BF381800242DE9F04F1F
:104740000922BD4C002341F22800BC4D04F64C5711
:1047500004F12806E26294F8E51302228BB0C4F853
:104760002C742650A562A365E363A363E36422640B
:104770006263C4E91133C4E91433002900F087816E
:104780001E460321AD4B84F8E513DB6B13F48078F0
:10479000AB6818BFD4F8388023F0010308BFC4F811
:1047A0003880012AAB6040F0DD80AA6BA44B22F474
:1047B0008032E16DAA630129EA6803EA0203EB6033
:1047C000EB6823F44013EB6000F0A781284606F065
:1047D00009FA0746B8F1010F17D007B3022384F88E
:1047E000E533984B93F81C53012D00F00881A36A20
:1047F0008021012059625A6A42F480029A62FBF7D2
:1048000023FC00200BB0BDE8F08FAB6843F006033B
:10481000AB60AB6843F02003AB60002FDED1A36A2E
:104820003220DA6822F0C042DA60DA6842F0804270
:10483000DA600FF0BFF9E66A46B33A460125394619
:10484000C2EBC203501C04EB830383F86420A3F87B
:104850006A20C2B283F86550B24283F86710996744
:10486000C3E91B11ECD30022C7EBC703791C04EB8F
:10487000830383F82472CFB283F82522B74283F8EA
:104880002722C3F83822C3E98B22EDD30023A56A7F
:10489000D4F834C01946D4F83890D4F85480D4E908
:1048A0001002019203F14002013305EB82020F2B4B
:1048B0005160F7D1B8F1000F40F02281D5F80438EB
:1048C00005F5006743F002037B60AB6B23F4001334
:1048D000AB632B6843F040032B602B6843F08003ED
:1048E0002B6000230128C5F8003E3B683B603B6815
:1048F00000F01D8143F003033B601021284606F0C1
:1049000041FB1023504A2B61D2F80C1C05E0D2F871
:104910000C3C5B1A052B00F2FE802B69DB06F6D4FB
:10492000003818BF012000223A617A61FA6166B34B
:1049300005F510634FF0904A4FF0006B11464FF6AB
:104940007F3E844607E0196001321961C3F808E030
:104950002033B2427CD018680028F4DA92B1C3F850
:1049600000A0F1E7EB68284643F04003EB6006F057
:1049700039F9AB6B0746002E40F0C98043F4803311
:10498000AB6327E7C3F800B0DEE73B6900216FF0B7
:10499000804223F480733B61A9616A61B9F1000F21
:1049A00003D1AB6943F01003AB61AA69274B1343F2
:1049B000AB61019B1BB1AB6943F00803AB61B8F17C
:1049C000010F00F0AF8000287FF408AF0123E26CF4
:1049D00084F860009A4284F8E533A36A00F0AF805F
:1049E000D3F80428032042F00202C3F804280FF091
:1049F000E1F8144B93F81C53012D7FF4F8AE52F0FC
:104A0000DFF900287FF4F3AEA36A80222846402114
:104A10005A625A6A42F400129A62FBF715FB20218F
:104A20000220FBF711FB40210320FBF70DFB0020C8
:104A30000BB0BDE8F08F00BF38180024000008401C
:104A4000BFFFBDFF30290024283A002400383C80F5
:104A50000022604605F530634FF0904A4FF0006B3E
:104A600011464FF67F3EB44607E0196001321961E6
:104A7000C3F808E02033624587D01E68002EF4DAC0
:104A800012B1C3F800A0F1E7C3F800B0EEE701F0FF
:104A9000FF06364B03204FF4C05584F8E463D3F887
:104AA000E01041F00101C3F8E01005A9D3F8E030AF
:104AB00006920A2203F0010308902D480493049BF8
:104AC0000796059509920DF013FD636D012B43D0F8
:104AD000264B06216520D3F8D82042F00062C3F8A7
:104AE000D820D3F8D83003F000630393039BFBF77F
:104AF000E3FF20221F4BA56ADA60266D226C40E698
:104B0000AB6B05F5006743F40013AB63E9E623F4F0
:104B10008033AB635EE6012005E7EB6843F4801366
:104B2000EB6053E6AA69144B1343AB614BE7BCF14E
:104B3000000F3FF4E1AE43F001033B60DDE684F893
:104B40001C049969C4F8242441F000610B4A99615E
:104B5000596D0A435A6543E74FF4007305A90448A9
:104B60000593CDE906660DF0C3FCB1E70044025899
:104B70000000025800E100E00400004003000010C3
:104B800010B51A4C14F8170CC0B9194B03F8770C70
:104B900043F8740C14F8143C012B05D0022B21D0DF
:104BA00054F8103C1BB910BD124B44F8103C12498C
:104BB0005B68A1F10C00BDE81040184744F0A6FE68
:104BC00014F8152C0A49003A41F8740C18BF012258
:104BD00001F8772C0028DDD01F222021C28045F06B
:104BE00051F8D7E7054B44F8103CE0E7185C002487
:104BF000302900247C0300240C5C0024580300248A
:104C000091B10A6B824214D9144B5A6C914220D351
:104C10004C3991421DD30B6B9842F9D38B6B984260
:104C2000F6D80B46184670470C4B596C0A6B9042ED
:104C300012D30B680BB9F5E70A6B90420B4602D30F
:104C40008A6B9042EED951F84C3F002BF4D11846B4
:104C500070470023184670470A46D9E7185C0024BD
:104C60002DE9F047CC0143D1034622494FF0FF32F2
:104C7000022443F8081B7E2642601846DFF878803D
:104C80002644051D6FF07047D8F848904FF0010A90
:104C9000013E494608E0A3421CD0631C45F8043C91
:104CA000321B1C460435CAB10B6BA34202D88B6B76
:104CB000A34204D22046FFF7A3FF014690B10A7930
:104CC0004B6B002AE7D1A34204D0E6D2631C45F81F
:104CD000042CE5E7631C45F8047CE1E7C8F84810BC
:104CE000BDE8F087321B631C494645F804ACD8E7A1
:104CF0008026C3E7F8FFFF0F185C0024F0B5154DC0
:104D000083B00E4695F82C30022B0DD1070AC4B2A1
:104D1000D5F860020023012201A9384404F0BCFC4C
:104D2000012806D003B0F0BDC0F3D41700F07F0413
:104D3000EEE795F82C30022B019B04D133F81430A8
:104D4000336003B0F0BD53F8243023F07043336078
:104D500003B0F0BD30290024036870B55E6A26B147
:104D600033460522BDE87040184704460D464E1DE7
:104D700000E023689B68204698470028F9D0236804
:104D8000204615F8011B1B689847B542F1D170BD4C
:104D90000A44914219D0013910B4541E11F8012F60
:104DA0000823504002E0013BD0B209D010F0800F40
:104DB0004FEA4002F7D082F0D500013BC0B2F5D1F6
:104DC000A142EBD15DF8044B704770472DE9F047E5
:104DD0000023194D84B0074695F9559005F15C06FE
:104DE0004FF0B60A00EB010805F53F751C46D6F8F2
:104DF00000C0304600226946E036BCF1000F14D0F6
:104E00009CF838C0BCF1140F0FD019F1020F01D07B
:104E1000CC450AD1CDE90244CDE90078ADF808A02F
:104E20008DF80D4034F078F90346B542DFD11846CD
:104E300004B0BDE8F08700BF185C00242DE9F047FE
:104E40009AB004460D4617469846DDF89090DDE985
:104E5000226A02E0206844F02DFC206844F032FC15
:104E60000028F7D10146642201A861F05DFD264BC0
:104E70008DF80450CDF85CA00293002D40D0AB1EFD
:104E8000012B3FD9042D14BF002303231F4A8DF8A3
:104E90000530012352F8CC2C039616448DF85B3074
:104EA000CDE90594049637B14246394607A860F02B
:104EB000D9FD8DF85A80164E002396F83E9318932C
:104EC000B9F1000F19D196F83D03642201A902FB44
:104ED000006000F5507060F0C5FD012386F83D9339
:104EE00086F83E33236843B143463A462946204676
:104EF0001AB0BDE8F04718F00BBA1AB0BDE8F08759
:104F00000523C3E70223C1E7145F002430290024EE
:104F1000185C0024014488420ED00346074810B4B0
:104F2000074C13F8012B04FB00F0994280EA0200C1
:104F3000F7D15DF8044B704700487047C59D1C8150
:104F400093010001F0B42E4B02282E4D1F69D5F8B5
:104F50000C6C42D02C4B04241F40294A4CF2503197
:104F6000042C11D0D2F8103124EA030313F0040FFB
:104F70000CBF0123002363B1D5F80C3C9B1B8B4273
:104F8000EED90320F0BC70471369C3F38003002BF4
:104F9000F2D137F000420DD10128194A27D0D2F8BA
:104FA0001011C90316D54FF480311846F0BCC2F871
:104FB000141170471549002F4FF00100D1F8C0338C
:104FC00043EA0703C1F8C0330D4B0EDAC3F81421CE
:104FD000F0BC70471846F0BC7047D3F810710A4B0C
:104FE0000B4C1F4047F00047B7E75F61CAE7116904
:104FF000C803EFD54FF4803118465161C2E700BFB6
:1050000000200052283A00240000EE17185C00240B
:1050100004000080F8B52E4E96F8BC23012A4DD02E
:1050200000F17843012705460C46B3F5801F86F84A
:10503000BC7333D3A0F10163B3F5801F3CD20023CE
:105040000220C6F8C033FFF77DFF18BB214A0227B4
:10505000D2F80C313B43C2F80C312146BFF36F8FBD
:10506000BFF34F8F2B1B04F120000A68CA50043194
:105070008142FAD1BFF36F8FBFF34F8F3846FFF7EE
:1050800061FF012F134A1BD0D2F80C3123F0020329
:10509000C2F80C31002386F8BC33F8BD0023384633
:1050A000C6F8C033FFF74EFF0028F3D1094AD36892
:1050B00043F00203D360D0E73846F8BD0220F8BDC4
:1050C000D36823F00203D360002386F8BC33E4E7FF
:1050D000185C0024002000522DE9F04FDFF8808199
:1050E00001275B4CDFF87CA1DFF87C912DED028B72
:1050F0009FED588A85B0FEB2572118F8010B324651
:105100003BF084F90546002800F08B8000684FF0E2
:10511000010BE560504518BFB0F1804F04F824BC86
:105120000CBF0123002304F8233C5BF09DF800230F
:1051300014F8232C07EE900A28689A424FF4005284
:10514000F8EE677A44F8043C14BF59464FF40071F6
:1051500044F8142C44F8103C44F80C1C44ED077A35
:105160005BF082F8034618F8010C24F818BCA9FB80
:10517000032324F816BCDB0804ED088A44F8083C35
:1051800044F0C4FB206130B15722C67142218271C4
:105190006A7A44F0E3FA28685BF066F80021024678
:1051A00028465DF0BBFB14F8233C002B43D02A4B70
:1051B00000222146284623605DF040FA28685DF011
:1051C0001FFC834670B10023012104220093039247
:1051D000CDE9011369466A7906F0DAFC6979584627
:1051E00006F0ACFDE2684FF0FF3554F80C3C013E90
:1051F0001A484FF4005C11682B44F6B290F8EC01A9
:105200008B6201220023B042CD624A6124F8182C3F
:1052100024F8162C44F8043C44E905C301D13BF0C2
:1052200087F801373834052F7FF465AF05B0BDEC42
:10523000028BBDE8F08FDFF834E0221DDFF830C0CC
:1052400021462846A360C4E900EC5DF0F7F9B5E714
:10525000280200200000000049150000F80000208E
:10526000DC5F0024000C00401F85EB51811600001C
:105270001D1800000C480D4BD0F8E01310B48A1E26
:105280000B4C2231C0F8D033B0F8FE331B01A4FB25
:1052900003C3DB08A3F5B06322F8023F9142F3D1C8
:1052A0005DF8044B704700BF185C0024AD6F060822
:1052B000CDCCCCCC70B5084C251D2E4614F8010B76
:1052C00034F016F928B10379B44205F8013BF5D161
:1052D00070BDFF23F8E700BF346000242DE9F047DC
:1052E0001C4F01264FF03B094FF0000807F108055D
:1052F000B24617F8010B44F009FB044690B180F860
:105300000690C671FB7803F07F02012A17D013F0D4
:10531000800F20460CD185F8048044F0A3FD85F869
:1053200005802C6001360835052EE2D1BDE8F087F6
:1053300085F804A044F09CFD85F805A0F1E71B0664
:1053400005D40121204644F09DFCFB78DFE744F0C2
:105350008FFDF6E73C6000242E4BF0EE607A9FED67
:105360002E4AF0EE410AB3F8F23107EE103ABAEEE7
:10537000EF7A70B5B4EEC70AF1EE10FA06DDF4EE7E
:10538000C77AF1EE10FA2ED5B0EE470AB5EEC00A94
:10539000F1EE10FA2CDDF5EEC07AF1EE10FA27DD11
:1053A00027EE807A67EEE77AE0EE007A87EE271A3A
:1053B00000F10C0200F19C01184C194D194EB5EE8C
:1053C000400A42F80C4C42F8045CF1EE10FA04DD9D
:1053D000B5EEC01AF1EE10FA0DDC42F8086C30326E
:1053E0008A42ECD170BDB0EE440AB0EE441ADFE759
:1053F0009FED091ADCE70C4B104682ED034A42F898
:10540000083C82ED024A82ED014A82ED004A61F0D9
:1054100057FCE4E7F800002000000000650E0908D2
:1054200089E80808811B0000391B00002DE9F041C4
:10543000214D0023214E4FF0050895F84F2405F229
:105440004C45A6F1C80406F8CC2C15F8010B5F1CDE
:1054500020BB2060032F04F104043B46F5D116F86D
:10546000CC1C56F8C80CC94301F0010144F006FDFC
:1054700016F8CC1C56F8C40C81F00201C1F34001AF
:1054800044F0FCFC16F8CC1C56F8C00C81F004016A
:10549000BDE8F041C1F3800144F0F0BC44F036FABD
:1054A0000121FBB2206010B180F80680C371206832
:1054B00044F0E8FBCEE700BF185C0024204B00243A
:1054C0002DE9F0412A4C82B02A4DB4F8546425F8F5
:1054D000BC6CEEB994F8500444F018FA94F85124D6
:1054E00045F8B80C003A18BF012205F8BA2C48B1AB
:1054F00094F852142B220029C28014BF11210121DB
:1055000044F0C0FB002002B0BDE8F0413EF09ABE7E
:1055100094F8508400222B2140463AF077FF07464A
:10552000404644F0F3F900B117B902B0BDE8F0818C
:105530002B2245F8A00C4FF00008C280797AFBF7C7
:1055400007FE0D4ACDF804803946A4F85664A5F14B
:10555000B400B2FBF6F3C3F34F049BB2009432F0F5
:10556000D3FE55F8B43CC3F8008005F8A38CDCE703
:10557000185C0024204B002440420F002DE9F84F16
:10558000254B002693F8642403F25B4703F58F64F0
:1055900083F858245FFA86FB4FF0010917F8010FD2
:1055A00001360BEB090A49464FF000085FFA8AFA08
:1055B00052463AF02BFF054640B3387804F80E8C7B
:1055C00004F80D8C04F80FBC04F8109C44F8045C3B
:1055D00044F09CF918B180F8069080F807A0697A29
:1055E000FBF7B6FD0D4A002128465DF097F90C4BFC
:1055F000221D2146236028460A4BC4E901385DF08C
:105600001DF842466979286832F032FE082E04F10E
:105610001C04BFD1BDE8F88F185C002440420F0085
:10562000B182070881F9060870B52C4C00222C4B7A
:10563000022194F89005C4F88835C4F84825C4F8C8
:105640004C25C4F85025C4F88425A4F88C253AF0DC
:10565000DDFE002835D0234B0546066803F16001C6
:105660005A7C12B15A6896422CD018338B42F7D12B
:10567000002394F89005C4F8745484F8683444F016
:1056800045F908B10223C380697A0026FBF760FD63
:105690002846154A00215DF041F9144A1448154B7B
:1056A000111FC4F878042846C4F87C34C4F8806418
:1056B0005CF0C4FF324669792868BDE8704032F07A
:1056C000D7BD70BD30465AF0CFFDB36A0A4A0133E8
:1056D000B0FBF3F082F8A003CAE700BF185C002417
:1056E00000FFFF002801002040420F0094600024CA
:1056F000A9F9060835FB0608000000242DE9F04F43
:10570000BC4E83B0044696F8F277032FA7F1050349
:1057100028D8B94D0122032B85F880292ED90023E2
:10572000204685F8F038FBF733FBC5F89000D5F834
:105730009030002B00F092800022012183F8244059
:1057400083F8251083F826209A6244B12C33AB4AA3
:105750001C4412F8011B03F8011BA342F9D103B04A
:10576000BDE8F08FDAB2032AD3D9A34D0022032B70
:1057700085F880296ED985F8F028D8E796F8FB37A8
:1057800085F8F028012B7BD0082F01D0022B77D091
:10579000DFF8A0E2DFF86CC296F8FA87BEE80F00E7
:1057A000ACE80F00BEE80F00DEF80090B8F1000E84
:1057B000ACE80F0018BF4FF0010E914B072FCCF84B
:1057C000009085F8A8E0C5F8D03853D8042F00F22F
:1057D000FF80DFF864920027DFF840B201955FFA9E
:1057E00087FABC424FF0030107F101070AF10108F3
:1057F0002BDD1BF8013B5FFA88F818464246009300
:105800003AF004FE009B05461846002D00F0C680C5
:1058100044F07CF8024651462846C9F8142022B1CB
