:020000040800F2
:1000000000000120EDB1260089B226006DF6240023
:10001000D1F6240089B2260089B226000000000033
:1000200000000000000000000000000089B226006F
:1000300089B226000000000089B22600BDBC240061
:1000400089B2260089B2260089B2260089B226002C
:1000500089B2260089B226006123250029232500C4
:10006000F1222500B922250081222500DD2800008B
:10007000CD280000BD280000AD2800009928000010
:10008000852800007128000089B2260089B2260068
:1000900089B2260089B2260089B2260049222500AD
:1000A000AD6E2600A56F26009D6E2600CD6F260042
:1000B000956F2600856F2600756F2600299B260008
:1000C0004D9B26006D9A2600919A260089B2260043
:1000D00089B22600910C0000850C0000790C00000C
:1000E0001122250089B2260089B226008D6E2600D5
:1000F000BD6E260089B22600E56E26005D28000050
:1001000089B2260011622600656F260089B226009A
:100110006D0C0000610C0000F56E2600F9622100F4
:100120004928000035280000212800000D28000083
:10013000F927000089B2260089B2260089B226007C
:1001400089B2260089B2260089B226009167210073
:10015000E5270000D1270000BD270000550C000056
:10016000A9992600D199260089B2260089B22600D5
:1001700089B2260089B2260089B22600000000005C
:1001800089B2260089B22600490C00003D0C00000F
:1001900089B2260089B2260089B2260089B22600DB
:1001A000000000000000000089B2260089B226008D
:1001B00089B2260089B2260089B22600E598260079
:0801C0000D99260089B226000A
:0828000000800F080000100821
:04800000FFFFFFFF80
:020000040801F1
:10000000024B9A6D136A002BFCD17047F016012049
:10001000026C03463AB11A6CD20608D500220120C0
:1000200083F83C207047426480F83C20F3E71A6C68
:1000300049494A4811401A6841F00201F0B4196474
:100040004168474D21F44031416041685C6821437B
:1000500041605168186921F48071D3F808C0DF68E5
:10006000516054689E6A44EA0024AE425460546869
:1000700024F040745460506840EA0C00506090686E
:1000800020F400609060916841EA0701916054D0CB
:100090009068DC6A20F07060906091680E43966012
:1000A000906820F040509060916821439160906882
:1000B0009C6920F002009060916841EA44019160DF
:1000C00093F82010002941D05468596A44F4006420
:1000D000481E5460516821F460415160516841EA02
:1000E00040315160D06A0025DC6920F470005E69FF
:1000F000611ED0622846D46A44EA0154D4629468EE
:1001000024F400749460946893F8301044EA412415
:100110009460946824F480649460916841EA862134
:1001200091605D641A6C22F0030242F001021A64CD
:10013000002283F83C20F0BC7047916821F0706188
:100140009160916821F040519160B0E7516821F4CD
:1001500000615160C6E700BFFDEEFFFF00230140D4
:100160000100000F0129F0B498BF00232C4C4FF080
:1001700000062C4D88BF0123EE62C4F81861C4F854
:100180001C61C4F82831D4F82871D4F8F43047EA57
:100190004207C4F82871EE63EC6B002A38D144F4AE
:1001A0009574EC631C6824F001041C601C68E4076F
:1001B000FCD4490289085960D8601968EAB921F06D
:1001C0004001196018498B421DD018494FF4741032
:1001D000C860196841F01E011960596941F0800139
:1001E0005961196841F00101196022B90D4AD36AB9
:1001F00043F00803D362F0BC704741F0400119603E
:1002000009498B42E1D14FF0746041F8500CE0E7AE
:1002100044F01A04EC63EC6A44F00804EC62C1E7B1
:10022000F0160120002C0140586402400064024096
:1002300012480023024611780632032918D00133F0
:10024000062BF8D10E49D1F85021052A0FD002EB28
:100250004203013200EB4303C1F85021032040F276
:10026000EB3140F2FF32187059809A807047704726
:1002700003EB430300EB4303F0E700BF1C1801202E
:10028000F0160120124B30B4D3F854516B6A28B9E0
:1002900043EA01430020AB6230BC7047AC6A0138CE
:1002A00003EB14440BD0002303F14002013305EBB0
:1002B0008202DBB25268834204EB1244F4D3403032
:1002C00044EA014405EB80004460002030BC7047E4
:1002D000F0160120037870B42BB30246C0F101057B
:1002E000531912F8014FDBB2002CF9D101335B0036
:1002F0000E4C03220B8084F8583584F85925017878
:1003000079B1022300265A1CE518023354FA82F20E
:1003100085F85815DBB282F8586510F8011F0029DE
:10032000F1D170BC70470223E2E700BFF016012054
:1003300030B58DB011480821002301220DF10705C9
:100340000F4C583080F89810694402938DF814309F
:1003500009930B938DF828200694CDE90733CDE956
:10036000035242F04DF9FFF74BFE9DF80700A0F154
:10037000FF00B0FA80F040090DB030BDF01601204A
:1003800085032100826D136A5B681B78FF2B08D000
:1003900090F8F030013BDBB280F8F0301BB1012067
:1003A000704700207047126A02205268137070472D
:1003B000F0B40F4BC40800F0070700221E5D03EBEA
:1003C000D005BE40F6B2C7F1080300278B4228BF14
:1003D0000B46C3F108049A40C91A46FA04F415F80A
:1003E000016F42EA0402EED11046F0BC704700BF34
:1003F0003017012030B5EFF31181802383F3128889
:100400000A4AD2F85836D2F85C46D2F85806D2F8E2
:100410005C56CAB282F31188013BA84294BF4FF4E4
:10042000006000201B1B184430BD00BFF0160120E7
:10043000012380F851307047014BD3F860067047B4
:10044000F016012001207047024BC3F86426C3F860
:1004500068167047F0160120024BC3F86C26C3F8EB
:1004600070167047F0160120704770472DE9F84369
:10047000884600294FD04718461E284C802507F192
:10048000FF39EFF3118185F31288D4F85826C9B2E9
:10049000D4F85C06D4F85836D4F85CC681F31188D9
:1004A000634594BF4FF400630023121A1344012BD9
:1004B0001AD101203BF062FBEFF3118185F3128822
:1004C000D4F85826C9B2D4F85C06D4F85836D4F813
:1004D0005C7681F31188BB4294BF4FF40063002324
:1004E000121A1344012BE4D0EFF3118285F3128822
:1004F000D4F85C36D2B216F8011F234483F8741680
:10050000D4F85C360133C3F30A03C4F85C3682F3D3
:1005100011884E45B5D14046BDE8F883F01601205C
:10052000F8B5002390F8505080F85030CDB10F4905
:1005300041F2E8028A5C032A15D10D4E00F13C0419
:10054000B76A29462046FFF791FFB36A2D1A044483
:10055000DB1B322B01D8002DF3D1B5FA85F0400911
:10056000F8BD0120FCE71846FAE700BFF0160120AD
:10057000E8270120002280F85120D1E790F8502090
:10058000531C0244DBB280F8503082F83C1090F8E3
:1005900051200AB1132B00D9C2E77047F8B51446B1
:1005A00041F2E803094A0D46D35C032B0DD1084EF6
:1005B000B76A002C09DD21462846FFF757FFB36ACA
:1005C000241A0544DB1B322BF3D9F8BDF0160120A9
:1005D000E8270120212870B505D0222829D020281D
:1005E00010D0002070BD0029FBD0072AF9D1184B8C
:1005F00018791C685A799B79087100200C604A713F
:100600008B7170BD0029ECD0072AEAD11148104B3C
:100610000C680E794D79D0F8682689791C601E71B6
:100620005D719971002ADCD02146D0F864069047AC
:10063000D7E70029D5D0022AD3D1064AD2F870369E
:10064000002BCED00988D2F86C069847C9E700BFC6
:1006500000000120F01601200020704703460A2206
:1006600001481A80704700BF080001200346642239
:1006700001481A80704700BF14000120012901D0F1
:1006800000207047014BD3F890301847000001203C
:10069000012901D008F07EBA014BD3F88C301847FD
:1006A00000000120014BD3F88830184700000120DA
:1006B00010B40B780A46044603F00303012B05D05F
:1006C000022B0BD000205DF8044B70478B8843B998
:1006D000204611465DF8044B0BF0B6BE8B88832B89
:1006E000F6D0034B5DF8044BD3F88030184700BFB9
:1006F0000000012038B5054B04460D46DB6F9847D6
:100700002946204608F096FE002038BD0000012052
:1007100038B5054B04460D469B6F98472946204641
:1007200008F0C0FE002038BD00000120F0B4002415
:1007300052004E1C2746030FB0F1204F4FEA001025
:1007400003F1300503F1370334BF0D550B55375511
:100750000234A242EFD1F0BC704700BF024808B596
:10076000FFF7B8FD014808BD88802700481C01201C
:10077000024808B5FFF7AEFD014808BD9880270084
:10078000481C01200B481A220B4B00681B680A808A
:10079000C01801D109487047094B0822094910B512
:1007A0001C68FFF7C3FF042207492046FFF7BEFF7E
:1007B000024810BD20F4F01F28F4F01FB000012003
:1007C00024F4F01FB2000120C2000120024808B545
:1007D000FFF780FD014808BDA4802700481C0120C8
:1007E000024808B5FFF776FD014808BDB080270034
:1007F000481C0120042301480B807047CC000120D5
:10080000004870471817012000487047181701204A
:10081000034B93F82400032894BF00200120704765
:10082000F0160120034B93F82400032894BF002006
:1008300001207047F0160120034B93F82400003884
:1008400018BF0120704700BFF0160120034B93F83A
:100850002400003818BF0120704700BFF0160120A7
:1008600098B182680C4B12B107229A7070471878C1
:100870000421DA6003281A611A750CBF80224FF434
:1008800080729970C3E901227047034B012241F243
:10089000E4715A705A547047E07701200378022BB4
:1008A0000FD0006908B9012070470E4B1B78032B4D
:1008B00012D080B24FF6F773984294BF0020012007
:1008C0007047084941F6500243688A58B3EB422FFB
:1008D0002CBF012000207047034B984294BF00209A
:1008E00001207047E0770120F7FFFF0F30B4037855
:1008F000022B13D0104A41F64801436841F63C04EC
:10090000555802F5C25100692B4009680238125946
:100910005B0A01FB003030BC10447047064B41F6C7
:10092000300441F6340142681859595800EB41002F
:1009300030BC00EB52207047E0770120F0B503791E
:100940008BB0264C002B14BF0122002284F85020CB
:1009500003D184F824300BB0F0BD054690F90010A7
:1009600004F1580042F0F2FFAD785DBB01271C484E
:1009700025666D46C4F8EC4084F8647043F01CF8BA
:100980000346184E4FF47A70A4F85C303BF0F6F84A
:10099000206E3EF043FE0FCE0FC50FCE0FC596E87A
:1009A000030085E8030069460F4841F029FEFFF780
:1009B00027FB0E4B002284F824709B6A2276636129
:1009C0000BB0F0BD28463EF0FDFC054608B11E23E5
:1009D000C3800D2128463EF0DBFCC7E7F01601205E
:1009E000801A060094DC260048170120E827012021
:1009F00070B5952292B040F0400504468DF809206C
:100A0000080E0A0C8DF80810090A002301AE8DF8B3
:100A100004508DF8050006250DF103008DF8062021
:100A20008DF8071001221649039604938DF81830AB
:100A30008DF82C300F93119305958DF840200C9173
:100A4000CDE90733CDE90D33CDE90902FFF770FC9D
:100A500024B180F0010010F0FF0F0ED1094B0822E5
:100A600003A903F1580083F8F02041F0C9FDFFF716
:100A7000C7FA9DF8030012B070BDFF2012B070BD20
:100A8000890A2100F0160120826D0346126A52681D
:100A90001278FF2A0AD190F8F020002A02F1FF32E2
:100AA00014BF0120022083F8F02070470020704717
:100AB00030B58DB00F49002301220DF107050E4C12
:100AC00081F8F00001F1580002A902938DF814306A
:100AD00009930B938DF828200694CDE90733CDE9CF
:100AE000035241F08DFDFFF78BFA9DF807000DB022
:100AF00030BD00BFF0160120890A210070B590B00A
:100B00001A4E0024FD2201250DF1030306F15800C1
:100B100001A98DF80320069334628DF810400594E6
:100B200007948DF824400F94039508958DF838505C
:100B3000CDE90144CDE90A44CDE90C4441F060FD22
:100B4000FFF75EFA2846FFF7B3FFFF2808D0084AF0
:100B500020460923926A86F82430726110B070BD75
:100B60000423022086F8243010B070BDF016012056
:100B7000E827012070B5064690B008200D46FFF723
:100B800097FFFF2822D0FE2802D0022010B070BDAF
:100B900000240222012301A90E4808928DF8383062
:100BA0000296039501948DF8104007948DF8244027
:100BB0000F94CDE90544CDE90A44CDE90C4441F058
:100BC0001FFDFFF71DFA204610B070BD012010B0C8
:100BD00070BD00BF4817012008B5FFF711FA0A20C1
:100BE0003AF042FD024B186EBDE808403EF016BDDB
:100BF000F016012038B540F48062074C0B4640F2F5
:100C0000FF55012100F03F00A563A360E26055F0AD
:100C100053F9A56338BD00BF002C01402DE9F84F02
:100C2000484B98420FD003F56853083398424DD093
:100C30000023454A1846A2F89430A2F8A030C2E931
:100C40002633BDE8F88F404C022300263F4F04F1C5
:100C50003005DFF80481E362D7F8D0303146B34283
:100C600006F1010603D0D4F8B0004EF0B9FF94F8B5
:100C7000B4302846D4F8B020414685F824303035C9
:100C800045F8102C4FF0C0F9E36A9E42E4DB0023E4
:100C900084F8A230E36A0120E16BA28EA56B12FBFF
:100CA00003F201FB03F3B4F84060A4F89420C4F805
:100CB0009C30E28E264BC4F8C010C4F89850A4F8BB
:100CC000A060A4F89620C4F89030BAE71E4C022227
:100CD0004FF0000B1D4F04F130054FF4806A4FF0C8
:100CE00040094FF40068E262D7F8D0200126594647
:100CF0005A45B34403D0D4F8B0004EF071FF4FF022
:100D00000062D4F8B0104FF4003094F8B4C02962F7
:100D100085F824C0A5F804A0A5F81090A5F80680D1
:100D2000AE74C5E90202FFF783FA28466E764FF0EB
:100D3000B7F8E26A074B934545F8303BD4DB84F8BB
:100D4000A260A7E71971EF00E82701200000012049
:100D5000E8DC2600BCDC26001940EF0010B50C468C
:100D60004EF0BCFD50B9074B93F8C430012B4FF047
:100D700012030CBF04480548238010BD1223044809
:100D8000238010BDE8270120FC000120E80001209D
:100D9000D40001202DE9F843194C054689469046B8
:100DA00094F824601F46042E08D0082E02D000209C
:100DB000BDE8F883FFF7A2FE0228F8D1206E3EF0CE
:100DC00027FCA37E93B969021120FFF711FE98B9A1
:100DD0000C4A05230120C4F80090926A65606261A4
:100DE00084F82430C4E90387BDE8F883294611203C
:100DF000FFF7FEFD0028EBD0FFF7EEFED7E700BFC0
:100E0000F0160120E82701202DE9F04FDFF8948249
:100E1000994D4446DFF8A0A22DED048B87B00490D5
:100E20000FCD0FC40FCD2E689AF8CA50022D0FC4F3
:100E30009AF8D030266000F00981032D00F001817E
:100E4000002D00F00881DFED8D7AF0EE678A002B2F
:100E50008B4A8C4B0EBF0021012113468A4A059113
:100E60008A49C8F81020C8F8181038EEA77A9FED04
:100E7000888AF5EE006ADFF844B227EE888A854D4D
:100E80000BF123060027C6EE879A9FED839AC8F8D8
:100E90001430049BBB4240F3AD801BF8014B002C87
:100EA00000F0AE80002202E0152A00F0A98002EBDB
:100EB000420153000132705CA042F5D1514491F8D7
:100EC000F910002900F0D580204602933AF06CF921
:100ED000029B8146484603933AF082F90078002845
:100EE00040F08E807B1C03220293039B0AEB0301DC
:100EF0009DF8083081F8382181F83931B9F1000FB7
:100F00007ED0210904F00F0C4C1E052C00F29380BA
:100F1000624901EB4401B1F8A40040FA0CF111F070
:100F2000010100F08C800121039301FA0CF10139D9
:100F3000084059F08DFF594B0322022103EB040CAA
:100F4000574C039B9CF8B0C0604404EBC000686140
:100F50008271C37199F809203EF05EF9059B002B60
:100F600058D0BAF8C8304FF6FF71DAF8642407EEAB
:100F7000903AF8EEE77AFCEEE77A17EE903AB2FB99
:100F8000F3F00144090CB2FBF1F2B2FBF3F39BB2B4
:100F900007EE902A002449462846B8EE677A019465
:100FA000009467EE086A69EE667AC5ED026AE8EEBB
:100FB000877AC5ED037A32F01FF9002F3DD06B68B8
:100FC000D8F8342093420CD0012F36D0D8F84C20DA
:100FD000934206D0032F30D1D8F86440E41A18BFEA
:100FE0000124029F01232C741835042F05F8073CB7
:100FF0007FF44FAF2B4807B0BDEC048BBDE8F08FFA
:10100000294A00201E4BC8E9053207B0BDEC048B0D
:10101000BDE8F08FFAFE697AFCEEE77ADAF864242C
:101020004FF6FF7317EE901AB2FBF1F11944090C59
:10103000B2FBF1F2ACE7686190E70124D1E76961A6
:101040008CE7DFED1A7ADFED1A8A00E7DFED197A17
:10105000F0EE678AFBE601230C4ADFED0D7A05937B
:10106000094BF0EE678AC8F81820C8F81030044B16
:10107000FBE689462EE700BF14DD26006F12033918
:10108000E1A42400A5DC2300E5A4240021E323003F
:101090006F12833AEC02002000007A4494DC2600B0
:1010A0004C290120BC0200201DDE2300ACC5A7375F
:1010B000ACC5A73628293038E8270120BD280120F3
:1010C00010B50C4C002394F8F220236212B10A4AA6
:1010D000C2F8683455F0FAF820B10423022084F8ED
:1010E000243010BD044A0923926A84F824306261D6
:1010F00010BD00BFF0160120E827012070B50D4D8E
:1011000004460E4695F82430042B0AD0082B06D14D
:10111000EB6983420CD0FFF7D3FF022801D00120F6
:1011200070BD08230220C5E9074685F8243070BD4C
:10113000022070BDF016012010B508F0A1FF0E4C82
:1011400048B194F82430032B10D8237E0133DBB24E
:10115000072B237603D9002384F8243010BD074BD6
:1011600001229B6A84F82420636110BD044842F088
:1011700023FCA4F85C00E8E7F0160120E827012032
:10118000801A060070B51D4C06460D4694F82430B2
:10119000042B08D0082B20D1E36983422BD0FFF722
:1011A000ADFC022819D1206E3EF032FA0021372022
:1011B000FFF71EFC29461720FFF71AFCA8B9A37EEB
:1011C0006BB971021920FFF713FC70B908230220D4
:1011D000C4E9076584F8243070BD012070BD314634
:1011E0001920FFF705FC0028F0D0FFF7F5FCFFF70A
:1011F000A3FF032070BD022070BD00BFF0160120C8
:101200002DE9F0410546884617461E46294C94F8BC
:101210002400042835D0082806D1E369AB4206D063
:10122000FFF76CFC0228F2D00120BDE8F0814FF0FE
:10123000FC0CA26D2048117B204B80F86CC4C3F8D5
:10124000388151B1526942B194F8E020002A0CBFB4
:101250004FF480724FF4007201E04FF48072C3F8D3
:1012600040211749174841F0CBF9012206230020FD
:10127000227284F82430C4E90085C4E90376BDE80D
:10128000F081206E3EF0C4F9A37E5BB9690218209C
:10129000FFF7AEFB40B994F82430082BC7D04FF0CD
:1012A000FE0CC6E72946F2E7FFF796FCFFF744FF7E
:1012B0000320BAE7F0160120E827012000000120F2
:1012C000100101204817012070B50379204C002B34
:1012D00014BF0123002384F8503003D1002384F885
:1012E000243070BD1B4D0021032095F973243AF082
:1012F000FFFE0028F2D0466830463AF0E9FE84F856
:10130000F1000028EAD095F871343046003B18BF50
:10131000012384F8F23054F06DFB08F0B1FE28B9D7
:10132000237E84F824000133237670BD55F0A6F89F
:1013300030B1237E0022013384F82420237670BD4F
:10134000AA6A01232076626184F8243070BD00BF50
:10135000F0160120E827012010B555F08FF848B1AC
:101360000A4C237E0133DBB2072B237603D90023FB
:1013700084F8243010BD08F083FE0028F7D0044B19
:1013800001229B6A84F82420636110BDF0160120BD
:10139000E82701202DE9F84F864C94F85050002D95
:1013A00000F0EE8094F824200227834E531E082B71
:1013B00038D8DFE803F02E3096375B43143705004A
:1013C00054F084FF002840F0ED806369B26AFA337C
:1013D000934224D2FFF7C0FF94F82420E6E754F0AC
:1013E00075FF0028F1D0236A0022012B227640F2FB
:1013F000DD80E169013B94F8F2500131C4E9071343
:1014000015B16D4BC3F868240823054684F82430D1
:1014100011E084F8247054F059FF002845D194F865
:101420002420531EDBB2022B35D9082A18BF042A08
:101430000CBF012500252846BDE8F88FD4F82431DB
:10144000002B2ED15C4B0722E5689B6A84F8242090
:101450006361002DEFD023690120D4E90021A84762
:10146000DDE76369B26A643393421AD2D4F820810B
:10147000B8F1000FF5D154F029FF0028ACD00423B7
:10148000E56884F8188084F82430002D00F0888006
:1014900040462369E1E7484B62699B6A9B1AC82B67
:1014A00073D800252846BDE8F88F54F0A3FB002828
:1014B000B5D196F87534002BA3F10203B3FA83F388
:1014C00014BF022201225B096276A37654F092FBDC
:1014D00000287FF47FAF394B03229B6C84F82420D3
:1014E000A36254F087FB002899D1334A4FF0040ED1
:1014F0002062032392F8A4B4B2F8A614D2F8A80488
:1015000084F82EB0D2F8A8744FEA106CD2F8A86410
:10151000A1853F0CD2F8A8A4360A92F8AC9492F8B0
:10152000AD5492F8AD04D2F8B08425FA0EF5B2F8B5
:10153000B6B400F00F00B2F8B614B2F8B624C1F396
:101540000B1184F82FC002F00F0C84F8307041EAC0
:101550001B21724684F8316001F00F0184F832A03B
:1015600084F8339001F5FA6184F8385084F8390032
:10157000C4F83480618784F83CC084F824E051E7E3
:10158000284684F82450BDE8F88FFFF7E5FE94F86C
:101590002450082D18BF042D0CBF012500254AE753
:1015A000054648E7042384F8243044E7FAD1FFF7DE
:1015B00087FD34E7F0160120E8270120602C012088
:1015C0002DE9F04FC64C95B094F85060002E00F015
:1015D000808194F8242004F15808C24F04F1400996
:1015E000531E082B00F28F80DFE813F02C0053000D
:1015F00018018D007C009D0018008D000900FEF789
:1016000097FE002840F027826369BA6AFA33934252
:1016100076D2FFF791FD94F82420E1E7FEF788FEEB
:101620000028F1D0236A0022012B227640F2338277
:10163000E269013B082106460132236284F8241046
:10164000E26142E1206E3DF0E3FF00210846FFF732
:10165000CFF90546FFF7C0FA012D51D14FF0000A2E
:10166000206E84F819A03DF0D3FF40F2AB110820A2
:10167000FFF7BEF9052800F08D81012800F05581A3
:10168000FFF7AAFA637E002B00F0EE81022384F8B4
:101690002430206E3DF0BCFF637E00213720022BFA
:1016A0000CBF4FF080450D46FFF7A2F929202946CF
:1016B000FFF79EF90546FFF78FFA0DBB637E022BFD
:1016C00000F07A81A576206E3DF0A2FF002109206E
:1016D000FFF78EF9002872D0FFF77EFA94F82420E5
:1016E000531E10E04FF400712068FFF743FA012801
:1016F00000F03981022800F03C81002800F04C8184
:1017000094F82420531EDBB2022B00F2D880754BD4
:1017100062699B6A9B1AC82B00F2FC800026304647
:1017200015B0BDE8F08FA26D117B136A002900F09F
:10173000DD805269002A00F0D98094F8E020002A68
:1017400000F0D480B3FA83F35B09002BD8D004A84F
:1017500000250DF10F0302224FF0010A05A90590A3
:1017600040460792ADF8105006958DF820508DF840
:10177000345013958DF848A0CDE90B3ACDE90955C1
:10178000CDE90E55CDE9105540F03AFFFEF738FC93
:101790009DF80F3003F01F03052B00F06981FFF760
:1017A000CBFCD4F80CB0BBF1000F00F0F0802A465F
:1017B000504623696168D84794F8242010E7102127
:1017C0004846FFF7D7F98246002885D101217F20BE
:1017D000FEF7EEFD012805467FF47EAF504602215C
:1017E000FEF7E6FD002800F0188101287FF474AFB1
:1017F00016213A20FEF7DCFD01308002A062FFF7DF
:10180000EBF9206E3DF004FF00210A20FFF7F0F80D
:10181000002840F0FB80032384F82430102105A821
:10182000FFF7A8F900287FF46BAF9DF821309DF8F1
:1018300022201B019DF815009DF8165002F00F01A3
:10184000DBB245EA0025DDF81D0043EA12139DF8DE
:101850001C2000BA84F83C1003F5FA639DF81710B9
:101860006063638713099DF8140002F00F0284F887
:101870003830069BA585236384F8392084F82E0030
:1018800084F82F10FFF7A8F9A37E6BB9206E3DF006
:10189000BFFE4FF400711020FFF7AAF80546FFF7CE
:1018A0009BF9002D7FF4B5AE0F4842F085F8002279
:1018B0000423A4F85C0022621A4684F82430082A23
:1018C00018BF042A0CBF01260026304615B0BDE81B
:1018D000F08F304684F8246015B0BDE8F08F00BF6B
:1018E000F0160120E827012040787D01257A4FF489
:1018F000807321680022404601EB052142F0D2F9B5
:10190000237A0133DBB22372A3F10203B3FA83F328
:101910005B091AE7FFF710FC94F82460042E18BF47
:10192000082E0CBF01260026CFE7042304AA05A930
:101930008DF834004046CDF814A08DF820A0CDF8E5
:1019400038A0CDE90623CDE909AACDE90BAA40F0DC
:1019500057FEFEF755FB9DF81330AB2B7FF490AE8E
:10196000022363768CE66369BA6A64339342BFF4F8
:10197000C7AEFFF731F9FFF7DFFBE5683DB10022A5
:10198000236961681046A84794F8242028E694F853
:10199000242025E6657673E60190FFF71DF9042300
:1019A0000198E568207684F82430002D8DD02369D5
:1019B000D4E90021A847A3E6206E3DF029FE294680
:1019C0003A20FFF715F80DF1100C0422824601238E
:1019D00005A94046CDF818C007928DF8343005951A
:1019E0008DF820500E95CDE90955CDE90B5540F005
:1019F00007FEFEF705FBBAF1000F07D1FFF7ECF881
:101A0000049B1BBAC3F38073A3765CE6FFF7E4F88C
:101A1000FFF792FB94F82420E2E504212C20FEF746
:101A2000C7FC032182464E20FEF7C2FC83460C21F0
:101A30003620FEF7BDFC0BF1020B421C05FA0AF53D
:101A400002FA0BF2A2FB0501420A42EAC152A2626B
:101A5000FFF7C2F8D5E60190FFF7BEF8042301981E
:101A600084F82430064630E71E4684F824302CE7FC
:101A7000114B0722E6689B6A84F824206361002EDC
:101A80003FF423AF23695046D4E90021B04794F8CE
:101A90002420531E37E608D0042384F82430FFF7AF
:101AA0009BF894F82420531E2DE6FFF727F8022810
:101AB0007FF426AE10E600BFE8270120154BDB6857
:101AC000C3F3022310B4C3F107041A1D042C28BF6A
:101AD0000424062A4FF0FF328CBF033B0023A240B0
:101AE000002821EA020101FA03F108DB09010A4B8F
:101AF000C9B2034483F800135DF8044B704700F04B
:101B00000F000901054BC9B2034419765DF8044B77
:101B1000704700BF00ED00E000E100E0FCEC00E0F9
:101B200030B5284C0022284841F28731D4F864347B
:101B300083B0264DA0FB030304F59A60C4F8DC14BF
:101B4000DB0CC4F8E024C4F8D824013BC4F8D0541A
:101B5000C4F8D43409F020F91D4B062137201A6C43
:101B600042F020021A641B6C03F020030193019BD6
:101B7000FFF7A4FFD4F8D0344FF400001549164AFB
:101B80004860D96841F00101D96099680A40062A85
:101B900006D0B2F5803F03D01A6842F001021A6005
:101BA0000E4B41F2041200200D499A5803F274645E
:101BB000C3F87006C2F81002C3F86806C2E98114BF
:101BC00003B030BDE827012083DE1B430014004032
:101BD0000038024000E100E007000100F01601209B
:101BE000F82C012038B50F4B0F4AD3F86434A2FB10
:101BF00003239B09013BB3F1807F10D20B4A0024E1
:101C0000F0200B490725536081F82300214694609A
:101C10004FF0FF301560FFF751FF204638BD01201F
:101C200038BD00BFE8270120D34D621010E000E06E
:101C300000ED00E04309012200F01F0084B0013BE9
:101C400002FA00F0032B0BD8DFE803F015021E0C9C
:101C5000124B5A6C02435A645A6C10400090009B1D
:101C600004B070470D4B1A6B02431A631A6B104095
:101C70000390039BF4E7094B5A6B02435A635A6B78
:101C800010400290029BEBE7044B1A6C02431A646B
:101C90001A6C10400190019BE2E700BF003802403F
:101CA0000A4610B102213DF0B7BA704770B5214D18
:101CB000D5F8903093F82620DAB11B699847E0B147
:101CC000D5F8903093F824208AB105F194060024C9
:101CD0001A19E0B29B69013492F82C10B6EC010A93
:101CE0009847D5F8903093F824209442F0DB5B6954
:101CF000984795F8A430332B00D070BD95F8A830E4
:101D0000002BFAD0D5F8903093F82430042B1E46DF
:101D1000A8BF0426002BF0D00024074D2346013431
:101D2000184655F00DFF45F8040BE3B29E42F6D875
:101D300070BD00BFBC020020680300202DE9F04701
:101D4000C24C054694F8101DD4F8180DC1F340019B
:101D50003DF06AFC94F8101DD4F8140DC94301F04D
:101D600001013DF061FC002D00F0DC8005F1FF3841
:101D7000B74E1027B74D5FFA88F8D4F8183D33B145
:101D80001A689B8851690B4218BF1B049361D4F8F1
:101D9000143D33B11A689B8851690B4218BF1B046C
:101DA0009361B4F8203D002B40F0488194F8221D47
:101DB000D4F8240D3DF038FC4FF0FA0C4FF47A7053
:101DC0004FF0010E7368C3F30803002B40F00B8142
:101DD000EFF31183002B40F00681A26AA968A36A81
:101DE0009A42FAD1D4F8483D9942F6D8D4F8449DA5
:101DF00000FB09F35B1AB3FBF9F300FB02327368D3
:101E0000C3F30803002B40F0AF80EFF31183002BE6
:101E100040F0AA80A36AD5F808A0A16A8B42F9D144
:101E2000D4F8481D8A45F5D8D4F8449D00FB09F143
:101E3000A1EB0A01B1FBF9F100FB03139B1AB3F507
:101E40007A7FDCD3BCF1010CBCD1D4F8183D33B19E
:101E50001A689B8851690B4218BF1B049361D4F820
:101E6000143D33B11A689B8851690B4218BF1B049B
:101E70009361B4F8203D002B40F0D48094F8221DEB
:101E8000D4F8240D81F001013DF0CEFB4FF0FA0CA7
:101E90004FF47A704FF0010E7368C3F30803002B00
:101EA00040F08280EFF31183002B7DD1A26AA968F4
:101EB000A36A9A42FAD1D4F8483D9942F6D8D4F8A8
:101EC000449D00FB09F35B1AB3FBF9F300FB0232FC
:101ED0007368C3F308033BBBEFF3118323BBA36A0F
:101EE000D5F808A0A16A8B42F9D1D4F8481D8A45DB
:101EF000F5D8D4F8449D00FB09F1A1EB0A01B1FB30
:101F0000F9F100FB03139B1AB3F57A7FE0D3BCF120
:101F1000010CC1D108F1FF385FFA88F8B8F1FF0F62
:101F20007FF42BAFBDE8F087EFF3118987F31288B8
:101F3000D5F808A02B68DB0303D5C4F840EDD5F82D
:101F400008A0A36A5FFA89F9D4F8401D89F31188C3
:101F5000D4F8449D0B4400FB09F1A1EB0A01B1FB4D
:101F6000F9F100FB0313CEE7EFF3118987F3128831
:101F7000D5F808A02B68D90303D5C4F840EDD5F8EF
:101F800008A0A36A5FFA89F9D4F8401D89F3118883
:101F9000D4F8449D0B4400FB09F1A1EB0A01B1FB0D
:101FA000F9F100FB031349E7EFF3118187F312887E
:101FB000D5F808902B68DA0303D5C4F840EDD5F8BE
:101FC0000890A36AC9B2D4F8402D81F31188D4F8DF
:101FD000441D1A4400FB01F3A3EB0903B3FBF1F327
:101FE00000FB023274E7EFF3118187F31288D5F812
:101FF00008902B68DB0303D5C4F840EDD5F80890B2
:10200000A36AC9B2D4F8402D81F31188D4F8441DD5
:102010001A4400FB01F3A3EB0903B3FBF1F300FB4C
:102020000232ECE6D4F83C3D002B3FF42FAF002306
:10203000D4F8282D136084F8393D27E7D4F83C3DC7
:10204000002B3FF4B9AE39F05FFEB5E6E82701207A
:1020500000ED00E010E000E02DE9F84FBD4C4FF03E
:10206000050BBD4F4FF0100894F8101DD4F8180D53
:10207000C1F34001B94D3DF0D7FA94F8101DD4F8E2
:10208000140DC94301F001013DF0CEFAD4F8183D1A
:1020900033B11A689B8851690B4218BF1B049361C6
:1020A000D4F8143D33B11A689B8851690B4218BFAC
:1020B0001B049361B4F8203D002B40F0438194F859
:1020C000221DD4F8240D3DF0AFFA4FF0320C4FF43E
:1020D0007A7001267B68C3F30803002B40F0078168
:1020E000EFF31183002B40F00281A26AA968A36A72
:1020F0009A42FAD1D4F8483D9942F6D8D4F8449D92
:1021000000FB09F35B1AB3FBF9F300FB02327B68B7
:10211000C3F30803002B40F0AB80EFF31183002BD7
:1021200040F0A680A36AD5F808A0A16A8B42F9D135
:10213000D4F8481D8A45F5D8D4F8449D00FB09F130
:10214000A1EB0A01B1FBF9F100FB03139B1AB3F5F4
:102150007A7FDCD3BCF1010CBCD1D4F8183D33B18B
:102160001A689B8851690B4218BF1B049361D4F80D
:10217000143D33B11A689B8851690B4218BF1B0488
:102180009361B4F8203D002B40F0D08094F8221DDC
:10219000D4F8240D81F001013DF046FA4FF0320CE5
:1021A0004FF47A7001267B68C3F30803002B7FD1BC
:1021B000EFF31183002B7BD1A26AA968A36A9A422C
:1021C000FAD1D4F8483D9942F6D8D4F8449D00FBA2
:1021D00009F35B1AB3FBF9F300FB02327B68C3F32C
:1021E00008032BBBEFF3118313BBA36AD5F808A038
:1021F000A16A8B42F9D1D4F8481D8A45F5D8D4F8A4
:10220000449D00FB09F1A1EB0A01B1FBF9F100FBD0
:1022100003139B1AB3F57A7FE0D3BCF1010CC2D152
:102220000BF1FF3616F0FF0B7FF430AFBDE8F88FEF
:10223000EFF3118988F31288D5F808A02B68DB0327
:1022400003D5C4F8406DD5F808A0A36A5FFA89F9F0
:10225000D4F8401D89F31188D4F8449D0B4400FB49
:1022600009F1A1EB0A01B1FBF9F100FB0313D0E77F
:10227000EFF3118988F31288D5F808A02B68D903E9
:1022800003D5C4F8406DD5F808A0A36A5FFA89F9B0
:10229000D4F8401D89F31188D4F8449D0B4400FB09
:1022A00009F1A1EB0A01B1FBF9F100FB03134DE7C2
:1022B000EFF3118188F31288D5F808902B68DA03C0
:1022C00003D5C4F8406DD5F80890A36AC9B2D4F814
:1022D000402D81F31188D4F8441D1A4400FB01F30A
:1022E000A3EB0903B3FBF1F300FB023276E7EFF354
:1022F000118188F31288D5F808902B68DB0303D589
:10230000C4F8406DD5F80890A36AC9B2D4F8402D3E
:1023100081F31188D4F8441D1A4400FB01F3A3EBA8
:102320000903B3FBF1F300FB0232F0E6D4F83C3DC5
:10233000002B3FF433AF0023D4F8282D136084F82A
:10234000393D2BE7D4F83C3D002B3FF4BEAE39F0CD
:10235000DBFCBAE6E827012000ED00E010E000E039
:102360002DE9F041D0F800E00C46DFF8588084B049
:10237000DEF804501746DFF850C0194605EA080594
:10238000DDF82880064603932C43424644EA0C0CB1
:10239000CEF804C00AF05AFC78B931680246039BB3
:1023A00030468F624021CDF800800AF07FFC003873
:1023B00018BF012004B0BDE8F081012004B0BDE8E1
:1023C000F08100BF009800FC00200180F8B5134F99
:1023D00004460D460AE09B69DB0602D50AF0F6FBCF
:1023E000D0B9D7F84C3D5B1B0A2B08D823682A4686
:1023F0000A2120469E69B606EDD50020F8BD636C23
:102400002021002201200B4384F84020636484F8DB
:10241000411084F84220F8BD0120F8BDE8270120D2
:1024200018B1002201213CF0F7BE704718B100221C
:1024300020213CF0F1BE7047094B0220094AD3F835
:102440006414B2EB910F4FEA910307D25B0840008E
:10245000934280B202D9FF28F8D97047704700BF75
:10246000E827012080969800002800F0A080B0F8AE
:1024700004C0BCFA8CF3202BC3F11F0200F097803C
:102480002DE9F04F7A4D4FF00044DFF8208285B0FF
:10249000154434FA03F308EB820295F8B850C2F8F9
:1024A000501D019505D0734A116821EA030111609E
:1024B000536103680021DFF8F8E16E4A02E0013160
:1024C00010296BD04FF0010909FA01F00CEA000560
:1024D00030EA0C00F3D14FF0030A01FA09F71C6847
:1024E0004FF00F0B0AFA07F701EA0A0021F0030682
:1024F00024EA0704800006F180461C600BFA00F411
:10250000D3F80CB006F59C362BEA0707DF60DEF83F
:10251000447047F48047CEF84470DEF8447007F406
:1025200080470397039FB76827EA0404524FBB42D2
:1025300020D007F58067BB423AD0504FBB423BD01A
:102540004F4FBB426ED04F4FBB4274D04E4FBB4239
:102550006CD04E4FBB427BD04D4FBB427DD04D4FD8
:10256000BB427FD04C4FBB420CBF09270A2707FA5A
:1025700000F00443B46001311068102940EA0500FE
:102580001060506820EA05005060906840EA05003D
:102590009060D06820EA0505D56093D1019B9844EE
:1025A00098F8903DF02B0CD805B0BDE8F08F70473F
:1025B00009FA00F00443DDE7022707FA00F00443BC
:1025C000D8E7F021354A364B88F8901DD26801993A
:1025D000C2F302225C5CC2F107005956131D0428A5
:1025E00028BF0420062B4FF0FF338CBF033A002294
:1025F000834000296FEA030303F0030303FA02F3A5
:102600001EDB284801221B0104F01F04451849095C
:10261000DBB202FA04F485F8003340F8214005B03B
:10262000BDE8F08F0AFA00F00443A3E7052707FA94
:1026300000F004439EE7042707FA00F0044399E7FB
:1026400004F00F041B01184ADBB222441376ABE7F7
:10265000062707FA00F004438CE7072707FA00F083
:10266000044387E7082707FA00F0044382E700BF26
:1026700094DC2600003C01400000024000080240BB
:10268000000C0240001002400014024000180240FA
:10269000001C0240002002400024024000ED00E047
:1026A0003481270000E100E0FCEC00E0E827012095
:1026B0000038024010B4B8B10D4CD4F8983D102B3E
:1026C00005D1052100205DF8044B38F085BE03EBF1
:1026D0004302224482F89D1D012182F89C0D0B4487
:1026E00082F89E1DC4F8983D5DF8044B704700BF0A
:1026F000E827012020218078DCE700BF2DE9F04F9A
:10270000BC4C002387B004F6CC5894F8E02DC4F8F4
:10271000CC3DC8E90133C8E903331AB194F8E13D6F
:1027200084F8CC3D94F8E23D1BB194F8E33D84F885
:10273000DB3D94F8E63D1BB194F8E73D84F8D63DC7
:1027400094F8E43D1BB194F8E53D84F8D13D94F84C
:10275000E83D013B4FFA83FADBB2BAF1FF3F029347
:1027600000F02681B022A449A44D002302FB0A11E7
:102770002E4605F12800C8311F469B4601935AF0AA
:102780007BF9039535785146284642F0EBF88146AF
:10279000002840F0108101370536042FF2D194F85B
:1027A000F80D039DFFF746FA4FF44032944E002394
:1027B0000121C4F8002E3046D4F8F42DC4F818BE18
:1027C000C4F8141EC4F80C1E84F82C1EC4F8043E71
:1027D000C4F8243EC4F8283EC4F8083E84F81C3EE1
:1027E000C4F8203EC4F8103EC4F8FC2DFDF710FCE0
:1027F000BAF1000F40F01881019B83F0010919F034
:10280000FF0F40F01181A6F1080057F02BFA0123C9
:1028100008F11408EA78002A40F040810535454562
:10282000F8D104EB0A030299022093F9F02D39F054
:102830005FFC0546002800F0BB80D0F804804046CD
:1028400039F046FC6F4A2421431E01FB032393F811
:102850007C71002F40F0AC800622A3F87C21002878
:1028600000F0A6804046DFF8B88139F031FC56F020
:1028700073FDBBF1010FA9684FF400638CBF4FF4E7
:102880008062002268684FF40055C4F8481E4FF477
:102890008071C4F8542E4FF40032C4F8583E03231C
:1028A000C4F8440E4046C4F86C3EC4F84C7EC4F8EC
:1028B000507EC4F8687EC4F8707EC4F8747EC4F894
:1028C0005C5EC4F8601EC4F8642E0BF055F994F8F1
:1028D000383EC4F8348E012BC4F87C6E059767D05F
:1028E0000123D4F8FC5D84F8383EAB68DE0713D4CE
:1028F000D4F864344449AA68B3FBF1F342F001020E
:1029000003EB4303AA600593059B2BB1059B013B99
:102910000593059B002BF9D1AB68D80748D5D4F8AF
:102920003C2E3A4B134043F48073C4F83C3E6B6832
:10293000590507D5D4F83C3E23F4405343F4805363
:10294000C4F83C3ED4F83C3E13F4805300F055816B
:10295000D4F8403E23F00603C4F8403E2C48002340
:102960002C496FF02202C4F8840E2B4884F8383EBC
:102970005B46C4F8801E05F14C01C4F8900E2A6035
:102980006E68264A46F0806625486E60AE6846F45A
:102990008076AE600BF064F8224B5A68D20640F0A5
:1029A0001581D4F8FC3D9A6812F0405F00F0208158
:1029B00007B0BDE8F08F28463CF004FDFB1D032165
:1029C0000022DBB2CDF8049008B18371C2713CF0F3
:1029D000DFFC307841F0F8FF0BF1010386F802B01C
:1029E0005FFA83FB4FF00703707033714FF0010300
:1029F000F370D0E6E827012094DC2600B4350120EE
:102A0000E43501200000012040420F00FEF8FFFFE6
:102A10003590210039902100259021008803002065
:102A20002C36012000230140B02200217A4848279B
:102A30005AF084FFB022002177485AF07FFF774B8D
:102A4000384684F8A87EC4F8A43EFFF7F3F84FF4A4
:102A5000403000230121D4F8A42EC4F8B00E7048F1
:102A6000C4F8C41EC4F8BC1E84F8DC1EC4F8B43E0E
:102A7000C4F8D43EC4F8D83EC4F8B83EC4F8C83E42
:102A800084F8CC3EC4F8D03EC4F8C03EC4F8AC2EA6
:102A9000FDF7BEFA604857F0E5F8B8E694F8380E4E
:102AA00000215A1C2F7901280491D2B269783DD0B7
:102AB0004FF00100092984F8380E4ED94FF0030E6B
:102AC0006FF01D00D4F8FCCD4FF007091EFB01008C
:102AD000DCF80CE009FA00F907FA00F02EEA090721
:102AE000CCF80C70DCF80C703843CCF80C00062BDA
:102AF0004FF005001CD86FF0040710FB0373D4F8E7
:102B0000FC7D1F2000FA03FC786B01FA03F320EA36
:102B10000C007863786B03437B63D4F8FC3D3F483B
:102B2000834230D04FF0000384F8383E134675E6F8
:102B30000C2B32D86FF0220710FB0373D4F8FC0D76
:102B40001F2707FA03FC076B01FA03F327EA0C07B8
:102B50000763076B3B430363DFE7D4F8FC0D01EB2E
:102B600041094FF0070ED0F810C007FA09F70EFA26
:102B700009FE2CEA0E0CC0F810C0D0F810C047EACD
:102B80000C070761B3E712291AD01129CAD12549C8
:102B90004B6843F400034B60C4E76FF0400710FB41
:102BA0000373D4F8FC0D1F2707FA03FCC76A01FA68
:102BB00003F327EA0C07C762C76A3B43C362ACE76B
:102BC00018494B6843F480034B60ABE7D4F8FC2D05
:102BD00012498A4214D05B68DB063FF5E9AE124B1E
:102BE0009A427FF4E5AE9A6812F0405F7FF4E0AE5F
:102BF0009A6842F080429A60DAE6C4F8403EADE658
:102C0000936813F0405F03D1936843F0804393606F
:102C1000044B5B68CCE600BF8C36012000200140ED
:102C20009436012000230140002201402DE9F041AB
:102C3000D0F800E00C46DFF8588084B0DEF804508D
:102C40001746DFF850C0194605EA0805DDF8288068
:102C5000064603932C43424644EA0C0CCEF804C0CB
:102C600009F0F4FF78B931680246039B30468F6261
:102C70008021CDF800800AF019F8003818BF012033
:102C800004B0BDE8F081012004B0BDE8F08100BFD0
:102C9000009800FC00200181034690F83C000128C8
:102CA00000F03E810220F0B4012483F83D0083F857
:102CB0003C40142A45D8DFE812F04D00440044009F
:102CC00044007B00440044004400DA004400440017
:102CD0004400AA00440044004400060144004400AB
:102CE000440015001A688E68156A0F6825F480156F
:102CF000AB4C1562106A556820F40010D2F854C02D
:102D000040EA0650A74E0CEA0404B24244EA072403
:102D100000F0088106F58066B24200F003814E683B
:102D200055605465D6651062506D0C6940F40060C2
:102D30005065506D20F480605065516D41EA04216A
:102D4000516500220121104683F83D1083F83C2094
:102D5000F0BC70471A68D1F808C0156A0F6825F0F2
:102D60000105914C1562106A5668956920F00200C1
:102D70002C408C4D40EA0C00AA4244EA070400F0C3
:102D8000DD8005F58065AA4200F0D8804D68566068
:102D900094615563106290690C6940F0080090617D
:102DA000906920F004009061916921439161C8E726
:102DB0001A68D1F808C0156A0F6825F010057B4C19
:102DC0001562106A5668956920F020002C40754DF8
:102DD00040EA0C10AA4244EA072400F0C38005F53B
:102DE0008065AA4200F0BE804D685660946195638C
:102DF000106290690C6940F400609061906920F461
:102E000080609061916941EA0421916199E71A68B3
:102E10008E68156A0F6825F48055644C1562106A37
:102E2000556820F40050D2F81CC040EA06305D4ED0
:102E30000CEA0404B24244EA072400F08D8006F54F
:102E40008066B24200F088804E685560D461166496
:102E50001062D0690C6940F40060D061D06920F440
:102E60008060D061D16941EA0421D16169E71A68C3
:102E7000D1F808C0156A0F6825F480754A4C1562B0
:102E8000106A5668D56920F400702C40454D40EA20
:102E90000C20AA4244EA070473D005F58065AA42D3
:102EA0006FD04D685660D461D5631062D0690C69EB
:102EB00040F00800D061D06920F00400D061D169F1
:102EC0002143D1613DE71A688E68156A0F6825F4C1
:102ED0008035374C1562106A556820F40030D2F8FE
:102EE00054C040EA06402F4E0CEA0404B24244EAC1
:102EF00007041DD006F58066B24219D04E685560B1
:102F0000546596651062506D0C6940F0080050657C
:102F1000506D20F004005065516D2143516510E75C
:102F20000220704725F480254E6945EA8625F6E69D
:102F300025F480354E6945EA0625DFE726F4407C16
:102F400020F008008E69CF684D693843354320F082
:102F5000040045EA0C0619E725F480454E6945EA68
:102F6000861571E726F4406C20F080008E69CF68EA
:102F70004D6940EA0710354320F040004CEA8506D1
:102F800032E726F4405C20F400608E69CF684D691A
:102F900040EA0720354320F480604CEA051680E7BC
:102FA000FF8FFFFE000001408CFFFEFFFF8CFFFE45
:102FB0008FFFFEFF0128B5EEC00A10D0F1EE10FA27
:102FC0000BDD9FED177ADFED177AE0EE077AFCEE66
:102FD000E77A17EE903A98B2704700207047F1EE0A
:102FE00010FA0BDD9FED107ADFED107AE0EE077A34
:102FF000FCEEE77A17EE903A98B27047EDD5F7EE0F
:10300000006A9FED0B7ADFED0B7A30EE260AE0EED8
:10301000077AFCEEE77A17EE903A98B2704700BF55
:1030200000E0F9440000404200C0794400008344BD
:1030300000C079C400E08244F8B53D4E96F8544F84
:1030400004EB8403A70006EB830393F8583F032B9C
:1030500044D8DFE803F0461B0F023C4406EB84042F
:10306000D4F85C3F002B58D0013B0025C4F85C3FEE
:103070002846F8BD3B1906EB8303D3F85C2F7AB1E1
:10308000013A0025C3F85C2F2846F8BD3B1906EB32
:103090008303D3F85C2F002AF2D1022283F8582F41
:1030A0003C4406EB840494F8643F013BDBB284F8B3
:1030B000643F4BBB0323D4F8600F84F8583FEDF511
:1030C0000BFEC4F85C0F0646EDF554FE80F00100DF
:1030D000002E0CBF002500F0010525BB0125284668
:1030E000F8BD41F01DFB05460028F7D03C44012304
:1030F00042F2107006EB840484F8583FEDF5ECFDC5
:10310000C4F85C0F2846F8BD01254FF47A70EDF540
:10311000E3FDC4F85C0F2846F8BDEDF5E7FD80F04F
:103120000100C5B2B0E7013EC4F85C6FACE700BF78
:10313000E827012003689B0AA3F58013522B00D9CE
:1031400070470E4A134470B593F8D84284B00D2CE2
:1031500012D800294FF0000309494FF0010514BFB0
:103160001E460226427901EB84106946CDE90065CE
:10317000CDE9023307F000FD04B070BD94DC2600F9
:103180009037012033492DE9F84F91F875141C460A
:10319000012507460229DFF8C4A0104619464FF062
:1031A0000002DFF8BC9018BF7F02CAF82051FCF77C
:1031B000D9FF294A630240F2FF5BC9F824204FF48B
:1031C0000075C9F828304FF48A62D9F82C300121F3
:1031D00010205E4643F09303C9F82C30C9F838B08C
:1031E000C9F808504D46C9F80C2052F065FE012C74
:1031F000C9F838B04FF00A048CBF4FF052084FF0B6
:1032000051084FF0000939464046FDF7F3FC013CF8
:10321000034640F2774201213720E4B223B9184631
:10322000CAF81C31BDE8F88FAE63C5F80890EA60B3
:1032300052F042FEAE63034608B1002CE3D1002BEE
:10324000EDD000221846CAF82021CAF81C31BDE88A
:10325000F88F00BFE827012000E1F505F0160120F6
:10326000002C01402DE9F843DFF8708004460F463A
:10327000914698F824501E46042D08D0082D02D0FF
:103280000020BDE8F883FDF71BFF0228F8D10123D9
:103290003A4620460021FFF775FF68B1FEF75CF85B
:1032A000D8F80C40002CEBD00022D8F81030D8F819
:1032B00004101046A047E3E7074A05230120C8F899
:1032C0000070926AC8F80440C8F8142088F82430C6
:1032D000C8E90396BDE8F883E8270120F01601202D
:1032E0002A492DE9F04F91F875140124DFF8A8B0B0
:1032F0000746022983B0CBF824419A4618BF4702FB
:10330000012B4FF00A04224D40F2FF568CBF4FF0C4
:1033100059084FF058084FF00009009239464046CE
:10332000FDF768FC013C034640F27742012137205B
:10333000E4B2BBB90098514601220193154CFCF749
:1033400011FF13494FEA4A220020019B4C628A6216
:10335000CA6A42F09102CA62CBF81C01184603B057
:10336000BDE8F08FAE63C5F80890EA6052F0A4FDA6
:10337000AE63034608B1002CD0D1002BDAD0002276
:103380001846CBF8242103B0BDE8F08FE8270120D0
:10339000002C014000E1F505F01601202DE9F84F61
:1033A00005460E4690461F46344C94F824000428E7
:1033B0000BD0082806D1E369AB4206D0FDF780FEAA
:1033C0000228F2D00120BDE8F88FDFF8B8A026600F
:1033D000DAF868946560C9F34F234FEA59220F2B3E
:1033E00028D8D4F820B0BBF1000F23D094F8F21005
:1033F00001B3B9F5005F3AD021484FF4007231466D
:10340000484459F039FB09F50072C2F34F23CAF85A
:103410006824520A102B2AD0BBF1010F27D0E26991
:103420000BF1FF33042102200132236284F82410BF
:10343000E261C8E701234FF001092846062532461C
:103440000021C4F80C80276184F8089084F8245087
:10345000FFF746FF0028B6D0FDF77EFFE5685DB1B7
:103460004846236961680022A8470320ABE792B26F
:10347000034E013AAD1ADEE70320A4E7F01601205F
:10348000E0570120E827012003681878012801D0BF
:103490000020704793F90430074A03EB430302EB23
:1034A000431393F8C522202AF3D1D3F884329869C4
:1034B000C0F3C030704700BFE038012010B50B4C9E
:1034C000D4F8F0331B78022B0ED1D4F8F8033CF07B
:1034D000A5F8D4F8F80308B12123C380FEF7A0FFB4
:1034E000FEF7AAFFA4F8F40310BD00BFE0380120E6
:1034F00030B5044683B001230D460DF1070208489C
:10350000214640F029FD9DF8072035EA020304D04A
:103510002A432146024841F053F803B030BD00BFB2
:10352000D03C012038B505460A460C4606482946D7
:1035300040F060FB45F08001034840F051FA231A47
:103540005842584138BD00BFD03C0120F0B5344C42
:10355000134693B0D4F8F0532A78022A07D00A46CB
:10356000014604F57C7040F0F7FC13B0F0BD2A6A08
:1035700012B1002013B0F0BD0DF1070C002600279A
:103580008DF80700012003928DF814200B920E9203
:103590001092CDF808C004908DF828008DF83C00FA
:1035A000CDE90622CDE90813CDE90C67EFF31180D0
:1035B000102383F31288D4F8F0331B6A13B302AEDE
:1035C000049B32461BB1D3691432002BFBD12B6A0A
:1035D00013B3996839B993420AD0196829B15B6865
:1035E00099680029F7D01433F3E70E4AC3E900269F
:1035F000C0B280F31188D4F8F023136A002BFCD1F9
:103600000120B2E702ABC0B22B6280F3118804F54F
:103610007C7055F0D3F9EEE7024A1A60FFDE00BF76
:10362000E0380120D03C01202DE9F04F046883B040
:103630002578022D00F08C80012D04D00024204636
:1036400003B0BDE8F08F034694F904004C4E032804
:1036500086F8BC54D4BF00240124B0F1FF3F08BF5A
:1036600044F00104002CE9D10A4600EB40014FEA86
:10367000400C06EB4111D1F88472002FDED091F896
:10368000C5E2BEF1200FD9D1BF6917F40047D5D1EB
:1036900091F8C4E2BEF1010FD0D04FF04008DFF83E
:1036A000F4E0DFF8F4B04FF0210A93F80490DBF86F
:1036B0004C3D81F8C5A281F8C68206F2BC48C1F82B
:1036C000C872A1F8AE52C1F8B0E2B1F8AEE281F82A
:1036D000C4521FFA8EF5DFF8C4E0C1F8A882FF2DAE
:1036E000C1F8B8E247D8B1F8AEE24FF000781FFA5F
:1036F0008EFE844423484FEA4909009300EB4C10A6
:10370000192306EB4C1549461430A5F8ACE2FFF737
:103710008DFA30BBD5F884221B49536895F8AC620A
:103720000B401A4CD5F8B81243EA0903A14243EA08
:10373000064343EA0803536085F8C40203D0144BE0
:10374000994218BFF227136801241F43176076E7D8
:10375000236A002B7FF472AF0122144640F04AFA2C
:103760006DE7B6F8BE340022013385F8C4229BB25F
:10377000A6F8BE3463E74FF0FF0E4FF08078B8E74D
:10378000E0380120503B0120009C00FC8DD6210038
:1037900095D721000000FFFFE8270120D9D821009C
:1037A00013B5394C0023D4F8CC248DF807301378A6
:1037B00003F0FD01012905D194F8D01411B90C21B1
:1037C00084F8D014022B1DD0032B2BD001220B2107
:1037D0002E484DF0ADFD042038F0D0F901230DF155
:1037E0000702002129484DF0C5FDB8B39DF8073008
:1037F000482B33D1264BC4F8C034264BC4F8C4340C
:1038000002B010BDD4F8D4043BF008FFD4F8D404BF
:1038100008B13423C380FEF703FEFEF70DFEA4F8C3
:10382000D004D3E7D4F87C3946F2A81150681222AC
:1038300019610023372180F888304DF04DFDD4F810
:10384000CC340D22242158684DF046FDD4F8CC34F8
:1038500030226A2158684DF03FFDB7E7D4F8CC34E8
:103860001A78022A03D0032A07D00020C8E7D4F828
:10387000D4043EF0A5FE0020C2E71022372158688C
:103880004DF02AFDF1E700BFE0380120AC3D0120FA
:10389000D3132600551426002DE9F04FDFF8C4920B
:1038A000002395B004464FF4F0728B4609F5506042
:1038B000202189F8FC3C322589F8FD3C1027019431
:1038C0005AF03CF8202109F56E604FF4F072DFF8F1
:1038D00098825AF033F89D4E9D494FF47A704FF01C
:1038E000010C7368C3F30803002B40F0BA80EFF3B8
:1038F0001183002B40F0B580D8F828208C68D8F8C8
:1039000028309A42F8D1D8F8483D9C42F4D8D8F8EB
:1039100044ED00FB0EF31B1BB3FBFEF300FB023276
:103920007368C3F30803002B7AD1EFF31183002BE4
:1039300076D1D8F82830D1F808A0D8F82840A3428A
:10394000F7D1D8F8484DA245F3D8D8F844ED00FB9C
:103950000EF4A4EB0A04B4FBFEF400FB03439B1A31
:10396000B3F57A7FDCD3013DBBD17A4C14F8372C08
:10397000002A50D014F8363C013B032B4BD803EB04
:1039800083060120A4F1340504EBC60184F8F40099
:1039900005EBC60611F8340CE666022800F08782B3
:1039A000DBB2C3EB031304EBC303D3F8043141F8D8
:1039B000303C83B302274FF4807504F17C0004F19E
:1039C000B80301F8347C21F8285C41E907031509A4
:1039D00002F00F02013D052D00F24C825E4F07EB15
:1039E0004503B3F8A40040FA02F3DB0740F142823A
:1039F00001233D4403FA02F2013A104057F028FA3D
:103A000095F8B020554B104403EBC00082796067F5
:103A100012F0BF0245D06FF0010015B0BDE8F08F85
:103A2000EFF3118E87F31288D1F808A00B68DC033E
:103A300003D5C8F840CDD1F808A0D8F828305FFAEF
:103A40008EFED8F8404D8EF31188D8F844ED23440B
:103A500000FB0EF4A4EB0A04B4FBFEF400FB0343EA
:103A60007DE7EFF3118487F31288D1F808E00B6843
:103A7000DB0303D5C8F840CDD1F808E0D8F82830EA
:103A8000E4B2D8F8402D84F31188D8F8444D1A4494
:103A900000FB04F3A3EB0E03B3FBF4F300FB0232D1
:103AA0003EE723230D21C3803BF0B6FB636F002B61
:103AB00000F010821A68E66E9B889361D8F864342F
:103AC00027499A08B1EB930F4FF0020306D2520830
:103AD0005B008A429BB201D9FF2BF8D9FF220DF17E
:103AE0000D01A4F8703000238DF80D2001220D93F4
:103AF00006928DF81C208DF83020CDE90413CDE915
:103B00000833CDE90A33EFF31180102383F31288D1
:103B1000E36E1B6A002B00F0B08104AD069B2A46C1
:103B20001BB1D3691432002BFBD1336A002B00F098
:103B3000D381996839B993421BD01968B1B15B68D8
:103B400099680029F7D01433F3E700BF00ED00E0D7
:103B500010E000E0D849012094DC26004C29012027
:103B6000404B4C00E0380120E8270120B34AC3E96C
:103B70000025C0B280F31188E16E086A0028FCD1EC
:103B80004FF0010C4FF08C0E0DF10E060DF10F07EA
:103B90000022002305908DF81C000D9010901290CB
:103BA0008DF80EE00496CDF818C0CDF82CC08DF835
:103BB00030C08DF844C00A97CDE90800CDE90E2346
:103BC000EFF31180102383F31288E36E1B6A002B3E
:103BD00000F05C81069B2A461BB1D3691432002B8E
:103BE000FBD10B6A002B00F07781996839B99A42B2
:103BF0000AD0196829B15B6899680029F7D0143395
:103C0000F3E78E4AC3E90025C0B280F31188E36E62
:103C10001A6A002AFCD19DF80F301B2B40F04F810F
:103C20000122636F89F8FC2C0BB12322DA80DFF8C4
:103C30000CA240220A2150463FF0DCFF0023012263
:103C40004FF08A0C002000218DF80EC00496D4F8A5
:103C50006CC00A9705938DF81C300D931093129346
:103C600006920B928DF830208DF84420CDE9083370
:103C7000CDE90E01EFF31180102383F31288E36E78
:103C80001B6A002B00F00A81069B2A461BB1D369F0
:103C90001432002BFBD1DCF82030002B00F0228105
:103CA000996839B99A4209D0196829B15B6899684D
:103CB0000029F7D01433F3E7C3E900A5C0B280F3BD
:103CC0001188E26E136A002BFCD19DF80F0014F8E6
:103CD000383CC0F3801084F8E402002B00F0B88078
:103CE000022B00F09880D8F86414554B8A08B3EB87
:103CF000910F80F0E2809C46022352085B006245EF
:103D00009BB201D9FF2BF8D9DFF83CC1A4F8E63209
:103D10009CF8A420182A0CD14A084A49CCF8ACB027
:103D2000B2FBF3F2A1FB0212520BCCE92C03CCF84C
:103D3000B8200222002141484FF0800BA4F87030D7
:103D40003FF058FFC8204FF0000837F08DFC4FF0CF
:103D50000009E06E002301228DF80EB004960A9748
:103D600005938DF81C300D931093129306920B92CD
:103D70008DF830208DF84420CDE90833CDE90E8947
:103D8000EFF31182102383F31288E36E1B6A002B7A
:103D900037D0069B002B3CD02B46D9691433002921
:103DA000FBD1006A002800F09A80816839B983420B
:103DB00009D0016829B1406881680029F7D0143022
:103DC000F3E7C0E900A5D2B282F31188E06E036A7E
:103DD000002BFCD19DF80F3013F00203BAD10199EA
:103DE00018464A788B78C2F120020978C3F1100393
:103DF00084F8E92284F8EA3284F8E81215B0BDE8C4
:103E0000F08FD2B2056282F311880C4854F0D6FDCF
:103E1000DCE72B46C5E7D8F86414DFF830C08A0821
:103E2000BCEB910FBFF470AF52085B0062459BB2D0
:103E30007FF66AAFFF2BF7D966E700BF444A01203F
:103E4000809698005917B7D1BC020020002D31018F
:103E5000D8F86414254B8A08B3EB910F2DD29C46F9
:103E6000022352085B0062459BB27FF64DAFFF2BE9
:103E7000F7D949E70023636720E604ADC0B2356295
:103E800080F311881A4854F099FD75E6C0B20D62AE
:103E900080F31188164854F091FDB8E6C0B2CCF812
:103EA000205080F31188504654F088FD09E711F83E
:103EB000273C013301F8273C89E5022324E7606FA2
:103EC00028B120213BF0A8F94FF0FF30A5E54FF0D5
:103ED000FF30A2E5E66EF1E5054A1A60FFDEC0F8A4
:103EE00000A0FFDEC3F800A0FFDE00BF404B4C0087
:103EF000444A012030B54CF205028DB0002304463F
:103F00000321ADF8002001AD01228DF802300B93A2
:103F10008DF814208DF82820CDF808D0CDE906338F
:103F2000CDE90833CDE903513FF002FF204602A955
:103F30003EF066FB20463FF0FBFE9DF806000DB00C
:103F400030BD00BF0848002302461178063202291E
:103F500004D00133062BF8D10020704703EB430354
:103F600000EB4300704700BF1C1801202DE9F0430F
:103F7000764E83B0764C2422002106F5967059F0D7
:103F8000DDFC002394F8ED52C6F85031002D3AD1F3
:103F9000704FD7F8903053B39B6A43B36E4898473D
:103FA000836823B3038800246C4F013BBC46394629
:103FB0009BB20878063103281DD00134062CF8D1B5
:103FC000002239780637022900F0A1800132062A42
:103FD000F7D1D6F85011052909D002FB01C20131F1
:103FE000C6F850110220002193801070518028469D
:103FF00003B0BDE8F083062303FB0464B4F82E315C
:10400000013B9BB2DCE704F53D7394F8EC02C4F885
:10401000F03210B900254F4FBBE73BF0D3F9C4F89D
:10402000FC0218B1837913F0BF0FF3D129464C4835
:104030003FF08CFC05460028ECD0D4F8F032464A1C
:104040009868C3F8942008B12023C3800D21414F04
:104050003BF09EF9D4F8F0324FF0010998683BF03C
:10406000DDFA40483FF0A8FCD4F8F0320246322096
:104070009A80C7F8B03087F8B49037F07FFD0423FA
:104080004FF0000C9F21D4F8F0020DEB0302CDF8A5
:1040900004C03FF05BFD9DF805809DF8043007F1FA
:1040A00090004FEA08289DF8061048EA034848EABD
:1040B000010841464BF0A8FF00287FF46AAF404654
:1040C000FCF7ACFD034600287FF463AF9DF80600C3
:1040D0009DF8052000029DF8071040EA0240224AA0
:1040E0000843904217D0A7F89430A7F8A030C7E94A
:1040F0002633FCF793FD034600287FF44AAF94F87B
:10410000EC021D463BF05EF93EF05AFA41E706210B
:1041100001FB02C266E7154B4FF400314FF000621D
:1041200087F8A290C7F894304023C7E92612A7F871
:10413000A030FCF77DF807F1900087F8A9904BF0CC
:10414000AFFE0B4BC7F8903023E700BFF0160120FD
:10415000D8490120E8270120782801201C180120D7
:10416000CC4C0120404B4C0021AAEF000004000879
:10417000BCDC2600F0B500230E680DE0BCF1050F95
:1041800017D9BEF1050F18D80A2C16D103EB8303FB
:1041900016F8010B04EB4303A0F13005A0F1610C0C
:1041A000A0F1410EA0F13704EFB2092FE6D82C465A
:1041B000ECE7A0F157040A2CE8D00E601360F0BDC4
:1041C0002DE9F04F0423C34C402141F21C1504F6A5
:1041D000746704F5AA764FF0A042C4F85831C4F8C9
:1041E00068110023022194F811058BB0C4F85475AE
:1041F0006651C4F85421C4F88431C4F86431C4F859
:104200008031C4F87831C4F86C11C4F86011C4E985
:104210005C33002800F0668103211F46164684F8AF
:104220001115936823F001039360F368304643F05F
:104230004003F36005F036FFB36B012F054643F4EE
:104240008033B36318D00DB3022384F81135A24B29
:1042500093F8C450012D00F00181D4F8543180212D
:10426000012059625A6A42F480029A62FCF70AF805
:1042700000200BB0BDE8F08FB36843F00603B360D5
:10428000B36843F02003B360002DDDD1D4F854317E
:104290003220DA6822F0C042DA60DA6842F0804206
:1042A000DA6009F019FDD4F8580150B32A46012705
:1042B0002946C2EBC203561C04EB830383F890210A
:1042C000A3F89621F2B283F89171824283F8931198
:1042D000C3F8A411C3E96611EBD300221146C2EB67
:1042E000C203561C04EB830383F85023F2B283F815
:1042F0005113824283F85313C3F86413C3E9D611F0
:10430000EDD30022D4F85431D4F860C11646D4F865
:104310006481D4F880E1D4E95B71019102F140013C
:10432000013203EB81010F2A4E60F7D19A6BBEF187
:10433000000F40F0468122F400129A631A6842F09E
:1043400040021A601A6842F080021A600022012FAF
:1043500003F50066C3F8002ED3F80028C3F8002840
:10436000D3F8002800F02481032F00F0218142F0CF
:104370000302C3F800284FF48461584A196102E02F
:10438000013A00F0358119698F06F9D41021534A9A
:10439000196102E0013A00F029811969C906F9D4CE
:1043A000002131617161F161E0B103F510624FF0FC
:1043B000904A4FF0006B0F464FF67F399C4607E05E
:1043C000176001311761C2F808902032814262D033
:1043D0001368002BF4DA11B1C2F800A0F1E7C2F8BB
:1043E00000B0EEE73269B8F1010F22F48072326159
:1043F00000F0F08000216FF0804299615A61B8F1BD
:10440000000F03D19A6942F010029A619969344A07
:104410000A439A61019A1AB19A6942F008029A61B4
:10442000BEF1010F00F0D180002D7FF40DAF01210E
:10443000D4F8782184F88C518A4284F8111500F060
:10444000D9807368032043F00203736009F044FCD1
:10445000214B93F8C450012D7FF4FFAE4BF03EFA90
:1044600000287FF4FAAED4F8543180222846402147
:104470005A625A6A42F400129A62FBF703FF202143
:104480000220FBF7FFFE40210320FBF7FBFE00208C
:104490000BB0BDE8F08F002163460CF530624FF0A1
:1044A000904A4FF0006B0F464FF67F39844607E085
:1044B000176001311761C2F808902032614591D030
:1044C00010680028F4DA11B1C2F800A0F1E7C2F8D0
:1044D00000B0EEE7F0160120E8270120400D0300B0
:1044E00000383C8000F0FF054E4B03204FF4C056CF
:1044F00084F810551A6B42F001021A630A221B6BF2
:10450000069105A903F00103089047480493049B12
:1045100007950596099208F03FFCD4F88031012BED
:1045200075D0404B062143205A6B42F080025A63FB
:104530005A6B02F080020292029A5A6C42F4804254
:104540005A645B6C03F480430393039BFDF7B6FA54
:10455000D4F854610323354A0821916084F8113559
:10456000D4F86C21B368012AD4F8647123F00103F4
:10457000B3607FF45AAEB26B2D4B22F48032D4F884
:104580008811B2630129F26803EA0203F360F36859
:1045900023F44013F36003D1F36843F48013F36012
:1045A000304605F07FFD012F05467FF44CAE63E6F3
:1045B000BCF1000F3FF4DDAE42F00102C3F8002869
:1045C000D9E642F400129A63C0E69969194A0A438F
:1045D0009A6129E718490020184A31636FF0804139
:1045E000376B3A433263986159610FE70125D7E68B
:1045F0000125CBE684F848559969C4F8502541F067
:1046000000610F4A9961596D0A435A6519E74FF4E1
:10461000007305A904480593CDE9065508F0BCFBD5
:104620007FE700BF003802400000024000E100E0E8
:10463000BFFFBDFF04000040000180000300010037
:104640000300001010B5194C94F88D03B8B9184B3D
:1046500083F85100586594F89033012B05D0022B54
:104660001FD0D4F894331BB910BD124BC4F8943347
:1046700011495B68A1F10C00BDE8104018473AF001
:10468000A1FE94F88F230A49003A486518BF012219
:1046900081F851200028DED01F22C280FDF7C6FE1F
:1046A000D9E7064BC4F89433E2E700BFD8490120AC
:1046B000F0160120C4030120704D0120A003012049
:1046C00099B10A6B824216D9154BD3F8DC2391427B
:1046D00021D34C3991421ED30B6B9842F9D38B6B8B
:1046E0009842F6D80B46184670470D4BD3F8DC13AA
:1046F0000A6B904212D30B680BB9F4E70A6B904235
:104700000B4602D38A6B9042EDD951F84C3F002BF7
:10471000F4D1184670470023184670470A46D8E778
:10472000D84901202DE9F047CC0143D10346224965
:104730004FF0FF32022443F8081B7E2642601846E1
:10474000DFF878802644051D6FF07047D8F8E093B5
:104750004FF0010A013E494608E0A3421CD0631C09
:1047600045F8043C321B1C460435CAB10B6BA3420E
:1047700002D88B6BA34204D22046FFF7A1FF01466B
:1047800090B10A794B6B002AE7D1A34204D0E6D25C
:10479000631C45F8042CE5E7631C45F8047CE1E75D
:1047A000C8F8E013BDE8F087321B631C494645F8A2
:1047B00004ACD8E78026C3E7F8FFFF0FD8490120F3
:1047C000036870B55E6A26B133460522BDE87040C5
:1047D000184704460D464E1D00E023689B6820469E
:1047E00098470028F9D02368204615F8011B1B685C
:1047F0009847B542F1D170BD0A44914219D00139B0
:1048000010B4541E11F8012F0823504002E0013B60
:10481000D0B209D010F0800F4FEA4002F7D082F0FA
:10482000D500013BC0B2F5D1A142EBD15DF8044BFC
:10483000704770472DE9F0470023194D84B00746B3
:1048400095F9ED9305F57D764FF0B60A00EB01087A
:1048500005F294651C46D6F800C030460022694631
:10486000E036BCF1000F14D09CF838C0BCF1140F36
:104870000FD019F1020F01D0CC450AD1CDE9024485
:10488000CDE90078ADF808A08DF80D402EF0F6FFC8
:104890000346B542DFD1184604B0BDE8F08700BF3B
:1048A000D84901202DE9F0479AB004460D46174635
:1048B0009846DDF89090DDE9226A02E0206837F042
:1048C00077FC206837F07CFC0028F7D10146642291
:1048D00001A859F033F8264B8DF80450CDF85CA0B0
:1048E0000293002D3FD0AB1E012B3ED9042D14BFE7
:1048F000002303231F4A8DF805300123926A039693
:1049000016448DF85B30CDE90594049637B14246E4
:10491000394607A858F0B0F88DF85A80164E002393
:1049200096F8D6961893B9F1000F19D196F8D506D6
:10493000642201A902FB006000F5DB6058F09CF8DE
:10494000012386F8D59686F8D636236843B14346C8
:104950003A46294620461AB0BDE8F04716F004BC96
:104960001AB0BDE8F0870523C4E70223C2E700BF01
:104970006C500120E8270120D849012001448842D9
:104980000ED00346074810B4074C13F8012B04FB64
:1049900000F0994280EA0200F7D15DF8044B7047BD
:1049A00000487047C59D1C819301000130B400236D
:1049B0002C4D2D494CF25034C5F858372B4AD1F8BC
:1049C0004C0D04E0D1F84C3D1B1AA3420FD8D3681C
:1049D000DB03F7D4D16811F0F2010BD1D06810F0ED
:1049E000010002D001230846D36030BC7047032089
:1049F00030BC7047D3689C0705D5D5F8583743F0CD
:104A00002003C5F85837194BDB68D80605D5D5F80B
:104A1000583743F01003C5F85837144BDB68990634
:104A200005D5D5F8583743F00803C5F858370F4B6C
:104A3000DB685A0605D5D5F8583743F00403C5F8A6
:104A400058370A4BDB681B0605D5D5F8583743F0B5
:104A50000203C5F85837054BF2220120DA6030BC5A
:104A6000704700BFD8490120E8270120003C0240E0
:104A70002DE9F04FDFF870810127574CDFF86CA16A
:104A8000DFF86C912DED028B9FED548A85B0FEB25C
:104A9000572118F8010B324636F0E0FB0546002896
:104AA00000F0828003680122DFF848B14FF4005C17
:104AB000534518BFB3F1804FE06004ED088A0CBF86
:104AC0000123002304F8242C002B04F8233CDBF8FA
:104AD000643414BF10464FF4807007EE903AA9FB7F
:104AE0000313002144F80C0CF8EE677ADB0818F881
:104AF000010C44F8083C44ED077A24F8182C24F8FB
:104B0000162C44F8041C44E905C13AF05BFC206112
:104B100010B15723C67183716A7A42213AF040FD81
:104B2000DBF864240021284652F08CFB14F8233C67
:104B3000002B43D02A4B002221462846236052F006
:104B40004DFA286852F0F0FB834670B10023012132
:104B5000042200930392CDE9011369466A7906F0B5
:104B60000BF86979584606F0D7F8E2684FF0FF3540
:104B700054F80C3C013E1B484FF4005C11682B4478
:104B8000F6B290F8B4018B6201220023B042CD62EC
:104B90004A6124F8182C24F8162C44F8043C44E903
:104BA00005C301D136F0ECFA01373834052F7FF414
:104BB0006EAF05B0BDEC028BBDE8F08FDFF838E0DA
:104BC000221DDFF838C021462846A360C4E900EC66
:104BD00052F004FAB5E700BFB40300200000000063
:104BE000D5080000BC02002034510120000C004018
:104BF0001F85EB51E82701200D0A0000AD0B0000D6
:104C00000C480D4BD0F8781710B48A1E0B4C22318B
:104C1000C0F86837B0F896371B01A4FB03C3DB0864
:104C2000A3F5B06322F8023F9142F3D15DF8044B43
:104C3000704700BFD8490120BD482300CDCCCCCC63
:104C400070B5084C251D2E4614F8010B2FF03AF8CC
:104C500028B10379B44205F8013BF5D170BDFF23BB
:104C6000F8E700BF8C5101202DE9F0471C4F0126C9
:104C70004FF03B094FF0000807F10805B24617F85E
:104C8000010B3AF09FFB044690B180F80690C67184
:104C9000FB7803F07F02012A17D013F0800F204623
:104CA0000CD185F804803AF0B3FC85F805802C60BF
:104CB00001360835052EE2D1BDE8F08785F804A05D
:104CC0003AF0ACFC85F805A0F1E71B0604D42046B9
:104CD000FDF7A6FBFB78E0E73AF0A0FCF7E700BFA2
:104CE00094510120364BF0EE607AB3F8BA3107EEFA
:104CF000103ABAEEEF7A2DE9F041B4EEC70A2DED85
:104D0000048BF1EE10FADFED2F8AB0EE408AF0EE60
:104D1000419A06DDF4EEC70AF1EE10FA32D5B0EE94
:104D2000478AB5EEC08AF1EE10FA30DDF5EEC07AB2
:104D3000F1EE10FA2BDD27EE887A67EEE77AE8EEDF
:104D4000087A87EE279A00F10C0400F19C051E4EAC
:104D50001E4FDFF88080B5EE408A44F80C6C44F8B2
:104D6000047CF1EE10FA04DDB5EEC09AF1EE10FA13
:104D700010DC44F8088C3034AC42ECD1BDEC048B30
:104D8000BDE8F081B0EE688AB0EE689ADBE79FED8F
:104D90000D9AD8E70E4BB0EE491AF0EE690A0421DD
:104DA000B0EE480A204644F8083CC4ED038AC4ED3E
:104DB000028AC4ED018AC4ED008AECF531FFDAE71E
:104DC000BC0200200000000065B4250061B425008D
:104DD00005100000511000002DE9F843204D00237C
:104DE000204E4FF0050895F8E77705F2E47506F6D2
:104DF000145486F8107D15F8010B03F1010908BB66
:104E000020604B460434032BF5D1F943D6F8140D3A
:104E100001F001013AF008FC96F8101DD6F8180DC3
:104E200081F00201C1F340013AF0FEFB96F8101D3B
:104E3000D6F81C0D81F00401BDE8F843C1F38001F0
:104E40003AF0F2BB3AF0BEFA20605FFA89F310B193
:104E500080F80680C3712068FDF7E2FAD1E700BF51
:104E6000D8490120E82701202DE9F0412A4C82B0E1
:104E70002A4DB4F8EC67A5F8206DEEB994F8E80770
:104E80003AF0A0FA94F8E927C5F8240D003A18BFC3
:104E9000012285F8222D48B194F8EA172B22002927
:104EA000C28014BF112101213AF072FA002002B031
:104EB000BDE8F0413AF032BC94F8E88700222B219B
:104EC000404636F0CBF9074640463AF07BFA00B14F
:104ED00017B902B0BDE8F0812B22C5F83C0D4FF0A8
:104EE0000008C280797AFCF7DBFE0D4ACDF8048019
:104EF0003946A4F8EE6705F62850B2FBF6F3C3F383
:104F00004F049BB200942EF077F9D5F8283DC3F8F2
:104F1000008085F8398DDCE7D8490120E827012099
:104F200040420F002DE9F84F254B002693F8FC274F
:104F300003F2F37703F5016483F8F0275FFA86FB49
:104F40004FF0010917F8010F01360BEB090A49462A
:104F50004FF000085FFA8AFA524636F07FF90546AC
:104F600040B3387804F80E8C04F80D8C04F80FBCAC
:104F700004F8109C44F8045C3AF024FA18B180F864
:104F8000069080F807A0697AFCF78AFE0D4A002196
:104F9000284652F057F90C4B221D21462360284623
:104FA0000A4BC4E9013852F019F842466979286879
:104FB0002EF0D6F8082E04F11C04BFD1BDE8F88FFE
:104FC000D849012040420F00A131240099DA230082
:104FD00070B52C4C00222C4B022194F82809C4F8FF
:104FE0002039C4F8E028C4F8E428C4F8E828C4F854
:104FF0001C29A4F8242936F031F9002835D0234B98
:105000000546016803F160005A7C12B15A6891426A
:105010002CD018338342F7D1002394F82809C4F820
:105020000C5884F800383AF0CDF908B10223C38057
:10503000697A0026FCF734FE2846154A002152F012
:1050400001F9144A1448154B111FC4F810082846DA
:10505000C4F81438C4F8186851F0C0FF32466979B2
:105060002868BDE870402EF07BB870BD8A6A0C4895
:1050700001320C49D0F86434B3FBF2F381F8E83321
:10508000CAE700BFD849012000FFFF00EC02002062
:1050900040420F00EC510120C1DA23005DDC230007
:1050A000E8270120000001202DE9F04FBC4E83B01D
:1050B000044696F8CAC0BCF1030FACF1050328D82A
:1050C000B84D0122032B85F8782C2ED900232046D9
:1050D00085F8B838FBF798FEC5F89000D5F8903001
:1050E000002B00F092800022012183F8244083F8F5
:1050F000251083F826209A6244B12C33AA4A1C4416
:1051000012F8011B03F8011BA342F9D103B0BDE85B
:10511000F08FDAB2032AD3D9A24D0022032B85F8EF
:10512000782C6ED985F8B828D8E796F8D33085F86A
:10513000B828012B7CD0BCF1080F01D0022B77D00E
:10514000DFF894E2994F96F8D280BEE80F000FC7BF
:10515000BEE80F00DEF80090B8F1000E0FC718BFD0
:105160004FF0010E924BBCF1070FC7F8009085F885
:10517000A8E0C5F8983854D8BCF1040F00F2FE80BE
:10518000DFF858920027DFF83CB201955FFA87FA02
:10519000BC424FF0030107F101070AF101082BDDC2
:1051A0001BF8013B5FFA88F818464246009336F038
:1051B00055F8009B05461846002D00F0C7803AF0D0
:1051C00001F9024651462846C9F8142022B14FF091
:1051D000030382F80780937196F8CA202B7A52F065
:1051E000D7FC002800F0B2804FF00103042F09F132
:1051F000180909F8073CC9D1019D6C4BC5F89030DE
:105200006CE7012385F8B83868E76A4E6A4C0FCE20
:105210000FC40FCE0FC4336844F82039C5F890404E
:1052200074E7BCF1080FABD1644BC5F8C038A7E7F1
:10523000DFF8ACE14FF00008614F96F8D260C1464C
:10524000DFF8A0A1B6EB0806C5F8BC488AF82A89A1
:1052500018BF01268AF85CC9BEE80F000FC7BEE878
:105260000F000FC7DEF80030384641464FF44C724D
:1052700040F8503B07F5607885F8A86058F05EFB71
:10528000504BA7F64807CDE900344446D5F8BC2872
:105290004A4555DD009B13F8016B3046009336F00C
:1052A00063F8834630463AF08DF89BF8088095F80D
:1052B000A810064608F0010B0BF1010B8AF829B97A
:1052C00009B188F00108002E49D0B17911F0BF0F63
:1052D00010D03D4901223D4BC5F870180021C5F89A
:1052E0006838019C3A4B8AF82A29C5F86C38C5F809
:1052F0009010F3E64FEA4B1B30463CF07FFF09F17C
:1053000001094BF001014FF00303E660606084F88F
:105310001080616186F80790B37130463AF038F832
:1053200018F0010F30460ED03AF072F9E268B9F188
:10533000040F04F1200407F1180747F8042CA5D145
:10534000019C1F49D3E73AF069F9EFE7019D00237B
:105350001D491F4AC5F8A018C5F89C284EE74FEA1A
:105360004B1B30463CF04AFF09F101094BF00101AB
:10537000E660606084F810806161CEE796F8D13015
:10538000144A012BC5F8C02806D0022B08BFB8F17B
:10539000000F0CBF0123002385F8C438F0E600BFDE
:1053A000E8270120BC020020B4280120440B002083
:1053B000DD532600C0DF260004530120292C2500E0
:1053C000140B0020BD280120DDA42400E5A4240046
:1053D000E1A424005D2C2500E4DF2600EC0200207F
:1053E00008E02600D8490120F8B56F4F97F89007DC
:1053F00039F0E8FF97F8915758B12D230446C38040
:10540000FDF714F80A2036F02FF920463CF0ECFEA8
:1054100018B9D7F86039DA0000D5F8BD013D092D7B
:10542000FBD897F88F47D4B9402031F059F90028BC
:10543000F3D090F9043097F86117092BC8BF143BDB
:105440000A293B4493F8644900F09F8093F870392F
:1054500097F88E27002A08BF1C46002CDDD0204676
:1054600039F0B0FF0546002800F088802D23C38066
:10547000FCF7D6FF012108463AF0DEF82B68AA882F
:105480009A613C2036F07AFB002101203AF0D4F8F2
:1054900097F89137BBB30026444C94F8101DD4F80C
:1054A000140DC94301F001013AF0BEF894F8101D43
:1054B000D4F81C0D81F00401C1F380013AF0B4F876
:1054C0007820BDB3AB8801362A681B04936136F09F
:1054D000CBF894F8101DD4F8140D01F001013AF046
:1054E000A3F894F8101DD4F81C0DC1F380013AF014
:1054F0009BF82B68AA8878209A6136F0B5F897F85F
:1055000091379E42C9DB97F88F377BBBD7F890372E
:1055100003F0FF13B3F5803F7FF47FAFD7F8603916
:1055200013F080537FF479AF87F89137BDE8F840E6
:105530004AF01CB97820013636F096F894F8101D20
:10554000D4F8140D01F001013AF06EF894F8101D32
:10555000D4F81C0DC1F380013AF066F8782036F0DB
:1055600083F897F891379E4297DBCCE7322036F0EC
:1055700005FB2846002139F00BFFC7E7FCF750FF79
:10558000012108463AF058F87BE7D7F888395B05DF
:105590007FF543AF0EF0C4FA00287FF43EAF002C35
:1055A0007FF45DAF39E700BFD8490120E82701202B
:1055B000344870B490F88C39A3F13001092958D8D7
:1055C00000F68C1400F69B10224612F8015FA5F13C
:1055D0003001092904D88242F7D1002070BC7047FD
:1055E000141B022C4BDD2848002101E010F8013B80
:1055F00001EB8101161A044603EB4103022EA3F1CD
:10560000300303F0FF01F1DC204B03FB01F1A24268
:105610004FF000030ED903EB830314F8016B5B001A
:10562000A242A3F13003334403F0FF03F3D118483F
:1056300000FB03F32E2D06D01648A0FB032370BCFD
:1056400001EB9300704701320425002404EB84042D
:105650001078013D303864000928A4B2204401D8F4
:10566000013284B215F0FF05F0D1642202FB04334D
:10567000E2E700211D4600F68C120B46DAE7002116
:10568000054CC4E7D8490120655301208096980055
:1056900040420F00ABAAAAAA6453012038B50D46B8
:1056A0000446FF2100682A4658F048F922682A4437
:1056B000226038BD2DE9F047041E0D4612DB092C8F
:1056C00026DC0B46814A82480021A0FB0460597009
:1056D000C00800EB8000A4EB4000125C28461A7062
:1056E000BDE8F08764422D23092C01F8013B24D842
:1056F000764A774B0020A3FB046348702846DB08FA
:1057000003EB8303A4EB4303D35C0B70BDE8F0878A
:105710006F4B632CA3FB04264FEAD60621DC0B4615
:105720006A4A6B49A1FB0601C90801EB8101A6EB9E
:105730004101515C03F8011BC5E7654A632CA2FBDC
:1057400004364FEAD60637D8604A614BA3FB0603FE
:10575000DB0803EB8303A6EB4303D35C01F8013BB7
:10576000C7E7A3FB0627B4F57A7F4FEAD7070DD228
:105770000B46564A5649A1FB0701C90801EB8101B6
:10578000A7EB4101515C03F8011BCAE7A3FB072803
:1057900042F20F7294424FEAD80836D80B464B4A71
:1057A0004B49A1FB0801C90801EB8101A8EB4101AC
:1057B000515C03F8011BDDE7A2FB0637B4F57A7FE5
:1057C0004FEAD7070CD2414A414BA3FB0703DB0842
:1057D00003EB8303A7EB4303D35C01F8013BB4E77E
:1057E000A2FB073942F20F739C424FEAD90921D834
:1057F000364A374BA3FB0903DB0803EB8303A9EB12
:105800004303D35C01F8013BDEE7A3FB0829314ADF
:1058100094424FEAD90921D80B462C4A2C49A1FBC6
:105820000901C90801EB8101A9EB4101515C03F8B1
:10583000011BB5E7A2FB093A264B9C424FEADA0A64
:1058400021D8224A224BA3FB0A03DB0803EB830384
:10585000AAEB4303D35C01F8013BCAE7A3FB09238E
:105860001D4A94424FEAD30A21D80B461849174AD9
:10587000A1FB0A01C90801EB8101AAEB4101515CBE
:1058800003F8011BCAE7A2FB0A38134B9C424FEAFC
:10589000D80813D80E4B0D4AA3FB0803DB0803EB13
:1058A0008303A8EB4303D35C01F8013BCAE70A2258
:1058B000BAFBF2F048F0E2FC0346D7E70A22B8FB55
:1058C000F2F048F0DBFC0146E4E700BFC8802700A7
:1058D000CDCCCCCC9F8601003F420F000C46164633
:1058E000054683B530F0C8FE204630F0C5FE0021E5
:1058F000204B0846002E08BF1E4639F09DFE0021B1
