:020000040800F2
:10000000F0FF012015600508A5D90008DDAA030846
:100010008D6005088D6005088D60050800000000F2
:10002000000000000000000000000000A1D900084E
:100030009DD900080000000099D90008B5DD03082B
:100040008D6005088D6005088D6005088D600508C8
:100050008D6005088D6005089DF1030865F10308B2
:100060002DF10308F5F00308BDF00308E14705088A
:10007000D1470508C1470508B14705089D47050850
:1000800089470508754705088D60050800000000D0
:1000900000000000000000000000000085F00308E0
:1000A0009DC80308EDC803088DC8030815C90308D7
:1000B000DDC80308CDC80308BDC80308F957050803
:1000C00001580508ED570508F55705088D60050826
:1000D0008D60050865DF0308ADDE03080000000041
:1000E0004DF003088D600508450A01080000000076
:1000F000000000000000000000000000614705084B
:10010000000000008D600508ADC803088D6005087B
:1001100000000000000000000000000000000000DF
:100120004D470508394705082547050811470508C3
:10013000FD4605080000000000000000000000006F
:100140000000000000000000000000002DD30008A7
:10015000E9460508D5460508C1460508F5DD03084A
:10016000E1570508E95705080000000000000000FD
:10017000000000000000000000000000000000007F
:10018000000000008D600508000000000000000075
:080190008D6005088D60050873
:08019800B45B0500010000004A
:1001A0000E02010002000000084F0020A8500020AD
:1001B0000000000060470608A45000201302010060
:1001C00004000000A0150020B05000200000000036
:1001D00062470608AC5000202320010010000000F8
:1001E000584D0020B850002000000000158901087B
:1001F000B45000200D1001004C0000008C4C002079
:10020000CC5000200000000047250308C850002003
:100210000902010001000000744900201C51002067
:100220000000000066470608185100202C00050059
:10023000140000005C490020245100200000000050
:10024000310B020820510020FD01010024000000B4
:10025000244900203C5100200000000037AF030873
:1002600038510020160215003F0000003C1F0020FE
:100270006451002000000000BD56040860510020B9
:100280000610010030000000AC1E0020A851002024
:100290000000000005AE0408A4510020FB0101008D
:1002A00001000000C4440020DC51002000000000D8
:1002B000F5560408D8510020FC0101000900000097
:1002C00090430020E451002000000000FD56040887
:1002D000E0510020F70101000600000088430020E3
:1002E000F45100200000000068470608F05100208B
:1002F000F9010100040000008443002000520020A6
:1003000000000000F1AF0308FC51002011020100C1
:1003100008000000BC3C0020085200200000000043
:100320006E4706080452002012120100040000006B
:10033000B43C00201452002000000000764706085C
:10034000105200201830010030000000843C0020D2
:100350001C520020000000005957040818520020C9
:10036000E803010004000000783B00205052002008
:100370000000000065AE04084C520020FF2101007F
:1003800005000000203B0020585200200000000023
:10039000E556040854520020081203000F00000024
:1003A0002C3B0020645200200000000081AE0408B5
:1003B00060520020FA010100030000008C3400208C
:1003C000785200200000000071AE04087452002032
:1003D000FE01010014000000082C002080520020C3
:1003E00000000000D9AE04087C520020012001006A
:1003F0000C000000E0890020CC8A002000000000F2
:100400007C470608C88A0020371001003000000031
:10041000388A0020DC8A0020000000008847060897
:10042000D88A00201E00010009000000F881002089
:10043000108B002000000000B84706080C8B00203D
:100440001B20010014000000707D0020208B002084
:1004500000000000191601081C8B00202102010079
:1004600068010000A87D0020388B002000000000FB
:10047000352F0108348B00202610010008000000F1
:10048000AC8C0020A48C002000000000210E01088C
:10049000A08C00200B3001001E0000000080002016
:1004A000F08C002000000000C2470608EC8C002001
:1004B0001F50010024000000F8800020148D00204F
:1004C00000000000E0470608108D00200502010032
:1004D0000A000000748000203C8D00200000000015
:1004E00004480608388D0020F62101000C000000A9
:1004F00030A4002078B0002000000000104806085A
:1005000074B000201C0202001C000000B4A30020F4
:10051000CCB000200000000045C40408C8B0002092
:10052000101001000200000064B00020ECB00020B8
:10053000000000001C480608E8B000202830010038
:1005400016000000D0A30020F4B00020000000003E
:10055000B9A90108F0B000202002010060000000ED
:1005600004B0002010B100200000000000000000D6
:100570000CB100200A9001002000000098A2002089
:1005800074B1002000000000E988010870B100206B
:100590001900010006000000FCAF002098B1002007
:1005A000000000001E48060894B100200C40060020
:1005B00008010000F4AE0020A4B1002000000000FB
:1005C000FD2A0208A0B10020000101000400000083
:1005D000F0AE0020B0B20020000000002448060861
:1005E000ACB200200201010003000000ECAE0020CC
:1005F000B8B200200000000055C80208B4B20020C4
:100600001310010004000000E8AE0020C0B200207A
:100610000000000028480608BCB200202F1001008E
:1006200022000000C4AE0020C8B20020000000007C
:100630002C480608C4B2002012300100110000004E
:1006400018A50020F0B20020000000004E48060867
:10065000ECB200200520010008000000F49D0020FD
:1006600008B30020000000006048060804B3002022
:10067000380001000700000070B5002014C70020FA
:10068000000000006848060810C70020EC031D00A9
:10069000AE0000009CB5002020C700200000000034
:1006A000F52402081CC70020EB0320000001000015
:1006B0001CB80020D4C7002000000000000000008B
:1006C000D0C700200E000600000300005CC300201D
:1006D000D8C800200000000039570408D4C8002002
:1006E000340001000800000054C30020DCCB0020CF
:1006F00000000000D1210208D8CB00202A00080009
:10070000800000001CB90020E8CB002000000000A1
:10071000A5210208E4CB0020EA0301000E0000003E
:1007200048B400206CCC002000000000704806088F
:1007300068CC0020E9030100180000003CC3002041
:1007400080CC0020000000007E4806087CCC002001
:100750002B00120024000000C0CC00209CCC002004
:1007600000000000050B020898CC0020292014008E
:1007700078000000ACB60020E8CC002000000000AB
:1007800000000000E4CC0020253020000002000022
:1007900084D60020D4DC002000000000000000000F
:1007A000D0DC0020290201004000000014D000200D
:1007B000D8DE00200000000098480608D4DE0020A3
:1007C0002C0201000400000044D600201CDF0020A1
:1007D00000000000D848060818DF0020F8310100AA
:1007E0000200000084DA002044DF00200000000046
:1007F000DC48060840DF0020020001000C00000079
:100800008CDA00204CDF0020000000000000000017
:1008100048DF00200612030012000000B4DC0020B4
:100820005CDF002000000000D1C4040858DF002075
:100830001D020200060000000CDC002074DF002016
:10084000000000000000000070DF002023220100F3
:100850001000000074D0002000F000200000000014
:10086000E0480608FCEF0020280204000400000015
:1008700010FA00209CFB00200000000035570408FF
:1008800098FB002027020400040000000CFA00205E
:10089000A4FB00200000000029570408A0FB002052
:1008A0001F02080010000000FCF90020ACFB002033
:1008B00000000000C1560408A8FB00201A02010035
:1008C00049000000ACF50020C0FB00200000000043
:1008D00015C50408BCFB00201B020100100000002D
:1008E00034FC002024FC0020000000001557040800
:1008F00020FC0020000201000B0000000CFC002086
:1009000048FC00200000000079AE040844FC0020F0
:10091000161001000400000018FC002058FC002004
:1009200000000000F048060854FC0020020201000C
:10093000030000005C330120583301200000000058
:08094000000000005433012007
:100948000403090412010002EF0201408304563235
:10095800000201020301000012010002020200402D
:10096800830440570002010203010000090220002D
:10097800010104C0320904000002080650050705F9
:1009880081024000000705010240000009026400DE
:10099800030100C03209040000010300000009211E
:1009A800110100012236000705830309000A080B1C
:1009B800010202020100090401000102020100050E
:1009C8002400100105240100020424020205240663
:1009D8000102070582030800FF09040200020A0059
:1009E80000000705010240000007058102400000E1
:1009F80009024300020100C032090400000102029A
:100A0800010005240010010524010001042402024C
:100A18000524060001070582030800FF09040100F8
:100A2800020A0000000705010240000007058102D4
:100A380040000000FF000000FFFFFFFF00600240D1
:100A480010600240000000000000000000000000EC
:100A5800000B000000000000000000000000000083
:100A68000060024028600240010000000000000011
:100A780000000000060C000000000000000000005C
:100A880000000000006002404060024002000000D8
:100A98000000000000000000100D00000000000031
:100AA80000000000000000000060024058600240A2
:100AB800030000000000000000000000160E000007
:100AC800000000000000000000000000006002407C
:100AD80070600240040000000000000000000000F8
:100AE800200F0000000000000000000000000000CF
:100AF800006002408860024005000000000000001D
:100B080000000000261000000000000000000000A7
:100B18000000000000600240A060024006000000E3
:100B2800000000000000000030110000000000007C
:100B3800000000000000000000600240B8600240B1
:100B4800070000000000000000000000362F000031
:100B580000000000000000000000000000640240E7
:100B680010640240000000000000000000000000C7
:100B78000038000000000000000000000000000035
:100B880000640240286402400100000000000000E8
:100B9800000000000639000000000000000000000E
:100BA80000000000006402404064024002000000AF
:100BB8000000000000000000103A000000000000E3
:100BC8000000000000000000006402405864024079
:100BD800030000000000000000000000163B0000B9
:100BE8000000000000000000000000000064024057
:100BF80070640240040000000000000000000000D3
:100C0800203C000000000000000000000000000080
:100C180000640240886402400500000000000000F3
:100C28000000000026440000000000000000000052
:100C38000000000000640240A064024006000000BA
:100C48000000000000000000304500000000000027
:100C5800000000000000000000640240B864024088
:100C680007000000000000000000000036460000F9
:100C78000000000000000000000000007D000000EF
:100C8800118500080D85000809850008FD84000805
:100C9800F984000805850008018500080DA30008EF
:100CA8002D8F0008DD8F00088DF1000809F200087B
:100CB800D1F2000819880008298600082186000852
:100CC800010000000000803FA9010108690901082E
:100CD800F1040108F18800083D8B0008018900082B
:100CE8001D890008C9880008B988000800000000AC
:100CF80000000000000000000000000001000000EB
:100D080000000000000000000A4F00200000000062
:100D180001000000000000000000000000000000CA
:100D280000000000000000000000000000000000BB
:100D380000000000000000000000000001000000AA
:100D48000000000005010905A101A1000501093005
:100D5800093109320933093509340936093715814A
:100D6800257F7508950881020509190129081500CC
:100D78002501950875018102C0C000000902220002
:100D8800010100E032090400000103010200092109
:100D9800110100012236000705830309000A00003B
:100DA8000F00000002000000010000000000010127
:100DB800FF00000000000000010203040102030418
:100DC80006070809FFFFFFFFE48C00200000000071
:100DD800B48C00200000000001000000949F002057
:100DE800E89F002001F11F3FD601FF01010100002B
:100DF80000010101000000000000803F0000000029
:100E080000000000000000000000803F000000001B
:100E180000000000000000000000000000000000CA
:100E280000000000000000000000000000000000BA
:100E3800496B0408000000000000000000000000EA
:100E48000000000030DF0020080000000000000063
:100E580020DF002008000000F5250308000000003E
:100E680000000000000000008D25030800000000BD
:100E7800000000000000000001000000010102FF66
:100E8800FF010200059700084D8A0008D1040108F7
:100E980000000000B588000875010108B99600082F
:100EA800E900010800000000000000007188000847
:100EB800218500081585000831F800084DF800085C
:100EC80015F80008F9F70008DDF70008BD960008D6
:100ED800298A000821040108000000008988000808
:100EE800ED0001088D96000845000108000000008B
:100EF800000000007D880008B0F60508B8F605086F
:100F080000000000D5C80208A08601000400000007
:100F1800B0F60508C0F60508000000008D5A030861
:100F2800E803000004000000C8F6050800000000FF
:100F3800000000005DCF02087D000000FF000000F7
:100F48009C0D0608000000000000000049C90208C6
:100F58007D000000FF000000580E06080000000099
:100F680000000000E15902087D000000FF000000B9
:100F7800D0F605080000000000000000DD5103085D
:100F8800E803000003000000D4F605080000000094
:100F980000000000119D0208D007000003000000B7
:100FA800D43306080000000001A801085D81030889
:100FB8005F760000050000006437060800000000A6
:100FC8000000000055AB03081027000002000000D5
:100FD800E0F6050800000000000000009DAD0308D1
:100FE800E803000005000000ECF60508000000001A
:100FF80000000000C5D70208102700000300000009
:10100800FCF60508000000000000000065D6020894
:1010180010270000030000000CF70508000000007E
:1010280000000000ED7D0308400D030003000000F0
:10103800B8E305080000000000000000997B0308E1
:1010480010270000020000001CF70508000000003F
:10105800000000008177010810270000030000004D
:1010680020F70508000000000000000019550308DB
:10107800A08601000200000028F705080000000013
:10108800000000001558030850C3000002000000CB
:10109800DCE3050800000000000000004526030806
:1010A800A00F00000200000030F705080000000053
:1010B80000000000912F0108102700000200000026
:1010C8003CF705080000000000000000CD170108EB
:1010D800102700000200000048F705080000000083
:1010E8000000000095E5020840420F0001000000E2
:1010F80054F7050800000000000000001D26030842
:1011080050C300000100000060F70508000000005F
:1011180000000000C95C0108102700000200000060
:10112800FFFF0000FFFFFFFFB033060800000802C2
:101138000503030000000000BC3306080100080294
:101148000504030000000000C83306080000080278
:101158000503030000000000D03306080100080260
:101168000504030000000000E0E205080200FE019B
:101178000110030000000000080A0608030014021A
:101188000003000000000000D833060804001F0216
:101198000200080000000000E033060805001F02F6
:1011A80002010800000000001A030000000000000F
:1011B8000000000000000000000000000000000027
:1011C80000000000040309041201000200000040AE
:1011D80083042057000201020301010101000000FD
:1011E80003000000000000000500000002000000ED
:1011F800000000009C0B00200005012002000000F8
:1012080001000000F9B00408980B0020000000005D
:10121800010000000100000039B10408440A002060
:1012280000000000000000000000000000000000B6
:1012380000000000000000000000000001000000A5
:101248000000000000000000000000000000000096
:101258000100000000000000000000000000000085
:10126800000000000100000000000000D80000009D
:10127800000000000500000006000000FFFFFFFF5F
:101288000500000061CC040849CC040839CC0408E6
:1012980001AF0408E9CB040891CB0408F1AE0408B7
:1012A800A00B0020A1C5040809AF040805AF040875
:1012B800FDAE0408A9C60408F9AE0408F5AE040892
:1012C800A4D60508DD950008098A0008410201082E
:1012D80000000000000000001D00010829FF0008B0
:1012E8000000000000000000000000006588000801
:1012F800A1AF040895AF0408C5CC0408E1CC0408E4
:101308004DAF0408A9CC04088DCC04081F000000C8
:101318001C0000001F0000001E0000001F0000004D
:101328001E0000001F0000001F0000001E0000003B
:101338001F0000001E0000001F0000000068214C74
:101348000600000005000000008002021F000000E7
:1013580053544D202020202050726F647574202033
:101368002020202020202020302E3031FF000000B7
:10137800000004010000020001000002100000004B
:101388000700000000000000000000000102030444
:1013980006070809C70000000500000006FF000056
:1013A800FC0B002000000000204706084047060804
:1013B80000470608000000000000000000000000D0
:1013C8000000000000000000000000000000000015
:1013D8000000000000000000000000000000000005
:1013E80000000000000000000000000000000000F5
:1013F80000000000000000000000000000000000E5
:0414080000000000E0
:08280000082800080040000850
:04400000FFFFFFFFC0
:10800000024B9A6D136A002BFCD17047600C002064
:108010001248002302461178032902F1060218D003
:108020000133062BF7D10E4AD2F81831052B0FD0A9
:10803000591C03EB4303C2F8181100EB4303032060
:1080400040F2EB3140F2FF32187059809A8070474D
:10805000704703EB430300EB4303F0E7540D0020AC
:10806000600C00209FED737A9FED736A60EE877A53
:10807000F4EEC07AF1EE10FA98BFB0EE670A60EE47
:10808000067AC7EEA06AFDEEE67A17EE903A203344
:10809000402B00F2C080DFED697AF4EEE76AF1EE82
:1080A00010FAF0EE667A0ADDDFED655AB0EE677A17
:1080B000B4EEE57AF1EE10FA77EEC67AF6DC9FEDD3
:1080C000617AF4EEC77AF1EE10FA0CD5DFED5A5A68
:1080D0009FED5D6AB0EE677AB4EEC67AF1EE10FA03
:1080E00077EEA57AF6D49FED597AF4EEC77AF1EEE1
:1080F00010FA00F388809FED567AF4EEC77AF1EE1D
:1081000010FA44BF9FED4F7A77EE677A67EEA75A71
:108110009FED505A9FED507A9FED506AA5EE857AFB
:1081200027EEA55AA5EE876AB6EE007AE5EE067A46
:1081300027EE877A9FED456A76EE867AFDEEE75A5E
:1081400015EE903A2033402B62D8F4EEC66AF1EE79
:1081500010FA0CDDDFED385A9FED396AF0EE676AF0
:10816000F4EEC66AF1EE10FA77EEE57AF6DCDFEDB2
:10817000356AF4EEE67AF1EE10FA0CD5DFED2E5A00
:108180009FED316AF0EE676AF4EEC66AF1EE10FA1E
:1081900077EEA57AF6D4DFED2D6AF4EEE67AF1EE0D
:1081A00010FA3BDDDFED256A76EEE77A67EEA75A37
:1081B0009FED285A9FED286ADFED286AA5EE856AB3
:1081C00027EEA55AE5EE866AB8EE006AE5EE267A55
:1081D00067EE867AC7EE016AB7EE006A76EE865AD7
:1081E00076EE666A86EE257A67EE277A66EE876A0D
:1081F000C0ED057AC0ED077A80ED047A80ED067A4D
:10820000C0ED086A70479FED0D7A77EE677A7DE7DB
:10821000DFED137ADEE79FED127A8BE7DFED0C6A74
:10822000F4EEE67AF1EE10FA44BFDFED066A76EE80
:10823000E77ABBE73333F33EDB0FC940DB0F49403E
:10824000E4CB1641DB0F49C0E4CB16C1DB0FC93FBD
:10825000DB0FC9BF92E741B99730083C15A82ABE89
:10826000000000000A44914217D010B40139541E96
:1082700011F8013F08225840430010F0800F08BF5A
:10828000400083F0D50314BFD8B2C0B2013AF3D195
:10829000A142EDD15DF8044B7047704730B51349EA
:1082A000134B8DB00825012201F15800069381F887
:1082B000F05000230DEB05010DF10704CDE9073364
:1082C000CDE9034202938DF8143009930B938DF896
:1082D000282037F083F9FFF793FE9DF80700A0F1FF
:1082E000FF00B0FA80F040090DB030BD600C0020F6
:1082F000F5820008826D136A5B681B78FF2B08D03B
:1083000090F8F030013BDBB280F8F0301BB1012077
:10831000704700207047126A52680220137070473D
:1083200070B4C3080D4CE25C00F00706B24004EBE9
:10833000D004D2B20020C6F108038B4228BF0B46FE
:10834000C3F108052A419840C91A40EA02004FF0DB
:10835000000614F8012FEED170BC7047A00C00206D
:10836000084AD2E9473199420AD0D118013391F82D
:1083700024110170C3F30A03C2F81C3101207047B5
:1083800000207047600C0020044BD3E94730C01A2E
:10839000C0F30A00C0F50060704700BF600C002009
:1083A000012380F85130704707B501A8FFF7D8FFC7
:1083B0000028FAD09DF8040003B05DF804FB034BDD
:1083C000D3E94730C01AC0F30A007047600C0020A0
:1083D00001207047024BC3F82429C3F828197047BD
:1083E000600C0020024BC3F82C29C3F830197047E9
:1083F000600C00207047704730B4114DD5E9472319
:108400009A1AC2F30A020A44B2F5006F13D8A9B14E
:1084100001444A1E013810F8014FE918824203F165
:10842000010381F82441C3F30A03F4D1C5F82031D4
:10843000002030BC7047022030BC70470846F8E787
:10844000600C0020212838B50C4605D022282ED0FB
:10845000202813D0002038BD0029FBD0072AF9D1ED
:108460001A4BD3F8340993F8381993F8392993F84B
:108470003A39206021716271A371EBE70029E9D0DC
:10848000072AE7D1114DD5F828391BB10968D5F86D
:1084900024099847206821796279A379C5F83409BD
:1084A00085F8381985F8392985F83A39D2E700294D
:1084B000D0D0022ACED1054AD2F83039002BC9D00B
:1084C0000988D2F82C099847C4E700BF600C002047
:1084D000024B0020C3F83C09704700BF600C00202D
:1084E000044B00200522C3F83C29C3F83009C3F827
:1084F00028097047600C0020704700BF704700BF1C
:10850000704700BF704700BF704700BF704700BF93
:10851000704700BF042301480B807047980100207A
:1085200010B4074A074B92F84009122403F11402D1
:108530000C8001280CBF184610465DF8044B7047AC
:10854000600C00209C010020A0B182680D4B12B18C
:1085500007229A7070471978DA6003294FF00400F7
:108560000CBF80214FF48071C3E901111A611A75A3
:1085700098707047034B41F2E47101225A545A70CB
:10858000704700BF946200200378022B10D000696E
:1085900008B9012070470C4B1B78032B0EBF0B4B07
:1085A00080B24FF6F773984294BF002001207047C5
:1085B0000549436841F650028A58B3EB422F2CBF5D
:1085C00001200020704700BF94620020F7FFFF0FDA
:1085D0000378022B14D030B4104A4368006941F686
:1085E000480402F5C2511559096841F63C042B4074
:1085F00012595B0A023801FB0030104430BC70474E
:10860000064B426841F6340141F63000595818587B
:1086100000EB410000EB5220704700BF9462002045
:1086200000487047880C0020034B93F8240003286F
:1086300094BF002001207047600C002070B592B0FC
:108640000B0E0D0C40F04006952204468DF80810E4
:10865000080A01A98DF805308DF80650002306257B
:108660008DF807008DF809200DF103000122039118
:1086700014498DF80460CDE90733CDE90D33CDE918
:10868000090204938DF818308DF82C300F93119354
:1086900005958DF840200C91FFF700FE00B974B9E4
:1086A000094B082203F1580003A983F8F02036F0A3
:1086B00095FFFFF7A5FC9DF8030012B070BDFF20E9
:1086C00012B070BDCD860008600C0020836D1B6A5F
:1086D0005B681B78FF2B0AD190F8F030002B03F178
:1086E000FF3380F8F03014BF0120022070470020D3
:1086F000704700BF30B51049104B8DB005460122C0
:1087000001F15800069381F8F050002302A90DF101
:108710000704CDE90733CDE9034202938DF8143005
:1087200009930B938DF8282036F058FFFFF768FC6B
:108730009DF807000DB030BD600C0020CD8600080C
:1087400070B51B4D90B00024FD2201260DF10303EE
:1087500005F1580001A98DF803200693CDE90144E5
:10876000CDE90A44CDE90C442C628DF81040059403
:1087700007948DF824400F94039608968DF838607E
:1087800036F02CFFFFF73CFC3046FFF7B3FFFF2825
:1087900008D0D5F844396B612046092385F8243088
:1087A00010B070BD0423022085F8243010B070BDD5
:1087B000600C002070B5064690B008200D46FFF70B
:1087C00099FFFF2822D0FE2802D0022010B070BDF1
:1087D0000024022201230F48089201A98DF83830A5
:1087E000CDE90544CDE90A44CDE90C440296039550
:1087F00001948DF8104007948DF824400F9436F0C2
:10880000EDFEFFF7FDFB204610B070BD012010B05B
:1088100070BD00BFB80C0020034B93F82400003853
:1088200018BF0120704700BF600C002010B40C4A34
:1088300092F8483902EBC3010133DBB2042B4FF04D
:10884000050408BF00234FF4045081F84C4982F816
:108850004839C1F850095DF8044B4FF0FF307047BC
:10886000600C0020202301480B807047C4010020C9
:10887000642301480B807047E40100204323014832
:108880000B8070474802002010B5084CD4F8F40063
:10889000FF2809D00649D1F86C2901F51761FFF7C7
:1088A000D1FDFF23C4F8F430002010BD9801002052
:1088B000600C0020E8E700BF08B5D0F8E4355B6A3B
:1088C0009847002008BD00BF08B5D0F8E4351B6A02
:1088D0009847002008BD00BFD0F8E43510B5044625
:1088E0001B689847D4F8E8359B689847002010BD6E
:1088F00008B5D0F8E435DB6903B19847002008BD1E
:1089000008B5042290F81211D0F8E83580F8131158
:1089100080F81221DB689847002008BD10B5D0F818
:10892000E83504461B699847032384F81231002078
:1089300010BD00BF0B0617D401EB810300EBC3038E
:1089400010B400EB81000124002283F8764383F801
:10895000741383F87523426D5DF8044B136843F478
:10896000001300201360704701F07F0101EB8103C9
:1089700000EBC303012200EB810083F81C1183F894
:108980001E2183F81D2182691368002B01DA43F050
:10899000804343F400131360002070470B0630B48B
:1089A0001CD401EB810200EBC202002300EB810525
:1089B00082F8741382F8753301241A4604FA01F11F
:1089C0006D6D61F31F4201696FF3CF332B60CB698B
:1089D00023EA0203002030BCCB61704701F07F0125
:1089E00001EB810400EBC404012200EB81050023AC
:1089F00084F81C1184F81D2102FA01F11A46AD69B0
:108A000061F30F02DFE700BF10B581210446FFF7D5
:108A1000C5FF20460121FFF7C1FF024B002083F86C
:108A2000780910BD600C002010B581210446FFF7C5
:108A3000B5FF20460121FFF7B1FF82212046FFF755
:108A4000ADFFFFF745FD002010BD00BF38B50D4656
:108A500004468321FFF7A2FF29462046FFF7E4FFE3
:108A6000002038BDF0B416460A063AD401EB810561
:108A700000EBC5052824002204FB0104022B85F825
:108A80007413C5F87C6385F8773385F8752304F58E
:108A90005D7448D0154600EB8107012202FA01F10E
:108AA0007F6D61F31F45D7F800C01CF4004F11D152
:108AB000E488204946F0805242F4004242EA834270
:108AC00004F00F041C4B42EA845211400CEA0303E9
:108AD000194339600269D3692B430020F0BCD3618C
:108AE000704701F07F0101EB810500EBC5052824EB
:108AF000012204FB0104022B85F81C11C5F8246136
:108B000085F81F31A5F8221185F81D2104F58E7412
:108B10000CD0002500EB8107012202FA01F1BF69A8
:108B200061F30F05BFE722711546B4E700252571F3
:108B3000F0E700BFFF87CC13007833EC002310B5BB
:108B4000194604464022FFF78DFF8021204600236E
:108B50004022FFF787FFD4F8E835A078012284F897
:108B600012215B689847002010BD00BF82B000232F
:108B7000016801930B6901930E4B03E00A690192AE
:108B8000013B13D0019A002AF8DA019A094B42F00E
:108B900001020192019A0A610A69019203E00A69DD
:108BA0000192013B02D0019AD207F8D4002002B012
:108BB000704700BF400D0300436D064A1A61C2783A
:108BC000012A06D100F2CC5058614FF0802219687A
:108BD0001A6070471800086010B580210446FFF73E
:108BE000A9FE20460021FFF7A5FE2046BDE8104063
:108BF000E2E700BF70B44B78012B26D00B784A69AE
:108C000000EB83035D6D2C682B69D2B18A684A61E1
:108C100002F07F0223F4002323F07F0342F40022BA
:108C200013432B61C378012B04BF0B696B61C4F341
:108C3000076363F07B0363F31F642C60002070BC48
:108C400070478A6802F07F02E4E782694D69146820
:108C5000136945B38E68B5428CBF06F07F0505F0F9
:108C60007F0523F4002323F07F0345F4002543EA26
:108C7000050388BF4E611361C378012B1DD0C4F377
:108C8000076565F07B0565F31F641460002BD5D183
:108C90004B69002BD2D002690878516B01238340C5
:108CA0000B435363CAE723F4002323F07F0343F409
:108CB00000231361C378012BE1D10B780D6900EB20
:108CC0008300C4F30763816963F07B0363F31F646C
:108CD0004D610020146070BC704700BF70B5144C2B
:108CE00094F87939002BFBD1F9B101444E1E451E91
:108CF00002E0012034F0BEFFD4F87C39D4F880299A
:108D00000133C3F30A039342F3D0D4F87C29D4F897
:108D10007C3915F8011F22440133C3F30A03B5421D
:108D200082F88419C4F87C39E6D1002070BD00BFF8
:108D3000600C002010B590F85010002380F85030DF
:108D400081B10B4CD4F83C2972B1D4F83C29052AE6
:108D50000CD13C30D4F84439FFF7C0FFD4F8443983
:108D6000012010BD0120FCE71046FAE71846F8E79D
:108D7000600C0020002280F85120DBE790F85020A2
:108D8000531C0244DBB280F8503082F83C1090F85B
:108D900051200AB1132B00D9CCE7704710B5094C0C
:108DA000D4F83C39084611465BB1D4F83C39052B60
:108DB00007D1002AD4F8443903DDFFF78FFFD4F838
:108DC000443910BD600C002008B5FFF719F90A20DE
:108DD00034F014FE024B186EBDE8084036F0BCB803
:108DE000600C00202DE9F84F4A4B98420ED003F555
:108DF0006853083398424FD0474B0020C3E93E00E8
:108E0000A3F8F400A3F80001BDE8F88F424C434FEB
:108E1000DFF814810223C4F88C3004F19006002599
:108E2000D7F8F830AB42294605F1010503D0D4F854
:108E3000100147F0F5FB94F81431D4F8102186F8AE
:108E4000243032623046414647F0FEFDD4F88C3083
:108E50009D4206F13006E3DB002384F80231D4E9B9
:108E60002603D4F88C10B4F89420B4F8A050C4F8B9
:108E7000203112FB01F203FB01F3A4F8F420B4F853
:108E80009610274AA4F80051C4E93E03A4F8F6104E
:108E9000C4F8F0200120B7E71F4C204F0223C4F88C
:108EA0008C3004F190054FF0000B4FF4806A4FF0C6
:108EB00040094FF40068D7F8F82001265A45594672
:108EC000B34403D0D4F8100147F0AAFBD4F8101132
:108ED00094F81421296285F824204FF400314FF0D2
:108EE0000062C5E90212A5F804A0A5F81090A5F843
:108EF0000680AE74FFF78CF828466E7647F0F0FCDB
:108F0000D4F88C20074B45F8303B9345D3DB84F8ED
:108F10000261A4E71971EF00581D0020980100209C
:108F2000848B0508588B05081940EF00F0B50379CC
:108F3000264C002B14BF012200228BB084F8502055
:108F400003D184F824300BB0F0BD054690F9001031
:108F500004F1580036F0B8FCAD785DBB01271C4821
:108F60002566C4F8EC4084F8647036F0EDFC194EC8
:108F700003464FF47A70A4F85C3034F07BFE206E28
:108F800035F0EAFF0FCE6D460FC50FCE0FC596E840
:108F9000030085E803001048694636F01FFBFFF721
:108FA0002FF8D4F8442984F82470002362612376D2
:108FB0000BB0F0BD284635F0F5FC054608B11E2380
:108FC000C3800921284634F031FAC7E7600C00203D
:108FD000801A0600B08B0508B80C00202DE9F84374
:108FE000194C94F82460042E0546894690461F4685
:108FF00008D0082E02D00020BDE8F883FFF7A0FBC0
:109000000228F8D1206E35F0A1FFA37E93B9690242
:109010001120FFF713FB98B9D4F84439C4F8009035
:109020000522C4E90387656084F824206361012078
:10903000BDE8F88329461120FFF700FB0028EBD09C
:10904000FFF7C2FED7E700BF600C00202DE9F04F0C
:10905000BA4DBB4F06460FCD07F592742DED048B2C
:109060000FC40FCD0FC497F856312A6822608BB019
:10907000022B97F85C21029600F03682032B00F059
:109080002C82002B00F03582DFEDAE7AF0EE678A9D
:10909000002AAD49AD4AC7F83421AD48AD4BC7F8F9
:1090A0003C010EBF002201220B46039237EEA87A44
:1090B000F5EE006AC6EE879AA74DC7F83831A5F1DC
:1090C000230B05F160084FF0000A9FEDA48A9FED85
:1090D000A49A27EE888A029B534540F391811BF89E
:1090E000014B002C00F0AD81002302E0152B00F0B5
:1090F000A88103EB43024FEA430918F80210A1428A
:1091000003F10103F2D13A4492F8E511002900F08D
:10911000FE81204633F058FE0646304633F072FF9B
:109120000178002940F08D81B9440AF101030093D0
:109130000322DBB289F8253289F82422002E00F0C0
:1091400080814FEA141909F1FF39B9F1040F04F0D5
:109150000F0C00F2A981834C04EB4901B1F8A40083
:1091600040FA0CF111F0010100F09E81012101FA99
:109170000CFC0CF1FF3C0CEA0000A14401934CF004
:10918000D1FD99F8B0C0DFF8E4E1019B60440EEB3B
:10919000C00C03228CF807308CF806205EF83000F3
:1091A000C5F814C000F13F4303F57E0304EB93249C
:1091B000012194F8B830727A03F01F045B09032B85
:1091C00001FA04F100F08281042B00F07A81022B75
:1091D00000F07281BCF80440B4FA84F3C3F11F03B9
:1091E000C3F3CC0100EB810103F00703D1F820C0E9
:1091F0009B004FF00F0E0EFA03FE2CEA0E0CC1F886
:1092000020C0D1F820C002FA03F343EA0C0305AAF8
:109210000B62114602230192CDE905430AF0DCFE00
:10922000019A039B002B00F02781B7F85431D7F83F
:10923000D0C4346807EE903AF8EEE77AFCEEE77AAD
:1092400017EE900ABCFBF0F303F57F43FF331B0CD2
:10925000BCFBF3F3B3FBF0F001381FFA80FE07EE1E
:10926000903ABCFBF3F3B8EE677A2188DFF800C1CF
:1092700067EE087A013BC5ED027A69EE677A6445CC
:10928000E7EE287A9BB289B2C5ED037A11D0364851
:1092900084420ED0B4F1804F0BD0ACF57C4C6445C9
:1092A00007D00CF5806C644503D00CF5806C6445E8
:1092B00002D121F0700189B2DFF8B8C0644500F036
:1092C000CA800CF5806C644500F0C58021F44071C3
:1092D0000CF56C4C89B264452180C4F82CE02385E0
:1092E00040F0E580002323860120A082337A96F89F
:1092F00005900021CDE907114FF0600CADF8181072
:1093000009919907CDF814C040F1AA80DB0003F061
:1093100008030421ADF82230ADF818104946204664
:1093200033F048F9B9F10C0F2ED8DFE809F0812DA0
:109330002D2D782D2D2D6F2D2D2D2500D88B050849
:10934000581D00206F120339D9AF0308DDAF0308A1
:10935000C1CE020899C30208DC1E00206F12833AB6
:1093600000007A44588B050800040140A81F002023
:109370000000014000100040A38B23F400631B0495
:109380001B0C43F40063A3833368B3F844206FEAF3
:1093900042426FEA524292B2A3F844201A88194618
:1093A00092B242F0010221F8342B70796B600C18F4
:1093B00000222C600A50BAF1000F00F08C80D7F820
:1093C00088118B4200F08E80BAF1010F00F083808B
:1093D000D7F8A0118B4200F08580BAF1030F7AD143
:1093E000D7F8B821D31A18BF0123DDF800A02B74D9
:1093F0000122BAF1040F6A7405F118057FF46BAE0F
:1094000044480BB0BDEC048BBDE8F08FA38B23F078
:1094100008031B041B0C43F00803A383B4E7238B4E
:1094200023F400631B041B0C43F400632383ABE7AA
:10943000238B23F008031B041B0C43F00803238336
:10944000A2E7354A354B0020C7E94E320BB0BDECE0
:10945000048BBDE8F08F2180C4F82CE0238543E71E
:109460005B0003F002034FF48071ADF82030ADF8DB
:109470001600ADF8241051E7B0EE690A01924CF0E5
:109480000DFEFCEEC07AD7F8D0C43468019A17EE0E
:10949000903ABCFBF3F303F57F43FF331B0C4FF60D
:1094A000FE7EBCFBF3F3DAE6696105AAB9E61C4B64
:1094B0009C423FF417AF17E71A4B5C6C2143596489
:1094C00088E6184B1C6B2143196383E6154B1C6C13
:1094D000214319647EE6012387E7DFED137ADFED90
:1094E000138AD5E5134680E7DFED117AF0EE678A3F
:1094F000CEE5104BDFED107A104AC7F83431012366
:109500000393C7F83C21054BF0EE678ACEE50E4683
:1095100003E600BF7C1E0020B9C70208D9AF0308CC
:109520000004014000380240ACC5A737ACC5A736DF
:1095300028293038DDAF03086F12833AC1CE020804
:10954000F8B5104ED6F8D044054600680F466408BA
:109550000AF04AFCB4FBF7F1B1F5803F03D3012CCC
:10956000FAD96408F6E72246284689B233F0CCFAE5
:10957000054BC6F8383D28460449BDE8F8400022AE
:1095800033F0D0B9581D002059870108902A0020D7
:1095900038B501EB810400EBC4040D46002184F8CA
:1095A0007453C4F88C1384F87513C4F88833C4F862
:1095B0008023C3782821012B01FB050108BFEDB2F0
:1095C00001F55D7108BFC4F884231DB9FFF712FBD4
:1095D000002038BD0AF00EF9002038BD70B50446F1
:1095E000144EFFF711FA2046022340228121FFF793
:1095F00039FA0121204602234022FFF733FAD6F838
:10960000443D0D4A1B680025284682F8785986F8A3
:10961000405D984720460AF0A5F9204601210AF04E
:10962000BBF9204606F648521F230121FFF7B0FF81
:10963000284670BD581D0020600C002070B5114BED
:10964000D3F8502D93F8405D04461AB193F8543D79
:109650002B430DD081212046FFF76CF9022D00D05D
:1096600070BD2046084ABDE870401F2301218FE7E6
:109670000121FFF75FF920468121BDE87040FFF727
:1096800059B900BF581D0020A02A002010B501EBD9
:109690008101084A00EBC1010446B1F88C13104661
:1096A000FEF7AAFE034A204640230121FFF770FF80
:1096B000002010BDC02A0020E8E700BF10B502233B
:1096C000044640228121FFF7CDF9204602234022A3
:1096D0000121FFF7C7F98221204603230822FFF763
:1096E000C1F9064B02229A83FEF7FAFE044A20468D
:1096F00040230121FFF74CFF002010BD98010020FE
:10970000C02A002038B509220D46044603238321D0
:10971000FFF7A8F929462046FFF7D0FF002038BD03
:1097200070B5214DD5F8A83D93F82620DAB11B6914
:109730009847E0B1D5F8A83D93F824208AB105F602
:10974000AC5600241A19E0B29B6992F82C10B6ECC2
:10975000010A9847D5F8A83D93F824200134944293
:10976000F0DB5B69984795F8BC3D332B00D070BDAA
:1097700095F8BD3D002BFAD0D5F8A83D93F82430DC
:10978000042B1E46A8BF0426002BF0D00024074D52
:109790002346184648F0BEF90134E3B29E4245F82C
:1097A000040BF6D870BD00BF581D0020182B0020F8
:1097B0002DE9F84FCA4C94F8E01D0546C1F340016D
:1097C000D4F8E80D35F0CEFB94F8E01DD4F8E40DA4
:1097D000C94301F0010135F0C5FB002D00F0ED801B
:1097E00005F1FF38BF4EC04D5FFA88F80127D4F865
:1097F000E83D33B11A689B8851690B4214BF53830B
:109800001383D4F8E43D33B11A689B8851690B4245
:1098100014BF53831383B4F8F03D002B40F06881EC
:1098200094F8F21DD4F8F40D35F09CFBDFF8BCC2BF
:10983000FA204FF0100E4FF47A71DCF80430C3F3C5
:109840000803002B40F01E81EFF31183002B40F042
:109850001981D6F84429AB68D6F844994A45F8D11D
:10986000D4F81C9E4B45F4D8D4F818AE994601FBA9
:109870000AF3A3EB0903B3FBFAF301FB0232DCF8B2
:109880000430C3F30803002B40F0BA80EFF31183D8
:10989000002B40F0B580D6F84439D5F808B0D6F89A
:1098A00044994B45F7D1D4F81C9ECB45F3D8D4F856
:1098B00018AE01FB0AF9A9EB0B09B9FBFAF901FB98
:1098C00003939B1AB3F57A7FD9D30138B5D1D4F875
:1098D000E83D33B11A689B8851690B4214BF53832A
:1098E0001383D4F8E43D33B11A689B8851690B4265
:1098F00014BF53831383B4F8F03D002B40F0E38092
:1099000094F8F21DD4F8F40D81F0010135F02AFB32
:10991000DFF8D8C1FA204FF0100E4FF47A71DCF85E
:109920000430C3F30803002B40F08B80EFF3118366
:10993000002B40F08680D6F84429AB68D6F84499CD
:109940004A45F8D1D4F81C9E4B45F4D8D4F818AE4B
:10995000994601FB0AF3A3EB0903B3FBFAF301FBFE
:109960000232DCF80430C3F3080343BBEFF3118386
:109970002BBBD6F84439D5F808B0D6F844994B45F6
:10998000F7D1D4F81C9ECB45F3D8D4F818AE01FB20
:109990000AF9A9EB0B09B9FBFAF901FB03939B1A2E
:1099A000B3F57A7FDDD30138B9D108F1FF385FFA1A
:1099B00088F8B8F1FF0F7FF41AAFBDE8F88FEFF326
:1099C000118A8EF31288D5F808B02B68DB0344BFE8
:1099D000C4F8147ED5F808B0D6F84439D4F8149EEB
:1099E0005FFA8AFA8AF31188D4F818AE4B4401FB67
:1099F0000AF9A9EB0B09B9FBFAF901FB0393CEE7CE
:109A0000EFF3118A8EF31288D5F808B02B68DB03C8
:109A100044BFC4F8147ED5F808B0D6F84439D4F859
:109A2000149E5FFA8AFA8AF31188D4F818AE4B4470
:109A300001FB0AF9A9EB0B09B9FBFAF901FB039346
:109A40003FE7EFF311898EF31288D5F808A02B6851
:109A5000DA0344BFC4F8147ED5F808A0D6F8443918
:109A6000D4F8142E5FFA89F989F31188D4F8189E76
:109A70001A4401FB09F3A3EB0A03B3FBF9F301FB5F
:109A800002326EE7EFF311898EF31288D5F808A041
:109A90002B68DA0344BFC4F8147ED5F808A0D6F8C2
:109AA0004439D4F8142E5FFA89F989F31188D4F86F
:109AB000189E1A4401FB09F3A3EB0A03B3FBF9F365
:109AC00001FB0232DBE6D4F80C3E002B3FF420AF62
:109AD000D4F8F82D0023136084F8093E18E700BF7E
:109AE000581D0020600C002010E000E000ED00E0B8
:109AF000D4F80C3E002B3FF499AED4F8F82DB4F80E
:109B0000103E0449B1FBF3F35B10136084F8097E47
:109B10008CE600BF40420F002DE9F84FCE4CCF4EEF
:109B200094F8E01DD4F8E80DCD4DC1F3400135F0B7
:109B300019FA94F8E01DD4F8E40DC94301F00101CD
:109B400035F010FA4FF005080127D4F8E83D33B19D
:109B50001A689B8851690B4214BF53831383D4F84E
:109B6000E43D33B11A689B8851690B4214BF53839B
:109B70001383B4F8F03D002B40F05D8194F8F21DA2
:109B8000D4F8F40D35F0EEF9DFF8DCC232204FF0F6
:109B9000100E4FF47A71DCF80430C3F30803002B85
:109BA00040F01C81EFF31183002B40F01781D6F8B1
:109BB0004429AB68D6F844994A45F8D1D4F81C9E9C
:109BC0004B45F4D8D4F818AE994601FB0AF3A3EB41
:109BD0000903B3FBFAF301FB0232DCF80430C3F3F0
:109BE0000803002B40F0B880EFF31183002B40F006
:109BF000B380D6F84439D5F808B0D6F844994B4527
:109C0000F7D1D4F81C9ECB45F3D8D4F818AE01FB9D
:109C10000AF9A9EB0B09B9FBFAF901FB03939B1AAB
:109C2000B3F57A7FD9D30138B5D1D4F8E83D33B153
:109C30001A689B8851690B4214BF53831383D4F86D
:109C4000E43D33B11A689B8851690B4214BF5383BA
:109C50001383B4F8F03D002B40F0E18094F8F21D3E
:109C6000D4F8F40D81F0010135F07CF9DFF8F8C18A
:109C700032204FF0100E4FF47A71DCF80430C3F349
:109C80000803002B40F08980EFF31183002B40F094
:109C90008480D6F84429AB68D6F844994A45F8D16F
:109CA000D4F81C9E4B45F4D8D4F818AE994601FB65
:109CB0000AF3A3EB0903B3FBFAF301FB0232DCF86E
:109CC0000430C3F3080333BBEFF311831BBBD6F897
:109CD0004439D5F808B0D6F844994B45F7D1D4F8B3
:109CE0001C9ECB45F3D8D4F818AE01FB0AF9A9EBBA
:109CF0000B09B9FBFAF901FB03939B1AB3F57A7FC1
:109D0000DDD30138B9D108F1FF3818F0FF087FF42E
:109D10001CAFBDE8F88FEFF3118A8EF31288D5F8E7
:109D200008B02B68DB0344BFC4F8147ED5F808B034
:109D3000D6F84439D4F8149E5FFA8AFA8AF3118867
:109D4000D4F818AE4B4401FB0AF9A9EB0B09B9FB97
:109D5000FAF901FB0393D0E7EFF3118A8EF312882F
:109D6000D5F808B02B68DB0344BFC4F8147ED5F8DF
:109D700008B0D6F84439D4F8149E5FFA8AFA8AF308
:109D80001188D4F818AE4B4401FB0AF9A9EB0B0972
:109D9000B9FBFAF901FB039341E7EFF311898EF365
:109DA0001288D5F808A02B68DA0344BFC4F8147EE3
:109DB000D5F808A0D6F84439D4F8142E5FFA89F9FA
:109DC00089F31188D4F8189E1A4401FB09F3A3EB18
:109DD0000A03B3FBF9F301FB023270E7EFF31189D9
:109DE0008EF31288D5F808A02B68DA0344BFC4F8B4
:109DF000147ED5F808A0D6F84439D4F8142E5FFAAA
:109E000089F989F31188D4F8189E1A4401FB09F3E3
:109E1000A3EB0A03B3FBF9F301FB0232DDE6D4F84E
:109E20000C3E002B3FF422AFD4F8F82D0023136032
:109E300084F8093E1AE7D4F80C3E002B3FF4A4AE98
:109E4000D4F8F82DB4F8103E0649B1FBF3F35B10DB
:109E5000136084F8097E97E6581D0020600C0020EE
:109E600010E000E040420F0000ED00E00E4B30B487
:109E7000DB68427801780D4CDB43C3F30223C3F166
:109E80000403DBB202FA03F360181B0101F01F05A3
:109E90000122490903F0F003AA4080F8003344F896
:109EA000212030BC704700BF00ED00E000E100E081
:109EB00030B503685A4D5B4C1A88D5F8D004B0FB16
:109EC000F1F0A34200F1FF3083B080B292B211D022
:109ED00055498B420ED0B3F1804F0BD0A1F58031A4
:109EE0008B4207D001F580618B4203D001F5806180
:109EF0008B4202D122F0700292B24C498B4268D060
:109F000001F580618B4243D022F4407201F56C412F
:109F100092B24FF6FF748B421A80DC62188564D1CE
:109F200000221A8601229A821A883E4992B242F091
:109F300001028B421A8063D0B3F1804F62D03C4A59
:109F4000934261D002F5806293425FD002F5806255
:109F500093425DD002F5806293425BD002F580624D
:109F6000934259D002F59632934257D002F580625F
:109F7000934213D002F58062934208BF09220ED0AB
:109F80004FF0012301A80193FFF770FF03B030BD2C
:109F90004FF6FF711A80D9621885C3E70822254B56
:109FA00003EBC20301A893F8C5408DF804400122D9
:109FB0004FF480738DF80520ADF80630FFF756FF9B
:109FC0001B2CE3D11C4B019301A8FFF74FFF03B0FB
:109FD00030BD01214FF6FF741A80DC62188599822A
:109FE0001A8892B20A431A80A9E70F4A934297D07F
:109FF00001229A821A8892B242F001021A809BE7EB
:10A000000022CCE70122CAE70222C8E70322C6E702
:10A010000422C4E70522C2E70622C0E70722BEE702
:10A02000581D0020000001400004014000100040C5
:10A0300000040040588B05081901000100F01F02C0
:10A0400040090123032803FA02F304D004280CD0AA
:10A05000022805D07047074A116C0B431364704700
:10A06000044A516C0B4353647047024A116B0B4313
:10A07000136370470038024000285FD00368374AF6
:10A080002DE9F04103F13F4404F57E0402EB9422F4
:10A09000012492F8B82002F01F055209032A04FA9D
:10A0A00005F456D0042A4FD0022A48D08588B5FA44
:10A0B00085F0C0F11F00C0F3CC0603EB860600F06C
:10A0C000070082000F24306A944020EA04003062C6
:10A0D000306A01FA02F20243002132624FF0010EAF
:10A0E0000A464FF0030C02270EFA02F838EA050080
:10A0F00002F101021CD118680CFA01F420EA0400F4
:10A100001860186807FA01F606431E609E6826EA82
:10A1100004069E6098689860586820EA08005860B5
:10A1200058685860D86820EA0400D860D868D860B9
:10A13000102A01F10201D7D1BDE8F0817047084A29
:10A14000556C2C435464B1E7054A156B2C431463DA
:10A15000ACE7034A156C2C431464A7E7588B050839
:10A16000003802400048704708200020144A154B70
:10A17000D2F8D024B3EB920F15D2B3EBD20F14D296
:10A18000B3EB121F13D2B3EB521F12D2B3EB921FD9
:10A1900011D2B3EBD21F10D2B3EB122F34BF4FF456
:10A1A000807080207047022070470420704708208C
:10A1B000704710207047202070474020704700BF34
:10A1C000581D002080969800002877D0F0B583882D
:10A1D000B3FA83F3202B83B00446C3F11F0258D097
:10A1E000374D384E15444FF0004006EB820230FAEE
:10A1F00003F395F81051C2F8201E05D0324A1168B9
:10A2000021EA0301116053612046002133F00EF969
:10A21000A38822682C49B3FA83F7C7F11F0404F01E
:10A22000FC0000F1804000F59C3004F00304A40021
:10A2300002F13F434FF00F0C82680CFA04FC22EA53
:10A240000C02826003F57E038268C3F38723A34078
:10A25000134383600A681D484FF00043FB4022EA25
:10A2600003020A604A6822EA03024A600A681A4343
:10A270000A608A6822EA03028A60CA6822EA030244
:10A28000CA6002682E441343036096F8603EF02BC8
:10A2900001D803B0F0BD0E4B5B5D8DF80430F021AA
:10A2A00003224FF4807301A886F8601E8DF8052004
:10A2B000ADF80630FFF7DAFD03B0F0BD704700BF20
:10A2C000588B0508581D0020003C0140083C014007
:10A2D0003CD90508B0B10C49D1F8683E102B03D128
:10A2E0000521002033F042BA03EB43020A4482F80E
:10A2F0006C0E202082F86D0E0120034482F86E0E51
:10A30000C1F8683E704700BF581D00208078E1E723
:10A310002DE9F04FDFF8ACA32DED028B9AF8B01EBB
:10A32000002297B0CAF8A02ECAF8A42ECAF8A82E08
:10A33000CAF8AC2ECAF89C2E19B19AF8B12E8AF838
:10A340009C2E9AF8B22E1AB19AF8B32E8AF8AB2E38
:10A350009AF8B62E1AB19AF8B72E8AF8A62E9AF85D
:10A36000B42E1AB19AF8B52E8AF8A12E9AF8B83EF2
:10A3700005935A1ED3B257B203937B1C00F0AA80F8
:10A38000C54AC64E52F83790029602EBC702002328
:10A390001279019308EE102A1D4634469846267815
:10A3A0003946304636F0E6F883463046BBF1000FBA
:10A3B0001ED034F0F7FAEA1D1321D2B220B14FF0CB
:10A3C000000E827180F807E033F030F8207836F024
:10A3D000FBF84FF0070308F1010223714FF001036E
:10A3E00084F802806070CDF804B05FFA82F8E37000
:10A3F0000135042D04F10504D1D118EE100A029E96
:10A40000CDF81080FFF71AFEA549A64A4868024019
:10A4100042F440324A600FB9019B5BB9A24C48201C
:10A42000FFF70CFE204602214BF0FCF9A26842F037
:10A430000102A2609A489C4A4168BAF8BA4E41F4B7
:10A4400000014160516821F480515160916B21F409
:10A45000401141F480119163D16841F46001D160F1
:10A46000956B85F44011C1F3015101EB81011F206F
:10A4700000FA01FC25EA0C0C112505FA01F141EA6C
:10A480000C019163D16841F0E061D160956BC5F337
:10A490000151C1F10401C9B201EB810188404FF0C3
:10A4A000120C25EA00000CFA01F108439063E4B1B4
:10A4B000BAF8BC1ECAF8C44EA1B1BAF8BE2ECAF88A
:10A4C000C81E62B1019B7948521A90FBF2F2CAF899
:10A4D000CC2E6BB917B0BDEC028BBDE8F08F744A7F
:10A4E0001288EFE7734A1188E7E7734A1488DFE7B9
:10A4F000484604994BF096F9684B012003F1140883
:10A500000723F278441CE4B252B375783279A5F18E
:10A510000A0101EB410105EB450C092D03FA01FE8F
:10A5200003FA0CFB02FA01F140F2A080D9F80C20EA
:10A5300022EA0E0E41EA0E01C9F80C10421E02EB8F
:10A5400082021F21062801FA02FC05FA02F273D8E2
:10A55000D9F8341021EA0C010A432046C9F8342006
:10A5600005364645CDD1D9F80820039942F400724A
:10A57000C9F80820D9F8082042F48072C9F80820E8
:10A58000D9F80820574442F00102C9F8082097F989
:10A59000C02E022033F016FF044600289AD04668E9
:10A5A000304633F0FDFE454A431E242101FB0323C0
:10A5B00093F81851002D8DD1059983F819110622B1
:10A5C00083F81821002885D0304633F0E9FE48F0A2
:10A5D00003FE606809F0D2FB07A809F091FB049E16
:10A5E000A26837480792012E8CBF4FF48063002386
:10A5F0000D9309F14C034FF48072CDE90A5608938C
:10A6000009904FF4003360680C9507A94FF4006778
:10A610004FF40056CDE91023CDE90E7609F082FB08
:10A620006268136843F001031360D9F8083043F0FF
:10A630008043C9F808304DE7C11FA0F10D0201EBBE
:10A6400081014FF01F0E02EB82020C280EFA01FC72
:10A650000EFA02F005FA01F113D8D9F8302022EAF7
:10A660000C0211432046C9F8301079E7D9F81010D0
:10A6700002FA0CF221EA0B0B42EA0B02C9F8102095
:10A680005CE7D9F82C1005FA02F221EA00010A432E
:10A690002046C9F82C2063E7788C0508F42B0020AD
:10A6A00000230140E030FCFF002001408038010021
:10A6B0002E7AFF1F2C7AFF1F2A7AFF1F9801002095
:10A6C000282C0020581D00202DE9F84F2E4F00EBBC
:10A6D000800407EBC404D4F8DC6E2EB1054694F870
:10A6E000F10E00F0FF0820B14FF000084046BDE831
:10A6F000F88F89469A46934633F090FA4FEA49011B
:10A700000123C9B284F8F21E84F8F3BE84F8F53E42
:10A7100084F8F68E84F8F43E84F8F13E84F8F08EE6
:10A72000B288C4F8F8AE91058146C4F8FCAE1DD4D9
:10A730003388DA0510D442F20F7405E033F06EFA74
:10A74000A0EB0903A34215DC33889B05F6D43388BC
:10A750009BB243F480733380B3889BB243F440735D
:10A760004FF00108B3804046BDE8F88F9846404658
:10A77000BDE8F88FB7F8503F01339BB22846A7F8E1
:10A78000503F4AF08DFCB1E7581D00200128B5EE7E
:10A79000C00A10D0F1EE10FA0BDD9FED177ADFED55
:10A7A000177AE0EE077AFCEEE77A17EE903A98B265
:10A7B000704700207047F1EE10FA0BDD9FED107A24
:10A7C000DFED107AE0EE077AFCEEE77A17EE903ACA
:10A7D00098B27047EDD5F7EE007A30EE270A9FED7C
:10A7E0000A7ADFED0A7AE0EE077AFCEEE77A17EEF6
:10A7F000903A98B2704700BF00E0F9440000404230
:10A8000000C079440000834400C079C400E0824461
:10A8100070B5464E96F8524F04EB840306EB830363
:10A82000A50093F8543F032B6ED8DFE803F05929B5
:10A830001E02254406EB8505D5F8580F002870D177
:10A8400096F8A43F9C425FD0013404F00302934287
:10A8500086F8522F58D002EB820406EB84040223C0
:10A86000C4F8580F84F8543F70BD2B1906EB8303CE
:10A87000D3F8582F72B1013AC3F8582F002070BD99
:10A880002B1906EB8303D3F8582F002AF3D10222A9
:10A8900083F8542F254406EB850595F8603F013B6E
:10A8A000DBB285F8603F8BBB214B96F8A46FD3F8E1
:10A8B0003C13D5F85C0F621C02F003024B1E03240C
:10A8C000B242034485F8544FB3FBF1F0C5F8580F7A
:10A8D0001AD0994218D80138C5F8580F012070BD18
:10A8E00035F064FB80B1124B2C44D3F83C2306EBCB
:10A8F0008404012102F51C5384F8541F0F33B3FB69
:10A90000F2F3C4F8583F70BD012070BD084BD3F876
:10A910003C23012002F2E733B3FBF2F3C5F8583FC2
:10A9200070BD0138C5F8580F002070BD581D0020BB
:10A930009801002003681A78012A01D0002070478E
:10A9400093F90430044A03EB830302EBC30393F847
:10A95000F10EC0B2704700BF581D002010B50B4C5F
:10A96000D4F8A83F1B78022B0FD1D4F8B00F34F0E5
:10A97000F3FAD4F8B00F08B12123C380012132F0DB
:10A9800055FDFFF7F3FBA4F8AC0F10BD581D0020D8
:10A9900030B583B00D46012301460DF10702044690
:10A9A000074835F023FA9DF8072035EA020304D062
:10A9B00003482A43214635F0AFFA03B030BD00BF4B
:10A9C000002D002038B505460A460C4606482946A3
:10A9D00035F0E6F845F08001034834F0DFFF231A34
:10A9E0005842584138BD00BF002D0020F0B53B4C07
:10A9F000D4F8A85F2B78022B95B018D0012B02D089
:10AA0000002015B0F0BD95F904506B1CF8D0022D54
:10AA1000F6DC0091134694F8AC1F024628464AF033
:10AA2000E1FC0028ECD028464AF08CFDE9E72B6ACF
:10AA3000002BE5D10DF10F0C8DF80F000026012041
:10AA40000027CDE90833CDE90A12CDE90E67059359
:10AA50008DF81C300D9310931293CDF810C0069012
:10AA60008DF830008DF84400EFF31180102383F34C
:10AA70001288D4F8A83F1B6A13B3069B04AE324673
:10AA80001BB1D3691432002BFBD12B6A13B3996825
:10AA900039B993420AD0196829B15B6899680029CD
:10AAA000F7D01433F3E70E4AC3E90026C0B280F3AF
:10AAB0001188D4F8A82F136A002BFCD10120A0E73D
:10AAC00004ABC0B22B6280F3118804F6A87049F081
:10AAD00041FFEEE7024A1A60FFDE00BF581D00206A
:10AAE000002D002070B503681D78022D13D0012DB4
:10AAF00001D0002070BD044693F904000A4B421CAB
:10AB000003F8845CF5D00228F3DC0A46843B217903
:10AB1000BDE87040D8E51B6A002BEAD1012235F070
:10AB20003FF8012070BD00BF502E002013B53A4CF5
:10AB3000002354F8742C8DF80730137803F0FD01CE
:10AB4000012905D114F8701C11B90C2104F8701CEE
:10AB5000022B1ED0032B2DD001220B212F4846F0B3
:10AB60006BFB042033F086F82C4801230DF107021B
:10AB7000002146F083FB002838D09DF80730482B91
:10AB800034D1274B44F8803C264B44F87C3C02B03F
:10AB900010BD54F86C0C34F0DFF954F86C0C08B1AB
:10ABA0003423C380012132F041FCFFF7DFFA24F89F
:10ABB000700CD1E7D4F83C34506846F2A811196102
:10ABC000002380F888301222372146F009FB54F820
:10ABD000743C0D225868242146F002FB54F8743C62
:10ABE000302258686A2146F0FBFAB5E754F8743C05
:10ABF0001A78022A03D0032A07D00020C7E754F8A6
:10AC00006C0C34F0CBFC0020C1E7586810223721CF
:10AC100046F0E6FAF1E700BF502E0020DC2D0020C0
:10AC2000DB1205085D13050810B58CB000234CF24B
:10AC30000502044601A9CDE90633CDE90833ADF894
:10AC400000208DF8023003220B930123CDE903127B
:10AC50008DF814308DF82830CDF808D035F03CF858
:10AC6000204602A934F0BAFC204635F035F89DF8AC
:10AC700006000CB010BD00BF2DE9F043784D794FB0
:10AC800083B005F1F400242200214DF0D1FD97F8A6
:10AC90003D460023C5F81831002C3CD1724ED6F841
:10ACA000F03063B39B6A53B370489847836833B3FB
:10ACB00003886F4F013B9BB2BC46384600210678A3
:10ACC000032E00F106001ED001310629F7D1002223
:10ACD0003978022907F1060700F0A1800132062A1F
:10ACE000F6D1D5F81811052909D0481C02FB01C27C
:10ACF000C5F8180102200021938010705180204671
:10AD000003B0BDE8F083062303FB0151B1F8F63030
:10AD1000013B9BB2DBE797F83C0607F24463C7F8B8
:10AD2000403610B9504E0024B9E733F03BFEC7F867
:10AD30004C0618B1837913F0BF0FF3D121464D486B
:10AD400034F0C2FD04460028ECD0D7F84036474A1C
:10AD50009868C3F8942008B12023C380092132F0F9
:10AD600065FBD7F84036404E986834F0F5F8424815
:10AD7000D7F8408634F0E8FD4FF00109A8F8040048
:10AD80003220C6F8108186F8149132F073FF042344
:10AD9000D7F840064FF0000C0DEB03029F21CDF8D1
:10ADA00004C034F0A9FE9DF805809DF804309DF89C
:10ADB00006104FEA082848EA034848EA01084146D5
:10ADC00006F1F00045F040FE00287FF468AF4046F1
:10ADD000FEF708F8034600287FF461AF9DF80600EF
:10ADE0009DF805209DF80710000240EA0240234A22
:10ADF0000843904217D0C6E93E33A6F8F430A6F8CF
:10AE00000031FDF7EFFF804600287FF448AF97F848
:10AE10003C0633F0C7FD34F0C1FB44463FE7062152
:10AE200001FB02C266E7164AC6F8F4204FF400336D
:10AE30004FF00062C6F8F8304023A6F80031C6F89B
:10AE4000FC2086F80291FDF7E3F806F1F00086F8A1
:10AE5000099145F045FD0B4BC6F8F0301FE700BFE8
:10AE6000600C0020502E0020581D0020481E00209D
:10AE7000540D002094340020404B4C0021AAEF00D8
:10AE800000040008588B0508F0B40D6800240CE09D
:10AE9000BCF1050F18D8A0F137030A2B14D104EB2D
:10AEA000840415F8010B03EB4404A0F13003DEB277
:10AEB000092EA0F16107A0F1410CF0D9052FE7D8C8
:10AEC000A0F157030A2BEAD00D601460F0BC704764
:10AED0002DE9F041C54BC64EC64DC74C0822C3F8FC
:10AEE0008820336B82B043F00103336307464FF48D
:10AEF000C052284640F2023388466946CDE9002315
:10AF000009F06AF86B6AC4F8C08C23F470436B6272
:10AF10006B6AC4F8C87C43F420436B626B6AB74920
:10AF2000C4F8C41C23F470236B626B6AB448C4F881
:10AF3000DC0643F420236B62736CB249C4F8E0165C
:10AF400043F480437364736BAF48B049C4F8EC06B4
:10AF500043F0800302257363AD4F84F8E456AD4E91
:10AF6000AD4DC4F830174FF0A043C4F8E836AB4AF3
:10AF7000C4F8F87603F53463A1F5D071C4F83457FA
:10AF8000C4F8FC66C4F83837C4F800170123DFF8AA
:10AF9000BCC2C4F8F4C607F51077A5F5E465A6F5BC
:10AFA000A066A1F58C61C4F83C77C4F8F056C4F8EB
:10AFB000A86784F8E73605F5A075536106F5B07605
:10AFC000C4F86C1784F8EE371946954B954AC4F8C7
:10AFD0007457A7F5BC67A035C4F88067924EC4F8D3
:10AFE0007C77C4F8843707F5D45703F56953C4F860
:10AFF00088574FF050250020DFF854E2C4F8AC2702
:10B00000ACF5687C02F5A042C4F8B077C4F8B46728
:10B0100007F5A04706F5A046C4F8B837C4F8BC57F2
:10B02000A3F5485304F2DC65C4F8C027C4F8C86728
:10B03000C4F8E837C4F870E7C4F878C70246C4F823
:10B04000C4772B4684F8F007402683F81C21A3F828
:10B0500022210132042AC3E9496083F81D1183F8D3
:10B060001F01C3F8300103F12803EED1002211467D
:10B070002B46402083F87423A3F87A230132042A54
:10B08000C3E9DF0183F8751383F87713C3F88813D6
:10B0900003F12803EED14FF0A04364489A6822F0F0
:10B0A00001029A60DA6842F04002DA60FDF75EFD64
:10B0B00094F8E5360022212161F317420BB142F4E6
:10B0C000801294F8DF16D4F8E83601299A6300F06C
:10B0D000E480DA68D4F8E867D4F8EC06C2F30761D4
:10B0E00021F0600141F0400161F31F620021DA604C
:10B0F0003160026861F3CC22026094F8E726012AED
:10B1000000F0B88010214A4808F046FC484808F092
:10B1100029FCD4F8EC0694F8DD3600224FF0FF311C
:10B12000026142618161C26153B305F11407414E6E
:10B13000114607EB83074FEA830C4FF0FF0E56F8DA
:10B14000042F1368002BACBF00234FF09043B7428D
:10B1500013601161C2F808E0F1D105F150033649DE
:10B1600063440027FF2651F8042F1568002DACBF5B
:10B1700000254FF090459942156017619660F2D115
:10B18000036994F8DF1643F480730129036161D0E9
:10B19000D4F8E82629480023936100294FF0FF33B3
:10B1A0006FF0804151615360516114BF002310233F
:10B1B000906143F470139069D4F8C41C43F4605355
:10B1C00043F00803034393619368096843F0010364
:10B1D000936088471A4B1B4ADA6068461A4B009303
:10B1E000FEF744FE02B0BDE8F08100BF00E100E0E0
:10B1F0000038024000000240502E0020D8040020F9
:10B20000080401004000400100080050000B0050FD
:10B210002009005040090050200B0050003C014024
:10B22000C00500500010005000300050383500209C
:10B230002C350020403500207C350020000800809F
:10B2400000ED00E00005FA0543020001000900508E
:10B2500020050050D4F8E826144B03636FF08041BA
:10B26000134D00234FF0FF309361516150605161E5
:10B2700095619EE701680F4A0F4E41F0030101609E
:10B28000802159629E62C3F80421E022C3F808219C
:10B29000C0F24002C3F80C2134E79A6822F03E0164
:10B2A00041F02A0161F307029A6012E7030181006D
:10B2B00000080080A00040008000200010B5184C5D
:10B2C00094F8D10C88B9174B83F85100586594F85D
:10B2D000D43C012B1FD0D4F8D83C03B312495B688F
:10B2E000BDE81040A1F10C00184733F05BFB94F867
:10B2F000D32C0C49003A18BF012281F8512048652F
:10B300000028E4D01F22C280202132F08FF894F868
:10B31000D43C012BDFD1054BC4F8D83CDEE710BD8F
:10B32000502E0020600C00202C3B0020F404002054
:10B3300099B10A6B824216D9154BD3F81C2D914254
:10B3400021D34C3991421ED30B6B9842F9D38B6BAE
:10B350009842F6D80B46184670470D4BD3F81C1D83
:10B360000A6B904212D30B680BB9F4E70A6B904258
:10B370000B4602D38A6B9042EDD951F84C3F002B1B
:10B38000F4D1184670470023184670470A46D8E79C
:10B39000502E00202DE9F047CC0143D10346224A2C
:10B3A00043F8082B4FF0FF324260022418467E26F5
:10B3B000DFF87880D8F8209D2644013E051D4946D7
:10B3C0006FF070474FF0010A08E0A3421CD0631CE5
:10B3D00045F8043C321B1C460435CAB10B6BA34232
:10B3E00002D88B6BA34204D22046FFF7A1FF01468F
:10B3F00090B10A794B6B002AE7D1A34204D0E6D280
:10B4000045F8042C631CE5E745F8047C631CE1E780
:10B41000C8F8201DBDE8F08745F804AC321B631C5A
:10B420004946D8E78026C3E7F8FFFF0F502E0020DB
:10B4300070B4447941BB03684FF400524FF4007676
:10B44000202502213CBB1A8C22F001021204120CAE
:10B450001A841A8B188C22F0F30280B2120420F0A6
:10B460000A00120C014342F0010241F001011A836B
:10B4700019841A8B22F00C021204120C1A831A8BF4
:10B4800092B270BC1A8370470022036816461546B4
:10B490001146002CD7D0042C21D0082C38D0198C80
:10B4A00021F480510904090C19849C8B1D8C45F6EC
:10B4B000FF7040F6FF4128402140024342F4805291
:10B4C00041F4807199831A849A8B22F440621204A9
:10B4D000120C9A839A8B92B270BC9A8370471A8C22
:10B4E00022F010021204120C1A84188B198C89B2E3
:10B4F00040F6FF4221F0A00102400D4342F4807269
:10B5000045F010051A831D841A8B22F44062B3E7BC
:10B510001A8C22F480721204120C1A84998B1A8CE1
:10B5200021F0F30192B2090422F42062090C3243A3
:10B5300042F4807241F0010199831A849A8B22F0BF
:10B540000C02C4E738B50E4D0446006808F04CFC08
:10B55000D5F8D024204652084FF6FF7131F0D4FAC6
:10B5600020460021FFF764FF064BC5F83C3D05F679
:10B570003C5120460022BDE8384031F0D3B900BF2D
:10B58000581D0020593701082DE9F04F2DED028B91
:10B59000DFF87C81DFF87C91DFF87CA19FED578A92
:10B5A00085B008F12C040127FEB218F8010B3246D1
:10B5B000572131F05DFD054600287CD00368A0606E
:10B5C0000122B3F1804F04F8282C00F08D804C4A02
:10B5D000934200F08980D9F8D03407EE903AF8EE23
:10B5E000677A00218020AAFB0323DB08002244F8AD
:10B5F0000C3C4FF4005C012344F8100C44E906C2F3
:10B6000018F8010C44ED087A04F8271C04ED098AA7
:10B6100044F8082C24F81C3C24F81A3C33F0C2F9F6
:10B62000E06030B15722C67182716A7A422132F0ED
:10B63000C7FFD9F8D0142846FEF73AFC14F8273C87
:10B64000002B43D021462F4B41F8043D00222846D1
:10B6500031F068F96B792868ADF8043004230125CE
:10B660004FF0000B0DEB0301ADF80C30ADF806B058
:10B67000029508F0AFF954F8103CA268224912680C
:10B6800091F80C1E013B9BB2013E1385F6B24FF0C0
:10B69000FF33D362B1424FF40053958244F814BC97
:10B6A00044F808BC24F81C5C24F81A5C44F8183CE4
:10B6B00001D130F025FF0137052F04F138047FF464
:10B6C00073AF05B0BDEC028BBDE8F08F0F48DFF81B
:10B6D0004CC044F8040C63602246211F2846C4F87D
:10B6E00000C031F01FF9B5E7D9F8D03407EE903A31
:10B6F0000121F8EE677A084675E700BF00000000F8
:10B70000000C0040D9B00308502E00200DB20308F1
:10B71000783B0020581D00201F85EB5125C50308EC
:10B720000C480D4BD0F8281E10B40C4CC0F8183E35
:10B730008A1E2231B0F8463E1B01A4FB03C3DB087E
:10B74000A3F5B06322F8023F9142F3D15DF8044BB8
:10B75000704700BF502E002041940108CDCCCCCCC6
:10B7600070B5084C251D2E4614F8010B23F082FEFF
:10B7700028B1037905F8013BB442F5D170BDFF2330
:10B78000F8E700BFB43C00202DE9F0471D4F01262B
:10B7900007F10805B2464FF03B094FF0000817F8D3
:10B7A000010B33F0FFF8044690B180F80690C671A3
:10B7B000FB7803F07F02012A18D013F0800F204697
:10B7C0000DD185F8048033F0C1FB85F805802C602D
:10B7D0000136052E05F10805E1D1BDE8F08785F8B1
:10B7E00004A033F0B9FB85F805A0F0E71B0605D4EB
:10B7F0000121204631F01AFEFB78DEE733F0ACFB86
:10B80000F6E700BFBC3C00202DE9F04FB94DBA4C23
:10B81000D5F8D054B94FA4FB05450C68AD0CB4F86D
:10B8200000C0013D013ABC42AEB283B092B21FFAF1
:10B830008CF512D007F58067BC420ED0B4F1804F72
:10B840000BD0A7F58037BC4207D007F58067BC4214
:10B8500003D007F58067BC4202D125F07005ADB278
:10B86000A74FBC4211D007F58067BC420DD025F42C
:10B87000407507F56C47ADB2BC422580E262268573
:10B8800040F026810022228602E02580E2622685A1
:10B890000125A58291F80890497919F0020772D024
:10B8A00000264FEAC90909F00809B0460196B646D4
:10B8B000B446324600964FF480674FF0400A4FF08E
:10B8C000040B0C2908D8DFE801F0D2070707180796
:10B8D000070772070707A2000C293CD8DFE811F020
:10B8E000EF003B003B003B003B003B003B003B00CC
:10B8F0008E003B003B003B00BE00258C7F4E25F0B8
:10B9000010052D042D0C2584B4F820C0A788258BA4
:10B910001FFA8CFC25F4E6452CF0200C2D044EEA91
:10B920000C0E2D0CB4424EEA0212BFB245F4C045D3
:10B9300000F0FB8006F58066B44200F0F680A78038
:10B940002583A3632284238B23F400631B041B0C35
:10B9500043F400632383B4F844306FEA43436FEA4F
:10B9600053439BB2A4F84430238822469BB243F051
:10B97000010322F8343B00235518C0E9005453500A
:10B9800003B0BDE8F08F4FEA490900954FF4806598
:10B9900009F00202BA46B946BB464FF480464FF45E
:10B9A000805801954FF0100E4FF4807C89E7258C6C
:10B9B000524E25F480752D042D0C2584B4F820A05A
:10B9C000B4F804E0A58B1FFA8AFA25F073052AF46F
:10B9D000007A2D044CEA0A0C2D0CB4424CEA0222E7
:10B9E0001FFA8EFE45F0600577D006F58066B442FA
:10B9F00073D0A4F804E0A583E3632284A38B23F02F
:10BA000008031B041B0C43F00803A383A3E7258C46
:10BA10003A4F25F480552D042D0C2584B4F820E0F0
:10BA2000B4F804C0A58B1FFA8EFE25F4E6452EF46B
:10BA3000005E2D0448EA0E082D0CBC4248EA023292
:10BA40001FFA8CFC45F4C0455ED007F58067BC4208
:10BA50005AD0A4F804C0A58323642284A38B23F4C2
:10BA600000631B041B0C43F40063A38373E7268C61
:10BA7000224F009D26F001063604360C2684B4F8C9
:10BA80002080B4F804E0268B28F0020826F0730624
:10BA90004FEA084836042A434FEA1848360CBC429D
:10BAA00048EA02021FFA8EFE46F0600631D0154DBC
:10BAB000AC422ED0A4F804E0268363632284238B57
:10BAC00023F008031B041B0C43F00803238342E705
:10BAD0000C4A94423FF4D6AEDAE622F4006242EA1F
:10BAE000092222F480622EF4405E3A434EEA080EA8
:10BAF0007FE700BF581D002083DE1B43000001408C
:10BB000000100040000401402CF4804C4CEA060C6C
:10BB10009FE74FF6F37515402EF4407E45EA090283
:10BB20004EEA0C0E42EA0B02C4E722F08002019EAC
:10BB300042EA091222F0400227F4406742EA0A0270
:10BB40003743FCE62F4B9FED304AB3F8963E07EEA5
:10BB5000103ABAEEEF7AF0EE607AB4EEC70AF1EE80
:10BB600010FA70B5F0EE404AF0EE410A06DDF4EE50
:10BB7000C77AF1EE10FA3CD5F0EE474AF5EEC04A2E
:10BB8000F1EE10FA3ADDF5EEC07AF1EE10FA35DD9D
:10BB900027EEA47A67EEE77AE4EEA47A87EE271A16
:10BBA0001A4C1B4D1B4E00F10C0200F19C0142E9A6
:10BBB000026542F80C4CF5EEC04AF1EE10FA14DDC5
:10BBC000B5EEC01AF1EE10FA0FDD134B42F8083C47
:10BBD00082ED034A82ED024A82ED014A82ED004A7B
:10BBE000B0EE640A1046FCF73DFA30328A42DED1EC
:10BBF00070BDF0EE444AB0EE441AD1E79FED021A50
:10BC0000CEE700BF502E002000000000815604083F
:10BC1000692D0408052E0408BD2D0408014488423E
:10BC20000ED010B40346074C074813F8012B04FB51
:10BC300000F0994280EA0200F7D15DF8044B7047AA
:10BC40000148704793010001C59D1C812DE9F04119
:10BC5000214E224F96F83F3487F8E03D06F23C46ED
:10BC600007F6E45500244FF0050816F8010B20BB39
:10BC700028600134032C05F10405F6D197F8E01D86
:10BC8000D7F8E40DC94301F0010133F06BF997F8DF
:10BC9000E01DD7F8E80D81F00201C1F3400133F057
:10BCA00061F997F8E01DD7F8EC0D81F00401BDE8CB
:10BCB000F041C1F3800133F055B932F073FE013425
:10BCC00001212860E3B210B180F80680C3712868B2
:10BCD00031F0ACFBCEE700BF483F0020581D0020EC
:10BCE000F8B5264D264CB5F84464A4F8F06DE6B9D5
:10BCF00095F8400432F056FE95F84124C4F8F40D4E
:10BD0000003A18BF012284F8F22D48B195F8421488
:10BD10002B22002914BF11210121C28031F086FBA2
:10BD2000BDE8F840002033F025B995F840740022B2
:10BD300038462B2131F09CF90546384632F032FE68
:10BD4000D0B1CDB12B22C4F80C0EC280697AFEF7B7
:10BD500093F90C4AB2FBF6F22946C2F34F0304F6FC
:10BD6000F85092B2A4F8106EFFF74EFDD4F8F82DFB
:10BD70000023136084F8093EF8BD00BF483F00204F
:10BD8000581D002040420F002DE9F84F244C94F834
:10BD9000503484F8463404F24747002604F26444E1
:10BDA0005FFA86FB0BF101085FFA88F8012117F8AA
:10BDB000010F42460E448A4631F05AF94FF000090D
:10BDC000054638B3387804F80E9C04F80D9C04F846
:10BDD0000FBC04F810AC44F8045C32F0E3FD18B179
:10BDE00080F806A080F80780697AFEF745F90D49CA
:10BDF0002846FEF75DF80C4B23600C4B221D2146B4
:10BE00002846C4E9013930F08DFD697928684A4631
:10BE100022F080FA082E04F11C04C1D1BDE8F88F8D
:10BE2000483F002040420F004DE302088DC1020848
:10BE300070B52C4C2C4B94F87C05C4F8743500225A
:10BE40000221C4F83425C4F83825C4F83C25C4F8C8
:10BE50007025A4F8782531F00BF9002834D0234B55
:10BE60000168054603F160005A7C12B15A6891429C
:10BE70002BD018338342F7D1002394F87C05C4F803
:10BE8000605484F8543432F08DFD08B10223C3802D
:10BE9000697AFEF7F1F828461549FEF709F8154AC0
:10BEA0001549C4F864140026111F2846134BC4F822
:10BEB0006834C4F86C6430F035FD6979286832461E
:10BEC000BDE8704022F026BA70BD0B8D0C4A0D49BA
:10BED000D2F8D0249BB20133B2FBF3F381F8803364
:10BEE000CAE700BF483F002000FFFF00DC1E002023
:10BEF00040420F00B0430020B5C1020851C3020800
:10BF0000581D0020980100202DE9F04FC44D95F8F0
:10BF10005661032E83B08346A6F105032BD8C14F8B
:10BF20000122032B87F8D42931D90023584687F8FA
:10BF3000E035FDF78BF8C5F8A80DD5F8A83D002B26
:10BF400000F091800022012183F824B083F82510AD
:10BF500083F826209A62BBF1000F09D02C33B24A35
:10BF600003EB0B0012F8011B03F8011B9842F9D1F7
:10BF700003B0BDE8F08FDAB2032AD0D9A94A002174
:10BF8000032B82F8D4196AD982F8E015D5E795F821
:10BF90005F3187F8E025012B00F08780022B6ED0FF
:10BFA000A24BDFF898C201931C46BCE80F000FC4F7
:10BFB000BCE80F000FC495F85EE1DCF800202260B9
:10BFC000BEF1000218BF0122994B85F8BD2D072E46
:10BFD000C7F8C03500F2F580042E00F21081DFF8BA
:10BFE00078820024A8F1230A5FFA84F909F1010696
:10BFF000F6B2A34532464FF0030104F101042ADDF5
:10C000001AF8013B0093184631F032F8009B0246C3
:10C0100000921846002A00F0DB8032F0C3FC009A40
:10C02000034649461046C8F8143023B14FF0030CBC
:10C0300083F806C0DE71137A95F8562147F0B2F9FD
:10C04000002800F0C5804FF00103042C88F811305F
:10C0500008F11808C8D1019BC5F8A83D6DE7012378
:10C0600082F8E03569E7734E734C0FCE0FC40FCEE4
:10C070000FC4336844F82039C5F8A84D78E795F81F
:10C080005E31002B8CD0082E0FD16C4E85F8BD2D63
:10C090000FCE07F5B66401940FC40FCE0FC43268FB
:10C0A000634B2260C7F8C0358EE0DFF8B0C1644C46
:10C0B00095F85EE1DFF8A091C7F8E4B5BCE80F00A1
:10C0C0000FC4BCE80F000FC400212046DCF800308C
:10C0D00040F8843BBEEB010E18BF4FF0010E4FF449
:10C0E0004C72884687F8206685F8BDED87F8E21522
:10C0F0004CF09EFBA9F12303CDE9003B04F56D74E0
:10C10000C346D7F8E4355B4554DD009B13F8016B5B
:10C110000093304631F032F88246304632F042FC2D
:10C120009AF8088095F8BD1D08F0010A0AF1010A85
:10C13000064687F8E1A509B188F00108002E4FD026
:10C14000B17911F0BF0F0FD03E4B3F493F4AC7F8BE
:10C150009835012387F8E235DDF804B0C7F890156B
:10C16000C7F89425002377E7304632F065FF4FEAA1
:10C170004A110BF1010B41F009014FF0030361611A
:10C180006060E66084F8108086F807B0B3713046CE
:10C1900031F04CF918F0010F30460FD032F0D6FED6
:10C1A000E368C9F81430BBF1040F04F1200409F16D
:10C1B0001809A6D1DDF804B0214B4DE732F0CCFED2
:10C1C000EEE7082E7FF40BAF214BC7F8E83506E702
:10C1D0001E4B1C4AC7F8C435C7F8C82500233BE7E7
:10C1E000304632F029FF4FEA4A1A4AF009010BF1B2
:10C1F000010B61616060E66084F81080C7E795F824
:10C200005D31144AC7F8E825012B05D0022B06BF83
:10C21000BEFA8EF35B09002387F8EC35DFE600BF3A
:10C22000581D0020483F0020B01E0020F844002088
:10C23000A1210508808C050838450020A48C05083C
:10C24000C8440020D5AF0308DDAF0308D9AF030809
:10C250004DB003087DB00308DC1E0020C88C050823
:10C260002DE9F0416E4F97F8400E97F8415E32F09D
:10C2700099FB60B12D23C3802021044631F0D6F80C
:10C280000A2031F0BBFB204632F0CCFE28B9DFF8A3
:10C290009881D8F8D839DA0001D5BDE8F081013DA0
:10C2A000092DFAD897F83F4ED4B940202BF0F0FA78
:10C2B0000028F2D090F9043097F8111E092BC8BF5E
:10C2C000143B43440A2993F8DC4900F09B8093F81F
:10C2D000E83997F83E2E002A08BF1C46002CDCD017
:10C2E000204632F05FFB0546002800F083802D23B6
:10C2F000C380012131F09AF80121084632F078FE1E
:10C300002B68AA881A833C2031F0B4FC002101205C
:10C3100032F06EFE97F8413E002B4CD0414C002687
:10C320001FE02B68AA885A8331F068FB94F8E01D5F
:10C33000D4F8E40D01F0010132F014FE94F8E01D90
:10C34000D4F8EC0DC1F3800132F00CFE2B68AA8802
:10C350001A83782031F052FB97F8413E01369E4215
:10C3600029DA94F8E01DD4F8E40DC94301F0010185
:10C3700032F0F8FD94F8E01DD4F8EC0D81F00401E2
:10C38000C1F3800132F0EEFD7820002DC9D1782074
:10C3900031F034FB94F8E01DD4F8E40D01F0010114
:10C3A00032F0E0FD94F8E01DD4F8EC0DC1F380010B
:10C3B00032F0D8FDCDE797F83F3E9BB9D7F8403E25
:10C3C00003F0FF13B3F5803F7FF467AFD8F8D83997
:10C3D00013F080537FF461AF87F8413EBDE8F04130
:10C3E0003AF0AEBC322031F045FC2846002131F055
:10C3F0001DF8E3E7012131F019F80121084632F078
:10C40000F7FD80E7D8F8003A5B057FF546AF09F005
:10C41000F7FC00287FF441AF002C7FF461AF3CE7CC
:10C42000502E0020581D0020483F002070B4344892
:10C4300090F8043AA3F13001092957D800F60424F2
:10C44000224600F6132012F8015FA5F130010929F8
:10C4500004D88242F7D1002070BC7047141B022C14
:10C460004ADD2848002101E010F8013B01EB810181
:10C4700003EB4103161A303B022E044603F0FF0182
:10C48000F2DC214B03FB01F1A2424FF000030DD976
:10C4900003EB830314F8016B5B00303B3344A2428F
:10C4A00003F0FF03F4D1194800FB03F32E2D06D04F
:10C4B0001748A0FB032301EB930070BC70470132C7
:10C4C00004200024157804EB8404303D6400092D19
:10C4D00000F1FF30A4B202D82C44A4B2013210F013
:10C4E000FF00EFD1642202FB0433E1E700211D4687
:10C4F00000F604220B46D9E7064C0021C4E700BF32
:10C50000483F00204D4900208096980040420F008F
:10C51000ABAAAAAA4C49002038B504460D460A46E3
:10C520000068FF214CF084F921682944216038BD5E
:10C5300083B50C46164605462BF076F920462BF0BF
:10C5400073F90021204B0846002E08BF1E4632F02A
:10C550004FFD0021012032F04BFD284631F0E4FF71
:10C56000B0B10121002032F043FD284631F0D4FF64
:10C570000746204631F0D4FF0028FAD0394620463D
:10C5800031F0D6FF3846B0470021084632F030FD82
:10C59000204631F0C9FF0028DFD00121002032F011
:10C5A00027FD204631F0B8FF01462846019131F0C1
:10C5B000B7FF01990028F8D0284631F0B9FF0021D3
:10C5C000084632F015FDC8E745250308064B074A23
:10C5D000C3F8142AC3F8182AC3F81C2AC3F8202A5F
:10C5E000C3F8242A704700BF483F0020E803D00763
:10C5F000F0B50023C1E90033C1E902330B61D0E992
:10C6000000258DB007AEDFF898E0C2F3056C374621
:10C610004CFA03F0C0073C4604D513F80E0004F8AA
:10C62000010B27460133062BF2D11B4CDFF874E0D7
:10C63000C2F303200023205C3B708DF82400C2F37A
:10C64000073C0DF125074CFA03F0C0073C4604D522
:10C6500013F80E0004F8010B27460133082BF2D122
:10C6600000233B70C5F3435CC5F3434409AB084664
:10C67000C5F34F05C2F30351CDE902150193CDE98E
:10C68000044C02F00F0305490096C2F303123DF07B
:10C6900023FB0DB0F0BD00BF2CD90508B8D80508A4
:10C6A00034D9050820D9050870B5094CD4F8282AD2
