:020000040800F2
:10000000F0FF012085610508ED610508452704081A
:10001000ED610508ED610508ED61050800000000CF
:10002000000000000000000000000000ED61050875
:10003000ED61050800000000ED610508F1F7030817
:10004000ED610508ED610508ED610508ED61050844
:10005000ED610508ED610508C9280408C1280408F8
:10006000B9280408B1280408A9280408094E05087D
:10007000F94D0508E94D0508D94D0508C54D050898
:10008000B14D05089D4D0508ED610508ED610508B8
:10009000B5C20008ED610508ED610508A128040856
:1000A0003532050805330508253205082D330508C6
:1000B000F5320508E5320508D53205080D58050862
:1000C00019580508F557050801580508ED61050898
:1000D000ED6105086DF8030861F8030855F8030899
:1000E00099280408ED610508ED610508ED61050832
:1000F00055320508ED61050845320508ED61050832
:10010000ED610508ED610508C5320508ED610508DA
:1001100049F803083DF803085932050875BA000884
:10012000754D0508614D05084D4D0508394D05080B
:10013000254D0508ED610508ED610508ED6105082F
:10014000ED610508ED610508ED610508ED61050843
:10015000ED610508ED610508ED610508ED61050833
:10016000ED610508ED610508ED610508ED61050823
:10017000ED610508ED610508ED610508ED61050813
:1001800015320508ED610508C5570508D157050862
:10019000ED61050800000000ED610508ED6105084E
:1001A000ED610508ED610508ED610508ED610508E3
:1001B000DD570508E9570508ED610508ED610508FB
:1001C000894D0508114D0508FD4C0508E94C050849
:0801D000ED610508ED61050871
:0801D800E45C050001000000D9
:08280000082800080040000850
:04400000FFFFFFFFC0
:106000001148002302461178032902F1060215D037
:106010000133062BF7D1436A052B0ED05A1C03EB34
:106020004303426200EB4303032040F2EB3140F2B2
:10603000FF32187059809A807047704703EB430312
:1060400000EB4303F0E700BF98170020037870B41B
:106050002BB30246C0F10105531912F8014FDBB210
:10606000002CF9D101335B000E4C0B80032284F825
:10607000283084F82920017879B1022300265A1C9F
:10608000E51854FA82F285F8281082F8286010F892
:10609000011F0233DBB20029F1D170BC704702232B
:1060A000E2E700BF98170020826D136A5B681B78D7
:1060B000FF2B08D090F8D030013BDBB280F8D03015
:1060C0001BB10120704700207047126A52680220FD
:1060D0001370704770B4C3080D4CE25C00F0070603
:1060E000B24004EBD004D2B20020C6F108038B42C8
:1060F00028BF0B46C3F108052A419840C91A40EA57
:1061000002004FF0000614F8012FEED170BC70476A
:106110000019002030B5EFF31181802383F312883A
:106120000A4AD2F8FC31D2F80042D2F8FC01D2F887
:106130000052CAB282F31188013BA84294BF4FF4C7
:10614000006000201B1B184430BD00BF98170020C2
:10615000012380F851307047014BD3F80402704797
:106160009817002001207047014BC3E98221704736
:1061700098170020014BC3E984217047981700202D
:1061800070477047212838B505D0222827D020280D
:106190000FD0002038BD0029FBD0072AF9D1174BBA
:1061A0001C6818795A799B790C6008714A718B7157
:1061B000EFE70029EDD0072AEBD111480F4B0C79FE
:1061C000D0F80C224D791C718C7909685D719C7135
:1061D0001960002ADDD0D0F808029047D9E70029DD
:1061E000D7D0022AD5D1064AD2F81432002BD0D00B
:1061F0000988D2F810029847CBE700BF00000020C2
:1062000098170020002070470A2303800048704739
:106210000800002064230380004870471400002019
:10622000012901D000207047014BD3F89030184766
:1062300000000020012901D008F03CBB014BD3F83D
:106240008C30184700000020014BD3F888301847E5
:106250000000002010B40B7803F00303012B0A4662
:10626000044605D0022B0BD000205DF8044B70478C
:106270008B8843B9204611465DF8044B0BF068BA91
:106280008B88832BF6D0034B5DF8044BD3F880301A
:10629000184700BF0000002038B5054B0446DB6FEF
:1062A0000D4698472946204609F0C6FB002038BD18
:1062B0000000002038B5054B04469B6F0D469847FB
:1062C0002946204609F0EAFB002038BD00000020E6
:1062D0000023F0B452004F1C1E46B0F1204F4FEA8D
:1062E000107404F130052ABF3734CD54CC54FE5419
:1062F00002339A424FEA0010EFD1F0BC704700BF62
:1063000008B50248FFF7A2FE014808BD641306085D
:10631000C017002008B50248FFF798FE014808BDE5
:1063200074130608C01700200B4A0C4B10681B683A
:106330001A22C0180A8001D10948704710B5094BCC
:1063400009491C680822FFF7C3FF204607490422B9
:10635000FFF7BEFF024810BD9075FF1F9875FF1F25
:10636000B00000209475FF1FB2000020C200002082
:1063700008B50248FFF76AFE014808BD8013060809
:10638000C017002008B50248FFF760FE014808BDAD
:106390008C130608C0170020042301480B807047A7
:1063A000CC000020A0B182680D4B12B107229A7078
:1063B00070471978DA6003294FF004000CBF802180
:1063C0004FF48071C3E901111A611A759870704712
:1063D000034B41F2E47101225A545A70704700BFD6
:1063E000506F00200378022B10D0006908B90120FB
:1063F00070470C4B1B78032B0EBF0B4B80B24FF634
:10640000F773984294BF0020012070470549436804
:1064100041F650028A58B3EB422F2CBF01200020D6
:10642000704700BF506F0020F7FFFF0F0378022B6B
:1064300014D030B4104A4368006941F6480402F5AC
:10644000C2511559096841F63C042B4012595B0AA8
:10645000023801FB0030104430BC7047064B4268E4
:1064600041F6340141F630005958185800EB41000C
:1064700000EB5220704700BF506F0020004870476B
:10648000E8180020034B93F84C01032894BF002028
:106490000120704798170020836D1B6A5B681B788A
:1064A000FF2B0AD190F8D030002B03F1FF3380F896
:1064B000D03014BF0120022070470020704700BF79
:1064C000034B93F84C01003818BF0120704700BF00
:1064D000981700202DE9F843884600294FD0471827
:1064E000284C07F1FF39461E8025EFF3118185F313
:1064F0001288D4F8FC21D4F80002D4F8FC31D4F886
:1065000000C2C9B281F31188634594BF4FF40063A0
:106510000023121A1344012B1AD1012039F05EF91D
:10652000EFF3118185F31288D4F8FC21D4F800022E
:10653000D4F8FC31D4F80072C9B281F31188BB429F
:1065400094BF4FF400630023121A1344012BE4D0CC
:10655000EFF3118285F31288D4F8003216F8011F88
:106560002344D2B283F81812D4F800320133C3F3B3
:106570000A03C4F8003282F311884E45B5D1404673
:10658000BDE8F88398170020F8B590F85050002324
:1065900080F85030D5B10F4E96F88C2C032A17D1C5
:1065A000D6F8C47C00F13C0429462046FFF792FF50
:1065B000D6F8C43CDB1B322BA5EB0005044401D804
:1065C000002DF1D1B5FA85F04009F8BD0120FCE7B6
:1065D0001846FAE798170020002280F85120D3E7E8
:1065E00090F85020531C0244DBB280F8503082F8FF
:1065F0003C1090F851200AB1132B00D9C4E7704722
:10660000F8B50C4E96F88C3C032B0D4614460FD172
:10661000D6F8C47C002C0BDD21462846FFF75AFF34
:10662000D6F8C43CDB1B322BA4EB00040544F1D9A3
:10663000F8BD00BF9817002010B5134A134B8CB05B
:106640000821069302F5C070002382F8F8110DF1BD
:10665000070401226944CDE90733CDE903420293DF
:106660008DF8143009930B938DF828203CF096FA9E
:1066700007483CF0B1FC9DF80700A0F1FF00B0FA1C
:1066800080F040090CB010BD98170020A9600008E8
:10669000181900202DE9F04103792C4C002B14BF70
:1066A000012200228AB084F8782104D184F84C3188
:1066B0000AB0BDE8F081054604F5C07795F90010F1
:1066C00038463CF08BFBAD789DBB214B2148C4F88C
:1066D00088514FF00108C4F8F43184F88C813CF003
:1066E000BFFB1D4E03464FF47A70A4F8843139F095
:1066F00075F8D4F888013BF045FF0FCE6D460FC505
:106700000FCE0FC596E8030085E8030069463846BA
:106710003CF044FA38463CF05FFCD4F8C42C84F8D2
:106720004C810023C4F83C2184F840310AB0BDE814
:10673000F08128463BF064FE054608B11E23C38065
:106740000D2128463BF0CCFEBFE700BF9817002084
:10675000C0180020801A0600149A050870B592B07F
:106760000B0E0D0C40F04006952204468DF80810E3
:10677000080A01A98DF805308DF80650002306257A
:106780008DF807008DF809200DF103000122039117
:1067900015498DF80460CDE90733CDE90D33CDE916
:1067A000090204938DF818308DF82C300F93119353
:1067B00005958DF840200C91FFF73EFF00B984B994
:1067C0000A4C082304F5C07003A984F8F8313CF0A2
:1067D000E5F904F5C0703CF0FFFB9DF8030012B032
:1067E00070BDFF2012B070BD99640008981700209A
:1067F00030B5114A114B8DB002F5C07401460693B5
:106800002046002382F8F8110DF10705012202A9A4
:10681000CDE90733CDE9035202938DF81430099383
:106820000B938DF828203CF0B9F920463CF0D4FBBE
:106830009DF807000DB030BD98170020996400083E
:1068400070B51D4D90B00024FD2201260DF103030B
:1068500001A905F5C0708DF803200693CDE9014428
:10686000CDE90A44CDE90C44C5F848418DF8104003
:10687000059407948DF824400F94039608968DF89C
:1068800038603CF08BF905F5C0703CF0A5FB304654
:10689000FFF7AEFFFF2809D0D5F8C43CC5F83C315E
:1068A0002046092385F84C3110B070BD0423022026
:1068B00085F84C3110B070BD9817002070B50646B1
:1068C00090B008200D46FFF793FFFF2823D0FE2845
:1068D00002D0022010B070BD00240222012301A9C1
:1068E0000E4808928DF83830CDE90544CDE90A44C8
:1068F000CDE90C440296039501948DF8104007945D
:106900008DF824400F943CF049F904483CF064FBB6
:10691000204610B070BD012010B070BD18190020C5
:1069200010B5074C04F5C0703CF056FB0A2038F057
:1069300049FFD4F88801BDE810403BF023BE00BFFA
:10694000981700202DE9F84F4D4B984210D003F5D1
:1069500068530833984255D04A4B0020A3F8300DB5
:10696000A3F83C0DC3F8340DC3F8380DBDE8F88F1B
:10697000444C454FDFF81C810223C4F8C83C04F6A0
:10698000CC460025D7F8D030AB42294605F10105A9
:1069900003D0D4F84C0D49F0A3FC94F8503DD4F842
:1069A0004C2D86F8243032623046414649F0ACFE28
:1069B000D4F8C83C9D4206F13006E3DB002384F89E
:1069C0003E3DD4F8C81CB4F8D02CD4F8D83CD4F848
:1069D000D40CB4F8DC5CC4F85C3D12FB01F203FBA0
:1069E00001F3A4F8302DB4F8D21C284AC4F8340DB1
:1069F000C4F8383DA4F83C5DA4F8321DC4F82C2D31
:106A00000120B3E71F4C204F0223C4F8C83C04F612
:106A1000CC454FF0000B4FF4806A4FF040094FF423
:106A20000068D7F8D02001265A455946B34403D010
:106A3000D4F84C0D49F054FCD4F84C1D94F8502D6A
:106A4000296285F824204FF400314FF00062C5E937
:106A50000212A5F804A0A5F81090A5F80680AE745F
:106A6000FFF7CEFA28466E7649F09AFDD4F8C82C86
:106A7000074B45F8303B9345D3DB84F83E6DA0E7E8
:106A80001971EF009817002000000020689A05088F
:106A90003C9A05081940EF000F4B07B5D3F8D420F6
:106AA0005208B2FBF1F3B3F5803F02D3012AF7D8C5
:106AB000F9E799B201904CF09BFD0849084A01980A
:106AC00041F2CC53CA5001F5AE5100220C3103B053
:106AD0005DF804EB4CF070BC00000020981700201B
:106AE0006D2402082DE9F8431B4C94F84C61042EE8
:106AF0000546894690461F4608D0082E02D0002041
:106B0000BDE8F883FFF79CFE0228F8D1D4F888018D
:106B10003BF032FD94F84231A3B969021120FFF72E
:106B20001DFEA8B9D4F8C43CC4F828910522C4E9D4
:106B30004D87C4F82C5184F84C21C4F83C31012015
:106B4000BDE8F88329461120FFF708FE0028E9D0A8
:106B5000FFF7E6FED3E700BF9817002010B50C46FC
:106B600049F04CFA58B9084B93F8DC34012B4FF03C
:106B700012030BBF054806482380238010BD122353
:106B80000448238010BD00BF902800200001002091
:106B9000EC000020D800002010B50AF0E7FC104CF3
:106BA00058B194F84C31032B13D894F84031013389
:106BB000DBB2072B84F8403103D9002384F84C3131
:106BC00010BDD4F8C43CC4F83C31012384F84C31E6
:106BD00010BD04483CF044F9A4F88401E5E700BF87
:106BE00098170020801A060070B51E4C94F84C319E
:106BF000042B06460D4609D0082B23D1D4F8443186
:106C000083422DD0FFF71CFE02281BD1D4F8880147
:106C10003BF0B2FC00213720FFF7A0FD29461720EA
:106C2000FFF79CFDB0B994F842316BB9710219209D
:106C3000FFF794FD70B90823C4E9516584F84C311D
:106C4000022070BD012070BD31461920FFF786FD7E
:106C50000028F0D0FFF764FEFFF79EFF032070BD11
:106C6000022070BD981700202DE9F8432A4C0546F4
:106C7000884617461E4694F84C01042831D008284F
:106C800007D1D4F84431AB4206D0FFF7D9FD022832
:106C9000F1D00120BDE8F883FC22204BDFF884907E
:106CA0001F4883F8E024C9F83C813BF0A7FF002887
:106CB00014BF4FF400734FF480731948C9F844317E
:106CC00009F58A713BF06AFF01220623C4E94A856F
:106CD000C4E94D7684F8302184F84C310020BDE8B9
:106CE000F883D4F888013BF047FC94F8423153B95B
:106CF00069021820FFF732FD38B994F84C31082B9F
:106D0000CAD0FE22C9E72946F3E7FFF709FEFFF7DD
:106D100043FF0320BEE700BF981700209028002003
:106D200018190020000000202DE9F047D04C94F8FD
:106D3000786194B0002E00F0958194F84C2104F510
:106D4000C07704F5B478531E082B00F2A480DFE866
:106D500013F0390062002E01A2009000B4001B0065
:106D6000A2000900FFF768FC002840F04282D4F836
:106D70003C31D4F8C42CFA33934280F08980FFF779
:106D80000BFF94F84C21DEE7FFF756FC0028EED00D
:106D9000D4F848310022012B84F8402140F240828F
:106DA000D4F84421013B511CC4E95113082284F852
:106DB0004C21A2F10806B6FA86F67609304614B0E0
:106DC000BDE8F087D4F888013BF0D6FB00210846E7
:106DD000FFF7C4FC0546FFF7A3FD012D58D1D4F8F9
:106DE00088014FF0000984F841913BF0C5FB40F267
:106DF000AB110820FFF7B2FC052800F07A810128CA
:106E000000F03C81FFF78CFD94F84121002ACED0A0
:106E1000022384F84C31D4F888013BF0ADFB94F8A0
:106E20004131022B0CBF4FF0804500250021372057
:106E3000FFF794FC29462920FFF790FC0546FFF751
:106E40006FFD2DBB94F84131022B00F0818184F855
:106E50004251D4F888013BF08FFB00210920FFF755
:106E60007DFC002872D0FFF75BFD94F84C21531E87
:106E700011E0D4F828014FF40071FFF71FFD01283D
:106E800000F01B81022800F02081002800F04C81D6
:106E900094F84C21531EDBB2022B0AD8D4F8C43C20
:106EA000D4F83C115B1AC82B83D9FFF775FE94F810
:106EB0004C21042A7FF47DAF80E7D4F880316D48FF
:106EC0001D6A3BF09BFE002800F01681B5FA85F59F
:106ED0006D09002DDCD004A900250DF10F0302225D
:106EE0004FF001090591384605A9CDE90B39079204
:106EF000CDE90955CDE90E55CDE91055ADF8105045
:106F000006958DF820508DF8345013958DF84890E3
:106F10003BF044FE38463CF05FF89DF80F3003F03C
:106F20001F03052B00F06E81FFF736FED4F834A165
:106F3000BAF1000F00F0DA802A46D4F83831D4F8DC
:106F40002C114846D04794F84C21FCE610214046CD
:106F5000FFF7B4FC0546002885D101217F20FFF70B
:106F6000B9F8012881467FF47EAF28460221FFF759
:106F7000B1F8002800F01E8101287FF474AF1621BB
:106F80003A20FFF7A7F801308002C4F85001FFF75C
:106F9000C7FCD4F888013BF0EFFA00210A20FFF784
:106FA000DDFB002840F0FF80032384F84C311021E2
:106FB00005A8FFF783FC00287FF46AAF9DF8213015
:106FC0009DF822109DF81C209DF815509DF8160084
:106FD0001B01DBB243EA111303F5FA63A4F8623133
:106FE000DDF81D3001F00F0184F864111BBA11099E
:106FF00002F00F0240EA052084F8601184F8612154
:107000009DF814109DF81720C4F85C31069BC4F855
:107010005831A4F8540184F8561184F85721FFF729
:107020007FFC94F8423173B9D4F888013BF0A4FA9C
:107030004FF400711020FFF791FB0546FFF770FC3D
:10704000002D7FF49CAE0C483BF00AFF0022042385
:10705000A4F884013046C4F8482184F84C3114B0B7
:10706000BDE8F087304684F84C6114B0BDE8F08785
:10707000981700201819002040787D01042304AAE5
:107080008DF8340005A96E4807930692CDE9099959
:10709000CDE90B99CDF814908DF82090CDF838906B
:1070A0003BF07CFD66483BF097FF9DF81330AB2B1F
:1070B00004BF022384F84131A4E6D4F83C31D4F86B
:1070C000C42C64339342BFF4E3AEFFF729FCFFF70F
:1070D00063FDD4F834514DB100221046D4F8383154
:1070E000D4F82C11A84794F84C212CE694F84C21A4
:1070F00029E684F8415185E6D4F8283194F8301116
:10710000024603EB012138464FF480733BF04AFFFF
:1071100094F830310133DBB2A3F10205B5FA85F5FD
:1071200084F830316D09D4E60190FFF7F9FBD4F80B
:107130003451019884F84001042384F84C31002D27
:107140003FF43CAED4E94A21D4F83831A8479FE651
:10715000D4F888013BF010FA29463A20FFF7FEFAEE
:1071600004A90422814601230691384605A9CDE9E8
:107170000955CDE90B5505958DF820500E950792D0
:107180008DF834303BF00AFD38463BF025FFB9F16D
:10719000000F08D1FFF7C4FB049B1BBAC3F3807335
:1071A00084F8423155E6FFF7BBFBFFF7F5FC94F896
:1071B0004C21C8E504212C20FEF78CFF0321054655
:1071C0004E20FEF787FF0C2182463620FEF782FF15
:1071D0000AF1020A431C03FA0AF309FA05F0A3FBB9
:1071E0000001430A43EAC153C4F85031FFF798FB4A
:1071F000CFE60190FFF794FB01980423064684F83C
:107200004C31DBE5D4F83451D4F8C43CC4F83C31FB
:10721000072284F84C21002D3FF4CBAD484691E77E
:1072200008D0042384F84C31FFF77AFB94F84C2102
:10723000531E30E6FFF704FB02287FF429AE12E666
:10724000181900204309012200F01F00013B86B0FD
:1072500002FA00F0042B0CD8DFE803F0161F280315
:107260000D00174BDA6D0243DA65DA6D10400190BC
:10727000019B06B07047124B9A6C02439A649A6C59
:1072800010400590059BF4E70D4BDA6C0243DA647D
:10729000DA6C10400490049BEBE7094B1A6E024332
:1072A0001A661A6E10400390039BE2E7044B9A6D36
:1072B00002439A659A6D10400290029BD9E700BF85
:1072C0000010024070B5214DD5F8E43493F8262023
:1072D000DAB11B699847E0B1D5F8E43493F824207B
:1072E0008AB105F59D6600241A19E0B29B6992F8EF
:1072F0002C10B6EC010A9847D5F8E43493F8242012
:1073000001349442F0DB5B69984795F8F834332BED
:1073100000D070BD95F8F934002BFAD0D5F8E434DC
:1073200093F82430042B1E46A8BF0426002BF0D06F
:107330000024074D234618464CF0A4FB0134E3B269
:107340009E4245F8040BF6D870BD00BF902800207F
:107350008C2D0020F0B5D0F800C0134CDCF80450A0
:1073600085B0254045EA01040A9F039344F0004498
:1073700044F490341546CCF8044019463A46064683
:107380000CF0C4F868B93168039B8D62024600971F
:10739000304640210CF0EAF8003818BF012005B053
:1073A000F0BD012005B0F0BD009800FCF8B5144F09
:1073B00004460D460AE09B69DB0602D50CF064F832
:1073C000D8B9D7F81C355B1B0A2B09D823689E69EE
:1073D000B6062A464FF00A012046ECD50020F8BD3B
:1073E000636C202100220B43636484F8402084F8FE
:1073F000411084F842200120F8BD0120F8BD00BFF3
:1074000090280020164BDB68C3F3022310B4C3F1AD
:1074100007041A1D042C28BF0424062A4FF0FF324B
:1074200002FA04F28CBF033B002321EA0201002888
:1074300001FA03F10ADB00F1604000F56140090147
:10744000C9B280F800135DF8044B7047054B00F09B
:107450000F0009010344C9B219765DF8044B704767
:1074600000ED00E0FCEC00E0284B294AD3F8D430D2
:10747000284910B5A2FB0323274CDB0C82B0002265
:10748000013BC4F8201504F5A46041F28731C4F82B
:107490002435C4F82C15C4F83025C4F828250BF081
:1074A0008FF91E4B9A6D42F020029A659B6D03F096
:1074B0002003019306213720019BFFF7A3FF184902
:1074C000D4F82035174A4FF400004860D96841F0DD
:1074D0000101D96099680A40062A06D0B2F5803FBA
:1074E00003D01A6842F001021A600F4B0F49D3F81B
:1074F000A82C002003F50674C2E98114C2F810021A
:10750000C3F81402C3F80C0202B010BD0000002042
:1075100083DE1B430014004090280020001002402E
:1075200000E100E00700010098170020F02D002086
:10753000F0B589B00D4604463BF0A4F9031E1CDBF0
:10754000164A174E1A4406EB830392F88070C3F86C
:10755000605D20463BF0BCF93E44A588114A206896
:10756000002303A9CDE905330793CDE903520CF0BD
:1075700079F896F8A03DF02B01D809B0F0BD0A4B80
:107580000321D8570190F02386F8A03DFFF73AFF7A
:1075900001980DF021F809B0F0BD00BF149A05085C
:1075A00090280020000011100014060810B4B8B193
:1075B0000D4CD4F8A83D102B05D15DF8044B0521E6
:1075C00000203BF027B903EB4302224482F8AD1DB3
:1075D00001210B4482F8AC0D82F8AE1DC4F8A83D21
:1075E0005DF8044B704700BF902800208078202170
:1075F000DCE700BF2DE9F04FDFF8A4B089B05422DA
:1076000000210BF6DC5052F059F840F24C421B4975
:107610000BF5636051F0F0F8194B93F884211AB11F
:1076200093F885218BF8DC2D93F886211AB193F815
:1076300087218BF8002E93F88A211AB193F88B21B9
:107640008BF8F42D93F888211AB193F889218BF8DF
:10765000E82D0C490C4A0D481288098800880C4D09
:10766000C3F8A0110B4C0C4EC3F89C01511A002713
:107670000A4A92FBF1F2C3F8A42118E0A49A050883
:1076800088390020A875FF1FCA75FF1FAA75FF1F44
:10769000000021C3149A05086C36002080380100D0
:1076A000902800200137072F06F10C0628D0042F60
:1076B00000F04B81052F00F0708130780028F1D068
:1076C000BA4A00230133312BECD012F80C1F884248
:1076D000F8D103EB430CB64904EB8C0C002208688C
:1076E000DC3128B19CF8DD041041C00700F178843A
:1076F0000132052AF3D10137072F06F10C06D6D146
:10770000AC4CDFF8DC82DFF8DCA2DFF8DC92AA4FB9
:10771000AA4E002554F8083C002B00F0AF80D4F8A6
:10772000D020002A00F0AA80DC2202FB05B22360F0
:10773000D2F8941E41F00201C2F8941E9A6812F029
:10774000040F9A6840F05C81110700F15981DA68F2
:1077500042F40012DA6020460CF04CFF002800F0E2
:10776000FB81236896495A68DFF880C202EA080262
:107770005A6040F2FF721A609A6822F0A0429A6042
:107780009A6842F000529A60DA6802EA0A02DA6005
:10779000DA6842F00042DA601A6902EA08021A6105
:1077A0005A6902F080425A619A6902F078429A61FD
:1077B0001A6A02F0F0221A625A6A02F0FF225A6232
:1077C0009A6A02F0FF229A621A6B02EA09021A63AD
:1077D0005A6B3A405A639A6B3A409A63DA6B22F4D6
:1077E000FB6222F00702DA631A6E0A401A665A6ECA
:1077F0000A405A669A6E0A409A66DA6E1140D96655
:10780000D3F8A02002EA0C02C3F8A020D3F8A420E9
:1078100002EA0C02C3F8A420D3F8B02002EA0C025A
:10782000C3F8B020D3F8B420B3F1A04F22F07F12F8
:10783000C3F8B420634A00F05582934200F05D82A1
:10784000614B6249624A9B68896892680B431343A3
:10785000DB0704D45F4B9A685F490A409A60DC22D8
:1078600002FB05B20023C2F8983EC4E91933C2F8FE
:10787000943E84F85830002840F097800135052D5B
:1078800004F1DC047FF446AF0024DFF8649127465E
:1078900059F8743C23B1D9F86430002B40F0D580FE
:1078A0000137052F09F1DC09F2D10026404DDFF840
:1078B00044814A4F34462B68002B00F0F681D5F8FE
:1078C000D820002A00F0F181A968B1F1A04F00F0A2
:1078D0001282DFF8F0C0394B3E48614518BF0346BD
:1078E0009B68886840072FD495F8600001282BD04A
:1078F00003F01F030120092B85F8600000F2648368
:1079000040F22120D840C00740F15E83886810F023
:10791000010040F04281D1F808E0DFF8DCC01EEA47
:107920000C0F00F02081DC2303FB04B4D4F8943E58
:1079300084F8900E43F01003C4F8943ED4F8983EB7
:1079400043F00103C4F8983EFEE74FF0000C624696
:107950004FF48031AE46DC2303FB02B23078D2F81C
:10796000083F86F801C00B434FF0070C0121C6F811
:1079700004E0C2F8083F86F80AC0717200283FF49C
:1079800091AE3AF03DFDFB1DDBB210B100228371D8
:10799000C27103213AF0A4FD84E64FF0000CDFF839
:1079A0005CE062464FF48021D5E7FEE7F09E0508D3
:1079B000C0360020C8360020200882E000030050B6
:1079C00000F0FF03000100500004005000050050CB
:1079D0000006005000070050E01000FEC0FFFF7FCF
:1079E00000F8FFFF04000080300882E00000F8FF8C
:1079F00034370020FEF0FFFF3F000080000084CB02
:107A0000DA68920105D5A18B40F20112914200F093
:107A1000C5829A68520703D59A68910740F10A8493
:107A20009A68120703D59A68910740F1AE820C213B
:107A3000DBF81C0505E0DBF81C25121A052A00F20C
:107A40003D819A680A42F6D181E619F8700CFFF779
:107A5000F9FBD9F8643059F8742C49F86C2C990862
:107A60005A0801F0333102F077320A44D9089B1AE0
:107A700001F011329B1A03EB131303F00F33FF22B3
:107A8000B3FBF2F2C2EB02229B1A002249E919224F
:107A900049E910224FF40020DC2149F84C3C49F818
:107AA000680C012349F85C2C09F8502C09F8482C83
:107AB00009F82C2C059201FB07B108204FF48052E5
:107AC00049F8583C09F84F3C09F8343C49F8540C43
:107AD00049F8302CD1F8943E002B00F07C8259F804
:107AE0006C3C9A68960005D59A6822F0204222F0F4
:107AF0003F029A609A68D50016D49A6883498448F0
:107B0000D1F8D410B1FBF0F122F0104222F03F0284
:107B100042F080529A600591059A2AB1059A013A7D
:107B20000592059A002AF9D19A68D00040F11D8289
:107B300000259A68510740F1FD80DC2303FB07B361
:107B4000D3F8943EDC2303FB07B3D3F8942E42F022
:107B50001002C3F8942EFEE7DC2303FB05B30122D9
:107B6000C3F8942EFDE58868384040F00100886035
:107B7000DBF81CC50EE08868C00704D4886838406C
:107B800040F001008860DBF81C05A0EB0C00022827
:107B900000F2EF830868C007EDD54FF0DC0C0CFB5A
:107BA00004BCDFF88CE1DCF8940E00EA080040F435
:107BB00080707145CCF8940E00F01E8255488142C9
:107BC00000F01A82DC2303FB04B3D3F8940E20F4F4
:107BD0008010C3F8940EDC2303FB04B34FEA920E2B
:107BE000D3F8940E10F480501CBFD3F8980E20F0F8
:107BF0000600C3F8980EE86D474BC362474B03631A
:107C0000474B43631C230B60D1F804C053080EF0AC
:107C1000333E03F0773373444FF000094CF0100EFD
:107C20004FEAD20C85F86090D31AC1F804E00CF04A
:107C30001132D1F80CE09B1A03EB1313394A03F00D
:107C40000F334EF0010E4FF0FF0CB3FBFCFCCCEBFE
:107C50000C2CA3EB0C03C1F80CE002EB4602403104
:107C60000CF052FBAA6893683B4043F00403936016
:107C7000002840F07C83D5F8D8302B4A5908980862
:107C800000F0333001F077310144D8085B1A00F07E
:107C900011315B1A03EB131303F00F33A2FB031232
:107CA000D209C2EB02229B1A1E440134052C05F1B5
:107CB000DC057FF400AE09B0BDE8F08FDC2202FBEA
:107CC00005B20120D2F8941E41F01001C2F8941EB2
:107CD000D2F8981E0143C2F8981EDA6842F40012E6
:107CE000DA603EE59B6892681343DB073FF5B7AD6A
:107CF000B2683346B0E50D4BF2E54FF0A042926812
:107D00009B681343DA07F3D5A9E500BF0000002004
:107D1000400D03000005005011EC00080DEC0008B8
:107D2000F9EB0008C05601208180808000030050DC
:107D300000010050DC2202FB07B2D2F8941ECE06EE
:107D40003FF500AFD2F8941E21F4817141F0020199
:107D5000C2F8941E9A68D2071AD4B3F1A04F00F06B
:107D60007382CB4A934200F07882CA48CA4902F52E
:107D7000407292688068896802430A43D60707D434
:107D8000C648826859F8681C22F47C120A43826053
:107D900059E9191059F8302C02430A4319F84F0CCD
:107DA00019F8481C42EA4032012942EA014204D152
:107DB00059F8441C013942EA414259F8401C29B1A2
:107DC00059F83C0C01F4787101430A43DE68B44968
:107DD00059F8380C31400A43DA601A6922F04062DF
:107DE00002431A6199689A6801F0040102F00802DE
:107DF0000A4327D1D96819F8342C19F8506C59F86E
:107E00005C0C21F48041520021F0020142EA8632EA
:107E10000A43DA601A69002840F0898222F480322D
:107E20001A61D3F8C02022F47F5222F03F02C3F837
:107E3000C02019F82C2C012A00F086821A6922F041
:107E400001021A6159F8582C012A00F067821A6B56
:107E500022F00F021A63DC2606FB07B606F69468CA
:107E6000D6F8943E23F0030343F00103C6F8943E92
:107E7000002D40F0DE8119F8143C0695012B00F02E
:107E8000D781A9F16C0303931846012309F8143C28
:107E90000CF0B0FB002840F0C381D6F8943E814935
:107EA00023F4885323F0020343F00203C6F8943E00
:107EB00059F86C2C936823F0404323F03F0343F0C0
:107EC000004393609368002BC0F21282DC2101FB17
:107ED00007B10022D1F8943E734DDFF8C0A1DFF85E
:107EE000DCC1009223F0030343F00103C1F8943E88
:107EF000012609F8142C06E0009B0133072B0093A0
:107F00000CF10C0C7CD09CF80930002BF4D09CF9BF
:107F10000130BB42F0D1654B8CF8084003EB860280
:107F200019F8143C611C4FF00008D2F82847019161
:107F3000721C012B0292CDF81C80DCF8042013D0B7
:107F400059F86C3C9968012009F8140C480740F175
:107F5000B780DC2303FB07B3D3F8942E83F8908E0D
:107F600042F02002C3F8942EFEE7DC2202FB07B2A7
:107F70000125D2F8941E41F01001C2F8941ED2F8E7
:107F8000981E2943C2F8981ED3E59A6822F0004251
:107F900022F03F0242F020029A6048E51A6850063B
:107FA00007D4434A02E0013A3FF488AE1968490613
:107FB000F9D540221A609A68500703D59A6890074D
:107FC00040F15381042133E5DC2303FB04B4002397
:107FD00084F8903EB8E4C1F8983E09F8143C7EE578
:107FE0000C2101FB0343012193F8E404D3F8E0E4FE
:107FF00081404FFA82FCAEE4002B7FF4ECADE1E56A
:108000002C4B3B44FEB293F91020314602203AF04B
:10801000E9FCD0F80480054640463AF011FD264AB6
:108020002421431E01FB0323864693F88011002977
:108030007FF441AE01364FF0060C83F8816183F87E
:1080400080C100283FF437AEAB68C9F80430802304
:108050002022C9F810304FF480764FF480534FF44B
:108060008065C9E90723C9E90211C9E90565C9F8AD
:1080700000804CF061F948460CF0A2F948460CF03B
:1080800013FA039B49F8189CC9F8283008E400BF8C
:10809000000100500005005000060050000700508D
:1080A0000740F0FF01DE040000030050149A0508A9
:1080B000000040A30C3B0020000000206C36002094
:1080C0004FEA941E0EF00C0E03F1300604F01F046C
:1080D0005EF806801F20A040C2F3846101FA04F418
:1080E00028EA000020434EF806009C68986804F0D7
:1080F000040400F00800204354D1D60D03F1140409
:1081000006F00406C2F3045856F804E0072000FA0B
:1081100008F040EA0E003051586920F000405861E4
:10812000D868186E186EC2F31204C0F38460002C75
:1081300000F0B18092FAA2F1B1FA81F1884200F028
:108140009D80596E596E03F16000C1F3846103F1A3
:10815000640492FAA2F6B6FA86F68E4203D121683A
:1081600021F0004121608168816800F10804C1F3B9
:10817000846192FAA2F6B6FA86F68E4203D121689D
:1081800021F000412160C168C4680C30C4F38464EC
:1081900092FAA2F1B1FA81F1A14203D1016821F072
:1081A000004101609968C90707D4D3F8B010C2F341
:1081B000120021EA0001C3F8B01099490A4229D0FF
:1081C000B3F1A04F00F0278196498B420CBF29469E
:1081D0005146954C8868A24200F0E07100F0F780AB
:1081E000924CA24200F0F380914CA24240F0D78022
:1081F000C6010FD4B3F1A04F00F0CF80894A93425B
:108200000CBF2A465246936823F0E0730B4343F0B9
:10821000807393600023DDE9014609F8143C6BE6A6
:10822000D8F8003086F8905E43F01003C8F80030AC
:10823000FEE790E49A6822F0004222F03F0242F00A
:1082400010029A60FFF7ECBB76499A6889680A4386
:10825000D1073FF59DAD774893E54FF0A042926876
:1082600099680A43D207F6D592E59A6822F000424F
:1082700022F03F0242F010029A60A3E6196E1846FF
:1082800021F0004140F8601F596E596E03F16404FB
:10829000C1F384615DE781421DD0586E5C6E03F1CD
:1082A0006000C4F3846403F16406A14203D134681E
:1082B00024F00044346084688468C4F38464A14278
:1082C00003D1846824F000448460C468C4680C301E
:1082D000C4F3846460E71C6E184624F0004440F840
:1082E000604F5C6E5C6E03F16406C4F38464DCE78B
:1082F000069B01330693069B8B427FF6E3ADDC239E
:1083000003FB07B30021D3F8942E83F8901E22F0CC
:10831000120242F01002C3F8942E89E7196B59F843
:108320004C2C21F00F01013A0A431A6393E542F401
:1083300080321A61D3F8C02022F47F5222F03F022B
:108340000243C3F8C02074E559E90A211E6959F8AF
:10835000200C26F4FF660A4326F0040659F81C1C7C
:10836000324302430A4342F001021A616AE5FFF711
:10837000EBBADC2303FB04B40022D4F8943E84F867
:10838000902E43F01003C4F8943ED4F8983E43F086
:108390000103C4F8983EFFF7D7BA2A4633E7264CC4
:1083A000A2427FF437AF44023FF534AF1D4A9342F7
:1083B0003FF430AFB3F1A04F0CBF2B4653469A6841
:1083C00022F0E0720A4342F480029A6022E700023F
:1083D0003FF520AFB3F1A04F1FD0184A93427FF46E
:1083E00019AF50468268164B164CD3F8D430B3FB05
:1083F000F4F322F0E0720A430C2142F4000201FB84
:1084000003F38260079302E0079B013B0793079BFE
:10841000002BF9D1FEE62946DBE62846E2E700BF5D
:108420000000088000010050000021C31000C0902F
:10843000000052C700030050000084CB000600502B
:1084400000000020400D0300F0B5D0F800C0134C30
:10845000DCF8045085B0254045EA01040A9F0393E7
:1084600044F0014444F490341546CCF804401946D5
:108470003A4606460BF04AF868B93168039B8D62AC
:1084800002460097304680210BF070F8003818BF84
:10849000012005B0F0BD012005B0F0BD009800FC42
:1084A0000128B5EEC00A10D0F1EE10FA0BDD9FEDF9
:1084B000177ADFED177AE0EE077AFCEEE77A17EE2F
:1084C000903A98B2704700207047F1EE10FA0BDD39
:1084D0009FED107ADFED107AE0EE077AFCEEE77A96
:1084E00017EE903A98B27047EDD5F7EE007A30EE7D
:1084F000270A9FED0A7ADFED0A7AE0EE077AFCEEB2
:10850000E77A17EE903A98B2704700BF00E0F9445E
:108510000000404200C079440000834400C079C498
:1085200000E0824470B5464E96F8A84104EB8403FF
:1085300006EB8303A50093F8AC31032B6ED8DFE87C
:1085400003F059291E02254406EB8505D5F8B00134
:10855000002870D196F8FC319C425FD0013404F0C1
:108560000302934286F8A82158D002EB820406EB5E
:1085700084040223C4F8B00184F8AC3170BD2B1917
:1085800006EB8303D3F8B02172B1013AC3F8B021EE
:10859000002070BD2B1906EB8303D3F8B021002A0D
:1085A000F3D1022283F8AC21254406EB850595F82A
:1085B000B831013BDBB285F8B8318BBB214B96F863
:1085C000FC61D3F8A413D5F8B401621C02F00302D5
:1085D0004B1E0324B242034485F8AC41B3FBF1F0D7
:1085E000C5F8B0011AD0994218D80138C5F8B001C1
:1085F000012070BD3BF0CCF980B1124B2C44D3F874
:10860000A42306EB8404012102F51C5384F8AC1169
:108610000F33B3FBF2F3C4F8B03170BD012070BD6D
:10862000084BD3F8A423012002F2E733B3FBF2F3A3
:10863000C5F8B03170BD0138C5F8B001002070BD7B
:10864000883900200000002090F83C30012B00F019
:10865000D381F0B40223012480F83C4080F83D30FF
:10866000142A4ED8DFE812F056004D004D004D00A0
:10867000A0004D004D004D0080014D004D004D000B
:10868000EC004D004D004D0038014D004D004D00F7
:1086900015000368D1F808C01D6A0F68B04E25F4B4
:1086A00080151D621C6A5D681A6D22F0807224F4C8
:1086B000001422F4E042B34244EA0C5442EA072296
:1086C00008D006F50066B34204D006F54066B34212
:1086D00040F0AC814E6925F4802545EA86254E6838
:1086E0005D601A65DE641C621C6D0D6944F40064F3
:1086F0001C65196D21F4806119651A6D42EA052225
:108700001A650023012280F83D2080F83C30F0BC3F
:10871000184670470368D1F808C01D6A0F68904E6C
:1087200025F001051D621A6A5D689C6924F4803495
:1087300022F0020224F07304B34242EA0C0244EA3B
:10874000070413D006F50066B3420FD006F5406665
:10875000B3420BD006F58066B34207D006F58066BB
:10876000B34203D006F50066B3420BD1CE6822F0C7
:1087700008023243D1E9056725F440753E4322F0F3
:10878000040235434E685D609C615E631A629C69B9
:108790000D6944F008049C61996921F00401996114
:1087A0009A692A439A61ACE70368D1F808C01D6A48
:1087B0000F686B4E25F010051D621C6A5D689A6992
:1087C00022F0807224F0200422F4E642B34244EA0C
:1087D0000C1442EA072200F0218106F50066B3423C
:1087E00000F01C8106F5E056B34200F03F815D4E7B
:1087F000B3420BD006F58066B34207D006F580661B
:10880000B34203D006F50066B34206D1D1E905674D
:1088100025F440653E4345EA86054E685D609A61F1
:108820009E631C629C690D6944F400649C619969B3
:1088300021F4806199619A6942EA05229A6160E7B0
:108840000368D1F808C01D6A0F68454E25F48055AD
:108850001D621C6A5D68DA6922F0807224F400549B
:1088600022F4E642B34244EA0C3442EA072200F022
:10887000CD8006F50066B34200F0C88006F5E056EC
:10888000B34200F0EB80374EB3420BD006F5806662
:10889000B34207D006F58066B34203D006F5006602
:1088A000B34206D1D1E9056725F440453E4345EA88
:1088B00086154E685D60DA611E641C62DC690D69B4
:1088C00044F40064DC61D96921F48061D961DA691A
:1088D00042EA0522DA6114E70368D1F808C01D6A8C
:1088E0000F681F4E25F480351D621C6A5D681A6D85
:1088F00022F4803224F4003422F07002B34244EABD
:108900000C4442EA070213D006F50066B3420FD0CA
:1089100006F54066B3420BD006F58066B34207D039
:1089200006F58066B34203D006F50066B34204D173
:108930004E6925F4803545EA06254E685D601A6566
:108940009E641C621C6D0D6944F008041C65196D61
:1089500021F0040119651A6D2A431A65D1E600BF9A
:10896000002C0140004001400368D1F808C01D6A96
:108970000F68424E25F480751D621C6A5D68DA69D5
:1089800022F4803224F4007422F07302B34244EAE9
:108990000C2442EA070231D006F50066B3422DD01E
:1089A00006F5E056B34251D0354EB3420BD006F532
:1089B0008066B34207D006F58066B34203D006F561
:1089C0000066B34206D1D1E9056725F440553E4320
:1089D00045EA06154E685D60DA61DE631C62DC699B
:1089E0000D6944F00804DC61D96921F00401D96102
:1089F000DA692A43DA6184E602207047CE6824F4FB
:108A0000006444EA062424F48064DCE7CE6824F49D
:108A1000004444EA063424F4804443E7CE6824F05A
:108A2000800444EA061424F04004EFE606F580666C
:108A3000B3423FF44FAE06F58066B3423FF44AAE10
:108A400006F50066B3427FF44AAE43E6CE6824F4EE
:108A5000006444EA062424F48064A5E7CE6824F484
:108A6000004444EA063424F480440CE7CE6824F041
:108A7000800444EA061424F04004B8E6002C0140C7
:108A80000040014003689B0AA3F58013542B00D9D2
:108A900070470D4A134493F844370B2BF8D830B580
:108AA0000A4C427985B0002914BF0025022504EB49
:108AB0008310694600230124CDE90054CDE9023337
:108AC00009F02EFD05B030BD149A0508883B002042
:108AD0000D4BD3F8D42010B5520804464FF6FF7161
:108AE0004AF086FD20460021FFF7CCFF0749084ADF
:108AF00041F2D0532046CA5001F5AE51BDE81040B6
:108B0000002210314AF058BC0000002098170020C5
:108B1000A5EB01080F4B104AD3F8D430A2FB032376
:108B20009B09013BB3F1807F11D210B50B4A0C4970
:108B3000536000240723F02081F8230094600F2164
:108B40004FF0FF301360FEF75DFC204610BD0120A2
:108B5000704700BF00000020D34D621010E000E01D
:108B600000ED00E003681878012801D0002070476C
:108B7000074A93F90430642101FB032393F89925F4
:108B8000202AF4D1D3F858359869C0F3C030704723
:108B90008839002010B50C4CD4F8D0361B78022B45
:108BA00010D1D4F8D80639F0EDFCD4F8D80608B1C5
:108BB0002123C380012139F093FC04483AF050F995
:108BC000A4F8D40610BD00BF883900208096980014
:108BD00030B583B00D46012301460DF1070204466E
:108BE00007483AF0BFFA9DF8072035EA020304D09F
:108BF00003482A4321463AF089FD03B030BD00BF47
:108C00005840002038B505460A460C460648294615
:108C10003AF096F945F0800103483AF039F9231A01
:108C20005842584138BD00BF5840002070B50D4C27
:108C3000D4F8D0562E78022E134607D00A460146A5
:108C400004F5DA60BDE870403AF08CBA2A6A0AB1DD
:108C5000002070BD0A46014604F5DA603AF040F99A
:108C6000012070BD8839002003681B78022B4FF06B
:108C7000010201D03AF0A4BC3AF08AB913B53A4CDB
:108C80000023D4F888278DF80730137803F0FD010E
:108C9000012905D194F88C1711B90C2184F88C178F
:108CA000022B1ED0032B2ED001220B212F4848F07F
:108CB0005BFB042036F092FD2C4801230DF10702E6
:108CC000002148F073FB002839D09DF80730482B6D
:108CD00035D1274BC4F87C37264BC4F8803702B017
:108CE00010BDD4F8900739F04DFCD4F8900708B1C6
:108CF0003423C380012139F0F3FB1F483AF0B0F868
:108D0000A4F88C07D0E7D4F8183C506846F2A811B4
:108D10001961002380F868301222372148F0F7FAF1
:108D2000D4F888370D225868242148F0F0FAD4F896
:108D30008837302258686A2148F0E9FAB4E7D4F855
:108D400088371A78022A03D0032A07D00020C6E702
:108D5000D4F8900739F002FF0020C0E758681022CD
:108D6000372148F0D4FAF1E788390020104100207B
:108D70000B1405088D1405088096980030B58DB049
:108D80000446FF21002301228DF807100DF107058D
:108D900002A904928DF814208DF82820CDE9025301
:108DA000CDE90633CDE908330B9339F0F7FE22689D
:108DB000136A002BFCD10DB030BD00BF2DE9F0418E
:108DC000604F614C07F65C7300254FF4F072064665
:108DD00088461846202187F8585F87F8595F50F079
:108DE0006DFC4FF4F072202100F5F07050F066FC3D
:108DF000322036F0F3FC94F82532002B00F09680F8
:108E000094F8261204F50A7039F0E8FF002800F003
:108E10008D8094F8250239F0F3FA0546C4F8300243
:108E200039F0A0FB002800F081800DB12323EB80F6
:108E30000D21284639F054FBD4F8300239F0A2FB5A
:108E400042483AF00DF803464148A4F82C32FFF7A7
:108E500095FF3F488C213AF01BF81B2869D1D4F8C4
:108E60003032012287F8582F0BB12322DA8038489C
:108E700040220A213AF064F835488A213AF008F88D
:108E800094F82432C0F3801584F8A052002B46D009
:108E9000022B3DD12F4839F0E3FF0346A4F8A2028C
:108EA0002D4991F8F824182A11D12C4A2C48D2F8CF
:108EB000D420C1F8FC845208B2FBF3F2A0FB0202FA
:108EC000520BC1F80055C1F80435C1F808252048F7
:108ED000A4F82C32022200213AF032F8C82036F0F1
:108EE00071FC1B4D8021284639F0D2FF10F00200A2
:108EF000F8D17278B378317884F8A412C2F12002E4
:108F0000C3F1100384F8A52284F8A632BDE8F081ED
:108F1000144839F0A5FF0346A4F8A202C0E70B48A5
:108F200039F09EFF0346A4F8A202B9E76FF00100F2
:108F3000ECE7D4F83002202139F0D2FA4FF0FF30BC
:108F4000E4E700BF88390020804A0020404B4C00F5
:108F5000A84C0020002D31019028002000000020A6
:108F60005917B7D18096980010B58CB000234CF2F9
:108F70000502044601A9CDE90633CDE90833ADF871
:108F800000208DF8023003220B930123CDE9031258
:108F90008DF814308DF82830CDF808D03AF01CF850
:108FA000204602A939F0FAFD20463AF015F89DF85E
:108FB00006000CB010BD00BF08480023024611781F
:108FC000022902F1060204D00133062BF7D100205A
:108FD000704703EB430300EB4300704798170020F2
:108FE0002DE9F041714C724E82B0204624220021BE
:108FF00050F064FB96F8A95200236362002D38D12B
:10900000D4F82C3D53B39B6A43B36A4898478368AE
:1090100023B30388654C013B9BB2214620460022C6
:109020000678032E00F106001CD00132062AF7D183
:1090300000220878022801F1060100F09780013231
:10904000062AF6D1616A052908D0481C02FB0142B4
:10905000606202200021938010705180284602B087
:10906000BDE8F081062303FB02425388013B9BB21B
:10907000DEE796F8A80206F52C77C6F8AC7208B9B8
:109080000025BDE739F0BCF9C6F8B80239F06AFA34
:109090000028F5D02946384639F0A0FE05460028BC
:1090A000EED0D6F8AC32986804F62C525A6708B164
:1090B0002023C3800D2139F013FAD6F8AC3298681A
:1090C00039F060FA3C48D6F8AC7239F0C9FE4FF07E
:1090D0000108B8803220C4F84C7D84F8508D36F0F9
:1090E0007DFB0423D6F8AC0200270DEB03029F2181
:1090F000019739F0F5FE9DF805709DF804309DF854
:1091000006102C483F0247EA03470F43394647F011
:10911000FBFA00287FF474AF3846FDF713FC0346D2
:1091200000287FF46DAF9DF806009DF805209DF89E
:109130000710000240EA0240204A0843904219D03A
:10914000A4F8303DA4F83C3DC4F8343DC4F8383DA3
:10915000FDF7F8FB074600287FF452AF96F8A80207
:1091600039F04EF939F0FAFC3D4649E7062101FB9A
:1091700002426EE7124BC4F8303D4FF400314023F9
:109180004FF00062A4F83C3DC4F8341DC4F8382DFB
:1091900084F83E8DFCF734FF064884F8458D47F08F
:1091A000FFF9084BC4F82C3D2AE700BF98170020B0
:1091B000804A0020C4240020404B4C0021AAEF002C
:1091C000000400083C9A050808B524F0BFF839F0FF
:1091D0001BF823F0E7FF72B649F012FB114BD3F8EE
:1091E000C01C91F8280201281AD00A68B2F8583039
:1091F0006FEA43436FEA53439BB210B4A2F858306E
:10920000B2F840309BB243F43F43002443F0800364
:10921000A2F8403081F8284220465DF8044B7047A0
:10922000704700BF98170020F0B56F4C6F4E94F850
:1092300051556F4BC4F8283306F61822022104F565
:109240004A770820C4F898250022C4E9CB01C4E974
:10925000CE12C4E9D02289B0C6F8C07CC4F8482335
:10926000002D71D0032184F85115B3F8405044F219
:109270007F0129401646A3F84010002215464FF002
:10928000010C04EB4211971C81F85023A1F85E23D6
:10929000013204EB4717D2B29042C1E9D85581F8A8
:1092A00051C381F85353C7F82853EAD80022154612
:1092B00004EB421102F10A0781F85024013204EB59
:1092C0004717D2B2904281F8515481F85354C1F8F3
:1092D0006054C1F86454C7F82853E9D8002101202C
:1092E000A3F84000A3F84010A3F84410A3F85010CE
:1092F000B3F8402092B242F43F4242F080028642EC
:10930000A3F8402084F84C1384F8510559D0142355
:10931000002054259421D422A4F856344FF48A73A3
:1093200084F85C0484F85C0384F87C0384F87C048F
:1093300084F89C03A4F85653A4F87613A4F8762472
:10934000A4F8963309B0F0BD05F0FF06294D079645
:10935000EB6C84F8506543F00103EB64EB6C049113
:1093600003F00103029303274FF4C05303A94FF006
:109370009040029A0596039306970AF073F9AB6D35
:1093800043F40003AB65AB6D03F4000301930621C6
:109390001420019BFEF736F8D4E9CA30164A4FF480
:1093A0008011116084F85175B3F84010D4F844630B
:1093B00044F27F020A40A3F8402000287FF45DAF0A
:1093C0008CE784F88815B3F85420C4F8906592B2FD
:1093D00042F00102A3F85420B3F8542092B242F0B4
:1093E0000202A3F8542092E7804A00209817002038
:1093F000005C00400010024000E100E010B5194C94
:1094000094F89D0590B9184B83F87901C3F87C0155
:1094100094F8A035012B20D0D4F8A4350BB3134910
:109420005B68BDE81040A1F10C00184738F0E8FF78
:1094300094F89F250C49003A18BF012281F8792140
:10944000C1F87C010028E3D01F22C280202139F01E
:1094500047F894F8A035012BDED1054BC4F8A435AC
:10946000DDE710BD804A002098170020285000201A
:10947000A803002099B10A6B824216D9154BD3F884
:10948000EC25914221D34C3991421ED30B6B98426B
:10949000F9D38B6B9842F6D80B46184670470D4BA4
:1094A000D3F8EC150A6B904212D30B680BB9F4E7B2
:1094B0000A6B90420B4602D38A6B9042EDD951F869
:1094C0004C3F002BF4D118467047002318467047D4
:1094D0000A46D8E7804A00202DE9F047CC0143D165
:1094E0000346224A43F8082B4FF0FF324260022421
:1094F00018467E26DFF87880D8F8F0952644013E9D
:10950000051D49466FF070474FF0010A08E0A3427D
:109510001CD0631C45F8043C321B1C460435CAB100
:109520000B6BA34202D88B6BA34204D22046FFF7F9
:10953000A1FF014690B10A794B6B002AE7D1A34203
:1095400004D0E6D245F8042C631CE5E745F8047C1A
:10955000631CE1E7C8F8F015BDE8F08745F804ACF6
:10956000321B631C4946D8E78026C3E7F8FFFF0F8C
:10957000804A00200A44914217D010B40139541E89
:1095800011F8013F08225840430010F0800F08BF37
:10959000400083F0D50314BFD8B2C0B2013AF3D172
:1095A000A142EDD15DF8044B704770472DE9F047BB
:1095B000164D0746002095F9FD9505F2046684B026
:1095C00007EB010805F6A40504464FF0B60A336818
:1095D000ABB193F83830142B11D019F1020F01D030
:1095E0004B450CD1002269463046CDE90244CDE915
:1095F0000078ADF808A08DF80D4029F07DFDE0362B
:10960000B542E4D104B0BDE8F08700BF804A002035
:109610002DE9F0479AB0DDE9226ADDF89090044622
:109620000D461746984602E0206836F039F9206862
:1096300036F03EF90028F7D10146642201A850F027
:109640003DF8264B8DF80450CDF85CA00293002D18
:1096500040D0AB1E012B3FD9042D14BF00220322A2
:109660001F4B0396D3F8C43C8DF805201E440123FC
:10967000CDE9059404968DF85B3037B14246394602
:1096800007A84FF0B9F88DF85A80164E96F8E6986C
:1096900000231893B9F1000F19D196F8E508642258
:1096A00002FB006001A900F6E8004FF0A5F80123D5
:1096B00086F8E59886F8E638236843B143463A468B
:1096C000294620461AB0BDE8F04717F0C5BD1AB0CC
:1096D000BDE8F0870522C3E70222C1E7245300203A
:1096E00098170020804A0020014488420ED010B410
:1096F0000346074C074813F8012B04FB00F099427E
:1097000080EA0200F7D15DF8044B704701487047CA
:1097100093010001C59D1C811249134AD1F81C0513
:1097200005E0D1F81C351B1AB3F57A7F0FD8136901
:10973000DB03F6D413694CF2FA310B4009D11069FE
:1097400010F0010004D00121184611617047032078
:1097500070470648D0F8D0131943C0F8D013012041
:109760001361704790280020002002400000002074
:109770002DE9F04F2DED028BDFF88481DFF884A115
:109780009FED5B8A85B008F12C04A8F515690127C7
:10979000FEB218F8010B3246572133F0A3FE0546FE
:1097A000002800F08B800068A5600123B0F1804F95
:1097B00004F8283C04D04F4BC31AB3FA83F35B0977
:1097C00004F8273C49F030FC14F8273C07EE900AD7
:1097D000002BF8EE677A4FF0000314BF01214FF41D
:1097E00080714FF40052286844F8083C44E906238D
:1097F00044F8101C44ED087A49F016FCAAFB00302E
:10980000C308012218F8010C44F80C3C04ED098A45
:1098100024F81C2C24F81A2C38F0F2FDE06010B16A
:109820005723C67183716A7A422138F037FE28685F
:1098300049F0FAFB00210246284649F0D9FE14F807
:10984000273C002B45D021462B4B41F8043D0022FC
:10985000284649F0B1FD286849F024FF834670B1DD
:1098600000230121CDE901130422039269466A799C
:10987000009308F055FE6979584608F01FFFA2686A
:1098800054F8103C126899F8340A013E591EF6B299
:109890009162012300214FF0FF3C4FF40055B0428C
:1098A000C2F82CC0536144E9065124F81C3C24F84A
:1098B0001A3C44F8081C01D133F084FD0137052F10
:1098C00004F138047FF464AF05B0BDEC028BBDE851
:1098D000F08F0A48DFF830C044F8040C6360224679
:1098E000211F2846C4F800C049F066FDB3E700BF59
:1098F00000000000000C00405DCD030891CE03087D
:10990000D05300201F85EB51E9D303080C480D4BC1
:10991000D0F8501A10B40C4CC0F8403A8A1E2231CC
:10992000B0F86E3A1B01A4FB03C3DB08A3F5B063D8
:1099300022F8023F9142F3D15DF8044B704700BF1B
:10994000804A0020E1550208CDCCCCCC70B5084C43
:10995000251D2E4614F8010B2CF04CFA28B1037982
:1099600005F8013BB442F5D170BDFF23F8E700BF15
:109970000C5500202DE9F0471D4F012607F1080581
:10998000B2464FF03B094FF0000817F8010B38F0D2
:1099900037FD044690B180F80690C671FB7803F05D
:1099A0007F02012A18D013F0800F20460DD185F8D0
:1099B000048038F0E1FD85F805802C600136052E25
:1099C00005F10805E1D1BDE8F08785F804A038F07D
:1099D000D9FD85F805A0F0E71B0605D40121204636
:1099E00038F07EFDFB78DEE738F0CCFDF6E700BF0F
:1099F00014550020354BB3F8BE3A07EE103A2DE966
:109A0000F041BAEEEF7A2DED048BB4EEC70AF1EE19
:109A100010FADFED2F8AB0EE408AF0EE607AF0EEB9
:109A2000419A06DDF4EEC70AF1EE10FA45D5B0EE24
:109A3000478AB5EEC08AF1EE10FA43DDF5EEC07A42
:109A4000F1EE10FA3EDD27EE887A67EEE77AE8EE6F
:109A5000087A87EE279A1F4E1F4FDFF8848000F1A7
:109A60000C0400F19C0544E9028744F80C6CB5EE47
:109A7000C08AF1EE10FA19DDB5EEC09AF1EE10FAD7
:109A800014DD164B44F8083CC4ED038AC4ED028A89
:109A9000C4ED018AC4ED008A0421B0EE491AF0EE4B
:109AA000690AB0EE480A204645F0F2FD3034AC4277
:109AB000D9D1BDEC048BBDE8F081B0EE688AB0EE80
:109AC000689AC8E79FED029AC5E700BF804A002068
:109AD0000000000059B30408B5B2040809B3040833
:109AE00051B304082DE9F0411F4D95F82B3085F84E
:109AF000243005F1280705F12C0600244FF0050855
:109B000017F8010B08BB30600134032C06F1040682
:109B1000F6D195F82410E86AC94301F0010138F044
:109B2000B1FD95F82410286B81F00201C1F34001CA
:109B300038F0A8FD95F82410686B81F00401BDE8A9
:109B4000F041C1F3800138F09DBD38F059FC01347B
:109B500001213060E3B210B180F80680C371306833
:109B600038F0BEFCD1E700BF785B0020F0B5264C92
:109B7000A58FE58783B0E5B994F8380038F040FC4C
:109B800094F839202064003A18BF012284F8442058
:109B900048B194F83A102B22002914BF1121012159
:109BA000C28038F09DFC002003B0BDE8F04038F0E2
:109BB00071BD94F83870002238462B2133F092FCA6
:109BC0000646384638F01CFCD8B1D6B12B22E065E9
:109BD000C280727A022138F061FC00270B4AB2FB86
:109BE000F5F3C3F34F0000909BB23146019704F1A7
:109BF0004800A4F8605028F0A7FFA36C1F6084F809
:109C0000597003B0F0BD00BF785B002040420F00E8
:109C10002DE9F84F254C94F86C3084F8623004F14B
:109C20006307002680345FFA86FB0BF101085FFAB8
:109C300088F8012117F8010F42460E448A4633F096
:109C400051FC4FF00009054648B3387804F80E9CE3
:109C500004F80D9C04F80FBC04F810AC44F8045C44
:109C600038F0CEFB022118B180F806A080F80780FA
:109C70006A7A38F013FC0E4A0021284649F0B8FCF5
:109C80000C4B23600C4B221D21462846C4E90139A8
:109C900049F092FB697928684A4628F009FF082EA6
:109CA00004F11C04BFD1BDE8F88F00BF785B002031
:109CB00040420F00F12A030809F7020870B52B4C47
:109CC0002B4B94F89801C4F8903100220221C4E98A
:109CD0005422C4F85821C4F88C21A4F8942133F0FC
:109CE00001FC002836D00668054604F5CE7304F55D
:109CF000FE715A7C12B15A6896422CD018338B42AE
:109D0000F7D1002394F89801E56784F8703038F0B3
:109D100077FB08B10223C3806A7A022138F0BEFBC8
:109D20002846144A002149F063FC134A1349C4F839
:109D300080100026111F2846114BC4F88430C4F847
:109D4000886049F039FB697928683246BDE870407F
:109D500028F0AEBE70BD304649F066F9B36A094AD4
:109D60000133B0FBF3F082F8EC03CAE7785B002024
:109D700000FFFF0040420F00FC5B002031F70208AB
:109D8000CDF80208000000202DE9F04FDFF86493C1
:109D90002DED068B99F88E42032C97B0824600F287
:109DA000AC80C14E99F894720FCE09F517750FC5A6
:109DB0000FCE0FC533682B6000220123022C89F8D7
:109DC000103E89F8BC2240F01882DFEDB88AF0EE30
:109DD000689AB74AB749B84BC9F87412002FB74907
:109DE000C9F86C1216BF134600220122049239EE04
:109DF000A87AF5EE006A86EE87AAC9F87032B04BF1
:109E0000CDF80CA003F1FD0B1C460025DFEDAD7A6B
:109E10009FEDAD9A68EEA78A039BAB4240F3CE84D8
:109E20001BF801AB6F1C5FFA87F8424650460321CE
:109E300033F058FB0646002800F0D284504638F034
:109E4000DFFA606118B1032380F807808371727AAA
:109E5000022138F023FB049B002B00F0DB81B9F8D2
:109E60008C32306807EE903AF8EEE77AFCEEE77A4B
:109E700017EE908A49F0D8F8B0FBF8F202F57F426D
:109E8000FF32120CB0FBF2F2B2FBF8F307EE902AAD
:109E9000F8EE676A002026EEA87ACDE9000069EEA8
:109EA000477A9BB2E6EEA97A3146204684ED027AE3
:109EB000C4ED037A28F048FE002D00F0A681616809
:109EC0007F4B02E0A34200F0A0815A688A4203F16E
:109ED0001803F7D1012383F001030122042F237417
:109EE00062743D4604F1180496D1DDF80CA0774E5B
:109EF000774B0393C3F8E464A4E0631FDAB2032A48
:109F000000F2978099F8972201239A4289F8103E2F
:109F100089F8BC3200F0F580022A00F0EF806D4E27
:109F200099F896720FCE09F50B750B950FC50FCEEC
:109F30000FC5326866492A603A1E18BF0122664B77
:109F40000391072C81F8F924C9F83C3200F27A8198
:109F5000042C0ED999F89532604AC9F8C422012B15
:109F600005D0022B06BFB7FA87F35B09002389F8F7
:109F7000C832DFF884B1CDF81CA0ABF5DE630593E1
:109F8000ABF2F353069300230493079B049A934286
:109F900040F35F84069B9DF810A013F8016B0693B5
:109FA0000AF10105EDB22A463046032133F09AFA50
:109FB0000446002835D0304638F022FA059B586117
:109FC00010B10323C571837199F88E32089320462E
:109FD000277A38F0CBFC99F8C8320646002800F002
:109FE00038810993002B40F03781D0F80480B8F114
:109FF000000F16D0404638F023FD394A0A90431E20
:10A00000242101FB032393F8802152B90322B16874
:10A0100083F8815183F880210A9B0C91002B40F03A
:10A020004281234B2F4ADDF81CA0C9E9903200235E
:10A03000DFE00022032B89F8102E2FD9244B89F85A
:10A04000BC220393039BD3F8E434D3B10022012153
:10A0500083F824A083F8251083F826209A62BAF1A9
:10A06000000F09D02C33204A03EB0A0012F8011B21
:10A0700003F8011B8342F9D117B0BDEC068BBDE894
:10A08000F08F1A4D1A4C0FCD0FC40FCD0FC42B6893
:10A0900044F82039039BC3F8E444EDE7012389F831
:10A0A000BC320B4B0393CDE7D8A2050828293038E2
:10A0B00055C4030845FB020815F9020859C40308F2
:10A0C000145D00206F12833A00007A44D45D0020B2
:10A0D0009028002090A2050819380508C1C403087B
:10A0E0000000002051C40308085E00206CA205088F
:10A0F000D4680020785B002004640020082C00F065
:10A100004A826F4E6F4B03930FCE6F4D99F8967244
:10A1100089F88C4D0FC50FCE0FC533682B60002119
:10A120007C1A684B6948C9F8C0A2A5F1800618BF1F
:10A1300001244FF44C72049605F6743783F8F94401
:10A1400089F8BE120E467D354FF0B8FADDF810B032
:10A15000CDF810A0D9F8C032B34206F1010645DDB2
:10A1600015F8018B404633F045FA0446404638F076
:10A1700047F994F80880039B08F0010493F8F93438
:10A180000134824689F8BD420BB188F0010838F0ED
:10A19000E9F903465046002B00F0138338F072FBB8
:10A1A0006101034641F001017B6050467961C7F8C7
:10A1B0000CA087F81080F3B2BAF1000F05D04FF071
:10A1C00003028AF806208AF8073038F089F918F077
:10A1D000010F50461BD038F0CFF9FB68CBF8143094
:10A1E000042E07F120070BF1180BB3D1DDF810A0F6
:10A1F000354B039AC2F8E43424E7032C40F0BB81CA
:10A20000DFED338ADFED339AE3E5002363E638F0D0
:10A21000B9F9E2E7B0EE4A0A4CF046FE3068B0EE1B
:10A22000408A48F001FFFCEEC87A4FF6FF7317EE44
:10A23000902AB0FBF2F202F57F42FF32120CB0FB23
:10A24000F2F223E6082C7FF494AE234BC9F8C43213
:10A250008FE6002B3FF4E5AED4F81480B8F1000F80
:10A260003FF4DFAE404638F0EBFBA2691B4B0C928B
:10A27000451E242202FB05350A9095F88061382E90
:10A2800000F0A081206849F021FAC0B2002E7FF4CE
:10A29000C8AE382385F880310A9B85F88101002BF0
:10A2A0003FF4BFAE099699F8C96225680C48CBF80F
:10A2B0002881002E00F099810022034616E000BF9D
:10A2C000B4A2050890280020745D0020A068012039
:10A2D000ACC5A737ACC5A73691C403080000002061
:10A2E000445E00200132B24200F07F8119688D4245
:10A2F00003F1B803F6D1D6B2B82306FB03038BF8FB
:10A30000B5A0CBF82C3199F8C932207903F1FF3A86
:10A3100038F076F8039B93F8F92407F00103591CF1
:10A320000AB187F00107490141F00E01CBF8B810DE
:10A33000CBF80840627A38F0B1F8564500F0F38166
:10A34000089B063B0D930023CBE93F33CBE9413318
:10A35000CBE94333CBF814310BF1F80308EE103A94
:10A3600017F002034FF060020E934FEA4703CBF859
:10A37000F82003F002034FF0010200F04881CBF80F
:10A380000C31CBF8002100274FF48033CBE947375D
:10A390000A220223CBF80471CBF81821CBF8243120
:10A3A00063790C2B00F23C81C94A99F8C81202EB80
:10A3B0008302D2F80878CBF8E870002900F0188200
:10A3C000DBF82C31C3F8A880CBF82881099B002B3F
:10A3D00000F069810BF1BC000F9007F0CFFE99F8F7
:10A3E000C8320F98002B00F04B81BA4A21684FF415
:10A3F000907303FB0623DBF82C2101F57871C2F87A
:10A40000B030CBF8C0300C9BCBF8E030CBF8BC10B0
:10A41000089B082B0CBF06231223CBF8DC3000234B
:10A42000CBE932334FF400731022CBF8D4304FF421
:10A430000053CBF8C420CBF8E4308022099BCBF842
:10A44000D0204FF40062CBF8D820002B00F004811C
:10A450009DF83430CBF82881022B00F2CF809C4A43
:10A4600002EB8303089AD3F8FC37082A9A4AB2FB16
:10A47000F3F303F12303CBF8F0300CBF5F22132278
:10A48000DBF82C3158469A8049F032F999F8C832F5
:10A49000002B00F0A280099B002B00F09E8018EE9C
:10A4A000102A3946284607F039FC012F00F0CC80ED
:10A4B000042F00F03081102F00F0A081402F00F019
:10A4C000B281B7F5807F00F0BC81B7F5806F00F0F6
:10A4D000C281B7F5805F00F0C681B7F5804F00F00C
:10A4E000CA81B7F5803F00F0CE812B6D43F4006345
:10A4F0002B6505F1180009237849794AC95C12F8DF
:10A5000003C00B58042202FA0CF223EA02030B5098
:10A510002B6843F001032B600E9B002B73D02B6A3A
:10A5200043EA87072F6256450BD16B6C43F4004317
:10A530006B642B6843F080032B602B6843F00103AE
:10A540002B60039B93F8F934002B40F0DD80049AD4
:10A550000599012301328BF80F304B74042A01F165
:10A56000180304920BF59A7B05937FF40EADDDF88A
:10A570001CA00B9B3DE6002C40F08D81DFED598A3D
:10A5800059495A4A0493C9F87412594BC9F86C22B4
:10A59000F0EE689A2BE4574D99F896620FCD09F5C5
:10A5A0000B740B940FC40FCD0FC4003E52492A68A0
:10A5B000524B039118BF0126226081F8F964C9F853
:10A5C0003C3242E6206849F081F895F881318342B7
:10A5D0007FF427AD0123099365E60A989BF8B5300F
:10A5E0004749902249F08CFE59E7B82202FB0692B7
:10A5F000731CC2F8CC5289F8C9327DE68D23CBF8A2
:10A60000F03013223CE72B6A1F432F628BE7CBF815
:10A6100008314FF48073CBF8FC20CBF81031B2E650
:10A6200099F8C832CBF8E870002B7FF4C9AE1F460A
:10A630001946DBF82C21ABF80C10B2F8B43023EA41
:10A640000103A2F8B430C1E6AB6943F00803AB6183
:10A6500005F1180000234FE75FFA88F30246A3F1E3
:10A66000080128F0FF001423B1FBF3F1013107F0DA
:10A6700093FDD8F8003043F00203C8F80030E7E655
:10A68000204A0C9B0499CBF8E030582303FB0123AC
:10A69000CBF83031CBF8C0302368627934331344BF
:10A6A000CBF8BC30B4E6D8F800305FFA88F123F07C
:10A6B00001031422C8F8003028F0FF000839B1FB6C
:10A6C000F2F1013107F0A6FD0A9849F035FE81E666
:10A6D000149A0508405E012000D0121348A3050813
:10A6E0003CA305086F12833A45FB020859C40308CE
:10A6F00055C4030890A205089028002019380508C1
:10A70000591E0508406701202368627934334FF6EB
:10A71000FF7199501BE7AB6943F00803AB6105F18A
:10A7200018000123E8E600234FF0FF32ADF8443073
:10A73000129314938DF8543013925A4A52F83320DE
:10A74000954278D001330C2BF7D10020FCF77AFD2D
:10A750002B6823F001032B60089B28469A1F0D925B
:10A7600048F062FC9DF8343007EE900A022BF8EEB8
:10A77000677A4BD84C4ADFED4D6A02EB830303F254
:10A78000FC7292ED007AB8EE477A87EE870A30EED7
:10A79000260A4CF051FC089B0138082BADF8440008
:10A7A00014BF13225F22002311A928461392149389
:10A7B0008DF85430129307F07FFCC4E59A46FFF7FA
:10A7C00096BB3B493B4AC9F81412C9F80C223A49D6
:10A7D000DDF810A0C9F81012012289F8BE2208E5A0
:10A7E000364A354BDDF80CA0C9E99C32FFF780BB37
:10A7F0002D4A02EB4303B3F83C181AE7AB6943F464
:10A800000063AB6105F11800022375E69FED2C7A19
:10A810009FED260AA7EE870A4CF00EFC0138ADF832
:10A8200044001322BFE7AB6943F00803AB6105F1B5
:10A830001800032360E61C4A02EBC30393F8A00749
:10A8400084E7EB6943F00803EB6105F1180004238A
:10A8500052E69A468DE6EB6943F00803EB6105F199
:10A860001800052348E6EB6943F40063EB6105F14A
:10A870001800062340E6EB6943F00803EB6105F19D
:10A880001800072338E62B6D43F008032B6505F10C
:10A890001800082330E6DFED0B8AF0EE689AFFF728
:10A8A00098BA00BFB0A10508149A05080AD7233C3E
:10A8B00051C4030859C4030855C403081DFA02080B
:10A8C000FCF4B2346F120339F8B5534E96F8680AA7
:10A8D00096F8695A37F094FD60B12D23C38020218A
:10A8E000044637F0FDFD0A2034F06CFF204637F0B7
:10A8F000BFFF20B9494FD7F8143EDA0000D5F8BDA4
:10A90000013D092DFBD896F8674ACCB940202DF0BF
:10A910002BFF0028F3D090F9043096F8391A092B50
:10A92000C8BF143B3B440A2993F8184E66D093F8ED
:10A93000243E96F8662A002A08BF1C46002CDED06A
:10A94000204637F05DFD054608B12D23C380012167
:10A95000284637F0C5FD0121084637F0D9FE012110
:10A96000284637F08FFE3C2034F038FF00210120CC
:10A9700037F0CEFE96F8693A1BB300240021084652
:10A9800037F0C6FE0021022037F0C2FE0021284623
:10A9900037F078FE782034F015FF0121002037F0E1
:10A9A000B7FE0121022037F0B3FE0121284637F01F
:10A9B00069FE782034F006FF96F8693A01349C422B
:10A9C000DCDB96F8673A8BB9D6F8683A03F0FF13E8
:10A9D000B3F5803F93D1D7F8143E13F080538ED156
:10A9E00086F8693ABDE8F84045F070BA322034F094
:10A9F000F5FE2846002137F073FDE5E7D7F83C3E29
:10AA00005B057FF57CAF0FF0C7FA00287FF477AFC6
:10AA1000002C95D173E700BF804A0020785B0020AE
:10AA200000F14803D0ED024A90ED044A90ED037A1C
:10AA300090ED055AD0ED087AD0ED075A90ED066AF0
:10AA4000E4EE004A2430F0EE406AA5EE267A67EE86
:10AA5000E47AA4EEE57AE6EE267A00ED077A40ED98
:10AA6000067A9842B0EE640ADCD1704770B434487C
:10AA700090F8403EA3F13001092957D800F56464ED
:10AA8000224600F64F6012F8015FA5F13001092956
:10AA900004D88242F7D1002070BC7047141B022CEE
:10AAA0004ADD2848002101E010F8013B01EB81015B
:10AAB00003EB4103161A303B022E044603F0FF015C
:10AAC000F2DC214B03FB01F1A2424FF000030DD950
:10AAD00003EB830314F8016B5B00303B3344A24269
:10AAE00003F0FF03F4D1194800FB03F32E2D06D029
:10AAF0001748A0FB032301EB930070BC70470132A1
:10AB000004200024157804EB8404303D6400092DF2
:10AB100000F1FF30A4B202D82C44A4B2013210F0EC
:10AB2000FF00EFD1642202FB0433E1E700211D4660
:10AB300000F564620B46D9E7064C0021C4E700BF6C
:10AB4000785B0020B96900208096980040420F0091
:10AB5000ABAAAAAAB869002038B504460D460A4631
:10AB60000068FF214EF0AAFD21682944216038BD0C
:10AB700038B5041E0D4611DB092C24DC08461A4B9F
:10AB80001A49A3FB0423DB0803EB8303A4EB430371
:10AB90000022CB5C03704270284638BD64422D23EE
:10ABA000092C01F8013B16D80F4B1048A3FB0423D6
:10ABB000DB0803EB8303A4EB43030022C35C0B70AD
:10ABC0004A70284638BD0848A0FB04300A22C00855
:10ABD00043F00EFED3E70448A0FB0430C0080A226D
:10ABE00043F006FE0146DFE7CDCCCCCCA41306082B
:10ABF00083B50C46164605462DF082FD20462DF005
:10AC00007FFD0021204B0846002E08BF1E4637F06E
:10AC10007FFD0021012037F07BFD284634F048FEFF
:10AC2000B0B10121002037F073FD284634F038FE22
:10AC30000746204634F038FE0028FAD03946204630
:10AC400034F05CFE3846B0470021084637F060FD1E
:10AC5000204634F02DFE0028DFD00121002037F0FF
:10AC600057FD204634F01CFE01462846019134F081
:10AC70001BFE01990028F8D0284634F03FFE002141
:10AC8000084637F045FDC8E7F1690308F0B5002331
:10AC9000C1E90033C1E902330B61D0E900258DB071
:10ACA00007AEDFF898E0C2F3056C37464CFA03F0C4
:10ACB000C0073C4604D513F80E0004F8010B2746E4
:10ACC0000133062BF2D11B4CDFF874E0C2F30320F2
:10ACD0000023205C3B708DF82400C2F3073C0DF18B
:10ACE00025074CFA03F0C0073C4604D513F80E00C4
:10ACF00004F8010B27460133082BF2D100233B70E7
:10AD0000C5F3435CC5F3434409AB0846C5F34F059F
:10AD1000C2F30351CDE902150193CDE9044C02F0D1
:10AD20000F0305490096C2F3031244F0D5F80DB0A5
:10AD3000F0BD00BFF0130608CC130608F813060890
:10AD4000E413060870B5094CD4F8502E054662B1DC
:10AD50000026D4F8500E2D21013638F0EFFDAE421A
:10AD6000F7DBBDE8704039F017BD70BD785B00209F
:10AD7000074B4FF47A7003F114014FF4FA6223F891
:10AD8000040C23F8022C04338B42F8D1704700BF27
:10AD9000D06900202DE9F04FCDB2002185B00746E3
:10ADA0000846164637F0B4FC0021012037F0B0FC0D
:10ADB00037F01CFA022E09D0042E44F6C01818BF32
:10ADC0004FF49648032D06D900200BE0FF2D4FF4D9
:10ADD0001648F7D10326CE4C94F8683E2BB90020D4
:10ADE000C4F86C0E05B0BDE8F08F032E14D02544D6
:10ADF000002295F89902032132F074FB0028EED06E
:10AE0000C44DC5F8A40D037A9A07E8D4006848F049
:10AE100049FC41F2B053E85041F2C753BD4D94F89C
:10AE2000680EEE540022032132F05CFB41F2A813BD
:10AE3000E8500028D3D0006848F034FC41F2AC530D
:10AE40004FF48062E850B44BC5F8603DC5F86C2DF6
:10AE50000323C5F8702D41F2B852A5F8643D0023D4
:10AE6000AB5441F2B4524FF0010A25F802A005F5A7
:10AE7000AE5205F6A851136041F2C452C5F8741DD4
:10AE8000AB5241F2C65201F20441032EAB54C5F855
:10AE9000688DC5F88C3DC5F8803DC5F87C3DC5F88A
:10AEA000781DC5F8883DC5F8843D05F556690ED076
:10AEB000D5F8A4BD9BF8040037F0A2FAC5F8A00DA0
:10AEC000584617F07EFA5146484617F089FA322064
:10AED00034F084FC012E0AD141F2A8134146E8580F
:10AEE000FBF7DAFDD5F8A40DFDF7F2FD0BE0022E1D
:10AEF0003DD1D5F8A40D17F058FA41F2A8134146F8
:10AF0000E858FBF7C9FDC4F86C9E4FF0060A022E04
:10AF100012D0D4F86C0E34F0CBFC68B101210020C3
:10AF200037F0F6FBD4F86C0E34F0C2FC0146002872
:10AF300040F0868037F0ECFB384634F0B9FC80B145
:10AF40000121084637F0E4FB4FF0050B4FF00008F5
:10AF5000384634F0ADFC014600287AD1012037F0A4
:10AF6000D7FB042ED5D0052034F038FCCFE7032ED4
:10AF70005ED141F2C8534FF0000A05F803A05146D4
:10AF8000664820224EF09AFB8DF80FA0DFF894A1BE
:10AF90009DF80F30032B0AD96148012117F020FAE0
:10AFA00041F2A8134146E858FBF776FDABE79DF860
:10AFB0000F3003EB430304EBC30393F8AD3183B3CA
:10AFC0009DF80F3003EB430304EBC303D3F8B03118
:10AFD0003BB39DF80F30234493F8990208B3002245
:10AFE000032132F07FFA8346D8B117F0DEF99DF8DD
:10AFF0000F309AF8002003EB430304EBC30304EB88
:10B00000C201D3F8B031C1F8703E9BF80830DB07BD
:10B0100048BF012302F1010248BF81F8743E8AF85B
:10B0200000209DF80F300133DBB28DF80F30AFE711
:10B03000042E7FF468AFD5F8A40D17F0B6F94BE7EE
:10B04000D4F86C0E34F02CFC0146384634F056FC33
:10B0500068E7384634F024FC94F89E3E01468BB9EC
:10B06000242803D14FF0010384F89E3E012E04D121
:10B070003846019134F042FC0199D4F86C0E34F05A
:10B080003DFC65E7012B06D14D280CBF02230023B0
:10B0900084F89E3EEAE7022B06D13C280CBF03232E
:10B0A000002384F89E3EE1E7032B10D10A2802D941
:10B0B00084F89E8EDAE7042384F8910E84F8908E4B
:10B0C00084F8938E84F8920E84F89E3ECEE7042B8B
:10B0D00009D194F8923E84F89F0E434084F8923E42
:10B0E00084F89EBEC2E7052BC0D194F8903E94F838
:10B0F000919E94F8920E4B4516D25A1C2344484018
:10B1000084F8920E84F8902E83F8941EAEE700BF68
:10B11000785B002098170020FCA20508E869002051
:10B12000F8240020602D00208842C1D194F89F3E71
:10B1300084F89EAEF42B99D1B9F1000F96D1242159
:10B14000384684F89E9E34F0D9FB4D21384634F0C1
:10B15000D5FB3E21384634F0D1FB4946384634F021
:10B16000CDFBF421384634F0C9FBF421384634F0E5
:10B17000C5FB032E12D0D5F8A44D204648F0DEF8CA
:10B180004946204648F0F2F82079202117F0FCF8D3
:10B19000D5F8A40D4A46494648F00EF941F2A813E5
:10B1A0000022E858114648F007F901201AE600BFCE
:10B1B00030B583B04D1C009303688572C2729C69E0
:10B1C0000023A04703B030BD03685B6C0BB10221C4
:10B1D0001847704770B51D4C0968D4F8A45E1C4E22
:10B1E000D4F8A04ED6EDFC7ADFED1A6A491B00EECA
:10B1F000901A0168F8EEE00A091B60EEA70A00EE5B
:10B20000101A20EEA07AB8EEC00A1C46A0EE007A12
:10B21000B1EE400AF1EEC77A67EEA67AFCEEE77A65
:10B22000C2ED007A44F00AF89FED0B7ADFED0B7A5D
:10B23000E0EE077AFDEEE77A17EE902A002ABCBF0F
:10B2400002F50C42A032226070BD00BF785B002086
:10B25000000000202C7D8E3FA00CB34500A00C46C2
:10B2600038B50F4C94F8BF1E01F03F018B1C02460D
:10B2700001F10A0584F8BD3E84F8BA5E04F6B860B0
:10B2800084F8BB2E083121F0BFF8254485F8B60EAE
:10B2900094F8BA3E1C44000A84F8B70E38BD00BFCB
:10B2A000785B00202DE9F04F8DB0CF4CDFF84C9348
:10B2B000CE4D00904FF0000854F80B0C002800F021
:10B2C000FE8034F0F5FA0646002800F0DB81D9F85C
:10B2D000C43C44F8073CE0260023C54F04F8033C77
:10B2E000A4F10B0A06FB08F654F80B0C34F0E0FA54
:10B2F000002800F0E48054F80B0C34F0D1FA14F874
:10B30000023C5A1E83460B2A0DD8DFE812F01F00BC
:10B310003A004600530083009B00E3001701370109
:10B3200042017901910124280CD0009A3AB995F88C
:10B330004E2F824240F08281012204F8032C0D2B13
:10B34000D2D186E0012304F8023CCDE700234D284A
:10B35000C4F8C53084F8CD3084F8CE3004D05828F5
:10B3600008D004F8023CBFE7022204F8022C84F85B
:10B37000C430B9E7032304F8023C022384F8C43044
:10B38000B2E704233C2804F8023C0BD0BBF13E0F8B
:10B390000CD0002304F8023CA6E70A233C2804F85A
:10B3A000023CF3D1002304F8013C9DE7012304F89B
:10B3B000013C99E7D4F8C500BB190344421CC4F80A
:10B3C000C52083F80FB694F8CD00022A8BEA00015D
:10B3D00084F8CD1088D12378C02BDAD86278FF2A80
:10B3E00008D1052BD5D9012384F8C430072304F8EC
:10B3F000023C79E7A4F8C12000229342C4F8C93086
:10B4000014BF0523062384F8C320C4F8C52004F81C
:10B41000023C69E7D4F8C500BB190344421CC4F8D8
:10B42000C52083F80FB694F8CD00D4F8C9308BEA64
:10B4300000019A4284F8CD107FF456AF062304F839
:10B44000023C51E794F8CD308342A2D10D2304F899
:10B45000023C14F8017C002F40F0F680654B089404
:10B460000FCB04AE86E80F00D4F8C930D4F8D10071
:10B47000ADF82A7023440993B4F8C130ADF82830F0
:10B4800094F8C3308DF82C3001238DF82D303246DE
:10B4900003AB08A903972DF0FFFD48B1049B05936A
:10B4A00094F8C420544B04933146504627F024FEB0
:10B4B000039E002304F8023C002E40F0DB8008F1DC
:10B4C0000108B8F1030F04F1E0047FF4F5AE0DB00C
:10B4D000BDE8F08FD4F8C500BA190244431CC4F883
:10B4E000C53082F80FB694F8CD2094F8CE000193C1
:10B4F0008BEA020284F8CD205946D52244F04EFA58
:10B50000019B84F8CE00072B7FF4EEAEB4F8053033
:10B51000C02B3FF63EAFB4F80320A4F8C120A278B8
:10B5200084F8C32000229342C4F8C93014BF082312
:10B530000923C4F8C52004F8023CD5E6D52201460B
:10B5400094F8CE0044F02AFA94F8CD3084F8CE0076
:10B550008BEA0303D4F8C50084F8CD30BB1903444B
:10B56000421CC4F8C52083F80FB6D4F8C9309A42FB
:10B570007FF4BAAE092304F8023CB5E694F8CD3066
:10B58000434084F8CD3094F8CE3083427FF401AF4D
:10B5900054E7D4F8C500BA190244431CC4F8C530B6
:10B5A00082F80FB694F8CE000193D522594644F0A4
:10B5B000F5F9019B84F8CE00052B7FF495AEB4F825
:10B5C0000120B4F80330A4F8C120227884F8C32005
:10B5D00000229342C4F8C93014BF0B230C23C4F8D3
:10B5E000C52004F8023C7FE68F500020785B0020E5
:10B5F000804A00202CA305088046012098170020CF
:10B60000D522014694F8CE0044F0C8F984F8CE0063
:10B61000D4F8C500BB190344421CC4F8C52083F804
:10B620000FB6D4F8C9309A427FF45EAE0C2398E688
:10B6300094F8CE3083427FF4ACAE07E7232804BFF2
:10B64000022204F8032C7AE6012F4FF0000602D004
:10B6500004F8026C33E7D4F8C93008942344099302
:10B6600008A8B4F8C130CDE90A66ADF8283025F055
:10B67000C9FFEDE754F80B0C2DF042F854F80B0C11
:10B68000B0471CE714F8033C002B3FF418AFD9F87F
:10B69000C42C54F8071C521A632A7FF610AF012BF2
:10B6A0002AD0022B7FF40BAF54F80B3CC5F8543F63
:10B6B000C5F8583FC5F8603F4023A5F8683F0F4BD9
:10B6C0000F48C5F8643F0122103B85F8502F0D4A02
:10B6D000C5F85C2FC5F8503EC5F8AC3F39F060F8AE
:10B6E0004FF400502DF030FB074839F04DF885F845
:10B6F000B06F85F8B16FE2E6FDF766FDE46A002001
:10B7000008140608F9F803083E140608284A9FEDB5
:10B71000296AB2F9DC3FB2F9B60FB2F9DE1F10B4F4
:10B72000B2F9B44FE31A07EE903A02F6BC72431A2C
:10B73000F8EEE77AD2ED005AD2ED016A07EE103A40
:10B74000B4F5617FD5EE867A66EE866AB8EEC77A82
:10B7500021DD9FED196A37EE667A77EE867A174B10
:10B760009FED176AD3ED066A164A5DF8044B52F84E
:10B77000942C5A6500F5487080B2B0F5C86F88BF48
:10B78000F0EE467A66EEA77A26EE877AC3ED137A54
:10B7900083ED147A704714F5617FB7BF9FED066A99
:10B7A00036EEC77A37EE667A77EEC67AD7E700BF0D
:10B7B000785B00200000E1430000E144586B00206A
:10B7C00000000000706C00201D4991F8402EA2B3CB
:10B7D000F0B4002605463346304637461BB991F88B
:10B7E000404E2D2C23D02E2A19D0CA1800EB8000F1
:10B7F00092F8404EA4F13002092A4FEA40009CBF63
:10B80000A0F13002A0180E2B14D80133CA1892F8F8
:10B81000402E002AE2D106B14042F0BC704701330D
:10B82000002DF8D0CA182A4482F8407EDDE70123B3
:10B830001E46EBE70020F0BC70470020704700BFB9
:10B84000785B00202DE9F0410C4F0124A02318253E
:10B85000E6B2FF2B0BDCC5F11B0103F10108D7F8A1
:10B860008400DBB23246C9B2FFF7A2FC4346013D79
:10B87000EFD10134052CEAD1BDE8F081706C0020D5
:10B880001FB503AC8DF80C30009400238DF80D30FB
:10B890000FF0AEF904B010BDF8B50546172026F03C
:10B8A00095FA154C014610BBD4F8880090F8383052
:10B8B0001E3B012B02D894F895300BB134F01EF8E2
:10B8C0000E4F0026AE420ADBB4F8B6300133A4F8BE
:10B8D000B6300B4BD3F8C43CC4F8C830F8BD17F8E9
