:020000040800F2
:10000000000001209D5D0508395E0508551A0408A9
:10001000B91A0408395E0508395E050800000000B9
:10002000000000000000000000000000395E05082C
:10003000395E050800000000395E0508A1EA0308E2
:10004000395E0508395E0508395E0508395E050820
:10005000395E0508395E0508091C0408011C0408FE
:10006000F91B0408F11B0408E91B04080936000009
:10007000F9350000E9350000D9350000C53500002C
:10008000B13500009D350000395E0508395E050870
:10009000395E0508395E0508395E0508E11B04086C
:1000A000E1240508D9250508D124050801260508FD
:1000B000C9250508B9250508A9250508C544050869
:1000C000D1440508AD440508B9440508395E050862
:1000D000395E0508ED180000E1180000D518000091
:1000E000D91B0408395E0508395E0508C1240508D6
:1000F000F1240508395E0508192505088935000031
:10010000395E05086519050899250508395E050851
:10011000C9180000BD1800002925050811D90008DC
:1001200075350000613500004D350000393500009F
:100130002535000000000000000000000000000065
:10014000000000000000000000000000A9DD000821
:1001500011350000FD340000E9340000B118000042
:1001600095440508A1440508395E0508395E05086F
:10017000395E0508395E0508000000000000000037
:10018000395E0508395E0508395E0508395E0508DF
:10019000395E0508395E050800000000395E050873
:1001A000000000000000000000000000395E0508AB
:1001B000395E0508395E05080000000000000000F7
:1001C000000000000000000000000000000000002F
:1001D000000000000000000000000000395E05087B
:0801E000B45805000100000005
:1001E8000E02010002000000506301205863012044
:1001F80000000000A4B606085463012014020100A0
:100208000500000034420120606301200000000066
:10021800A6B606085C630120232001001000000038
:10022800EC6201206C6301200000000065AF040847
:10023800686301200D1001007000000010620120A9
:1002480080630120000000006D6203087C630120C8
:10025800FD0101002400000094610120F4630120E5
:100268000000000087BF0308F06301201602150094
:100278003F0000001C6101201C64012000000000F8
:1002880041AC040818640120061001003000000089
:10029800E86001206064012000000000B5AD04089A
:1002A8005C640120FB01010001000000E460012002
:1002B80094640120000000000DAD04089064012042
:1002C800FC01010009000000B05F01209C640120CE
:1002D8000000000015AD040898640120F701010032
:1002E80006000000845F0120AC64012000000000CB
:1002F800ACB60608A8640120F9010100040000005A
:10030800745F0120B86401200000000059AE0408A1
:10031800B464012011020100080000002C5F0120D4
:10032800C064012000000000B2B60608BC640120C9
:100338001212010004000000245F0120CC64012097
:1003480000000000BAB60608C86401201830010091
:1003580020000000FC5E0120D464012000000000A1
:1003680039BF0408D0640120190001001200000000
:10037800B45E0120F864012000000000BEB6060843
:10038800F4640120E803010006000000885E0120F3
:100398001065012000000000A1AE04080C650120D2
:1003A8002A02010006000000805E01201C65012071
:1003B80000000000D0B60608186501200002010000
:1003C8000B000000D45B012028650120000000001C
:1003D800BDAE040824650120FF21010005000000CE
:1003E800605B01203865012000000000CDAC0408E6
:1003F8003465012008120400140000006C5B012021
:100408004465012000000000D9AE040840650120C1
:1004180013020100040000002C4201205C65012049
:1004280000000000D6B6060858650120FA01010050
:1004380003000000C05A012064650120000000008C
:10044800B5AE040860650120FE0101001600000039
:10045800804B01206C650120000000004DAF0408AE
:10046800686501200502010010000000EC9F0120D2
:1004780014A1012000000000DAB6060810A101202E
:100488000001010006000000F8A60120ACB201201E
:1004980000000000C5AE0408A8B201200201040053
:1004A80018000000DCA60120B8B2012000000000FE
:1004B80021AC0408B4B2012023220100100000007E
:1004C800B4A60120D4B2012000000000ECB6060852
:1004D800D0B201200202010003000000C4AB0120D9
:1004E800E8B201200000000000000000E4B2012092
:1004F800371001003000000084B10120F0B2012063
:1005080000000000FCB60608ECB201201E00010045
:1005180009000000A0AB012024B301200000000066
:100528002CB7060820B301201B200100140000008E
:1005380004A3012034B3012000000000458B01080A
:1005480030B30120210201006801000040A301200E
:1005580050B3012000000000D98E010848B30120E3
:100568000B3001001E0000006CA20120BCB4012069
:100578000000000036B70608B8B401201F6001006B
:10058800C40000000CA70120E0B401200000000016
:1005980054B70608DCB40120123001000D00000039
:1005A800A4AC0120A8B501200000000018B8060876
:1005B800A4B501202F1001002E00000074AC01200A
:1005C800BCB501200000000026B80608B8B5012017
:1005D8001C02020020000000E4C1012080CA0120A2
:1005E80000000000D9BD04087CCA012028300100A1
:1005F8001600000004C20120A4CA01200000000067
:100608006DBE0408A0CA01202610010008000000E1
:100618001CC20120C0CA01200000000035AF040838
:10062800BCCA0120052001000C00000094B801207C
:10063800CCCA01200000000054B80608C8CA01202E
:10064800012001000C00000080B80120DCCA012054
:100658000000000060B80608D8CA01200E00060095
:100668006C06000000C40120ECCA01200000000054
:1006780091AD0408E8CA01200C40060038010000CA
:10068800C0B601205CD101200000000041AD040883
:1006980058D101200A9001002200000058B601201C
:1006A80098D201200000000065AE040894D2012011
:1006B80013100100040000008CB90120C0D20120F1
:1006C800000000006CB80608BCD20120200201001E
:1006D800C20000002CDB0120D0DE01200000000059
:1006E8007CB80608CCDE0120EC031D00AE0000003B
:1006F80040D5012008DD01200000000011AE0408EB
:1007080004DD0120101001000C000000F0DC0120C5
:10071800BCDD01200000000070B80608B8DD01202B
:10072800EB03200000010000F0DB0120CCDD0120FC
:100738000000000000000000C8DD012034000100B6
:100748000800000024DB012098DF012000000000E1
:1007580071AC040894DF01202A0008008000000022
:10076800A4DA0120A4DF01200000000045AC040841
:10077800A0DF0120EA0301001600000028D50120AF
:1007880028E00120000000003EB9060824E001200E
:10079800E90301001A00000088DA012044E0012082
:1007A8000000000054B9060840E001202B001200A8
:1007B8002400000088E0012064E00120000000001F
:1007C8000D68020860E0012029201400780000006C
:1007D80058D90120B0E0012000000000000000000E
:1007E800ACE00120F62101000C00000018F4012003
:1007F80060F401200000000070B906085CF40120D4
:10080800F83101000200000014F4012070F4012006
:10081800000000007CB906086CF401200200010009
:100828000C00000008F4012078F40120000000000A
:100838000000000074F401200612040018000000F3
:10084800F0F3012088F401200000000081BE0408B4
:1008580084F401201D0202000600000094F101202A
:10086800A4F401200000000000000000A0F4012012
:10087800ED0301006E000000A8E50120B0F401209E
:1008880000000000DDAC0408ACF4012025002A00BB
:10089800A002000080E9012024F5012000000000EA
:1008A8000000000020F501203800010007000000CA
:1008B800F8E30120C8F70120000000007EB906080F
:1008C800C4F701202902010040000000E8F70120D8
:1008D80050F901200000000086B906084CF90120F3
:1008E80028020400040000002C010220EC0202206F
:1008F800000000008DAD0408E80202202702040071
:100908000400000028010220F40202200000000078
:1009180081AD0408F00202201F0208001000000048
:1009280030010220FC0202200000000085AC04080F
:10093800F80202201A02010049000000A8FA01206A
:10094800100302200000000075BF04080C030220F9
:100958001610010004000000700302207803022032
:1009680000000000C6B90608740302202C0201002A
:10097800040000000C04022094040220000000007F
:10098800CAB90608900402201B02010010000000EA
:10099800AC0402209C040220000000002DAD0408D5
:1009A800980402200902010001000000603A0220B8
:1009B8005C3A022000000000CEB90608583A02202E
:1009C8001E02010006000000703A0220683A022068
:0C09D80000000000D0B90608643A0220BC
:08280000082800080040000850
:04400000FFFFFFFFC0
:10800000026C03463AB11A6CD20608D50022012050
:1080100083F83C207047426480F83C20F3E71A6CF8
:1080200049494A4811401A6841F00201F0B4196404
:108030004168474D21F44031416041685C6821430B
:1080400041605168186921F48071D3F808C0DF6875
:10805000516054689E6A44EA0024AE4254605468F9
:1080600024F040745460506840EA0C0050609068FE
:1080700020F400609060916841EA0701916054D05B
:108080009068DC6A20F07060906091680E439660A2
:10809000906820F040509060916821439160906812
:1080A0009C6920F002009060916841EA440191606F
:1080B00093F82010002941D05468596A44F40064B0
:1080C000481E5460516821F460415160516841EA92
:1080D00040315160D06A0025DC6920F470005E698F
:1080E000611ED0622846D46A44EA0154D46294687E
:1080F00024F400749460946893F8301044EA4124A6
:108100009460946824F480649460916841EA8621C4
:1081100091605D641A6C22F0030242F001021A645D
:10812000002283F83C20F0BC7047916821F0706118
:108130009160916821F040519160B0E7516821F45D
:1081400000615160C6E700BFFDEEFFFF0023014064
:108150000100000F0129F0B42A4C4FF000062A4D0F
:1081600094BF002701272368EE626662A6626763F8
:10817000676B47EA42076763EE63EC6B002A38D10E
:1081800044F49574EC631C6824F001041C601C68C2
:10819000E407FCD4490289085960D8601968EAB933
:1081A00021F04001196019498B421DD018494FF444
:1081B0007410C860196841F01E011960596941F0D6
:1081C00080015961196841F00101196022B90E4A14
:1081D000D36A43F00803D362F0BC704741F040011A
:1081E00019600A498B42E1D14FF0746041F8500C9C
:1081F000E0E744F01A04EC63EC6A44F00804EC6233
:10820000C1E700BF98300120002C014058640240B3
:1082100000640240124B30B49D6B6B6A28B943EA8C
:1082200001430020AB6230BC7047AC6A013803EBFD
:1082300014440BD0002303F14002013305EB82020A
:10824000DBB25268834204EB1244F4D3403044EA78
:10825000014405EB80004460002030BC704700BF43
:1082600098300120037870B42BB30246C0F10105A9
:10827000531912F8014FDBB2002CF9D101335B0026
:108280000E4C03220B8084F83C3484F83D240178A2
:1082900079B1022300265A1CE518023354FA82F2FF
:1082A00085F83C14DBB282F83C6410F8011F002909
:1082B000F1D170BC70470223E2E700BF9830012083
:1082C000826D136A5B681B78FF2B08D090F8F03042
:1082D000013BDBB280F8F0301BB101207047002079
:1082E0007047126A0220526813707047F0B40F4B47
:1082F000C40800F0070700221E5D03EBD005BE4056
:10830000F6B2C7F1080300278B4228BF0B46C3F122
:1083100008049A40C91A46FA04F415F8016F42EAB3
:108320000402EED11046F0BC704700BF14360120A5
:1083300030B5EFF31181802383F312880A4AD2F813
:108340003036D2F83446D2F83006D2F83456CAB2B3
:1083500082F31188013BA84294BF4FF400600020D3
:108360001B1B184430BD00BF98300120012380F84A
:1083700051307047014BD3F83806704798300120D0
:1083800001207047024BC3F83C26C3F840167047E3
:1083900098300120024BC3F84426C3F848167047B2
:1083A0009830012070477047212870B505D02228E9
:1083B00029D0202810D0002070BD0029FBD0072A2A
:1083C000F9D1184B18791C685A799B7908710020EB
:1083D0000C604A718B7170BD0029ECD0072AEAD17C
:1083E0001148104B0C680E794D79D0F840268979E8
:1083F0001C601E715D719971002ADCD02146D0F895
:108400003C069047D7E70029D5D0022AD3D1064AA7
:10841000D2F84836002BCED00988D2F844069847C7
:10842000C9E700BF000001209830012000207047FC
:1084300003460A2201481A80704700BF0800012045
:108440000346642201481A80704700BF14000120CF
:10845000012901D000207047014BD3F89030184714
:1084600000000120012901D007F022BE014BD3F802
:108470008C30184700000120014BD3F88830184792
:108480000000012010B40B780A46044603F00303F1
:10849000012B05D0022B0BD000205DF8044B704758
:1084A0008B8843B9204611465DF8044B0DF0D6BECB
:1084B0008B88832BF6D0034B5DF8044BD3F88030C8
:1084C000184700BF0000012038B5054B04460D4693
:1084D000DB6F98472946204609F0CAF8002038BDCE
:1084E0000000012038B5054B04460D469B6F9847A8
:1084F0002946204609F0F4F8002038BD000001208C
:10850000F0B4002452004E1C2746030FB0F1204F58
:108510004FEA001003F1300503F1370334BF0D5566
:108520000B5537550234A242EFD1F0BC704700BF63
:10853000024808B5FFF796FE014808BDECFB0508A8
:10854000D4340120024808B5FFF78CFE014808BD6D
:10855000FCFB0508D43401200B481A220B4B0068A1
:108560001B680A80C01801D109487047094B0822CE
:10857000094910B51C68FFF7C3FF042207492046CC
:10858000FFF7BEFF024810BD107AF01F187AF01FE7
:10859000B0000120147AF01FB2000120C2000120B7
:1085A000024808B5FFF75EFE014808BD08FC050853
:1085B000D4340120024808B5FFF754FE014808BD35
:1085C00014FC0508D4340120042301480B807047B3
:1085D000CC00012000487047FC350120004870475E
:1085E000FC350120034B93F86005032894BF00205D
:1085F0000120704798300120034B93F86005032851
:1086000094BF00200120704798300120034B93F85D
:108610006005003818BF0120704700BF9830012066
:10862000034B93F86005003818BF0120704700BF66
:108630009830012098B182680C4B12B107229A70D1
:10864000704718780421DA6003281A611A750CBF84
:1086500080224FF480729970C3E901227047034B66
:10866000012241F2E4715A705A5470478485012006
:108670000378022B0FD0006908B9012070470E4B18
:108680001B78032B12D080B24FF6F773984294BF39
:10869000002001207047084941F6500243688A587B
:1086A000B3EB422F2CBF012000207047034B9842B0
:1086B00094BF00200120704784850120F7FFFF0F41
:1086C00030B40378022B13D0104A41F648014368B6
:1086D00041F63C04555802F5C25100692B40096827
:1086E000023812595B0A01FB003030BC104470475D
:1086F000064B41F6300441F6340142681859595886
:1087000000EB410030BC00EB522070478485012013
:10871000826D0346126A52681278FF2A0AD190F8D5
:10872000F020002A02F1FF3214BF0120022083F85A
:10873000F02070470020704738B540F48062074C45
:108740000B4640F2FF55012100F03F00A563A360F6
:10875000E26048F05BFFA56338BD00BF002C01401C
:108760002DE9F843884600294FD04718461E284C6B
:10877000802507F1FF39EFF3118185F31288D4F8D2
:108780003026C9B2D4F83406D4F83036D4F834C61A
:1087900081F31188634594BF4FF400630023121ADC
:1087A0001344012B1AD1012036F070F9EFF3118137
:1087B00085F31288D4F83026C9B2D4F83406D4F838
:1087C0003036D4F8347681F31188BB4294BF4FF42D
:1087D00000630023121A1344012BE4D0EFF311823B
:1087E00085F31288D4F83436D2B216F8011F234428
:1087F00083F84C16D4F834360133C3F30A03C4F8B3
:10880000343682F311884E45B5D14046BDE8F88331
:1088100098300120F8B5002390F8505080F850307F
:10882000BDB10E4A1278032A15D10D4E00F13C0459
:10883000376829462046FFF793FF33682D1A044412
:10884000DB1B322B01D8002DF3D1B5FA85F040099E
:10885000F8BD0120FCE71846FAE700BF58410120A7
:1088600090410120002280F85120D3E790F8502059
:10887000531C0244DBB280F8503082F83C1090F870
:1088800051200AB1132B00D9C4E77047F8B50A4B41
:108890000D4614461B78032B0DD1084E3768002C6B
:1088A00009DD21462846FFF75BFF3368241A05449B
:1088B000DB1B322BF3D9F8BD584101209041012038
:1088C00030B500238DB013490825012202938DF89D
:1088D00014300DF10704099301F294500B9381F8C1
:1088E0002C560DEB05018DF82820CDE907330A4BF6
:1088F000CDE90342069339F02BFC084839F048FED5
:108900009DF80700A0F1FF00B0FA80F040090DB01B
:1089100030BD00BF98300120C18200082C360120F4
:108920002DE9F04103798AB02B4E002B14BF0122B0
:10893000002286F88C2504D186F860350AB0BDE89F
:10894000F08106F29457044690F90010384639F049
:1089500005FDA4789CBB4FF00108204B2048C6F8C9
:108960009C456C46C6F8283686F8A08539F036FD59
:1089700003461C4D4FF47A70A6F8983536F086F809
:10898000D6F89C0538F0A4FF0FCD0FC40FCD0FC44F
:1089900095E8030084E803006946384639F0D8FBBF
:1089A000384639F0F5FD104B002286F860851B68CB
:1089B00086F85425C6F850350AB0BDE8F081204647
:1089C00038F04CFE044608B12023C3800D21204618
:1089D00038F0EAFEBFE700BF98300120D43501200F
:1089E000801A0600308905089041012070B5952253
:1089F00092B040F0400504468DF80920080E0A0C9C
:108A00008DF80810090A002301AE8DF804508DF886
:108A1000050006250DF103008DF806208DF80710DE
:108A200001221749039604938DF818308DF82C30E5
:108A30000F93119305958DF840200C91CDE90733E4
:108A4000CDE90D33CDE90902FFF73AFF24B180F0FB
:108A5000010010F0FF0F10D10A4C082303A904F203
:108A6000945084F82C3639F073FB04F2945039F0AA
:108A70008FFD9DF8030012B070BDFF2012B070BDD5
:108A8000118700089830012030B500238DB01049BF
:108A90000546012202938DF814300DF10704099365
:108AA00001F294500B9381F82C5602A98DF82820DE
:108AB000CDE90733074BCDE90342069339F048FB74
:108AC000054839F065FD9DF807000DB030BD00BFC9
:108AD00098300120118700082C36012070B590B025
:108AE0001C4D0024FD2201260DF1030301A905F20E
:108AF00094508DF803200693C5F85C458DF810401E
:108B0000059407948DF824400F94039608968DF8E9
:108B10003860CDE90144CDE90A44CDE90C4439F08F
:108B200017FB05F2945039F033FD3046FFF7ACFFE8
:108B3000FF2809D0084A20460923126885F86035C5
:108B4000C5F8502510B070BD0423022085F86035AB
:108B500010B070BD983001209041012070B50646DC
:108B600090B008200D46FFF78FFFFF2823D0FE2886
:108B700002D0022010B070BD00240222012301A9FE
:108B80000E4808928DF838300296039501948DF8BE
:108B9000104007948DF824400F94CDE90544CDE9A9
:108BA0000A44CDE90C4439F0D3FA044839F0F0FC1A
:108BB000204610B070BD012010B070BD2C360120D1
:108BC0003D4B98422DE9F0410FD003F5685308332F
:108BD000984249D00023394A1846A2F86C30A2F8CE
:108BE0007830C2E91C33BDE8F081344C0223002602
:108BF000334F04F10805DFF8D0806360D7F8D03038
:108C00003146B34206F1010603D0D4F8880046F09D
:108C10004FFD94F88C302846D4F88820414685F8DA
:108C20002430303545F8102C46F0A2FE63689E4291
:108C3000E4DB002384F87A30636801206169A2894B
:108C4000256912FB03F201FB03F3268BA4F86C20C9
:108C50006367E2891B4BC4F898102567A4F8786015
:108C6000A4F86E20A366BEE7144C02230026144F1E
:108C700004F10805DFF854806360D7F8D03031463E
:108C8000B34206F1010603D0D4F8880046F010FD87
:108C900094F88C302846D4F88820414685F8243052
:108CA000303545F8102C46F09BFC63689E42E4DBAF
:108CB000012384F87A30BFE71971EF009041012059
:108CC00000000120588905081940EF0021AAEF0093
:108CD00010B50C4646F064FB50B9074B93F89C3036
:108CE000012B4FF012030CBF04480548238010BD30
:108CF00012230448238010BD90410120FC00012074
:108D0000E8000120D400012010B5074C04F2945073
:108D100039F03EFC0A2035F0ADFED4F89C05BDE8E4
:108D2000104038F0D5BD00BF983001202DE9F84340
:108D30001C4C05468946904694F860651F46042EF3
:108D400008D0082E02D00020BDE8F883FFF7C6FE49
:108D50000228F8D1D4F89C0538F068FD94F856350F
:108D6000B3B969021120FFF741FEB8B90E4A0523D5
:108D70000120C4F83C951268C4F84055C4F84885F1
:108D8000C4F84C75C4F8502584F86035BDE8F88304
:108D900029461120FFF72AFE0028E7D0FFF7B4FF8D
:108DA000D1E700BF983001209041012010B50D4C53
:108DB000002394F82E26C4F85C3512B10A4AC2F892
:108DC000A03048F02DFE20B10423022084F8603545
:108DD00010BD054A0923126884F86035C4F850258F
:108DE00010BD00BF983001209041012070B50F4D9B
:108DF00004460E4695F86035042B0BD0082B07D19E
:108E0000D5F8583583420ED0FFF7D0FF022801D0A5
:108E1000012070BD08230220C5F85C65C5F85845DF
:108E200085F8603570BD022070BD00BF983001200C
:108E300010B50AF0E1FE104C58B194F86035032BE0
:108E400013D894F854350133DBB2072B84F854352A
:108E500003D9002384F8603510BD084B01221B683C
:108E600084F86025C4F8503510BD054839F0B6FACD
:108E7000A4F89805E5E700BF983001209041012053
:108E8000801A060070B51F4C06460D4694F86035F2
:108E9000042B09D0082B25D1D4F8583583422FD084
:108EA000FFF71CFE02281DD1D4F89C0538F0BEFC4B
:108EB00000213720FFF79AFD29461720FFF796FD7E
:108EC000C0B994F856357BB971021920FFF78EFDB1
:108ED00080B908230220C4F85C55C4F8586584F8AA
:108EE000603570BD012070BD31461920FFF77EFD51
:108EF0000028EED0FFF708FFFFF79AFF032070BDB0
:108F0000022070BD9830012070B50379234C002BEE
:108F100014BF0123002384F88C3503D1002384F887
:108F2000603570BD1E4D0021032095F9A72038F053
:108F300021FF0028F2D04668304638F047FF84F819
:108F40002D060028EAD095F8A5303046003B18BF22
:108F5000012384F82E364AF039FC0AF04DFE38B968
:108F600094F8543584F86005013384F8543570BDA5
:108F700048F02EFE40B194F854350022013384F8B5
:108F8000602584F8543570BD2A68012384F854059F
:108F9000C4F8502584F8603570BD00BF98300120BA
:108FA0009041012010B548F013FE58B10C4C94F8D4
:108FB00054350133DBB2072B84F8543503D9002331
:108FC00084F8603510BD0AF017FE0028F7D0054B75
:108FD00001221B6884F86025C4F8503510BD00BF1D
:108FE00098300120904101202DE9F84F904C94F8E1
:108FF0008C55002D00F0028194F8602502278D4EDB
:10900000531E082B3ED8DFE803F03436A73D6649EF
:10901000153D050048F004FD002840F00181D4F81A
:1090200050353268FA33934229D2FFF7BBFF94F8E8
:109030006025E5E748F0F4FC0028F0D0D4F85C3572
:109040000022012B84F8542540F2EE80D4F8581504
:10905000013B94F82E560131C4F85C35C4F858151C
:1090600015B1744BC3F8A0200823054684F8603579
:1090700011E084F8607548F0D3FC00284DD194F8D5
:109080006025531EDBB2022B3CD9082A18BF042AE4
:109090000CBF012500252846BDE8F88F236B002B67
:1090A00037D1644B0722D4F848551B6884F86025F3
:1090B000C4F85035002DEED0D4F84C350120D4F84A
:1090C0003C25D4F84015A847D9E7D4F85035326884
:1090D000643393421DD2D4F82C80B8F1000FF4D140
:1090E00048F09EFC0028A2D00423D4F8485584F808
:1090F000548584F86035002D00F090804046D4F807
:109100004C35DCE74B4BD4F850251B689B1AC82B19
:1091100079D800252846BDE8F88F48F015F90028D1
:10912000ADD196F8A930002BA3F10203B3FA83F373
:1091300014BF022201225B0984F8552584F85635B4
:1091400048F002F900287FF470AFD6F8F820032326
:10915000C4F8642584F8603548F0F6F800288ED10C
:10916000344A4FF0040EC4F85C05032392F8DCB0D7
:10917000B2F8DE10D2F8E00084F86AB5D2F8E070F8
:109180004FEA106CD2F8E060A4F868153F0CD2F8F2
:10919000E0A0360A92F8E49092F8E55092F8E500E3
:1091A000D2F8E88025FA0EF5B2F8EEB000F00F0024
:1091B000B2F8EE10B2F8EE20C1F30B1184F86BC5D3
:1091C00002F00F0C84F86C7541EA1B21724684F89A
:1091D0006D6501F00F0184F86EA584F86F9501F5B7
:1091E000FA6184F8745584F87505C4F87085A4F89C
:1091F000761584F878C584F860E543E7284684F856
:109200006055BDE8F88FFFF7CDFE94F86055082D46
:1092100018BF042D0CBF012500253CE705463AE7A1
:10922000042384F8603536E7FAD1FFF7BFFD26E75F
:1092300098300120904101202DE9F84305468846E9
:1092400017461E462A4C94F86005042835D0082895
:1092500007D1D4F85835AB4206D0FFF73FFC0228BF
:10926000F1D00120BDE8F883FC22224BDFF88C907E
:10927000214883F80821C9F8388138F099FF00287F
:1092800009F588711C4814BF4FF400734FF48073C4
:10929000C9F8403138F05CFF012206230020C4F8F1
:1092A0003C85C4F84055C4F84875C4F84C6584F84A
:1092B000442584F86035BDE8F883D4F89C0538F07F
:1092C000B5FA94F8563553B969021820FFF78EFBAA
:1092D00038B994F86035082BC6D0FE22C5E7294678
:1092E000F3E7FFF711FDFFF7A3FD0320BAE700BF87
:1092F00098300120904101202C36012000000120EF
:109300002DE9F04FD84C95B094F88C65002E00F004
:10931000998194F8602504F29457DFF8508304F2A1
:109320007C59531E082B00F2A080DFE813F03400B4
:109330005E0029019E008C00AF001B009E0009000A
:10934000FFF7BEFA002840F05782D4F85035D8F81D
:109350000020FA33934280F08580FFF769FD94F88E
:109360006025DEE7FFF7ACFA0028EED0D4F85C35D4
:109370000022012B84F8542540F26382D4F858254A
:10938000013B082106460132C4F85C3584F86015BB
:10939000C4F8582552E1D4F89C0538F047FA00216A
:1093A0000846FFF723FB0546FFF7AEFC012D59D118
:1093B0004FF0000AD4F89C0584F855A538F036FA29
:1093C00040F2AB110820FFF711FB052800F0908157
:1093D000012800F05181FFF797FC94F85535002BD8
:1093E00000F02B82022384F86035D4F89C0538F015
:1093F0001DFA94F8553500213720022B0CBF4FF091
:1094000080450D46FFF7F2FA29202946FFF7EEFACC
:109410000546FFF779FC2DBB94F85535022B00F07B
:10942000988184F85655D4F89C0538F0FFF900214E
:109430000920FFF7DBFA002871D0FFF765FC94F8EC
:109440006025531E11E04FF40071D4F83C05FFF77E
:1094500085FB012800F03081022800F035810028CA
:1094600000F0618194F86025531EDBB2022B00F2FC
:10947000DF807E4BD4F850251B689B1AC82B00F266
:10948000E7800026304615B0BDE8F08FD4F894355B
:1094900077481D6A38F08CFE002800F02C81B5FA60
:1094A00085F56D09002DDDD004A800250DF10F0311
:1094B00002224FF0010A05A9059038460792ADF83F
:1094C000105006958DF820508DF8345013958DF876
:1094D00048A0CDE90B3ACDE90955CDE90E55CDE9C6
:1094E000105538F035FE384639F052F89DF80F30F7
:1094F00003F01F03052B00F08881FFF799FCD4F8D7
:1095000048B5BBF1000F00F0F0802A465046D4F871
:109510004C35D4F84015D84794F8602501E7102160
:109520004846FFF71BFB8246002886D101217F2099
:10953000FEF7DCFE012805467FF47FAF504602218E
:10954000FEF7D4FE002800F0388101287FF475AFC3
:1095500016213A20FEF7CAFE01308002C4F86405E5
:10956000FFF7D2FBD4F89C0538F060F900210A20FF
:10957000FFF73CFA002840F01981032384F8603596
:10958000102105A8FFF7EAFA00287FF46BAF9DF8D9
:1095900021309DF822201B019DF815009DF81650E2
:1095A00002F00F01DBB245EA0025DDF81D0043EAB9
:1095B00012139DF81C2000BA84F8781503F5FA639D
:1095C0009DF81710C4F87005A4F8763513099DF8B6
:1095D000140002F00F0284F87435069BA4F8685555
:1095E000C4F86C3584F8752584F86A0584F86B1521
:1095F000FFF78AFB94F8563573B9D4F89C0538F018
:1096000015F94FF400711020FFF7F0F90546FFF748
:109610007BFB002D7FF4A1AE164838F0DFFE002260
:109620000423A4F89805C4F85C251A4684F860352C
:10963000082A18BF042A0CBF01260026304615B0A0
:10964000BDE8F08F304684F8606515B0BDE8F08F56
:10965000FFF7EEFB94F86065042E18BF082E0CBFD0
:1096600001260026EAE700BF983001209041012042
:109670002C36012040787D01042304AA05A98DF829
:109680003400784807930692CDF814A08DF820A0F6
:10969000CDF838A0CDE909AACDE90BAA38F058FDDC
:1096A000704838F075FF9DF81330AB2B7FF493AE04
:1096B000022384F855358EE6D4F85035D8F80020CA
:1096C00064339342BFF4CEAEFFF71EFBFFF7B0FB4F
:1096D000D4F848554DB10022D4F84C35D4F8401593
:1096E0001046A84794F860251BE694F8602518E614
:1096F00084F855556FE694F844550246D4F83C1565
:109700004FF48073384601EB052138F027FF94F8B9
:1097100044250132D2B2A2F1020584F84425B5FAFB
:1097200085F56D09BEE60190FFF7EEFA0423019876
:10973000D4F8485584F8540584F86035002D3FF47A
:109740007DAFD4F84C35D4F83C25D4F84015A84763
:1097500088E6D4F89C0538F069F829463A20FFF7E6
:1097600045F90DF1100C04220123824605A9384663
:1097700005958DF820500E95CDF818C007928DF8FC
:109780003430CDE90955CDE90B5538F0E1FC3846C8
:1097900038F0FEFEBAF1000F08D1FFF7B5FA049BCE
:1097A0001BBAC3F3807384F856353CE6FFF7ACFA76
:1097B000FFF73EFB94F86025B3E504212C20FEF76B
:1097C00095FD032182464E20FEF790FD83460C2135
:1097D0003620FEF78BFD0BF1020B421C05FA0AF551
:1097E00002FA0BF2A2FB0501420A42EAC152C4F896
:1097F0006425FFF789FAB5E60190FFF785FA04239F
:10980000019884F86035064618E7174B0722D4F80C
:1098100048651B6884F86025C4F85035002E3FF475
:109820000DAFD4F84C355046D4F83C25D4F840154B
:10983000B04794F86025531E17E61E4684F860353D
:10984000FCE608D0042384F86035FFF75DFA94F84D
:109850006025531E09E6FFF741F902287FF402AEA6
:10986000EBE500BF2C36012090410120154BDB6851
:10987000C3F3022310B4C3F107041A1D042C28BF3C
:109880000424062A4FF0FF328CBF033B0023A24082
:10989000002821EA020101FA03F108DB09010A4B61
:1098A000C9B2034483F800135DF8044B704700F01D
:1098B0000F000901054BC9B2034419765DF8044B4A
:1098C000704700BF00ED00E000E100E0FCEC00E0CC
:1098D00030B5264C0022264841F28731D4F84C316D
:1098E00083B0244DA0FB030304F58670C4F80C512B
:1098F000DB0C013BC4E94612C4E944320BF094F995
:109900001D4B062137201A6C42F020021A641B6C92
:1099100003F020030193019BFFF7A8FFD4F80C315B
:109920004FF400001549164A4860D96841F001011A
:10993000D96099680A40062A06D0B2F5803F03D064
:109940001A6842F001021A600E4B41F2DC0200205C
:109950000D499A5803F24C64C3F84806C2F8100245
:10996000C3F84006C2E9811403B030BD9041012024
:1099700083DE1B43001400400038024000E100E099
:109980000700010098300120E042012038B50F4B5C
:109990000F4AD3F84C31A2FB03239B09013BB3F1DF
:1099A000807F10D20B4A0024F0200B49072553601A
:1099B00081F82300214694604FF0FF301560FFF7D7
:1099C00055FF204638BD012038BD00BF9041012021
:1099D000D34D621010E000E000ED00E043090122E9
:1099E00000F01F0084B0013B02FA00F0032B0BD8FB
:1099F000DFE803F015021E0C124B5A6C02435A6446
:109A00005A6C10400090009B04B070470D4B1A6BCD
:109A100002431A631A6B10400390039BF4E7094B4F
:109A20005A6B02435A635A6B10400290029BEBE759
:109A3000044B1A6C02431A641A6C10400190019B8B
:109A4000E2E700BF0038024070B51D4D2B6893F867
:109A50002620C2B11B699847C0B12B6893F8242017
:109A60007AB12E1D00241A19E0B29B69013492F8D4
:109A70002C10B6EC010A98472B6893F824209442E6
:109A8000F1DB5B6998472B7D332B00D070BD2B7EBB
:109A9000002BFBD02B6893F82430042B1E46A8BF64
:109AA0000426002BF2D00024064D2346013418462C
:109AB00048F062FF45F8040BE3B29E42F6D870BD51
:109AC000E0010020FC0100202DE9F041D0F800E089
:109AD0000C46DFF8588084B0DEF804501746DFF8F3
:109AE00050C0194605EA0805DDF8288006460393AC
:109AF0002C43424644EA0C0CCEF804C00CF0B0FFF4
:109B000078B931680246039B30468F624021CDF818
:109B100000800CF0D5FF003818BF012004B0BDE86C
:109B2000F081012004B0BDE8F08100BF009800FC86
:109B300000200180F8B5134F04460D460AE09B69EA
:109B4000DB0602D50CF04CFFD0B9D7F850395B1BBF
:109B50000A2B08D823682A460A2120469E69B606A1
:109B6000EDD50020F8BD636C2021002201200B43BD
:109B700084F84020636484F8411084F84220F8BDE2
:109B80000120F8BD90410120F0B589B00D46044692
:109B900038F018F8031E1CDB164A2046164E1A44ED
:109BA00006EB830392F86070C3F8545938F030F82C
:109BB0003E440023A588114A03A920680793CDE9F4
:109BC0000533CDE903520CF0F9FF96F89439F02BE8
:109BD00001D809B0F0BD0A4AF0230321D05786F816
:109BE00094390190FFF742FE01980DF09FFF09B0F4
:109BF000F0BD00BF30890508904101200000111020
:109C000088FC0508B0B10C49D1F89C39102B03D160
:109C10000521002037F0ACBF03EB43020A4482F871
:109C2000A009202082F8A1090120034482F8A2099A
:109C3000C1F89C39704700BF904101208078E1E76E
:109C40002DE9F04F634C87B01E22002104F51D6002
:109C50004EF04CFC94F8F0391BB194F8F13984F8CB
:109C6000D03994F8F2391BB194F8F33984F8D53926
:109C700094F8F4391BB194F8F53984F8DA3994F88A
:109C8000F6391BB194F8F73984F8DF3994F8F839CC
:109C90001BB194F8F93984F8E43994F8FA391BB116
:109CA00094F8FB3984F8E93994F8023A013B5FB241
:109CB000DBB2019702933B46013300F09C81464E94
:109CC000B0220023454802FB076106F5207AA0F187
:109CD00038050393703106F53E794DF0A5FC039BE2
:109CE00001222E46984602FA07FB1F46307880B3C1
:109CF0003B4A302103E091452BD012F8081F8842DF
:109D0000F9D1517811EA0B0FF5D037F0A7FCFB1D04
:109D1000DBB210B100228371C271032137F044FD20
:109D200031780023302201E01AF83320914200F00C
:109D300065810133102BF7D10023012208F10100C6
:109D4000072186F8028073705FFA80F81346F2707C
:109D5000317101370536062FC8D194F80C0A012657
:109D60000393FFF73BFE4FF44031DFF878B0002259
:109D7000C4F82C8AC4F8141A5846D4F8081AC4F83F
:109D8000286AC4F8206A84F8406AC4F8182AC4F81B
:109D9000382AC4F83C2AC4F81C2A84F8302AC4F8AB
:109DA000342AC4F8242AC4F8101AFEF729F9019BB2
:109DB000002B40F02981039B002B00F02581ABF1A3
:109DC00008004AF0D3FB012305F11E0C4FF0000EF2
:109DD0000DE000BF9041012030890508984B01201B
:109DE000B08B0508A04B01200535AC4547D0EA787B
:109DF000002AF9D094F84C1A5A1C68780129D2B27A
:109E00002F79CDF810E036D04FF00101092884F801
:109E10004C1A40F245814FF003096FF01D06D4F84B
:109E2000101A4FF0070A19FB0066D1F80C900AFAD5
:109E300006FA07FA06F629EA0A07CF60CF683E431A
:109E4000CE60062B4FF0050600F218816FF0040774
:109E500016FB03731F274E6B9F4000FA03F326EA9D
:109E600007064E634E6B33434B63B94B994200F088
:109E7000298184F84CEA05351346AC45B7D1019BDE
:109E800002200299234493F9032A37F073FF054611
:109E9000002800F0B080406837F098FF00220621CB
:109EA00037F0A4FF002800F0A6806868002637F08D
:109EB0008DFFA84F49F078FCB8F1010F6A684FF4A4
:109EC00000638CBF4FF480613146A8684FF40055A1
:109ED000C4F8681A4FF48071C4F8582A4FF400325D
:109EE000C4F86C3A0323C4F85C0A3846C4F8803AD4
:109EF000C4F8606AC4F8646AC4F87C6AC4F8846A06
:109F0000C4F8886AC4F8705AC4F8741AC4F8782A75
:109F10000DF06AFD94F84C3AC4F8487A012B059686
:109F2000C4F890BA67D00123D4F8105A84F84C3A98
:109F3000AB68DE0713D4D4F84C318749AA68B3FB69
:109F4000F1F342F0010203EB4303AA600593059B82
:109F50002BB1059B013B0593059B002BF9D1AB6809
:109F6000D80748D5D4F8502A7C4B134043F480736B
:109F7000C4F8503A6B68590507D5D4F8503A23F421
:109F8000405343F48053C4F8503AD4F8503A13F491
:109F9000805300F0CF80D4F8543A23F00603C4F87D
:109FA000543A6F4800236F496FF02202C4F8980AB0
:109FB0006D4884F84C3A4346C4F8941A05F14C01B4
:109FC000C4F8A40A2A606E68684A46F08066614850
:109FD0006E60AE6846F48076AE600DF07DFC644B3A
:109FE0005A68D20640F08F80D4F8103A9A6812F07E
:109FF000405F00F09A8007B0BDE8F08F5D4A02EB49
:10A00000C30393F8843298E6B02200215A484826C8
:10A010004EF06CFAB022002157484EF067FA4C4BD4
:10A02000304684F8BC6AC4F8B83AFFF7D7FC4FF45E
:10A03000403000230121D4F8B82AC4F8C40A4F489C
:10A04000C4F8D81AC4F8D01A84F8F01AC4F8C83A78
:10A05000C4F8E83AC4F8EC3AC4F8CC3AC4F8DC3AAC
:10A0600084F8E03AC4F8E43AC4F8D43AC4F8C02A10
:10A07000FDF7C6FF40484AF079FAA4E60C2B2CD82D
:10A080006FF0220716FB03731F270E6B9F4000FA29
:10A0900003F326EA07060E630E6B33430B63E4E615
:10A0A000D4F8101A00EB400A4FF007090E6907FABE
:10A0B0000AF709FA0AF926EA09060E610E6937431A
:10A0C0000F61BEE6122818D011287FF4D2AE2849BD
:10A0D0004B6843F400034B60CBE66FF0400716FB80
:10A0E00003731F27CE6A9F4000FA03F326EA070690
:10A0F000CE62CE6A3343CB62B7E61D494B6843F468
:10A1000080034B60B5E6D4F8102A11498A4214D076
:10A110005B68DB063FF56FAF194B9A427FF46BAF7C
:10A120009A6812F0405F7FF466AF9A6842F080420E
:10A130009A6060E7C4F8543A33E7936813F0405FDD
:10A1400003D1936843F080439360094B5B6852E707
:10A1500000200140E84B012040420F00FEF8FFFFC5
:10A160006105010865050108510501081C02002070
:10A170000023014030890508484C0120504C012043
:10A18000002201402DE9F041D0F800E00C46DFF854
:10A19000588084B0DEF804501746DFF850C01946E6
:10A1A00005EA0805DDF82880064603932C4342465D
:10A1B00044EA0C0CCEF804C00CF052FC78B93168BB
:10A1C0000246039B30468F628021CDF800800CF060
:10A1D00077FC003818BF012004B0BDE8F0810120F1
:10A1E00004B0BDE8F08100BF009800FC00200181B0
:10A1F00038B590F83C30012B00F08D800D460223DD
:10A200000121044680F83D3080F83C10142A1ED805
:10A21000DFE802F0251D1D1D371D1D1D4A1D1D1DDA
:10A220005C1D1D1D6F1D1D1D0B00294600680AF0D9
:10A2300095FA23682869596D41F400615965596D93
:10A2400021F4806159655A6D42EA00225A65002363
:10A250000122184684F83D2084F83C3038BD294658
:10A2600000680AF06BFB23682869996941F00801CE
:10A270009961996921F0040199619A6902439A618F
:10A28000E5E7294600680AF023FB236828699969F5
:10A2900041F400619961996921F4806199619A6939
:10A2A00042EA00229A61D2E7294600680AF0DAFA07
:10A2B00023682869D96941F00801D961D96921F079
:10A2C0000401D961DA690243DA61C0E7294600680E
:10A2D0000AF09CFA23682869D96941F40061D961C0
:10A2E000D96921F48061D961DA6942EA0022DA6130
:10A2F000ADE7294600680AF05DFA23682869596DC0
:10A3000041F008015965596D21F0040159655A6DF4
:10A3100002435A659BE7022038BD00BF0128B5EE15
:10A32000C00A10D0F1EE10FA0BDD9FED177ADFEDC9
:10A33000177AE0EE077AFCEEE77A17EE903A98B2D9
:10A34000704700207047F1EE10FA0BDD9FED107A98
:10A35000DFED107AE0EE077AFCEEE77A17EE903A3E
:10A3600098B27047EDD5F7EE006A9FED0B7ADFEDFE
:10A370000B7A30EE260AE0EE077AFCEEE77A17EE6B
:10A38000903A98B2704700BF00E0F94400004042A4
:10A3900000C079440000834400C079C400E08244D6
:10A3A000F8B53D4E96F8684B04EB8403A70006EB26
:10A3B000830393F86C3B032B44D8DFE803F0461B80
:10A3C0000F023C4406EB8404D4F8703B002B58D0B9
:10A3D000013B0025C4F8703B2846F8BD3B1906EB4D
:10A3E0008303D3F8702B7AB1013A0025C3F8702BA0
:10A3F0002846F8BD3B1906EB8303D3F8702B002ADF
:10A40000F2D1022283F86C2B3C4406EB840494F8CE
:10A41000783B013BDBB284F8783B4BBB0323D4F899
:10A42000740B84F86C3B4EF053FAC4F8700B06467C
:10A430004EF056FA80F00100002E0CBF002500F00F
:10A44000010525BB01252846F8BD38F09FFD0546CE
:10A450000028F7D03C44012342F2107006EB84043C
:10A4600084F86C3B4EF034FAC4F8700B2846F8BD03
:10A4700001254FF47A704EF02BFAC4F8700B284681
:10A48000F8BD4EF015FA80F00100C5B2B0E7013E0C
:10A49000C4F8706BACE700BF9041012003689B0AD1
:10A4A000A3F58013522B00D970470E4A134470B5A0
:10A4B00093F8004384B00D2C12D800294FF000030C
:10A4C00009494FF0010514BF1E460226427901EBEF
:10A4D00084106946CDE90065CDE902330AF064FADB
:10A4E00004B070BD308905084C4D012033492DE979
:10A4F000F84F91F8A9101C46012507460229DFF8FC
:10A50000C4A0104619464FF00002DFF8BC9018BFF7
:10A510007F02CAF82C50FDF71DFE294A630240F263
:10A52000FF5BC9F824204FF40075C9F828304FF4B8
:10A530008A62D9F82C30012110205E4643F0930343
:10A54000C9F82C30C9F838B0C9F808504D46C9F8D8
:10A550000C2047F05BF8012CC9F838B04FF00A0422
:10A560008CBF4FF052084FF051084FF000093946A8
:10A570004046FEF7E1F8013C034640F277420121F4
:10A580003720E4B223B91846CAF82830BDE8F88F5E
:10A59000AE63C5F80890EA6047F038F8AE6303464A
:10A5A00008B1002CE3D1002BEDD000221846CAF8E8
:10A5B0002C20CAF82830BDE8F88F00BF9041012058
:10A5C00000E1F50598300120002C01402DE9F84309
:10A5D000DFF8748004460F46914698F860551E4691
:10A5E000042D08D0082D02D00020BDE8F883FEF726
:10A5F000DDFB0228F8D101233A4620460021FFF76F
:10A6000075FF68B1FEF7CEFCD8F84845002CEBD0BA
:10A610000022D8F84C35D8F840151046A047E3E79B
:10A62000084A05230120C8F83C751268C8F840455F
:10A63000C8F84895C8F84C65C8F8502588F86035C2
:10A64000BDE8F88390410120983001202A492DE986
:10A65000F04F91F8A9100124DFF8A8B007460229AD
:10A6600083B0CBF830409A4618BF4702012B4FF019
:10A670000A04224D40F2FF568CBF4FF059084FF0AC
:10A6800058084FF00009009239464046FEF754F84A
:10A69000013C034640F2774201213720E4B2BBB9C6
:10A6A0000098514601220193154CFDF753FD1349C3
:10A6B0004FEA4A220020019B4C628A62CA6A42F039
:10A6C0009102CA62CBF82800184603B0BDE8F08FAB
:10A6D000AE63C5F80890EA6046F098FFAE630346A3
:10A6E00008B1002CD0D1002BDAD000221846CBF8CC
:10A6F000302003B0BDE8F08F90410120002C0140D4
:10A7000000E1F505983001202DE9F84F05460E4689
:10A7100090461F46394C94F8600504280CD0082850
:10A7200007D1D4F85835AB4206D0FEF73FFB0228DC
:10A73000F1D00120BDE8F88FDFF8C8A0C4F83C656F
:10A74000DAF8A090C4F84055C9F34F234FEA5922D4
:10A750000F2B2BD8D4F85CB5BBF1000F26D094F8A2
:10A760002E1619B3B9F5005F41D025484FF4007299
:10A77000314648444CF058FF09F50072C2F34F23AC
:10A78000CAF8A020520A102B31D0BBF1010F2ED0F5
:10A79000D4F858250BF1FF33042102200132C4F80C
:10A7A0005C3584F86015C4F85825C3E701234FF0E1
:10A7B00001092846062532460021C4F84885C4F818
:10A7C0004C7584F8449584F86055FFF73FFF0028E6
:10A7D000B0D0FEF7E7FBD4F848556DB14846D4F841
:10A7E0004C35D4F840150022A8470320A2E792B2C6
:10A7F000034E013AAD1ADAE703209BE798300120B7
:10A80000846501209041012070B52A4C82B02A4B0A
:10A81000226E12695168994247D0A3F57843994254
:10A8200045D003F58063994214BF4FF0FF310221F8
:10A830000131224837F092FD214B226E002621483B
:10A84000D2F8A81003F11002E166C4E93C3237F0F7
:10A85000C5FD0546314601AA02231848A4F86850F0
:10A86000ADF8046037F01AFE052034F00FF901AAA4
:10A87000314602231148ADF8046037F00FFE05465B
:10A8800020B19DF805301E2B03D03546284602B076
:10A8900070BD0D4901200D4A0D4B81F87C0F074812
:10A8A000C4E9132337F07AFEF0E70021C0E7012165
:10A8B000BEE700BFE001002000300140440200205C
:10A8C000000000208096980090410120DDD8040807
:10A8D000DDCD040803681878012801D000207047F6
:10A8E00093F90430074A03EB430302EB431393F855
:10A8F000D52F202AF3D1D3F8943F9869C0F3C03004
:10A90000704700BF9041012010B50A4CA3681B7826
:10A91000022B0DD1206936F0DBFF206908B123231B
:10A92000C380012136F040FF034837F057FDA08176
:10A9300010BD00BF885201208096980030B50446B3
:10A9400083B001230D460DF107020848214637F078
:10A95000EBFE9DF8072035EA020304D02A43214686
:10A96000024838F0BFF903B030BD00BF905201205B
:10A9700038B505460A460C460648294637F09AFD82
:10A9800045F08001034837F03DFD231A58425841F5
:10A9900038BD00BF9052012070B50D4C1346A5681C
:10A9A0002A78022A07D00A46014604F10800BDE8C9
:10A9B000704037F0B9BE2A6A0AB1002070BD0A465D
:10A9C000014604F1080037F045FD012070BD00BFCD
:10A9D00088520120036801221B78022B01D038F035
:10A9E000CFB837F08FBD13B53A4C0023D4F8E02030
:10A9F0008DF80730137803F0FD01012905D194F893
:10AA0000E41011B90C2184F8E410022B1ED0032BA2
:10AA10002ED001220B21304845F0A2FF042034F053
:10AA200035F801230DF1070200212B4845F0BAFF4C
:10AA3000002839D09DF80730482B35D1274BC4F872
:10AA4000D430274BC4F8D83002B010BDD4F8E80099
:10AA500036F03EFFD4F8E80008B13623C380012168
:10AA600036F0A2FE1F4837F0B9FCA4F8E400D0E7A6
:10AA7000D4F8903546F2A8115068122219610023CB
:10AA8000372180F8883045F03FFFD4F8E0300D22C0
:10AA90002421586845F038FFD4F8E03030226A218C
:10AAA000586845F031FFB4E7D4F8E0301A78022A4C
:10AAB00003D0032A07D00020C6E7D4F8E80037F017
:10AAC00021FB0020C0E710223721586845F01CFF09
:10AAD000F1E700BF8852012068530120030A0508EE
:10AAE000850A05088096980030B54CF205028DB0B5
:10AAF000002304460321ADF8002001AD01228DF8AA
:10AB000002300B938DF814208DF82820CDF808D052
:10AB1000CDE90633CDE90833CDE9035137F038FDEF
:10AB2000204602A937F014FB204637F031FD9DF88E
:10AB300006000DB030BD00BF084800230246117862
:10AB40000632022904D00133062BF8D100207047C9
:10AB500003EB430300EB4300704700BF985A01200A
:10AB60002DE9F041604C82B02422002104F50160FF
:10AB70004DF0BCFC002394F83978C4F83438002F29
:10AB800039D15A4EB36E53B39B6A43B35848984772
:10AB9000836823B3038800255648013B8446064654
:10ABA0009BB23178063603291DD00135062DF8D128
:10ABB000002201780630022900F090800132062A36
:10ABC000F7D1D4F83418052909D002FB01C20131AC
:10ABD000C4F8341802200021938010705180384648
:10ABE00002B0BDE8F081062303FB0545B5F8123835
:10ABF000013B9BB2DCE704F5046394F83808C4F821
:10AC00003C3810B90027394EBCE736F027FDC4F8B0
:10AC1000480818B183790BB1422BF3D13946364835
:10AC200037F09CFB80460028ECD0D4F83C38304A02
:10AC30009868C3F8942008B12223C3800D212B4EBD
:10AC400036F0B2FDD4F83C380025986836F040FE66
:10AC50002A4837F0C3FBD4F83C38014601223220A1
:10AC60009980C6F8883086F88C2033F00FFF0423D3
:10AC70009F21D4F83C080DEB0302019537F0EAFB65
:10AC80009DF805509DF8043006F168002D029DF8EE
:10AC9000061045EA03450D43294644F069FE08BB0A
:10ACA0002846FDF78DFFE8B99DF8065006F16800CB
:10ACB0009DF805202D029DF8073045EA02451D4309
:10ACC000294644F08DFC68B92846FDF779FF074610
:10ACD00040B994F8380837F035FA53E7062101FBFC
:10ACE00002C277E747464DE7885201209041012094
:10ACF000F8410120985A0120C85A0120404B4C00CD
:10AD00002DE9F04F0423BC4C402141F2F40504F638
:10AD10004C6704F138064FF0A042E363E16400237E
:10AD2000022194F8F5038BB0C4F838746651A2631D
:10AD3000A366A3646366E36521656164C4E91533B2
:10AD4000002800F0618103211F46164684F8F513A0
:10AD5000936823F001039360F368304643F04003A7
:10AD6000F36008F05BFFB36B012F054643F48033BB
:10AD7000B36317D005B3022384F8F5339F4B93F8E0
:10AD80009C50012D00F0FC80A36B802101205962B2
:10AD90005A6A42F480029A62FDF73CFA00200BB036
:10ADA000BDE8F08FB36843F00603B360B36843F0C7
:10ADB0002003B360002DDED1A36B3220DA6822F0CD
:10ADC000C042DA60DA6842F08042DA600CF0BCFE21
:10ADD000E06B50B32A4601272946C2EBC203561C3A
:10ADE00004EB830383F87420A3F87A20F2B283F88B
:10ADF0007570824283F87710C3F88810C3E91F1179
:10AE0000EBD300221146C2EBC203561C04EB8303B2
:10AE100083F83422F2B283F83512824283F8371273
:10AE2000C3F84812C3E98F11EDD30022A36BD4F805
:10AE300044C01646D4F84880D4F864E0D4E91471CC
:10AE4000019102F14001013203EB81010F2A4E60B2
:10AE5000F7D19A6BBEF1000F40F0408122F400124E
:10AE60009A631A6842F040021A601A6842F080023F
:10AE70001A600022012F03F50066C3F8002ED3F8F4
:10AE80000028C3F80028D3F8002800F01E81032F03
:10AE900000F01B8142F00302C3F800284FF48461E4
:10AEA000574A196102E0013A00F02F8119698F06B3
:10AEB000F9D41021524A196102E0013A00F02381CD
:10AEC0001969C906F9D4002131617161F161E0B1FC
:10AED00003F510624FF0904A4FF0006B0F464FF6AB
:10AEE0007F399C4607E0176001311761C2F808906E
:10AEF0002032814260D01368002BF4DA11B1C2F81D
:10AF000000A0F1E7C2F800B0EEE73269B8F1010F36
:10AF100022F48072326100F0EA8000216FF08042FA
:10AF200099615A61B8F1000F03D19A6942F0100299
:10AF30009A619969334A0A439A61019A1AB19A69E6
:10AF400042F008029A61BEF1010F00F0CB80002DA3
:10AF50007FF411AF0121E26D84F870508A4284F8C9
:10AF6000F51300F0D4807368032043F0020373608C
:10AF70000CF0EAFD214B93F89C50012D7FF404AFB7
:10AF800044F00EFA00287FF4FFAEA36B802228461F
:10AF900040215A625A6A42F400129A62FDF73AF965
:10AFA00020210220FDF736F940210320FDF732F978
:10AFB00000200BB0BDE8F08F002163460CF5306235
:10AFC0004FF0904A4FF0006B0F464FF67F398446A2
:10AFD00007E0176001311761C2F80890203261451F
:10AFE00093D010680028F4DA11B1C2F800A0F1E79C
:10AFF000C2F800B0EEE700BF983001209041012078
:10B00000400D030000383C8000F0FF054B4B03204F
:10B010004FF4C05684F8F4531A6B42F001021A63DD
:10B020000A221B6B069105A903F00103089044480E
:10B030000493049B0795059609920BF0BFFD636E80
:10B04000012B71D03D4B062143205A6B42F0800208
:10B050005A635A6B02F080020292029A5A6C42F4CE
:10B0600080425A645B6C03F480430393039BFEF7B6
:10B07000FDFBA66B0323334A0821916084F8F53366
:10B08000226DB368012AA76C23F00103B3607FF43B
:10B0900063AEB26B2C4B22F48032E16EB2630129B5
:10B0A000F26803EA0203F360F36823F44013F360E9
:10B0B00003D1F36843F48013F360304608F0AEFD2B
:10B0C000012F05467FF456AE6CE6BCF1000F3FF44D
:10B0D000E3AE42F00102C3F80028DFE642F40012BA
:10B0E0009A63C6E69969194A0A439A612FE7184993
:10B0F0000020184A31636FF08041376B3A43326366
:10B100009861596115E70125DDE60125D1E684F84E
:10B110002C549969C4F8342441F000610E4A9961B5
:10B12000596D0A435A651EE74FF4007305A9044898
:10B130000593CDE906550BF041FD83E70038024049
:10B140000000024000E100E0BFFFBDFF040000403E
:10B1500000018000030001000300001010B51A4C2C
:10B1600094F8D908C0B9194B83F88D05C3F8900538
:10B1700094F8DC38012B05D0022B21D0D4F8E0382C
:10B180001BB910BD124BC4F8E03812495B68A1F13D
:10B190000C00BDE81040184736F060FA94F8DB2840
:10B1A0000A49003AC1F8900518BF012281F88D259F
:10B1B0000028DDD021222021C28036F0F5FAD7E721
:10B1C000054BC4F8E038E0E78852012098300120B0
:10B1D000840101206C5B01206001012099B10A6BA0
:10B1E000824216D9154BD3F82429914221D35C39D8
:10B1F00091421ED30B6B9842F9D38B6B9842F6D8D1
:10B200000B46184670470D4BD3F824190A6B904231
:10B2100012D30B680BB9F4E70A6B90420B4602D3CA
:10B220008A6B9042EDD951F85C3F002BF4D118465F
:10B2300070470023184670470A46D8E78852012015
:10B240002DE9F047CC0143D1034622494FF0FF32AC
:10B25000022443F8081B7E2642601846DFF87880F7
:10B260002644051D6FF07047D8F828994FF0010A61
:10B27000013E494608E0A3421CD0631C45F8043C4B
:10B28000321B1C460435CAB10B6BA34202D88B6B30
:10B29000A34204D22046FFF7A1FF014690B10A79EC
:10B2A0004B6B002AE7D1A34204D0E6D2631C45F8D9
:10B2B000042CE5E7631C45F8047CE1E7C8F828198D
:10B2C000BDE8F087321B631C494645F804ACD8E75B
:10B2D0008026C3E7F8FFFF0F885201200E4A0023A3
:10B2E00010B50E4CC2F83009C2F844490C4CA2F813
:10B2F0003419C2F83C490B4CC2F83839A2F8363937
:10B30000C2F8404982F84839282202FB03F403536B
:10B3100001339942F9D110BD8852012040420F00FB
:10B3200020A10700A01CE9FF2DE9F0470023194DDB
:10B3300084B0074695F9519905F658164FF0B60AAC
:10B3400000EB010805F6F8351C46D6F800C030467B
:10B3500000226946E036BCF1000F14D09CF838C0DA
:10B36000BCF1140F0FD019F1020F01D0CC450AD156
:10B37000CDE90244CDE90078ADF808A08DF80D4084
:10B380002BF012F90346B542DFD1184604B0BDE8F0
:10B39000F08700BF885201202DE9F04FA44CB2EE97
:10B3A000045AA44AB4F83C1104F5FC67B4F83A31E5
:10B3B00004F6B83B07EE901A04F6C83A06EE103AC7
:10B3C00004F53E66B8EE677AB8EE466A2DED068B58
:10B3D00092F8F93BB6EE009A85B0DFED97AA07EE3A
:10B3E000903AB2F8FA3B67EE096A0A2BF8EEE77A70
:10B3F000B8BF0A23C7EE855A07EE903AB2F8FC3B75
:10B4000008EE103A92F8F83B0022B8EEE70AB8EEE0
:10B41000C88AC4F8F02787ED010AB4EE480AF1EEB5
:10B4200010FA30FE088AF4EEC86AC7ED005AF1EE51
:10B4300010FA38FE268AC6EE887A082B87ED028A33
:10B44000A8BF0823B1F57A7FF7EE006A38BF13462C
:10B45000C4F8EC3704F6BC33FBFE677AF4EE667A88
:10B46000F1EE10FA48BFF0EE667AFDEEE77AF8EEFC
:10B47000E75A17EE905AC6EE077AC4F8B45B67EE47
:10B48000A57A86EEA76ADFED6D7AC7EE256A8BEDA9
:10B49000006A0BF2247BC6EEA78A80EE280AC3ED71
:10B4A000008A4AF05FFD0228B8BF022088EE280A11
:10B4B0008046C4F8C00B4AF055FD2328DAED007A27
:10B4C0009FED5F8AA8BF2320B8F1230FA8BF4FF0DC
:10B4D0002308C4F8C40B4045B8BF4046012DA0EB7B
:10B4E00008028146B8BF01250132F5EE407AF1EE3F
:10B4F00010FA29D1534900239FED53AA07EE903A41
:10B500000193F8EEE79ACDE9021269EEAA9AB0EE3D
:10B51000690A4DF0A1F9F0EE408AB0EE690A4DF0EB
:10B52000E3F9019BA8EE880A0299013368EE8A8A42
:10B530000831039A242B41ED018A20EE0A0A01ED1D
:10B54000020ADBD1DFED417A002346F80C9C46F875
:10B55000045C92FBF5F146F8081C314646E90538D3
:10B560000133A1EC018A482BFAD1394806F59073D2
:10B570000021D0F854C3D0F858030131C3F800C0FB
:10B58000586008332429F8D106F515765E45ACD10C
:10B59000DFF8C4900026DFED2F8ACAED007AB819D3
:10B5A000CA464FF00008D4F8EC3700F1240598455E
:10B5B00031DA07EE908A97ED016A74300421F8EED3
:10B5C000E76AD7ED027A08F1010877EEC67A36EE1F
:10B5D000897A67EE877A07EE103AB4F83A31B8EE16
:10B5E000C77A00EE903A87EE870AF8EE600A30EEEE
:10B5F000060AAAEC010A97ED001A85ED178AA6EE55
:10B60000A81A85ED168A85ED158A85ED148A4DF008
:10B610004BF92846C7E706F5907609F12009B6F5FB
:10B62000587FBCD105B0BDEC068BBDE8F08F00BFE4
:10B63000E001002088520120C3B8B23D00009042D2
:10B6400000000000A814002072F97F3FBC297E3F53
:10B6500030890508CDCC4C3ED40900202DE9F04FAF
:10B66000DFF89C810127614CDFF898A12DED028B5A
:10B670009FED5F8A85B0FEB2592118F8010B324662
:10B6800031F096FA0546002800F096800368012103
:10B69000DFF874B14FF4005C534518BFB3F1804F2D
:10B6A000E060DBED537A0CBF01230023F8EE677AEC
:10B6B00004ED088A002B04F8233CDBF84C3114BF5E
:10B6C00008464FF480701A464A4B44F80C0CA3FB12
:10B6D0000223002218F8010CDB0844ED077A04F875
:10B6E000241C44F8083C24F8181C24F8161C44F8C0
:10B6F000042C44E905C235F0B1FF206110B1592393
:10B70000C6718371DFF8049199F8043C012B6AD06B
:10B71000022B0CBF422102216A7A35F0F1FFDBF8DF
:10B720004C210021284647F0A7F814F8233C002BB1
:10B730004CD0314B002221462846236046F068FF5A
:10B74000286847F0F3F88346A8B1002199F8052C42
:10B7500001238A424FF00402019314BF0B460223D7
:10B76000CDE9021269466A79009309F01DF96979F9
:10B77000584609F0E9F954F80C3C4FF0FF3CE268F8
:10B78000013E1E4803EB0C011268F6B290F8D0039C
:10B79000012391624FF400550021B042C2F82CC041
:10B7A000536124F8183C24F8163C44F8041C44E97E
:10B7B000055101D131F08EF901373834052F7FF46E
:10B7C0005AAF05B0BDEC028BBDE8F08FDFF840E06A
:10B7D000221DDFF840C021462846A360C4E900ECE2
:10B7E00046F016FFACE7222196E700BFEC150020DB
:10B7F000000000001F85EB512D150000D81200201D
:10B80000885E0120000C00409041012088520120F8
:10B8100065160000211800000C480D4BD0F8201CC4
:10B8200010B48A1E0B4C2231C0F8103CB0F82C3CEE
:10B830001B01A4FB03C3DB08A3F5B06322F8023F9E
:10B840009142F3D15DF8044B704700BF885201204C
:10B8500075660208CDCCCCCCF0B5294C85B0054638
:10B8600004F54463C4F8203CFFF7D6FF1A21254AAB
:10B87000254B402084F80A1CC4F8142CC4F8183C4A
:10B880002CF0A6FE002838D0002D94F87D3C94F8CA
:10B890007E2C4FF0030614BF4FF4E1314FF4E12149
:10B8A000002B4FF0000394F87F7C0CBF1D4602254F
:10B8B0009A4290F9040000914FF0400114BF3022E9
:10B8C0001A469F4218BF45F00105019615430F4ADD
:10B8D00002952CF0DCFEC4F8940C48B10C480FF033
:10B8E000E5FE94F8993C84F8980C0BB984F8996CAF
:10B8F000D4F8940C003818BF012005B0F0BD00BF8B
:10B9000088520120B50F02089D0E0208B50B0208EF
:10B91000E508020870B5084C251D2E4614F8010BE9
:10B920002AF08AFF28B10379B44205F8013BF5D12A
:10B9300070BDFF23F8E700BF245F01202DE9F04729
:10B940001C4F01264FF03D094FF0000807F1080594
:10B95000B24617F8010B35F081FE044690B180F82D
:10B960000690C671FB7803F07F02012A17D013F00E
:10B97000800F20460CD185F8048035F057FF85F8FC
:10B9800005802C6001360835052EE2D1BDE8F08730
:10B9900085F804A035F09CFF85F805A0F1E71B06AB
:10B9A00005D40121204635F0FFFEFB78DFE735F0B6
:10B9B0008FFFF6E72C5F0120364BF0EE607AB3F88C
:10B9C0003A3107EE103ABAEEEF7A2DE9F041B4EED3
:10B9D000C70A2DED048BF1EE10FADFED2F8AB0EEE1
:10B9E000408AF0EE419A06DDF4EEC70AF1EE10FA55
:10B9F00032D5B0EE478AB5EEC08AF1EE10FA30DDEE
:10BA0000F5EEC07AF1EE10FA2BDD27EE887A67EEBC
:10BA1000E77AE8EE087A87EE279A00F10C0400F145
:10BA20009C051E4E1E4FDFF88080B5EE408A44F81C
:10BA30000C6C44F8047CF1EE10FA04DDB5EEC09A0B
:10BA4000F1EE10FA10DC44F8088C3034AC42ECD142
:10BA5000BDEC048BBDE8F081B0EE688AB0EE689A68
:10BA6000DBE79FED0D9AD8E70E4BB0EE491AF0EEEA
:10BA7000690A0421B0EE480A204644F8083CC4EDA7
:10BA8000038AC4ED028AC4ED018AC4ED008A4CF039
:10BA90000BFFDAE7E0010020000000001DAC040805
:10BAA00019AC0408F51B0000411C00000A44914237
:10BAB00016D030B441F2210511F8014B082380EA79
:10BAC000042010F4004F4FEA400485EA40000CBF08
:10BAD000A0B280B2013BF4D18A42EDD130BC7047B4
:10BAE000704700BF30B40023314D32494CF250341E
:10BAF000C5F8E43C304AD1F8500904E0D1F8503997
:10BB00001B1AA3420FD8D368DB03F7D4D16811F412
:10BB1000F9710BD1D06810F0010002D00123084662
:10BB2000D36030BC7047032030BC7047D3689B079C
:10BB300005D5D5F8E43C43F02003C5F8E43C1E4BA2
:10BB4000DB68DC0605D5D5F8E43C43F01003C5F806
:10BB5000E43C194BDB68980605D5D5F8E43C43F086
:10BB60000803C5F8E43C144BDB68590605D5D5F845
:10BB7000E43C43F00403C5F8E43C0F4BDB681A06D1
:10BB800005D5D5F8E43C43F00203C5F8E43C0A4B84
:10BB9000DB68DB0505D5D5F8E43C43F04003C5F888
:10BBA000E43C054B4FF4F9720120DA6030BC704779
:10BBB0008852012090410120003C02402DE9F041D3
:10BBC000204C00234FF0050894F8EF2C04F6EC47C6
:10BBD00004F54F6584F8E82C17F8010B5E1C20BBB8
:10BBE0002860032E05F104053346F5D194F8E81CCE
:10BBF000D4F8F00CC94301F0010135F0C7FE94F808
:10BC0000E81CD4F8F40C81F00201C1F3400135F0D6
:10BC1000BDFE94F8E81CD4F8F80C81F00401BDE8EE
:10BC2000F041C1F3800135F0B1BE35F017FD0121BF
:10BC3000F3B2286010B180F80680C371286835F02F
:10BC4000B3FDCEE788520120F0B5294C83B0B4F89B
:10BC5000005DA4F8025DEDB994F8FC0C35F0FEFC33
:10BC600094F8FD2CC4F8040D003A18BF012284F8A2
:10BC7000082D48B194F8FE1C2D220029C28014BF63
:10BC80001121012135F090FD002003B0BDE8F04006
:10BC900035F084BE94F8FC7C00222D21384630F02B
:10BCA00087FF0646384635F0D9FC00B10EB903B01F
:10BCB000F0BD2D22C4F8200D02210027C280727A27
:10BCC00035F01EFD0B4AA4F8245D314604F60C50F5
:10BCD0000197B2FBF5F3C3F34F059BB2009529F032
:10BCE00087F9D4F80C3D1F6084F81D7DDFE700BFA5
:10BCF0008852012040420F002DE9F84F264B0026C4
:10BD000093F8302D03F6275703F6445483F8262D75
:10BD10005FFA86FB4FF0010917F8010F01360BEBB4
:10BD2000090A49464FF000085FFA8AFA524630F095
:10BD30003FFF054648B3387804F80E8C04F80D8CA4
:10BD400004F80FBC04F8109C44F8045C35F086FC41
:10BD5000022118B180F8069080F807A06A7A35F0C1
:10BD6000CFFC0E4A0021284646F086FD0C4B221DD2
:10BD70002146236028460B4BC4E9013846F048FCB5
:10BD800042466979286829F0E7F8082E04F11C0476
:10BD9000BED1BDE8F88F00BF8852012040420F009D
:10BDA000994F030895F0020870B52C4C00222C4BDB
:10BDB000022194F85C0EC4F8543EC4F8142EC4F862
:10BDC000182EC4F81C2EC4F8502EA4F8582E30F0AB
:10BDD000EFFE002836D0234B0546016803F16000D2
:10BDE0005A7C12B15A6891422DD018338342F7D150
:10BDF000002394F85C0EC4F8405D84F8343D35F0BF
:10BE00002DFC08B10223C38000266A7A022135F096
:10BE100077FC31462846144A46F02EFD134B144A4F
:10BE20002846C4F8443D134B111FC4F84C6DC4F8A8
:10BE3000483D46F0EDFB324669792868BDE8704020
:10BE400029F08AB870BD8A6A0B4801320B49D0F8D4
:10BE50004C31B3FBF2F381F8A831C9E788520120D5
:10BE600000FFFF00AC16002040420F00BDF00208AA
:10BE7000D05F012049F2020890410120000001201A
:10BE80002DE9F04FDFF860B39BF8624E2DED048B87
:10BE9000032CA1B0A4F10503039000F298800122C5
:10BEA000BE49032B81F8802A00F2C0809BF86B3ECC
:10BEB000DFF80093012B89F8C42400F0C4819A1E96
:10BEC00053425341082C08BF0023002B40F0BB8194
:10BED000B34E09F264459BF86A7EDFF810830FCEFB
:10BEE0000FC50FCED6F800C03E1E0FC518BF0126E5
:10BEF000AC4B072CC5F800C088F81860C9F874343A
:10BF000000F25082042C00F22F840023DFF8E0A21C
:10BF10000493A54B0593A54BCDE90638DDE9033223
:10BF2000934240F31D849DF810300321069A5D1C56
:10BF30000A9312F8016BEDB2069230462A4630F0B1
:10BF400037FE0446002800F0E081304635F086FBDD
:10BF5000059B586110B10323C57183719BF8623E44
:10BF60002046089335F0CCFE94F80880034600285C
:10BF700000F0C68199F8D0240992002A40F0D282BC
:10BF80004768002F00F0C1819B6838460C9335F05C
:10BF90001DFF2A4603210B9035F028FF002800F0F2
:10BFA000B48199F8D46425688148CAF89470002E49
:10BFB00000F0EB830022034603E00132B24200F0BE
:10BFC000E4831968B8338D42F7D1D6B2E5E3DAB22B
:10BFD000042A7FF664AF71490022032B81F8802A7E
:10BFE00042D8744B0122DFF8048283F8C424D8F8C5
:10BFF0000030002B3ED001210022039883F8251049
:10C0000083F82400014683F826209A6248B12C3335
:10C01000694A1944084612F8011B03F8011B9842AB
:10C02000F9D121B0BDEC048BBDE8F08FDFF884912D
:10C030000023624E09F2944589F8C4349BF8687E67
:10C040000FCE0FC50FCE36680FC52E60092C1DD838
:10C05000DFE814F0EB001C003B0435041C001C005E
:10C060001C001C001C00EB00524BDFF8808183F8A1
:10C07000C424BCE7524D534C0FCD0FC40FCD0FC499
:10C080002B6844F82039C8F80040CAE79FED4E8A73
:10C09000F0EE488A002F4D4A4D4B0EBF0021012182
:10C0A00013464C4A06914C49C9F8A424C9F8AC146B
:10C0B00078EE887ADFED496AB5EE007AC9F8A834DF
:10C0C00028EE268A394B384C4FF0000A87EE279A23
:10C0D0000593CDF82890039B534540F3A080059B22
:10C0E0000AF10109032113F8016B5FFA89F5304663
:10C0F0002A46059330F05CFD0746002800F02E85A7
:10C10000304635F0ABFA606110B10323C57183711D
:10C110007A7A022135F0F4FA069B002B00F02E818A
:10C12000BBF8603E4FF6FF7207EE903A2C4BF8EEEC
:10C13000E77AD3F84C51FCEEE77A17EE903AB5FB6C
:10C14000F3F10A44120CB5FBF2F2B2FBF3F30492E2
:10C150009DED047ADFED237AB8EE477A9BF8622EE4
:10C16000092A67EE086A67EEE67AC4ED026AE7EE2E
:10C17000287AC4ED037A00F01C8100269BB2049A51
:10C18000394620460196009628F032FFBAF1000F9A
:10C1900000F0EF806168044B2FE000BFD023002047
:10C1A0007C8D0508E92A0508AC160020F560012001
:10C1B000B0170020D8120020EC600120C48D0508C3
:10C1C000588D05085C6101206F120339EDBF03082B
:10C1D00091F20208F1BF0308EDF402086F12833AEE
:10C1E0009041012000007A4488520120E0010020A3
:10C1F000D0270020A34200F0BC805A6818338A423E
:10C20000F8D1012383F001030122B9F1040FCA46DA
:10C21000237404F1180404F8072C7FF45CAFAF4FCB
:10C22000DFF8F482C8F80070E1E60123AC4A9FED24
:10C23000AD8A0693AC4BF0EE488AC9F8AC24C9F835
:10C24000A434AA4B34E700279BF86A3E8BF8044FCE
:10C25000A74DDC1B039BA74E18BF0124C9F8C834A7
:10C26000DFF8B4828BF8917E88F81840DFF8ACA232
:10C270000FCD0FC60FCD0FC62B6839464FF44C7249
:10C280009D4846F880394CF031F99C4BCDE9043893
:10C29000D9F8C834BB4268DD049B13F8014B204633
:10C2A000049330F00BFD0546204635F0D7F995F89C
:10C2B0000880059B044608F00105197E01358BF8BE
:10C2C000905E09B188F00108002C00F04E81A17940
:10C2D00029B3A1F142035942594101BB824A0B469D
:10C2E00087480121C9F84424DDF814807F4AC9F841
:10C2F0004C048BF8911EC9F84824C8F8003076E643
:10C3000099F8D034002B40F00D817D490023774A05
:10C31000DDF81C80C9F87C14C9F87824EDE76D01BC
:10C32000204635F04FFC013745F001014FF0030383
:10C33000CAF80C40CAF804008AF81080CAF8141031
:10C34000E771A371204635F02FFA18F0010F20464F
:10C3500011D035F06BFADAF80C30042F0AF1200A0C
:10C3600006F1180646F8043C92D1DDF81480614BC2
:10C37000C3E7002346E735F0ABFAECE7FAFE497A6B
:10C38000FCEEE77A5F4B4FF6FF71D3F84C5117EE96
:10C39000902A0B46B5FBF2F20A44120CB5FBF2F2FE
:10C3A0000492D5E6082C7FF4B0AD574BC9F8CC34D5
:10C3B000ABE5012100209BB2049A0191394600901F
:10C3C000204628F015FE3B6818461D4609EE903AB7
:10C3D00046F0ACFA079000283FF4D8AE4B4AD2F8AA
:10C3E0008C36002B7FF4D2AE28460C2546F0B2FAEC
:10C3F000474EA846054609970894464F01E0BE42BD
:10C400001BD03878033717F8021C0028F7D0002912
:10C41000F5D030F073FB04460028F0D0006846F0F9
:10C4200099FA8542EBD163794345E8D1A8F1040834
:10C4300018F0FF08E1D1089CA8E6DDE90847334B76
:10C440001922049DC3F88C4619EE903A797902FBC3
:10C4500005F52E4E3433880822681944DFF8C0C031
:10C4600086F8CC064344126807980068C6F89826F8
:10C4700012924FF48072C6F8843616924FF400720E
:10C48000C36A179206F5D362C6F8881600212260A7
:10C49000079A119192F83C20B5FBFCF5CDE91411F7
:10C4A0005B1B0221012A1391C6F8903600F0298205
:10C4B000079D0122A8F1040385F83D1085F83C2072
:10C4C000082B00F21782DFE813F0AD021502150207
:10C4D0001502A90215021502150212026C1700209E
:10C4E000EDF402086F12833AF1BF0308EDBF0308B1
:10C4F000A08D05080C170020A02A0020F56001205F
:10C50000E9BF03089041012021C00308D023002087
:10C510005B6101201C610120E0010020D02D002082
:10C5200040420F006769002F3FF4EFAEA369384621
:10C530000C9335F04BFCCD4B2422451E0B9002FB97
:10C54000053595F8C8313A2B00F0C581206846F0D2
:10C5500001FA02463A210B98D2B235F047FC002886
:10C560003FF4D3AE002309931BE56D01204635F05F
:10C5700029FB013745F00101CAF80C40CAF8040054
:10C580008AF81080CAF81410DCE699F8D024CAF8AA
:10C590005430002A00F019829846DAF89830C3F82F
:10C5A000A870CAF89470099B002B00F079820AF1F8
:10C5B00018000F9007F0D4FE99F8D0340F98002B94
:10C5C00000F05782AA494FF4907322684FF0030C91
:10C5D00003FB0613DAF898104C32C1F8B030CAF8F1
:10C5E0001C300C9BCAF81820CAF83C30CAF848C066
:10C5F000089B40214FF4806C082B4FF00403CAF8CD
:10C6000020104FF48051CAF844304FF000030CBFA3
:10C6100006221222CAE91333CAE909334FF4003360
:10C62000CAF838204FF48042CAF84030099BCAF853
:10C630003420CAE90BC1002B00F00C829DF8343085
:10C64000CAF89470022B00F229818A4A8A4902EBC7
:10C650008303089AD3F8CC33082AB1FBF3F308BF5D
:10C660005F2203F1230318BF1322CAF85C30DAF803
:10C67000983050469A8046F0A7F999F8D0340BB11B
:10C68000099B33B90B9890229AF811307B4947F0F7
:10C6900065F818EE102A4146284607F07FFCB8F1ED
:10C6A000010F00F0C881B8F1040F00F06081B8F10B
:10C6B000100F00F06382B8F1400F00F07482B8F5FB
:10C6C000807F00F07E82B8F5806F00F08282B8F53E
:10C6D000805F00F0A182B8F5803F00F0A5826A6D0E
:10C6E00005F11800082342F400626A6564490422D7
:10C6F000644FC95CFF5C0B58BA4023EA02030B503D
:10C700002B6843F001032B600E9B002B00F08E8101
:10C710002B6A43EA88032B620A9B9E420BD16B6C07
:10C7200043F400436B642B6843F080032B602B6859
:10C7300043F001032B60079B1B7E002B40F083819D
:10C74000049A012305990AF1A00A01320AF8913CE2
:10C750004B7401F11803042A049205937FF4DEABB5
:10C76000DDF81C80484BC8E59BF8693E474A012B21
:10C77000C9F8CC2405D0022B08BF002F0CBF012321
:10C78000002389F8D034FFF7C0BBB823721C03FB29
:10C79000069389F8D424C3F8D854B82399F8D4243C
:10C7A0000A9906FB0303013A8AF81110CAF8983077
:10C7B00020790A9234F052FF079B08F001011B7E9A
:10C7C00001310BB188F001084901CAF8084041F075
:10C7D0000E01CAF81410627A34F092FF0A9B9E424E
:10C7E00000F06F81089B063B0D93002360220AF145
:10C7F0006401CAF8803008EE101ACAF86420CAE949
:10C800001A33CAE91C33CAE91E3318F002030E9327
:10C810004FEA480347D0012203F00203CAF86C2014
:10C82000CAF87830002302224FF480300A21CAF877
:10C830007030CAF88410CAF89020CAE922036279DD
:10C840000C2A3FF6A2AE0B4B99F8D01403EB8203EF
:10C85000D3F8D883CAF8548000297FF49EAE054BE4
:10C8600003EB4202B2F80C14B1E000BF000001205B
:10C87000701D00203089050800D01213712C0000B3
:10C88000048E0508F88D05083C17002055C00308E4
:10C89000ACC5A737ACC5A736282930388D2313225D
:10C8A000CAF85C30E3E601214FF4807203F0020322
:10C8B000CAF86810CAF87C20CAF87430B2E71FEDD5
:10C8C0000C8A5FED0C8AFFF7E5BB1FED0D8AF0EED9
:10C8D000488AFFF7DFBB206846F03CF895F8C9317D
:10C8E00083427FF433AE01230993FFF75ABB11A9AA
:10C8F00007F08CFF07990122002381F83D2081F881
:10C900003C303E4618ADDFF808C30FCE0FC596E8A1
:10C910000F0085E80F00B349002218A88DF8658044
:10C92000C1F800C0A1F5D06345F072FE396800235C
:10C93000AD4A52F83320914200F01A8101330E2B98
:10C94000F6D1002040B201210490FCF78FFF04983B
:10C950000BF0ECF89DF865200C2A10D8DFE802F007
:10C96000570F0F0F500F0F0F490F0F0F4200AA69FB
:10C9700005F11800012342F00802AA61B6E6079B00
:10C980001B6802F01F010122186A8A40974D20EAB5
:10C990000200AB421862196A42EA01021A6200F010
:10C9A000D880934A934200F0D4809968914A0A4013
:10C9B000062A3FF4EBABB2F5803F3FF4E7AB1A68D1
:10C9C00042F001021A60FFF7E1BB90461146DAF827
:10C9D0009820AAF80C10B2F8B43023EA0103A2F8A8
:10C9E000B430E0E5079B1B68D96841F01001D960BD
:10C9F000C7E7079B1B68D96841F00801D960C0E709
:10CA0000079B1B68D96841F00401D960B9E7079B0F
:10CA10001B68D96841F00201D960B2E711A907F09B
:10CA200021FF67E711A907F053FF63E72B6A43EA89
:10CA300008032B6270E6AA6905F11800002342F092
:10CA40000802AA6152E623684FF6FF716279343317
:10CA5000995075E6FBB21821024627F0FF00103B03
:10CA6000B3FBF1F107F08EFC3B6843F010033B6031
:10CA7000E4E50C9A5821DFF89CC1CAF83C20049ADE
:10CA800001FB02C12268CAF84830CAF89C1002F1C2
:10CA90003403CAF81C1062791344CAF81830A7E5A9
:10CAA0003A68FBB2182127F0FF0022F00102103B88
:10CAB0003A60B3FBF1F107F0ABFC0B9846F074FE63
:10CAC00075E500224FF0FF311346ADF86020199252
:10CAD0001B928DF870201A91434A52F833209542E8
:10CAE00069D001330E2BF7D10020089B9A1F0D92BD
:10CAF000FCF774FF2B6840499DF8342023F00103B4
:10CB0000D1ED537A022A2B60F8EE677A3ED83B4982
:10CB1000DFED3B6A01EB820292EDF37AB8EE477AE1
:10CB200087EE870A30EE260A49F01CFA089B013886
:10CB3000082BADF8600014BF13225F22002318A950
:10CB400028461A921B938DF87030199307F08CFBCE
:10CB50004BE65A6C42F400425A6426E7DDF828900E
:10CB6000284A294BC9F8AC24C9F8A834FFF758BBA8
:10CB7000224A02EBC30393F86103E3E6AA6905F1D5
:10CB80001800022342F40062AA61AFE59FED1F7A0C
:10CB90009FED1B0AA7EE870A49F0E4F9013813223A
:10CBA000ADF86000CAE7AA6905F11800032342F056
:10CBB0000802AA619AE5114A02EBC30393F86003E5
:10CBC00093E7EA6905F11800042342F00802EA61DC
:10CBD0008CE5EA6905F11800052342F00802EA61D4
:10CBE00084E500BF502A00208C8C0508000001401D
:10CBF0000004014007000100904101203089050830
:10CC00000AD7233C99F30208EDBF0308FCF4B234C1
:10CC10009DF3020870260020EA6905F1180006233A
:10CC200042F40062EA6161E56A6D05F118000723CC
:10CC300042F008026A6559E570B5534E96F88B0CC0
:10CC400034F00CFD96F88C5C60B12F230446202153
:10CC5000C38034F0A9FD0A2031F00CFF204634F0E7
:10CC6000A7FF18B9D6F8083FDA0000D570BD013D1E
:10CC7000092DFBD896F88A4CCCB940202BF0A8FCA3
:10CC80000028F3D090F9043096F8091C092BC8BF8E
:10CC9000143B0A29334493F80C4F67D093F8183F9C
:10CCA00096F87E2C002A08BF1C46002CDED02046B9
:10CCB00034F0D4FC054608B12F23C3800121284657
:10CCC00034F072FD0121084634F0AAFE0121284605
:10CCD00034F05CFE3C2031F0D9FE0021012034F01C
:10CCE0009FFE96F88C3C1BB30024002101340846BB
:10CCF00034F096FE0021022034F092FE00212846F6
:10CD000034F044FE782031F0B5FE0121002034F0EB
:10CD100087FE0121022034F083FE0121284634F0F1
:10CD200035FE782031F0A6FE96F88C3C9C42DCDB88
:10CD300096F88A3C93B996F88B3C002B96D196F8DE
:10CD40008D3C012B92D1D6F8083F13F080538DD142
:10CD500086F88C3CBDE8704039F0F6BC322031F0EA
:10CD600095FE2846002134F01FFDE4E7D6F8303F59
:10CD70005B057FF57BAF0FF007FD00287FF476AFF2
:10CD8000002C94D172E700BF88520120082348404C
:10CD900002E0013BD0B209D010F0800F4FEA400210
:10CDA000F7D082F0D500013BC0B2F5D1704700BF8B
:10CDB00030B4002305688D4210D011F8014B0822D1
:10CDC000634002E0E3B2013AF5D013F0800F4FEA7E
:10CDD0004304F7D084F0D503DBB2F4E76A1C0260A9
:10CDE0002B7030BC704700BF344870B490F8343FAB
:10CDF000A3F13001092958D800F6347400F64370C5
:10CE0000224612F8015FA5F13001092904D88242B7
:10CE1000F7D1002070BC7047141B022C4BDD284852
:10CE2000002101E010F8013B01EB8101161A0446D4
:10CE300003EB4103022EA3F1300303F0FF01F1DC09
:10CE4000204B03FB01F1A2424FF000030ED903EB8C
:10CE5000830314F8016B5B00A242A3F13003334457
:10CE600003F0FF03F3D1184800FB03F32E2D06D087
:10CE70001648A0FB032370BC01EB930070470132FE
:10CE80000425002404EB84041078013D303864004C
:10CE90000928A4B2204401D8013284B215F0FF055C
:10CEA000F0D1642202FB0433E2E700211D4600F6C4
:10CEB00034720B46DAE70021054CC4E788520120A2
:10CEC000BD6101208096980040420F00ABAAAAAA3B
:10CED000BC61012038B5041E0D4611DB092C1FDC96
:10CEE0000846134B0021134AA3FB04C34170DB081F
:10CEF00003EB8303A4EB4303D35C0370284638BDE4
:10CF000064422D230846092C00F8013BE9D9084B5F
:10CF100001460A22A3FB0430C00839F029FCE0E7EF
:10CF200003480A22A0FB0430C00839F021FCD8E7EE
:10CF3000CDCCCCCC2CFC05080C461646054683B55A
:10CF40002BF012FB20462BF00FFB0021204B084654
:10CF5000002E08BF1E4634F063FD0021012034F08E
:10CF60005FFD284631F0DCFDB0B10121002034F036
:10CF700057FD284631F0CCFD0746204631F0CCFD68
:10CF80000028FAD03946204631F0F0FD3846B04747
:10CF90000021084634F044FD204631F0C1FD002850
:10CFA000DFD00121002034F03BFD204631F0B0FD00
:10CFB00001462846019131F0AFFD01990028F8D0D3
:10CFC000284631F0D3FD0021084634F029FDC8E79A
:10CFD0006B620308F0B500228DB0DFF8ACE007AF5C
:10CFE00013460A61BC46C1E90022C1E90222D0E928
:10CFF0000020C2F3056646FA03F46546E40704D54B
:10D0000013F80E4005F8014BAC460133062BF2D164
:10D010001B4DC2F303240023C2F3073E2C5D0DF128
:10D0200025068CF80030DFF864C08DF824404EFAF5
:10D0300003F43546E40704D513F80C4005F8014B1A
:10D040002E460133082BF2D10025C0F3435CC0F318
:10D050004343C0F34F0435700846C2F3035509A992
:10D0600000970394CDE9043CCDE9011502F00F03CC
:10D070000449C2F3031241F0E7FD0DB0F0BD00BF5B
:10D0800078FC050854FC050880FC05086CFC0508C4
:10D0900070B5094C0546D4F8442F62B1002601361C
:10D0A0002D21D4F8440F35F047FFAE42F7DBBDE841
:10D0B000704036F043BF70BD8852012003680121E3
:10D0C0009B6810B5044698470122FF236273A3733F
:10D0D00010BD00BF38B51E4C0968D4F84C5F00681D
