:020000040800F2
:10000000F0FF0120E54E0608ADEE0008D1DD040842
:100010005D4F06085D4F06085D4F060800000000B2
:10002000000000000000000000000000A9EE000831
:10003000A5EE000800000000A1EE0008E9C60408D3
:100040005D4F06085D4F06085D4F06085D4F0608C8
:100050005D4F06085D4F0608C1DF040889DF04080C
:1000600051DF040819DF0408E1DE04081D37060823
:100070000D370608FD360608ED360608D93606089F
:10008000C5360608B13606085D4F060800000000B8
:10009000000000000000000000000000A9DE0408CD
:1000A000D1B1040821B20408C1B1040849B204085E
:1000B00011B2040801B20408F1B10408354706087A
:1000C0003D47060829470608314706085D4F0608E0
:1000D0005D4F060899C80408E1C704080000000045
:1000E00071DE04085D4F0608650701080000000086
:1000F0000000000000000000000000009D3606081F
:10010000000000005D4F0608E1B104085D4F0608DD
:1001100000000000000000000000000000000000DF
:100120008936060875360608613606084D36060813
:100130003936060800000000000000000000000042
:1001400000000000000000000000000029E8000896
:100150002536060811360608FD35060829C70408A5
:100160001D470608254706080000000000000000A3
:10017000000000000000000000000000000000007F
:10018000000000005D4F06080000000000000000B5
:080190005D4F06085D4F0608F3
:08019800844A0600010000008A
:1001A0000E02010002000000207100206871002092
:1001B000000000006482070864710020130201003F
:1001C00004000000A0280020707100200000000042
:1001D000668207086C710020031101000A0000000C
:1001E00068700020787100200000000051100108A4
:1001F00074710020232001001000000050700020C6
:1002000088710020000000006D6C020884710020DD
:100210000D1001004C000000EC6A00209C710020D1
:1002200000000000ED0C0408987100200902010094
:1002300001000000746A0020EC7100200000000042
:100240006A820708E8710020FD0101002400000017
:10025000386A0020F4710020000000005F98040854
:10026000F0710020160215003F000000FC2900205C
:100270001C72002000000000352F050818720020B5
:1002800006100100300000006C2900206072002080
:1002900000000000DD8E05085C720020FB010100FB
:1002A00001000000B86500209472002000000000EA
:1002B0006D2F050890720020FC010100090000006C
:1002C000846400209C72002000000000752F050847
:1002D00098720020F7010100060000007C640020F5
:1002E000AC720020000000006C820708A872002099
:1002F000F90101000400000078640020B8720020B9
:100300000000000019990408B472002011020100D5
:100310000800000050640020C072002000000000AF
:1003200072820708BC720020121201000400000053
:1003300048640020CC720020000000007A82070888
:10034000C87200201830010020000000146A00204C
:10035000D472002000000000D12F0508D0720020C8
:10036000190001001000000038640020F87200201D
:10037000000000007E820708F4720020E8030100FC
:10038000040000002C6300200C730020000000001B
:100390004D8F0508087300202A02010006000000A6
:1003A0001857002014730020000000008E820708F8
:1003B00010730020000201000B000000204D0020FF
:1003C0002073002000000000718F05081C730020BE
:1003D000FF21010005000000C84C00203073002000
:1003E000000000005D2F05082C7300200812030098
:1003F0000F000000D44C00203C73002000000000DF
:10040000798F050838730020FA010100030000000D
:10041000344600205073002000000000598F05086A
:100420004C7300200C02010004000000E84400208E
:1004300058730020000000003D8F05085473002011
:10044000FE010100140000006037002060730020EE
:1004500000000000D18F05085C73002012300100FD
:100460001100000074A700208CA9002000000000EB
:100470009482070888A900200B3001001E000000AC
:1004800028A00020DCA9002000000000A6820708A8
:10049000D8A900201F50010024000000FC9F00206C
:1004A00000AA002000000000C4820708FCA9002068
:1004B000050201000A000000889D002028AA0020F3
:1004C00000000000E882070824AA00201B020100A7
:1004D00010000000FCAE00209CB7002000000000CF
:1004E0008D2F050898B700201B2001001400000084
:1004F0006CAB0020B0B70020000000004588010868
:10050000ACB700202102010068010000A8AB002068
:10051000C8B7002000000000C9880108C4B7002047
:100520003710010030000000DCB0002034B900209A
:1005300000000000F482070830B900202F100100ED
:100540002200000074B7002068B9002000000000FD
:100550002483070864B90020232201001000000052
:1005600024AE002090B90020000000004883070856
:100570008CB900201E0001000900000010AE002010
:10058000A4B900200000000058830708A0B900208B
:1005900005200100080000009CAE0020B4B9002036
:1005A0000000000064830708B0B90020FD070100C7
:1005B0007A00000038AA0020C0B900200000000026
:1005C00029810108BCB90020F59101006C000000F0
:1005D000F8AA002040BA0020000000007D98010821
:1005E0003CBA00202610010008000000B8BA002024
:1005F000B0BA002000000000317F0108ACBA002032
:100600001010010002000000C8E10020E8E1002015
:10061000000000006C830708E4E10020283001009E
:1006200016000000B0E10020F0E100200000000012
:100630004DA50208ECE1002020020100600000004E
:1006400050E100200CE2002000000000000000004B
:1006500008E20020012001000C00000084D00020EE
:1006600070E20020000000006E8307086CE20020AA
:100670000C4006000801000068CE002080E2002047
:1006800000000000DD0D03087CE200200E000600E3
:10069000F4050000A0D300208CE30020000000003F
:1006A000B12F050888E300200A9001002000000017
:1006B00034CE002084E9002000000000416C0208D4
:1006C00080E90020131001000400000040DC00203D
:1006D000A8E90020000000007C830708A4E90020AE
:1006E000000101000400000074CD0020B0E90020EA
:1006F0000000000080830708ACE90020020101002F
:100700000300000070CD0020B8E9002000000000C8
:1007100055AB0308B4E90020220201001C010000CF
:1007200004DA0020C0E90020000000007130050854
:10073000BCE90020010201000B00000080CD002078
:10074000E0EA002000000000618F0508DCEA0020DC
:100750000202010003000000CCD00020F0EA0020DB
:100760000000000000000000ECEA0020340001005E
:100770000800000000F70020E4F70020000000005F
:100780009DA10208E0F700202A0008008000000078
:1007900070F60020F0F700200000000071A10208B0
:1007A000ECF70020EA0301000E00000090F00020AA
:1007B00074F80020000000008483070870F800200F
:1007C000E9030100180000003CF6002088F8002032
:1007D000000000009283070884F800202B0012001C
:1007E00024000000C8F80020A4F800200000000049
:1007F0001D8D0208A0F800202920140078000000B8
:100800000CF40020F0F800200000000000000000C0
:10081000ECF80020F62101000C000000ACF10020F3
:100820006CF9002000000000AC83070868F9002084
:100830001C0202001C00000058F10020C0F900203A
:100840000000000009A50508BCF9002038000100DF
:1008500007000000ECF900204C0601200000000019
:10086000B883070848060120EC031D00AE00000015
:10087000F4F900205806012000000000E5040308F8
:1008800054060120EB03200000010000F0030120CA
:100890000C070120000000000000000008070120F4
:1008A00025302000000200005C1401206C1801209B
:1008B000000000000000000068180120290201006B
:1008C00040000000AC0A0120701A01200000000066
:1008D000C08307086C1A01202C02010004000000EC
:1008E00018110120B41A012000000000008407083C
:1008F000B01A0120031201003D000000E6130120A0
:10090000DC1A01200000000004840708D81A012026
:10091000F831010002000000E4130120201B012037
:1009200000000000428407081C1B01200200010097
:100930000C000000D8130120281B0120000000003B
:1009400000000000241B0120390001000500000008
:100950002C130120381B012000000000252F050862
:10096000341B01200612030012000000181301209E
:10097000441B01200000000095A50508401B012034
:100980001D02020006000000A01201205C1B0120D5
:100990000000000000000000581B01200A020100B6
:1009A00014000000DC0F0120E82B012000000000F3
:1009B00021AB0308E42B01202802040004000000FE
:1009C00098350120B436012000000000AD2F050845
:1009D000B0360120270204000400000094350120F5
:1009E000BC36012000000000A12F0508B836012008
:1009F0001F0208001000000084350120C4360120C9
:100A000000000000392F0508C03601201A0201003D
:100A10004900000034310120D836012000000000D8
:100A2000D9A50508D43601201610010004000000E5
:100A300048370120AC37012000000000448407083B
:040A4000A8370120B2
:100A44000403090412010002EF0201408304563238
:100A54000002010203010000120100020202004030
:100A6400830440570002010203010000FFFFFFFF5F
:100A74000000000000000000010000000000000071
:100A840000000000573600200000000001000000B4
:100A94000000000000000000000000000000000052
:100AA4000000000000000000000000000000000042
:100AB4000000000000000000010000000000000031
:100AC40000600240106002400000000000000000CE
:100AD40000000000000B0000000000000000000007
:100AE4000000000000600240286002400100000095
:100AF4000000000000000000060C000000000000E0
:100B0400000000000000000000600240406002405D
:100B1400020000000000000000000000100D0000B2
:100B2400000000000000000000000000006002401F
:100B340058600240030000000000000000000000B4
:100B4400160E00000000000000000000000000007D
:100B540000600240706002400400000000000000D9
:100B640000000000200F0000000000000000000052
:100B740000000000006002408860024005000000A0
:100B8400000000000000000026100000000000002B
:100B9400000000000000000000600240A06002406D
:100BA40006000000000000000000000030110000FA
:100BB400000000000000000000000000006002408F
:100BC400B8600240070000000000000000000000C0
:100BD400362F0000000000000000000000000000AC
:100BE40000640240106402400000000000000000A5
:100BF40000000000003800000000000000000000B9
:100C0400000000000064024028640240010000006B
:100C14000000000000000000063900000000000091
:100C24000000000000000000006402404064024034
:100C3400020000000000000000000000103A000064
:100C440000000000000000000000000000640240FA
:100C5400586402400300000000000000000000008F
:100C6400163B00000000000000000000000000002F
:100C740000640240706402400400000000000000B0
:100C840000000000203C0000000000000000000004
:100C94000000000000640240886402400500000077
:100CA40000000000000000002644000000000000D6
:100CB400000000000000000000640240A064024044
:100CC40006000000000000000000000030450000A5
:100CD400000000000000000000000000006402406A
:100CE400B86402400700000000000000000000009B
:100CF4003646000000000000000000000000000074
:100D04007D000000B5830008B1830008AD830008AE
:100D1400A18300089D830008A9830008A583000817
:100D240031A10008F1860008E1880008718F0008ED
:100D3400ED8F0008B5900008DD860008CD8400081A
:100D4400C5840008010000000000803F65480108D8
:100D5400694D0108E148010809090108ED0A010883
:100D64001909010835090108E1080108D108010839
:100D7400000000000000000009022000010104C07E
:100D840032090400000208065005070581024000EC
:100D9400000705010240000009026400030100C0CD
:100DA40032090400000103000000092111010001BF
:100DB4002236000705830309000A080B0102020218
:100DC40001000904010001020201000524001001D0
:100DD4000524010002042402020524060102070579
:100DE40082030800FF09040200020A00000007054C
:100DF400010240000007058102400000090243008F
:100E0400020100C0320904000001020201000524AD
:100E14000010010524010001042402020524060037
:100E240001070582030800FF09040100020A00000B
:100E34000007050102400000070581024000000090
:100E4400FF000000140000FF00000000000000008C
:100E5400AA550701000001AA55050100002D202D07
:100E64002D202D2D2D2D202D2D2D2D0000000000A9
:100E74000000000000000000000000000800000066
:100E8400B87C0608FF1FFF1FFFFFFFFF05010905D0
:100E9400A101A100050109300931093209330935DD
:100EA4000934093609371581257F750895088102AB
:100EB4000509190129081500250195087501810204
:100EC400C0C0000009022200010100E03209040050
:100ED400000103010200092111010001223600076B
:100EE40005830309000A0000000000000102030456
:100EF4000102030406070809AA550B010000AA55BC
:100F040005010000AA550902000000AA5503009F2C
:100F140001000000C0120000D0A900200000000061
:100F2400A0A9002000000000010000000F00000044
:100F34000200000001000000000001007EFFFF002D
:100F4400FFFFFFFF0101FF01E0010100C1F70108FC
:100F540000000000000000002483060808FF0000D1
:100F6400000000000000000000000000F0990608E6
:100F7400000000000000000000000000A89A06081D
:100F8400000000000000000000000000549A060861
:100F94000000000000000000A50C020866D3002039
:100FA4009117020800000000000000008099060864
:100FB40001010000F1240208A92602080000000033
:100FC4000C9C06083D2402080000000000000000FC
:100FD400709B060891280208000000000000000031
:100FE400289B06082D202D2D202D2D2D2D202D2D37
:100FF4002D000000000000000000000000000000C0
:1010040000000000FFFFFFFF01000000FA000000E5
:10101400010000000100000001010000CCCF00200D
:101024000000F40101000000CACF00200000F40118
:1010340001000000C8CF00200000F40101000000FE
:10104400C6CF00200000F40101000000C4CF00203E
:101054000000F40101000000C2CF00200000F401F0
:1010640001000000C0CF00200000F40101000000D6
:10107400DDFE0108A1FE01080000000058880608F2
:10108400B0CF002005320100BECF00206400F4017F
:1010940001000000BCCF00206400C409010000006E
:1010A400AECF0020E803D00701000000ACCF002041
:1010B400E803D00701000000AACF0020E803D0070E
:1010C40001000000A8CF00201E00B80B01000000A2
:1010D400B6CF002005000F0001000000B8CF0020AB
:1010E40003000A0001000000A6CF00201E00F40146
:1010F40001000000BACF002002000000E4880608C6
:10110400A4CF00201400640001000000B2CF00202E
:101114003200E80301000000A2CF00200000C80054
:1011240001000000F4FC0608FCFC060864D300205F
:101134000100C4090000000062D300200100C409BA
:101144000000000060D300200100C409000000007A
:101154005ED300200100C409000000005CD300201D
:101164000100C409000000005AD300200100C40992
:101174000000000058D300200100C4090000000052
:1011840056D300200100C40900000000A1CD0020B6
:1011940000C80100A0CD002000C801009ECD0020A1
:1011A4000000FFFF0A0000009CCD00200100C800E1
:1011B400010000009ACD002032003075320000009A
:1011C40098CD00207EFF14000500000096CD00207D
:1011D40005002C010500000094CD0020055A0500EF
:1011E40091CD002000FF010093CD002002000000FB
:1011F4007C0800208FCD002003000000587D0608E5
:1012040090CD002000FF010092CD002002000000DC
:101214007C0800208ECD002003000000587D0608C5
:10122400E4CC0020FF7F0100E0CC0020000000009F
:10123400FFFFFFFF01000000DCCC002000000000E5
:10124400FFFFFFFF01000000D8CC002000000000D9
:10125400FFFFFFFF0100000031FE0108C1FD01088E
:10126400000000000889060894D00020EE02CA0895
:101274000100000092D0002000C8010064000000BA
:1012840091D0002002C801006400000090D000202A
:1012940002000000F08806087ACD00200083007D5B
:1012A4000500000078CD002080C1803E05000000CC
:1012B40073CD002000FF01006CCD00206400F40118
:1012C400010000006ACD00206400F4010100000068
:1012D40068CD00206400F4010100000066CD002008
:1012E40003000000148A060865CD002002000000F7
:1012F400248A060829CE00200D000000308A060842
:1013040026CE00200064010024CE002032001027E5
:101314000A00000022CE00200D000000308A0608DA
:1013240021CE00200D000000308A060820CE0020C7
:1013340003000000688A06080000000000000000A6
:1013440000000000788A06089AD000204E000000B1
:10135400B08A060898D000200100401F0100000058
:1013640096D0002003000000EC8B06082BCE002052
:1013740003000000FC8B06082ACE002003000000B6
:10138400FC8B060856CE00200000E8030100000094
:1013940054CE00200000E8030100000032CE0020FB
:1013A400C800E8030100000030CE00203C00FA0031
:1013B400010000002ECE00200A006400010000009D
:1013C4002CCE00200008010064CE002002000000A2
:1013D400FC88060862CE00200000F4010100000031
:1013E40060CE00200000F401010000005ECE002069
:1013F4000000F401010000005CCE00200000F401B4
:10140400010000005ACE00200000E80301000000A3
:1014140058CE00200000E8030100000089CF00201E
:10142400006401000A00000088CF0020006401006D
:101434000A00000082CF0020006401000A000000BE
:1014440081CF0020006401000A00000080CF00204A
:10145400006401000A00000086CF002000FF0100A4
:101464000A00000085CF002000FF01000A000000F0
:1014740084CF002000FF01000A0000007ECF00207E
:1014840001FF01000A0000007DCF002001FF0100E0
:101494000A0000007CCF002001FF01000A000000C8
:1014A40096D9002000C8010095D9002000C8010089
:1014B40094D9002000C80100A4D900200000D0075E
:1014C400010000009FD9002000C801009ED900201F
:1014D40000C801009DD9002000C80100A2D9002045
:1014E4000000D007010000009CD9002000C80100C2
:1014F4009BD9002000C801009AD9002000C801002F
:10150400A0D900200000D0070100000099D90020D4
:1015140000C8010098D9002000C8010097D9002014
:1015240000C80100FC0A0708000000000000CAE12E
:101534000020080B0708070000000000740C0020BE
:10154400100B07080700000000006C0C0020180BAB
:101554000708070000000000640C0020200B0708A7
:10156400080000000000580C0020280B07080700A2
:1015740000000000500C0020300B0708070000009A
:101584000000480C0020380B07080700000000008A
:10159400400C0020400B0708080000000000340C39
:1015A4000020480B07080700000000002C0C002056
:1015B400500B0708070000000000240C0020580B03
:1015C40007080700000000001C0C0020600B07083F
:1015D400080000000000100C0020A0FC0608010018
:1015E40000000000000000000000000010000000E7
:1015F4000000000000000000F5FB0108D9FB010811
:10160400451702080C8C06081CCE0020E803D007FE
:10161400010000000000000000000000E50C0208CA
:10162400A88C06088DCD002003000000FC8C060861
:101634008CCD0020000301008BCD002000030100AD
:1016440045FB0108F9FA0108000000000C8D0608AA
:10165400B9FA010871FA010800000000A88D060813
:1016640091FB01082917020800000000288E0608D3
:101674007CCD00200103010085F701085DF7010816
:10168400000000008C910608C9FF01089DFF0108B5
:10169400000000000C920608F1F90108A9F90108FC
:1016A400000000007C92060805FC0108A530020831
:1016B4000000000018930608211B0208F5FF01082A
:1016C40000000000C093060855FC0108000000005B
:1016D400000000005C940608A1FC010869FC0108F4
:1016E40000000000C09406081DFD0108D9FC010893
:1016F40000000000409506089D6B020861FD01088A
:1017040000000000CC950608A0CF002001060100CF
:10171400596B020819190208000000009096060887
:10172400E56B020855190208000000007C0C00203B
:101734009FCF002001060100C1FB0108A9FB01089D
:1017440000000000E4960608C91602080000000024
:10175400000000002C97060839FA01081117020846
:1017640000000000C8970608000000000000000008
:10177400000000006498060899FD0108CD190208CC
:1017840000000000E49806080000000000000000CB
:1017940000000000F09A0608609D00209CFF2C01C8
:1017A40000000000B4DB0020E0150C17000000006E
:1017B400B6DB002002000000F49C060861CD002086
:1017C40002000000F49C06085CCD002088136F170B
:1017D400010000005ECD002088136F170000000098
:1017E4009C70002000000000000000009A7000209F
:1017F40000000000000000009870002000000000BD
:1018040000000000967000200000000000000000AE
:10181400947000200000000000000000927000207E
:1018240000000000000000006C0600200000000022
:1018340000000000E5CC002003000000709C0608B6
:1018440054CD002088136F1701000000C2A40020AB
:1018540088136F170000000089F8010800000000D9
:1018640000000000809C060821D300200100000035
:10187400D49C0608C4A4002001000000E09C0608D3
:10188400BAA4002002000000E89C06080000000042
:101894000000000000000000009D060871F8010827
:1018A40000000000000000009C9D060800000000ED
:1018B4000000000000000000F09D06080000000089
:1018C4000000000000000000609E060860CD0020BB
:1018D40002000000F49C0608BEA40020E0150C17CA
:1018E400000000006CEC0020C0EC002001F11F3F60
:1018F400D601FF0100010101000000000000803F4B
:101904000000000000000000000000000000803F14
:1019140000000000000000000000000000000000C3
:1019240000000000000000000000000000000000B3
:101934000000000019450508000000000000000038
:101944000000000000000000C81A01200800000088
:1019540000000000B81A0120080000000100000087
:1019640014A80608E0100020890D040800000000F7
:101974000000000000000000350D04080000000015
:1019840000000000000000004F1001084B10010887
:1019940043100108290E01082D1A0108591A0108DB
:1019A400E11901083910010829100108191001086A
:1019B40009100108B50D0108000000000100000035
:1019C400A00F0000B80B00000102FFFF010200009D
:1019D400BD470108FD090108554701080000000042
:1019E400CD0801083D500108A5460108F942010847
:1019F40000000000000000008D080108C5830008F5
:101A0400B9830008ED8E0008098F0008D18E000804
:101A1400B58E0008998E000875470108D909010898
:101A2400A946010800000000A5080108FD420108BC
:101A3400794601086542010800000000000000002A
:101A440099080108FF000000F4260708BCF5060801
:101A540000000000D5AB0308A086010004000000CC
:101A6400F4260708FC2607080000000061D90408D2
:101A7400E8030000040000006803070800000000F9
:101A840000000000716B03087D000000FF000000EF
:101A940004010708000000000000000059230308A7
:101AA4007D000000FF000000F005070800000000B2
:101AB40000000000953703087D000000FF000000CF
:101AC40070030708000000000000000051390408FA
:101AD400E8030000030000000427070800000000DA
:101AE40000000000997C0308D007000003000000F8
:101AF4009C6C0708000000008D8B020855680408E0
:101B04005F76000005000000187007080000000060
:101B1400000000007D94040810270000020000006B
:101B2400102707080000000000000000C596040804
:101B3400E8030000050000001C270708000000005F
:101B440000000000E5B103081027000003000000B6
:101B54002C270708000000000000000085B00308DF
:101B640010270000030000003C27070800000000C5
:101B740000000000E5640408400D030003000000B9
:101B8400241307080000000000000000616204083C
:101B94001027000002000000E8F50608000000001D
:101BA4000000000059DB01081027000003000000BA
:101BB4004C27070800000000000000008D3C0408CA
:101BC400A086010002000000AC010708000000002C
:101BD40000000000893F040850C300000200000018
:101BE400401307080000000000000000D90D04089D
:101BF400A00F0000020000005427070800000000A6
:101C04000000000001C401081027000002000000C9
:101C1400EC0C070800000000DD800108FDB7010896
:101C240085450100020000001CFF060800000000BA
:101C340000000000011E010810270000020000003F
:101C4400D0F506080000000000000000ED3902088D
:101C540050C30000020000006027070800000000D5
:101C640000000000C51A0108400D03000100000037
:101C7400682707080000000000000000A90C040801
:101C8400400D030002000000702707080000000058
:101C9400000000002DEB010850C300000300000009
:101CA4007C270708000000000000000061BC030856
:101CB40040420F00010000008827070800000000D0
:101CC40000000000B10D040850C300000100000032
:101CD4009427070800000000000000007952010862
:101CE4001027000002000000FFFF0000FFFFFFFFBD
:101CF400786C0708000008020503030000000000D8
:101D0400846C0708010008020504030000000000B9
:101D1400906C07080000080205030300000000009F
:101D2400986C070801000802050403000000000085
:101D34005C1007080200FE0101100300000000000F
:101D44006000070803001402000300000000000004
:101D5400A06C070804001F02020008000000000035
:101D6400A86C070805001F0202010800000000001B
:101D74001A03000000000000000000000000000042
:101D8400000000000000000000000000040309043B
:101D940012010002000000408304205700020102E7
:101DA4000301010002000000000000009016002062
:101DB400EC3F01200200000001000000F191050841
:101DC4008C1600200000000001000000010000004B
:101DD40031920508FC1400200000000000000000FF
:101DE40000000000000000000000000000000000EF
:101DF40000000000010000000000000000000000DE
:101E040000000000000000000100000000000000CD
:101E140000000000000000000000000001000000BD
:101E240000000000D80000000000000005000000D1
:101E3400060000000500010103000000000000008E
:101E440005000000FFFFFFFFFF00000069AD05086B
:101E540051AD050841AD0508F98F0508F1AC050839
:101E640099AC0508E98F05089416002065A60508B5
:101E740001900508FD8F0508F58F0508B1A7050831
:101E8400F18F0508ED8F0508D0EB0608D94F01083E
:101E9400B9090108B94E0108000000000000000063
:101EA40051460108614501080000000000000000DF
:101EB4000000000081080108999005088D9005082C
:101EC400CDAD0508E9AD050845900508B1AD050897
:101ED40095AD05081F0000001C0000001F00000055
:101EE4001E0000001F0000001E0000001F00000074
:101EF4001F0000001E0000001F0000001E00000064
:101F04001F0000000068214C0000000000000000D9
:101F140000000000010000000000000000000000BC
:101F240000000000000000000100000000000000AC
:101F3400F401000006000000050000000080020219
:101F44001F00000053544D202020202050726F6445
:101F5400757420202020202020202020302E303195
:101F6400FF00000000000401000002000100000264
:101F74001000000007000000000000000000000046
:101F84000102030406070809C70000000500000059
:101F940006FF0000F016002000000000248207085D
:101FA40044820708048207080000000000000000C3
:101FB400000000000000000000000000000000001D
:101FC400000000000000000000000000000000000D
:101FD40000000000000000000000000000000000FD
:101FE40000000000000000000000000000000000ED
:081FF4000000000000000000E5
:08280000082800080040000850
:04400000FFFFFFFFC0
:10800000024B9A6D136A002BFCD170475017002069
:108010001248002302461178032902F1060218D003
:108020000133062BF7D10E4AD2F81831052B0FD0A9
:10803000591C03EB4303C2F8181100EB4303032060
:1080400040F2EB3140F2FF32187059809A8070474D
:10805000704703EB430300EB4303F0E744180020B1
:108060005017002030B51349134B8DB0082501225D
:1080700001F15800069381F8F05000230DEB050143
:108080000DF10704CDE90733CDE9034202938DF8E2
:10809000143009930B938DF8282046F015FAFFF75A
:1080A000AFFF9DF80700A0F1FF00B0FA80F0400993
:1080B0000DB030BD50170020BD800008826D136ADE
:1080C0005B681B78FF2B08D090F8F030013BDBB2E7
:1080D00080F8F0301BB10120704700207047126A11
:1080E000526802201370704770B4C3080D4CE25CF4
:1080F00000F00706B24004EBD004D2B20020C6F173
:1081000008038B4228BF0B46C3F108052A4198405B
:10811000C91A40EA02004FF0000614F8012FEED110
:1081200070BC704790170020084AD2E94731994245
:108130000AD0D118013391F824110170C3F30A0356
:10814000C2F81C31012070470020704750170020F2
:10815000044BD3E94730C01AC0F30A00C0F50060F1
:10816000704700BF50170020012380F8513070473E
:1081700007B501A8FFF7D8FF0028FAD09DF8040042
:1081800003B05DF804FB034BD3E94730C01AC0F3DA
:108190000A0070475017002001207047024BC3F8B7
:1081A0002429C3F82819704750170020024BC3F840
:1081B0002C29C3F8301970475017002070477047BA
:1081C00030B4114DD5E947239A1AC2F30A020A4482
:1081D000B2F5006F13D8A9B101444A1E013810F856
:1081E000014FE918824203F1010381F82441C3F3EE
:1081F0000A03F4D1C5F82031002030BC70470220BA
:1082000030BC70470846F8E75017002070B5144C92
:1082100094F83439002BFBD1F9B101444E1E451EB0
:1082200002E0012044F0C0F9D4F83839D4F83C29F0
:108230000133C3F30A039342F3D0D4F83829D4F8B6
:10824000383915F8011F22440133C3F30A03B5423C
:1082500082F84019C4F83839E6D1002070BD00BF5B
:108260005017002010B5074CA36C0846114643B1C7
:10827000A36C052B05D1002AE36C02DDFFF7C6FFD6
:10828000E36C10BD4828002010B590F85010002372
:1082900080F8503061B1094CA26C5AB1A26C052A29
:1082A0000AD13C30E36CFFF7B1FFE36C012010BD55
:1082B0000120FCE71046FAE71846F8E748280020B6
:1082C000002280F85120DFE790F85020531C024430
:1082D000DBB280F8503082F83C1090F851200AB19F
:1082E000132B00D9D0E77047212838B50C4605D0AC
:1082F00022282DD0202812D0002038BD0029FBD004
:10830000072AF9D1194B186D93F8541093F855209A
:1083100093F85630206021716271A371ECE7002957
:10832000EAD0072AE8D1124AD2F828391BB1D2F88C
:108330002409096898470D4B256820796179A2794D
:108340001D6583F8540083F8551083F85620D3E751
:108350000029D1D0022ACFD1054AD2F83039002BDA
:10836000CAD00988D2F82C099847C5E748280020C8
:1083700050170020014B00209864704748280020C7
:10838000044B054A002005219164C3F83009C3F865
:10839000280970475017002048280020704700BF68
:1083A000704700BF704700BF704700BF704700BFF5
:1083B000704700BF704700BF042301480B8070471F
:1083C0009801002010B4074A074B92F85800122475
:1083D00003F114020C8001280CBF184610465DF80A
:1083E000044B7047482800209C010020A0B18268FF
:1083F0000D4B12B107229A7070471978DA60032981
:108400004FF004000CBF80214FF48071C3E90111CB
:108410001A611A7598707047034B41F2E47101229A
:108420005A545A70704700BF8C8300200378022B87
:1084300010D0006908B9012070470C4B1B78032B42
:108440000EBF0B4B80B24FF6F773984294BF0020DB
:10845000012070470549436841F650028A58B3EB42
:10846000422F2CBF01200020704700BF8C830020CA
:10847000F7FFFF0F0378022B14D030B4104A436883
:10848000006941F6480402F5C2511559096841F6E0
:108490003C042B4012595B0A023801FB00301044A7
:1084A00030BC7047064B426841F6340141F630005B
:1084B0005958185800EB410000EB5220704700BF9C
:1084C0008C8300200048704778170020034B93F8F6
:1084D0002400032894BF002001207047501700207B
:1084E00070B592B00B0E0D0C40F04006952204467C
:1084F0008DF80810080A01A98DF805308DF806508E
:10850000002306258DF807008DF809200DF10300E2
:108510000122039114498DF80460CDE90733CDE9B8
:108520000D33CDE9090204938DF818308DF82C3005
:108530000F93119305958DF840200C91FFF792FD54
:1085400000B974B9094B082203F1580003A983F854
:10855000F02045F0B9FFFFF753FD9DF8030012B07E
:1085600070BDFF2012B070BD71850008501700204B
:10857000836D1B6A5B681B78FF2B0AD190F8F03083
:10858000002B03F1FF3380F8F03014BF01200220EC
:1085900070470020704700BF30B51049104B8DB0B8
:1085A0000546012201F15800069381F8F05000239E
:1085B00002A90DF10704CDE90733CDE90342029387
:1085C0008DF8143009930B938DF8282045F07CFF2B
:1085D000FFF716FD9DF807000DB030BD50170020C5
:1085E0007185000870B51B4E90B00024FD22012556
:1085F0000DF1030306F1580001A98DF8032006933D
:10860000CDE90144CDE90A44CDE90C4434628DF84A
:108610001040059407948DF824400F940395089515
:108620008DF8385045F050FFFFF7EAFC2846FFF779
:10863000B3FFFF2808D0084BDB6C73612046092389
:1086400086F8243010B070BD0423022086F8243050
:1086500010B070BD501700204828002070B50646A5
:1086600090B008200D46FFF797FFFF2822D0FE2884
:1086700002D0022010B070BD0024022201230F4856
:10868000089201A98DF83830CDE90544CDE90A44B6
:10869000CDE90C440296039501948DF8104007949F
:1086A0008DF824400F9445F00FFFFFF7A9FC2046FA
:1086B00010B070BD012010B070BD00BFA817002021
:1086C00008B5FFF79DFC0A2043F032FE024B186EFE
:1086D000BDE8084045F0DEB850170020034B93F882
:1086E0002400003818BF0120704700BF5017002039
:1086F000F0B50379264C002B14BF012200228BB069
:1087000084F8502003D184F824300BB0F0BD054626
:1087100090F9001004F1580046F04CF8AD785DBBBC
:1087200001271C482566C4F8EC4084F8647046F0C4
:1087300077F8194E03464FF47A70A4F85C3043F092
:1087400033FF206E45F0A6F80FCE6D460FC50FCE55
:108750000FC596E8030085E803001048694645F018
:10876000B3FEFFF74DFC0E4B84F82470DB6C6361A5
:10877000002323760BB0F0BD284644F0B1FD05463A
:1087800008B11E23C3800921284643F0E9FAC7E750
:1087900050170020801A0600587A0608A8170020F3
:1087A000482800202DE9F84F474B98420ED003F59A
:1087B0006853083398424BD0444B0020C3E9320041
:1087C000A3F8C400A3F8D000BDE8F88F3F4C404F99
:1087D000DFF808810223E36504F160060025FB6AE7
:1087E000AB42294605F1010503D0D4F8E00055F06D
:1087F000F3FD94F8E430D4F8E02086F824303262B7
:108800003046414655F0FCFFE36D9D4206F13006CF
:10881000E5DB002384F8D230D4E91A03E16DB4F823
:108820006420B4F87050C4F8F03012FB01F203FB7E
:1088300001F3A4F8C420B4F86610264AA4F8D05076
:10884000C4E93203A4F8C610C4F8C0200120BBE775
:108850001E4C1F4F0223E36504F160054FF0000B2F
:108860004FF4806A4FF040094FF40068FA6A01261D
:108870005A455946B34403D0D4F8E00055F0ACFD56
:10888000D4F8E01094F8E420296285F824204FF40D
:1088900000314FF00062C5E90212A5F804A0A5F866
:1088A0001090A5F80680AE74FFF7B2FB28466E76EE
:1088B00055F0F2FEE26D084B45F8303B9345D5DBB1
:1088C00084F8D260A8E700BF1971EF0048280020A3
:1088D00098010020AC7A0608807A06081940EF005B
:1088E0002DE9F843194C94F82460042E0546894676
:1088F00090461F4608D0082E02D00020BDE8F8831D
:10890000FFF770FE0228F8D1206E44F0BDFFA37E71
:1089100093B969021120FFF7E3FD98B90C4BC4F835
:108920000090DA6C65600523C4E90387626184F80E
:1089300024300120BDE8F88329461120FFF7D0FD3F
:108940000028EBD0FFF7BCFED7E700BF5017002090
:10895000482800202DE9F04FBA4DBB4F06460FCDF9
:1089600007F1F4042DED048B0FC40FCD0FC497F85D
:1089700026312A6822608BB0022B97F82C210296B0
:1089800000F03682032B00F02C82002B00F03582A1
:10899000DFEDAE7AF0EE678A002AAD49AD4AC7F83E
:1089A0000421AD48AD4BC7F80C010EBF00220122D7
:1089B0000B46039237EEA87AF5EE006AC6EE879A68
:1089C000A74DC7F80831A5F1230B05F160084FF05A
:1089D000000A9FEDA48A9FEDA49A27EE888A029B45
:1089E000534540F391811BF8014B002C00F0AD8101
:1089F000002302E0152B00F0A88103EB43024FEAAD
:108A0000430918F80210A14203F10103F2D13A44DC
:108A100092F8B511002900F0FE81204642F06EFE6A
:108A20000646304642F088FF0178002940F08D81EB
:108A3000B9440AF1010300930322DBB289F8F5314E
:108A400089F8F421002E00F080814FEA141909F111
:108A5000FF39B9F1040F04F00F0C00F2A981834C27
:108A600004EB4901B1F8A40040FA0CF111F0010146
:108A700000F09E81012101FA0CFC0CF1FF3C0CEA94
:108A80000000A14401935CF0B5F899F8B0C0DFF89C
:108A9000E4E1019B60440EEBC00C03228CF807302C
:108AA0008CF806205EF83000C5F814C000F13F4392
:108AB00003F57E0304EB9324012194F8B830727A15
:108AC00003F01F045B09032B01FA04F100F082811B
:108AD000042B00F07A81022B00F07281BCF8044074
:108AE000B4FA84F3C3F11F03C3F3CC0100EB81019B
:108AF00003F00703D1F820C09B004FF00F0E0EFAD1
:108B000003FE2CEA0E0CC1F820C0D1F820C002FAF6
:108B100003F343EA0C0305AA0B62114602230192F8
:108B2000CDE905430CF032FE019A039B002B00F0C7
:108B30002781B7F82431D7F8A0C4346807EE903AFB
:108B4000F8EEE77AFCEEE77A17EE900ABCFBF0F35A
:108B500003F57F43FF331B0CBCFBF3F3B3FBF0F0D7
:108B600001381FFA80FE07EE903ABCFBF3F3B8EE33
:108B7000677A2188DFF800C167EE087A013BC5ED0E
:108B8000027A69EE677A6445E7EE287A9BB289B289
:108B9000C5ED037A11D0364884420ED0B4F1804F2F
:108BA0000BD0ACF57C4C644507D00CF5806C64456B
:108BB00003D00CF5806C644502D121F0700189B2BC
:108BC000DFF8B8C0644500F0CA800CF5806C6445DD
:108BD00000F0C58021F440710CF56C4C89B26445FD
:108BE0002180C4F82CE0238540F0E5800023238613
:108BF0000120A082337A96F805900021CDE9071173
:108C00004FF0600CADF8181009919907CDF814C019
:108C100040F1AA80DB0003F008030421ADF8223004
:108C2000ADF818104946204642F05EF9B9F10C0F34
:108C30002ED8DFE809F0812D2D2D782D2D2D6F2DCB
:108C40002D2D2500D87A0608482800206F120339F8
:108C50000199040805990408ADAE030865A6030848
:108C60009C2900206F12833A00007A44587A060843
:108C700000040140682A002000000140001000406C
:108C8000A38B23F400631B041B0C43F40063A38336
:108C90003368B3F844206FEA42426FEA524292B21C
:108CA000A3F844201A88194692B242F0010221F832
:108CB000342B70796B600C1800222C600A50BAF1CA
:108CC000000F00F08C80D7F858118B4200F08E8096
:108CD000BAF1010F00F08380D7F870118B4200F0D9
:108CE0008580BAF1030F7AD1D7F88821D31A18BF3B
:108CF0000123DDF800A02B740122BAF1040F6A747D
:108D000005F118057FF46BAE44480BB0BDEC048B45
:108D1000BDE8F08FA38B23F008031B041B0C43F06A
:108D20000803A383B4E7238B23F400631B041B0C09
:108D300043F400632383ABE7238B23F008031B0476
:108D40001B0C43F008032383A2E7354A354B002070
:108D5000C7E942320BB0BDEC048BBDE8F08F218037
:108D6000C4F82CE0238543E75B0003F002034FF4D3
:108D70008071ADF82030ADF81600ADF8241051E741
:108D8000B0EE690A01925CF0F1F8FCEEC07AD7F817
:108D9000A0C43468019A17EE903ABCFBF3F303F5D4
:108DA0007F43FF331B0C4FF6FE7EBCFBF3F3DAE68A
:108DB000696105AAB9E61C4B9C423FF417AF17E75F
:108DC0001A4B5C6C2143596488E6184B1C6B214399
:108DD000196383E6154B1C6C214319647EE601235D
:108DE00087E7DFED137ADFED138AD5E5134680E7D9
:108DF000DFED117AF0EE678ACEE5104BDFED107AE9
:108E0000104AC7F8043101230393C7F80C21054B1E
:108E1000F0EE678ACEE50E4603E600BF3C2900204F
:108E200085AA0308019904080004014000380240A3
:108E3000ACC5A737ACC5A736282930380599040832
:108E40006F12833AADAE0308F8B5104ED6F8A044C1
:108E5000054600680F4664080CF09CFBB4FBF7F174
:108E6000B1F5803F03D3012CFAD96408F6E7224616
:108E7000284689B242F0E2FA054BC6F8083D28467A
:108E80000449BDE8F840002242F0E6B94828002035
:108E9000E92902085035002010B5044C04480A4660
:108EA00021460BF063F9204610BD00BF5835002065
:108EB00014EE060810B5044C04480A4621460BF08F
:108EC00055F9204610BD00BF5835002024EE060895
:108ED00010B5044C04480A4621460BF047F92046D9
:108EE00010BD00BF5835002030EE060810B5044C08
:108EF00004480A4621460BF039F9204610BD00BF50
:108F0000583500203CEE060810B5044C04480A46CB
:108F100021460BF02BF9204610BD00BF583500202C
:108F200048EE060810B50BF0F5F80E4C48B194F871
:108F30002430032B10D8237E0133DBB2072B23769A
:108F400003D9002384F8243010BD074A0123D26CD2
:108F5000626184F8243010BD044845F061FCA4F837
:108F60005C00E8E75017002048280020801A06001F
:108F700070B51D4C94F82430042B06460D4608D0DD
:108F8000082B20D1E36983422BD0FFF72BFB02286B
:108F900019D1206E44F078FC00213720FFF7A0FAA9
:108FA00029461720FFF79CFAA8B9A37E6BB9710276
:108FB0001920FFF795FA70B90823C4E9076584F80A
:108FC0002430022070BD012070BD31461920FFF70A
:108FD00087FA0028F0D0FFF773FBFFF7A3FF032009
:108FE00070BD022070BD00BF501700202DE9F04178
:108FF0002B4C0546884617461E4694F82400042844
:1090000034D0082806D1E369AB4206D0FFF7EAFA6C
:109010000228F2D00120BDE8F0814FF0FC0CA26DD7
:109020002048117B204B80F80FCEC3F8588051B1F7
:10903000526942B194F8E020002A0CBF4FF48072CC
:109040004FF4007201E04FF480721A661749184815
:1090500045F03AFA01220623C4E90085C4E9037603
:10906000227284F824300020BDE8F081206E44F0A4
:109070000BFCA37E5BB969021820FFF731FA40B9F7
:1090800094F82430082BC8D04FF0FE0CC7E72946CF
:10909000F2E7FFF715FBFFF745FF0320BBE700BF33
:1090A000501700204828002098010020C801002007
:1090B000A81700202DE9F04FC54C94F8506095B0EA
:1090C000002E00F07F8194F82420C24F04F158084C
:1090D00004F14009531E082B00F29580DFE813F0DD
:1090E000330059001E0193008200A3001800930072
:1090F0000900FEF7B7FF002840F018826369FA6C98
:10910000FA3393427CD2FFF70DFF94F82420E1E775
:10911000FEF7A8FF0028F1D0236A0022012B227657
:1091200040F21982E269013B511CC4E9071308228D
:1091300084F82420A2F10806B6FA86F676093046AD
:1091400015B0BDE8F08F206E44F09EFB002108466C
:10915000FFF7C6F90546FFF7B3FA012D50D1206E8F
:109160004FF0000A84F819A044F08EFB40F2AB11D6
:109170000820FFF7B5F9052800F07881012800F0F4
:109180004181FFF79DFA627E002AD1D0022384F844
:109190002430206E44F078FB637E022B0CBF4FF02E
:1091A0008045002500213720FFF79AF9294629201C
:1091B000FFF796F90546FFF783FA0DBB637E022B96
:1091C00000F06781A576206E44F05EFB0021092047
:1091D000FFF786F9002872D0FFF772FA94F824207E
:1091E000531E10E020684FF40071FFF737FA012892
:1091F00000F02581022800F02881002800F0388145
:1092000094F82420531EDBB2022B09D8714B6169FC
:10921000DB6C5B1AC82B8DD9FFF784FE94F82420F1
:10922000042A87D18BE7A26D117B136A002900F015
:10923000D5805269002A00F0D18094F8E020002AFD
:1092400000F0CC80B3FA83F35B09002BD8D004A9DB
:1092500000250DF10F0302224FF0010A059140464F
:1092600005A9CDE90B3A0792CDE90955CDE90E558F
:10927000CDE91055ADF8105006958DF820508DF8B9
:10928000345013958DF848A045F01EF9FEF7B8FE4E
:109290009DF80F3003F01F03052B00F05081FFF7FE
:1092A00041FED4F80CB0BBF1000F00F0DC802A4680
:1092B000236961685046D84794F824200AE71021B2
:1092C0004846FFF7CBF98246002885D101217F204F
:1092D000FEF70AFF012805467FF47EAF50460221C3
:1092E000FEF702FF002800F0038101287FF474AF2D
:1092F00016213A20FEF7F8FE01308002A062FFF747
:10930000DFF9206E44F0C0FA00210A20FFF7E8F8E8
:10931000002840F0E680032384F82430102105A8BB
:10932000FFF79CF900287FF46BAF9DF821309DF882
:1093300022109DF81C209DF815009DF816501B0169
:10934000DBB243EA111303F5FA636387DDF81D30DE
:1093500001F00F0184F83C101BBA110902F00F0252
:1093600045EA002084F8381084F839209DF814105C
:109370009DF817206363069B2363A08584F82E1055
:1093800084F82F20FFF79CF9A37E6BB9206E44F080
:109390007BFA4FF400711020FFF7A2F80546FFF7A3
:1093A0008FF9002D7FF4AFAE0B4845F039FA00225B
:1093B0000423A4F85C003046226284F8243015B0FF
:1093C000BDE8F08F304684F8246015B0BDE8F08F1A
:1093D000501700204828002040787D012268217A1B
:1093E0004FF4807302EB01214046002245F09AFBC6
:1093F000237A0133DBB22372A3F10203B3FA83F3BE
:109400005B0922E7042304AA8DF8340005A940462D
:1094100007930692CDE909AACDE90BAACDF814A0CD
:109420008DF820A0CDF838A045F04EF8FEF7E8FD05
:109430009DF81330AB2B04BF02236376A1E663696A
:10944000FA6C64339342BFF4DBAEFFF739F9FFF7F0
:1094500069FDE5683DB10022104623696168A847AF
:1094600094F8242036E694F8242033E6657688E6DE
:109470000190FFF725F9E56801982076042384F828
:109480002430002D3FF45BAED4E900212369A847C6
:10949000B6E6206E44F0F8F929463A20FFF720F8A6
:1094A00004A98246042201230691404605A9079299
:1094B0008DF83430CDE90955CDE90B5505958DF87A
:1094C00020500E9545F000F8FEF79AFDBAF1000F16
:1094D00007D1FFF7F5F8049B1BBAC3F38073A3769B
:1094E00071E6FFF7EDF8FFF71DFD94F82420F1E594
:1094F00004212C20FEF7F8FD032182464E20FEF7C2
:10950000F3FD0C2183463620FEF7EEFD0BF1020B36
:10951000421C02FA0BF205FA0AF5A2FB0501420A07
:1095200042EAC152A262FFF7CBF8EAE60190FFF7E8
:10953000C7F801980423064684F82430FFE50E4B53
:10954000E568DB6C6361072284F82420002D3FF47A
:10955000F1AD504698E708D0042384F82430FFF793
:10956000AFF894F82420531E4DE6FFF73BF802288D
:109570007FF446AE30E600BF4828002070B5214D8C
:10958000D5F8103E93F82620DAB11B699847E0B170
:10959000D5F8103E93F824208AB105F6146600240D
:1095A0001A19E0B29B6992F82C10B6EC010A9847A0
:1095B000D5F8103E93F8242001349442F0DB5B6927
:1095C000984795F8243E332B00D070BD95F8253E82
:1095D000002BFAD0D5F8103E93F82430042B1E4609
:1095E000A8BF0426002BF0D00024074D23461846C0
:1095F00058F0E8FC0134E3B29E4245F8040BF6D87B
:1096000070BD00BF48280020703600202DE9F84FBB
:10961000C34C94F8481E0546C1F34001D4F8500EDF
:1096200044F03EF994F8481ED4F84C0EC94301F0BA
:10963000010144F035F9002D00F0E38005F1FF3819
:10964000B84D5FFA88F80127D4F8503E33B11A6854
:109650009B8851690B4214BF53831383D4F84C3E4B
:1096600033B11A689B8851690B4214BF538313832B
:10967000B4F8583E002B40F0598194F85A1ED4F8A3
:109680005C0E44F00DF9DFF8A0C2FA204FF0100E86
:109690004FF47A71DCF80430C3F30803002B40F078
:1096A0001281EFF31183002B40F00D81E26CD5F8AD
:1096B0000890E36C9A42F9D1D4F8843E9945F5D8E4
:1096C000D4F8806E01FB06F3A3EB0903B3FBF6F3BA
:1096D00001FB0232DCF80430C3F30803002B40F036
:1096E000B280EFF31183002B40F0AD80E36CD5F82E
:1096F00008B0E66CB342F9D1D4F8846EB345F5D81E
:10970000D4F8806E01FB06F9A9EB0B09B9FBF6F959
:1097100001FB03939B1AB3F57A7FDBD30138B9D1F0
:10972000D4F8503E33B11A689B8851690B4214BF7C
:1097300053831383D4F84C3E33B11A689B88516924
:109740000B4214BF53831383B4F8583E002B40F0F0
:10975000DA8094F85A1ED4F85C0E81F0010144F0CE
:109760009FF8DFF8C4C1FA204FF0100E4FF47A7161
:10977000DCF80430C3F30803002B40F08480EFF3DF
:109780001183002B7FD1E26CD5F80890E36C9A42EC
:10979000F9D1D4F8843E9945F5D8D4F8806E01FB10
:1097A00006F3A3EB0903B3FBF6F301FB0232DCF88B
:1097B0000430C3F3080333BBEFF311831BBBE36C2B
:1097C000D5F808B0E66CB342F9D1D4F8846EB3454D
:1097D000F5D8D4F8806E01FB06F9A9EB0B09B9FBAB
:1097E000F6F901FB03939B1AB3F57A7FDFD30138B7
:1097F000BED108F1FF385FFA88F8B8F1FF0F7FF4A7
:1098000023AFBDE8F88FEFF3118A8EF31288D5F8F5
:1098100008B02B68DB0344BFC4F87C7ED5F808B0E1
:10982000E36CD4F87C9E5FFA8AFA8AF31188D4F844
:10983000806E4B4401FB06F9A9EB0B09B9FBF6F965
:1098400001FB0393CFE7EFF3118A8EF31288D5F86B
:1098500008B02B68DE0344BFC4F87C7ED5F808B09E
:10986000E36CD4F87C9E5FFA8AFA8AF31188D4F804
:10987000806E4B4401FB06F9A9EB0B09B9FBF6F925
:1098800001FB039346E7EFF311898EF31288D5F8B5
:1098900008A02B68DA0344BFC4F87C7ED5F808A082
:1098A000E36CD4F87C2E5FFA89F989F31188D4F837
:1098B000806E1A4401FB06F3A3EB0A03B3FBF6F335
:1098C00001FB023273E7EFF311898EF31288D5F8AA
:1098D00008A02B68DB0344BFC4F87C7ED5F808A041
:1098E000E36CD4F87C2E5FFA89F989F31188D4F8F7
:1098F000806E1A4401FB06F3A3EB0A03B3FBF6F3F5
:1099000001FB0232E6E6D4F8743E002B3FF429AFA7
:10991000D4F8602E0023136084F8713E21E700BF65
:109920004828002010E000E000ED00E0D4F8743E8C
:10993000002B3FF4A8AED4F8602EB4F8783E04496A
:10994000B1FBF3F35B10136084F8717E9BE600BFFC
:1099500040420F002DE9F84FC74CC84D94F8481EFF
:10996000D4F8500EC1F3400143F09AFF94F8481E1A
:10997000D4F84C0EC94301F0010143F091FF4FF0C0
:1099800005080127D4F8503E33B11A689B88516905
:109990000B4214BF53831383D4F84C3E33B11A687F
:1099A0009B8851690B4214BF53831383B4F8583E0C
:1099B000002B40F0508194F85A1ED4F85C0E43F00E
:1099C0006FFFDFF8C0C232204FF0100E4FF47A71F3
:1099D000DCF80430C3F30803002B40F01081EFF3F0
:1099E0001183002B40F00B81E26CD5F80890E36CFA
:1099F0009A42F9D1D4F8843E9945F5D8D4F8806ECE
:109A000001FB06F3A3EB0903B3FBF6F301FB023200
:109A1000DCF80430C3F30803002B40F0B080EFF310
:109A20001183002B40F0AB80E36CD5F808B0E66CF6
:109A3000B342F9D1D4F8846EB345F5D8D4F8806E2A
:109A400001FB06F9A9EB0B09B9FBF6F901FB03933E
:109A50009B1AB3F57A7FDBD30138B9D1D4F8503EE5
:109A600033B11A689B8851690B4214BF5383138327
:109A7000D4F84C3E33B11A689B8851690B4214BF2D
:109A800053831383B4F8583E002B40F0D88094F8E9
:109A90005A1ED4F85C0E81F0010143F001FFDFF89B
:109AA000E4C132204FF0100E4FF47A71DCF804302C
:109AB000C3F30803002B40F08280EFF31183002BE7
:109AC0007DD1E26CD5F80890E36C9A42F9D1D4F8D4
:109AD000843E9945F5D8D4F8806E01FB06F3A3EBDC
:109AE0000903B3FBF6F301FB0232DCF80430C3F3E5
:109AF000080323BBEFF311830BBBE36CD5F808B06D
:109B0000E66CB342F9D1D4F8846EB345F5D8D4F8F5
:109B1000806E01FB06F9A9EB0B09B9FBF6F901FB15
:109B200003939B1AB3F57A7FDFD30138BED108F1D6
:109B3000FF3818F0FF087FF425AFBDE8F88FEFF38A
:109B4000118A8EF31288D5F808B02B68DB0344BF66
:109B5000C4F87C7ED5F808B0E36CD4F87C9E5FFA3C
:109B60008AFA8AF31188D4F8806E4B4401FB06F917
:109B7000A9EB0B09B9FBF6F901FB0393D1E7EFF36E
:109B8000118A8EF31288D5F808B02B68DE0344BF23
:109B9000C4F87C7ED5F808B0E36CD4F87C9E5FFAFC
:109BA0008AFA8AF31188D4F8806E4B4401FB06F9D7
:109BB000A9EB0B09B9FBF6F901FB039348E7EFF3B7
:109BC00011898EF31288D5F808A02B68DA0344BFF8
:109BD000C4F87C7ED5F808A0E36CD4F87C2E5FFA3C
:109BE00089F989F31188D4F8806E1A4401FB06F3D1
:109BF000A3EB0A03B3FBF6F301FB023275E7EFF3C5
:109C000011898EF31288D5F808A02B68DB0344BFB6
:109C1000C4F87C7ED5F808A0E36CD4F87C2E5FFAFB
:109C200089F989F31188D4F8806E1A4401FB06F390
:109C3000A3EB0A03B3FBF6F301FB0232E8E6D4F828
:109C4000743E002B3FF42BAFD4F8602E002313603A
:109C500084F8713E23E7D4F8743E002B3FF4B1AE94
:109C6000D4F8602EB4F8783E0549B1FBF3F35B10ED
:109C7000136084F8717EA4E64828002010E000E01C
:109C800040420F0000ED00E00E4B30B4DB6842783C
:109C900001780D4CDB43C3F30223C3F10403DBB2B1
:109CA00002FA03F360181B0101F01F0501224909A4
:109CB00003F0F003AA4080F8003344F8212030BCC0
:109CC000704700BF00ED00E000E100E030B5036840
:109CD0005A4D5B4C1A88D5F8A004B0FBF1F0A342B2
:109CE00000F1FF3083B080B292B211D055498B425F
:109CF0000ED0B3F1804F0BD0A1F580318B4207D04D
:109D000001F580618B4203D001F580618B4202D165
:109D100022F0700292B24C498B4268D001F580610A
:109D20008B4243D022F4407201F56C4192B24FF65F
:109D3000FF748B421A80DC62188564D100221A8677
:109D400001229A821A883E4992B242F001028B4265
:109D50001A8063D0B3F1804F62D03C4A934261D005
:109D600002F5806293425FD002F5806293425DD03B
:109D700002F5806293425BD002F58062934259D033
:109D800002F59632934257D002F58062934213D087
:109D900002F58062934208BF09220ED04FF00123E2
:109DA00001A80193FFF770FF03B030BD4FF6FF71BC
:109DB0001A80D9621885C3E70822254B03EBC2033A
:109DC00001A893F8C5408DF8044001224FF4807338
:109DD0008DF80520ADF80630FFF756FF1B2CE3D1B8
:109DE0001C4B019301A8FFF74FFF03B030BD0121C9
:109DF0004FF6FF741A80DC62188599821A8892B235
:109E00000A431A80A9E70F4A934297D001229A8207
:109E10001A8892B242F001021A809BE70022CCE736
:109E20000122CAE70222C8E70322C6E70422C4E7E8
:109E30000522C2E70622C0E70722BEE74828002025
:109E400000000140000401400010004000040040F8
:109E5000587A06081901000100F01F024009012389
:109E6000032803FA02F304D004280CD0022805D0FA
:109E70007047074A116C0B4313647047044A516CD6
:109E80000B4353647047024A116B0B4313637047D3
:109E90000038024000285FD00368374A2DE9F041BE
:109EA00003F13F4404F57E0402EB9422012492F86E
:109EB000B82002F01F055209032A04FA05F456D00F
:109EC000042A4FD0022A48D08588B5FA85F0C0F11F
:109ED0001F00C0F3CC0603EB860600F007008200EB
:109EE0000F24306A944020EA04003062306A01FA9C
:109EF00002F20243002132624FF0010E0A464FF097
:109F0000030C02270EFA02F838EA050002F10102FA
:109F10001CD118680CFA01F420EA040018601868D3
:109F200007FA01F606431E609E6826EA04069E6054
:109F300098689860586820EA080058605868586027
:109F4000D86820EA0400D860D868D860102A01F1E7
:109F50000201D7D1BDE8F0817047084A556C2C4307
:109F60005464B1E7054A156B2C431463ACE7034A0C
:109F7000156C2C431464A7E7587A06080038024091
:109F800000487047C82A0020144A154BD2F8A02474
:109F9000B3EB920F15D2B3EBD20F14D2B3EB121F67
:109FA00013D2B3EB521F12D2B3EB921F11D2B3EB09
:109FB000D21F10D2B3EB122F34BF4FF48070802029
:109FC0007047022070470420704708207047102017
:109FD0007047202070474020704700BF482800206D
:109FE00080969800002877D0F0B58388B3FA83F381
:109FF000202B83B00446C3F11F0258D0374D384E92
:10A0000015444FF0004006EB820230FA03F395F856
:10A010001051C2F8881E05D0324A116821EA0301A6
:10A02000116053612046002141F09AFEA388226806
:10A030002C49B3FA83F7C7F11F0404F0FC0000F1C8
:10A04000804000F59C3004F00304A40002F13F437B
:10A050004FF00F0C82680CFA04FC22EA0C028260BA
:10A0600003F57E038268C3F38723A3401343836011
:10A070000A681D484FF00043FB4022EA03020A60D1
:10A080004A6822EA03024A600A681A430A608A6838
:10A0900022EA03028A60CA6822EA0302CA600268EE
:10A0A0002E441343036096F8C83EF02B01D803B04A
:10A0B000F0BD0E4B5B5D8DF80430F02103224FF4B0
:10A0C000807301A886F8C81E8DF80520ADF806300B
:10A0D000FFF7DAFD03B0F0BD704700BF587A0608FD
:10A0E00048280020003C0140083C0140BCEE060826
:10A0F00010B4B8B10D4CD4F8D03E102B05D15DF89A
:10A10000044B0521002041F0CBBF03EB4302224466
:10A1100082F8D51E01210B4482F8D40E82F8D61E97
:10A12000C4F8D03E5DF8044B704700BF48280020BB
:10A1300080782021DCE700BF2DE9F04FDFF8ACA3E9
:10A140002DED028B9AF8181F002297B0CAF8082F3D
:10A15000CAF80C2FCAF8102FCAF8142FCAF8042F07
:10A1600019B19AF8192F8AF8042F9AF81A2F1AB1F0
:10A170009AF81B2F8AF8132F9AF81E2F1AB19AF803
:10A180001F2F8AF80E2F9AF81C2F1AB19AF81D2F3C
:10A190008AF8092F9AF8203F05935A1ED3B257B276
:10A1A00003937B1C00F0AA80C54AC64E52F8379034
:10A1B000029602EBC70200231279019308EE102ADF
:10A1C0001D463446984626783946304644F0D2FF3C
:10A1D00083463046BBF1000F1ED043F081F8EA1DE4
:10A1E0001321D2B220B14FF0000E827180F807E047
:10A1F00041F0B6FD207844F0E7FF4FF0070308F187
:10A20000010223714FF0010384F802806070CDF8E1
:10A2100004B05FFA82F8E3700135042D04F10504FF
:10A22000D1D118EE100A029ECDF81080FFF714FE6F
:10A23000A549A64A4868024042F440324A600FB934
:10A24000019B5BB9A24C4820FFF706FE2046022185
:10A250005AF086FAA26842F00102A2609A489C4A2B
:10A260004168BAF8224F41F400014160516821F47D
:10A2700080515160916B21F4401141F48011916340
:10A28000D16841F46001D160956B85F44011C1F350
:10A29000015101EB81011F2000FA01FC25EA0C0CA1
:10A2A000112505FA01F141EA0C019163D16841F0F1
:10A2B000E061D160956BC5F30151C1F10401C9B2F0
:10A2C00001EB810188404FF0120C25EA00000CFAE6
:10A2D00001F108439063E4B1BAF8241FCAF82C4F87
:10A2E000A1B1BAF8262FCAF8301F62B1019B794894
:10A2F000521A90FBF2F2CAF8342F6BB917B0BDECCA
:10A30000028BBDE8F08F744A1288EFE7734A118818
:10A31000E7E7734A1488DFE7484604995AF020FAC1
:10A32000684B012003F114080723F278441CE4B2BF
:10A3300052B375783279A5F10A0101EB410105EBC1
:10A34000450C092D03FA01FE03FA0CFB02FA01F198
:10A3500040F2A080D9F80C2022EA0E0E41EA0E014C
:10A36000C9F80C10421E02EB82021F21062801FAD6
:10A3700002FC05FA02F273D8D9F8341021EA0C0174
:10A380000A432046C9F8342005364645CDD1D9F8D0
:10A390000820039942F40072C9F80820D9F808206F
:10A3A00042F48072C9F80820D9F80820574442F0D6
:10A3B0000102C9F8082097F9282F022042F09CFCDE
:10A3C000044600289AD04668304642F083FC454A4D
:10A3D000431E242101FB032393F89C50002D8DD1B3
:10A3E000059983F89D10062283F89C20002885D0CB
:10A3F000304642F06FFC57F097FE60680BF094F81F
:10A4000007A80BF053F8049EA26837480792012E64
:10A410008CBF4FF4806300230D9309F14C034FF47C
:10A420008072CDE90A56089309904FF400336068B2
:10A430000C9507A94FF400674FF40056CDE910239F
:10A44000CDE90E760BF044F86268136843F001031F
:10A450001360D9F8083043F08043C9F808304DE75D
:10A46000C11FA0F10D0201EB81014FF01F0E02EBA5
:10A4700082020C280EFA01FC0EFA02F005FA01F134
:10A4800013D8D9F8302022EA0C0211432046C9F82B
:10A49000301079E7D9F8101002FA0CF221EA0B0B10
:10A4A00042EA0B02C9F810205CE7D9F82C1005FA33
:10A4B00002F221EA00010A432046C9F82C2063E792
:10A4C000787B06084C37002000230140E030FCFF79
:10A4D00000200140803801002E7AFF1F2C7AFF1FD8
:10A4E0002A7AFF1F9801002080370020482800208A
:10A4F0002DE9F84F2E4F00EB800407EBC404D4F88D
:10A50000446F2EB1054694F8590F00F0FF0820B1B2
:10A510004FF000084046BDE8F88F89469A469346BA
:10A5200042F016F84FEA49010123C9B284F85A1FD4
:10A5300084F85BBF84F85D3F84F85E8F84F85C3FED
:10A5400084F8593F84F8588FB288C4F860AF9105F9
:10A550008146C4F864AF1DD43388DA0510D442F2C2
:10A560000F7405E041F0F4FFA0EB0903A34215DCF2
:10A5700033889B05F6D433889BB243F480733380D1
:10A58000B3889BB243F440734FF00108B380404658
:10A59000BDE8F88F98464046BDE8F88FB7F8B83F59
:10A5A00001339BB22846A7F8B83F59F017FDB1E731
:10A5B000482800200128B5EEC00A10D0F1EE10FAAC
:10A5C0000BDD9FED177ADFED177AE0EE077AFCEEF0
:10A5D000E77A17EE903A98B2704700207047F1EE94
:10A5E00010FA0BDD9FED107ADFED107AE0EE077ABE
:10A5F000FCEEE77A17EE903A98B27047EDD5F7EE99
:10A60000007A30EE270A9FED0A7ADFED0A7AE0EE53
:10A61000077AFCEEE77A17EE903A98B2704700BFDF
:10A6200000E0F9440000404200C079440000834447
:10A6300000C079C400E0824470B5474E96F8BA4F26
:10A6400004EB840306EB8303A50093F8BC3F032BC4
:10A6500070D8DFE803F05B2A1F02254406EB85056E
:10A66000D5F8C00F002872D13C4B13F8EC3C9C424B
:10A6700060D0013404F00302934286F8BA2F59D017
:10A6800002EB820406EB84040223C4F8C00F84F8B2
:10A69000BC3F70BD2B1906EB8303D3F8C02F72B1FA
:10A6A000013AC3F8C02F002070BD2B1906EB8303BD
:10A6B000D3F8C02F002AF3D1022283F8BC2F2544FF
:10A6C00006EB850595F8C83F013BDBB285F8C83F2E
:10A6D00093BB234A214BD2F8C01213F8EC6CD5F887
:10A6E000C40F621C02F003024B1E0324B242034457
:10A6F00085F8BC4FB3FBF1F0C5F8C00F1AD09942F2
:10A7000018D80138C5F8C00F012070BD44F0BAFB5D
:10A7100080B1134B2C44D3F8C02206EB84040121F2
:10A7200002F51C5384F8BC1F0F33B3FBF2F3C4F8DB
:10A73000C03F70BD012070BD094BD3F8C02201207D
:10A7400002F2E733B3FBF2F3C5F8C03F70BD013846
:10A75000C5F8C00F002070BD4828002040390020F7
:10A760009801002003681A78012A01D00020704760
:10A7700093F90430044A03EB830302EBC30393F819
:10A78000590FC0B2704700BF4828002010B50B4CCD
:10A7900054F8E83C1B78022B0FD154F8E00C43F03E
:10A7A00079F854F8E00C08B12123C380012141F06D
:10A7B000D7FAFFF7E9FB24F8E40C10BD403900207C
:10A7C00030B583B00D46012301460DF10702044662
:10A7D000074844F077FA9DF8072035EA020304D0D1
:10A7E00003482A43214644F003FB03B030BD00BFB9
:10A7F0005838002038B505460A460C460648294612
:10A8000044F03AF945F08001034844F033F8231A44
:10A810005842584138BD00BF58380020F0B53B4C75
:10A8200054F8E85C2B78022B95B018D0012B02D09D
:10A83000002015B0F0BD95F904506B1CF8D0022D26
:10A84000F6DC0091134614F8E41C0246284659F041
:10A8500067FD0028ECD0284659F012FEE9E72B6A84
:10A86000002BE5D10DF10F0C8DF80F000026012013
:10A870000027CDE90833CDE90A12CDE90E6705932B
:10A880008DF81C300D9310931293CDF810C00690E4
:10A890008DF830008DF84400EFF31180102383F31E
:10A8A000128854F8E83C1B6A13B3069B04AE324688
:10A8B0001BB1D3691432002BFBD12B6A13B39968F7
:10A8C00039B993420AD0196829B15B68996800299F
:10A8D000F7D01433F3E70E4AC3E90026C0B280F381
:10A8E000118854F8E82C136A002BFCD10120A0E752
:10A8F00004ABC0B22B6280F31188A4F1E80058F0D9
:10A90000C7FFEEE7024A1A60FFDE00BF40390020B1
:10A910005838002070B503681D78022D13D0012D22
:10A9200001D0002070BD044693F904000A4B421C7C
:10A9300003F81C5CF5D00228F3DC0A461C3B2179A5
:10A94000BDE87040D4E51B6A002BEAD1012244F037
:10A9500093F8012070BD00BF4039002013B53A4C78
:10A96000002354F80C2C8DF80730137803F0FD0108
:10A97000012905D114F8081C11B90C2104F8081C90
:10A98000022B1ED0032B2DD001220B212F4855F076
:10A99000E5F9042041F008FE2C4801230DF10702DF
:10A9A000002155F0FDF9002838D09DF80730482BDC
:10A9B00034D1274B44F8183C264B44F8143C02B0E1
:10A9C00010BD54F8040C42F065FF54F8040C08B1B3
:10A9D0003423C380012141F0C3F9FFF7D5FA24F8ED
:10A9E000080CD1E7D4F8A434506846F2A8111961D4
:10A9F000002380F888301222372155F083F954F86B
:10AA00000C3C0D225868242155F07CF954F80C3C7C
:10AA1000302258686A2155F075F9B5E754F80C3CB6
:10AA20001A78022A03D0032A07D00020C7E754F877
:10AA3000040C43F029FD0020C1E75868102237219B
:10AA400055F060F9F1E700BF4039002034390020AB
:10AA5000FFFD050881FE05082DE9F04FB54CB64E07
:10AA600095B0002305464FF4F0728B4604F5FD6067
:10AA7000202184F8E43784F8E53701955CF040FE46
:10AA8000202104F6C8104FF4F0725CF039FEDFF8B4
:10AA9000C0C2AA4932274FF0100E4FF47A704FF01F
:10AAA0000108DCF80430C3F30803002B40F02381D5
:10AAB000EFF31183002B40F01E81F26C8D68F36C74
:10AAC0009A42FAD1D6F8843E9D42F6D8D6F8809EB6
:10AAD00000FB09F35B1BB3FBF9F300FB0232DCF86C
:10AAE0000430C3F30803002B40F0E580EFF311833B
:10AAF000002B40F0E080F36CD1F808A0F56CAB427D
:10AB0000F9D1D6F8845EAA45F5D8D6F8809E00FB28
:10AB100009F5A5EB0A05B5FBF9F500FB03539B1AF4
:10AB2000B3F57A7FDBD3013FBBD194F8A92B002A80
:10AB300000F0BC8094F8AA3B013B022B00F2B680E7
:10AB400003EB830004EBC0017D4D91F8447C05EBE1
:10AB5000C0004FF0010C022FC4F8AC0B84F834CCC9
:10AB600000F0BC82DBB204EB0313D3F8BC3CC1F8A9
:10AB7000483C002B00F09A8002234FF4807081F84B
:10AB8000443CA5F188034C3DA1F8500CC1F85C3C55
:10AB9000C1F8605C1509013D042D02F00F0200F2BE
:10ABA0008082684F07EB4503B3F8A40040FA02F334
:10ABB000DB0740F17682012303FA02F2013A1040EA
:10ABC0003D445AF017F895F8B0205F4B104403EB62
:10ABD000C000C4F8B40B837913F0BF0F66D12323F0
:10ABE000C380092141F0BCF8D4F8B43B13B11A6812
:10ABF0009B881383D6F8A024544BB3EB920F80F0BC
:10AC00007382B3EBD20F80F07182B3EB121F80F02E
:10AC10007182B3EB521F80F07182B3EB921F80F010
:10AC20007182B3EBD21F80F07182B3EB122F80F0F0
:10AC30006F824FF4807200230DF10D01FF20A4F804
:10AC4000B02B0122CDE90413CDE90833CDE90A3355
:10AC5000D4F8AC1B8DF80D000D9306928DF81C20D6
:10AC60008DF83020EFF31180102383F31288D4F88D
:10AC7000AC3B1B6A002B00F01882069B04AD2A46F1
:10AC80001BB1D3691432002BFBD10B6A002B00F0EF
:10AC90005382996841B99A425FD01968002959D006
:10ACA0005B6899680029F6D01433F2E76FF0010071
:10ACB00015B0BDE8F08FEFF311898EF31288D1F84B
:10ACC00008A00B68DD0344BFC6F87C8ED1F808A04D
:10ACD000F36CD6F87C5E5FFA89F989F31188D6F8AF
:10ACE000809E2B4400FB09F5A5EB0A05B5FBF9F5A1
:10ACF00000FB035313E7EFF311858EF31288D1F8AD
:10AD000008900B68DB0344BFC6F87C8ED1F808902E
:10AD1000F36CD6F87C2EEDB285F31188D6F8805E00
:10AD20001A4400FB05F3A3EB0903B3FBF5F300FBA7
:10AD30000232D4E6403900204828002010E000E02C
:10AD400084450020587A0608682A0020404B4C00B1
:10AD500000ED00E0B54AC3E90025C0B280F31188D8
:10AD6000D4F8AC1B0B6A002BFCD18C220120CDE95E
:10AD700008330DF10E080DF10F0A05938DF81C3004
:10AD80000D93109312938DF80E2000230022CDE92D
:10AD90000E23CDF8108006900B908DF830008DF8C2
:10ADA0004400CDF828A0EFF31180102383F312881C
:10ADB000D4F8AC3B1B6A002B00F08081069B2A462E
:10ADC0001BB1D3691432002BFBD10B6A002B00F0AE
:10ADD000B381996839B993420AD0196829B15B687F
:10ADE00099680029F7D01433F3E7904AC3E90025A6
:10ADF000C0B280F31188D4F8AC2B136A002BFCD1BD
:10AE00009DF80F301B2B40F08981D4F8B43B012210
:10AE100084F8E4270BB12322DA80DFF81092402275
:10AE200048460A2143F028FE8A21002301228DF89A
:10AE30000E1000200021CDE90E01CDE90833D4F831
:10AE4000AC1BCDF81080CDF828A005938DF81C30F0
:10AE50000D931093129306920B928DF830208DF87B
:10AE60004420EFF31180102383F31288D4F8AC3B15
:10AE70001B6A002B00F02A81069B2A461BB1D3696E
:10AE80001432002BFBD10B6A002B00F05281996821
:10AE900039B9934209D0196829B15B6899680029CA
:10AEA000F7D01433F3E7C3E90095C0B280F31188FB
:10AEB000D4F8AC2B136A002BFCD19DF80F2094F82A
:10AEC000A87BC2F3801284F8EC2C002F00F0CD8018
:10AED000022F00F0B180D6F8A0345549B1EB930FA2
:10AEE00080F01881B1EBD30F80F00281B1EB131F1A
:10AEF00080F00281B1EB531F80F00281B1EB931F10
:10AF000080F00281B1EBD31F80F00681B1EB132FEB
:10AF100034BF4FF48077802796F8241EA4F8EE7C87
:10AF200018290ED14349C6F828BE5B08B3FBF7F3D6
:10AF3000A1FB03135B0BC6F82C2EC6F8307EC6F8B7
:10AF4000343E3A48A4F8B07B0222002143F094FD3D
:10AF5000C82041F0EDF9D4F8AC0B4FF0800B00267F
:10AF6000002700230122CDE90E67CDE908338DF8D3
:10AF70000EB0CDF81080CDF828A005938DF81C30C8
:10AF80000D931093129306920B928DF830208DF84A
:10AF90004420EFF31182102383F31288D4F8AC3BE2
:10AFA0001B6A002B38D0069B002B3DD02B46D9695D
:10AFB00014330029FBD1006A002800F0B7808168B3
:10AFC00039B9834209D0016829B1406881680029F4
:10AFD000F7D01430F3E7C0E90095D2B282F31188BC
:10AFE000D4F8AC0B036A002BFCD19DF80F3013F0A2
:10AFF0000203B6D1019841788278007884F8F00C89
:10B00000C1F12001C2F11002184684F8F11C84F845
:10B01000F22C15B0BDE8F08F0562D2B282F3118830
:10B02000024858F035FCDBE72B46C4E7EC4400202F
:10B03000809698005917B7D1D6F8A0344049B1EBA3
:10B04000930FBFF469AFB1EBD30F51D2B1EB131F24
:10B0500052D2B1EB531F53D2B1EB931F54D2B1EB89
:10B06000D31F34BF8027402756E7D6F8A034354990
:10B07000B1EB930F4ED2B1EBD30F39D2B1EB131F1B
:10B080003AD2B1EB531F3BD2B1EB931F3CD2B1EBA1
:10B09000D31F41D2B1EB132F34BF4FF480778027F9
:10B0A0003AE70020C4F8B40B9BE504ADC0B20D62D2
:10B0B00080F31188244858F0EBFB51E60D62C0B2D2
:10B0C00080F31188204858F0E3FB94E60D62C0B28B
:10B0D00080F31188484658F0DBFBE9E691F8513CD3
:10B0E000634481F8513C55E50222A4E50422A2E51F
:10B0F000042711E708229EE508270DE710229AE5AC
:10B10000102709E7202296E5202705E7402292E54F
:10B11000802290E50227FFE64027FDE6D4F8B40B35
:10B12000202140F01DFE4FF0FF30C1E5C0F8009037
:10B13000FFDEC3F80090FFDE034A1A60FFDE00BFA7
:10B14000002D3101404B4C00EC44002010B58CB078
:10B1500000234CF20502044601A9CDE90633CDE9EE
:10B160000833ADF800208DF8023003220B93012341
:10B17000CDE903128DF814308DF82830CDF808D0C1
:10B1800043F016FD204602A943F09EF9204643F005
:10B190000FFD9DF806000CB010BD00BF084800234D
:10B1A00002461178022902F1060204D00133062B6F
:10B1B000F7D10020704703EB430300EB43007047D7
:10B1C000441800202DE9F043784D794F83B005F104
:10B1D000F400242200215CF093FA97F8F54C002348
:10B1E000C5F81831002C3CD1724ED6F8C03063B38C
:10B1F0009B6A53B370489847836833B303886F4F93
:10B20000013B9BB2BC46384600210678032E00F174
:10B2100006001ED001310629F7D100223978022913
:10B2200007F1060700F0A1800132062AF6D1D5F811
:10B230001811052909D0481C02FB01C2C5F81801E4
:10B2400002200021938010705180204603B0BDE899
:10B25000F083062303FB0151B1F8F630013B9BB2AA
:10B26000DBE797F8F40C07F6FC43C7F8F83C10B995
:10B27000504E0024B9E742F033F8C7F8040D18B176
:10B28000837913F0BF0FF3D121464D4843F092FA72
:10B2900004460028ECD0D7F8F83C474A9868C3F831
:10B2A000942008B12023C380092140F059FDD7F82C
:10B2B000F83C404E986842F0EDFA4248D7F8F88CD6
:10B2C00043F0AEFA4FF00109A8F804003220C6F8A6
:10B2D000E08086F8E49041F067F90423D7F8F80C91
:10B2E0004FF0000C0DEB03029F21CDF804C043F09A
:10B2F0006FFB9DF805809DF804309DF806104FEA1D
:10B30000082848EA034848EA0108414606F1C00017
:10B3100053F076FA00287FF468AF4046FDF742FA12
:10B32000034600287FF461AF9DF806009DF80520D4
:10B330009DF80710000240EA0240234A0843904269
:10B3400017D0C6E93233A6F8C430A6F8D030FDF7DE
:10B3500029FA804600287FF448AF97F8F40C41F0B2
:10B36000BFFF43F091F844463FE7062101FB02C2CC
:10B3700066E7164AC6F8C4204FF400334FF0006267
:10B38000C6F8C8304023A6F8D030C6F8CC2086F8DE
:10B39000D290FCF73DFE06F1C00086F8D99053F03C
:10B3A0007BF90B4BC6F8C0301FE700BF50170020D9
:10B3B0004039002048280020082900204418002097
:10B3C0003C460020404B4C0021AAEF00000400083E
:10B3D000807A0608F0B40D6800240CE0BCF1050F7B
:10B3E00018D8A0F137030A2B14D104EB840415F804
:10B3F000010B03EB4404A0F13003DEB2092EA0F1EF
:10B400006107A0F1410CF0D9052FE7D8A0F157034F
:10B410000A2BEAD00D601460F0BC70472DE9F041B2
:10B42000C94BCA4ECA4DCB4C0822C3F88820336B97
:10B4300082B043F00103336307464FF4C0522846FD
:10B4400040F2023388466946CDE900230AF09EF9AE
:10B450006B6AC14ADFF848C323F470436B626B6ABE
:10B4600043F420436B626B6A23F470236B626B6A54
:10B4700043F420236B62736CB84D43F4804341F274
:10B4800078317364736B44F8018004F59C5143F088
:10B4900080030F6041F27C3EB14973630227C4F818
:10B4A000981DB04EB04BB14944F80E5084F89C7DC5
:10B4B0004FF0A045AE4FC4F8A05DC4F8A46DC4F829
:10B4C000AC3DC4F8E81D05F5326506F5A07603F538
:10B4D0001073A1F5D071C4F8B07DC4F8EC5DC4F868
:10B4E000B46DC4F8F03DC4F8B81D012307F510771A
:10B4F000A5F5E465A6F5A066A1F58C61C4F894CD28
:10B50000C4F8F47DC4F8A85DC4F8606E84F89F3D6B
:10B5100005F5A075536106F5B076C4F8241E84F8CD
:10B52000A63E1946934B944AC4F82C5EA7F5BC6717
:10B53000A035C4F8386E914EC4F8347EC4F83C3E51
:10B5400007F5D45703F56953C4F8405E4FF0502512
:10B550000020DFF850E2DFF850C2C4F8642EC4F8CF
:10B56000687E02F5A04207F5A047C4F86C6EC4F8E7
:10B57000703E06F5A046A3F54853C4F8745E04F681
:10B580009455C4F8782EC4F8806EC4F8A03EC4F870
:10B5900028EEC4F830CE0246C4F87C7E2B4684F8F0
:10B5A000A80E402683F81C21A3F822210132042A88
:10B5B000C3E9496083F81D1183F81F01C3F8300106
:10B5C00003F12803EED1002211462B46402083F8D8
:10B5D0007423A3F87A230132042AC3E9DF0183F834
:10B5E000751383F87713C3F8881303F12803EED19A
:10B5F0004FF0A04362489A6822F001029A60DA682C
:10B6000042F04002DA6009F0E7F894F89D3D00222C
:10B61000212161F317420BB142F4801294F8971D77
:10B62000D4F8A03D01299A6300F0E380DA68D4F8E9
:10B63000A06ED4F8A40DC2F3076121F0600141F0BF
:10B64000400161F31F620021DA603160026861F33A
:10B65000CC22026094F89F2D012A00F0B7801021BF
:10B66000484809F00BFC474809F0EEFBD4F8A40D5C
:10B6700094F8953D00224FF0FF31026142618161F3
:10B68000C26153B305F114073F4E114607EB830720
:10B690004FEA830C4FF0FF0E56F8042F1368002B6F
:10B6A000ACBF00234FF09043B74213601161C2F862
:10B6B00008E0F1D105F15003344963440027FF2627
:10B6C00051F8042F1568002DACBF00254FF09045B0
:10B6D0009942156017619660F2D1036994F8971D3D
:10B6E00043F480730129036160D0D4F8A02D284869
:10B6F0000023936100294FF0FF336FF080415161C7
:10B700005360516114BF00231023906143F4701300
:10B71000916943F4605343F008030B43936141F292
:10B720007C319368615843F0010393600B6898473C
:10B73000184B194ADA606846184B0093FEF7A4FAD2
:10B7400002B0BDE8F08100BF00E100E00038024037
:10B750000000024040390020003C01405C04002011
:10B76000400040010008005000090050000B00504C
:10B7700020090050C005005000100050003000505B
:10B78000E0460020D4460020E84600202447002060
:10B790000008008000ED00E00005FA05430200010A
:10B7A000080401002005005060050050D4F8A02DC9
:10B7B000144B03636FF08041134D00234FF0FF30B3
:10B7C000936151615060516195619FE701680F4A33
:10B7D0000F4E41F003010160802159629E62C3F85F
:10B7E0000421E022C3F80821C0F24002C3F80C2172
:10B7F00035E79A6822F03E0141F02A0161F3070221
:10B800009A6013E70301810000080080A000400057
:10B810008000200010B5184C94F8910288B9174B9D
:10B8200083F85100586594F89432012B1FD0D4F856
:10B83000983203B312495B68BDE81040A1F10C00D7
:10B84000184741F04DFD94F893220C49003A18BF77
:10B85000012281F8512048650028E4D01F22C280CF
:10B86000202140F07DFA94F89432012BDFD1054B72
:10B87000C4F89832DEE710BD384A00205017002087
:10B88000D44C00207804002099B10A6B824216D96A
:10B89000154BD3F8DC22914221D34C3991421ED36F
:10B8A0000B6B9842F9D38B6B9842F6D80B4618462F
:10B8B00070470D4BD3F8DC120A6B904212D30B6821
:10B8C0000BB9F4E70A6B90420B4602D38A6B9042A5
:10B8D000EDD951F84C3F002BF4D1184670470023A6
:10B8E000184670470A46D8E7384A00202DE9F04745
:10B8F000CC0143D10346224A43F8082B4FF0FF32D4
:10B900004260022418467E26DFF87880D8F8E0925C
:10B910002644013E051D49466FF070474FF0010A6D
:10B9200008E0A3421CD0631C45F8043C321B1C46B3
:10B930000435CAB10B6BA34202D88B6BA34204D26D
:10B940002046FFF7A1FF014690B10A794B6B002A10
:10B95000E7D1A34204D0E6D245F8042C631CE5E706
:10B9600045F8047C631CE1E7C8F8E012BDE8F08705
:10B9700045F804AC321B631C4946D8E78026C3E770
:10B98000F8FFFF0F384A002070B4447941BB0368C8
:10B990004FF400524FF40076202502213CBB1A8C54
:10B9A00022F001021204120C1A841A8B188C22F055
:10B9B000F30280B2120420F00A00120C014342F09C
:10B9C000010241F001011A8319841A8B22F00C0242
:10B9D0001204120C1A831A8B92B270BC1A8370472D
:10B9E00000220368164615461146002CD7D0042CB9
:10B9F00021D0082C38D0198C21F480510904090C6D
:10BA000019849C8B1D8C45F6FF7040F6FF41284041
:10BA10002140024342F4805241F4807199831A8498
:10BA20009A8B22F440621204120C9A839A8B92B27F
:10BA300070BC9A8370471A8C22F010021204120C08
:10BA40001A84188B198C89B240F6FF4221F0A001AC
:10BA500002400D4342F4807245F010051A831D84A4
:10BA60001A8B22F44062B3E71A8C22F4807212041B
:10BA7000120C1A84998B1A8C21F0F30192B20904EA
:10BA800022F42062090C324342F4807241F0010139
:10BA900099831A849A8B22F00C02C4E738B50E4DB4
:10BAA0000446006809F076FDD5F8A0242046520827
:10BAB0004FF6FF713FF0C2FC20460021FFF764FF04
