:020000040800F2
:10000000F0FF0120ED2F050855300508B5FD030868
:10001000553005085530050855300508000000002A
:10002000000000000000000000000000553005083E
:1000300055300508000000005530050845CA030882
:100040005530050855300508553005085530050868
:1000500055300508553005082DFF030825FF030816
:100060001DFF030815FF03080DFF0308AD16050863
:100070009D1605088D1605087D16050869160508E4
:100080005516050841160508553005085530050870
:10009000A9C50008553005085530050805FF0308B7
:1000A000CDF604089DF70408BDF60408C5F704085A
:1000B0008DF704087DF704086DF70408B1200508E2
:1000C000BD20050899200508A5200508553005081C
:1000D00055300508C1CA0308B5CA0308A9CA0308F0
:1000E000FDFE030855300508553005085530050854
:1000F000EDF6040855300508DDF60408553005080E
:1001000055300508553005085DF7040855300508D9
:100110009DCA030891CA0308F1F6040869BD0008E6
:100120001916050805160508F1150508DD15050859
:10013000C91505085530050855300508553005081E
:100140005530050855300508553005085530050867
:100150005530050855300508553005085530050857
:100160005530050855300508553005085530050847
:100170005530050855300508553005085530050837
:10018000ADF60408553005086920050875200508F6
:1001900055300508000000005530050855300508A9
:1001A0005530050855300508553005085530050807
:1001B000812005088D2005085530050855300508B3
:1001C0002D160508B5150508A11505088D15050896
:0801D000553005085530050803
:0801D8000C2B050001000000E2
:08280000082800080040000850
:10600000037830B4FBB10246C0F10105531912F810
:10601000014FDBB2002CF9D101335B000B4C0B803C
:10602000032223706270017859B1022300255A1CA3
:10603000D2B2E154A55410F8011F0233DBB200299B
:10604000F5D130BC70470223E8E700BF20200020D4
:10605000826D136A5B681B78FF2B08D090F8D030F4
:10606000013BDBB280F8D0301BB10120704700202B
:106070007047126A526802201370704770B4C308E8
:106080000D4CE25C00F00706B24004EBD004D2B243
:106090000020C6F108038B4228BF0B46C3F1080558
:1060A0002A419840C91A40EA02004FF0000614F84D
:1060B000012FEED170BC70476021002030B5EFF3A6
:1060C0001181802383F312880A4AD2F8D431D2F89E
:1060D000D841D2F8D401D2F8D851CAB282F311888B
:1060E000013BA84294BF4FF4006000201B1B1844E2
:1060F00030BD00BF20200020012380F851307047C0
:10610000014BD3F8DC0170472020002001207047AC
:10611000014BC3E97821704720200020014BC3E9DF
:106120007A2170472020002070477047212838B519
:1061300005D0222827D020280FD0002038BD0029E4
:10614000FBD0072AF9D1174B1C6818795A799B792B
:106150000C6008714A718B71EFE70029EDD0072AB6
:10616000EBD111480F4B0C79D0F8E4214D791C711B
:106170008C7909685D719C711960002ADDD0D0F8B6
:10618000E0019047D9E70029D7D0022AD5D1064AA5
:10619000D2F8EC31002BD0D00988D2F8E80198472A
:1061A000CBE700BF00000020202000200020704727
:1061B0000A230380004870470800002064230380FE
:1061C0000048704714000020012901D000207047CA
:1061D000014BD3F89030184700000020012901D06E
:1061E00008F0E4BC014BD3F88C30184700000020C5
:1061F000014BD3F8883018470000002010B40B780A
:1062000003F00303012B0A46044605D0022B0BD0F2
:1062100000205DF8044B70478B8843B92046114637
:106220005DF8044B0CF076B98B88832BF6D0034BCA
:106230005DF8044BD3F88030184700BF0000002001
:1062400038B5054B0446DB6F0D4698472946204676
:106250000AF07EF8002038BD0000002038B5054B5C
:1062600004469B6F0D469847294620460AF0A2F83F
:10627000002038BD000000200023F0B452004F1C65
:106280001E46B0F1204F4FEA107404F130052ABFCA
:106290003734CD54CC54FE5402339A424FEA0010A6
:1062A000EFD1F0BC704700BF08B50248FFF7A8FE69
:1062B000014808BD98D405082020002008B50248F0
:1062C000FFF79EFE014808BDA8D405082020002045
:1062D0000B4A0C4B10681B681A22C0180A8001D1A7
:1062E0000948704710B5094B09491C680822FFF797
:1062F000C3FF204607490422FFF7BEFF024810BD36
:106300009075FF1F9875FF1FB00000209475FF1F48
:10631000B2000020C200002008B50248FFF770FE5E
:10632000014808BDB4D405082020002008B5024863
:10633000FFF766FE014808BDC0D4050820200020F4
:10634000042301480B807047CC000020A0B1826874
:106350000D4B12B107229A7070471978DA60032941
:106360004FF004000CBF80214FF48071C3E901118C
:106370001A611A7598707047034B41F2E47101225B
:106380005A545A70704700BF488000200378022B8F
:1063900010D0006908B9012070470C4B1B78032B03
:1063A0000EBF0B4B80B24FF6F773984294BF00209C
:1063B000012070470549436841F650028A58B3EB03
:1063C000422F2CBF01200020704700BF48800020D2
:1063D000F7FFFF0F0378022B14D030B4104A436844
:1063E000006941F6480402F5C2511559096841F6A1
:1063F0003C042B4012595B0A023801FB0030104468
:1064000030BC7047064B426841F6340141F630001B
:106410005958185800EB410000EB5220704700BF5C
:10642000488000200048704748210020034B93F823
:106430002401032894BF0020012070472020002061
:10644000836D1B6A5B681B78FF2B0AD190F8D030F4
:10645000002B03F1FF3380F8D03014BF012002205D
:1064600070470020704700BF034B93F824010038A9
:1064700018BF0120704700BF202000202DE9F843FD
:10648000884600294FD04718284C07F1FF39461E8F
:106490008025EFF3118185F31288D4F8D421D4F844
:1064A000D801D4F8D431D4F8D8C1C9B281F3118855
:1064B000634594BF4FF400630023121A1344012B69
:1064C0001AD1012036F048FAEFF3118185F31288D2
:1064D000D4F8D421D4F8D801D4F8D431D4F8D87170
:1064E000C9B281F31188BB4294BF4FF4006300230B
:1064F000121A1344012BE4D0EFF3118285F31288B2
:10650000D4F8D83116F8011F2344D2B283F8F01121
:10651000D4F8D8310133C3F30A03C4F8D83182F375
:1065200011884E45B5D14046BDE8F88320200020B3
:10653000F8B590F85050002380F85030D5B10F4E88
:1065400096F8642C032A17D1D6F89C7C00F13C0401
:1065500029462046FFF792FFD6F89C3CDB1B322BE6
:10656000A5EB0005044401D8002DF1D1B5FA85F062
:106570004009F8BD0120FCE71846FAE7202000207A
:10658000002280F85120D3E790F85020531C024499
:10659000DBB280F8503082F83C1090F851200AB1FC
:1065A000132B00D9C4E77047F8B50C4E96F8643C3D
:1065B000032B0D4614460FD1D6F89C7C002C0BDD26
:1065C00021462846FFF75AFFD6F89C3CDB1B322BAE
:1065D000A4EB00040544F1D9F8BD00BF2020002041
:1065E00010B5134A134B8CB00821069302F5AC701A
:1065F000002382F8D0110DF1070401226944CDE98E
:106600000733CDE9034202938DF8143009930B93BD
:106610008DF828203AF07CF807483AF097FA9DF870
:106620000700A0F1FF00B0FA80F040090CB010BDE7
:106630002020002051600008782100202DE9F04141
:1066400003792C4C002B14BF012200228AB084F85D
:10665000502104D184F824310AB0BDE8F081054608
:1066600004F5AC7795F9001038463AF071F9AD7839
:106670009DBB214B2148C4F860514FF00108C4F87C
:10668000CC3184F864813AF0A5F91D4E03464FF4ED
:106690007A70A4F85C3136F05FF9D4F8600139F013
:1066A00095F80FCE6D460FC50FCE0FC596E80300C7
:1066B00085E80300694638463AF02AF838463AF049
:1066C00045FAD4F89C2C84F824810023C4F81421C2
:1066D00084F818310AB0BDE8F081284638F0BEFFD2
:1066E000054608B12023C3800D21284639F026F83D
:1066F000BFE700BF2020002020210020801A0600D4
:106700001C67050870B592B00B0E0D0C40F04006EA
:10671000952204468DF80810080A01A98DF8053065
:106720008DF80650002306258DF807008DF8092006
:106730000DF103000122039115498DF80460CDE9A4
:106740000733CDE90D33CDE9090204938DF81830F4
:106750008DF82C300F93119305958DF840200C91F6
:10676000FFF73EFF00B984B90A4C082304F5AC706A
:1067700003A984F8D03139F0CBFF04F5AC703AF0BE
:10678000E5F99DF8030012B070BDFF2012B070BD96
:10679000416400082020002030B5114A114B8DB013
:1067A00002F5AC74014606932046002382F8D0110E
:1067B0000DF10705012202A9CDE90733CDE9035206
:1067C00002938DF8143009930B938DF8282039F03B
:1067D0009FFF20463AF0BAF99DF807000DB030BD92
:1067E000202000204164000870B51D4D90B00024A9
:1067F000FD2201260DF1030301A905F5AC708DF80A
:1068000003200693CDE90144CDE90A44CDE90C44C7
:10681000C5F820418DF81040059407948DF8244068
:106820000F94039608968DF8386039F071FF05F5DE
:10683000AC703AF08BF93046FFF7AEFFFF2809D075
:10684000D5F89C3CC5F814312046092385F824313D
:1068500010B070BD0423022085F8243110B070BD43
:106860002020002070B5064690B008200D46FFF7A6
:1068700093FFFF2823D0FE2802D0022010B070BD65
:1068800000240222012301A90E4808928DF8383015
:10689000CDE90544CDE90A44CDE90C4402960395BF
:1068A00001948DF8104007948DF824400F9439F02E
:1068B0002FFF04483AF04AF9204610B070BD01207D
:1068C00010B070BD78210020434B98422DE9F04173
:1068D00010D003F568530833984255D03F4B002041
:1068E000A3F8080DA3F8140DC3F80C0DC3F8100D90
:1068F000BDE8F081394C3A4FDFF8EC800223C4F850
:10690000A03C04F6A4460025D7F8D030AB42294677
:1069100005F1010503D0D4F8240D46F0FBFE94F8F0
:10692000283DD4F8242D86F8243032623046414682
:1069300047F094F8D4F8A03C9D4206F13006E3DB22
:10694000002384F8163DD4F8A01CB4F8A82CD4F881
:10695000B03CD4F8AC0CB4F8B45CC4F8343D12FBD1
:1069600001F203FB01F3A4F8082DB4F8AA1C1D4A98
:10697000C4F80C0DC4F8103DA4F8145DA4F80A1D69
:10698000C4F8042D0120B3E7144C154F0223C4F8BA
:10699000A03C04F6A4460025D7F8D030AB422946E7
:1069A00005F1010503D0D4F8240D46F0B3FE94F8A8
:1069B000283DD4F8242D86F824303262304647F042
:1069C00005F8D4F8A03C9D4206F13006E4DB012333
:1069D00084F8163DB7E700BF1971EF0020200020B2
:1069E00000000020446705081940EF000F4B07B571
:1069F000D3F8D4205208B2FBF1F3B3F5803F02D3B1
:106A0000012AF7D8F9E799B2019049F087FE0849C1
:106A1000084A019841F2A453CA5001F5AD51002231
:106A2000043103B05DF804EB49F05CBD00000020C8
:106A3000202000208DF7010810B5074C04F5AC703C
:106A40003AF084F80A2035F07BFFD4F86001BDE805
:106A5000104038F0BBBE00BF202000202DE9F843D5
:106A60001B4C94F82461042E0546894690461F4627
:106A700008D0082E02D00020BDE8F883FFF7B4FE4E
:106A80000228F8D1D4F8600138F09AFE94F81A314F
:106A9000A3B969021120FFF735FEA8B9D4F89C3CD0
:106AA000C4F800910522C4E94387C4F8045184F86E
:106AB0002421C4F814310120BDE8F88329461120AF
:106AC000FFF720FE0028E9D0FFF7B6FFD3E700BFAD
:106AD0002020002010B50C4646F058FD58B9084B50
:106AE00093F8B434012B4FF012030BBF054806484E
:106AF0002380238010BD12230448238010BD00BFD3
:106B00001831002000010020EC000020D8000020F7
:106B100010B50BF00DFC104C58B194F82431032B38
:106B200013D894F818310133DBB2072B84F81831ED
:106B300003D9002384F8243110BDD4F89C3CC4F858
:106B40001431012384F8243110BD044839F042FF88
:106B5000A4F85C01E5E700BF20200020801A0600B1
:106B600070B51E4C94F82431042B06460D4609D00E
:106B7000082B23D1D4F81C3183422DD0FFF734FEEB
:106B800002281BD1D4F8600138F01AFE002137200A
:106B9000FFF7B8FD29461720FFF7B4FDB0B994F808
:106BA0001A316BB971021920FFF7ACFD70B90823D7
:106BB000C4E9476584F82431022070BD012070BD0E
:106BC00031461920FFF79EFD0028F0D0FFF734FF73
:106BD000FFF79EFF032070BD022070BD2020002023
:106BE0002DE9F8432A4C0546884617461E4694F878
:106BF0002401042831D0082807D1D4F81C31AB4235
:106C000006D0FFF7F1FD0228F1D00120BDE8F8839E
:106C1000FC22204BDFF884901F4883F8B824C9F881
:106C20003C8139F0A5FD002814BF4FF400734FF4E8
:106C300080731948C9F8443109F58A7139F068FD43
:106C400001220623C4E94085C4E9437684F808217B
:106C500084F824310020BDE8F883D4F8600138F0CE
:106C6000AFFD94F81A3153B969021820FFF74AFDB5
:106C700038B994F82431082BCAD0FE22C9E7294636
:106C8000F3E7FFF7D9FEFFF743FF0320BEE700BF9E
:106C90002020002018310020782100200000002052
:106CA0002DE9F047D04C94F8506194B0002E00F0DC
:106CB000958194F8242104F5AC7704F5A078531E4F
:106CC000082B00F2A480DFE813F0390062002E01E7
:106CD000A2009000B4001B00A2000900FFF780FC96
:106CE000002840F04282D4F81431D4F89C2CFA33B6
:106CF000934280F08980FFF70BFF94F82421DEE7B0
:106D0000FFF76EFC0028EED0D4F820310022012BD2
:106D100084F8182140F24082D4F81C21013B511C18
:106D2000C4E94713082284F82421A2F10806B6FA20
:106D300086F67609304614B0BDE8F087D4F86001D5
:106D400038F03EFD00210846FFF7DCFC0546FFF762
:106D500073FE012D58D1D4F860014FF0000984F87A
:106D6000199138F02DFD40F2AB110820FFF7CAFC55
:106D7000052800F07A81012800F03C81FFF75CFED5
:106D800094F81921002ACED0022384F82431D4F8B3
:106D9000600138F015FD94F81931022B0CBF4FF04B
:106DA0008045002500213720FFF7ACFC294629202B
:106DB000FFF7A8FC0546FFF73FFE2DBB94F81931FD
:106DC000022B00F0818184F81A51D4F8600138F068
:106DD000F7FC00210920FFF795FC002872D0FFF78F
:106DE0002BFE94F82421531E11E0D4F800014FF437
:106DF0000071FFF737FD012800F01B81022800F029
:106E00002081002800F04C8194F82421531EDBB22D
:106E1000022B0AD8D4F89C3CD4F814115B1AC82B66
:106E200083D9FFF775FE94F82421042A7FF47DAFFF
:106E300080E7D4F858316D481D6A39F099FC002874
:106E400000F01681B5FA85F56D09002DDCD004A996
:106E500000250DF10F0302224FF00109059138467C
:106E600005A9CDE90B390792CDE90955CDE90E55B4
:106E7000CDE91055ADF8105006958DF820508DF8DD
:106E8000345013958DF8489039F042FC384639F06B
:106E90005DFE9DF80F3003F01F03052B00F06E819F
:106EA000FFF736FED4F80CA1BAF1000F00F0DA803B
:106EB0002A46D4F81031D4F804114846D04794F843
:106EC0002421FCE610214046FFF7CCFC05460028B3
:106ED00085D101217F20FFF7D1F8012881467FF479
:106EE0007EAF28460221FFF7C9F8002800F01E8176
:106EF00001287FF474AF16213A20FFF7BFF8013064
:106F00008002C4F82801FFF797FDD4F8600138F03B
:106F100057FC00210A20FFF7F5FB002840F0FF8016
:106F2000032384F82431102105A8FFF79BFC0028D7
:106F30007FF46AAF9DF821309DF822109DF81C2047
:106F40009DF815509DF816001B01DBB243EA1113A2
:106F500003F5FA63A4F83A31DDF81D3001F00F01B2
:106F600084F83C111BBA110902F00F0240EA052017
:106F700084F8381184F839219DF814109DF81720F1
:106F8000C4F83431069BC4F83031A4F82C0184F8DD
:106F90002E1184F82F21FFF74FFD94F81A3173B9A1
:106FA000D4F8600138F00CFC4FF400711020FFF7AA
:106FB000A9FB0546FFF740FD002D7FF49CAE0C4871
:106FC00039F008FD00220423A4F85C013046C4F81F
:106FD000202184F8243114B0BDE8F087304684F8CD
:106FE000246114B0BDE8F087202000207821002023
:106FF00040787D01042304AA8DF8340005A96E4869
:1070000007930692CDE90999CDE90B99CDF8149033
:107010008DF82090CDF8389039F07AFB664839F039
:1070200095FD9DF81330AB2B04BF022384F8193172
:10703000A4E6D4F81431D4F89C2C64339342BFF402
:10704000E3AEFFF7F9FCFFF763FDD4F80C514DB147
:1070500000221046D4F81031D4F80411A84794F84F
:1070600024212CE694F8242129E684F8195185E698
:10707000D4F8003194F80811024603EB0121384698
:107080004FF4807339F048FD94F808310133DBB2D6
:10709000A3F10205B5FA85F584F808316D09D4E647
:1070A0000190FFF7C9FCD4F80C51019884F818013D
:1070B000042384F82431002D3FF43CAED4E9402170
:1070C000D4F81031A8479FE6D4F8600138F078FB77
:1070D00029463A20FFF716FB04A904228146012322
:1070E0000691384605A9CDE90955CDE90B55059519
:1070F0008DF820500E9507928DF8343039F008FB4A
:10710000384639F023FDB9F1000F08D1FFF794FCA0
:10711000049B1BBAC3F3807384F81A3155E6FFF75A
:107120008BFCFFF7F5FC94F82421C8E504212C2002
:10713000FEF7A4FF032105464E20FEF79FFF0C211A
:1071400082463620FEF79AFF0AF1020A431C03FA30
:107150000AF309FA05F0A3FB0001430A43EAC1530D
:10716000C4F82831FFF768FCCFE60190FFF764FC14
:1071700001980423064684F82431DBE5D4F80C5149
:10718000D4F89C3CC4F81431072284F82421002D43
:107190003FF4CBAD484691E708D0042384F824316E
:1071A000FFF74AFC94F82421531E30E6FFF71CFB3E
:1071B00002287FF429AE12E678210020430901223B
:1071C00000F01F00013B86B002FA00F0042B0CD83F
:1071D000DFE803F0161F28030D00174BDA6D02439A
:1071E000DA65DA6D10400190019B06B07047124BD2
:1071F0009A6C02439A649A6C10400590059BF4E7E0
:107200000D4BDA6C0243DA64DA6C10400490049B94
:10721000EBE7094B1A6E02431A661A6E1040039090
:10722000039BE2E7044B9A6D02439A659A6D104006
:107230000290029BD9E700BF0010024070B5214DBB
:10724000D5F8BC3493F82620DAB11B699847E0B131
:10725000D5F8BC3493F824208AB105F5986600244B
:107260001A19E0B29B6992F82C10B6EC010A984703
:10727000D5F8BC3493F8242001349442F0DB5B69E8
:10728000984795F8D034332B00D070BD95F8D134A1
:10729000002BFAD0D5F8BC3493F82430042B1E46CA
:1072A000A8BF0426002BF0D00024074D2346184623
:1072B00049F07EFC0134E3B29E4245F8040BF6D857
:1072C00070BD00BF18310020EC350020F0B5D0F8BB
:1072D00000C0134CDCF8045085B0254045EA010499
:1072E0000A9F039344F0004444F490341546CCF8CC
:1072F000044019463A4606460CF0ECFF68B931687E
:10730000039B8D6202460097304640210DF012F833
:10731000003818BF012005B0F0BD012005B0F0BD58
:10732000009800FCF8B5144F04460D460AE09B692E
:10733000DB0602D50CF08CFFD8B9D7F8F4345B1B10
:107340000A2B09D823689E69B6062A464FF00A011F
:107350002046ECD50020F8BD636C202100220B43B1
:10736000636484F8402084F8411084F842200120AE
:10737000F8BD0120F8BD00BF18310020164BDB68B6
:10738000C3F3022310B4C3F107041A1D042C28BF51
:107390000424062A4FF0FF3202FA04F28CBF033BAA
:1073A000002321EA0201002801FA03F10ADB00F1BF
:1073B000604000F561400901C9B280F800135DF832
:1073C000044B7047054B00F00F0009010344C9B29C
:1073D00019765DF8044B704700ED00E0FCEC00E02E
:1073E000284B294AD3F8D430284910B5A2FB0323EF
:1073F000274CDB0C82B00022013BC4F8F81404F5E2
:107400009F6041F28731C4F8FC34C4F80415C4F815
:107410000825C4F800250CF0B5F81E4B9A6D42F013
:1074200020029A659B6D03F020030193062137200B
:10743000019BFFF7A3FF1849D4F8F834174A4FF41B
:1074400000004860D96841F00101D96099680A409C
:10745000062A06D0B2F5803F03D01A6842F0010236
:107460001A600F4B0F49D3F8802C002003F5F874F5
:10747000C2E98114C2F81002C3F8EC01C3F8E401B8
:1074800002B010BD0000002083DE1B43001400404A
:10749000183100200010024000E100E00700010068
:1074A0002020002050360020F0B589B00D4604465B
:1074B00038F01AFD031E1CDB164A174E1A4406EB61
:1074C000830392F85470C3F8385D204638F032FDDB
:1074D0003E44A588114A2068002303A9CDE905335D
:1074E0000793CDE903520CF0A1FF96F8783DF02BFD
:1074F00001D809B0F0BD0A4B0321D8570190F02301
:1075000086F8783DFFF73AFF01980DF049FF09B082
:10751000F0BD00BF1C6705081831002000001110E5
:1075200034D505082DE9F043694D6A4ED5F8CC3DB8
:107530001F78012F85B01AD196F87021013A1A717F
:1075400096F8714105F6CC58002C08BF68244046D7
:107550004FF000093B460DF10502752185F8D04D2D
:107560008DF8059039F0B8FB0446002846D1D5F8CF
:10757000CC3D02221A7096F86F3123B900242046C0
:1075800005B0BDE8F08396F86E11534839F0E0F984
:1075900004460028F2D096F86F0138F05FF896F8AC
:1075A0006C31C5F8D40D0133DBB210B12422C371A4
:1075B00082710D2138F0C2F8D5F8D40D38F006F9F3
:1075C000464AD2F89C3C632BFBD94548DFF818812A
:1075D000444FDFF8049139F0FDF9A5F8D00D02E031
:1075E00058F8047B5FB34846B84703460028F7D0F5
:1075F000394885F8743E39F0AFFAC0E7404639F0B3
:10760000ABFA3B46494640460DF1060239F064FBB1
:107610009DF8063003F07E038DF8063008B1682B24
:1076200015D09DF8053003F07E03682B8DF80530EA
:1076300010D0702BA3D1042385F8743E9FE796F8F1
:107640006F0138F00BF839F043F83C4697E785F8BE
:10765000747E94E7062302261F4885F8746E194647
:1076600002AA39F039FBD8B19DF80D309DF80B20F6
:107670009DF80910B3405200324003F00403134355
:1076800001F0010213430BD0012B1DD0022B17D0A8
:1076900003F00303032B13D0032038F013FC6EE731
:1076A0000D4801230DF107020C2139F015FB0028CC
:1076B000F2D09DF8073013F00F03EDD0042B03D068
:1076C000012385F8753E5AE7002385F8753E56E795
:1076D0001831002010420020E43E0020202000202D
:1076E00040420F005FC8040884670508B0B10C4928
:1076F000D1F87C31102B03D10521002038F0C2BB1A
:1077000003EB43020A4482F88001202082F88101C1
:107710000120034482F88201C1F87C31704700BF28
:10772000104200208078E1E700B583B001460123D4
:1077300005480DF1070239F0CFFA08B19DF80700AE
:1077400003B05DF804FB00BFE43E00202DE9F04FDC
:10775000DFF8BCB089B06C2200210BF5D8704EF078
:1077600031FE23490BF5077040F24C424DF0C8FE44
:107770009BF868361BB19BF869368BF8B0319BF8E3
:107780006A361BB19BF86B368BF8BC319BF86C36B4
:107790001BB19BF86D368BF8C8319BF86E361BB168
:1077A0009BF86F368BF8D4319BF870361BB19BF881
:1077B00071368BF8E0319BF872361BB19BF873364B
:1077C0008BF8EC310B4A0C4B0C491B88128809884A
:1077D0000B4DCBF884260B4C0B4ECBF880169A1A27
:1077E00000270A4B93FBF2F3CBF8883617E000BF73
:1077F000A0670508A875FF1FCA75FF1FAA75FF1FA0
:10780000000021C31C670508C04300208038010028
:10781000104200200137092F06F10C0628D0062F50
:1078200000F04C81072F00F0708130780028F1D0F3
:10783000BA4A00230133312BECD012F80C1F8842D6
:10784000F8D103EB430CB64904EB8C0C002208681A
:10785000DC3128B19CF8D1041041C00700F111833C
:107860000132052AF3D10137092F06F10C06D6D1D2
:10787000AC4CDFF8DC82DFF8DCA2DFF8DC92AA4F48
:10788000AA4E002554F8083C002B00F0AF80D4F835
:10789000D020002A00F0AA80DC2202FB05B223607F
:1078A000D2F8801241F00201C2F880129A6812F0F8
:1078B000040F9A6840F05C81110700F15981DA6881
:1078C00042F40012DA6020460DF078FD002800F046
:1078D000FD81236896495A68DFF880C202EA0802EF
:1078E0005A6040F2FF721A609A6822F0A0429A60D1
:1078F0009A6842F000529A60DA6802EA0A02DA6094
:10790000DA6842F00042DA601A6902EA08021A6193
:107910005A6902F080425A619A6902F078429A618B
:107920001A6A02F0F0221A625A6A02F0FF225A62C0
:107930009A6A02F0FF229A621A6B02EA09021A633B
:107940005A6B3A405A639A6B3A409A63DA6B22F464
:10795000FB6222F00702DA631A6E0A401A665A6E58
:107960000A405A669A6E0A409A66DA6E1140D966E3
:10797000D3F8A02002EA0C02C3F8A020D3F8A42078
:1079800002EA0C02C3F8A420D3F8B02002EA0C02E9
:10799000C3F8B020D3F8B420B3F1A04F22F07F1287
:1079A000C3F8B420634A00F05982934200F0618228
:1079B000614B6249624A9B68896892680B43134332
:1079C000DB0704D45F4B9A685F490A409A60DC2267
:1079D00002FB05B20023C2F88432C4E91933C2F8AD
:1079E000803284F85830002840F096800135052D0B
:1079F00004F1DC047FF446AF4FF00009DFF860A12A
:107A00004F465AF8743C23B1DAF86430002B40F04A
:107A1000D6800137052F0AF1DC0AF2D10026404D4D
:107A2000DFF84081494F34462B68002B00F0F98184
:107A3000D5F8D820002A00F0F481A968B1F1A04F50
:107A400000F01582DFF8ECC0384B3E48614518BFA6
:107A500003469B68886840072FD495F8600001288A
:107A60002BD003F01F030120092B85F8600000F2E2
:107A7000728340F22120D840C00740F16C838868AF
:107A800010F0010040F04581D1F808E0DFF8D8C0DF
:107A90001EEA0C0F00F02181DC2303FB04B4D4F8B0
:107AA000803284F87C0243F01003C4F88032D4F8AA
:107AB000843243F00103C4F88432FEE700210A4611
:107AC0004FF4803CAE46DC2303FB02B23078D2F8A0
:107AD000F432717043EA0C0301214FF0070CC6F831
:107AE00004E0C2F8F43286F80AC0717200283FF44C
:107AF00091AE37F0B3FDFB1DDBB210B100228371F4
:107B0000C271032137F01AFE84E60021DFF85CE041
:107B10000A464FF4802CD6E7FEE700BFEC6B050861
:107B20002C44002034440020200882E00003005050
:107B300000F0FF0300010050000400500005005059
:107B40000006005000070050E01000FEC0FFFF7F5D
:107B500000F8FFFF04000080300882E00000F8FF1A
:107B6000A0440020FEF0FFFF3F000080000084CB17
:107B7000DA68920105D5A18B40F20112914200F022
:107B8000D4829A68520703D59A68900740F10B8413
:107B90009A68120703D59A68910740F1BD820C21BB
:107BA000BE48D0F8F4C406E0D0F8F424A2EB0C02EE
:107BB000052A00F23F819A680A42F5D17FE61AF859
:107BC000700CFFF7FBFADAF864305AF8742C4AF8B4
:107BD0006C2C99085A0801F0333102F077320A44CC
:107BE000D9089B1A01F011329B1A03EB131303F00F
:107BF0000F33FF22B3FBF2F2C2EB02229B1A0022E8
:107C00004AE919224AE910224FF40020DC214AF8FF
:107C10004C3C4AF8680C01234AF85C2C0AF8502CBA
:107C20000AF8482C0AF82C2C059201FB07B1082011
:107C30004FF480524AF8583C0AF84F3C0AF8343C5A
:107C40004AF8540C4AF8302CD1F88032002B00F05E
:107C500089825AF86C3C9A68940005D59A6822F09B
:107C6000204222F03F029A609A68D00016D49A68A7
:107C70008B498C48D1F8D410B1FBF0F122F01042BE
:107C800022F03F0242F080529A600591059A2AB193
:107C9000059A013A0592059A002AF9D19A68D1000D
:107CA00040F12A8200249A68520740F10D81DC23BA
:107CB00003FB07B3D3F88032DC2303FB07B3D3F80D
:107CC000802242F01002C3F88022FEE7DC2303FB8F
:107CD00005B30122C3F88022FBE58868DFF8BCC148
:107CE000384040F001008860DCF8F4E40EE0886879
:107CF000C00704D48868384040F001008860DCF890
:107D0000F404A0EB0E00022800F239840868C007D2
:107D1000EDD54FF0DC0C0CFB04BCDFF8A8E1DCF87F
:107D2000800200EA080040F480707145CCF88002BF
:107D300000F01D825C48814200F01982DC2303FBC5
:107D400004B3D3F8800220F48010C3F88002DC234F
:107D500003FB04B34FEA920ED3F8800210F4805074
:107D60001CBFD3F8840220F00600C3F88402E86D3B
:107D70004E4BC3624E4B03634E4B43631C230B605D
:107D8000D1F804C053080EF0333E03F07733734448
:107D90004FF000094CF0100E4FEAD20C85F86090BD
:107DA000D31AC1F804E00CF01132D1F80CE09B1AA0
:107DB00003EB1313404A03F00F334EF0010E4FF064
:107DC000FF0CB3FBFCFCCCEB0C2CA3EB0C03C1F8BD
:107DD0000CE002EB460240310DF07AF9AA68936894
:107DE0003B4043F004039360002840F0C683D5F87D
:107DF000D830324A5908980800F0333001F0773112
:107E00000144D8085B1A00F011315B1A03EB13131D
:107E100003F00F33A2FB0312D209C2EB02229B1A1A
:107E20001E440134052C05F1DC057FF4FDAD09B0DD
:107E3000BDE8F08FDC2202FB05B20120D2F88012EF
:107E400041F01001C2F88012D2F884120143C2F846
:107E50008412DA6842F40012DA603AE59B689268AC
:107E60001343DB073FF5B3ADB2683346ACE5144BC3
:107E7000EFE54FF0A04292689B681343DA07F3D511
:107E8000A5E50C2101FB03434FF0010C93F8D81436
:107E9000D3F8D4E40CFA01FC51B214E618310020F6
:107EA00000000020400D03000005005009EF00080D
:107EB00005EF0008F1EE0008C06801208180808095
:107EC0000003005000010050DC2202FB07B2D2F890
:107ED0008012CD063FF5F0AED2F8801221F4817108
:107EE00041F00201C2F880129A68D6071AD4B3F1A1
:107EF000A04F00F06B82A04A934200F070829F482E
:107F00009F4902F5407292688068896802430A437B
:107F1000D50707D49B4882685AF8681C22F47C1263
:107F20000A4382605AE919105AF8302C02430A4376
:107F30001AF84F0C1AF8481C42EA4032012942EA6A
:107F4000014204D15AF8441C013942EA41425AF82C
:107F5000401C29B15AF83C0C01F4787101430A43E2
:107F6000DD6889495AF8380C29400A43DA601A69F1
:107F700022F0406202431A6199689A6801F0040194
:107F800002F008020A4327D1D9681AF8342C1AF8EB
:107F9000505C5AF85C0C21F48041520021F002013F
:107FA00042EA85320A43DA601A69002840F0C58245
:107FB00022F480321A61D3F8C02022F47F5222F0DA
:107FC0003F02C3F8C0201AF82C2C012A00F0C2820C
:107FD0001A6922F001021A615AF8582C012A00F09D
:107FE00085821A6B22F00F021A63DC2505FB07B5A8
:107FF00005F52076D5F8803223F0030343F0010322
:10800000C5F88032002C40F086811AF8143C0694A2
:10801000012B00F07F81AAF16C0303931846012322
:108020000AF8143C0DF0CAF9002840F06D81D5F82B
:108030008032564923F4885323F0020343F00203AD
:10804000C5F880325AF86C2C936823F0404323F033
:108050003F0343F0004393609368002BC0F23082EB
:10806000DC2202FB07B20021D2F88032DFF82CC1FB
:1080700023F0030343F00103C2F88032444B0AF8B3
:10808000141C6C330293A3F16C00012604E0029BE4
:108090000C30834200F04081437A002BF7D090F9F6
:1080A0000130BB42F3D13B4B80F8089003EB8602D2
:1080B0001AF8143CD2F81C5742684FF0000809F136
:1080C0000101012B0191CDF81C8006F1010612D0AF
:1080D0005AF86C3C996801240AF8144C4C075FD597
:1080E000DC2303FB07B3D3F8802283F87C8242F0C1
:1080F0002002C3F88022FEE7DC2202FB07B2012443
:10810000D2F8801241F01001C2F88012D2F8841225
:108110002143C2F88412C6E59A6822F0004222F098
:108120003F0242F020029A6039E51A68500607D4EF
:10813000194A02E0013A3FF47DAE19684906F9D5C3
:1081400040221A609A68500703D59A68910740F157
:108150003481042124E5DC2303FB04B4002384F8E8
:108160007C32AAE4C1F884320AF8143C71E5002B91
:108170007FF4EDADE2E500BF0001005000050050C6
:1081800000060050000700500740F0FF01DE040029
:10819000C04300201C670508000040A300030050F6
:1081A0004FEA951808F00C0803F1300E05F01F0592
:1081B00058F80E901F24AC40C2F3846101FA05F513
:1081C00029EA04042C4348F80E409D689C6805F099
:1081D000040504F008042C4356D14FEAD25E03F1A3
:1081E00014050EF0040EC2F304595EF8058007244E
:1081F00004FA09F444EA08044EF805405C6924F0E6
:1082000000445C61DC681C6E1C6EC2F31205C4F392
:108210008464002D00F03C8192FAA2F1B1FA81F160
:108220008C4200F02881596E596E03F16004C1F34D
:10823000846103F1640592FAA2FEBEFA8EFE8E45B9
:1082400003D1296821F000412960A168A16804F1E7
:108250000805C1F3846192FAA2FEBEFA8EFE8E4535
:1082600003D1296821F000412960E168E5680C34F8
:10827000C5F3846592FAA2F1B1FA81F1A94203D162
:10828000216821F0004121609968C90707D4D3F81B
:10829000B010C2F3120421EA0401C3F8B010C249BD
:1082A0000A422BD0B3F1A04F00F0E180BF49C04C8F
:1082B0008B4208BF64462146BE4D8C68AA4204F03A
:1082C000E07100F0B080BC4DAA4200F0AC80BB4D24
:1082D000AA4240F08F80E50110D4B3F1A04F00F026
:1082E0008780B24AB24C934208BF644622469368E4
:1082F00023F0E0730B4343F0807393600023DDF8B9
:1083000004900AF8143CC2E6336885F87C4243F0D6
:1083100010033360FEE7D8E4A94B3B44FDB293F968
:1083200013202946022037F0BBFE4668044630463B
:1083300038F024F8A34A2421431E01FB0323864678
:1083400093F8801100297FF472AD01354FF0060CCF
:1083500083F8815183F880C100283FF468ADA36899
:10836000CAF8043080232022CAF810304FF48075F8
:108370004FF480534FF48064CAE90723CAE902111D
:10838000CAE90554CAF8006048F028FD50460CF0D0
:10839000FBFE50460CF06CFF039B4AF818ACCAF881
:1083A0002830FFF736BB9A6822F0004222F03F02E5
:1083B00042F010029A60FFF7EBBB9A6822F000428D
:1083C00022F03F0242F010029A60C2E677499A68B2
:1083D00089680A43D1073FF5A5AD7B489BE54FF07F
:1083E000A04291689A680A43D2073FF59BADF4E733
:1083F00062467CE7754DAA4280D164023FF57EAFAC
:108400006A4A93423FF47AAF02F5C062B3F1A04FDB
:1084100008BF62461346926822F0E0720A4342F4B3
:1084200080029A606AE724023FF568AFB3F1A04F7B
:108430001FD0674A93427FF461AF5D4CA368614AE5
:10844000644DD2F8D420B2FBF5F223F0E0730B4375
:108450000C2143F4000301FB02F2A360079202E047
:10846000079B013B0793079B002BF9D146E7614629
:1084700022E76446E2E7196E1C4621F0004144F809
:10848000601F596E596E03F16405C1F38461D2E631
:10849000A14245D05C6E5D6E03F16004C5F3846556
:1084A00003F1640EA9422AD0A568A568C5F38465C6
:1084B0008D4230D0E568E5680C34C5F38465DDE6AF
:1084C000069B01330693069B8B427FF6C5ADDC23EA
:1084D00003FB07B30021D3F8802283F87C1222F03B
:1084E000120242F01002C3F8802213E7196B5AF807
:1084F0004C2C21F00F01013A0A431A6375E5DEF8AE
:10850000005025F00045CEF80050A568A568C5F3D9
:108510008465A942CED1A56825F00045A560C9E7CC
:108520001D6E1C4625F0004544F8605F5D6E5D6E73
:1085300003F1640EC5F38465B4E742F480321A6136
:10854000D3F8C02022F47F5222F03F020243C3F846
:10855000C02038E55AE90A211D695AF8200C25F493
:10856000FF650A4325F004055AF81C1C2A43024300
:108570000A4342F001021A612EE5FFF79EBADC239E
:1085800003FB04B40022D4F8803284F87C2243F048
:108590001003C4F88032D4F8843243F00103C4F8E5
:1085A0008432FFF78ABA00BF000008800001005043
:1085B00000070050000021C31000C090000052C707
:1085C000784800200000002000030050000084CB09
:1085D00000060050400D0300F0B5D0F800C0134C69
:1085E000DCF8045085B0254045EA01040A9F039356
:1085F00044F0014444F490341546CCF80440194644
:108600003A4606460BF066FE68B93168039B8D62F8
:1086100002460097304680210BF08CFE003818BFD0
:10862000012005B0F0BD012005B0F0BD009800FCB0
:108630000128B5EEC00A10D0F1EE10FA0BDD9FED67
:10864000177ADFED177AE0EE077AFCEEE77A17EE9D
:10865000903A98B2704700207047F1EE10FA0BDDA7
:108660009FED107ADFED107AE0EE077AFCEEE77A04
:1086700017EE903A98B27047EDD5F7EE007A30EEEB
:10868000270A9FED0A7ADFED0A7AE0EE077AFCEE20
:10869000E77A17EE903A98B2704700BF00E0F944CD
:1086A0000000404200C079440000834400C079C407
:1086B00000E0824470B5464E96F88C4604EB840385
:1086C00006EB8303A50093F89036032B6ED8DFE802
:1086D00003F059291E02254406EB8505D5F89406BA
:1086E000002870D196F8E0369C425FD0013404F047
:1086F0000302934286F88C2658D002EB820406EBE4
:1087000084040223C4F8940684F8903670BD2B19B3
:1087100006EB8303D3F8942672B1013AC3F894268A
:10872000002070BD2B1906EB8303D3F89426002A92
:10873000F3D1022283F89026254406EB850595F8AF
:108740009C36013BDBB285F89C368BBB214B96F8FF
:10875000E066D3F8A413D5F89806621C02F0030271
:108760004B1E0324B242034485F89046B3FBF1F05C
:10877000C5F894061AD0994218D80138C5F894065D
:10878000012070BD38F0BEFE80B1124B2C44D3F8EE
:10879000A42306EB8404012102F51C5384F89016EF
:1087A0000F33B3FBF2F3C4F8943670BD012070BDF3
:1087B000084BD3F8A423012002F2E733B3FBF2F312
:1087C000C5F8943670BD0138C5F89406002070BD18
:1087D000104200200000002090F83C30012B00F0F7
:1087E000D381F0B40223012480F83C4080F83D306E
:1087F000142A4ED8DFE812F056004D004D004D000F
:10880000A0004D004D004D0080014D004D004D0079
:10881000EC004D004D004D0038014D004D004D0065
:1088200015000368D1F808C01D6A0F68B04E25F422
:1088300080151D621C6A5D681A6D22F0807224F436
:10884000001422F4E042B34244EA0C5442EA072204
:1088500008D006F50066B34204D006F54066B34280
:1088600040F0AC814E6925F4802545EA86254E68A6
:108870005D601A65DE641C621C6D0D6944F4006461
:108880001C65196D21F4806119651A6D42EA052293
:108890001A650023012280F83D2080F83C30F0BCAE
:1088A000184670470368D1F808C01D6A0F68904EDB
:1088B00025F001051D621A6A5D689C6924F4803404
:1088C00022F0020224F07304B34242EA0C0244EAAA
:1088D000070413D006F50066B3420FD006F54066D4
:1088E000B3420BD006F58066B34207D006F580662A
:1088F000B34203D006F50066B3420BD1CE6822F036
:1089000008023243D1E9056725F440753E4322F061
:10891000040235434E685D609C615E631A629C6927
:108920000D6944F008049C61996921F00401996182
:108930009A692A439A61ACE70368D1F808C01D6AB6
:108940000F686B4E25F010051D621C6A5D689A6900
:1089500022F0807224F0200422F4E642B34244EA7A
:108960000C1442EA072200F0218106F50066B342AA
:1089700000F01C8106F5E056B34200F03F815D4EE9
:10898000B3420BD006F58066B34207D006F5806689
:10899000B34203D006F50066B34206D1D1E90567BC
:1089A00025F440653E4345EA86054E685D609A6160
:1089B0009E631C629C690D6944F400649C61996922
:1089C00021F4806199619A6942EA05229A6160E71F
:1089D0000368D1F808C01D6A0F68454E25F480551C
:1089E0001D621C6A5D68DA6922F0807224F400540A
:1089F00022F4E642B34244EA0C3442EA072200F091
:108A0000CD8006F50066B34200F0C88006F5E0565A
:108A1000B34200F0EB80374EB3420BD006F58066D0
:108A2000B34207D006F58066B34203D006F5006670
:108A3000B34206D1D1E9056725F440453E4345EAF6
:108A400086154E685D60DA611E641C62DC690D6922
:108A500044F40064DC61D96921F48061D961DA6988
:108A600042EA0522DA6114E70368D1F808C01D6AFA
:108A70000F681F4E25F480351D621C6A5D681A6DF3
:108A800022F4803224F4003422F07002B34244EA2B
:108A90000C4442EA070213D006F50066B3420FD039
:108AA00006F54066B3420BD006F58066B34207D0A8
:108AB00006F58066B34203D006F50066B34204D1E2
:108AC0004E6925F4803545EA06254E685D601A65D5
:108AD0009E641C621C6D0D6944F008041C65196DD0
:108AE00021F0040119651A6D2A431A65D1E600BF09
:108AF000002C0140004001400368D1F808C01D6A05
:108B00000F68424E25F480751D621C6A5D68DA6943
:108B100022F4803224F4007422F07302B34244EA57
:108B20000C2442EA070231D006F50066B3422DD08C
:108B300006F5E056B34251D0354EB3420BD006F5A0
:108B40008066B34207D006F58066B34203D006F5CF
:108B50000066B34206D1D1E9056725F440553E438E
:108B600045EA06154E685D60DA61DE631C62DC6909
:108B70000D6944F00804DC61D96921F00401D96170
:108B8000DA692A43DA6184E602207047CE6824F469
:108B9000006444EA062424F48064DCE7CE6824F40C
:108BA000004444EA063424F4804443E7CE6824F0C9
:108BB000800444EA061424F04004EFE606F58066DB
:108BC000B3423FF44FAE06F58066B3423FF44AAE7F
:108BD00006F50066B3427FF44AAE43E6CE6824F45D
:108BE000006444EA062424F48064A5E7CE6824F4F3
:108BF000004444EA063424F480440CE7CE6824F0B0
:108C0000800444EA061424F04004B8E6002C014035
:108C10000040014003689B0AA3F58013542B00D940
:108C200070470D4A134493F838370B2BF8D830B5FA
:108C30000A4C427985B0002914BF0025022504EBB7
:108C40008310694600230124CDE90054CDE90233A5
:108C50000AF048FB05B030BD1C670508F448002049
:108C60000D4BD3F8D42010B5520804464FF6FF71CF
:108C700047F054FD20460021FFF7CCFF0749084A82
:108C800041F2A8532046CA5001F5AD51BDE810404D
:108C90000022083147F026BC0000002020200020E0
:108CA00023DD01080F4B104AD3F8D430A2FB032375
:108CB0009B09013BB3F1807F11D210B50B4A0C49DF
:108CC000536000240723F02081F8230094600F21D3
:108CD0004FF0FF301360FEF751FB204610BD01201E
:108CE000704700BF00000020D34D621010E000E08C
:108CF00000ED00E003681878012801D000207047DB
:108D0000074A93F90430642101FB032393F87D2A79
:108D1000202AF4D1D3F83C3A9869C0F3C0307047A8
:108D20001042002010B50C4CD4F8B43B1B78022B39
:108D300010D1D4F8BC0B36F049FDD4F8BC0B08B107
:108D40002323C380012136F0F9FC044837F042FEAA
:108D5000A4F8B80B10BD00BF104200208096980008
:108D600030B583B00D46012301460DF107020446DC
:108D7000074837F0B1FF9DF8072035EA020304D019
:108D800003482A43214638F07BFA03B030BD00BFC8
:108D9000C44D002038B505460A460C46064829460B
:108DA00037F088FE45F08001034837F02BFE231A88
:108DB0005842584138BD00BFC44D002070B50D4C1D
:108DC000D4F8B45B2E78022E134607D00A4601462B
:108DD00004F6B430BDE8704037F07EBF2A6A0AB1AD
:108DE000002070BD0A46014604F6B43037F032FE6A
:108DF000012070BD1042002003681B78022B4FF049
:108E0000010201D038F096B937F07CBE13B53B4C67
:108E10000023D4F86C2C8DF80730137803F0FD0193
:108E2000012905D194F8701C11B90C2184F8701C2B
:108E3000022B1ED0032B2ED001220B21304845F0EF
:108E4000DFFA042033F088FD2D4801230DF10702DD
:108E5000002145F0F7FA00283AD09DF80730482B5A
:108E600036D1284BC4F8603C274BC4F8643C02B0B0
:108E700010BDD4F8740C36F0A9FCD4F8740C08B109
:108E80003623C380012136F059FC204837F0A2FD7B
:108E9000A4F8700CD0E741F2FC035068E35846F2A6
:108EA000A8111961002380F868301222372145F09B
:108EB0007BFAD4F86C3C0D225868242145F074FAF2
:108EC000D4F86C3C302258686A2145F06DFAB3E75B
:108ED000D4F86C3C1A78022A03D0032A07D0002069
:108EE000C5E7D4F8740C37F0F3FB0020BFE75868EF
:108EF0001022372145F058FAF1E700BF1042002058
:108F00007C4E0020A3E4040825E504088096980020
:108F100010B58CB000234CF20502044601A9CDE93E
:108F20000633CDE90833ADF800208DF80230032276
:108F30000B930123CDE903128DF814308DF82830FE
:108F4000CDF808D037F002FE204602A937F0E0FB4A
:108F5000204637F0FBFD9DF806000CB010BD00BFA9
:108F60000848002302461178022902F1060204D0C3
:108F70000133062BF7D10020704703EB430300EBCE
:108F8000430070470C5500202DE9F041674C82B03A
:108F9000242204F5017000214DF014FA94F82D728A
:108FA0000023C4F82832002F3CD1614ED6F8043D8E
:108FB00063B39B6A53B35F489847836833B30388AE
:108FC0005D48013B9BB28446064600253178032963
:108FD00006F106061ED00135062DF7D100220178D4
:108FE000022900F1060000F095800132062AF6D130
:108FF000D4F82812052909D0481C02FB01C2C4F884
:10900000280202200021938010705180384602B05F
:10901000BDE8F081062303FB0545B5F80632013BA8
:109020009BB2DBE794F82C0204F50D73C4F83032E0
:1090300010B93F4E0027B9E736F010FBC4F83C02E8
:1090400018B183790BB1422BF3D13C48394637F044
:109050007FFC80460028ECD0D4F83032354A98683E
:109060005A6708B12223C3800D2136F067FBD4F87C
:1090700030322F4E986836F0A9FB3148D4F8305280
:1090800037F0A8FC0123A8803220C6F8245D86F8BA
:10909000283D33F061FC0423D4F8300200250DEBA9
:1090A00003029F21019537F0D5FC9DF805509DF8EE
:1090B00004309DF806102D0245EA03450D4329466C
:1090C00006F6045044F0CAFC70BB2846FDF7FCFBD2
:1090D00050BB9DF806509DF805309DF807202D02E5
:1090E00045EA0345174B15439D4217D0A6F8080DD6
:1090F000A6F8140DC6F80C0DC6F8100D2846FDF79D
:10910000E3FB074680B994F82C0236F0A7FA37F053
:10911000DFFA4BE7062101FB02C272E706F60450B4
:1091200044F054FC0028E9D047463FE708530020AC
:1091300020200020242D00200C5500203C5500202C
:10914000404B4C0021AAEF00114BD3F8981C91F82A
:10915000280201281AD00A68B2F858306FEA43434F
:109160006FEA53439BB210B4A2F85830B2F84030C3
:109170009BB243F43F43002443F08003A2F8403005
:1091800081F8284220465DF8044B7047704700BFC5
:1091900020200020F0B56E4C6E4E94F8D5546E4BE6
:1091A000C4F8AC3206F51F62022104F52B770820C3
:1091B000C4F81C250022C4E9AC01C4E9AF12C4E91B
:1091C000B12289B0C6F8987CC4F8CC22002D6FD0AB
:1091D000032184F8D514B3F8405044F27F012940AC
:1091E0001646A3F84010002215464FF0010C04EB80
:1091F0004211971C81F8D422A1F8E222013204EB3B
:109200004717D2B29042C1E9B95581F8D5C281F869
:10921000D752C7F8AC52EAD80022154604EB4211E7
:1092200002F10A0781F8D423013204EB4717D2B2C6
:109230009042C1E9F95581F8D55381F8D753C7F861
:10924000AC52EBD800210120A3F84000A3F8401055
:10925000A3F84410A3F85010B3F8402092B242F49F
:109260003F4242F080028642A3F8402084F8D012A8
:1092700084F8D50459D01423002054259421D422F5
:10928000A4F8DA334FF48A7384F8E00384F8E00238
:1092900084F8000384F8000484F82003A4F8DA5268
:1092A000A4F8FA12A4F8FA23A4F81A3309B0F0BD0E
:1092B00005F0FF06294D0796EB6C84F8D46443F063
:1092C0000103EB64EB6C049103F0010302930327A9
:1092D0004FF4C05303A94FF09040029A05960393B0
:1092E00006970BF0A3F8AB6D43F40003AB65AB6DD1
:1092F00003F40003019306211420019BFEF73EF8BE
:10930000D4E9AB30164A4FF48011116084F8D5745B
:10931000B3F84010D4F8C86244F27F020A40A3F8C0
:10932000402000287FF45FAF8CE784F80C15B3F879
:109330005420C4F8146592B242F00102A3F85420FC
:10934000B3F8542092B242F00202A3F8542092E7FC
:109350000853002020200020005C00400010024044
:1093600000E100E010B5194C94F8210590B9184BB4
:1093700083F85101C3F8540194F82435012B20D00F
:10938000D4F828350BB313495B68BDE81040A1F150
:109390000C00184736F062F994F823250C49003A7E
:1093A00018BF012281F85121C1F854010028E3D0EF
:1093B0002122C280202136F0C1F994F82435012BF6
:1093C000DED1054BC4F82835DDE710BD0853002079
:1093D0002020002034580020A803002099B10A6BF7
:1093E000824216D9154BD3F86C25914221D34C39C2
:1093F00091421ED30B6B9842F9D38B6B9842F6D8EF
:109400000B46184670470D4BD3F86C150A6B90420B
:1094100012D30B680BB9F4E70A6B90420B4602D3E8
:109420008A6B9042EDD951F84C3F002BF4D118468D
:1094300070470023184670470A46D8E708530020B3
:109440002DE9F047CC0143D10346224A43F8082BCB
:109450004FF0FF324260022418467E26DFF8788003
:10946000D8F870952644013E051D49466FF07047B7
:109470004FF0010A08E0A3421CD0631C45F8043CED
:10948000321B1C460435CAB10B6BA34202D88B6B4E
:10949000A34204D22046FFF7A1FF014690B10A790A
:1094A0004B6B002AE7D1A34204D0E6D245F8042C46
:1094B000631CE5E745F8047C631CE1E7C8F8701518
:1094C000BDE8F08745F804AC321B631C4946D8E779
:1094D0008026C3E7F8FFFF0F085300202DE9F0476F
:1094E000164D0746002095F97D9505F2845684B007
:1094F00007EB010805F6240504464FF0B60A336869
:10950000ABB193F83830142B11D019F1020F01D000
:109510004B450CD1002269463046CDE90244CDE9E5
:109520000078ADF808A08DF80D402AF0ABFAE036CF
:10953000B542E4D104B0BDE8F08700BF0853002075
:109540002DE9F04FA84AA94CB2F8841DB2F8823D2B
:109550002DED068B07EE901A0AEE103A94F8F93BBF
:10956000DFEDA3AAF8EE679A07EE903AB4F8FA3B5B
:10957000F8EEE77AF2EE046A0A2B87EEA67AB8BF15
:109580000A239246002285B004F62407C4F8342842
:1095900004F6044904F6144B04F62C4607EE903A00
:1095A000B4F8FC3B87ED007A08EE103AF8EEE78A53
:1095B000B8EEC88AB6EE009AF4EE488A29EE890A17
:1095C000F1EE10FAC8BFB0EE688A94F8F83BC7ED28
:1095D000018AB4EEC80AF1EE10FAD8BFB0EE408AA4
:1095E000082BA8BF0823B1F57A7F38BF134680EE59
:1095F000080AC4F8303887ED028A4AF073FBB7EEE8
:10960000007AB4EE470AF1EE10FA48BFB0EE470A0E
:10961000FDEEC07AB8EE4AAAF8EEE76A17EE905A65
:10962000CAEE297A04F60843C4F8005C67EEA67A0D
:1096300087EE276A89EEA67ADFED6E7A89ED006AF9
:10964000C7EE279A88EEA90AC3ED009A4AF0CAFB32
:109650000228B8BF022088EE290A8046C4F80C0C04
:109660004AF0C0FB2328A8BF2320B8F1230FA8BFCE
:109670004FF023084045C4F8100CB8BF404609F22B
:109680002473012DA0EB0801DBED007A9FED5A8ACF
:1096900000938146B8BF01250131F5EE407AF1EE25
:1096A00010FA2CD1554A9FED56AA01950023029637
:1096B0001D46164607EE905AF8EEE79A039169EEBA
:1096C000AA9A0135B0EE690A3FF092FCF0EE408AAA
:1096D000B0EE690A3FF078FCA8EE880A242D0399C1
:1096E00020EE0A0A68EE8A8A86ED000AC6ED018A33
:1096F00006F10806DED1DDE90156DFED427A91FB85
:10970000F5F2002346E9053846F8082C46F80C9C8B
:1097100046F8045C32460133482BA2EC018AFAD1A8
:109720003948D0F800C0406806F590730022013235
:10973000242AC3F800C0586003F10803F7D1009B46
:1097400006F515769E42A8D1DFF8C490DFED2F8A8A
:10975000CBED007A0026B819CB464FF00008D4F8BC
:109760003038984500F1240531DA07EE908A97EDFC
:10977000016AF8EEE76AD7ED027A36EE897A77EE7B
:10978000C67A743067EE877A07EE103AB8EEC77A79
:10979000BAF8823D87EE870A042108F1010800EE3D
:1097A000903A30EE060AF8EE600AABEC010A97ED4B
:1097B000001A85ED178AA6EEA81A85ED168A85EDA2
:1097C000158A85ED148A3FF047FD2846C7E706F560
:1097D0009076B6F5587F09F12009BCD105B0BDECF3
:1097E000068BBDE8F08F00BF183100200853002021
:1097F000C3B8B23D00009042000000001C6600208B
:1098000072F97F3FBC297E3FAC6E0508CDCC4C3E43
:10981000405B00202DE9F04F2DED028BDFF8A08199
:10982000DFF8A0A19FED628A85B008F13004A8F5A9
:109830004F790127FEB218F8010B3246592131F059
:10984000A7F80546002800F098800068A56001236D
:10985000B0F1804F04F8283C04D0564BC31AB3FA39
:1098600083F35B0904F8273C45F02AFE14F8273CF3
:1098700007EE900A002BF8EE677A4FF0000314BF52
:1098800001214FF480714FF40052286844F8083CDD
:1098900044E9062344F8101C44ED087A45F010FE14
:1098A000AAFB0030C308012218F8010C44F80C3C54
:1098B00004ED098A24F81C2C24F81A2C35F0CEFE6D
:1098C000E06010B15923C671837199F84033012BC0
:1098D0006CD0022B0CBF422102216A7A35F00CFFBA
:1098E000286845F0EDFD00210246284646F016FFA7
:1098F00014F8273C002B4BD021462F4B41F8043D58
:109900000022284646F0EEFD286846F061FF8346B7
:10991000A0B10123002201930423CDE9022399F889
:109920004113914214BF1346022369466A7900939A
:1099300009F0D8FC6979584609F0A2FDA26854F8EC
:10994000103C126899F82404013E591EF6B2916247
:10995000012300214FF0FF3C4FF40055B042C2F804
:109960002CC0536144E9065124F81C3C24F81A3CED
:1099700044F8081C01D130F07BFF0137052F04F1BA
:1099800038047FF457AF05B0BDEC028BBDE8F08F13
:109990000A48DFF834C044F8040C63602246211FF3
:1099A0002846C4F800C046F09DFDADE7222194E7AB
:1099B00000000000000C0040D59D0308099F03082B
:1099C0003C6700201F85EB5195A803080C480D4B00
:1099D000D0F8401410B40C4CC0F830348A1E223138
:1099E000B0F84C341B01A4FB03C3DB08A3F5B06340
:1099F00022F8023F9142F3D15DF8044B704700BF5B
:109A00000064002001DA0108CDCCCCCC70B5084C44
:109A1000251D2E4614F8010B2AF050FA28B10379BF
:109A200005F8013BB442F5D170BDFF23F8E700BF54
:109A3000606800202DE9F0471D4F012607F1080559
:109A4000B2464FF03D094FF0000817F8010B35F012
:109A500005FE044690B180F80690C671FB7803F0CD
:109A60007F02012A18D013F0800F20460DD185F80F
:109A7000048035F0A5FE85F805802C600136052EA2
:109A800005F10805E1D1BDE8F08785F804A035F0BF
:109A90009DFE85F805A0F0E71B0605D401212046B0
:109AA00035F04CFEFB78DEE735F090FEF6E700BFC0
:109AB000686800202DE9F047D1F800908AB0074689
:109AC0004846BDF848800C4692461E4646F080FE49
:109AD000002839D0314652460546484646F088FDB2
:109AE00061792068019146F073FE267A0199D8B118
:109AF0007300F6000A4603F0020306F008064FF46E
:109B000080714FF0600C0593069600234FF40076A9
:109B1000089103A90996CDF81080CDF80CC00793E1
:109B2000FEF75AFE267A6179B30728460FD409F06A
:109B3000EBFC284609F0A0FD236862797B60343392
:109B400098180021386099500AB0BDE8F08709F0F4
:109B500095FBEEE7354BB3F8823D07EE103A2DE961
:109B6000F041BAEEEF7A2DED048BB4EEC70AF1EEB8
:109B700010FADFED2F8AB0EE408AF0EE607AF0EE58
:109B8000419A06DDF4EEC70AF1EE10FA45D5B0EEC3
:109B9000478AB5EEC08AF1EE10FA43DDF5EEC07AE1
:109BA000F1EE10FA3EDD27EE887A67EEE77AE8EE0E
:109BB000087A87EE279A1F4E1F4FDFF8848000F146
:109BC0000C0400F19C0544E9028744F80C6CB5EEE6
:109BD000C08AF1EE10FA19DDB5EEC09AF1EE10FA76
:109BE00014DD164B44F8083CC4ED038AC4ED028A28
:109BF000C4ED018AC4ED008A0421B0EE491AF0EEEA
:109C0000690AB0EE480A20463FF026FB3034AC42E9
:109C1000D9D1BDEC048BBDE8F081B0EE688AB0EE1E
:109C2000689AC8E79FED029AC5E700BF1831002087
:109C300000000000BD370408193704086D37040818
:109C4000B53704080A44914215D030B441F22105D9
:109C500011F8014B082380EA042010F4004F85EA34
:109C600040040ABF4000A0B280B2013BF5D18A4255
:109C7000EED130BC704770471249134AD1F8F40452
:109C800005E0D1F8F4341B1AB3F57A7F0FD81369C5
:109C9000DB03F6D413694CF2FA310B4009D1106999
:109CA00010F0010004D00121184611617047032013
:109CB00070470648D0F8D0131943C0F8D0130120DC
:109CC000136170471831002000200240000000207E
:109CD0002DE9F041204D95F8973485F8903405F240
:109CE000944705F5936600244FF0050817F8010B1B
:109CF00020BB30600134032C06F10406F6D195F840
:109D00009014D5F89804C94301F0010135F0DEFD47
:109D100095F89014D5F89C0481F00201C1F340013C
:109D200035F0D4FD95F89014D5F8A00481F0040125
:109D3000BDE8F041C1F3800135F0C8BD35F08EFCBF
:109D4000013401213060E3B210B180F80680C371A4
:109D5000306835F0F3FCCEE700640020F0B5284C05
:109D6000B4F8A854A4F8AA5483B0EDB994F8A404A4
:109D700035F074FC94F8A524C4F8AC04003A18BF7C
:109D8000012284F8B02448B194F8A6142D220029A9
:109D900014BF11210121C28035F0D0FC002003B096
:109DA000BDE8F04035F09ABD94F8A474002238461E
:109DB0002D2130F0EDFD0646384635F04FFCE0B180
:109DC000DEB12D22C4F8C804C280727A022135F0B7
:109DD00093FC0C4AB2FBF5F3C3F34F0000909BB227
:109DE000314604F2B440A4F8CC54FFF763FED4F833
:109DF000B4240023136084F8C53403B0F0BD00BF61
:109E00000064002040420F002DE9F84F254C94F8E3
:109E1000D83484F8CE3404F2CF47002604F2EC4460
:109E20005FFA86FB0BF101085FFA88F8012117F849
:109E3000010F42460E448A4630F0AAFD4FF0000959
:109E4000054648B3387804F80E9C04F80D9C04F8D5
:109E50000FBC04F810AC44F8045C35F0FFFB0221A1
:109E600018B180F806A080F807806A7A35F044FCC3
:109E70000D4A0021284646F051FC0C4B23600C4B48
:109E8000221D21462846C4E9013946F02BFB697999
:109E900028684A4629F086F8082E04F11C04BFD130
:109EA000BDE8F88F0064002040420F00E52F030852
:109EB00069D9020870B52D4C2D4B94F80406C4F8EE
:109EC000FC3500220221C4F8BC25C4F8C025C4F822
:109ED000C425C4F8F825A4F8002630F059FD002860
:109EE00037D00668054604F5C16304F5CD615A7C98
:109EF00012B15A6896422DD018338B42F7D1002305
:109F000094F80406C4F8E85484F8DC3435F0A6FB71
:109F100008B10223C3806A7A022135F0EDFB28469E
:109F2000144A002146F0FAFB134A1449C4F8EC1411
:109F30000026111F2846124BC4F8F034C4F8F4640C
:109F400046F0D0FA697928683246BDE8704029F0B9
:109F500029B870BD304645F0B3FAB36A094A0133F7
:109F6000B0FBF3F082F8EC03C9E700BF0064002007
:109F700000FFFF0040420F00F068002091D9020866
:109F80002DDB0208000000202DE9F04FDFF8609380
:109F90002DED068B99F8FA4697B0032C039000F24A
:109FA000A780C04EC04F0FCE09F5D9650FC50FCEA3
:109FB0000FC533682B6000220123022C99F800079B
:109FC00087F8B43489F8282740F0F681DFEDB78AA6
:109FD000F0EE689AB64AB749B74BC9F8E0160028C0
:109FE000B649C9F8D81616BF1346002201220492BA
:109FF00039EEA87AF5EE006A86EE87AAC9F8DC3653
:10A00000AF4B002503F1FD0B1C46DFEDAE7A9FED53
:10A01000AE9A68EEA78A039BAB4263DD1BF801ABE7
:10A020006F1C5FFA87F842465046032130F0B0FCBF
:10A030000646002800F0DD84504635F00FFB6061D5
:10A0400018B1032380F807808371727A022135F0FA
:10A0500053FB049B002B00F0E381B9F8F83630681D
:10A0600007EE903AF8EEE77AFCEEE77A17EE908A80
:10A0700045F026FAB0FBF8F202F57F42FF32120CEF
:10A08000B0FBF2F2B2FBF8F307EE902AF8EE676A43
:10A09000002026EEA87A009069EE477A9BB2E6EEA1
:10A0A000A97A3146204684ED027AC4ED037AFFF79F
:10A0B00001FD002D00F0AF816168814B02E09C4200
:10A0C00000F0A9815A688A4203F11803F7D10123ED
:10A0D00083F001030122042F237462743D4604F1CE
:10A0E000180498D1794EDFF80C82C8F8BC64A9E056
:10A0F000631FDAB2032A00F29A8099F803276A49AB
:10A1000001239A4281F8B43489F8283700F0F980A5
:10A11000022A00F0F3806E4E99F80277DFF8D481BE
:10A120000FCE09F5D3650B950FC50FCE0FC532685D
:10A130002A603A1E18BF0122664B88F8D124072CEA
:10A14000C9F8A83600F28481042C0ED999F8013799
:10A15000614AC9F83027012B05D0022B06BFB7FA98
:10A1600087F35B09002389F83437DFF88CB1CDF829
:10A170001C80ABF5DE630593ABF2F353069300232B
:10A180000493DDE90332934240F3FF82069B9DF87E
:10A1900010A013F8016B06930AF10105EDB22A46EF
:10A1A0003046032130F0F4FB0446002835D0304619
:10A1B00035F054FA059B586110B10323C5718371C2
:10A1C00099F8FA3608932046277A35F047FF99F830
:10A1D00034370646002800F042810993002B40F0F6
:10A1E0004181D0F80480B8F1000F16D0404636F017
:10A1F000C5F83A4A0A90431E242101FB032393F831
:10A20000802152B90322B16883F8815183F88021FB
:10A210000A9B0C91002B40F04C81254B304AC9F829
:10A22000AC36DDF81C80C9F8B0260023C1E01E4919
:10A230000022032B81F8B42422D80123DFF8B48054
:10A2400089F82837D8F8BC34FBB1039883F8240088
:10A250000121002283F8251083F826209A62014606
:10A2600048B12C3319441F4A084612F8011B03F861
:10A27000011B9842F9D117B0BDEC068BBDE8F08FF9
:10A28000DFF8708089F82827DCE7174D174C0FCDD1
:10A290000FC40FCD0FC42B6844F82039C8F8BC4454
:10A2A000E9E700BFDC6F0508F87400202829303882
:10A2B000319B0308A9DD020875DB0208359B030802
:10A2C000086A00206F12833A00007A44C86A0020AE
:10A2D000946F050845090508C19B0308000000208C
:10A2E0002D9B0308FC6A0020706F0508C8750020CC
:10A2F0000064002018310020F8700020082C00F0C5
:10A300006682724E81F800410FCE714D99F8027746
:10A31000DFF8E8810FC50FCE0FC52C463268039BCE
:10A3200044F880290021C9F82C377B1A18BF012373
:10A330006848694E88F8D1344FF44C7289F82A176E
:10A340000F467D354CF03EF8A346CDF81080D9F885
:10A350002C37BB425BDD15F8014B204630F0A0FBEB
:10A360008246204635F07AF99AF80880049B08F076
:10A37000010A93F8D1240AF1010A044689F829A7B1
:10A380000AB188F00108002C00F00382A279DAB14A
:10A39000422A19D0514B5249524AC9F88036DDF849
:10A3A0001080C9F87816012389F82A37C9F87C2665
:10A3B0000023C8F8BC3445E7032C40F0F881DFEDFA
:10A3C0004A8ADFED4A9A05E6204635F08DFD4FEAD0
:10A3D0004A1A01374AF001014FF0030371617060BE
:10A3E000F46086F81080E771A371204635F0A6F975
:10A3F00018F0010F204610D035F0E2F9F368CBF8E1
:10A400001430042F06F120060BF1180B9FD1DDF854
:10A4100010802F4BCDE700235AE635F0D7F9EDE752
:10A42000B0EE4A0A49F0D0FB3068B0EE408A45F001
:10A4300047F8FCEEC87A4FF6FF7317EE902AB0FB90
:10A44000F2F202F57F42FF32120CB0FBF2F21BE691
:10A45000082C7FF48AAE264BC9F8303785E6002BEE
:10A460003FF4DBAED4F81480B8F1000F3FF4D5AE62
:10A47000404635F083FFA2691E4B0C92451E2422F4
:10A4800002FB05350A9095F880613A2E00F0B681FE
:10A49000206846F0B1F9C0B2002E7FF4BEAE3A2378
:10A4A00085F880310A9B85F88101002B3FF4B5AE19
:10A4B000099699F8356725680F48CBF82881002E52
:10A4C00000F0AF81002203461EE000BFB86F050810
:10A4D000686A0020FC7500202C7900202D9B030861
:10A4E000359B0308319B0308ACC5A737ACC5A7361D
:10A4F000919B030800000020386B002018310020D9
:10A500000132B24200F08D8119688D4203F1B80327
:10A51000F6D1D6B2B82306FB03038BF8B5A0CBF86F
:10A520002C3199F83537207903F1FF3A35F096F858
:10A53000079B93F8D12407F00103591C0AB187F057
:10A540000107490141F00E01CBF8B810CBF80840E3
:10A55000627A35F0D1F8564500F00082089B063B40
:10A560000D930023CBE93F33CBE94133CBE94333B0
:10A57000CBF814310BF1F80308EE103A17F0020390
:10A580004FF060020E934FEA4703CBF8F82003F038
:10A5900002034FF0010200F06A81CBF80C31CBF8D6
:10A5A000002100274FF48033CBE947370A220223EA
:10A5B000CBF80471CBF81821CBF8243163790C2B3C
:10A5C00000F24181C04A99F8341702EB8302D2F8B5
:10A5D0000478CBF8E870002900F01382DBF82C3106
:10A5E000C3F8A880CBF82881099B002B00F0998143
:10A5F0000BF1BC000F9008F0A3FC99F834370F98CA
:10A60000002B00F07B81B14A21684FF4907303FB6B
:10A610000623DBF82C2101F57871C2F8B030CBF8B5
:10A62000C0300C9BCBF8E030CBF8BC10089B082B5B
:10A630000CBF06231223CBF8DC300023CBE93233E6
:10A640004FF400731022CBF8D4304FF40053CBF802
:10A65000C420CBF8E4308022099BCBF8D0204FF403
:10A660000062CBF8D820002B00F019819DF834301F
:10A67000CBF82881022B00F2E180934A02EB83039E
:10A68000089AD3F8F837082A914AB2FBF3F303F19A
:10A690002303CBF8F0300CBF5F221322DBF82C3100
:10A6A00058469A8046F0BAF899F83437002B00F0F3
:10A6B000B080099B002B00F0AC8018EE102A3946C0
:10A6C000284608F00DFA012F00F0DA80042F00F080
:10A6D0003D81102F00F09B81402F00F0AD81B7F538
:10A6E000807F00F0B781B7F5806F00F0BB81B7F5D0
:10A6F000805F00F0BF81B7F5804F00F0C381B7F5F0
:10A70000803F00F0C7812B6D43F400632B6505F19A
:10A71000180009236F49704AC95C12F803C00B582E
:10A72000042202FA0CF223EA02030B502B6843F0D6
:10A7300001032B600E9B002B7CD02B6A43EA87071A
:10A740002F6256450BD16B6C43F400436B642B684E
:10A7500043F080032B602B6843F001032B60079BC1
:10A7600093F8D134002B40F09380049A059901238B
:10A7700001328BF80F304B74042A01F11803049254
:10A780000BF59A7B05937FF4FCACDDF81C800B9BEA
:10A790000FE6204635F0A8FB4FEA4A1A4AF00101BD
:10A7A000013771617060F46086F810801DE6002C3E
:10A7B00040F07881DFED498A49494A4A0493C9F853
:10A7C000E016494BC9F8D826F0EE689A10E4474DD8
:10A7D00099F80267DFF820810FCD09F5D3640B9457
:10A7E0000FC40FCD0FC4003E2A68414B226018BF32
:10A7F000012688F8D164C9F8A8362CE6206845F00F
:10A80000FBFF95F8813183427FF407AD0123099363
:10A810004FE60A989BF8B5303649902246F0C2FAC6
:10A820004BE7B82202FB0692731CC2F8385789F82E
:10A8300035376FE62B6A1F432F6282E78D23CBF8F3
:10A84000F03013222AE799F83437CBF8E870002B60
:10A850007FF4C4AE1F461946DBF82C21ABF80C1070
:10A86000B2F8B43023EA0103A2F8B430BCE6CBF866
:10A8700008314FF48073CBF8FC20CBF8103190E610
:10A88000AB6943F00803AB6105F11800002341E711
:10A890002368627934334FF6FF71995065E75FFAA8
:10A8A00088F30246A3F1080128F0FF001423B1FB4E
:10A8B000F3F1013108F052FBD8F8003043F0020305
:10A8C000C8F80030D2E600BF1C670508E06B012025
:10A8D00000D012134C700508407005086F12833ABF
:10A8E000A9DD0208359B0308319B0308946F050816
:10A8F00045090508CDF90408183100206C4A0C9B65
:10A900000499CBF8E030582303FB0123CBF8303116
:10A91000CBF8C0302368627934331344CBF8BC30B1
:10A9200084E6D8F800305FFA88F123F0010314229E
:10A93000C8F8003028F0FF000839B1FBF2F101310E
:10A9400008F04AFB0A9846F049FA51E6AB6943F031
:10A950000803AB6105F118000123DBE600234FF08B
:10A96000FF32ADF84430129314938DF854301392A3
:10A97000504A52F83320954266D001330C2BF7D160
:10A980000020FCF71BFC2B6823F001032B60089BC5
:10A9900028469A1F0D9244F093FD9DF8343007EE3F
:10A9A000900A022BF8EE677A39D8434ADFED436A02
:10A9B00002EB830303F5FF6292ED007AB8EE477A6B
:10A9C00087EE870A30EE260A49F00CFA089B013818
:10A9D000082BADF8440014BF13225F22002311A9F5
:10A9E0002846139214938DF85430129308F046FAC7
:10A9F000B7E5334A334BC9F8E026C9F8DC36FFF730
:10AA000072BB2D4A02EB4303B3F8381824E7AB6955
:10AA100043F40063AB6105F1180002237AE69FED71
:10AA20002A7A9FED260AA7EE870A49F0DBF901385A
:10AA3000ADF844001322D1E7AB6943F00803AB61E2
:10AA400005F11800032365E61B4A02EBC30393F8E4
:10AA50009C0796E7EB6943F00803EB6105F11800EA
:10AA6000042357E6EB6943F00803EB6105F1180096
:10AA700005234FE6EB6943F40063EB6105F1180031
:10AA8000062347E6EB6943F00803EB6105F1180084
:10AA900007233FE62B6D43F008032B6505F11800F3
:10AAA000082337E6DFED098AF0EE689AFFF792BADD
:10AAB000E0740120B46E05081C6705080AD7233C22
:10AAC0007DDC0208319B0308FCF4B2346F120339B9
:10AAD00070B5534E96F8CF0496F8D05434F0BEFDBE
:10AAE00060B12F23C3802021044634F027FE0A20C2
:10AAF00031F026FF204635F0EDF918B9D6F8D834F4
:10AB0000DA0000D570BD013D092DFBD896F8CE4482
:10AB1000D4B940202BF016FD0028F3D090F9043072
:10AB2000404A092BC8BF143B92F8291433440A2920
:10AB300093F8DC4467D093F8E83496F8C224002AEE
:10AB400008BF1C46002CDDD0204634F087FD0546AA
:10AB500008B12F23C3800121284634F0EFFD0121E5
:10AB6000084634F0F9FE0121284634F0AFFE3C20BF
:10AB700031F0F2FE0021012034F0EEFE96F8D034E0
:10AB80001BB300240021084634F0E6FE0021022019
:10AB900034F0E2FE0021284634F098FE782031F0AF
:10ABA000CFFE0121002034F0D7FE0121022034F035
:10ABB000D3FE0121284634F089FE782031F0C0FE12
:10ABC00096F8D03401349C42DCDB96F8CE3493B94D
:10ABD00096F8CF34002B95D196F8D134012B91D132
:10ABE000D6F8D83413F080538CD186F8D034BDE831
:10ABF00070403EF01DBF322031F0AEFE28460021ED
:10AC000034F09CFDE4E7D6F800355B057FF57AAFBC
:10AC10000FF022FB00287FF475AF002C94D171E770
:10AC2000F87400200064002048400822430010F01F
:10AC3000800F08BF400083F0D50314BFD8B2C0B264
:10AC4000013AF3D1704700BF30B405688D424FF030
:10AC5000000211D011F8013B08245A40530012F0B1
:10AC6000800F08BF520083F0D50314BFDAB2D2B20E
:10AC7000013CF3D18D42EDD16B1C03602A7030BCD6
:10AC8000704700BF82B00346019000F14802D3ED47
:10AC9000024A93ED044A93ED037A93ED055AD3EDFE
:10ACA000087AD3ED075A93ED066AE4EE004A24339E
:10ACB000F0EE406AA5EE267A67EEE47AA4EEE57A35
:10ACC000E6EE267A03ED077A43ED067A9342B0EE7C
:10ACD000640ADCD102B0704770B4344890F804358F
:10ACE000A3F13001092957D800F20454224600F29A
:10ACF000135012F8015FA5F13001092904D88242EE
:10AD0000F7D1002070BC7047141B022C4ADD284884
:10AD1000002101E010F8013B01EB810103EB41034D
:10AD2000161A303B022E044603F0FF01F2DC214BE1
:10AD300003FB01F1A2424FF000030DD903EB8303A3
:10AD400014F8016B5B00303B3344A24203F0FF0375
:10AD5000F4D1194800FB03F32E2D06D01748A0FBB1
:10AD6000032301EB930070BC7047013204200024E0
:10AD7000157804EB8404303D6400092D00F1FF30A8
:10AD8000A4B202D82C44A4B2013210F0FF00EFD1DB
:10AD9000642202FB0433E1E700211D4600F2045265
:10ADA0000B46D9E7064C0021C4E700BFF874002029
:10ADB000FD7900208096980040420F00ABAAAAAA15
:10ADC000FC79002038B5041E0D4611DB092C24DC6B
:10ADD00008461A4B1A49A3FB0423DB0803EB830341
:10ADE000A4EB43030022CB5C03704270284638BDBD
:10ADF00064422D23092C01F8013B16D80F4B104853
:10AE0000A3FB0423DB0803EB8303A4EB430300222F
:10AE1000C35C0B704A70284638BD0848A0FB04305C
:10AE20000A22C00839F0B0F8D3E70448A0FB043088
:10AE3000C0080A2239F0A8F80146DFE7CDCCCCCC17
:10AE4000D8D4050883B50C46164605462BF046FBBC
:10AE500020462BF043FB0021204B0846002E08BF64
:10AE60001E4634F079FD0021012034F075FD28469E
:10AE700031F048FEB0B10121002034F06DFD2846CC
:10AE800031F038FE0746204631F038FE0028FAD06F
:10AE90003946204631F05CFE3846B047002108466E
:10AEA00034F05AFD204631F02DFE0028DFD001217C
:10AEB000002034F051FD204631F01CFE01462846AA
:10AEC000019131F01BFE01990028F8D0284631F09D
:10AED0003FFE0021084634F03FFDC8E70148030863
:10AEE000F0B50023C1E90033C1E902330B61D0E9B9
:10AEF00000258DB007AEDFF898E0C2F3056C374649
:10AF00004CFA03F0C0073C4604D513F80E0004F8D1
:10AF1000010B27460133062BF2D11B4CDFF874E0FE
:10AF2000C2F303200023205C3B708DF82400C2F3A1
:10AF3000073C0DF125074CFA03F0C0073C4604D549
:10AF400013F80E0004F8010B27460133082BF2D149
:10AF500000233B70C5F3435CC5F3434409AB08468B
:10AF6000C5F34F05C2F30351CDE902150193CDE9B5
:10AF7000044C02F00F0305490096C2F303123DF0A2
:10AF800011FB0DB0F0BD00BF24D5050800D50508A4
:10AF90002CD5050818D5050870B5094CD4F814252A
:10AFA000054662B10026D4F814052D21013636F08D
:10AFB0007FFAAE42F7DBBDE8704038F0C3BD70BD2C
:10AFC000F87400202DE9F04FCDB2002185B007467E
:10AFD0000846164634F0C0FC0021012034F0BCFCC9
:10AFE00034F046FA022E09D0042E44F6C01918BFD8
:10AFF0004FF49649032D06D900200BE0FF2D4FF4A6
:10B000001649F7D10326C34C94F818352BB9002004
:10B01000C4F81C0505B0BDE8F08F032E15D0BE495D
:10B020000D44002295F8050703212FF0B1FC0028FC
:10B03000EDD0BA4DC5F87C0D037A9A07E7D40068C5
:10B0400045F0C6FB41F28853E850B44D94F818051A
:10B0500041F29F530022EE5403212FF099FC05F595
:10B060008C58C8F800000028D1D0006845F0B0FB2B
:10B0700041F284534FF48062E850A94BC5F8383D43
:10B08000C5F8442D0323C5F8482D41F29052A5F888
:10B090003C3D0023AB5441F28C524FF0010A25F89D
:10B0A00002A041F2985205F55861AB5041F29C5212
:10B0B000C5F84C1DAB5241F29E5201F20441032EE1
:10B0C000AB54C5F8409DC5F8643DC5F8583DC5F87A
:10B0D000543DC5F8501DC5F8603DC5F85C3D05F60A
:10B0E000385B0FD0D5F87C3D0093187934F0B6FA70
:10B0F000009BC5F8780D184614F0F3FA51465846EF
:10B1000014F0FEFA322031F027FC012E09D1D8F8D4
:10B1100000004946FBF76AFCD5F87C0DFDF7A0FD61
:10B120000AE0022E3AD1D5F87C0D14F0CEFAD8F808
:10B1300000004946FBF75AFCC4F81CB5022E12D099
:10B14000D4F81C0531F0DEFC68B10121002034F098
:10B1500003FCD4F81C0531F0D5FC0146002840F072
:10B16000868034F0F9FB384631F0CCFC80B1012107
:10B17000084634F0F1FB4FF0050B4FF0000938465C
:10B1800031F0C0FC014600287AD1012034F0E4FB04
:10B19000042ED5D0052031F0DFFBCFE7032E5ED1A2
:10B1A000604B61484FF0000A83F800A0514620220E
:10B1B0004BF008F95B4B8DF80FA0DFF85CA1009312
:10B1C0009DF80F20032A09D95848012114F098FA54
:10B1D000D8F800004946FBF709FCADE79DF80F20C1
:10B1E00002EB42020AEBC20292F8192682B39DF8E2
:10B1F0000F2002EB42020AEBC202D2F81C263AB33D
:10B200009DF80F20524492F8050708B3002203214D
:10B210002FF0BEFB0190D8B114F057FA009B9DF8B7
:10B220000F201878019902EB42020AEBC20204EBEC
:10B23000C00CD2F81C26CCF820250A7AD307009B34
:10B2400048BF012200F1010048BF8CF82425187086
:10B250009DF80F200132D2B28DF80F20B0E7042EF6
:10B260007FF46AAFD5F87C0D14F02FFA4FE7D4F8CD
:10B270001C0531F03FFC0146384631F069FC68E7B7
:10B28000384631F037FC94F84E3501468BB9242806
:10B2900003D14FF0010384F84E35012E04D1384616
:10B2A000009131F055FC0099D4F81C0531F050FCA8
:10B2B00065E7012B06D14D280CBF0223002384F83B
:10B2C0004E35EAE7022B06D13C280CBF03230023AE
:10B2D00084F84E35E1E7032B10D10A2802D984F80F
:10B2E0004E95DAE7042384F8410584F8409584F804
:10B2F000439584F8420584F84E35CEE7042B17D1E8
:10B3000094F8423584F84F05434084F8423584F878
:10B310004EB5C2E7F8740020006400202020002011
:10B3200000700508C0350020187A0020582D002034
:10B33000052BB2D194F8403594F841A594F8420514
:10B34000534509D25A1C2344484084F8420584F8E6
:10B35000402583F84415A0E78842C0D14FF006038A
:10B3600084F84E3594F84F35F42B96D1BAF1000F8E
:10B3700093D12421384684F84EA531F0E9FB4D21C4
:10B38000384631F0E5FB3E21384631F0E1FB5146CD
:10B39000384631F0DDFBF421384631F0D9FBF42199
:10B3A000384631F0D5FB032E12D0D5F87C4D20461F
:10B3B00044F010FA5146204644F024FA2079202126
:10B3C00014F072F9D5F87C0D5246514645F08AF8D2
:10B3D0000022D8F80000114645F084F8012019E653
:10B3E00010B5036804469B6801219847FF2301229A
:10B3F000A373627310BD00BF70B51D4C0968D4F80B
:10B4000054551C4ED4F85045D6EDFC7ADFED1A6A3F
:10B41000491B00EE901A0168F8EEE00A091B60EE85
:10B42000A70A00EE101A20EEA07AB8EEC00A1C4659
:10B43000A0EE007AB1EE400AF1EEC77A67EEA67A86
:10B44000FCEEE77AC2ED007A3DF022FD9FED0B7A2B
:10B45000DFED0B7AE0EE077AFDEEE77A17EE902A41
:10B46000002ABCBF02F50C42A032226070BD00BFB2
:10B47000F8740020000000202C7D8E3FA00CB34506
:10B4800000A00C4638B50F4C94F86F1501F03F0141
:10B490008B1C024601F10A0584F86D3584F86A5563
:10B4A00004F5AD6084F86B2508311CF073FD25446C
:10B4B00085F8660594F86A351C44000A84F8670527
:10B4C00038BD00BFF87400202DE9F04FCB4DCC4CB7
:10B4D000DFF83C938DB04FF00008009005F21C6B34
:10B4E00054F80B0C002800F0FC8031F00BFB0646F2
:10B4F000002800F0BD81D9F89C3C44F8073CE026C8
:10B500000023C04F04F8033CA4F10B0A06FB08F625
:10B5100054F80B0C31F0F6FA002800F0E28054F8F1
:10B520000B0C31F0E7FA14F8023C5A1E01460B2AC4
:10B530000DD8DFE812F01F003A00450052008200EB
:10B540009900E10012012F013A016F0185012429C0
:10B550000CD0009A3AB995F8FE258A4240F07681DF
:10B56000012204F8032C0D2BD2D184E0012304F82E
:10B57000023CCDE700234D29C4F8C53084F8CD3016
:10B5800084F8CE3004D0582908D004F8023CBFE734
:10B59000022204F8022C84F8C430B9E7032304F82B
:10B5A000023C022384F8C430B2E704233C2904F8A7
:10B5B000023C0AD03E290CD0002304F8023CA7E745
:10B5C0000A233C2904F8023CF4D1002304F8013C8E
:10B5D0009EE7012304F8013C9AE7D4F8C500BB19A3
:10B5E0000344421CC4F8C52083F88F1594F8CD009D
:10B5F000022A81EA000184F8CD1089D12378C02B7A
:10B60000DAD86278FF2A08D1052BD5D9012384F82E
:10B61000C430072304F8023C7AE7A4F8C1200022D2
:10B620009342C4F8C93014BF0523062384F8C3200D
:10B63000C4F8C52004F8023C6AE7D4F8C500BB1979
:10B640000344421CC4F8C52083F88F1594F8CD003C
:10B65000D4F8C93041409A4284F8CD107FF458AFF5
:10B66000062304F8023C53E794F8CD308B42A3D173
:10B670000D2304F8023C14F8017C002F40F0EC800C
:10B68000614B08940FCB04AE86E80F00D4F8C930A4
:10B69000D4F8D100ADF82A7023440993B4F8C1302E
:10B6A000ADF8283094F8C3308DF82C3001238DF894
:10B6B0002D30324603AB08A903972BF00BFA48B1A3
:10B6C000049B059394F8C420504B04933146504694
:10B6D00028F0D8F9039E002304F8023C002E40F025
:10B6E000BF8008F10108B8F1030F04F1E0047FF412
:10B6F000F7AE0DB0BDE8F08FD4F8C500BA1902441A
:10B70000431CC4F8C53082F88F1594F8CD2094F806
:10B71000CE0001934A4084F8CD20FFF785FA019BC3
:10B7200084F8CE00072B7FF4F3AEB4F80530C02BBD
:10B730003FF642AFB4F80320A4F8C120A27884F801
:10B74000C32000229342C4F8C93014BF0823092340
:10B75000C4F8C52004F8023CDAE694F8CE00FFF7FE
:10B7600063FA94F8CD3084F8CE004B40D4F8C5008D
:10B7700084F8CD30BB190344421CC4F8C52083F8BB
:10B780008F15D4F8C9309A427FF4C2AE092304F869
:10B79000023CBDE694F8CD304B4084F8CD3094F8AF
:10B7A000CE308B427FF408AF5AE7D4F8C500BA19FF
:10B7B0000244431CC4F8C53082F88F1594F8CE00BB
:10B7C0000193FFF731FA019B84F8CE00052B7FF43B
:10B7D0009FAEB4F80120B4F80330A4F8C120227859
:10B7E00084F8C32000229342C4F8C93014BF0B234D
:10B7F0000C23C4F8C52004F8023C89E6F874002044
:10B800009758002008530020307005087858012010
:10B810002020002094F8CE00FFF706FA84F8CE002E
:10B82000D4F8C500BB190344421CC4F8C52083F8F2
:10B830008F15D4F8C9309A427FF46AAE0C23A4E67F
:10B8400094F8CE308B427FF4B7AE11E7232904BFC2
:10B85000022204F8032C86E6002304F8023C40E7A9
:10B8600054F80B0C2AF03AFE54F80B0CB04738E7AA
:10B8700014F8030C00283FF434AFD9F89C3C54F87A
:10B88000072C9B1A632B7FF62CAF012829D00228A6
:10B890007FF427AF54F80B3CC5F804360122C5F8F5
:10B8A0000836C5F8103640230F4885F80026A5F85D
:10B8B00018360E4A0E4BC5F80C26C5F81435C5F8D7
:10B8C0005C36C5F814B638F041F94FF400502BF04F
:10B8D000F9F8084838F030F985F8606685F861664F
:10B8E000FFE631F043F8FCE63CD505084DCB0308F4
