:020000040800F2
:10000000F0FF00102D26060801FE000839830408C1
:10001000CD260608CD260608CD26060800000000DD
:10002000000000000000000000000000FDFD0008CE
:10003000F9FD000800000000F5FD00085D1D040842
:10004000CD260608CD260608CD260608CD260608AC
:10005000CD260608CD260608AD9904087599040832
:100060003D99040805990408CD98040885CE050833
:1000700075CE050865CE050855CE050841CE0508A4
:100080002DCE050819CE0508CD260608CD26060872
:10009000CD260608CD260608CD2606089598040824
:1000A000090B0408910B0408F90A0408B90B0408A9
:1000B000810B0408710B0408610B04080114060885
:1000C00009140608F5130608FD130608CD260608D0
:1000D000CD260608654A0408AD490408F548040819
:1000E0005D980408CD260608F1150108E90A040800
:1000F000190B0408D90A0408410B040805CE0508A9
:10010000CD26060819AC0508510B0408CD260608B3
:100110003D48040885470408CD260608CD26060874
:10012000F1CD0508DDCD0508C9CD0508B5CD05081B
:10013000A1CD0508CD260608CD260608CD26060841
:10014000CD260608CD260608CD26060889F7000824
:100150008DCD050879CD050865CD0508CD46040887
:10016000E9130608F1130608CD260608CD26060871
:10017000CD260608CD260608CD260608CD2606087B
:08018000CD260608CD26060875
:08280000082800080040000850
:10800000F0B401292A4C2B4D23684FF0000694BF91
:1080100000270127EE626662A6626763676B47EA24
:1080200042076763EE63EC6B002A38D144F4957421
:10803000EC631C6824F001041C601C68E407FCD499
:10804000490289085960D8601968EAB921F04001ED
:10805000196019498B421DD018494FF47410C8603B
:10806000196841F01E011960596941F08001596198
:10807000196841F00101196022B90E4AD36A43F030
:108080000803D362F0BC704741F0400119600A490F
:108090008B42E1D14FF0746041F8500CE0E744F0BE
:1080A0001A04EC63EC6A44F00804EC62C1E700BF18
:1080B000F81F0020002C0140586402400064024078
:1080C000F0B5076887B001390026044689B2384602
:1080D00002911546ADF80C6001968DF80E6053F0D4
:1080E000D1F83C4AA2FB00239B0C013B384601A976
:1080F000ADF804300EF04EFA237AADF80860602235
:1081000001929A07CDE90466276866793AD5DB00C3
:1081100003F008030422ADF81230ADF8082001AADC
:1081200031463846039538F053FB0C2E10D8DFE863
:1081300006F0360F0F0F3F0F0F0F480F0F0F0700FE
:10814000BB8B23F400631B041B0C43F40063BB8351
:1081500022682148B2F844306FEA43436FEA534340
:108160009BB2A2F84430138811469BB243F001033E
:1081700021F8343B6379C263CC1800228463CA506F
:1081800007B0F0BD5B0003F002030122ADF8103030
:108190004FF48073ADF80620ADF81430BFE73B8B89
:1081A00023F008031B041B0C43F008033B83CFE7B9
:1081B0003B8B23F400631B041B0C43F400633B83E1
:1081C000C6E7BB8B23F008031B041B0C43F008031A
:1081D000BB83BDE783DE1B43F81F0020084AD2E9BA
:1081E0001431994209D0D118013391F85810017017
:1081F000C3F30A031365012070470020704700BFD6
:10820000F81F0020044BD3E91430C01AC0F30A0051
:10821000C0F50060704700BFF81F0020012380F800
:108220005130704707B501A8FFF7D8FF0028FAD0F2
:108230009DF8040003B05DF804FB034BD3E9143050
:10824000C01AC0F30A007047F81F002001207047D1
:10825000024BC3F85828C3F85C187047F81F002079
:10826000024BC3F86028C3F864187047F81F002059
:108270007047704730B4114DD5E914239A1AC2F3F0
:108280000A020A44B2F5006F12D8A1B101444A1E95
:10829000013810F8014FE918824203F1010381F817
:1082A0005840C3F30A03F4D16B65002030BC70471B
:1082B000022030BC70470846F8E700BFF81F0020D6
:1082C000212838B50C4605D022282ED0202813D0DE
:1082D000002038BD0029FBD0072AF9D11A4BD3F86A
:1082E000680893F86C1893F86D2893F86E3820603E
:1082F00021716271A371EBE70029E9D0072AE7D168
:10830000114DD5F85C381BB10968D5F85808984765
:10831000206821796279A379C5F8680885F86C1816
:1083200085F86D2885F86E38D2E70029D0D0022A6A
:10833000CED1054AD2F86438002BC9D00988D2F8CA
:1083400060089847C4E700BFF81F0020024B0020D8
:10835000C3F87008704700BFF81F0020044B0020CE
:108360000522C3F87028C3F86408C3F85C08704796
:10837000F81F0020704700BF704700BF704700BF64
:10838000704700BF704700BF704700BF704700BF15
:10839000042301480B8070478801002010B4074A6D
:1083A000074B92F87408122403F114020C80012880
:1083B0000CBF184610465DF8044B7047F81F0020AC
:1083C0008C0100200048704798280020034B93F848
:1083D0009C08032894BF002001207047F81F00204C
:1083E000034B93F89C08003818BF0120704700BF6A
:1083F000F81F0020A0B182680D4B12B107229A70BD
:1084000070471978DA6003294FF004000CBF80210F
:108410004FF48071C3E901111A611A7598707047A1
:10842000034B41F2E47101225A545A70704700BF65
:10843000F08D00200378022B10D0006908B90120CC
:1084400070470C4B1B78032B0EBF0B4B80B24FF6C3
:10845000F773984294BF0020012070470549436894
:1084600041F650028A58B3EB422F2CBF0120002066
:10847000704700BFF08D0020F7FFFF0F0378022B3D
:1084800014D030B4104A4368006941F6480402F53C
:10849000C2511559096841F63C042B4012595B0A38
:1084A000023801FB0030104430BC7047064B426874
:1084B00041F6340141F630005958185800EB41009C
:1084C00000EB5220704700BFF08D002070B5144CB7
:1084D00094F86C39002BFBD1F9B101444E1E451EB6
:1084E00002E0012039F09AFBD4F87039D4F87429ED
:1084F0000133C3F30A039342F3D0D4F87029D4F8BC
:10850000703915F8011F22440133C3F30A03B54241
:1085100082F87819C4F87039E6D1002070BD00BF28
:10852000F81F00200A4B0846D3F8701810B569B13F
:10853000D3F87038052B09D1064C002AD4F88030C6
:1085400004DD1146FFF7C2FFD4F8803010BD00BF34
:10855000F81F0020F030002010B590F850100023D4
:1085600080F8503089B10C4CD4F870287AB1D4F826
:108570007028052A0DD1094C3C30D4F88030FFF723
:10858000A5FFD4F88030012010BD0120FCE7104683
:10859000FAE71846F8E700BFF81F0020F030002087
:1085A000002280F85120D7E790F85020531C024455
:1085B000DBB280F8503082F83C1090F851200AB1BC
:1085C000132B00D9C8E770473F4B98422DE9F04183
:1085D0000ED003F56853083398424ED03B4B002031
:1085E000C3E93C00A3F8EC00A3F8F800BDE8F08173
:1085F000364C374FDFF8E0800223C4F8843004F1B2
:1086000088060025FB6AAB42294605F1010503D027
:10861000D4F808014FF0A8F994F80C31D4F80821E7
:1086200086F824303262304641464FF041FBD4F8A0
:1086300084309D4206F13006E4DB002384F8FA30F2
:10864000D4E92403D4F88410B4F88C20B4F89850FA
:10865000C4F8183112FB01F203FB01F3A4F8EC207B
:10866000B4F88E101B4AA4F8F850C4E93C03A4F8EF
:10867000EE10C4F8E8200120B8E7144C144F022390
:10868000C4F8843004F188060025FB6AAB42294611
:1086900005F1010503D0D4F808014FF065F994F80D
:1086A0000C31D4F8082186F82430326230464FF07D
:1086B000B7FAD4F884309D4206F13006E5DB012399
:1086C00084F8FA30BCE700BF1971EF00F0300020E9
:1086D00088010020145206081940EF002DE9F04FE0
:1086E000284DDFF8C8A0DFF8C8B006460FCD5446C5
:1086F0002DED048B0FC40FCD0FC49BF81E312A68DB
:1087000022608DB0022B9BF82421059600F0788220
:10871000032B00F06E82002B00F07782DFED1A7AD7
:10872000F0EE678A002A1949194ACAF81020194838
:10873000194BCAF818000EBF002201220B46029204
:1087400038EEA77AF5EE006AC6EE879A134A144E01
:108750000192CAF8143002F123074FF000099FED8F
:10876000118A9FED119A27EE888A059B4B4540F3AD
:10877000BB81019B13F8014B0193002C00F0D581C4
:1087800000231AE0405206086F12033995FA0308D5
:1087900099FA0308B1300308E92D030819320020C3
:1087A000280100106F12833A00007A44F80000108C
:1087B000F0300020152B00F0B88103EB43024FEAA4
:1087C0004308B95CA14203F10103F3D15A4492F882
:1087D0004D11002900F02782204638F0F5FB0546B0
:1087E000284638F011FC0178002940F09E81D844D9
:1087F00009F1010303930322DBB288F88D3188F875
:108800008C21002D00F091814FEA141808F1FF38F7
:10881000B8F1050F04F00F0C00F2CB81CC4C04EB47
:108820004801B1F8500040FA0CF111F0010100F0DC
:10883000C081012101FA0CFC0CF1FF3C0CEA0000A4
:10884000A044049359F03AFD98F85CC0DFF814E3B3
:10885000049B60440EEBC00C03228CF807308CF8AC
:1088600006205EF83000C6F814C000F13F4303F55F
:108870007E0304EB9324012194F864306A7A03F0B8
:108880001F045B09032B01FA04F100F0AB81042BF8
:1088900000F0A381022B00F09B81BCF80440B4FAE5
:1088A00084F3C3F11F03C3F3CC0100EB810103F098
:1088B0000703D1F820C09B004FF00F0E0EFA03FE05
:1088C0002CEA0E0CC1F820C0D1F820C002FA03F344
:1088D00043EA0C0307AA0B62114602230492CDE976
:1088E00007430EF0B3F8049A029B002B00F040817E
:1088F000BBF81C3100EE103AB8EEC00AFCEEC07AAC
:1089000017EE90EA2C68934B9C4200F01881A3F577
:1089100080639C4200F0138103F580439C4200F089
:108920000E8103F580639C4200F0098103F58063AA
:108930009C4200F00481DBF8B8044108B1FBFEF36F
:1089400003F57F43FF334FEA134C029BB1FBFCFC62
:10895000002B00F02481BCFBFEF1013989B207EE47
:1089600090CAB8EE677A7B4B67EE086A9C4269EE64
:10897000667AC6ED026AE7EE287AC6ED037A00F061
:108980001181A3F580639C4200F00C8103F58043C4
:108990009C4200F0118103F580639C4200F00C8141
:1089A00003F580639C4200F0078123884008B0FBF8
:1089B000FCF0013880B29BB2B4F1804F0BD0DFF8ED
:1089C000A8C1644507D00CF5806C644503D00CF554
:1089D000806C644502D123F070039BB2DFF88CC138
:1089E000644500F0B0800CF5806C644500F0AB800D
:1089F00023F440730CF56C4C9BB264452380E16218
:108A0000208540F0E080002323860120A0822B7A7D
:108A100095F805800021CDE909114FF0600CADF803
:108A200020100B919907CDF81CC040F1AC80DB0001
:108A300003F008030421ADF82A30ADF820104146B8
:108A4000204637F0C5FEB8F10C0F10D8DFE808F06B
:108A5000640F0F0F5B0F0F0F520F0F0F0700A38B49
:108A600023F400631B041B0C43F40063A3832B68F3
:108A7000B3F844206FEA42426FEA524292B2A3F83E
:108A800044201A88194692B242F0010221F8342B90
:108A9000687973600C18002234600A50B9F1000F35
:108AA00000F0A580DAF834108B4200F0A780B9F10D
:108AB000010F00F09C80DAF84C108B4200F09E8091
:108AC000B9F1030F40F09380DAF86420D31A18BF8D
:108AD0000123DDF80C9033740122B9F1040F727494
:108AE00006F118067FF441AE1B480DB0BDEC048BB7
:108AF000BDE8F08FA38B23F008031B041B0C43F08D
:108B00000803A383B3E7238B23F400631B041B0C2C
:108B100043F400632383AAE7238B23F008031B0499
:108B20001B0C43F008032383A1E70C4A0C4B0020E5
:108B3000CAE905320DB0BDEC048BBDE8F08FDBF85F
:108B4000B8140846FAE62380E16220855DE700BF9D
:108B50001452060800040140F80000106D2F0308AD
:108B600095FA0308A83200200004004000100040DD
:108B7000B0EE690A049259F0B1FDFCEEC07A049A95
:108B800017EE90EABEE65B0003F002034FF480713B
:108B9000ADF82830ADF81E00ADF82C104FE74FF6B9
:108BA000FE71DCE62388B0FBFCF0013880B29BB29A
:108BB00011E7716107AA97E62388B0FBFCF0013842
:108BC00080B29BB2F8E6194B9C423FF41CAF1CE705
:108BD000174B5C6C214359645FE6154B1C6B2143BA
:108BE00019635AE6124B1C6C2143196455E60123A4
:108BF0006FE7DFED107ADFED108A93E5134668E743
:108C0000DFED0E7AF0EE678A8CE50D4BDFED0D7A25
:108C10000D4ACAF8103001230293CAF818200B4BF2
:108C2000F0EE678A8CE50D46DAE500BF00040140EE
:108C300000380240ACC5A737ACC5A7362829303864
:108C400099FA03086F12833AB130030895FA0308C2
:108C5000F8B5104ED6F8B844054600680F466408CB
:108C60000DF0F8FDB4FBF7F1B1F5803F03D3012C13
:108C7000FAD96408F6E72246284689B238F026F881
:108C8000054BC6F8203D28460449BDE8F8400022BF
:108C900037F09ABFF030002009F60108103E00209E
:108CA0001C4B93F8D42193ED260A12B983EDFF0AE9
:108CB000704793F8D62132B1052A0BD093ED8A0A7A
:108CC00083EDFF0A704783ED8A0A83ED8E0A83EDF8
:108CD000FF0A7047104AD3F8D801D2F88010D3F8B1
:108CE000E821D3ED8A5A091A07EE901A0132F8EEFC
:108CF000E76A07EE902AB8EEE77AF7EE007A86EE9A
:108D0000876A77EEC67A67EEA57AE0EE067AB0EE6D
:108D1000670ACBE7F8000010F030002010B5044CD3
:108D200004480A4621460CF019FC204610BD00BF3D
:108D3000183E002010E7060810B5044C04480A4607
:108D400021460CF00BFC204610BD00BF183E002051
:108D500020E7060810B5044C04480A4621460CF0EA
:108D6000FDFB204610BD00BF183E00202CE7060882
:108D700010B5044C04480A4621460CF0EFFB20468F
:108D800010BD00BF183E002038E7060810B5044C9F
:108D900004480A4621460CF0E1FB204610BD00BF06
:108DA000183E002044E7060810B50D4C94F86A29D7
:108DB0000023C4F8983812B10A4AC2F8283E51F08C
:108DC0008BFF20B10423022084F89C3810BD054B92
:108DD000D3F88030C4F88C38092384F89C3810BD4F
:108DE000F81F0020F030002070B50F4D95F89C382A
:108DF000042B04460E460BD0082B07D1D5F8943827
:108E000083420ED0FFF7D0FF022801D0012070BDB1
:108E10000823C5F89868C5F8944885F89C3802205E
:108E200070BD022070BD00BFF81F002070B503792F
:108E3000234C002B14BF0123002384F8C83803D12E
:108E4000002384F89C3870BD1E4D002195F92F2E0B
:108E5000032040F0A3FE0028F2D04668304640F0E0
:108E600017FF84F869090028EAD095F82D3E003BE9
:108E700018BF0123304684F86A3952F03DFE0CF0E9
:108E800007F838B994F8903884F89C08013384F8CE
:108E9000903870BD52F00AF840B194F89038002232
:108EA000013384F8903884F89C2870BDD5F8803060
:108EB000C4F88C38012384F8900884F89C3870BD7D
:108EC000F81F0020F030002010B551F0EFFF58B12E
:108ED0000C4C94F890380133DBB2072B84F89038AF
:108EE00003D9002384F89C3810BD0BF0D1FF002873
:108EF000F7D0054A0123D2F88020C4F88C2884F8E2
:108F00009C3810BDF81F0020F03000202DE9F04102
:108F1000904C94F8C858002D00F0098194F89C28D2
:108F20008D4E0227531E082B45D8DFE803F03B3D4A
:108F3000AF4475561644050051F0CEFE002840F0AF
:108F4000FD80D4F88C38D6F88020FA3393422FD2A3
:108F5000FFF7BAFF94F89C28E4E751F0BDFE002823
:108F6000EFD0D4F898380022012B84F8902840F2F2
:108F7000E980D4F8941894F86A09013B0131C4F8E7
:108F80009838C4F8941810B1734BC3F8282E0822EF
:108F900084F89C28A2F10805B5FA85F56D092846E4
:108FA000BDE8F08184F89C7851F096FE00284ED1FF
:108FB00094F89C28531EDBB2022B0BD8664BD4F8D6
:108FC0008C18D3F880305B1AC82BE3D9FFF77CFFED
:108FD00094F89C28042ADDD1E1E7236B002BD9D13A
:108FE0005D4BD4F88468D3F88030C4F88C380722FD
:108FF00084F89C28002ECDD0D4F88838D4F878286E
:10900000D4F87C180120B047D2E7D4F88C38D6F8D1
:10901000801064338B42BDD2D4F82C80B8F1000F9D
:10902000F3D151F059FE002894D0D4F8846884F824
:109030009088042384F89C38002E7DD0D4F888389A
:10904000D4F87828D4F87C184046B047B0E751F0FF
:10905000E9FA0028ACD196F8313E002BA3F10203C7
:10906000B3FA83F314BF022201225B0984F891282A
:1090700084F8923851F0D6FA00287FF469AF374A65
:109080000323926CC4F8A02884F89C3851F0CAFAE3
:1090900000288DD1304BC4F8980893F8646EB3F86B
:1090A000660ED3F868EED3F868CED3F8687ED3F8AE
:1090B000682E84F8A66893F86C1EA4F8A40893F8A8
:1090C0006D6E84F8AA2893F86D0ED3F8702EC4F84C
:1090D000AC28B3F8768EB3F8762E84F8AB18B3F8D4
:1090E000761EC2F30B1343EA182303F00F0301F0BB
:1090F0000F024FEA1E6E4FEA1C4C3F0A360900F081
:109100000F0003F5FA63042184F8B10884F8A7E896
:1091100084F8A8C884F8A97884F8B068A4F8B238AC
:1091200084F8B42884F89C182846BDE8F08184F8B7
:109130009C582846BDE8F081054630E7042384F8B2
:109140009C382CE7FAD1FFF72FFE94F89C28531E89
:1091500031E700BFF81F0020F0300020283F00203A
:1091600070B5214DD5F8CC3593F82620DAB11B69BE
:109170009847E0B1D5F8CC3593F824208AB105F5AD
:10918000BA6600241A19E0B29B6992F82C10B6EC6A
:10919000010A9847D5F8CC3593F82420013494423D
:1091A000F0DB5B69984795F8E035332B00D070BD54
:1091B00095F8E435002BFAD0D5F8CC3593F8243067
:1091C000042B1E46A8BF0426002BF0D00024074D18
:1091D0002346184652F008FB0134E3B29E4245F89C
:1091E000040BF6D870BD00BFF8000010E0060010B8
:1091F0002DE9F04FC74C94F8901E83B00546C1F39B
:109200004001D4F8980E40F00DFB94F8901ED4F86D
:10921000940EC94301F001016F1E40F003FBFBB245
:109220000193002D00F0E580DFF8F482BA4EBB4DCB
:10923000D4F8983E33B11A689B8851690B4214BF29
:1092400053831383D4F8943E33B11A689B885169D1
:109250000B4214BF53831383B4F8A03E002B40F09D
:10926000618194F8A21ED4F8A40E40F0DBFAFA2033
:109270004FF0100C4FF47A714FF0010E7368C3F386
:109280000803002B40F01981EFF31183002B40F00D
:109290001481D4F88020D5F80890D4F880309A4210
:1092A000F7D1D4F8B03E9945F3D8D4F8AC7E01FBA1
:1092B00007F3A3EB0903B3FBF7F301FB0232736877
:1092C000C3F30803002B40F0B680EFF31183002BAB
:1092D00040F0B180D4F88030D5F808B0D4F8807070
:1092E000BB42F7D1D4F8B07EBB45F3D8D4F8AC7EFE
:1092F00001FB07F9A9EB0B09B9FBF7F901FB039394
:109300009B1AB3F57A7FDAD30138B7D1D4F8983EF7
:1093100033B11A689B8851690B4214BF538313837E
:10932000D4F8943E33B11A689B8851690B4214BF3C
:1093300053831383B4F8A03E002B40F0DF8094F8F1
:10934000A21ED4F8A40E81F0010140F06BFAFA20BD
:109350004FF0100C4FF47A714FF0010E7368C3F3A5
:109360000803002B40F08880EFF31183002B40F0BE
:109370008380D4F88020D5F80890D4F880309A42C1
:10938000F7D1D4F8B03E9945F3D8D4F8ACAE01FB90
:109390000AF3A3EB0903B3FBFAF301FB0232736890
:1093A000C3F3080343BBEFF311832BBBD4F8803026
:1093B000D5F808B0D4F88070BB42F7D1D4F8B07EAD
:1093C000BB45F3D8D4F8ACAE01FB0AF9A9EB0B0905
:1093D000B9FBFAF901FB03939B1AB3F57A7FDED34D
:1093E0000138BBD1019B5F1EFBB2FF2B01937FF4C1
:1093F0001FAF03B0BDE8F08FEFF3118A8CF3128832
:10940000AF682B68DB0344BFC4F8A8EEAF68D4F89C
:109410008030D4F8A89E5FFA8AFA8AF31188D4F8CB
:10942000ACAE4B4401FB0AF9A9EB0709B9FBFAF909
:1094300001FB0393D0E7EFF3118A8CF31288D5F880
:1094400008B02B68DF0344BFC4F8A8EED5F808B015
:10945000D4F88030D4F8A89E5FFA8AFA8AF311888B
:10946000D4F8AC7E4B4401FB07F9A9EB0B09B9FB1F
:10947000F7F901FB039343E7EFF311898CF31288AB
:10948000D5F808A02B68DA0344BFC4F8A8EED5F8D5
:1094900008A0D4F88030D4F8A82E5FFA89F989F3AF
:1094A0001188D4F8AC9E1A4401FB09F3A3EB0A031C
:1094B000B3FBF9F301FB023271E7EFF311898CF38F
:1094C0001288D5F808A02B68DB0344BFC4F8A8EEC7
:1094D000D5F808A0D4F88030D4F8A82E5FFA89F91E
:1094E00089F31188D4F8AC7E1A4401FB07F3A3EB8F
:1094F0000A03B3FBF7F301FB0232E0E6D8F84C3085
:10950000002B3FF424AFD8F838200023136088F8EC
:1095100049301CE7F030002000ED00E010E000E0F2
:10952000F81F0020D8F84C30002B3FF4A0AE38F0E4
:1095300035FC9CE62DE9F04FC94CDFF8308394F8F8
:10954000901ED4F8980EC74FC74D83B0C1F34001A9
:1095500040F068F994F8901ED4F8940EC94301F0D5
:10956000010140F05FF905230193D4F8983E33B12F
:109570001A689B8851690B4214BF53831383D4F834
:10958000943E33B11A689B8851690B4214BF5383D0
:109590001383B4F8A03E002B40F0598194F8A21E2A
:1095A000D4F8A40E40F03EF932204FF0100C4FF4E6
:1095B0007A7101267B68C3F30803002B40F01A81FF
:1095C000EFF31183002B40F01581D4F88020D5F8FB
:1095D0000890D4F880309A42F7D1D4F8B03E99453B
:1095E000F3D8D4F8ACAE01FB0AF3A3EB0903B3FB49
:1095F000FAF301FB02327B68C3F30803002B40F04F
:10960000B780EFF31183002B40F0B280D4F88030A4
:10961000D5F808B0D4F880904B45F7D1D4F8B09E77
:10962000CB45F3D8D4F8ACAE01FB0AF9A9EB0B0992
:10963000B9FBFAF901FB03939B1AB3F57A7FDAD3EE
:109640000138B7D1D4F8983E33B11A689B88516974
:109650000B4214BF53831383D4F8943E33B11A687A
:109660009B8851690B4214BF53831383B4F8A03E07
:10967000002B40F0E08094F8A21ED4F8A40E81F0F4
:10968000010140F0CFF832204FF0100C4FF47A7106
:1096900001267B68C3F30803002B40F08A80EFF3B8
:1096A0001183002B40F08580D4F88020D5F80890F5
:1096B000D4F880309A42F7D1D4F8B03E9945F3D827
:1096C000D4F8ACAE01FB0AF3A3EB0903B3FBFAF346
:1096D00001FB02327B68C3F3080343BBEFF3118342
:1096E0002BBBD4F88030D5F808B0D4F880904B4527
:1096F000F7D1D4F8B09ECB45F3D8D4F8ACAE01FB8B
:109700000AF9A9EB0B09B9FBFAF901FB03939B1AC0
:10971000B3F57A7FDED30138BBD1019B5E1E16F014
:10972000FF0301937FF421AF03B0BDE8F08FEFF3A7
:10973000118A8CF31288D5F808B02B68DB0344BF7C
:10974000C4F8A86ED5F808B0D4F88030D4F8A89E34
:109750005FFA8AFA8AF31188D4F8ACAE4B4401FB65
:109760000AF9A9EB0B09B9FBFAF901FB0393CEE760
:10977000EFF3118A8CF31288D5F808B02B68DB035D
:1097800044BFC4F8A86ED5F808B0D4F88030D4F837
:10979000A89E5FFA8AFA8AF31188D4F8ACAE4B44DB
:1097A00001FB0AF9A9EB0B09B9FBFAF901FB0393D9
:1097B00042E7EFF311898CF31288D5F808A02B68E3
:1097C000DA0344BFC4F8A86ED5F808A0D4F88030F6
:1097D000D4F8A82E5FFA89F989F31188D4F8AC9EE1
:1097E0001A4401FB09F3A3EB0A03B3FBF9F301FBF2
:1097F00002326FE7EFF311898CF31288D5F808A0D5
:109800002B68DA0344BFC4F8A86ED5F808A0D4F8D2
:109810008030D4F8A82E5FFA89F989F31188D4F83A
:10982000AC9E1A4401FB09F3A3EB0A03B3FBF9F363
:1098300001FB0232DFE6D8F84C30002B3FF423AFB7
:10984000D8F838200023136088F849301BE7D8F88F
:109850004C30002B3FF4A8AE38F0A0FAA4E600BFCD
:10986000F030002000ED00E010E000E0F81F0020E4
:109870000E4B30B4DB68427801780D4CDB43C3F308
:109880000223C3F10403DBB202FA03F360181B01E5
:1098900001F01F050122490903F0F003AA4080F8F6
:1098A000003344F8212030BC704700BF00ED00E0D9
:1098B00000E100E010B5854A0368934282B000F0F1
:1098C000C580A2F58062934200F0C08002F580421C
:1098D000934200F08D8002F58062934200F0888010
:1098E00002F58062934200F0838079481A88D0F8AC
:1098F000B8044008B0FBF1F1013989B292B2B3F17A
:10990000804F0AD07348834207D000F580608342BD
:1099100003D000F58060834202D122F0700292B23F
:109920006D48834200F09C8000F58060834200F027
:10993000A38022F4407200F56C4092B24FF6FF749F
:1099400083421A80DC62198540F09C8000221A86CE
:1099500001229A821A88614992B242F001028B4236
:109960001A8000F09B80B3F1804F00F09980594A33
:10997000934200F0978002F58062934200F0948059
:1099800002F58062934200F0918002F5806293427A
:1099900000F08E8002F58062934200F08B8002F529
:1099A0007042934200F0888002F57052934200F0BA
:1099B000858002F58062934200F0828002F5806229
:1099C00093427FD0A2F5983293427DD002F5806217
:1099D000934217D002F58062934208BF0D2212D045
:1099E0004FF0012301A80193FFF742FF02B010BD21
:1099F00037481A88D0F8B804B0FBF1F1013989B2C0
:109A000092B27CE70C22364B03EBC20301A893F819
:109A100071408DF8044001224FF480738DF80520C9
:109A2000ADF80630FFF724FF1B2C06D12D4B019318
:109A300001A8FFF71DFF02B010BD2E2CD6D12A4B76
:109A4000019301A8FFF714FF02B010BD20481A8847
:109A5000D0F8B804B0FBF1F1013989B292B25CE7F9
:109A600001204FF6FF741A80DC62198598821A88EB
:109A700092B202431A807AE74FF6FF701A80D862DA
:109A8000198565E7114A93423FF460AF01229A823B
:109A90001A8892B242F001021A8064E70022B2E70B
:109AA0000122B0E70222AEE70322ACE70422AAE7D4
:109AB0000522A8E70622A6E70722A4E70822A2E7D4
:109AC0000922A0E70A229EE70B229CE7000401403E
:109AD000F030002000040040001000400000014071
:109AE00014520608190100012C01000100F01F02A8
:109AF00040090123032803FA02F304D004280CD000
:109B0000022805D07047074A116C0B431364704755
:109B1000044A516C0B4353647047024A116B0B4368
:109B2000136370470038024000285FD00368374A4B
:109B30002DE9F04103F13F4404F57E0402EB942249
:109B4000012492F8642002F01F055209032A04FA46
:109B500005F456D0042A4FD0022A48D08588B5FA99
:109B600085F0C0F11F00C0F3CC0603EB860600F0C1
:109B7000070082000F24306A944020EA040030621B
:109B8000306A01FA02F20243002132624FF0010E04
:109B90000A464FF0030C02270EFA02F838EA0500D5
:109BA00002F101021CD118680CFA01F420EA040049
:109BB0001860186807FA01F606431E609E6826EAD8
:109BC00004069E6098689860586820EA080058600B
:109BD00058685860D86820EA0400D860D868D8600F
:109BE000102A01F10201D7D1BDE8F0817047084A7F
:109BF000556C2C435464B1E7054A156B2C43146330
:109C0000ACE7034A156C2C431464A7E7145206080A
:109C100000380240002877D0F0B58388B3FA83F388
:109C2000202B83B00446C3F11F0258D0374D384E65
:109C300015444FF0004006EB820230FA03F395F82A
:109C4000DC50C2F8B41E05D0324A116821EA030183
:109C500011605361204600213FF038FCA388226840
:109C60002C49B3FA83F7C7F11F0404F0FC0000F19C
:109C7000804000F59C3004F00304A40002F13F434F
:109C80004FF00F0C82680CFA04FC22EA0C0282608E
:109C900003F57E038268C3F38723A34013438360E5
:109CA0000A681D484FF00043FB4022EA03020A60A5
:109CB0004A6822EA03024A600A681A430A608A680C
:109CC00022EA03028A60CA6822EA0302CA600268C2
:109CD0002E441343036096F8F43EF02B01D803B0F2
:109CE000F0BD0E4B5B5D8DF80430F02103224FF484
:109CF000807301A886F8F41E8DF80520ADF80630B3
:109D0000FFF7B6FD03B0F0BD704700BF1452060860
:109D1000F0300020003C0140083C0140C8E7060844
:109D2000034BD3F8D028136A002BFCD1704700BF37
:109D3000F81F0020B0B10C49D1F8FC3E102B03D124
:109D40000521002037F0A2BB03EB43020A4482F84E
:109D5000000F202082F8010F0120034482F8020F37
:109D6000C1F8FC3E704700BFF03000202DE9F04FF5
:109D70002DED028BAA4C95B01E2204F573600021D4
:109D80005BF09CF894F8503F1BB194F8513F84F875
:109D9000303F94F8523F1BB194F8533F84F8353F5D
:109DA00094F8543F1BB194F8553F84F83A3F94F827
:109DB000563F1BB194F8573F84F83F3F94F8583F03
:109DC0001BB194F8593F84F8443F94F85A3F1BB1B3
:109DD00094F85B3F84F8493F94F8623F0393013B5A
:109DE0005FB2DBB202937B1C00F0B0808D4B8E4ED5
:109DF00053F83720019203EBC7034FF0000A1B7999
:109E000008EE103AB146D046D34699F8005039468C
:109E1000284645B340F024FE034628461D4613B3AA
:109E20003FF0BCF80BF107031321DBB220B14FF078
:109E3000000C837180F807C03FF048FB99F80000E0
:109E400040F044FE08F1010389F802805FFA83F8CC
:109E50004FF0070389F804304FF0010389F801003F
:109E6000AA4689F803300BF1010BBBF1060F09F18B
:109E70000509CAD118EE100AFFF738FE6B4A6C4B81
:109E800051680B4043F44033536017B9BAF1000FE7
:109E90000BD1684D4820FFF729FE2846022157F0D4
:109EA000C5FAAB6843F00103AB606049614B4A6897
:109EB000B4F85C0F42F400024A605A6822F48052FF
:109EC0005A609A6B22F4401242F480129A63DA6864
:109ED00042F46002DA609D6B85F44012C2F30152D5
:109EE00002EB82021F2101FA02FC25EA0C054FF069
:109EF000110C0CFA02F22A439A63DA6842F4E01277
:109F0000DA609D6BC5F30152C2F10402D2B202EBDA
:109F1000820291404FF0100C25EA01050CFA02F282
:109F20002A439A63E8B1B4F85E2FC4F8680FAAB167
:109F3000B4F8603FC4F86C2F6BB13F499B1A91FB9A
:109F4000F3F3C4F8703FBAF1000F0DD115B0BDECBA
:109F5000028BBDE8F08F394B1B88EEE7384B1A882F
:109F6000E6E7384B1888DEE7019D4146284657F062
:109F70005DFA06F11E0E012117E0EB6823EA0B03E0
:109F80001A43EA604B1E03EB83031F22062902FAE1
:109F900003F90CFA03F329D86A6B22EA0902134386
:109FA00001466B63053676454ED0F378481CC0B247
:109FB000002BF7D096F801C03379ACF10A0202EB1E
:109FC00042024FF0070A0CEB4C09BCF1090F0AFAE8
:109FD00002FB03FA02F20AFA09FACED82A6903FA56
:109FE00009F322EA0A0213432B61CBE7CA1FA1F14E
:109FF0000D0302EB82024FF01F0A03EB83030C29CF
:10A000000AFA02F90AFA03F10CFA02F200F2848069
:10A010002B6B23EA09031A4301462A63C2E700BFF8
:10A02000F0300020005306082040002000230140AB
:10A03000E030FCFF00200140803801002E7AFF1F35
:10A040002C7AFF1F2A7AFF1F019A0299936843F422
:10A0500000739360936843F48073936093683C4407
:10A0600043F0010393601746022094F9632F3FF0F9
:10A0700095FD044600283FF469AF466830463FF03E
:10A0800007FE2A4A431E242101FB032393F84C5068
:10A09000002D7FF45BAF039983F84D10062283F8FF
:10A0A0004C2000283FF452AF30463FF0F1FD51F014
:10A0B0004FFC60680CF028FB05A80CF0E7FAB8F13B
:10A0C000010F8CBF4FF480630023A2680B933B46C3
:10A0D000174801974C3305924FF400674FF4807294
:10A0E000069307904FF4003360680A9505A94FF472
:10A0F0000056CDE90E23CDE90C76CDE908580CF0D9
:10A10000D7FA6268019F136843F001031360BB68CC
:10A1100043F08043BB6019E7EA6A0CFA03F322EAD2
:10A12000010213430146EB623CE700BF88010020B7
:10A13000644000202DE9F84F2E4F00EB800407EB20
:10A14000C404D4F8846F2EB1054694F8990F00F03A
:10A15000FF0820B14FF000084046BDE8F88F89465F
:10A160009A46934637F02EFD4FEA49010123C9B2C2
:10A1700084F89A1F84F89BBF84F89D3F84F89E8FD3
:10A1800084F89C3F84F8993F84F8988FB288C4F88B
:10A19000A0AF91058146C4F8A4AF1DD43388DA0579
:10A1A00010D442F20F7405E037F00CFDA0EB090368
:10A1B000A34215DC33889B05F6D433889BB243F465
:10A1C00080733380B3889BB243F440734FF001082F
:10A1D000B3804046BDE8F88F98464046BDE8F88F0A
:10A1E000B7F8F83F01339BB22846A7F8F83F56F07E
:10A1F00045FDB1E7F03000200128B5EEC00A10D0CF
:10A20000F1EE10FA0BDD9FED177ADFED177AE0EE35
:10A21000077AFCEEE77A17EE903A98B27047002082
:10A220007047F1EE10FA0BDD9FED107ADFED107A3A
:10A23000E0EE077AFCEEE77A17EE903A98B27047B4
:10A24000EDD5F7EE007A30EE270A9FED0A7ADFEDC2
:10A250000A7AE0EE077AFCEEE77A17EE903A98B2C7
:10A26000704700BF00E0F9440000404200C079445C
:10A270000000834400C079C400E08244F8B5454E34
:10A2800096F8FA4F04EB840306EB8303A50093F8DA
:10A29000FC2F032A6ED8DFE802F058271E0225445F
:10A2A0003D4AAD005059002870D13C4B13F8AC3CEE
:10A2B0009C425FD0013404F003018B4286F8FA1F00
:10A2C00058D001EB810406EB8403022142F82400FC
:10A2D00083F8FC1FF8BD2B192F499B00CA586AB19F
:10A2E000013ACA500020F8BD2B192B499B00CA58CF
:10A2F000002AF5D13344022283F8FC2F254401EBD8
:10A300008502AD00137A013BDBB21372A3BB234B72
:10A31000234A13F8AC7CD2F87022731941F204007E
:10A320000134185804F00304032683F8FC6FBC4280
:10A3300002F1FF330344B3FBF2F048511AD09A42C2
:10A3400018D8013848510120F8BD40F073FA88B19F
:10A35000134B1149D3F870222C4406EB84030125DA
:10A3600083F8FC5F02F51C530F33B3FBF2F341F8A3
:10A370002430F8BD0120F8BD094BD3F8702201202C
:10A3800002F2E733B3FBF2F34B51F8BD0138505101
:10A390000020F8BDF0300020F0400020E84100200F
:10A3A000880100202DE9F84F3249DFF8D4B091F848
:10A3B000311E01240229074619461046CBF82C40CD
:10A3C0004FF000022C4C1D4618BF7F02FDF718FE0F
:10A3D0002A4B63626B02A362E36A40F2FF5943F0C7
:10A3E00093034FF400704FF48A62E3620121C4F8D2
:10A3F0003890A0601020E26050F060FA012D40F229
:10A4000051434E46C4F83890CA4640F252488EBF77
:10A410004FF0120998464FF011090A25C4F838A0E8
:10A420000121A7604846C4F80C8050F047FA034663
:10A430004FF0000C40F2774201213720A6632BB980
:10A4400000231846CBF82830BDE8F88FA663C4F87F
:10A4500008C0E26050F032FA013DA6630028EFD058
:10A4600015F0FF05DAD10346CBF82C50CBF8283095
:10A47000BDE8F88FF0300020002C014000E1F50528
:10A48000F81F00202DE9F843DFF8788098F89C58F1
:10A49000042D0446894617461E4608D0082D02D0D2
:10A4A0000020BDE8F883FEF77FFC0228F8D10123E5
:10A4B0004A4620460021FFF775FF68B1FEF704FD0C
:10A4C000D8F88448002CEBD00022D8F88838D8F887
:10A4D0007C181046A047E3E7094BC8F87898D3F8F2
:10A4E0008020C8F87C480523C8F88478C8F88868B4
:10A4F000C8F88C2888F89C380120BDE8F88300BF94
:10A50000F0300020F81F00202DE9F84F2F49DFF828
:10A51000C49091F8311E1E4602292D4B07464FF07C
:10A52000010418BF4702012E40F259481C6398BF2E
:10A530004FF48B683B469346474640F2FF55B04682
:10A540008CBF4FF0190A4FF0180A0A241E4640F239
:10A55000FF53C9F838300121C9F808605046C9F8DE
:10A560000C7050F0ABF903464FF0000C40F277420C
:10A5700001213720C9F83850A3B958464146012275
:10A58000FDF73EFD4646134A134B53627602966230
:10A59000D36A43F09103D3620D4B002108469962C0
:10A5A000BDE8F88FC9F83850C9F808C0C9F80C20C0
:10A5B00050F084F9013CC9F838500028DDD014F07F
:10A5C000FF04C4D1024B1C63BDE8F88FF0300020BB
:10A5D000F81F0020002C014000E1F5052DE9F047AF
:10A5E0003C4C82B005460E461746984694F89C08A7
:10A5F00004280DD0082807D1D4F89438AB4207D0EE
:10A60000FEF7D2FB0228F1D0012002B0BDE8F087AE
:10A61000DFF8C8A0C4F87868DAF8289EC4F87C5837
:10A62000C9F34F210F294FEA592223D8D4F898387B
:10A630000193FBB194F86A09E0B1B9F5005F13D05A
:10A64000254831464FF40072484459F0DDFC09F5C5
:10A650000072C2F34F211029CAF8282E4FEA522265
:10A6600002D0019B012B25D192B2013A1A4EAD1AAC
:10A670000B4600E00123324628460626012500212C
:10A68000C4F88478C4F8888884F8805884F89C6872
:10A69000FFF73AFF0028B8D0FEF716FCD4F884681C
:10A6A000AEB12846D4F88838D4F87C180022B047D8
:10A6B0000320AAE7D4F89428013B01320421C4F80E
:10A6C0009838C4F8942884F89C1802209DE7032049
:10A6D0009BE700BFF81F0020F05D0020F030002055
:10A6E00003681A78012A01D00020704793F90430DA
:10A6F000044A03EB830302EBC30393F8990FC0B240
:10A70000704700BFF030002010B50C4C54F8A83C46
:10A710001B78022B10D154F8A00C3FF07DF854F8B0
:10A72000A00C08B12323C38001213EF0CFFE0448D2
:10A730003FF0EAFC24F8A40C10BD00BFE841002063
:10A740008096980030B583B00D46012301460DF187
:10A750000702044607483FF029FF9DF8072035EA25
:10A76000020304D003482A4321463FF0B5FF03B05B
:10A7700030BD00BF4041002038B505460A460C46B2
:10A78000064829463FF0ECFD45F0800103483FF0C4
:10A79000E5FC231A5842584138BD00BF4041002013
:10A7A000F0B53B4C54F8A85C2B78022B95B018D030
:10A7B000012B02D0002015B0F0BD95F904506B1CA0
:10A7C000F8D0022DF6DC0091134614F8A41C0246C2
:10A7D000284656F0F5FB0028ECD0284656F0A0FCA1
:10A7E000E9E72B6A002BE5D10DF10F0C8DF80F0076
:10A7F000002601200027CDE90833CDE90A12CDE972
:10A800000E6705938DF81C300D9310931293CDF8BD
:10A8100010C006908DF830008DF84400EFF31180E1
:10A82000102383F3128854F8A83C1B6A13B3069BC9
:10A8300004AE32461BB1D3691432002BFBD12B6A14
:10A8400013B3996839B993420AD0196829B15B6882
:10A8500099680029F7D01433F3E70E4AC3E90026BC
:10A86000C0B280F3118854F8A82C136A002BFCD1D5
:10A870000120A0E704ABC0B22B6280F31188A4F1E1
:10A88000A80052F0B9FBEEE7024A1A60FFDE00BFF3
:10A89000E84100204041002070B503681D78022D7A
:10A8A00013D0012D01D0002070BD044693F904009F
:10A8B0000A4B421C83F82450F5D00228F3DC0A46E8
:10A8C00024332179BDE8704034E41B6A002BEAD1BF
:10A8D00001223FF045FD012070BD00BFE84100208E
:10A8E00013B5354C0023626B8DF80730137803F0F5
:10A8F000FD01012905D194F8381011B90C2184F813
:10A900003810022B1CD0032B29D001220B212B48FD
:10A910004DF0A6FE042037F081F9284801230DF1FF
:10A92000070200214DF0BEFE002832D09DF807300E
:10A93000482B2ED1224BA362224BE36202B010BD02
:10A94000E06B3EF069FFE06B08B13623C380012164
:10A950003EF0BCFD1C483FF0D7FB2087D5E7D4F87C
:10A96000E434506846F2A8111961002380F8883059
:10A97000122237214DF048FE636B0D2258682421C6
:10A980004DF042FE636B302258686A214DF03CFE68
:10A99000BBE7636B1A78022A03D0032A06D0002093
:10A9A000CCE7E06B3FF0E6F90020C7E758681022DB
:10A9B00037214DF029FEF2E7E84100201C4200203B
:10A9C00003870508858705088096980010B58CB028
:10A9D00000234CF20502044601A9CDE90633CDE976
:10A9E0000833ADF800208DF8023003220B930123C9
:10A9F000CDE903128DF814308DF82830CDF808D049
:10AA00003FF04AFD204602A93FF0D4F920463FF02E
:10AA100043FD9DF806000CB010BD00BF08480023A0
:10AA200002461178022902F1060204D00133062BF6
:10AA3000F7D10020704703EB430300EB430070475E
:10AA40000C4900202DE9F041674C82B0242204F229
:10AA5000247000215AF032FA94F84D770023C4F89C
:10AA60004837002F3CD1614ED6F8E83063B39B6A7B
:10AA700053B35F489847836833B303885D48013B0D
:10AA80009BB28446064600253178032906F1060666
:10AA90001ED00135062DF7D100220178022900F1E0
:10AAA000060000F094800132062AF6D1D4F8481747
:10AAB000052909D0481C02FB01C2C4F8480702203E
:10AAC0000021938010705180384602B0BDE8F081BB
:10AAD000062303FB0545B5F82637013B9BB2DBE7B0
:10AAE00094F84C0704F25473C4F8503710B93F4E31
:10AAF0000027B9E73EF052FAC4F85C0718B1837931
:10AB00000BB1422BF3D13C4839463FF0C5FA8046A1
:10AB10000028ECD0D4F85037354A9868C3F8942010
:10AB200008B12223C38009213EF0D0FCD4F850376D
:10AB30002E4E98683EF070FE3048D4F850573FF0E3
:10AB4000E3FA0123A8803220C6F8085186F80C31B8
:10AB500037F064F80423D4F8500700250DEB030206
:10AB60009F2101953FF0A8FB9DF805509DF804300A
:10AB70009DF806102D0245EA03450D43294606F1CE
:10AB8000E8004DF095F860BB2846FDF71DFD40BB81
:10AB90009DF806509DF805309DF807202D0245EAE6
:10ABA0000345174B15439D4215D0C6E93C00A6F856
:10ABB000EC00A6F8F8002846FDF706FD074680B928
:10ABC00094F84C073EF0EAF93FF0D4F84CE7062140
:10ABD00001FB02C273E706F1E8004DF021F80028FE
:10ABE000E9D0474640E700BFE8410020F0300020B0
:10ABF000D83100200C4900203C490020404B4C003B
:10AC000021AAEF00F0B40D6800240CE0BCF1050FA0
:10AC100018D8A0F137030A2B14D104EB840415F8DB
:10AC2000010B03EB4404A0F13003DEB2092EA0F1C6
:10AC30006107A0F1410CF0D9052FE7D8A0F1570327
:10AC40000A2BEAD00D601460F0BC70472DE9F0418A
:10AC5000C54BC64EC64DC74C0822C3F88820336B7F
:10AC600082B043F00103336307464FF4C0522846D5
:10AC700040F2023388466946CDE900230BF0E6FE38
:10AC80006B6AC4F8D08D23F470436B626B6AC4F8AE
:10AC9000D87D43F420436B626B6AB749C4F8D41D76
:10ACA00023F470236B626B6AB448C4F8EC0743F476
:10ACB00020236B62736CB249C4F8F01743F48043ED
:10ACC0007364736BAF48B049C4F8FC0743F080036A
:10ACD00002257363AD4F84F8F457AD4EAD4DC4F803
:10ACE00040184FF0A043C4F8F837AB4AC4F80878CE
:10ACF00003F53463A1F5D071C4F84458C4F80C6866
:10AD0000C4F84838C4F810180123DFF8BCC2C4F8EE
:10AD100004C807F51077A5F5E465A6F5A066A1F5CA
:10AD20008C61C4F84C78C4F80058C4F8B86884F84A
:10AD3000F73705F5A075536106F5B076C4F87C18B1
:10AD400084F8FE381946954B954AC4F88458A7F5FF
:10AD5000BC67A035C4F89068924EC4F88C78C4F8EB
:10AD6000943807F5D45703F56953C4F898584FF051
:10AD700050250020DFF854E2C4F8BC28ACF5687C0C
:10AD800002F5A042C4F8C078C4F8C46807F5A0472B
:10AD900006F5A046C4F8C838C4F8CC58A3F5485303
:10ADA00004F2EC75C4F8D028C4F8D868C4F8F838B0
:10ADB000C4F880E8C4F888C80246C4F8D4782B46A2
:10ADC00084F80009402683F81C21A3F822210132CF
:10ADD000042AC3E9496083F81D1183F81F01C3F8F1
:10ADE000300103F12803EED1002211462B4640200A
:10ADF00083F87423A3F87A230132042AC3E9DF011C
:10AE000083F8751383F87713C3F8881303F12803C5
:10AE1000EED14FF0A04364489A6822F001029A6094
:10AE2000DA6842F04002DA600AF0CEFE94F8F537B4
:10AE30000022212161F317420BB142F4801294F8F1
:10AE4000EF17D4F8F83701299A6300F0E480DA6844
:10AE5000D4F8F868D4F8FC07C2F3076121F0600168
:10AE600041F0400161F31F620021DA603160026845
:10AE700061F3CC22026094F8F727012A00F0B88031
:10AE800010214A480BF0F2F948480BF0D5F9D4F8F4
:10AE9000FC0794F8ED3700224FF0FF310261426168
:10AEA0008161C26153B305F11407414E114607EBAE
:10AEB00083074FEA830C4FF0FF0E56F8042F1368F8
:10AEC000002BACBF00234FF09043B74213601161D9
:10AED000C2F808E0F1D105F1500336496344002778
:10AEE000FF2651F8042F1568002DACBF00254FF048
:10AEF00090459942156017619660F2D1036994F804
:10AF0000EF1743F480730129036161D0D4F8F82767
:10AF100029480023936100294FF0FF336FF08041EF
:10AF200051615360516114BF00231023906143F4B9
:10AF300070139069D4F8D41D43F4605343F00803B0
:10AF4000034393619368096843F001039360884762
:10AF50001A4B1B4ADA6068461A4B0093FEF788FCCE
:10AF600002B0BDE8F08100BF00E100E0003802401F
:10AF700000000240E8410020FC030020080401001A
:10AF80004000400100080050000B00502009005014
:10AF900040090050200B0050003C0140C00500500B
:10AFA0000010005000300050E0490020D44900203B
:10AFB000E8490020244A00200008008000ED00E05D
:10AFC0000005FA0543020001000900502005005069
:10AFD000D4F8F827144B03636FF08041134D00231E
:10AFE0004FF0FF30936151615060516195619EE770
:10AFF00001680F4A0F4E41F0030101608021596240
:10B000009E62C3F80421E022C3F80821C0F2400286
:10B01000C3F80C2134E79A6822F03E0141F02A017E
:10B0200061F307029A6012E70301810000080080C3
:10B03000A00040008000200010B51A4C94F8E10DEB
:10B04000C0B9194B83F8C908C3F8CC0894F8E43D9B
:10B05000012B05D0022B21D0D4F8E83D1BB910BD3F
:10B06000124BC4F8E83D12495B68BDE81040A1F1FD
:10B070000C0018473DF092FF94F8E32D0A49003A7E
:10B0800018BF012281F8C928C1F8CC080028DDD0FA
:10B090002122C28020213EF019FAD7E7054BC4F8DF
:10B0A000E83DE0E7E8410020F81F00203C040020D4
:10B0B000D44F00201804002099B10A6B824216D99F
:10B0C000154BD3F82C2E914221D34C3991421ED3EB
:10B0D0000B6B9842F9D38B6B9842F6D80B46184607
:10B0E00070470D4BD3F82C1E0A6B904212D30B689D
:10B0F0000BB9F4E70A6B90420B4602D38A6B90427D
:10B10000EDD951F84C3F002BF4D11846704700237D
:10B11000184670470A46D8E7E84100202DE9F04775
:10B12000CC0143D10346224A43F8082B4FF0FF32AB
:10B130004260022418467E26DFF87880D8F8309ED8
:10B140002644013E051D49466FF070474FF0010A45
:10B1500008E0A3421CD0631C45F8043C321B1C468B
:10B160000435CAB10B6BA34202D88B6BA34204D245
:10B170002046FFF7A1FF014690B10A794B6B002AE8
:10B18000E7D1A34204D0E6D245F8042C631CE5E7DE
:10B1900045F8047C631CE1E7C8F8301EBDE8F08781
:10B1A00045F804AC321B631C4946D8E78026C3E748
:10B1B000F8FFFF0FE841002070B4447941BB0368F9
:10B1C0004FF400524FF40076202502213CBB1A8C2C
:10B1D00022F001021204120C1A841A8B188C22F02D
:10B1E000F30280B2120420F00A00120C014342F074
:10B1F000010241F001011A8319841A8B22F00C021A
:10B200001204120C1A831A8B92B270BC1A83704704
:10B2100000220368164615461146002CD7D0042C90
:10B2200021D0082C38D0198C21F480510904090C44
:10B2300019849C8B1D8C45F6FF7040F6FF41284019
:10B240002140024342F4805241F4807199831A8470
:10B250009A8B22F440621204120C9A839A8B92B257
:10B2600070BC9A8370471A8C22F010021204120CE0
:10B270001A84188B198C89B240F6FF4221F0A00184
:10B2800002400D4342F4807245F010051A831D847C
:10B290001A8B22F44062B3E71A8C22F480721204F3
:10B2A000120C1A84998B1A8C21F0F30192B20904C2
:10B2B00022F42062090C324342F4807241F0010111
:10B2C00099831A849A8B22F00C02C4E738B50E4D8C
:10B2D000044600680BF0BEFAD5F8B82420465208A0
:10B2E0004FF6FF7135F0F2FC20460021FFF764FFB6
:10B2F000064BC5F8243D05F6245120460022BDE842
:10B30000384035F061BC00BFF03000204DB101087D
:10B310002DE9F047154B054603F64464002093F9E8
:10B320003D8E84B06F1804F5287A06464FF0B609B2
:10B330002368ABB193F83830142B11D018F1020FF9
:10B3400001D043450CD1002269462046CDE9026672
:10B35000CDE90057ADF808908DF80D602EF010FB88
:10B36000E034A245E4D104B0BDE8F087E841002014
:10B37000B5EE400AF1EE10FA04D0F5EE400AF1EE17
:10B3800010FA07D1074B0849084A8260C0E900312A
:10B390000C301847064B0749044A8260C0E9003167
:10B3A000F6E700BFA5210508A1100508051005084E
:10B3B00061190508591005082DE9F04FA34FA44A5B
:10B3C000B7F80C16B7F80A36A24C2DED068B07EE2F
:10B3D000901A0AEE103A12F8133CDFED9FAAF8EE2D
:10B3E000679A07EE903A32F8123CF8EEE77AF2EEFE
:10B3F000046A0A2B87EEA67AB8BF0A2385B007F63F
:10B40000A848A4F1500604F2AC6B07EE903A32F86B
:10B41000103C88ED007A08EE103AF8EEE78AB8EEB4
:10B42000C88AB6EE009AF4EE488A29EE890AF1EE4F
:10B4300010FAC8BFB0EE688A12F8143CC8ED018A51
:10B44000B4EEC80AF1EE10FAD8BFB0EE408A082B6D
:10B45000A8BF08230022B1F57A7F38BF134680EEDB
:10B46000080AC7F8B82CC7F8B43C88ED028A57F030
:10B47000C3F9B7EE007AB4EE470AF1EE10FA48BF0E
:10B48000B0EE470AFDEEC07AB8EE4AAAF8EEE76AD7
:10B4900017EE905A44ED1F7ACAEE297A67EEA67A23
:10B4A00087EE276A89EEA67ADFED6C7A04ED1E6AD4
:10B4B000C7EE279A88EEA90A44ED1D9A57F01CFAA8
:10B4C0000228B8BF022088EE290A814644F8700C91
:10B4D00057F012FA2328A8BF2320B9F1230FA8BFE1
:10B4E0004FF02309484544F86C0CB8BF4846A0EB20
:10B4F0000902012D54ED1A7A9FED598A8246B8BF90
:10B5000001250132F5EE407AF1EE10FA2AD15549C3
:10B510009FED55AA002307EE903AF8EEE79ACDE9A1
:10B52000021269EEAA9A0193B0EE690A4BF058F93B
:10B53000F0EE408AB0EE690A4BF0DEF8A8EE880A19
:10B54000019B0299039A20EE0A0A68EE8A8A013367
:10B55000242B81ED000AC1ED018A01F10801DAD145
:10B56000DFED427A92FBF5F1002346E9053946F812
:10B57000081C46F80CAC46F8045C31460133482BF5
:10B58000A1EC018AFAD13A48D0F804C1D0F80801F8
:10B5900006F59073002101312429C3F800C05860DA
:10B5A00003F10803F7D106F515765E45AAD1DFF859
:10B5B000C890DFED308A44ED1A7A002508EB0500CB
:10B5C000CA460026D7F8B43C9E4200F1240430DA83
:10B5D00007EE906A98ED016AF8EEE76AD8ED027A14
:10B5E00036EE897A77EEC67A743067EE877A07EEA0
:10B5F000103AB8EEC77AB7F80A3687EE870A042100
:10B60000013600EE903A30EE060AF8EE600AAAEC37
:10B61000010A98ED001A84ED178AA6EEA81A84EDA7
:10B62000168A84ED158A84ED148A4BF0FFF92046C2
:10B63000C8E705F59075B5F5587F09F12009BDD12A
:10B6400005B0BDEC068BBDE8F08F00BFF800001020
:10B65000E0520020F0110010C3B8B23D000090424B
:10B66000000000008818001072F97F3FBC297E3F5F
:10B6700014520608CDCC4C3EB40D00102DE9F04F0D
:10B680002DED028BDFF8B881674CDFF8B8A19FED94
:10B69000678A85B008F10C090127FEB218F8010B82
:10B6A0003246592135F0E6FC0546002800F092802C
:10B6B000D0F800B0A0600123BBF1804F04F8283C13
:10B6C00000F093805A4B9B4500F08F800023584632
:10B6D00004F8273C4FF0D6FD07EE900AF8EE677AA3
:10B6E0004FF4807344ED087A00224FF4005158461D
:10B6F00044E9061244F8103C44F8082C4FF0C2FD0F
:10B70000AAFB0030C308012218F8010C44F80C3CD5
:10B7100004ED098A24F81C2C24F81A2C3DF03EFC78
:10B72000E06010B15923C671837119F8083C012BF0
:10B7300077D0022B0CBF422102216A7A3DF0F4FC43
:10B7400028684FF09FFD01462846FEF7B3F814F82D
:10B75000273C002B57D02146364B41F8043D0022B0
:10B76000284635F031FA19F8073C2868002B4FF0CD
:10B77000010B14BF00230223CDF808B0ADF806304A
:10B7800004236A79ADF804200DEB0301ADF80C3009
:10B790000AF056FE54F8103CA2682749126891F846
:10B7A0009818013E013B9BB2F6B213854FF0FF356E
:10B7B00000234FF40050B142D562A2F814B044E91E
:10B7C000060324F81CBC24F81ABC44F8083C01D138
:10B7D00034F0A4FF0137052F04F138047FF45DAF86
:10B7E00005B0BDEC028BBDE8F08F0123584604F88C
:10B7F000273C4FF047FD07EE900AF8EE677A0123E9
:10B8000044ED087A70E70D48DFF83CC044F8040CBA
:10B810002246211F28466360C4F800C035F0D4F9E1
:10B82000A1E7222189E700BFD01900100000000025
:10B83000000C0040E9FD0308F01100101DFF030893
:10B84000D45200201F85EB51410704080A480B4BD6
:10B85000416910B40A4C43608A1E2231038C1B01DB
:10B86000A4FB03C3DB08A3F5B06322F8023F9142B7
:10B87000F4D15DF8044B7047E052002011810208BA
:10B88000CDCCCCCC70B5084C251D2E4614F8010B40
:10B890002EF092FA28B1037905F8013BB442F5D1B4
:10B8A00070BDFF23F8E700BF145300202DE9F047D7
:10B8B0001D4F012607F10805B2464FF03D094FF034
:10B8C000000817F8010B3DF069FB044690B180F8C1
:10B8D0000690C671FB7803F07F02012A18D013F09E
:10B8E000800F20460DD185F804803DF08FFF85F84C
:10B8F00005802C600136052E05F10805E1D1BDE873
:10B90000F08785F804A03DF087FF85F805A0F0E7F3
:10B910001B0605D4012120463DF0D8FDFB78DEE76B
:10B920003DF07AFFF6E700BF1C5300202DE9F04FF1
:10B930000C68BB4D013BAC4283B09BB200F07A81F6
:10B94000A5F58065AC4200F0758105F58045AC42F7
:10B950005BD005F58065AC4257D005F58065AC42FB
:10B9600053D0B04E2588D6F8B8747F08B7FBF2F6EE
:10B97000013EB6B2AAB2B4F1804F0AD0AA4DAC4291
:10B9800007D005F58065AC4203D005F58065AC4273
:10B9900002D122F0700292B2A44DAC4200F02B8191
:10B9A00005F58065AC4200F0268122F4407205F571
:10B9B0006C4592B2AC422280E362268540F044811D
:10B9C000002323860125A5820B7A4A7913F002060B
:10B9D00000F015810027DB0003F00803B84601974B
:10B9E0003946BC46BE463D464FF480664FF0400A9D
:10B9F0004FF0040B0C2A12D8DFE802F0CA11111123
:10BA00009A111111221111116A00864E2588D6F85B
:10BA1000B864B6FBF2F6013EB6B2AAB2ABE70C2AA6
:10BA20003ED8DFE812F0DF003D003D003D00AC00F5
:10BA30003D003D003D003D003D003D003D007C00DF
:10BA4000218C7B4F21F480710904090C2184218C05
:10BA5000B4F80490A58B89B225F0730521F4007128
:10BA60002D044CEA01012D0CBC4241EA0E211FFAC3
:10BA700089F945F0600500F0EC8007F58067BC426D
:10BA800000F0E7800023A4F80490A583E3632184F9
:10BA9000A38B23F008031B041B0C43F00803A383B0
:10BAA000B4F844306FEA43436FEA53439BB2A4F8BF
:10BAB0004430238821469BB243F0010321F8343BF4
:10BAC00000238D18C0E900548B5003B0BDE8F08FFF
:10BAD000238C574923F480531B041B0C2384238C91
:10BAE000B4F804C0A68B9BB226F4E64623F40053B8
:10BAF000360448EA0305360C8C4245EA0E3346F418
:10BB0000C0461FFA8CF500F0B08001F580618C42D0
:10BB100000F0AB800021A580A68321642384A38B41
:10BB200023F400631B041B0C43F40063A383B7E7F7
:10BB3000258C3F4E25F010052D042D0C2584B4F8DE
:10BB400020C0A788258B1FFA8CFC25F4E6452CF035
:10BB5000200C2D0441EA0C012D0CB44241EA0E11D7
:10BB6000BFB245F4C04500F08F8006F58066B44250
:10BB700000F08A800023A7802583A3632184238B80
:10BB800023F400631B041B0C43F40063238387E747
:10BB9000218C274F21F001010904090C2184268CF6
:10BBA000B4F80480B4F8189026F0020629F073095E
:10BBB00036044FEA09494EEA0501360C4FEA1949A5
:10BBC000BC4241EA06011FFA88F849F0600950D0EA
:10BBD000134DAC424DD00023A4F80480A4F8189073
:10BBE00063632184238B23F008031B041B0C43F0A5
:10BBF0000803238354E72280E3622685E2E65B00A4
:10BC00004FF4806103F0020E0191B2463346B34611
:10BC10004FF480474FF4805810214FF4807CE9E6C0
:10BC200000040140F03000200004004000100040FB
:10BC3000000001401B4E2588D6F8B864B6FBF2F62A
:10BC4000013EB6B2AAB2A4E6174B9C423FF4B8AE8E
:10BC5000B8E621F4006141EA032323F4806129F46A
:10BC60004059314349EA08090CE725F480453D4332
:10BC700050E74FF6F3760E4028F44078334348EA15
:10BC80000C0843EA0B01A6E721F0800141EA031307
:10BC900023F04001019B27F4406741EA0A011F435A
:10BCA00068E700BFF030002000040140354BB3F8D6
:10BCB0000A3607EE103A2DE9F041BAEEEF7A2DED93
:10BCC000048BB4EEC70AF1EE10FADFED2F8AB0EE66
:10BCD000408AF0EE607AF0EE419A06DDF4EEC70A93
:10BCE000F1EE10FA45D5B0EE478AB5EEC08AF1EE16
:10BCF00010FA43DDF5EEC07AF1EE10FA3EDD27EEE4
:10BD0000887A67EEE77AE8EE087A87EE279A1F4E80
:10BD10001F4FDFF8848000F10C0400F19C0544E91A
:10BD2000028744F80C6CB5EEC08AF1EE10FA19DD0A
:10BD3000B5EEC09AF1EE10FA14DD164B44F8083C4B
:10BD4000C4ED038AC4ED028AC4ED018AC4ED008A01
:10BD50000421B0EE491AF0EE690AB0EE480A204616
:10BD60004AF064FE3034AC42D9D1BDEC048BBDE85E
:10BD7000F081B0EE688AB0EE689AC8E79FED029A4B
:10BD8000C5E700BFF800001000000000A52105086D
:10BD90000510050859100508A11005080A4491422C
:10BDA00015D030B441F2210511F8014B082380EA87
:10BDB000042010F4004F85EA40040ABF4000A0B2FE
:10BDC00080B2013BF5D18A42EED130BC704770475A
:10BDD0002DE9F041204E214F96F8673087F8903ECC
:10BDE000643607F6946500244FF0050816F8010B39
:10BDF00020BB28600134032C05F10405F6D197F827
:10BE0000901ED7F8940EC94301F001013DF00AFDE0
:10BE100097F8901ED7F8980E81F00201C1F3400107
:10BE20003DF000FD97F8901ED7F89C0E81F00401BC
:10BE3000BDE8F041C1F380013DF0F4BC3DF0AEF847
:10BE4000013401212860E3B210B180F80680C3718B
:10BE500028683DF03BFBCEE7E0520020F0300020A8
:10BE6000F8B5244C244EB4F86C50A6F8A05EE5B9A1
:10BE700094F868003DF092F894F86920C6F8A40E92
:10BE8000003A18BF012286F8A22E48B194F86A1031
:10BE90002D22002914BF11210121C2803DF016FB83
:10BEA000BDE8F840002035F08BBF94F868700022A0
:10BEB00038462D2135F0DEF8064638463DF06EF85E
:10BEC000B8B1B6B10D4F2D22F864C280717AFDF77A
:10BED0002BFE0B49B1FBF5F13046C1F34F0289B29D
:10BEE000A4F86E50FCF7ECF8BA6B0023136087F8E7
:10BEF0004930F8BDE0520020F0300020F81F00204B
:10BF000040420F002DE9F84F244C94F87C3084F81F
:10BF1000703004F17307002690345FFA86FB0BF152
:10BF200001085FFA88F8012117F8010F42460E4414
:10BF30008A4635F09FF84FF00009054638B3387847
:10BF400004F80E9C04F80D9C04F80FBC04F810AC27
:10BF500044F8045C3DF022F818B180F806A080F89F
:10BF60000780697AFDF7E0FD0D492846FDF7A2FC40
:10BF70000C4B23600C4B221D21462846C4E9013995
:10BF800034F022FE697928684A462CF033FA082EEC
:10BF900004F11C04C1D1BDE8F88F00BFE0520020BD
:10BFA00040420F002D840308DD2B030870B52B4C95
:10BFB0002B4B94F8A801C4F8A03100220221C4E957
:10BFC0005822C4F86821C4F89C21A4F8A42135F0B3
:10BFD00051F8002834D0234B0668054603F1600170
:10BFE0005A7C12B15A6896422BD018338B42F7D143
:10BFF000002394F8A801C4F88C5084F880303CF0F9
:10C00000CDFF08B10223C380697AFDF78DFD284674
:10C010001549FDF74FFC154A1549C4F89010002644
:10C02000111F2846134BC4F89430C4F8986034F0BC
:10C03000CBFD697928683246BDE870402CF0DAB94A
:10C0400070BD30464FF01EF9328D0B4992B2531C31
:10C05000B0FBF3F081F8D802CAE700BFE05200203D
:10C0600000FFFF002801001040420F007453002021
:10C07000052C0308A12D0308880100202DE9F04FAD
:10C08000C14D95F81E71032F85B08346A7F10503B6
:10C090002DD8DFF800830124032B88F88C4933D98D
:10C0A0000023584688F8FC38FCF718FBB74EC6F852
:10C0B000CC05D6F8CC35002B00F09580002201216C
:10C0C00083F824B083F8251083F826209A62BBF108
:10C0D000000F09D02C33AE4A03EB0B0012F8011B02
:10C0E00003F8011B9842F9D105B0BDE8F08FDAB230
:10C0F000032ACED9A74A0021032B82F88C196DD9C7
:10C10000A24E82F8FC18D4E795F8273188F8FC484D
:10C11000012B00F08F80022B71D09F4BDFF8A4C25F
:10C1200003931C46BCE80F000FC4BCE80F000FC40B
:10C1300095F826E1DCF80020944E2260BEF1000262
:10C1400018BF0122954B86F8E425072FC8F8DC3884
:10C1500000F2FB80042F00F23B81914BDFF86892E4
:10C160000093002402965FFA84FA0AF10107FFB2F5
:10C17000A3453A464FF0030104F1010429DD00987C
:10C1800010F8013B00901846019334F073FF019BB7
:10C1900006461846002E00F0DF803CF0FFFE034606
:10C1A00051463046C9F814301BB14FF003029A7162
:10C1B000DF71337A95F81E214FF082FD002800F0E0
:10C1C000CB804FF00103042C89F8113009F11809D4
:10C1D000C9D1DDE90263C6F8CC356AE701236B4EAD
:10C1E00082F8FC3865E76F4D6F4C0FCD0FC40FCD53
:10C1F0000FC42B6844F82039C6F8CC4574E795F88D
:10C200002631002B89D0082F14D1DFF8B8C15F4E3A
:10C21000BCE80F0008F6CC0703970FC7BCE80F0077
:10C220000FC7DCF800205D4B3A6086F8E445C8F89B
:10C23000DC388DE0DFF894C15C4C95F82651534E04
:10C24000C8F800B9BCE80F000FC4BCE80F000FC469
:10C2500000216D1A564ADCF8003044F8503B18BFF4
:10C26000012586F8E455154602F5F0704FF44C723E
:10C2700085F8DC7185F8AA110F4658F01FFE484B6F
:10C2800006F13009CDE9003BBB46D8F800395B45E3
:10C2900054DD009B13F8015B0093284634F070FFD7
:10C2A000824628463CF07AFE9AF80870404B96F891
:10C2B000E41507F0010A0AF1010A054683F8A9A16D
:10C2C00009B187F00107002D4FD0A97991B142291A
:10C2D00010D0384AC8F8B428374A384BC8F8B028C4
:10C2E000334AC8F8AC38012382F8AA31DDF804B02B
:10C2F000002370E728463DF0A7FA4FEA4A110BF1F8
:10C30000010B41F009014FF0030361616060E560DA
:10C31000277485F807B0AB7128463DF0D7F8FB07C6
:10C3200028460FD53DF072FAE368C9F81430BBF126
:10C33000040F04F1200409F11809A6D1DDF804B0B6
:10C340001A4B48E73DF068FAEEE7082F7FF405AF97
:10C350001B4BC8F8043900E7174B164AC8F8E038F9
:10C36000029EC8F8E428002335E728463DF06CFA21
:10C370004FEA4A1A4AF009010BF1010B6161606052
:10C38000E5602774C8E700BFF0300020F800001017
:10C3900010320020F0110010BC1A0010859705081B
:10C3A00019320020205306088C5400208C1A0010EB
:10C3B000E052002091FA030895FA030899FA03085D
:10C3C0009D89040844530608280100106853060894
:10C3D00095F82531064AC8F80429012B05D0022B0F
:10C3E00006BFBEFA8EF35B09002388F80839B4E66D
:10C3F000CD890408F8B56E4F97F8270597F82855AA
:10C400003CF0CCFD60B12F23C380202104463DF0D9
:10C410005DF80A2035F082F920463DF00BFA18B994
:10C42000D7F83035DA0000D5F8BD013D092DFBD82D
:10C4300097F82645D4B9402030F010F80028F3D002
:10C4400090F9043017F8031C092BC8BF143B3B4478
:10C450000A2993F8344500F09D8093F8403597F809
:10C460001A25002A08BF1C46002CDDD020463CF0CF
:10C4700095FD0546002800F085802F23C38001210B
:10C480003DF024F80121084634F040F82B68AA88D2
:10C490001A833C2035F0C2FB0021012034F036F82D
:10C4A00097F82835002B4CD0424C00261FE02B6813
:10C4B000AA885A8335F032F994F8901ED4F8940E75
:10C4C00001F001013DF0AEF994F8901ED4F89C0EF5
:10C4D000C1F380013DF0A6F92B68AA881A83782061
:10C4E00035F01CF997F8283501369E4229DA94F880
:10C4F000901ED4F8940EC94301F001013DF092F969
:10C5000094F8901ED4F89C0E81F00401C1F38001D0
:10C510003DF088F97820002DC9D1782035F0FEF85B
:10C5200094F8901ED4F8940E01F001013DF07AF9D0
:10C5300094F8901ED4F89C0EC1F380013DF072F97E
:10C54000CDE797F82635ABB997F82735002B7FF460
:10C550006BAF97F82935012B7FF466AFD7F83035EC
:10C5600013F080537FF460AF87F82835BDE8F840BA
:10C570004BF0C4B8322035F051FB284600213CF086
:10C58000A5FFE1E701213CF0A1FF0121084633F0BE
:10C59000BDFF7EE7D7F858355B057FF545AF10F056
:10C5A000BBF900287FF440AF002C7FF45FAF3BE77E
:10C5B000E0520020F030002048400822430010F0F4
:10C5C000800F08BF400083F0D50314BFD8B2C0B2BB
:10C5D000013AF3D1704700BF30B405688D424FF087
:10C5E000000211D011F8013B08245A40530012F008
:10C5F000800F08BF520083F0D50314BFDAB2D2B265
:10C60000013CF3D18D42EDD16B1C03602A7030BC2C
:10C61000704700BF70B4344890F85C35A3F1300126
:10C62000092957D800F25C54224600F26B5012F8E8
:10C63000015FA5F13001092904D88242F7D1002019
:10C6400070BC7047141B022C4ADD2848002101E011
:10C6500010F8013B01EB810103EB4103161A303B5B
:10C66000022E044603F0FF01F2DC214B03FB01F133
:10C67000A2424FF000030DD903EB830314F8016BC2
:10C680005B00303B3344A24203F0FF03F4D119486E
:10C6900000FB03F32E2D06D01748A0FB032301EB6C
:10C6A000930070BC7047013204200024157804EB1D
:10C6B0008404303D6400092D00F1FF30A4B202D89B
:10C6C0002C44A4B2013210F0FF00EFD1642202FB2F
:10C6D0000433E1E700211D4600F25C520B46D9E726
:10C6E000064C0021C4E700BFE05200203D58002066
:10C6F0008096980040420F00ABAAAAAA3C5800209E
:10C700002DE9F047041E0D4612DB092C26DC824A77
:10C710000B468248A0FB0410C00800EB8000A4EB8D
:10C7200040000021125C1A7059702846BDE8F0875D
:10C7300064422D23092C01F8013B24D8764A774B1B
:10C74000A3FB0403DB0803EB8303A4EB43030020F8
:10C75000D35C48700B702846BDE8F0876F4B632CA4
:10C76000A3FB04264FEAD60621DC6B4A0B466B4935
:10C77000A1FB0601C90801EB8101A6EB4101515C57
:10C7800003F8011BC5E7654A632CA2FB04364FEA98
:10C79000D60637D8604A614BA3FB0603DB0803EBE0
:10C7A0008303A6EB4303D35C01F8013BC7E7A3FB7C
:10C7B0000627B4F57A7F4FEAD7070DD2564A0B46C3
:10C7C0005649A1FB0701C90801EB8101A7EB410113
:10C7D000515C03F8011BCAE7A3FB072842F20F7262
:10C7E00094424FEAD80836D84B4A0B464B49A1FB36
:10C7F0000801C90801EB8101A8EB4101515C03F874
:10C80000011BDDE7A2FB0637B4F57A7F4FEAD707B5
:10C810000CD2414A414BA3FB0703DB0803EB830324
:10C82000A7EB4303D35C01F8013BB4E7A2FB073855
:10C8300042F20F739C424FEAD80821D8364A374B50
:10C84000A3FB0803DB0803EB8303A8EB4303D35CE0
:10C8500001F8013BDEE7324AA3FB080994424FEAA4
:10C86000D90921D82C4A0B462C49A1FB0901C9083A
:10C8700001EB8101A9EB4101515C03F8011BB5E714
:10C88000274BA2FB08099C424FEAD90921D8224A2A
:10C89000224BA3FB0903DB0803EB8303A9EB430350
:10C8A000D35C01F8013BCAE71E4AA3FB090394428B
:10C8B0004FEAD30A21D80B461849174AA1FB0A01AF
:10C8C000C90801EB8101AAEB4101515C03F8011B8E
:10C8D000CAE7144BA2FB09029C424FEAD20A13D8C2
:10C8E0000E4B0D4AA3FB0A03DB0803EB8303AAEB01
:10C8F0004303D35C01F8013BCAE70A22BAFBF2F01A
:10C9000049F0BCF90346D7E70A22BAFBF2F049F036
:10C91000B5F90146E4E700BF5CE70608CDCCCCCC16
:10C920009F8601003F420F0083B50C461646054620
:10C930002FF060FD20462FF05DFD0021204B0846C2
:10C94000002E08BF1E4633F0E1FD0021012033F028
:10C95000DDFD284638F0CCF9B0B10121002033F0DC
:10C96000D5FD284638F0BCF90746204638F0BCF91A
:10C970000028FAD03946204638F0BEF93846B0478C
:10C980000021084633F0C2FD204638F0B1F90028F6
:10C99000DFD00121002033F0B9FD204638F0A0F9A6
:10C9A00001462846019138F09FF901990028F8D0F6
:10C9B000284638F0A1F90021084633F0A7FDC8E762
:10C9C00031A70308F0B50023C1E90033C1E9023300
:10C9D0000B61D0E900258DB007AEDFF898E0C2F317
:10C9E000056C37464CFA03F0C0073C4604D513F8F3
:10C9F0000E0004F8010B27460133062BF2D11B4C25
:10CA0000DFF874E0C2F303200023205C3B708DF854
:10CA10002400C2F3073C0DF125074CFA03F0C007D0
:10CA20003C4604D513F80E0004F8010B27460133E9
:10CA3000082BF2D100233B70C5F3435CC5F343449C
:10CA400009AB0846C5F34F05C2F30351CDE9021502
:10CA50000193CDE9044C02F00F0305490096C2F39F
:10CA6000031249F065FC0DB0F0BD00BFB8E7060841
:10CA700084E70608C0E70608ACE7060870B5094C6D
:10CA8000D4F86C25054662B10026D4F86C052D213A
:10CA900001363DF03BFEAE42F7DBBDE870403EF0B4
:10CAA000ADB870BDE05200202DE9F04F5FFA81F97A
:10CAB000002185B007460846164633F027FD0021C1
:10CAC000012033F023FD3BF03BF8022E0AD0042E68
:10CAD00044F6C01818BF4FF49648B9F1030F07D9B0
:10CAE00000200CE0B9F1FF0F4FF41648F5D10326F2
:10CAF000CD4D95F870352BB90020C5F8740505B0FB
:10CB0000BDE8F08F032EC94C0DD0A144002299F846
:10CB10002901032134F0AEFA0028EDD0C4F8000555
:10CB2000037A9A07E8D495F8700584F81B6D002203
:10CB3000032134F09FFAC4F804090028DCD0BC4A71
:10CB4000BC4BC4F8BC3402F1480003234FF48061AD
:10CB5000A4F8C034C4F8D004002302F24C404FF0D3
:10CB6000010A032EC4F8C484C4F8E834C4F8C81415
:10CB7000C4F8DC34C4F8D834C4F8D404C4F8CC14F1
:10CB8000C4F8E434C4F8E03484F80C3DA4F808ADEB
:10CB9000C4F8143DA4F8183D84F81A3D91460ED00F
:10CBA000D4F800B59BF804003CF0F8F9C4F8FC0494
:10CBB000584612F03BFC5146484612F04BFC3220DE
:10CBC00035F02CF8002E5FD1D4F80489D8F8000095
:10CBD00009F040FE4046984A222134F077F8974BFE
:10CBE0009749C4F8203D3246404633F0EDFFD4F873
:10CBF0000085D8F8000009F02DFE8F4A4FF6FF712E
:10CC0000404634F063F831464046FEF7D5FA8D4B86
:10CC10008D49C4F8243D3246404633F0D5FFC5F86F
:10CC200074954FF0060A022E12D0D5F8740538F02C
:10CC30005FF868B10121002033F068FCD5F8740575
:10CC400038F056F80146002840F09A8033F05EFC38
:10CC5000384638F04DF888B10121084633F056FCCB
:10CC60004FF0050B4FF00008384638F041F8014608
:10CC7000002840F08E80012033F048FC042ED4D0F0
:10CC8000052034F0CBFFCEE7012E09D1D4F80409FA
:10CC90004146FBF7DDFFD4F80005FEF717FBBEE7C2
:10CCA000022E09D1D4F8000512F0AFFBD4F8040924
:10CCB0004146FBF7CDFFB2E7032E59D14FF0000AF2
:10CCC0005146624884F81CAD202258F0F7F88DF8E0
:10CCD0000FA0DFF87CA19DF80F30032B09D9544831
:10CCE000012112F0B7FBD4F804094146FBF7B0FF6D
:10CCF00095E79DF80F3003EB43030AEBC30393F86A
:10CD0000413073B39DF80F3003EB43030AEBC303C9
:10CD10005B6C33B39DF80F30234493F8290100B3C3
:10CD20000022032134F0A6F98346D0B112F06DFB46
:10CD30009DF80F3094F81C2D03EB43030AEBC3035B
:10CD400005EBC2015B6CC1F878359BF80830DB0756
:10CD500048BF012302F1010248BF81F87C3584F805
:10CD60001C2D9DF80F300133DBB28DF80F30B2E788
:10CD7000042E7FF454AFD4F8000512F046FB85E78B
:10CD8000D5F8740537F0ACFF0146384637F0B4FFEC
:10CD900054E7384637F0A4FF95F8A63501468BB91D
:10CDA000242803D14FF0010385F8A635012E04D1C4
:10CDB0003846019137F0A0FF0199D5F8740537F096
:10CDC0009BFF51E7012B06D14D280CBF0223002306
:10CDD00085F8A635EAE7022B06D13C280CBF0323D1
:10CDE000002385F8A635E1E7032B10D10A2802D9E4
:10CDF00085F8A685DAE7042385F8990585F89885EE
:10CE000085F89B8585F89A0585F8A635CEE7042B2D
:10CE100020D195F89A3585F8A705434085F89A35CD
:10CE200085F8A6B5C2E700BFE0520020F030002030
:10CE3000AC3500208C53060840420F00E1F4010895
:10CE4000103E00206BB00108143E0020585800200E
:10CE5000F8000010052BA9D195F8983595F899950B
:10CE600095F89A054B4509D25A1C2B44484085F841
:10CE70009A0585F8982583F89C1597E78842B7D1DD
:10CE800095F8A73585F8A6A5F42B8FD1B9F1000F39
:10CE90008CD12421384685F8A69537F02DFF4D21F9
:10CEA000384637F029FF3E21384637F025FF4946FE
:10CEB000384637F021FFF421384637F01DFFF421C2
:10CEC000384637F019FF032E1BD0D4F800054379FC
:10CED00001689D080223AB40DB439BB20B828D8926
:10CEE0002B408B810079202112F07EFAD4F80005C6
:10CEF0004A46494633F068FED4F80035186809F010
:10CF0000A9FC0022D4F80409114633F05DFED4F8E0
:10CF10000439186809F09EFC0120F0E510B503689B
:10CF200004469B6801219847FF230122A373627383
:10CF300010BD00BF70B51D4C0968D4F8AC551C4E2F
:10CF4000D4F8A845D6EDB77ADFED1A6A491B00EE92
:10CF5000901A0168F8EEE00A091B60EEA70A00EEDD
:10CF6000101A20EEA07AB8EEC00A1C46A0EE007A95
:10CF7000B1EE400AF1EEC77A67EEA67AFCEEE77AE8
:10CF8000C2ED007A49F04AFB9FED0B7ADFED0B7A98
:10CF9000E0EE077AFDEEE77A17EE902A002ABCBF92
:10CFA00002F50C42A032226070BD00BFE0520020AA
:10CFB000880100202C7D8E3FA00CB34500A00C46BC
:10CFC00038B50F4C94F8C71501F03F018B1C024691
:10CFD00001F10A0584F8C53584F8C25504F5B86036
:10CFE00084F8C32508311FF0B5FF254485F8BE0538
:10CFF00094F8C2351C44000A84F8BF0538BD00BF50
:10D00000E05200202DE9F04FCB4DCC4CDFF83C93A3
:10D010008DB04FF00008009005F2746B54F80B0CC3
:10D02000002800F0FC8037F063FE0646002800F080
:10D03000BD81D9F8803044F8073CE0260023C04F7A
:10D0400004F8033CA4F10B0A06FB08F654F80B0C99
:10D0500037F04EFE002800F0E28054F80B0C37F059
:10D060003FFE14F8023C5A1E01460B2A0DD8DFE899
:10D0700012F01F003A004500520082009900E100C2
:10D0800012012F013A016F01850124290CD0009A69
:10D090003AB995F856268A4240F07681012204F882
:10D0A000032C0D2BD2D184E0012304F8023CCDE700
:10D0B00000234D29C4F8C53084F8CD3084F8CE3033
:10D0C00004D0582908D004F8023CBFE7022204F833
:10D0D000022C84F8C430B9E7032304F8023C02238D
:10D0E00084F8C430B2E704233C2904F8023C0AD097
:10D0F0003E290CD0002304F8023CA7E70A233C2970
:10D1000004F8023CF4D1002304F8013C9EE701231B
:10D1100004F8013C9AE7D4F8C500BB190344421C4B
:10D12000C4F8C52083F84F1E94F8CD00022A81EA86
:10D13000000184F8CD1089D12378C02BDAD8627829
:10D14000FF2A08D1052BD5D9012384F8C430072341
:10D1500004F8023C7AE7A4F8C12000229342C4F804
:10D16000C93014BF0523062384F8C320C4F8C520A2
:10D1700004F8023C6AE7D4F8C500BB190344421C1A
:10D18000C4F8C52083F84F1E94F8CD00D4F8C930F8
:10D1900041409A4284F8CD107FF458AF062304F83A
:10D1A000023C53E794F8CD308B42A3D10D2304F811
:10D1B000023C14F8017C002F40F0EC80614B089495
:10D1C0000FCB04AE86E80F00D4F8C930D4F8D100F4
:10D1D000ADF82A7023440993B4F8C130ADF8283073
:10D1E00094F8C3308DF82C3001238DF82D30324661
:10D1F00003AB08A903972FF0F1FB48B1049B0593FB
:10D2000094F8C420504B0493314650462CF0B8FBA0
:10D21000039E002304F8023C002E40F0BF8008F17A
:10D220000108B8F1030F04F1E0047FF4F7AE0DB08C
:10D23000BDE8F08FD4F8C500BA190244431CC4F805
:10D24000C53082F84F1E94F8CD2094F8CE0001939B
:10D250004A4084F8CD20FFF7AFF9019B84F8CE0057
:10D26000072B7FF4F3AEB4F80530C02B3FF642AF86
:10D27000B4F80320A4F8C120A27884F8C3200022C7
:10D280009342C4F8C93014BF08230923C4F8C52049
:10D2900004F8023CDAE694F8CE00FFF78DF994F832
:10D2A000CD3084F8CE004B40D4F8C50084F8CD30A2
:10D2B000BB190344421CC4F8C52083F84F1ED4F8A0
:10D2C000C9309A427FF4C2AE092304F8023CBDE69D
:10D2D00094F8CD304B4084F8CD3094F8CE308B426A
:10D2E0007FF408AF5AE7D4F8C500BA190244431CCA
:10D2F000C4F8C53082F84F1E94F8CE000193FFF7B2
:10D300005BF9019B84F8CE00052B7FF49FAEB4F847
:10D310000120B4F80330A4F8C120227884F8C32097
:10D3200000229342C4F8C93014BF0B230C23C4F865
:10D33000C52004F8023C89E6E05200203750002066
:10D34000E8410020BC53060808690120F0300020A5
:10D3500094F8CE00FFF730F984F8CE00D4F8C50079
:10D36000BB190344421CC4F8C52083F84F1ED4F8EF
:10D37000C9309A427FF46AAE0C23A4E694F8CE300A
:10D380008B427FF4B7AE11E7232904BF022204F8D1
:10D39000032C86E6002304F8023C40E754F80B0C0B
:10D3A0002FF028F854F80B0CB04738E714F8030CAA
:10D3B00000283FF434AFD9F8803054F8072C9B1A7A
:10D3C000632B7FF62CAF012829D002287FF427AFEA
:10D3D00054F80B3CC5F85C360122C5F86036C5F838
:10D3E000683640230F4885F85826A5F870360E4A4F
:10D3F0000E4BC5F86426C5F86C35C5F8B436C5F8CB
:10D400006CB63DF0FFFB4FF400502FF0DFFA0848F8
:10D410003DF0EEFB85F8B86685F8B966FFE63BF0AF
:10D42000EBF8FCE6D0E7060841FA0308445900206F
:10D4300006E806082DE9F843B14C94F84F322DED7B
:10D44000068B0546002B4BD004F5C163D4ED906AE2
:10D45000D3ED0E7A9FEDAB7A9FEDAB5ADFEDAB4A81
:10D4600094EDEC4AD4EDEB3A94EDF76AD4EDF65A2C
:10D4700067EEA67AB6EE003A67EE877AB7EE007AE4
:10D4800067EEA76A66EE836AB0EE473AA6EEC53A43
:10D49000A6EEE47A67EE837AB0EE443A26EE877A17
:10D4A000A7EE863AF0EE636AE7EEA56A67EEA34A56
:10D4B00027EE845AE7EE254AA7EE065AF0EE437AA5
:10D4C000E7EE636AE7EE447A75EEE45A36EE456AB3
:10D4D000C4EDF65AC4EDEB6A84EDF76AC4EDEC7A5C
:10D4E00094F84832022B00F0B184032B00F0F08254
:10D4F000012B00F01D81864EB6F8BC7617F043086C
:10D5000040F0278717F0040094ED240A41F00B82C5
:10D5100017F008087F4D41F0BB8294F8D491B9F11F
:10D52000000F41F0B481D4EDD07A84EDE90A20EE09
:10D53000270A0023C4F8883384EDE50A84EDE80A5D
:10D54000C4F88C33C4F89033B8F1000F41F09A81DD
:10D550007A0794ED250A01F1CF813B0701F148825A
:10D56000B9F1000F41F08281D4EDD77A84EDF40A4D
:10D5700020EE270A4FF00008C4F8B48384EDF00AC7
:10D5800084EDF30AC4F8B883C4F8BC83FBF788FBC6
:10D59000D4EDDE7A96F8BA365F4FC4F8E08320EE19
:10D5A000270AC4F8E483C4F8E88384EDFB0A84ED19
:10D5B000FE0A03F0010394F8D421D4ED277A002A5F
:10D5C00040F0F8869FED557A96F8C02627EE877AC8
:10D5D000002ABFEE009AF7EE007A18BFB0EE679A05
:10D5E00084EDA27A002B01F0618095F8203B1BB1FD
:10D5F00021F0C2FB29EE009AD4F8903297ED048A0C
:10D600002BB1B0EE480A46489847B0EE408AD4F8AD
:10D61000C032D7ED028A2BB1B0EE680A4148984774
:10D62000F0EE408AD4F8F03297ED010A0BB13E4893
:10D63000984720EE000AD4EDC76A94EDC87AD4ED7D
:10D64000CA5AD4EDCB7A94EDC96AD4EDFB4A94ED75
:10D65000FE5A94F8E035A8EEA80A482B78EE663A10
:10D66000B1EEC04AE3EE876AB0EEC87A78EE663A69
:10D6700027EE257AF0EEE35A65EEA75A24EE066A05
:10D6800077EE257AC4EDC76A77EE867A67EE897AF7
:10D6900074EEA74A35EE275AC4EDFB4A84EDFE5AD4
:10D6A00000F0A987D4EDCC7AD4EDF06A94EDF37A4A
:10D6B00068EE277A472B76EEA76A37EE277AC4ED15
:10D6C000F06A84EDF37A11D19FED187A28EE078A7B
:10D6D00067EE877ABDEEC88AFDEEE77A18EE103A5B
:10D6E000C4F8E83517EE903AC4F8EC3595F8103DDB
:10D6F000002B40F0D587BDEC068BBDE8F88300BF5A
:10D70000F800001035FA8E3CABAAAA3EABAA2A3E1E
:10D71000E0520020F0110010801B00106F12833ABD
:10D7200090030010C0030010F003001000007A44C2
:10D73000D84EB6F8BC3613F0430040F0FB8513F02A
:10D74000040294ED24AA41F0DC801F07D24D01F1C0
:10D75000758194F8D431002B41F0B180CF4FD4F8CB
:10D76000103497ED0C9A84EDE9AA33B1B0EE490A72
:10D77000A7F5F8709847B0EE409A7AEE498AD4F847
:10D78000A03484EDEA9AB0EE680A0BB1C448984719
:10D79000C44BD4EDCD9A53ED027A13ED038A13ED09
:10D7A000016AD3ED006AB5F8A81AB1EE497A77EEAE
:10D7B000677A28EE468A60EE299AA6EEA78A03EDDC
:10D7C000027A03ED038AC4EDE29A002900F0C487CF
:10D7D00094F84B329FEDBC8A013B012B84EDE48A27
:10D7E00040F2E487F0EE488A94EDEB7AD4ED9B7A30
:10D7F00078EE878AB1EE679AF4EEC98AF1EE10FAF4
:10D8000008D4F4EEE78AF1EE10FA8CBFB0EE679A16
:10D81000B0EE689AD4EDCE8A84EDEB9A69EE288A50
:10D82000C4EDE38A20F0B4F948B994ED947AF7EEA8
:10D83000007A77EEC77A27EE899A84EDEB9A94ED19
:10D84000D01AB6F8BC362AEE01AA38EE298A13F0AF
:10D85000430F38EE0A8A84EDE5AA38EE288A84ED73
:10D86000E88A41F03780580794ED25AA01F15280EB
:10D87000190701F1D58094F8D431002B41F01380C1
:10D88000D4F8403497ED0D9A84EDF4AA2BB1B0EEA4
:10D89000490A85489847B0EE409A7AEE498AD4F80A
:10D8A000D03484EDF59AB0EE680A0BB17F48984702
:10D8B0007F4BD4EDD49A53ED027A13ED038A13ED26
:10D8C000016AD3ED006AB5F8AA1AB1EE497A77EE8B
:10D8D000677A28EE468A60EE299AA6EEA78A03EDBB
:10D8E000027A03ED038AC4EDED9A002900F0238744
:10D8F00094F84B329FED748A013B012B84EDEF8A43
:10D9000040F23B87F0EE488A94EDF67AD4ED9C7AAB
:10D9100078EE878AB1EE679AF4EEC98AF1EE10FAD2
:10D9200008D4F4EEE78AF1EE10FA8CBFB0EE679AF5
:10D93000B0EE689AD4EDD58A84EDF69A69EE288A1D
