:020000040800F2
:10000000F0FF01207DF20508B5FB0008093F040858
:10001000F5F20508F5F20508F5F205080000000004
:10002000000000000000000000000000B1FB00081C
:10003000ADFB000800000000A9FB00084DFF03080D
:10004000F5F20508F5F20508F5F20508F5F20508E0
:10005000F5F20508F5F205082D760408F575040893
:10006000BD750408857504084D750408BD9D050817
:10007000AD9D05089D9D05088D9D0508799D050888
:10008000659D0508519D0508F5F205080000000072
:1000900000000000000000000000000015750408CA
:1000A0005DE90308ADE903084DE90308D5E9030854
:1000B0009DE903088DE903087DE90308F1E20508DD
:1000C000F9E20508E5E20508EDE20508F5F20508A4
:1000D000F5F20508FD0004084500040800000000D2
:1000E000DD740408F5F205086D1401080000000035
:1000F0000000000000000000000000003D9D050819
:1001000000000000F5F205086DE90308F5F20508A6
:1001100000000000000000000000000000000000DF
:10012000299D0508159D0508019D0508ED9C0508FC
:10013000D99C05080000000000000000000000003D
:1001400000000000000000000000000045F500086D
:10015000C59C0508B19C05089D9C05088DFF0308FA
:10016000D9E20508E1E205080000000000000000F7
:10017000000000000000000000000000000000007F
:1001800000000000F5F2050800000000000000007B
:08019000F5F20508F5F205087F
:08019800DCED05000100000090
:1001A0000403090412010002EF02014083045632E5
:1001B00000020102030100001201000202020040DD
:1001C000830440570002010203010000FFFFFFFF0C
:1001D000000000000000000001000000000000001E
:1001E00000000000AB430020000000000100000000
:1001F00000000000000000000000000000000000FF
:1002000000000000000000000000000000000000EE
:1002100000000000000000000100000000000000DD
:10022000006002401060024000000000000000007A
:1002300000000000000B00000000000000000000B3
:100240000000000000600240286002400100000041
:100250000000000000000000060C0000000000008C
:10026000000000000000000000600240406002400A
:10027000020000000000000000000000100D00005F
:1002800000000000000000000000000000600240CC
:100290005860024003000000000000000000000061
:1002A000160E00000000000000000000000000002A
:1002B0000060024070600240040000000000000086
:1002C00000000000200F00000000000000000000FF
:1002D000000000000060024088600240050000004D
:1002E00000000000000000002610000000000000D8
:1002F000000000000000000000600240A06002401A
:1003000006000000000000000000000030110000A6
:10031000000000000000000000000000006002403B
:10032000B86002400700000000000000000000006C
:10033000362F000000000000000000000000000058
:100340000064024010640240000000000000000051
:100350000000000000380000000000000000000065
:100360000000000000640240286402400100000018
:10037000000000000000000006390000000000003E
:1003800000000000000000000064024040640240E1
:10039000020000000000000000000000103A000011
:1003A00000000000000000000000000000640240A7
:1003B000586402400300000000000000000000003C
:1003C000163B0000000000000000000000000000DC
:1003D000006402407064024004000000000000005D
:1003E00000000000203C00000000000000000000B1
:1003F0000000000000640240886402400500000024
:100400000000000000000000264400000000000082
:10041000000000000000000000640240A0640240F0
:100420000600000000000000000000003045000051
:100430000000000000000000000000000064024016
:10044000B864024007000000000000000000000047
:100450003646000000000000000000000000000020
:100460007D000000218300081D8300081983000817
:100470000D83000809830008158300081183000814
:10048000F927010845270108B98C00082D8D0008BF
:10049000A98D000811F00008E11501083984000851
:1004A00031840008010000000000803F85540108ED
:1004B00089590108015501087D16010861180108D4
:1004C0008D160108A91601085516010845160108E0
:1004D000000000000000000009022000010104C02B
:1004E0003209040000020806500507058102400099
:1004F000000705010240000009026400030100C07A
:10050000320904000001030000000921110100016B
:100510002236000705830309000A080B01020202C4
:10052000010009040100010202010005240010017C
:100530000524010002042402020524060102070525
:1005400082030800FF09040200020A0000000705F8
:10055000010240000007058102400000090243003B
:10056000020100C03209040000010202010005245A
:1005700000100105240100010424020205240600E4
:1005800001070582030800FF09040100020A0000B8
:10059000000705010240000007058102400000003D
:1005A000FF00000001008403200008100E230482D5
:1005B000028506140818083401FD03032C250020C9
:1005C000F1B8000001FD0303300C004027C8000013
:1005D00001FD03032C2400016060000005010905F2
:1005E000A101A1000501093009310932093309359A
:1005F0000934093609371581257F75089508810268
:1006000005091901290815002501950875018102C0
:10061000C0C0000009022200010100E0320904000C
:100620000001030102000921110100012236000727
:1006300005830309000A0000000000000102030412
:100640000102030406070809FFFFFFFF94AB002027
:100650000000000054AB002000000000000000007B
:1006600000100000E803E8030000000000000000A4
:1006700000000000DD8601080100000001100000FC
:10068000E803E80300000000000000000000000094
:1006900091A401080300000011100000C800B80B6D
:1006A00000000000000000000000000091A401080C
:1006B0000400000012100000C800B80B0000000089
:1006C000000000000000000091A4010805000000E7
:1006D00013100000C800B80B00000000000000006C
:1006E0000000000091A401080600000014100000A2
:1006F000C800B80B0000000000000000000000006F
:10070000CD8601080700000020100000C800B80BCB
:10071000000000000000000000000000CD8601087D
:100720000800000021100000C800B80B0000000005
:1007300000000000000000009D8601080900000084
:100740002F100000C800B80B0000000000000000DF
:1007500000000000318601080A000000301000008F
:100760006400B80B00000000000000000000000062
:10077000D9A601080B00000031100000C800B80B1A
:1007800000000000000000000000000085A4010837
:100790000C00000032100000C800B80B0000000080
:1007A000000000000000000085A401080D0000000A
:1007B00033100000C800B80B00000000000000006B
:1007C0000000000085A401080E00000034100000A5
:1007D000C800B80B0000000000000000000000008E
:1007E00085A401080F00000035100000C800B80BF8
:1007F000000000000000000000000000BD860108AD
:100800001100000041100000C800B80B00000000FB
:10081000000000000000000091A401081200000088
:1008200042100000C800B80B0000000000000000EB
:100830000000000091A40108130000004310000014
:10084000C800B80B0000000000000000000000001D
:1008500091A401081400000044100000C800B80B67
:10086000000000000000000000000000CDA601080C
:100870001500000045100000C800B80B0000000083
:10088000000000000000000091A401081600000014
:1008900046100000C800B80B000000000000000077
:1008A0000000000091A4010817000000471000009C
:1008B000C800B80B000000000000000000000000AD
:1008C000CD8601081800000048100000C800B80BD1
:1008D000000000000000000000000000CD860108BC
:1008E0001900000049100000C800B80B000000000B
:1008F000000000000000000091A401081A000000A0
:100900004A100000C800B80B000000000000000002
:100910000000000091A401081B0000004E10000020
:10092000C800B80B0000000000000000000000003C
:10093000D9A501081C0000004F100000C800B80B2A
:10094000000000000000000000000000CD8601084B
:100950001E00000051100000C800B80B000000008D
:10096000000000000000000091A401081F0000002A
:1009700052100000C800B80B00000000000000008A
:100980000000000091A401082000000053100000A6
:10099000C800B80B000000000000000000000000CC
:1009A00091A401082100000054100000C800B80BF9
:1009B000000000000000000000000000CDA60108BB
:1009C0002400000057100000C800B80B0000000011
:1009D0000000000000000000CD8601082900000092
:1009E0005F100000C800B80B00000000000000000D
:1009F00000000000CD8601082A00000080100000E1
:100A0000C800B80B0000000000000000000000005B
:100A100091A401082B00000081100000C800B80B51
:100A200000000000000000000000000091A4010888
:100A30002C00000082100000C800B80B000000006D
:100A4000000000000000000091A401082D0000003B
:100A500083100000C800B80B000000000000000078
:100A60000000000091A401082E000000901000007A
:100A7000C800B80B000000000000000000000000EB
:100A800091A401082F00000091100000C800B80BCD
:100A900000000000000000000000000091A4010818
:100AA0003000000092100000C800B80B00000000E9
:100AB000000000000000000091A4010831000000C7
:100AC00093100000C800B80B0000000000000000F8
:100AD0000000000091A4010832000000A0100000F6
:100AE000F401B80B0000000000000000000000004E
:100AF000CD86010833000000A1100000F401B80BFE
:100B0000000000000000000000000000CD86010889
:100B100034000000A3100000F401B80B0000000036
:100B20000000000000000000CD8601083900000030
:100B3000B1100000C800B80B000000000000000069
:100B40000000000085A401083A000000B210000077
:100B5000C800B80B0000000000000000000000000A
:100B6000C1A601083B000000B3100000C800B80B8C
:100B700000000000000000000000000085A4010843
:100B80003C000000C0100000C800B80B00000000CE
:100B9000000000000000000091A401083D000000DA
:100BA000C1100000C800B80B0000000000000000E9
:100BB0000000000091A401084000000000110000A6
:100BC0006400B80B000000000000000000000000FE
:100BD00061A401084100000001110000C800B80B29
:100BE00000000000000000000000000085A40108D3
:100BF0004200000002110000C800B80B0000000015
:100C0000000000000000000085A40108430000006F
:100C100003110000C800B80B000000000000000035
:100C20000000000085A4010844000000101100002D
:100C30006400B80B0000000000000000000000008D
:100C4000E5A301084500000011110000C800B80B21
:100C500000000000000000000000000085A4010862
:100C60004600000012110000C800B80B0000000090
:100C7000000000000000000085A4010847000000FB
:100C800013110000C800B80B0000000000000000B5
:100C90000000000085A401084900000021110000A7
:100CA000F401B80B0000000000000000000000008C
:100CB000CD8601084A00000022110000F401B80BA3
:100CC000000000000000000000000000CD860108C8
:100CD0004B00000023110000F401B80B00000000DD
:100CE0000000000000000000CD8601084C0000005C
:100CF00024110000F401B80B000000000000000007
:100D000000000000CD8601084D0000002511000004
:100D1000C800B80B00000000000000000000000048
:100D2000BDA501084E00000026110000C800B80B48
:100D300000000000000000000000000085A4010881
:100D40004F00000027110000C800B80B0000000091
:100D5000000000000000000085A401085000000011
:100D600028110000C800B80B0000000000000000BF
:100D70000000000091A401085100000029110000AA
:100D8000C800B80B000000000000000000000000D8
:100D900091A40108520000002A110000C800B80BFD
:100DA00000000000000000000000000085A4010811
:100DB0005500000041110000F401B80B00000000D4
:100DC0000000000000000000CD8601085600000071
:100DD00042110000F401B80B000000000000000008
:100DE00000000000CD8601085700000043110000FC
:100DF000F401B80B0000000000000000000000003B
:100E0000CD8601085800000000120000C800B80B91
:100E1000000000000000000000000000CD86010876
:100E20005900000001120000C800B80B00000000CB
:100E3000000000000000000091A401085A0000001A
:100E400002120000C800B80B000000000000000003
:100E500000000000CD8601085B00000003120000C6
:100E6000C800B80B000000000000000000000000F7
:100E7000D9A501085C00000004120000C800B80BEE
:100E8000000000000000000000000000CD86010806
:100E90005D00000005120000C800B80B0000000053
:100EA0000000000000000000CD8601085F00000087
:100EB00011120000C800B80B000000000000000084
:100EC00000000000CD860108600000001212000042
:100ED000C800B80B00000000000000000000000087
:100EE000CD8601086200000013120000C800B80B94
:100EF000000000000000000000000000CD86010896
:100F00006300000020120000C800B80B00000000C1
:100F100000000000000000007DA501086400000042
:100F200000DB00006400B80B0000000000000000BF
:100F300000000000E1A501086500000001DB0000E1
:100F40006400B80B0000000000000000000000007A
:100F5000E1A501086600000002DB00006400B80B98
:100F6000000000000000000000000000E1A50108F2
:100F70006700000003DB00006400B80B0000000005
:100F80000000000000000000E1A50108680000006A
:100F900004DB00006400B80B00000000000000004B
:100FA00000000000E1A501086900000005DB000069
:100FB0006400B80B0000000000000000000000000A
:100FC000E1A501086A00000006DB00006400B80B20
:100FD000000000000000000000000000E1A5010882
:100FE0006B00000007DB00006400B80B000000008D
:100FF0000000000000000000E1A501080F00000053
:10100000020000000100000000000101FF000000DC
:10101000000000000000000000000000D4310608BD
:101020000000000000000000000000008C320608F4
:101030000000000000000000000000003832060838
:101040000000000000000000E3A5010894B60020A5
:1010500029B30108000000000000000070310608FC
:10106000F6FFFFFF59000000080000006400640064
:10107000000000000000000000000000DD86010804
:10108000020000000700100064006400000000007F
:101090000000000000000000DD86010840000000A4
:1010A00080030000640064000000000000000000F5
:1010B00000000000DD8601083A000000000C00007E
:1010C0006400640000000000000000000000000058
:1010D000DD86010848000000003000006400640064
:1010E000000000000000000000000000DD86010894
:1010F000FFFFFFFFFA0000000100000001000000F8
:10110000AEB400200000F40101000000ACB40020E7
:101110000000F40101000000AAB400200000F40166
:1011200001000000A8B400200000F401010000004C
:10113000A6B400200000F40101000000A4B40020C7
:101140000000F40101000000A2B400200000F4013E
:1011500001000000899A0108459A0108000000007A
:101160009822060892B4002005320100A0B40020A5
:101170006400F401010000009EB400206400C40972
:101180000100000090B40020E803D0070100000037
:101190008EB40020E803D007010000008CB40020CA
:1011A000E803D007010000008AB400201E00B80B3D
:1011B0000100000098B4002005000F0001000000AD
:1011C0009AB4002003000A000100000088B4002047
:1011D0001E00F401010000009CB400200200000089
:1011E0002423060886B400201400640001000000D7
:1011F00094B400203200E8030100000084B4002011
:101200000000C80001000000D2B500200100C409A0
:1012100000000000D0B500200100C409000000005B
:10122000CEB500200100C40900000000CCB50020AC
:101230000100C40900000000CAB500200100C40973
:1012400000000000C8B500200100C4090000000033
:10125000C6B500200100C40900000000C4B500208C
:101260000100C4090000000064B20020FF7F0100FB
:1012700060B2002000000000FFFFFFFF010000003F
:101280005CB2002000000000FFFFFFFF0100000033
:1012900058B2002000000000FFFFFFFF0100000027
:1012A000C19901083D990108000000003C2306088F
:1012B00074B50020EE02CA080100000072B50020DB
:1012C00000C801006400000071B5002002C80100E0
:1012D0006400000070B50020020000003023060802
:1012E00094B200200083007D0500000092B200202F
:1012F00080C1803E0500000088B200200000FFFF92
:10130000010000006CB200206400F4010100000044
:101310006AB200206400F4010100000068B20020FD
:101320006400F4010100000066B200200200000029
:101330004824060865B20020020000004824060880
:10134000A7B200200D00000054240608A4B200201B
:1013500000640100A2B20020320010270A00000041
:10136000A0B200200D000000542406089FB2002007
:101370000D000000542406089EB200200300000067
:101380008C2406080000000000000000000000009F
:101390009C24060882B500204E000000D4240608D4
:1013A00080B500200100401F0100000076B500203C
:1013B0000300000010260608A9B200200600000065
:1013C00020260608A8B200200600000020260608F5
:1013D000D8B200200000E80301000000D6B20020CF
:1013E0000000E80301000000B0B20020C800E803DC
:1013F00001000000AEB200203C00FA000100000035
:10140000ACB200200A00640001000000AAB2002073
:1014100000080100E4B200200000F4010100000017
:10142000E2B200200000F40101000000E0B2002060
:101430000000F40101000000DEB200200000F40111
:1014400001000000DCB200200000E8030100000001
:10145000DAB200200000E8030100000025B40020FB
:101460000064010024B40020006401001EB40020C8
:10147000006401001DB40020006401001CB40020C1
:101480000064010022B4002000FF010021B400200C
:1014900000FF010020B4002000FF01001AB400206A
:1014A00001FF010019B4002001FF010018B4002061
:1014B00001FF0100F2B2002000FA0100F1B20020A9
:1014C00000FA0100F0B2002000FA0100EFB20020A3
:1014D00000FA0100EEB2002000FA0100ECB2002098
:1014E000000050C301000000FFB2002005FA010017
:1014F000FEB2002005FA0100FCB200200000E80363
:101500000A000000FAB2002000FA0100F8B2002040
:101510000000E8030A000000F6B2002000FA010013
:10152000F4B200200000E8030A00000003B300202A
:1015300000C8010002B3002000C8010001B3002070
:101540000A5A010000B3002000C8010017B30020B0
:1015500000FA010016B3002000FA010015B30020C4
:1015600000FA010018B3002019FA010014B300209A
:1015700019FA010013B3002019FA01000CB300207E
:1015800000FA01000BB3002000FA01000AB30020AA
:1015900000FA010009B3002000FA010008B300209E
:1015A00000FA010007B3002000FA010006B3002092
:1015B00000FA010005B3002000FA010004B3002086
:1015C00000FA010012B300200164010011B30020F1
:1015D0000164010010B30020016401000FB300207A
:1015E00000FA01000EB3002000C801000DB3002076
:1015F00000FA010050B400200000C8000100000003
:101600004AB400200000C8000100000044B40020DB
:101610000000D007010000003EB4002000C8010017
:101620003DB4002000C801003CB4002000C8010007
:101630004EB400200000C8000100000048B40020A3
:101640000000C8000100000042B400200000D007E4
:10165000010000003BB4002000C801003AB40020A3
:1016600000C8010039B4002000C801004CB40020BB
:101670000000C8000100000046B400200000C800BF
:101680000100000040B400200000D007010000006D
:1016900038B4002000C8010037B4002000C80100A1
:1016A00036B4002000C80100EC91060800000000DC
:1016B0000000E0C20020F8910608070000000000CA
:1016C00098160020009206080700000000009016FF
:1016D000002008920608070000000000881600207D
:1016E000109206080800000000007C1600201892E6
:1016F000060808000000000070160020209206086E
:101700000800000000006416002028920608070068
:10171000000000005C160020309206080700000060
:101720000000541600203892060807000000000050
:101730004C160020409206080800000000004016E9
:10174000002048920608080000000000341600201F
:101750005092060808000000000028160020589249
:10176000060807000000000020160020609206080E
:101770000700000000001816002068920608070005
:1017800000000000101600207092060808000000FB
:1017900000000416002078920608080000000000EF
:1017A000F815002080920608080000000000EC15E3
:1017B0000020D085060801000000000000000000A5
:1017C000000000000F00000000000000000000000A
:1017D000D9950108BD9501087DA801083C26060899
:1017E00096B20020E803D0070100000000000000CE
:1017F0000000000025A60108D8260608D19401089B
:10180000A5940108000000002C270608799B010818
:101810004D9B010800000000AC2706084595010813
:10182000FD940108000000001C280608E995010845
:101830005DF6010800000000B82806082DB8010870
:10184000A59B0108000000006029060839960108E0
:101850000000000000000000FC2906088596010831
:101860004D96010800000000602A06080197010853
:10187000BD96010800000000E02A0608B99801089A
:10188000BD98010800000000602B0608D0BC0020B5
:101890000106010045970108D9B4010800000000C5
:1018A000242C0608859701081DB5010800000000DA
:1018B000A42C0608CD97010869B5010800000000B6
:1018C000302D06087998010821B6010800000000B3
:1018D000942D0608FD9701089DB501080000000041
:1018E000142E060839980108DDB501080000000033
:1018F000BC2E0608F198010865B60108000000003A
:10190000A0160020DEBC002001060100A5950108FC
:101910008D950108000000003C2F0608CDB6010897
:101920000000000000000000842F060800000000F6
:101930000000000000000000203006081506020824
:10194000B5B6010800000000903006086CDE0020EB
:10195000C0DE002001F11F3FD6010000000101019F
:1019600000FF0101010000000000803F00000000B6
:1019700000000000000000000000803F00000000A8
:101980000000000000000000000000000000000057
:101990000000000000000000000000000000000047
:1019A000DD4E0508000000000000000000000000FF
:1019B00000000000DC0F0120080000000000000013
:1019C000CC0F01200800000001000000DD530108D9
:1019D0007117010875530108000000004116010845
:1019E0005D5C0108C5520108194F010800000000A4
:1019F000000000000116010831830008258300085B
:101A0000818C00089D8C0008658C0008498C0008BA
:101A10002D8C0008955301084D170108C952010883
:101A200000000000191601081D4F01089952010815
:101A3000854E010800000000000000000D1601089E
:101A40002DA20308000000000000000000000000BC
:101A50008186030800000000000000000000000074
:101A6000B4A10608BCA1060800000000192503085F
:101A7000A086010004000000B4A10608C4A1060865
:101A800000000000993A0408E80300000400000088
:101A90007C8C06080000000000000000B54B030825
:101AA0007D000000FF0000001C8A06080000000006
:101AB00000000000652703087D000000FF00000013
:101AC000D88A06080000000000000000393E030824
:101AD0007D000000FF000000848C0608000000006C
:101AE000000000008DD90308E80300000300000097
:101AF000CCA106080000000000000000410003081F
:101B0000D007000003000000ECF806080000000009
:101B100085250208D93F04085F7600000500000013
:101B200080FC06080000000000000000996804081E
:101B30001027000002000000D8A1060800000000E5
:101B40000000000089D70308E8030000050000003A
:101B5000E4A106080000000000000000F165030891
:101B60001027000003000000F4A106080000000098
:101B700000000000354603081027000003000000A5
:101B800004A20608000000000000000049680308E5
:101B9000400D0300030000005C9F060800000000E9
:101BA0000000000001A6030810270000020000004A
:101BB00014A206080000000000000000A9DC0108D3
:101BC000102700000300000018A206080000000013
:101BD0000000000075300408A0860100020000002B
:101BE000BC8A06080000000000000000E1FA0308BB
:101BF00050C3000002000000809F060800000000A3
:101C0000000000003D020408A00F000002000000D8
:101C100020A2060800000000000000005DF101089D
:101C200010270000020000003488060800000000B1
:101C300000000000BD36010810270000020000006F
:101C40002CA20608000000000000000027FD01088B
:101C500050C300000200000030A20608000000008F
:101C600000000000C96C030840420F0001000000A2
:101C70003CA20608000000000000000041A203088A
:101C800050C300000100000002010000A00F00008E
:101C9000B80B00000102FFFF01000000FFFF000081
:101CA000C8F8060800000802050303000000000051
:101CB000D4F8060801000802050403000000000033
:101CC000E0F8060800000802050303000000000019
:101CD000E8F80608010008020504030000000000FF
:101CE0008C9D06080200FE010113030000000000A5
:101CF00078890608030014020003000000000000B9
:101D0000F0F8060804001F020200080000000000AE
:101D1000F8F8060805001F02020108000000000094
:101D2000FFFFFFFF1A03000000000000000000009A
:101D300000000000000000000000000000000000A3
:101D4000040309041201000200000040830420572C
:101D50000002010203010101010000000200000075
:101D600000000000B81E00204C35012002000000D9
:101D700001000000BD020508B41E002000000000A4
:101D80000100000001000000F9020508541D0020B8
:101D90000000000000000000000000000000000043
:101DA0000000000000000000000000000100000032
:101DB0000000000000000000000000000000000023
:101DC0000100000000000000000000000000000012
:101DD000000000000100000000000000D80000002A
:101DE00000000000050000000600000003000000E5
:101DF0000000000005000000FFFFFFFF05000000DD
:101E00002D1A0508151A0508051A0508B500050854
:101E1000B519050861190508A5000508BC1E0020B4
:101E200069140508BD000508B9000508B1000508DA
:101E300079140508AD000508A9000508F07F06081B
:101E4000F95B01082D170108D95A010800000000AC
:101E500000000000715201088151010800000000DB
:101E60000000000000000000F515010855010508FC
:101E700049010508911A0508AD1A05080101050870
:101E8000751A0508591A05081F0000001C000000FB
:101E90001F0000001E0000001F0000001E000000C8
:101EA0001F0000001F0000001E0000001F000000B7
:101EB0001E0000001F0000000068214C060000000A
:101EC00005000000008002021F00000053544D2056
:101ED0002020202050726F64757420202020202044
:101EE00020202020302E3031FF00000000000401AF
:101EF00000000200010000021000000007000000C6
:101F000000000000000000000102030406070809A9
:101F1000C70000000500000006FF0000181F002099
:101F2000000000002C0307084C0307080C030708F7
:101F300000000000000000000000000000000000A1
:101F40000000000000000000000000000000000091
:101F50000000000000000000000000000000000081
:101F60000000000000000000000000000000000071
:101F70000000000000000000000000000000000061
:08280000082800080040000850
:108000002DE9F041484D494E2B6886B004460139B0
:10801000A6FB030389B29B0C0027013B0291206859
:10802000ADF8043001A91646ADF80C70ADF8067035
:108030008DF80E700DF0C6FE237AADF80870602240
:1080400001929A07CDE90477D4F8008067793CD58E
:10805000DB0003F008030422ADF81230ADF808206D
:1080600001AA39464046039636F004FB0C2F12D87D
:10807000DFE807F038111111431111114E111111E0
:108080000700B8F81C3023F400631B041B0C43F4F6
:108090000063A8F81C302268B2F844306FEA43430A
:1080A0006FEA53439BB2A2F84430138811469BB247
:1080B00043F0010321F8343B6379AA60C818002219
:1080C0006860CA5006B0BDE8F0815B0003F00203AF
:1080D0000122ADF810304FF48073ADF80620ADF8F2
:1080E0001430BDE7B8F8183023F008031B041B0C4C
:1080F00043F00803A8F81830CDE7B8F8183023F497
:1081000000631B041B0C43F40063A8F81830C2E79B
:10811000B8F81C3023F008031B041B0C43F00803C1
:10812000A8F81C30B7E700BF781F002083DE1B4390
:1081300070B4C3080D4CE25C00F00706B24004EBDB
:10814000D004D2B20020C6F108038B4228BF0B46F0
:10815000C3F108052A419840C91A40EA02004FF0CD
:10816000000614F8012FEED170BC7047D41F002018
:10817000084AD2E9443199420AD0D118013391F822
:1081800018110170C3F30A03C2F8103101207047BF
:1081900000207047781F0020044BD3E94430C01AF8
:1081A000C0F30A00C0F50060704700BF781F0020D0
:1081B000012380F85130704707B501A8FFF7D8FFB9
:1081C0000028FAD09DF8040003B05DF804FB034BCF
:1081D000D3E94430C01AC0F30A007047781F00206A
:1081E00001207047024BC3F81829C3F81C197047C7
:1081F000781F0020024BC3F82029C3F824197047C8
:10820000781F00207047704730B4114DD5E94423E2
:108210009A1AC2F30A020A44B2F5006F13D8A9B140
:1082200001444A1E013810F8014FE918824203F157
:10823000010381F81841C3F30A03F4D1C5F81431DE
:10824000002030BC7047022030BC70470846F8E779
:10825000781F0020212838B50C4605D022282ED0C2
:10826000202813D0002038BD0029FBD0072AF9D1DF
:108270001A4BD3F8280993F82C1993F82D2993F861
:108280002E39206021716271A371EBE70029E9D0DA
:10829000072AE7D1114DD5F81C391BB10968D5F86B
:1082A00018099847206821796279A379C5F82809C7
:1082B00085F82C1985F82D2985F82E39D2E7002963
:1082C000D0D0022ACED1054AD2F82439002BC9D009
:1082D0000988D2F820099847C4E700BF781F00201A
:1082E000024B0020C3F83009704700BF781F002000
:1082F000044B00200522C3F83029C3F82409C3F831
:108300001C097047781F0020704700BF704700BFEE
:10831000704700BF704700BF704700BF704700BF85
:10832000704700BF042301480B807047980100206C
:1083300010B4074A074B92F83409122403F11402CF
:108340000C8001280CBF184610465DF8044B70479E
:10835000781F00209C010020A0B182680D4B12B153
:1083600007229A7070471978DA6003294FF00400E9
:108370000CBF80214FF48071C3E901111A611A7595
:1083800098707047034B41F2E47101225A545A70BD
:10839000704700BF8C8700200378022B10D0006943
:1083A00008B9012070470C4B1B78032B0EBF0B4BF9
:1083B00080B24FF6F773984294BF002001207047B7
:1083C0000549436841F650028A58B3EB422F2CBF4F
:1083D00001200020704700BF8C870020F7FFFF0FAF
:1083E0000378022B14D030B4104A4368006941F678
:1083F000480402F5C2511559096841F63C042B4066
:1084000012595B0A023801FB0030104430BC70473F
:10841000064B426841F6340141F63000595818586D
:1084200000EB410000EB5220704700BF8C8700201A
:1084300000487047BC1F0020034B93F840000328FE
:1084400094BF002001207047781F002070B5144CA5
:1084500094F83839002BFBD1F9B101444E1E451E6A
:1084600002E0012037F0D2FCD4F83C39D4F840299E
:108470000133C3F30A039342F3D0D4F83C29D4F870
:108480003C3915F8011F22440133C3F30A03B542F6
:1084900082F84419C4F83C39E6D1002070BD00BF11
:1084A000781F0020094B0846D3F8301910B559B190
:1084B000D3F83039052B07D1054C002AE36C03DDD6
:1084C0001146FFF7C3FFE36C10BD00BF781F00200B
:1084D0007030002010B590F85010002380F8503014
:1084E00079B10B4CD4F830296AB1D4F83029052A77
:1084F0000BD1084C3C30E36CFFF7A8FFE36C012084
:1085000010BD0120FCE71046FAE71846F8E700BF67
:10851000781F002070300020002280F85120D9E719
:1085200090F85020531C0244DBB280F8503082F89F
:108530003C1090F851200AB1132B00D9CAE77047BC
:108540003C4B98422DE9F0410ED003F568530833B7
:1085500098424BD0384B0020C3E92F00A3F8B80055
:10856000A3F8C400BDE8F081334C344FDFF8D48069
:108570000223236504F154060025FB6AAB42294619
:1085800005F1010503D0D4F8D4004CF037FF94F87E
:10859000D830D4F8D42086F82430326230464146B0
:1085A0004DF0D0F8236D9D4206F13006E5DB002347
:1085B00084F8C630D4E91703216DB4F85820B4F814
:1085C0006450C4F8E43012FB01F203FB01F3A4F899
:1085D000B820B4F85A101A4AA4F8C450C4E92F03BA
:1085E000A4F8BA10C4F8B4200120BBE7124C134F12
:1085F0000223236504F154060025FB6AAB42294699
:1086000005F1010503D0D4F8D4004CF0F7FE94F83E
:10861000D830D4F8D42086F82430326230464DF079
:1086200049F8236D9D4206F13006E6DB012384F80C
:10863000C630BFE71971EF007030002098010020AC
:108640003C1E06081940EF002DE9F04FBB4DDFF846
:108650001C8306460FCD08F1E8042DED048B0FC4F2
:108660000FCD0FC498F81A312A6822608BB0022B04
:1086700098F82021029600F03A82032B00F0308215
:10868000002B00F03982DFEDAE7AF0EE678A002A27
:10869000AC49AD4AC8F8F820AC48AD4BC8F8000169
:1086A0000EBF002201220B46039237EEA87AF5EEA8
:1086B000006AC6EE879AA74DC8F8FC30A5F1230BD7
:1086C00005F160074FF0000A9FEDA38A9FEDA39A82
:1086D00027EE888A029B534540F394811BF8014B97
:1086E000002C00F0B081002302E0152B00F0AB81DC
:1086F00003EB43024FEA4309B95CA14203F10103D2
:10870000F3D1424492F8A911002900F003822046D7
:1087100036F0BAFB0646304636F0D6FB0178002923
:1087200040F09181C1440AF1010300930322DBB2BE
:1087300089F8E93189F8E821002E00F084814FEAB8
:10874000141909F1FF39B9F1040F04F00F0C00F20C
:10875000AE81834C04EB4901B1F8500040FA0CF1B2
:1087600011F0010100F0A381012101FA0CFC0CF1D0
:10877000FF3C0CEA0000A144019356F0C7FB99F8B6
:108780005CC0DFF8ECE1019B60440EEBC00C0322FF
:108790008CF807308CF806205EF83000C5F814C05D
:1087A00000F13F4303F57E0304EB9324012194F889
:1087B0006430727A03F01F045B09032B01FA04F1A1
:1087C00000F08781042B00F07F81022B00F077817D
:1087D000BCF80440B4FA84F3C3F11F03C3F3CC0123
:1087E00000EB810103F00703D1F820C09B004FF09C
:1087F0000F0E0EFA03FE2CEA0E0CC1F820C0D1F8C1
:1088000020C002FA03F343EA0C0305AA0B621146E7
:1088100002230192CDE905430DF030FD019A039B3F
:10882000002B00F02B81B8F81831346807EE903A2D
:10883000F8EEE77A4B4BFCEEE77AD3F800C017EE80
:10884000900ABCFBF0F303F57F43FF331B0CBCFB2A
:10885000F3F3B3FBF0F001381FFA80FE07EE903A15
:10886000BCFBF3F3B8EE677A2188DFF808C167EE46
:10887000087A013BC5ED027A69EE677A6445E7EE56
:10888000287A9BB289B2C5ED037A11D0364884426A
:108890000ED0B4F1804F0BD0ACF57C4C644507D0C2
:1088A0000CF5806C644503D00CF5806C644502D1F6
:1088B00021F0700189B2DFF8C0C0644500F0CD80BE
:1088C0000CF5806C644500F0C88021F440710CF513
:1088D0006C4C89B264452180C4F82CE0238540F0BB
:1088E000E980002323860120A082337A96F8059040
:1088F0000021CDE907114FF0600CADF81810099177
:108900009907CDF814C040F1AD80DB0003F00803F7
:108910000421ADF82230ADF818104946204635F054
:10892000A9FEB9F10C0F31D8DFE809F084303030FE
:108930007B30303072303030280000BF681E0608AF
:108940006F12033975D9030879D90308C9260308BA
:108950005D200308B83100206F12833A00007A448A
:108960003C1E0608781F00200004014070300020E3
:10897000843200200000014000100040A38B23F44B
:1089800000631B041B0C43F40063A3833368B3F838
:1089900044206FEA42426FEA524292B2A3F8442066
:1089A0001A88194692B242F0010221F8342B7079EC
:1089B0006B600C1800222C600A50BAF1000F00F016
:1089C0008D80D8F84C118B4200F08F80BAF1010FE6
:1089D00000F08480D8F864118B4200F08680BAF1F0
:1089E000030F7BD1D8F87C21D31A18BF0123DDF8FF
:1089F00000A02B740122BAF1040F6A7405F1180566
:108A00007FF468AE44480BB0BDEC048BBDE8F08F3A
:108A1000A38B23F008031B041B0C43F00803A38360
:108A2000B4E7238B23F400631B041B0C43F40063A3
:108A30002383ABE7238B23F008031B041B0C43F0B9
:108A400008032383A2E7354A354B0020C8E93F32AB
:108A50000BB0BDEC048BBDE8F08F2180C4F82CE096
:108A6000238540E75B0003F002034FF48071ADF80B
:108A70002030ADF81600ADF824104EE7B0EE690ACC
:108A8000019256F03FFC274B3468D3F800C0019A9E
:108A9000FCEEC07A4FF6FE7E17EE903ABCFBF3F385
:108AA00003F57F43FF331B0CBCFBF3F3D6E6696190
:108AB00005AAB4E61C4B9C423FF413AF13E71B4BD3
:108AC0005C6C2143596483E6184B1C6B214319638A
:108AD0007EE6164B1C6C2143196479E6012386E778
:108AE000DFED137ADFED138AD1E513467FE7DFED83
:108AF000127AF0EE678ACAE5104BDFED117A114A5F
:108B0000C8F8F83001230393C8F80021044BF0EEB5
:108B1000678ACAE50E46FEE5583100207D24030829
:108B200075D90308781F0020000401400038024076
:108B3000ACC5A737ACC5A7362829303879D9030882
:108B40006F12833AC9260308114B70B51C6805469D
:108B500000680E4664080DF095FAB4FBF6F1B1F525
:108B6000803F03D3012CFAD96408F6E72246284651
:108B700089B236F029F80749074BC1F8F83C284676
:108B80000022BDE8704001F6F84135F02BBF00BF70
:108B9000781F0020703000203DED0108214B93F834
:108BA000442E03F5506191ED020A1AB91E4B83ED74
:108BB0006F0A704793F8462E4AB1052A11D003F682
:108BC000446393ED150A184B83ED6F0A704703F663
:108BD000446383ED150A83ED190A134B83ED6F0A85
:108BE0007047D3F8480ED96CD3F8582E091A07EEFF
:108BF000901A0132B8EEE77A07EE902AF8EEE77A9B
:108C000003F64463C7EE276AF7EE007A77EEE67A5A
:108C100093ED157A67EE877AE0EE267AB0EE670A72
:108C2000C4E700BF70300020203F002010B5044C86
:108C300004480A4621460CF0A9F8204610BD00BFA2
:108C4000AC4200205883060810B5044C04480A467C
:108C500021460CF09BF8204610BD00BFAC4200201E
:108C60006883060810B5044C04480A4621460CF0F7
:108C70008DF8204610BD00BFAC420020748306086A
:108C800010B5044C04480A4621460CF07FF82046F3
:108C900010BD00BFAC4200208083060810B5044C14
:108CA00004480A4621460CF071F8204610BD00BF6A
:108CB000AC4200208C8306082DE9F843194C94F847
:108CC0004060042E0546894690461F4608D0082E6F
:108CD00002D00020BDE8F8830BF02CFF0228F8D169
:108CE000E06F3AF0ABFE94F8363093B96902112088
:108CF0000BF08EFF98B90C4BC4F81C90DA6C25620F
:108D00000523C4E90A87226384F840300120BDE8C6
:108D1000F883294611200BF07BFF0028EBD00BF0E5
:108D2000BFFFD6E7781F00207030002070B51D4CC3
:108D300094F84030042B06460D4608D0082B21D16C
:108D4000A36B83422CD00BF0F5FE02281AD1E06F02
:108D50003AF074FE002137200BF05AFF2946172005
:108D60000BF056FFB0B994F836306BB97102192088
:108D70000BF04EFF70B90823C4E90E6584F840304B
:108D8000022070BD012070BD314619200BF040FF5C
:108D90000028F0D00BF084FF0BF0B8FF032070BD6B
:108DA000022070BD781F00202DE9F0412C4C0546B3
:108DB000884617461E4694F84000042835D00828F7
:108DC00006D1A36BAB4206D00BF0B4FE0228F2D062
:108DD0000120BDE8F0814FF0FC0C626F2148117B4F
:108DE000214B80F843C2C3F8588051B1526942B157
:108DF00094F8FC20002A0CBF4FF480724FF40072EC
:108E000001E04FF480721A66184919483EF014FECA
:108E100001220623C4E90785C4E90A7684F82420E0
:108E200084F840300020BDE8F081E06F3AF006FEA3
:108E300094F836305BB9690218200BF0E9FE40B9AE
:108E400094F84030082BC6D04FF0FE0CC5E72946F9
:108E5000F2E70BF025FF0BF059FF0320B9E700BF45
:108E6000781F00206841002098010020C8010020E0
:108E7000EC1F002070B5214DD5F8443293F8262020
:108E8000DAB11B699847E0B1D5F8443293F8242051
:108E90008AB105F5127600241A19E0B29B6992F89E
:108EA0002C10B6EC010A9847D5F8443293F82420E8
:108EB00001349442F0DB5B69984795F85832332BC4
:108EC00000D070BD95F85932002BFAD0D5F8443255
:108ED00093F82430042B1E46A8BF0426002BF0D0A4
:108EE0000024074D234618464FF0EEFB0134E3B251
:108EF0009E4245F8040BF6D870BD00BF68410020C3
:108F0000C44300202DE9F04FC34C94F87C1283B089
:108F10000546C1F34001D4F884023AF09BFD94F871
:108F20007C12D4F88002C94301F001013AF092FDAD
:108F30006B1EDBB20193002D00F0E180B74EDFF82D
:108F4000E482B74D0127D4F8843233B11A689B8884
:108F500051690B4214BF53831383D4F8803233B169
:108F60001A689B8851690B4214BF53831383B4F86A
:108F70008C32002B40F05A8194F88E12D4F8900273
:108F80003AF068FDDFF8A0E24FF0FA0C4FF010095C
:108F90004FF47A70DEF80430C3F30803002B40F07E
:108FA0001081EFF31183002B40F00B81F26CA96864
:108FB000F36C9A42FAD1D4F8A0329942F6D8D4F898
:108FC0009CA200FB0AF35B1AB3FBFAF300FB02322C
:108FD000DEF80430C3F30803002B40F0B380EFF356
:108FE0001183002B40F0AE80F36CD5F808B0F16C23
:108FF0008B42F9D1D4F8A0128B45F5D8D4F89CA2B5
:1090000000FB0AF1A1EB0B01B1FBFAF100FB03132A
:109010009B1AB3F57A7FDBD3BCF1010CBAD1D4F83B
:10902000843233B11A689B8851690B4214BF538351
:109030001383D4F8803233B11A689B8851690B428C
:1090400014BF53831383B4F88C32002B40F0D880C4
:1090500094F88E12D4F8900281F001013AF0FAFCF3
:10906000DFF8C4E14FF0FA0C4FF010094FF47A70BA
:10907000DEF80430C3F30803002B40F08380EFF3E5
:109080001183002B7ED1F26CA968F36C9A42FAD15D
:10909000D4F8A0329942F6D8D4F89CA200FB0AF387
:1090A0005B1AB3FBFAF300FB0232DEF80430C3F3C1
:1090B00008033BBBEFF3118323BBF36CD5F808B077
:1090C000F16C8B42F9D1D4F8A0128B45F5D8D4F8C5
:1090D0009CA200FB0AF1A1EB0B01B1FBFAF100FB32
:1090E00003139B1AB3F57A7FDFD3BCF1010CBFD118
:1090F000019B013BDBB2FF2B01937FF424AF03B054
:10910000BDE8F08FEFF3118A89F31288D5F808B023
:109110002B68DB0344BFC4F89872D5F808B0F36C31
:10912000D4F898125FFA8AFA8AF31188D4F89CA2CC
:109130000B4400FB0AF1A1EB0B01B1FBFAF100FBC0
:109140000313CEE7EFF3118A89F31288D5F808B03C
:109150002B68D90344BFC4F89872D5F808B0F36CF3
:10916000D4F898125FFA8AFA8AF31188D4F89CA28C
:109170000B4400FB0AF1A1EB0B01B1FBFAF100FB80
:10918000031345E7EFF3118189F31288D5F808A09E
:109190002B68DA0344BFC4F89872D5F808A0F36CC2
:1091A000D4F89822C9B281F31188D4F89C121A44D9
:1091B00000FB01F3A3EB0A03B3FBF1F300FB023264
:1091C00073E7EFF3118189F31288D5F808A02B68B3
:1091D000DB0344BFC4F89872D5F808A0F36CD4F848
:1091E0009822C9B281F31188D4F89C121A4400FB6A
:1091F00001F3A3EB0A03B3FBF1F300FB0232E7E652
:10920000D8F81830002B3FF42BAFD8F804200023F7
:10921000136088F8153023E7684100207030002083
:1092200010E000E0781F002000ED00E0D8F81830D2
:10923000002B3FF4A7AED8F80420B4F89412044BE6
:10924000B3FBF1F35B10136088F815709AE600BF6A
:1092500040420F002DE9F04FC14CC24E94F87C12F1
:10926000D4F88402DFF80483BF4D83B0C1F340011A
:109270003AF0F0FB94F87C12D4F88002C94301F074
:1092800001013AF0E7FB052301930127D4F884326A
:1092900033B11A689B8851690B4214BF53831383FF
:1092A000D4F8803233B11A689B8851690B4214BFDD
:1092B00053831383B4F88C32002B40F05B8194F815
:1092C0008E12D4F890023AF0C5FBDFF8A4E24FF01A
:1092D000320C4FF010094FF47A70DEF80430C3F30B
:1092E0000803002B40F01081EFF31183002B40F0B6
:1092F0000B81F26CA968F36C9A42FAD1D4F8A032CF
:109300009942F6D8D4F89CA200FB0AF35B1AB3FB8F
:10931000FAF300FB0232DEF80430C3F30803002B3B
:1093200040F0B380EFF31183002B40F0AE80F36C7C
:10933000D5F808B0F16C8B42F9D1D4F8A0128B4566
:10934000F5D8D4F89CA200FB0AF1A1EB0B01B1FB0C
:10935000FAF100FB03139B1AB3F57A7FDBD3BCF160
:10936000010CBAD1D4F8843233B11A689B885169A0
:109370000B4214BF53831383D4F8803233B11A687D
:109380009B8851690B4214BF53831383B4F88C320A
:10939000002B40F0D88094F88E12D4F8900281F01F
:1093A00001013AF057FBDFF8C8E14FF0320C4FF003
:1093B00010094FF47A70DEF80430C3F30803002B71
:1093C00040F08380EFF31183002B7ED1F26CA9680B
:1093D000F36C9A42FAD1D4F8A0329942F6D8D4F874
:1093E0009CA200FB0AF35B1AB3FBFAF300FB023208
:1093F000DEF80430C3F308033BBBEFF3118323BB58
:10940000F36CD5F808B0F16C8B42F9D1D4F8A01206
:109410008B45F5D8D4F89CA200FB0AF1A1EB0B0117
:10942000B1FBFAF100FB03139B1AB3F57A7FDFD38C
:10943000BCF1010CBFD1019B013B13F0FF03019371
:109440007FF424AF03B0BDE8F08FEFF3118A89F306
:109450001288D5F808B02B68DB0344BFC4F89872B3
:10946000D5F808B0F36CD4F898125FFA8AFA8AF348
:109470001188D4F89CA20B4400FB0AF1A1EB0B016C
:10948000B1FBFAF100FB0313CEE7EFF3118A89F386
:109490001288D5F808B02B68D90344BFC4F8987275
:1094A000D5F808B0F36CD4F898125FFA8AFA8AF308
:1094B0001188D4F89CA20B4400FB0AF1A1EB0B012C
:1094C000B1FBFAF100FB031345E7EFF3118189F3D8
:1094D0001288D5F808A02B68DA0344BFC4F8987244
:1094E000D5F808A0F36CD4F89822C9B281F311889A
:1094F000D4F89C121A4400FB01F3A3EB0A03B3FB5C
:10950000F1F300FB023273E7EFF3118189F3128864
:10951000D5F808A02B68DB0344BFC4F89872D5F8CF
:1095200008A0F36CD4F89822C9B281F31188D4F85A
:109530009C121A4400FB01F3A3EB0A03B3FBF1F303
:1095400000FB0232E7E6D8F81830002B3FF42BAFCF
:10955000D8F804200023136088F8153023E700BFF3
:10956000684100207030002010E000E0781F0020EB
:1095700000ED00E0D8F81830002B3FF4A6AED8F884
:109580000420B4F89412044BB3FBF1F35B101360A6
:1095900088F8157099E600BF40420F000E4B30B4BA
:1095A000DB68427801780D4CDB43C3F30223C3F13F
:1095B0000403DBB202FA03F360181B0101F01F057C
:1095C0000122490903F0F003AA4080F8003344F86F
:1095D000212030BC704700BF00ED00E000E100E05A
:1095E00030B503685A4D5B4C1A882868B0FBF1F01F
:1095F000A34200F1FF3083B080B292B211D056493D
:109600008B420ED0B3F1804F0BD0A1F580318B424D
:1096100007D001F580618B4203D001F580618B4258
:1096200002D122F0700292B24C498B4268D001F50F
:1096300080618B4243D022F4407201F56C4192B2BA
:109640004FF6FF748B421A80DC62188564D10022C9
:109650001A8601229A821A883E4992B242F0010289
:109660008B421A8063D0B3F1804F62D03C4A934260
:1096700061D002F5806293425FD002F5806293422E
:109680005DD002F5806293425BD002F58062934226
:1096900059D002F59632934257D002F58062934238
:1096A00013D002F58062934208BF09220ED04FF01A
:1096B000012301A80193FFF771FF03B030BD4FF6FE
:1096C000FF711A80D9621885C3E70822254B03EB86
:1096D000C20301A893F871408DF8044001224FF4B1
:1096E00080738DF80520ADF80630FFF757FF1B2C6F
:1096F000E3D11D4B019301A8FFF750FF03B030BD2C
:1097000001214FF6FF741A80DC62188599821A884D
:1097100092B20A431A80A9E70F4A934297D00122D6
:109720009A821A8892B242F001021A809BE70022C4
:10973000CCE70122CAE70222C8E70322C6E70422D7
:10974000C4E70522C2E70622C0E70722BEE700BF42
:10975000781F00200000014000040140001000407C
:10976000000400403C1E06081901000100F01F0221
:1097700040090123032803FA02F304D004280CD083
:10978000022805D07047074A116C0B4313647047D9
:10979000044A516C0B4353647047024A116B0B43EC
:1097A000136370470038024000285FD00368374ACF
:1097B0002DE9F04103F13F4404F57E0402EB9422CD
:1097C000012492F8642002F01F055209032A04FACA
:1097D00005F456D0042A4FD0022A48D08588B5FA1D
:1097E00085F0C0F11F00C0F3CC0603EB860600F045
:1097F000070082000F24306A944020EA040030629F
:10980000306A01FA02F20243002132624FF0010E87
:109810000A464FF0030C02270EFA02F838EA050058
:1098200002F101021CD118680CFA01F420EA0400CC
:109830001860186807FA01F606431E609E6826EA5B
:1098400004069E6098689860586820EA080058608E
:1098500058685860D86820EA0400D860D868D86092
:10986000102A01F10201D7D1BDE8F0817047084A02
:10987000556C2C435464B1E7054A156B2C431463B3
:10988000ACE7034A156C2C431464A7E73C1E06089A
:109890000038024000487047E4320020002877D0AA
:1098A000F0B58388B3FA83F3202B83B00446C3F169
:1098B0001F0258D0374D384E15444FF0004006EB8C
:1098C000820230FA03F395F8BC50C2F8A41205D016
:1098D000324A116821EA03011160536120460021D8
:1098E00035F024FDA38822682C49B3FA83F7C7F129
:1098F0001F0404F0FC0000F1804000F59C3004F0EF
:109900000304A40002F13F434FF00F0C82680CFAED
:1099100004FC22EA0C02826003F57E038268C3F332
:109920008723A340134383600A681D484FF0004318
:10993000FB4022EA03020A604A6822EA03024A6004
:109940000A681A430A608A6822EA03028A60CA68BF
:1099500022EA0302CA6002682E441343036096F8A9
:10996000E432F02B01D803B0F0BD0E4B5B5D8DF8F7
:109970000430F02103224FF4807301A886F8E4122A
:109980008DF80520ADF80630FFF708FE03B0F0BDF6
:10999000704700BF3C1E060868410020003C0140A3
:1099A000083C0140008406082DE9F041684CD4F8D9
:1099B00038331E78012E84B01AD194F8F427013A76
:1099C0001A7194F8F55704F54E77002D08BF6825F5
:1099D00038464FF0000833460DF10502752184F832
:1099E0003C538DF805803EF023FC0546002844D109
:1099F000D4F8383302221A7094F8F33723B90025CB
:109A0000284604B0BDE8F08194F8F21751483EF0C2
:109A100085F905460028F2D094F8F30739F0A8FC40
:109A200094F8F037C4F840030133DBB210B12422BC
:109A3000C3718271092135F079FCD4F840033AF002
:109A400003F8454AD36C632BFCD94448444F454E38
:109A5000DFF800813EF09AF9A4F83C0302E057F8E1
:109A6000046B5EB34046B04703460028F7D0394840
:109A700084F800343EF058FBC2E738463EF054FB11
:109A80003346414638460DF106023EF0D1FB9DF8C3
:109A9000063003F07E038DF8063008B1682B15D030
:109AA0009DF8053003F07E03682B8DF8053010D04B
:109AB000702BA5D1042384F80034A1E794F8F307B0
:109AC00039F056FC3DF098FF354699E784F800647C
:109AD00096E7062302261F4884F80064194602AA66
:109AE0003EF0A6FBD8B19DF80D309DF80B209DF8F7
:109AF0000910B3405200324003F00403134301F055
:109B0000010213430BD0012B1DD0022B17D003F001
:109B10000303032B13D003203DF032F870E70D4808
:109B200001230DF107020C213EF082FB0028F2D048
:109B30009DF8073013F00F03EDD0042B03D0012361
:109B400084F801345CE7002384F8013458E700BF4F
:109B500068410020A04400207030002040420F00E7
:109B60000C1F06085D640508024B5A6F136A002B30
:109B7000FCD17047781F0020B0B10C49D1F80038F3
:109B8000102B03D10521002035F070BD03EB4302FB
:109B90000A4482F80408202082F8050801200344C2
:109BA00082F80608C1F80038704700BF68410020FD
:109BB000F0B53E4CD4F838231378012B95B006D07D
:109BC000022B01D1136AE3B1002015B0F0BD92F968
:109BD00004506A1CF8D0022DF6DC0DF10E06024688
:109BE00094F83C130096284654F078F90028EBD0FE
:109BF000284654F023FA0028E6D09DF80E0015B050
:109C0000F0BD60F07F0001210DF10F058DF80F0010
:109C100000260DF10E000027CDE90833CDE90E67CF
:109C200005938DF81C300D931093129304950691B3
:109C30000B918DF830108DF844100A90EFF31180DD
:109C4000102383F31288D4F838331B6A0BB3069BB6
:109C500004AD29461BB1CB691431002BFBD1136A2B
:109C60000BB39A683AB98B420AD01A682AB15B687A
:109C70009A68002AF7D01433F3E70D4AC3E90025A8
:109C8000C0B280F31188D4F83823136A002BFCD1BA
:109C9000B3E704ABC0B2136280F3118804F54E70D1
:109CA00050F046F9EFE7024A1A60FFDE68410020F3
:109CB000A04400202DE9F04F2DED028BAA4C95B069
:109CC0001E2204F63400002157F00CFF94F854389B
:109CD0001BB194F8553884F8343894F856381BB1D1
:109CE00094F8573884F8393894F858381BB194F8F8
:109CF000593884F83E3894F85A381BB194F85B38D8
:109D000084F8433894F85C381BB194F85D3884F8D3
:109D1000483894F85E381BB194F85F3884F84D38B1
:109D200094F866380393013B5FB2DBB202937B1C6D
:109D300000F0B0808D4B8E4E53F83720019203EB2C
:109D4000C7034FF0000A1B7908EE103AB146D0461F
:109D5000D34699F800503946284645B33EF0D2FC28
:109D6000034628461D4613B339F002FB0BF10703E7
:109D70001321DBB220B14FF0000C837180F807C0D3
:109D800035F0D4FA99F800003EF0EAFC08F101033E
:109D900089F802805FFA83F84FF0070389F80430EE
:109DA0004FF0010389F80100AA4689F803300BF14E
:109DB000010BBBF1060F09F10509CAD118EE100A13
:109DC000FFF7D4FC6B4A6C4B51680B4043F44033B3
:109DD000536017B9BAF1000F0BD1684D4820FFF757
:109DE000C5FC2846022154F099FAAB6843F0010300
:109DF000AB606049614B4A68B4F8600842F4000205
:109E00004A605A6822F480525A609A6B22F44012D7
:109E100042F480129A63DA6842F46002DA609D6B61
:109E200085F44012C2F3015202EB82021F2101FAB3
:109E300002FC25EA0C054FF0110C0CFA02F22A4341
:109E40009A63DA6842F0E062DA609D6BC5F3015212
:109E5000C2F10402D2B202EB820291404FF0120C26
:109E600025EA01050CFA02F22A439A63E8B1B4F834
:109E70006228C4F86C08AAB1B4F86438C4F8702831
:109E80006BB13F499B1A91FBF3F3C4F87438BAF1F4
:109E9000000F0DD115B0BDEC028BBDE8F08F394B32
:109EA0001B88EEE7384B1A88E6E7384B1888DEE760
:109EB000019D4146284654F031FA06F11E0E01215B
:109EC00017E0EB6823EA0B031A43EA604B1E03EB2F
:109ED00083031F22062902FA03F90CFA03F329D897
:109EE0006A6B22EA0902134301466B630536764525
:109EF0004ED0F378481CC0B2002BF7D096F801C0C2
:109F00003379ACF10A0202EB42024FF0070A0CEB84
:109F10004C09BCF1090F0AFA02FB03FA02F20AFA31
:109F200009FACED82A6903FA09F322EA0A0213438E
:109F30002B61CBE7CA1FA1F10D0302EB82024FF0A8
:109F40001F0A03EB83030C290AFA02F90AFA03F148
:109F50000CFA02F200F284802B6B23EA09031A4305
:109F600001462A63C2E700BF68410020281F060897
:109F70009C49002000230140E030FCFF002001400C
:109F8000803801002E7AFF1F2C7AFF1F2A7AFF1FCC
:109F9000019A0299936843F400739360936843F4C1
:109FA0008073936093683C4443F0010393601746C9
:109FB000022094F967283DF031FC044600283FF464
:109FC00069AF466830463DF0A3FC2A4A431E24216F
:109FD00001FB032393F89C50002D7FF45BAF0399A2
:109FE00083F89D10062283F89C2000283FF452AF8E
:109FF00030463DF08DFC4EF019FC60680CF00CF81A
:10A0000005A80BF0CBFFB8F1010F8CBF4FF48063B4
:10A010000023A2680B933B46174801974C330592E7
:10A020004FF400674FF48072069307904FF40033AB
:10A0300060680A9505A94FF40056CDE90E23CDE9D5
:10A040000C76CDE908580BF0BBFF6268019F1368DE
:10A0500043F001031360BB6843F08043BB6019E722
:10A06000EA6A0CFA03F322EA010213430146EB62A7
:10A070003CE700BF98010020E04900202DE9F84F9F
:10A080002E4F00EB800407EBC404D4F888682EB18F
:10A09000054694F89D0800F0FF0820B14FF0000835
:10A0A0004046BDE8F88F89469A46934635F082FED1
:10A0B0004FEA49010123C9B284F89E1884F89FB879
:10A0C00084F8A13884F8A28884F8A03884F89D38F0
:10A0D00084F89C88B288C4F8A4A891058146C4F885
:10A0E000A8A81DD43388DA0510D442F20F7405E015
:10A0F00035F060FEA0EB0903A34215DC33889B0515
:10A10000F6D433889BB243F480733380B3889BB218
:10A1100043F440734FF00108B3804046BDE8F88F28
:10A1200098464046BDE8F88FB7F8FC3801339BB23B
:10A130002846A7F8FC3853F02FFDB1E7684100200E
:10A140000128B5EEC00A10D0F1EE10FA0BDD9FED3C
:10A15000177ADFED177AE0EE077AFCEEE77A17EE72
:10A16000903A98B2704700207047F1EE10FA0BDD7C
:10A170009FED107ADFED107AE0EE077AFCEEE77AD9
:10A1800017EE903A98B27047EDD5F7EE007A30EEC0
:10A19000270A9FED0A7ADFED0A7AE0EE077AFCEEF5
:10A1A000E77A17EE903A98B2704700BF00E0F944A2
:10A1B0000000404200C079440000834400C079C4DC
:10A1C00000E0824470B5464E96F8FE4804EB8403E6
:10A1D00006EB8303A50093F80039032B6ED8DFE864
:10A1E00003F059291E02254406EB8505D5F804091C
:10A1F000002870D196F850399C425FD0013404F0A9
:10A200000302934286F8FE2858D002EB820406EB44
:10A2100084040223C4F8040984F8003970BD2B19A2
:10A2200006EB8303D3F8042972B1013AC3F8042979
:10A23000002070BD2B1906EB8303D3F80429002AF4
:10A24000F3D1022283F80029254406EB850595F811
:10A250000C39013BDBB285F80C398BBB214B96F8EE
:10A260005069D3F8C012D5F80809621C02F0030245
:10A270004B1E0324B242034485F80049B3FBF1F0BE
:10A28000C5F804091AD0994218D80138C5F804094C
:10A29000012070BD3EF020F980B1124B2C44D3F860
:10A2A000C02206EB8404012102F51C5384F8001936
:10A2B0000F33B3FBF2F3C4F8043970BD012070BD55
:10A2C000084BD3F8C022012002F2E733B3FBF2F3CC
:10A2D000C5F8043970BD0138C5F80409002070BD07
:10A2E000684100209801002003681A78012A01D0F3
:10A2F0000020704793F90430044A03EB830302EB18
:10A30000C30393F89D08C0B2704700BF68410020A6
:10A3100010B50C4CD4F854391B78022B10D1D4F85A
:10A320005C0939F091FBD4F85C0908B12323C380A0
:10A33000012134F0FBFF04483DF028FDA4F8580942
:10A3400010BD00BF684100208096980030B583B0F2
:10A350000D46012301460DF10702044607483DF072
:10A3600067FF9DF8072035EA020304D003482A431B
:10A3700021463DF0F3FF03B030BD00BFBC4A0020D2
:10A3800038B505460A460C46064829463DF02AFEE1
:10A3900045F0800103483DF023FD231A58425841FF
:10A3A00038BD00BFBC4A0020F0B53B4CD4F854592E
:10A3B0002B78022B95B018D0012B02D0002015B0BD
:10A3C000F0BD95F904506B1CF8D0022DF6DC00911D
:10A3D000134694F858190246284653F07FFD00288A
:10A3E000ECD0284653F02AFEE9E72B6A002BE5D192
:10A3F0000DF10F0C8DF80F00002601200027CDE98C
:10A400000833CDE90A12CDE90E6705938DF81C30AB
:10A410000D9310931293CDF810C006908DF8300074
:10A420008DF84400EFF31180102383F31288D4F8E1
:10A4300054391B6A13B3069B04AE32461BB1D36971
:10A440001432002BFBD12B6A13B3996839B99342AC
:10A450000AD0196829B15B6899680029F7D01433CC
:10A46000F3E70E4AC3E90026C0B280F31188D4F89E
:10A470005429136A002BFCD10120A0E704ABC0B221
:10A480002B6280F3118804F654104FF051FDEEE773
:10A49000024A1A60FFDE00BF68410020BC4A00206B
:10A4A00070B503681D78022D14D0012D01D0002055
:10A4B00070BD044693F904000A4B421C83F8205AED
:10A4C000F5D00228F3DC0A4603F522632179BDE8C2
:10A4D0007040D3E51B6A002BE9D101223DF082FDDB
:10A4E000012070BD6841002013B53A4C0023D4F818
:10A4F000302A8DF80730137803F0FD01012905D1CA
:10A5000094F8341A11B90C2184F8341A022B1ED095
:10A51000032B2ED001220B212F484BF0E7FD042006
:10A5200035F074FC2C4801230DF1070200214BF09B
:10A53000FFFD002839D09DF80730482B35D1274B37
:10A54000C4F8243A264BC4F8283A02B010BDD4F817
:10A55000380A39F079FAD4F8380A08B13623C380BA
:10A56000012134F0E3FE1F483DF010FCA4F8340A4A
:10A57000D0E7D4F8E03E506846F2A81119610023F4
:10A5800080F88830122237214BF084FDD4F8303A1D
:10A590000D22586824214BF07DFDD4F8303A30224A
:10A5A00058686A214BF076FDB4E7D4F8303A1A784F
:10A5B000022A03D0032A07D00020C6E7D4F8380ABD
:10A5C0003DF01AFA0020C0E75868102237214BF0FE
:10A5D00061FDF1E768410020984B00208F6105087C
:10A5E000116205088096980010B58CB000234CF2DB
:10A5F0000502044601A9CDE90633CDE90833ADF8DB
:10A6000000208DF8023003220B930123CDE90312C1
:10A610008DF814308DF82830CDF808D03DF07EFD4F
:10A62000204602A93DF008FA20463DF077FD9DF84E
:10A6300006000CB010BD00BF084800230246117888
:10A64000022902F1060204D00133062BF7D10020C3
:10A65000704703EB430300EB430070474852002070
:10A660002DE9F041614C82B02422A4F118000021B0
:10A6700057F038FA677C0023E360002F3AD15C4E34
:10A68000D6F8B43053B39B6A43B35A4898478368AB
:10A6900023B303885848013B9BB2844606460025F5
:10A6A0003178032906F106061CD00135062DF7D1B5
:10A6B00000220178022900F1060000F08A800132B0
:10A6C000062AF6D1E168052908D0481C02FB01C220
:10A6D000E06002200021938010705180384602B063
:10A6E000BDE8F081062303FB054535F8163C013B28
:10A6F0009BB2DDE7207C04F11803636110B93C4E86
:10A700000027BDE738F034FE206218B183790BB121
:10A71000422BF4D1394839463DF000FB80460028F1
:10A72000EDD06369334A9868C3F8942008B12223B6
:10A73000C380092134F0FAFD63692D4E986839F021
:10A7400083F92F4865693DF021FB0123A880322061
:10A75000C6F8D45086F8D83035F058FB0423606929
:10A7600000250DEB03029F2101953DF0E7FB9DF8CD
:10A7700005509DF804309DF806102D0245EA03456A
:10A780000D43294606F1B4004AF0DCFF58BB2846C9
:10A79000FDF7D6FE38BB9DF806509DF805309DF8B4
:10A7A00007202D0245EA0345164B15439D4214D060
:10A7B000C6E92F00A6F8B800A6F8C4002846FDF7A1
:10A7C000BFFE074678B9207C38F0D2FD3DF014F981
:10A7D00056E7062101FB02C27BE706F1B4004AF00E
:10A7E00069FF0028EAD047464AE700BF60520020D0
:10A7F0007030002024310020485200207852002080
:10A80000404B4C0021AAEF00F0B40D6800240CE08E
:10A81000BCF1050F18D8A0F137030A2B14D104EBB3
:10A82000840415F8010B03EB4404A0F13003DEB2FD
:10A83000092EA0F16107A0F1410CF0D9052FE7D84E
:10A84000A0F157030A2BEAD00D601460F0BC7047EA
:10A850002DE9F041C44BC54EC54DC64C0822C3F886
:10A860008820336B82B043F00103336307464FF413
:10A87000C052284640F2023388466946CDE900239B
:10A880000BF0FCFC6B6AC4F8948623F470436B6293
:10A890006B6AC4F89C7643F420436B626B6AB649DA
:10A8A000C4F8981623F470236B626B6AB348C4F83B
:10A8B000B00043F420236B62736CB149C4F8B41048
:10A8C00043F480437364736BAE48AF49C4F8C0006F
:10A8D00043F0800302257363AC4F84F8B850AC4E4C
:10A8E000AC4DC4F804114FF0A043C4F8BC30AA4AE0
:10A8F000C4F8CC7003F53463A1F5D071C4F80851E5
:10A90000C4F8D060C4F80C31C4F8D4100123DFF8C7
:10A91000B8C2C4F8C8C007F51077A5F5E465A6F578
:10A92000A066A1F58C61C4F81071C4F8C450C4F8D5
:10A930007C6184F8BB3005F5A075536106F5B076EF
:10A94000C4F8401184F8C2311946944B944AC4F8B3
:10A950004851A7F5BC67A035C4F85461914EC4F8BE
:10A960005071C4F8583107F5D45703F56953C4F84A
:10A970005C514FF050250020DFF850E2C4F88021F0
:10A98000ACF5687C02F5A042C4F88471C4F8886113
:10A9900007F5A04706F5A046C4F88C31C4F89051DD
:10A9A000A3F5485304F1B005C4E96676C4F89421D0
:10A9B000C4F8BC31C4F844E1C4F84CC102462B468B
:10A9C00084F8C401402683F81C21A3F82221013217
:10A9D000042AC3E9496083F81D1183F81F01C3F8F5
:10A9E000300103F12803EED1002211462B4640200E
:10A9F00083F87423A3F87A230132042AC3E9DF0120
:10AA000083F8751383F87713C3F8881303F12803C9
:10AA1000EED14FF0A04364489A6822F001029A6098
:10AA2000DA6842F04002DA600AF0E6FC94F8B930E5
:10AA30000022212161F317420BB142F4801294F8F5
:10AA4000B310D4F8BC3001299A6300F0E480DA68CE
:10AA5000D4F8BC61D4F8C000C2F3076121F06001F2
:10AA600041F0400161F31F620021DA603160026849
:10AA700061F3CC22026094F8BB20012A00F0B88078
:10AA800010214A480BF00AF848480AF0EDFFD4F8C4
:10AA9000C00094F8B13000224FF0FF3102614261F2
:10AAA0008161C26153B305F11407414E114607EBB2
:10AAB00083074FEA830C4FF0FF0E56F8042F1368FC
:10AAC000002BACBF00234FF09043B74213601161DD
:10AAD000C2F808E0F1D105F150033649634400277C
:10AAE000FF2651F8042F1568002DACBF00254FF04C
:10AAF00090459942156017619660F2D1036994F808
:10AB0000B31043F480730129036161D0D4F8BC20F1
:10AB100029480023936100294FF0FF336FF08041F3
:10AB200051615360516114BF00231023906143F4BD
:10AB300070139069D4F8981643F4605343F00803F7
:10AB4000034393619368096843F001039360884766
:10AB50001A4B1B4ADA6068461A4B0093FEF71EFD3B
:10AB600002B0BDE8F08100BF00E100E00038024023
:10AB700000000240605200205C0400200804010034
:10AB80004000400100080050000B00502009005018
:10AB900040090050200B0050003C0140C00500500F
:10ABA00000100050003000501C53002010530020B3
:10ABB00024530020605300200008008000ED00E0D6
:10ABC0000005FA054302000100090050200500506D
:10ABD000D4F8BC20144B03636FF08041134D002365
:10ABE0004FF0FF30936151615060516195619EE774
:10ABF00001680F4A0F4E41F0030101608021596244
:10AC00009E62C3F80421E022C3F80821C0F240028A
:10AC1000C3F80C2134E79A6822F03E0141F02A0182
:10AC200061F307029A6012E70301810000080080C7
:10AC3000A00040008000200010B5184C94F8A50634
:10AC400088B9174B83F86D00186794F8A836012B64
:10AC50001FD0D4F8AC3603B312495B68BDE810408E
:10AC6000A1F10C00184738F083FB94F8A7260C4993
:10AC7000003A18BF012281F86D2008670028E4D04F
:10AC80002122C280202134F051FB94F8A836012BF8
:10AC9000DFD1054BC4F8AC36DEE710BD60520020B2
:10ACA000781F0020105900207804002099B10A6B09
:10ACB000824216D9154BD3F8EC26914221D34C3958
:10ACC00091421ED30B6B9842F9D38B6B9842F6D806
:10ACD0000B46184670470D4BD3F8EC160A6B9042A2
:10ACE00012D30B680BB9F4E70A6B90420B4602D300
:10ACF0008A6B9042EDD951F84C3F002BF4D11846A5
:10AD000070470023184670470A46D8E76052002073
:10AD10002DE9F047CC0143D10346224A43F8082BE2
:10AD20004FF0FF324260022418467E26DFF878801A
:10AD3000D8F8F0962644013E051D49466FF070474D
:10AD40004FF0010A08E0A3421CD0631C45F8043C04
:10AD5000321B1C460435CAB10B6BA34202D88B6B65
:10AD6000A34204D22046FFF7A1FF014690B10A7921
:10AD70004B6B002AE7D1A34204D0E6D245F8042C5D
:10AD8000631CE5E745F8047C631CE1E7C8F8F016AE
:10AD9000BDE8F08745F804AC321B631C4946D8E790
:10ADA0008026C3E7F8FFFF0F6052002070B444799B
:10ADB00041BB03684FF400524FF400762025022176
:10ADC0003CBB1A8C22F001021204120C1A841A8B5A
:10ADD000188C22F0F30280B2120420F00A00120C48
:10ADE000014342F0010241F001011A8319841A8BD8
:10ADF00022F00C021204120C1A831A8B92B270BC4D
:10AE00001A83704700220368164615461146002C27
:10AE1000D7D0042C21D0082C38D0198C21F48051A3
:10AE20000904090C19849C8B1D8C45F6FF7040F6B3
:10AE3000FF4128402140024342F4805241F4807196
:10AE400099831A849A8B22F440621204120C9A831A
:10AE50009A8B92B270BC9A8370471A8C22F01002BF
:10AE60001204120C1A84188B198C89B240F6FF4216
:10AE700021F0A00102400D4342F4807245F010051C
:10AE80001A831D841A8B22F44062B3E71A8C22F4D1
:10AE900080721204120C1A84998B1A8C21F0F3011F
:10AEA00092B2090422F42062090C324342F4807207
:10AEB00041F0010199831A849A8B22F00C02C4E7B5
:10AEC00010B5044600680BF0DDF80C4B1A682046FC
:10AED00052084FF6FF7133F077FE20460021FFF74E
:10AEE00065FF0749074BC1F8FC3C20460022BDE83E
:10AEF000104001F6FC4133F075BD00BF781F002003
:10AF0000703000208BB001082DE9F047164D074640
:10AF1000002095F9FD9605F2047684B007EB010850
:10AF200005F6A41504464FF0B60A3368ABB193F8A2
:10AF30003830142B11D019F1020F01D04B450CD130
:10AF4000002269463046CDE90244CDE90078ADF8EB
:10AF500008A08DF80D402CF015FDE036B542E4D187
:10AF600004B0BDE8F08700BF60520020B5EE400A93
:10AF7000F1EE10FA04D0F5EE400AF1EE10FA07D126
:10AF8000074B0849084A8260C0E900310C30184775
:10AF9000064B0749044A8260C0E90031F6E700BF6A
:10AFA000A1FD04089DEC040801EC04085DF504080B
:10AFB00055EC04082DE9F04FA84AA94CB2F8F0125C
:10AFC000B2F8EE322DED068B07EE901A0AEE103A2B
:10AFD00094F8793DDFEDA3AAF8EE679A07EE903A70
:10AFE000B4F87A3DF8EEE77AF2EE046A0A2B87EEBF
:10AFF000A67AB8BF0A239246002285B004F6A417A9
:10B00000C4F8B42904F6845904F6945B04F6AC56EB
:10B0100007EE903AB4F87C3D87ED007A08EE103ADE
:10B02000F8EEE78AB8EEC88AB6EE009AF4EE488ADF
:10B0300029EE890AF1EE10FAC8BFB0EE688A94F8DA
:10B04000783DC7ED018AB4EEC80AF1EE10FAD8BF18
:10B05000B0EE408A082BA8BF0823B1F57A7F38BF2D
:10B06000134680EE080AC4F8B03987ED028A54F01E
:10B07000D7F9B7EE007AB4EE470AF1EE10FA48BFFE
:10B08000B0EE470AFDEEC07AB8EE4AAAF8EEE76ADB
:10B0900017EE905ACAEE297A04F68853C4F8805DF8
:10B0A00067EEA67A87EE276A89EEA67ADFED6E7ADA
:10B0B00089ED006AC7EE279A88EEA90AC3ED009AC7
:10B0C00054F02EFA0228B8BF022088EE290A8046E2
:10B0D000C4F88C0D54F024FA2328A8BF2320B8F11B
:10B0E000230FA8BF4FF023084045C4F8900DB8BF08
:10B0F000404609F22473012DA0EB0801DBED007A34
:10B100009FED5A8A00938146B8BF01250131F5EEC3
:10B11000407AF1EE10FA2CD1554A9FED56AA0195CE
:10B12000002302961D46164607EE905AF8EEE79A5F
:10B13000039169EEAA9A0135B0EE690A49F0A2F8C6
:10B14000F0EE408AB0EE690A49F028F8A8EE880AC5
:10B15000242D039920EE0A0A68EE8A8A86ED000AF9
:10B16000C6ED018A06F10806DED1DDE90156DFED04
:10B17000427A91FBF5F2002346E9053846F8082C9F
:10B1800046F80C9C46F8045C32460133482BA2EC8E
:10B19000018AFAD13948D0F8F4C0D0F8F80006F5A1
:10B1A000907300220132242AC3F800C0586003F1D2
:10B1B0000803F7D1009B06F515769E42A7D1DFF86C
:10B1C000C490DFED2F8ACBED007A0026B819CB466C
:10B1D0004FF00008D4F8B039984500F1240531DA71
:10B1E00007EE908A97ED016AF8EEE76AD7ED027AEA
:10B1F00036EE897A77EEC67A743067EE877A07EE94
:10B20000103AB8EEC77ABAF8EE3287EE870A042110
:10B2100008F1010800EE903A30EE060AF8EE600AF6
:10B22000ABEC010A97ED001A85ED178AA6EEA81A75
:10B2300085ED168A85ED158A85ED148A49F048F961
:10B240002846C7E706F59076B6F5587F09F120093C
:10B25000BCD105B0BDEC068BBDE8F08F6841002085
:10B2600060520020C3B8B23D0000904200000000D0
:10B27000F466002072F97F3FBC297E3F3C1E060821
:10B28000CDCC4C3E185C00202DE9F04F2DED028B0B
:10B29000DFF89C81DFF89CA19FED608A85B008F102
:10B2A00030040127FEB218F8010B3246592133F061
:10B2B00041FE0546002800F08C800368A060012252
:10B2C000B3F1804F04F8282C00F08E80544A93424A
:10B2D00000F08A80DAF8003007EE903AF8EE677AEC
:10B2E000002180204F4A44F8100CA2FB0323DB0806
:10B2F000002244F80C3C4FF4005C012344E906C2F0
:10B3000018F8010C44ED087A04F8271C04ED098AAA
:10B3100044F8082C24F81C3C24F81A3C38F028F88F
:10B32000E06010B15923C6718371DFF80C9199F870
:10B33000C034012B6FD0022B0CBF422102216A7A4C
:10B3400038F002F9DAF800102846FEF749F914F847
:10B35000273C002B51D02146334B41F8043D0022BD
:10B36000284633F03FFB99F8C1342868002B4FF092
:10B37000010B14BF00230223CDF808B06979ADF8A2
:10B3800006300423ADF804100DEB0301ADF80C30CA
:10B390000AF06EFC54F8103CA16899F8A4050968FD
:10B3A000013E013B9BB2F6B20B854FF0FF3200230A
:10B3B0004FF40055B042CA62A1F814B044E90653F4
:10B3C00024F81CBC24F81ABC44F8083C01D133F022
:10B3D000F7F80137052F04F138047FF463AF05B0A7
:10B3E000BDEC028BBDE8F08FDAF8003007EE903A42
:10B3F0000121F8EE677A084674E70C48DFF83CC094
:10B4000044F8040C63602246211F2846C4F800C09B
:10B4100033F0E8FAA7E7222191E700BF000000001F
:10B42000000C00401F85EB51C9DC0308FDDD03085B
:10B4300014680020781F002058630020E5E5030809
:10B440000C480D4BD0F8C01510B40C4CC0F8B035FA
:10B450008A1E2231B0F8CC351B01A4FB03C3DB08E4
:10B46000A3F5B06322F8023F9142F3D15DF8044B9B
:10B47000704700BF58630020C9110208CDCCCCCC66
:10B4800070B5084C251D2E4614F8010B2CF096FCC7
:10B4900028B1037905F8013BB442F5D170BDFF2313
:10B4A000F8E700BF386900202DE9F0471D4F01265D
:10B4B00007F10805B2464FF03D094FF0000817F8B4
:10B4C000010B37F055FF044690B180F80690C67125
:10B4D000FB7803F07F02012A18D013F0800F20467A
:10B4E0000DD185F8048038F0A9FA85F805802C6024
:10B4F0000136052E05F10805E1D1BDE8F08785F894
:10B5000004A038F0A1FA85F805A0F0E71B0605D4E1
:10B510000121204633F00AFFFB78DEE738F094FA89
:10B52000F6E700BF406900202DE9F04F0C68B64EE9
:10B53000B64F25883668B6FBF2F2013B013ABC42B1
:10B5400096B283B09BB2AAB211D0B14DAC420ED02C
:10B55000B4F1804F0BD0A5F58035AC4207D005F58E
:10B560008065AC4203D005F58065AC4202D122F083
:10B57000700292B2A74DAC4211D005F58065AC4285
:10B580000DD022F4407205F56C4592B2AC42228097
:10B59000E362268540F021810023238602E0228099
:10B5A000E36226850126A6820B7A4A7913F002050A
:10B5B00072D00021DB0003F008038E46019188461B
:10B5C0000F468C460E464FF480654FF0400A4FF010
:10B5D000040B0C2A08D8DFE802F0CC070707A00705
:10B5E00007071807070771000C2A3DD8DFE812F09B
:10B5F000EC003C003C003C00B8003C003C003C003F
:10B600003C003C003C003C008C00218CDFF8FC81BD
:10B6100021F480710904090C2184218CB4F8049070
:10B62000A68B89B226F0730621F4007136040F430D
:10B63000360C444547EA0C211FFA89F946F06006AA
:10B6400000F0D080724FBC4200F0CC800023A4F800
:10B650000490A683E3632184A38B23F008031B04D7
:10B660001B0C43F00803A383B4F844306FEA434350
:10B670006FEA53439BB2A4F84430238821469BB21F
:10B6800043F0010321F8343B00238D18C0E9005436
:10B690008B5003B0BDE8F08F5B004FF4806703F080
:10B6A000020C0197AA462B46AB464FF480414FF45B
:10B6B000805E4FF010084FF480778AE7238C534E5A
:10B6C00023F480531B041B0C2384238CB4F80480C4
:10B6D000A78B9BB227F4E64723F400533F044EEABE
:10B6E00003053F0CB44245EA0C3347F4C0471FFA48
:10B6F00088F500F0848006F58066B4427FD0002192
:10B70000A580A78321642384A38B23F400631B04F7
:10B710001B0C43F40063A383A6E7218C3B4E21F06E
:10B7200010010904090C2184218CA788258B89B27A
:10B7300025F4E64521F020012D0448EA01012D0CF5
:10B74000B44241EA0C11BFB245F4C0456FD006F5D2
:10B750008066B4426BD00023A7802583A363218435
:10B76000238B23F400631B041B0C43F4006323832B
:10B770007AE7218CDFF894E021F001010904090C3B
:10B780002184258CB4F80480B4F8189025F00205C3
:10B7900029F073092D044FEA09494CEA06012D0CE2
:10B7A0004FEA1949744545EA01061FFA88F849F03D
:10B7B000600931D016498C422ED00023A4F80480B1
:10B7C000A4F8189063632684238B23F008031B04DA
:10B7D0001B0C43F00803238346E70D4B9C423FF4C8
:10B7E000DBAEDFE621F4006141EA032323F480634A
:10B7F00029F4405943EA050149EA0E0926E725F4F0
:10B8000080450D437BE700BF781F0020000001400A
:10B8100000040140001000404FF6F375354028F455
:10B8200040782B4348EA070843EA0B06C5E721F0B6
:10B83000800141EA031323F04001019B27F4406794
:10B8400041EA0A011F4386E7354BB3F8EE3207EEB3
:10B85000103A2DE9F041BAEEEF7A2DED048BB4EEFB
:10B86000C70AF1EE10FADFED2F8AB0EE408AF0EE53
:10B87000607AF0EE419A06DDF4EEC70AF1EE10FAB6
:10B8800045D5B0EE478AB5EEC08AF1EE10FA43DD39
:10B89000F5EEC07AF1EE10FA3EDD27EE887A67EE1B
:10B8A000E77AE8EE087A87EE279A1F4E1F4FDFF8F7
:10B8B000848000F10C0400F19C0544E9028744F8FF
:10B8C0000C6CB5EEC08AF1EE10FA19DDB5EEC09A37
:10B8D000F1EE10FA14DD164B44F8083CC4ED038A6F
:10B8E000C4ED028AC4ED018AC4ED008A0421B0EEE1
:10B8F000491AF0EE690AB0EE480A204648F0E8FD21
:10B900003034AC42D9D1BDEC048BBDE8F081B0EE4F
:10B91000688AB0EE689AC8E79FED029AC5E700BF53
:10B920006841002000000000A1FD040801EC0408AB
:10B9300055EC04089DEC04080A44914215D030B43B
:10B9400041F2210511F8014B082380EA042010F48C
:10B95000004F85EA40040ABF4000A0B280B2013B1C
:10B96000F5D18A42EED130BC704770472DE9F041E5
:10B97000214E224F96F8133687F87C3206F5C266C0
:10B9800007F5207500244FF0050816F8010B20BBC1
:10B9900028600134032C05F10405F6D197F87C12D8
:10B9A000D7F88002C94301F0010138F053F897F845
:10B9B0007C12D7F8840281F00201C1F3400138F013
:10B9C00049F897F87C12D7F8880281F00401BDE8A5
:10B9D000F041C1F3800138F03DB837F0C9FC0134C3
:10B9E00001212860E3B210B180F80680C371286895
:10B9F00033F09CFCCEE700BF586300206841002074
:10BA0000F8B5244C244EB4F81856A6F88C52E5B973
:10BA100094F8140637F0ACFC94F81526C6F890029A
:10BA2000003A18BF012286F88E2248B194F8161603
:10BA30002D22002914BF11210121C28033F076FC90
:10BA4000BDE8F840002038F09BBA94F81476002244
:10BA500038462D2133F06EFA0446384637F088FC1C
:10BA6000B0B1ACB10D4F2D22B861C280617AFDF743
:10BA70009BFE0B49B1FBF5F12046C1F34F0289B2A1
:10BA8000A6F89452FCF7BCFA7A68002313607B7521
:10BA9000F8BD00BF5863002068410020781F0020D7
:10BAA00040420F002DE9F84F244C94F8243684F8D6
:10BAB0001A3604F21B67002604F5C7645FFA86FB9A
:10BAC0000BF101085FFA88F8012117F8010F4246CF
:10BAD0000E448A4633F02EFA4FF00009054638B37B
:10BAE000387804F80E9C04F80D9C04F80FBC04F898
:10BAF00010AC44F8045C37F03BFC18B180F806A0A9
:10BB000080F80780697AFDF74FFE0D492846FDF75A
:10BB100067FD0C4B23600C4B221D21462846C4E9CF
:10BB2000013932F05FFF697928684A462AF098FCAB
:10BB3000082E04F11C04C1D1BDE8F88F5863002021
:10BB400040420F0099640308511E030870B52B4C46
