:020000040800F2
:10000000000001202D310508C9310508B1FA0308A7
:1000100015FB0308C9310508C931050800000000B7
:10002000000000000000000000000000C9310508C9
:10003000C931050800000000C9310508D1C3030813
:10004000C9310508C9310508C9310508C931050894
:10005000C9310508C931050865FC03085DFC0308C2
:1000600055FC03084DFC030845FC0308ED35000072
:10007000DD350000CD350000BD350000A93500009C
:100080009535000081350000C9310508C9310508E2
:10009000C9310508C9310508C93105083DFC030807
:1000A000EDFB0408E5FC0408DDFB04080DFD040875
:1000B000D5FC0408C5FC0408B5FC0408DD190508D6
:1000C000E9190508C5190508D1190508C931050838
:1000D000C9310508D1180000C5180000B918000082
:1000E00035FC0308C9310508C9310508CDFB0408F2
:1000F000FDFB0408C931050825FC04086D35000026
:10010000C931050865E80408A5FC0408C9310508DB
:10011000AD180000A118000035FC0408F1E4000847
:100120005935000045350000313500001D3500000F
:100130000935000000000000000000000000000081
:10014000000000000000000000000000B1E6000810
:10015000F5340000E1340000CD34000095180000B3
:10016000AD190508B9190508C9310508C9310508CF
:10017000C9310508C9310508000000000000000071
:10018000C9310508C9310508C9310508C931050853
:10019000C9310508C931050800000000C93105084A
:1001A000000000000000000000000000C931050848
:1001B000C9310508C9310508000000000000000031
:1001C000000000000000000000000000000000002F
:1001D000000000000000000000000000C931050818
:0801E000442C050001000000A1
:1001E8000E0201000200000094510120005201207B
:1001F80000000000BC800608FC5101201402010028
:10020800050000009851012008520120000000005C
:10021800BE800608045201202320010010000000BF
:100228007C5001201452012000000000518F040866
:10023800105201200D10010070000000A04F012095
:1002480028520120000000007349030824520120AD
:10025800FD01010024000000244F01209C520120D0
:1002680000000000A79D0308985201200610010015
:1002780030000000984E0120C45201200000000008
:10028800A18D0408C0520120FB01010001000000FB
:10029800944E0120F852012000000000F58C04085B
:1002A800F4520120FC01010009000000604D01200A
:1002B8000053012000000000FD8C0408FC520120BE
:1002C800F701010006000000344D01201053012001
:1002D80000000000C48006080C530120F901010049
:1002E80004000000244D01201C53012000000000E0
:1002F800458E04081853012011020100080000006F
:10030800DC4C01202453012000000000CA800608AC
:10031800205301201212010004000000D44C0120D7
:100328003053012000000000D28006082C53012021
:100338001830010020000000004F01203853012030
:1003480000000000599E04083453012019000100E0
:1003580012000000C04C01205C5301200000000086
:10036800D680060858530120E80301000600000063
:10037800944C012074530120000000008D8E040865
:10038800705301202A020100060000008C4C012055
:100398008053012000000000E88006087C530120FB
:1003A800000201000B000000E04901208C530120ED
:1003B80000000000A98E040888530120FF210100D5
:1003C80005000000884901209C530120000000001E
:1003D800E58C04089853012008120400140000005A
:1003E80094490120A853012000000000C58E04088C
:1003F800A45301201302010004000000F43001207E
:10040800C053012000000000EE800608BC53012004
:10041800FA01010003000000E8480120C853012048
:1004280000000000A18E0408C4530120FE01010051
:1004380016000000E8390120D05301200000000018
:10044800398F0408CC5301200B3001001E00000036
:10045800008F01208492012000000000F48006082B
:10046800809201201F600100CC000000308E012026
:10047800A89201200000000014810608A49201201F
:10048800123001000D000000F48F01207893012044
:1004980000000000E0810608749301201B20010081
:1004A80014000000049001208C930120000000003B
:1004B80069890108889301202F1001002E0000008F
:1004C800C08F0120A493012000000000EE810608DF
:1004D800A0930120050201000E000000048E0120F7
:1004E800D8930120000000001C820608D493012044
:1004F8000E00060000060000DCA30120F0A9012080
:10050800000000007D8D0408ECA901200C400600C5
:10051800F0000000449A0120F4AF01200000000020
:10052800298D0408F0AF01200A9001002200000084
:10053800DC990120E8B0012000000000518E040879
:10054800E4B001201310010004000000C8A301203A
:1005580010B10120000000002C8206080CB1012017
:100568000001010006000000B499012018B1012023
:1005780000000000B18E040814B10120020104003B
:10058800180000009899012024B101200000000003
:10059800398C040820B1012023220100100000003A
:1005A8007099012040B10120000000003082060847
:1005B8003CB101200202010003000000609D0120FF
:1005C80054B10120000000000000000050B10120DB
:1005D80037100100300000007C9B01205CB1012035
:1005E800000000004082060858B101201E000100EA
:1005F800090000003C9D012090B10120000000008E
:10060800708206088CB101202102010068010000F7
:1006180008960120A0B10120000000005D950108A6
:100628009CB101201C0202001C0000008CB90120B2
:1006380060BF012000000000619D04085CBF01202C
:100648002830010016000000A8B9012080BF012051
:1006580000000000F19D04087CBF01202610010065
:1006680008000000C0B901209CBF01200000000064
:10067800218F040898BF0120052001000800000010
:100688006CB30120A8BF0120000000007C8206088E
:10069800A4BF0120012001000C00000058B3012074
:1006A800B4BF01200000000084820608B0BF01200A
:1006B80038000100070000002CC6012068C6012090
:1006C800000000009082060864C60120EC031D00AB
:1006D800AE000000E0C0012074C601200000000048
:1006E800FD8D040870C60120101001000C000000E8
:1006F800C4C5012028C70120000000009882060810
:1007080024C70120EB03200000010000C4C401201D
:1007180038C70120000000000000000034C7012095
:10072800200201006000000064C401203CC80120D0
:10073800000000000000000038C80120340001005B
:10074800080000005CC40120A0C8012000000000CF
:10075800898C04089CC801202A0008008000000039
:10076800DCC30120ACC80120000000005D8C040837
:10077800A8C80120EA03010014000000CCC0012031
:1007880030C9012000000000A48206082CC90120FD
:10079800E90301001A000000C0C3012048C9012074
:1007A80000000000B882060844C901202B0012008E
:1007B800240000008CC9012068C901200000000045
:1007C8003969020864C90120292014007800000052
:1007D80090C20120B4C90120000000000000000000
:1007E800B0C90120290201004000000094CE012078
:1007F8000CDB012000000000D482060808DB012081
:10080800F62101000C000000E4DA012070DB012071
:1008180000000000148306086CDB0120F831010099
:1008280002000000E0DA012080DB01200000000067
:10083800208306087CDB0120020001000C00000078
:10084800D4DA012088DB012000000000000000004D
:1008580084DB01200612040018000000BCDA012025
:1008680098DB012000000000059E040894DB0120AD
:100878001D0202000600000060D80120B4DB012040
:100888000000000000000000B0DB0120250020006F
:1008980000020000DCD00120C0DB012000000000C5
:1008A80000000000BCDB0120280204000400000056
:1008B80000E60120CCE7012000000000798D040843
:1008C800C8E701202702040004000000FCE501201D
:1008D800D4E70120000000006D8D0408D0E7012056
:1008E8001F0208001000000010E60120DCE70120CC
:1008F800000000009D8C0408D8E7012016021500AE
:100908003F0000003CDF0120F0E70120000000006C
:10091800598C0408ECE701201A0201004900000084
:10092800F0DE012034E8012000000000959E040854
:1009380030E80120161001000400000098E80120AA
:10094800A4E901200000000022830608A0E9012094
:100958002C020100040000003CEA01206CEF012099
:10096800000000002683060868EF01201B02010032
:100978001000000084EF012074EF01200000000047
:10098800158D040870EF0120090201000100000024
:10099800800E02207C0E0220000000002A83060838
:1009A800780E02201E02010006000000900E0220B0
:1009B800880E0220000000002C830608840E022006
:08280000082800080040000850
:10800000026C03463AB11A6CD20608D50022012050
:1080100083F83C207047426480F83C20F3E71A6CF8
:1080200049494A4811401A6841F00201F0B4196404
:108030004168474D21F44031416041685C6821430B
:1080400041605168186921F48071D3F808C0DF6875
:10805000516054689E6A44EA0024AE4254605468F9
:1080600024F040745460506840EA0C0050609068FE
:1080700020F400609060916841EA0701916054D05B
:108080009068DC6A20F07060906091680E439660A2
:10809000906820F040509060916821439160906812
:1080A0009C6920F002009060916841EA440191606F
:1080B00093F82010002941D05468596A44F40064B0
:1080C000481E5460516821F460415160516841EA92
:1080D00040315160D06A0025DC6920F470005E698F
:1080E000611ED0622846D46A44EA0154D46294687E
:1080F00024F400749460946893F8301044EA4124A6
:108100009460946824F480649460916841EA8621C4
:1081100091605D641A6C22F0030242F001021A645D
:10812000002283F83C20F0BC7047916821F0706118
:108130009160916821F040519160B0E7516821F45D
:1081400000615160C6E700BFFDEEFFFF0023014064
:108150000100000F0129F0B42A4C4FF000062A4D0F
:1081600094BF002701272368EE626662A6626763F8
:10817000676B47EA42076763EE63EC6B002A38D10E
:1081800044F49574EC631C6824F001041C601C68C2
:10819000E407FCD4490289085960D8601968EAB933
:1081A00021F04001196019498B421DD018494FF444
:1081B0007410C860196841F01E011960596941F0D6
:1081C00080015961196841F00101196022B90E4A14
:1081D000D36A43F00803D362F0BC704741F040011A
:1081E00019600A498B42E1D14FF0746041F8500C9C
:1081F000E0E744F01A04EC63EC6A44F00804EC6233
:10820000C1E700BF601F0120002C014058640240FC
:1082100000640240124B30B49D6B6B6A28B943EA8C
:1082200001430020AB6230BC7047AC6A013803EBFD
:1082300014440BD0002303F14002013305EB82020A
:10824000DBB25268834204EB1244F4D3403044EA78
:10825000014405EB80004460002030BC704700BF43
:10826000601F0120037870B42BB30246C0F10105F2
:10827000531912F8014FDBB2002CF9D101335B0026
:108280000E4C03220B8084F83C3484F83D240178A2
:1082900079B1022300265A1CE518023354FA82F2FF
:1082A00085F83C14DBB282F83C6410F8011F002909
:1082B000F1D170BC70470223E2E700BF601F0120CC
:1082C000826D136A5B681B78FF2B08D090F8F03042
:1082D000013BDBB280F8F0301BB101207047002079
:1082E0007047126A0220526813707047F0B40F4B47
:1082F000C40800F0070700221E5D03EBD005BE4056
:10830000F6B2C7F1080300278B4228BF0B46C3F122
:1083100008049A40C91A46FA04F415F8016F42EAB3
:108320000402EED11046F0BC704700BFDC240120EF
:1083300030B5EFF31181802383F312880A4AD2F813
:108340003036D2F83446D2F83006D2F83456CAB2B3
:1083500082F31188013BA84294BF4FF400600020D3
:108360001B1B184430BD00BF601F0120012380F893
:1083700051307047014BD3F838067047601F012019
:1083800001207047024BC3F83C26C3F840167047E3
:10839000601F0120024BC3F84426C3F848167047FB
:1083A000601F012070477047212870B505D0222832
:1083B00029D0202810D0002070BD0029FBD0072A2A
:1083C000F9D1184B18791C685A799B7908710020EB
:1083D0000C604A718B7170BD0029ECD0072AEAD17C
:1083E0001148104B0C680E794D79D0F840268979E8
:1083F0001C601E715D719971002ADCD02146D0F895
:108400003C069047D7E70029D5D0022AD3D1064AA7
:10841000D2F84836002BCED00988D2F844069847C7
:10842000C9E700BF00000120601F01200020704745
:1084300003460A2201481A80704700BF0800012045
:108440000346642201481A80704700BF14000120CF
:10845000012901D000207047014BD3F89030184714
:1084600000000120012900D008E2024BD3F88C3033
:10847000184700BF00000120014BD3F8883018478F
:108480000000012010B40B780A46044603F00303F1
:10849000012B05D0022B0BD000205DF8044B704758
:1084A0008B8843B9204611465DF8044B01F0D0BAE1
:1084B0008B88832BF6D0034B5DF8044BD3F88030C8
:1084C000184700BF0000012038B5054B04460D4693
:1084D000DB6F98472946204601F0F6FD002038BDA5
:1084E0000000012038B5054B04460D469B6F9847A8
:1084F0002946204601F020FE002038BD0000012062
:1085000011F0800F01F00F01F0B4D0F8A8424FF045
:108510001C0042D1C1EBC10500FB0140002604EB69
:10852000850500F5FE7085F8FD6145780170836072
:10853000C27005B1C180022A01D10023037194F8F1
:10854000BC33012B1AD00122236884F8BC23417864
:10855000057891422CD003F5006605F00F0103F574
:1085600030638A40F16903EB451341EA0242F2614C
:108570001A68120405D5002384F8BC330020F0BC2F
:10858000704782681D68C2F30A02C07818492A43FE
:1085900042EA804211431960EDE7C1EBC1050126B3
:1085A00000FB014004EB85053C3085F83D60BCE7ED
:1085B00005F00F06D3F81CC803F5106203F5006739
:1085C000B14002EB451241EA0C01F961136819044C
:1085D000D1D483681668C3F30A03C07804493343CF
:1085E00043EA804343EA855319431160C3E700BF60
:1085F00000800010F0B4002452004E1C2746030FE8
:10860000B0F1204F4FEA001003F1300503F13703BA
:1086100034BF0D550B5537550234A242EFD1F0BC93
:10862000704700BF024808B5FFF71CFE014808BDAF
:1086300098C905089C230120024808B5FFF712FEDF
:10864000014808BDA8C905089C2301200B481A222F
:108650000B4B00681B680A80C01801D1094870479D
:10866000094B0822094910B51C68FFF7C3FF042213
:1086700007492046FFF7BEFF024810BD107AF01FE1
:10868000187AF01FB0000120147AF01FB200012008
:10869000C2000120024808B5FFF7E4FD014808BD0B
:1086A000B4C905089C230120024808B5FFF7DAFD8C
:1086B000014808BDC0C905089C23012004230148C6
:1086C0000B807047CC00012000487047C424012073
:1086D00000487047C4240120034B93F86005032829
:1086E00094BF002001207047601F0120034B93F8C6
:1086F0006005032894BF002001207047601F0120FF
:10870000034B93F86005003818BF0120704700BF85
:10871000601F0120034B93F86005003818BF01204B
:10872000704700BF601F012098B182680C4B12B1E6
:1087300007229A70704718780421DA6003281A61BA
:108740001A750CBF80224FF480729970C3E9012220
:108750007047034B012241F2E4715A705A5470473A
:10876000E87301200378022B0FD0006908B90120BB
:1087700070470E4B1B78032B12D080B24FF6F77365
:10878000984294BF002001207047084941F65002EA
:1087900043688A58B3EB422F2CBF0120002070475A
:1087A000034B984294BF002001207047E8730120DA
:1087B000F7FFFF0F30B40378022B13D0104A41F6B5
:1087C0004801436841F63C04555802F5C25100691E
:1087D0002B400968023812595B0A01FB003030BC9B
:1087E00010447047064B41F6300441F634014268AC
:1087F0001859595800EB410030BC00EB522070472B
:10880000E8730120826D0346126A52681278FF2ACB
:108810000AD190F8F020002A02F1FF3214BF0120A3
:10882000022083F8F02070470020704703460A2298
:1088300001481A80704700BFD00001200346202263
:1088400001481A80704700BFDC0001200346202247
:1088500001481A80704700BFFC0001200346202217
:1088600001481A80704700BF1C01012003460A22FC
:1088700001481A80704700BF3C0101200023D0F856
:1088800098221846137370470346222201481A8023
:10889000704700BF480101200346222201481A8088
:1088A000704700BF6C0101200346222201481A8054
:1088B000704700BF9001012003460A2201481A8038
:1088C000704700BFB40101200346432201481A80CB
:1088D000704700BFC00101200346432201481A80AF
:1088E000704700BF040201200346432201481A805A
:1088F000704700BF48020120D0F8943283B110B510
:10890000D0F8904294F80002FF2807D09B682146D7
:1089100094F801229847FF2384F80032002010BD0C
:108920000020704701F00F01D0F8A822C1EBC1016F
:1089300002EB810238B5D0F89032D0F89452D2F8D8
:10894000144203F50371EA68D3F80402C3F80C4239
:108950009047002038BD00BF38B540F48062074C16
:108960000B4640F2FF55012100F03F00A563A360D4
:10897000E26045F0C9FDA56338BD00BF002C014091
:108980002DE9F843884600294FD04718461E284C49
:10899000802507F1FF39EFF3118185F31288D4F8B0
:1089A0003026C9B2D4F83406D4F83036D4F834C6F8
:1089B00081F31188634594BF4FF400630023121ABA
:1089C0001344012B1AD1012033F0F8FCEFF311818D
:1089D00085F31288D4F83026C9B2D4F83406D4F816
:1089E0003036D4F8347681F31188BB4294BF4FF40B
:1089F00000630023121A1344012BE4D0EFF3118219
:108A000085F31288D4F83436D2B216F8011F234405
:108A100083F84C16D4F834360133C3F30A03C4F890
:108A2000343682F311884E45B5D14046BDE8F8830F
:108A3000601F0120F8B5002390F8505080F85030A6
:108A4000BDB10E4A1278032A15D10D4E00F13C0437
:108A5000376829462046FFF793FF33682D1A0444F0
:108A6000DB1B322B01D8002DF3D1B5FA85F040097C
:108A7000F8BD0120FCE71846FAE700BF20300120CE
:108A800058300120002280F85120D3E790F8502080
:108A9000531C0244DBB280F8503082F83C1090F84E
:108AA00051200AB1132B00D9C4E77047F8B50A4B1F
:108AB0000D4614461B78032B0DD1084E3768002C49
:108AC00009DD21462846FFF75BFF3368241A054479
:108AD000DB1B322BF3D9F8BD2030012058300120A8
:108AE00030B500238DB013490825012202938DF87B
:108AF00014300DF10704099301F294500B9381F89F
:108B00002C560DEB05018DF82820CDE907330A4BD3
:108B1000CDE90342069337F045FB084837F040FDA6
:108B20009DF80700A0F1FF00B0FA80F040090DB0F9
:108B300030BD00BF601F0120C1820008F424012065
:108B400070B5952292B040F0400504468DF809209A
:108B5000080E0A0C8DF80810090A002301AE8DF8E2
:108B600004508DF8050006250DF103008DF8062050
:108B70008DF8071001221749039604938DF81830D9
:108B80008DF82C300F93119305958DF840200C91A2
:108B9000CDE90733CDE90D33CDE90902FFF7A0FF99
:108BA00024B180F0010010F0FF0F10D10A4C08230F
:108BB00003A904F2945084F82C3637F0F3FA04F247
:108BC000945037F0EDFC9DF8030012B070BDFF200B
:108BD00012B070BD05880008601F012030B5002369
:108BE0008DB010490546012202938DF814300DF125
:108BF0000704099301F294500B9381F82C5602A9B3
:108C00008DF82820CDE90733074BCDE903420693C1
:108C100037F0C8FA054837F0C3FC9DF807000DB0DF
:108C200030BD00BF601F012005880008F42401202A
:108C300070B590B01C4D0024FD2201260DF10303F8
:108C400001A905F294508DF803200693C5F85C4500
:108C50008DF81040059407948DF824400F940396E6
:108C600008968DF83860CDE90144CDE90A44CDE994
:108C70000C4437F097FA05F2945037F091FC3046E7
:108C8000FFF7ACFFFF2809D0084A204609231268E5
:108C900085F86035C5F8502510B070BD042302205A
:108CA00085F8603510B070BD601F0120583001207C
:108CB00070B5064690B008200D46FFF78FFFFF28DD
:108CC00023D0FE2802D0022010B070BD0024022262
:108CD000012301A90E4808928DF8383002960395B9
:108CE00001948DF8104007948DF824400F94CDE93D
:108CF0000544CDE90A44CDE90C4437F053FA044861
:108D000037F04EFC204610B070BD012010B070BD91
:108D1000F42401203C4B98422DE9F0410FD003F59B
:108D200068530833984249D00023384A1846A2F8BD
:108D30006C30A2F87830C2E91C33BDE8F081334CC6
:108D400002230026324F04F10805DFF8CC8063606F
:108D5000D7F88C323146B34206F1010603D0D4F87D
:108D6000880044F0CBF994F88C302846D4F8882059
:108D7000414685F82430303545F8102C44F066FB28
:108D800063689E42E4DB002384F87A306368012044
:108D90006169A289256912FB03F201FB03F3268BAB
:108DA000A4F86C206367E2891A4BC4F89810256711
:108DB000A4F87860A4F86E20A366BEE7134C0223E3
:108DC0000026134F04F108056360D7F88C32314652
:108DD000B34206F1010603D0D4F8880044F08EF9BE
:108DE00094F88C302846D4F88820303505F80C3CAF
:108DF00045F8102C44F0E2FA63689E42E5DB01235B
:108E000084F87A30C2E700BF1971EF0058300120B2
:108E100000000120B05C05081940EF002DE9F04189
:108E200003798AB02B4E002B14BF0122002286F852
:108E30008C2504D186F860350AB0BDE8F08106F2D1
:108E40009457044690F90010384637F0B1FAA478E8
:108E50009CBB4FF00108204B2048C6F89C456C464F
:108E6000C6F8283686F8A08537F0E2FA03461C4D8E
:108E70004FF47A70A6F8983533F0A0FAD6F89C052E
:108E800036F044FB0FCD0FC40FCD0FC495E803009F
:108E900084E803006946384637F084F9384637F0ED
:108EA0007FFB104B002286F860851B6886F85425EE
:108EB000C6F850350AB0BDE8F081204636F0ECF92E
:108EC000044608B12023C3800D21204636F08AFADB
:108ED000BFE700BF601F01209C240120801A06000C
:108EE000DC5C05085830012010B50C4644F03EF813
:108EF00050B9074B93F89C30012B4FF012030CBF75
:108F000004480548238010BD12230448238010BD67
:108F100058300120B8020120A40201209002012053
:108F200010B5074C04F2945037F03AFB0A2033F0A6
:108F300039FAD4F89C05BDE8104036F0E7BA00BF16
:108F4000601F01202DE9F8431C4C054689469046D8
:108F500094F860651F46042E08D0082E02D0002029
:108F6000BDE8F883FFF764FE0228F8D1D4F89C0529
:108F700036F07AFA94F85635B3B969021120FFF742
:108F8000DFFDB8B90E4A05230120C4F83C951268EC
:108F9000C4F84055C4F84885C4F84C75C4F8502549
:108FA00084F86035BDE8F88329461120FFF7C8FD35
:108FB0000028E7D0FFF7B4FFD1E700BF601F012012
:108FC0005830012070B5D0F89062E6B101EB810510
:108FD00000EB8505EB695BB1D0F8A802C1EBC104D9
:108FE00000EB8404626CB3FBF2F402FB14341CB19A
:108FF0000020C6F8140270BD23462246EC610CF036
:10900000DDFE204670BD022070BD00BF002310B5FC
:1090100004241A461946C0F86C42D0F8A8020CF095
:10902000CDFE002010BD00BF10B5134602240A4635
:109030000021C0F86C42C0E90733D0F8A8020CF058
:10904000BDFE002010BD00BF70B5D0F8A852C1EB26
:10905000C1000C46002605EB80001C21C0F8082248
:10906000C0F8103280F8FC41C0F8146280F8FD614D
:109070002B6901FB0451012B01F5FE7108BFC0F8FB
:109080000C22DAB228681CB90BF0B0FA002070BDCF
:109090000BF038FB002070BD0E4841F2DC03C358D2
:1090A00010B5A3B190F85C4E00F64C60D3F80422E2
:1090B00034B1002440230121FFF7C6FF204610BD34
:1090C0004FF400730121FFF7BFFF204610BD0224BB
:1090D000204610BD601F012010B50C4CD4F8383666
:1090E00063B10B49013BD1F8A020C4F8383612F81F
:1090F000014BC1F8A020047013B10123184610BD24
:10910000FFF7CAFF0123184610BD00BF601F0120F2
:109110005830012013B5074CD4F8A03003B9FEE74E
:1091200001A8FFF7D9FF0028F6D09DF8040002B08F
:1091300010BD00BF5830012010B50B68064C074A1F
:10914000C4F83836C2F8A0000BB1002010BDFFF7FC
:10915000A3FF002010BD00BF601F01205830012078
:109160002DE9F0410A46D0F8A05200270B4E0446E4
:1091700085F838222F7205F50B720D238121C5F871
:109180002C62D0F8A8020CF019FE05F503722046F7
:109190001F230121BDE8F04156E700BF555342535C
:1091A0002DE9F047137882B0914604468A465A2B3F
:1091B0005CD8DFE813F0CE005B005B007D005B0055
:1091C0005B005B005B005B005B005B005B005B00C7
:1091D0005B005B005B005B005B00B2005B005B0060
:1091E0005B005B005B005B005B00A90174005B003F
:1091F0005B0074005B005B005B005B00CD015B000B
:10920000F7015B005B003B015B00E0005B005B0083
:109210005B005B0028015B005B005B005B005B00A8
:109220005B005B005B005B005B005B005B005B0066
:109230005B005B005B005B005B005B005B005B0056
:109240005B005B005B005B005B005B005B005B0046
:109250005B005B005B005B005B005B005B005B0036
:109260005B005B005B005B005B001802D0F8A012A3
:109270000524002091F85D325A1C01EBC303D2B2E1
:1092800083F83C4283F84002042A00F003824FF046
:10929000FF3581F85D22284602B0BDE8F087D0F89E
:1092A000A032002005465881284602B0BDE8F0876C
:1092B000D0F8A042002104F10B0304F11D0003F8D3
:1092C000011F8342FBD1702094F85C320C2520737F
:1092D00094F85D02E574984213D004EBC3000133A7
:1092E00090F83C52DBB2A573042B90F841522576DE
:1092F00090F8400218BF84F85C32607608BF84F8AA
:109300005C121223638199F80430122B98BF638199
:109310000025284602B0BDE8F08799F80130D0F862
:10932000A002DB0740F18381072100F1120300F165
:109330000B0583224181C3F10604D54901E092F86F
:10934000542003F80129E218AB4211FA82F2F6D157
:10935000DEE7D0F8A062D6F81472002F40F02D821C
:10936000D0F8A43208469B6898470546002840F08C
:109370006D8270818FE7D0F8A062357A002D40F0C1
:10938000908196F91832002BC0F27081D0F8A43287
:1093900008469B6898470746002840F07182D4F839
:1093A000A4325046DB6898470546002840F08D827D
:1093B000D9F80210D4F8A00209BAD0F86072C6F841
:1093C0006412B9F807305BBA9BB21944C6F8683228
:1093D000B94200F26882B6F85E12D6F8142203FB96
:1093E00001F3934240F09E81B3F5007F4FF00101FD
:1093F000204606F10C0228BF4FF4007331729BB275
:10940000FFF722FE47E799F80150D0F8A03215F097
:10941000020040F0F781D3F86012D3E99924224486
:109420008A4200F201820546588134E7D0F8A082D2
:1094300098F80860002E40F0328198F91832002B1D
:1094400080F2CE81D0F8A43208469B689847054642
:10945000002840F04E82D9F80200D4F8A06200BA89
:10946000D6F86072C8F86402B9F807305BBA9BB2EC
:109470001844C8F86832B84200F2F880B8F85E22A2
:10948000022003FB02F3D8F8142288F808009A425D
:1094900040F0EC80B6F85E324FF4007CD6F868728B
:1094A00006F10C05D4F8A422504607FB03F7294621
:1094B000A8F80AC06745D2F81080D6F8642228BF01
:1094C0006746B7FBF3F39BB2C0470028C0F25F8149
:1094D0002A463B46D4F8A80281210CF06FFCB6F86E
:1094E0005E52D6F83432B7FBF5F5D6E99920DF1B8A
:1094F0002A44451BC6F83472C6E99925002D7FF42D
:1095000007AF03233372C6E6D0F8A072082000220A
:109510005F4E07F11303788107F10B05C3F10700D4
:1095200001E092F85C2003F80129C2189D4216FA66
:1095300082F2F6D1D4F8A4325046DB68984700286E
:109540003FF4E6AEBB7B002563F07F03BB73A2E66E
:10955000D0F8A062002506F10B0306F1170203F80C
:10956000015F9342FBD1D4F8A43250460DF10202C0
:1095700001A95B689847002840F0F780019B08210B
:10958000BDF802200220013BF17352BA0C211C0EDF
:10959000F374F2821A0C1B0A34747274B374B082BE
:1095A0007181B5E6D0F8A0620846D4F8A43206F27C
:1095B0005E2206F518715B6898470546002840F062
:1095C000C180D6F860320821B6F85E22013B3082B5
:1095D00052BA7181180EF373190C72821B0A307320
:1095E0007173B37357E6D0F8A07208200022284E9A
:1095F00007F11303788107F10B05C3F1070001E0C0
:1096000092F8642003F80129C218AB4216FA82F2DC
:10961000F6D1D4F8A4325046DB68984700283FF4CE
:1096200077AEFB7B002563F07F03FB7333E6D4F852
:10963000A44201EBC10199F80430E46904EB810410
:1096400022790532934228BF13464381002B3FF411
:109650005FAE013B9AB2531C0C322344024413F810
:10966000011D9C4202F80119F9D151E696F85D32CC
:1096700005211A460133DBB206EBC202042B82F845
:10968000405282F83C1200F0A88086F85D323FE636
:10969000B05C05084FF0FF3581F85D02FBE54646FA
:1096A000F8E6B6F85E5206F10C08D6F8687208467D
:1096B000D4F8A432414607FB05F7D6F86422D3F864
:1096C0001490B7F5007F28BF4FF40077B7FBF5F390
:1096D0009BB2C8470028C0F22781B6F85E02D6F8D0
:1096E0003432B7FBF0F1D6E99925DB1B0A446D1A39
:1096F000C6F83432C6E9992525B920462946FFF730
:109700002FFDC8E505FB00F3424620460121B3F5D5
:10971000007F4FF0000528BF4FF400739BB2FFF7A6
:1097200093FCB8E590F85D3205215A1C00EBC303A9
:10973000D2B283F8405283F83C12042A3AD080F81F
:109740005D22E5E5D4F8A0220220002592F85D32E2
:10975000591C02EBC303C9B283F83C0283F84052A0
:10976000042924D082F85D12D2E5D4F8A022022088
:1097700092F85D32591C02EBC303C9B283F8405220
:1097800083F83C020429EDD182F85D52C0E5D4F89B
:10979000A0220420002592F85D32591C02EBC3037D
:1097A000C9B283F83C0283F840528142DAD182F890
:1097B0005D5270E580F85D526DE596F85D320521E9
:1097C00000251A460133DBB206EBC202042B82F8F5
:1097D0003C1282F840527FF458AF86F85D525AE549
:1097E00098F85D3205211A460133DBB208EBC2025C
:1097F000042B82F8406282F83C1200F0918088F8D5
:109800005D3285E593F85D22052000251146013281
:10981000D2B203EBC101042A81F83C0281F8405224
:109820007BD083F85D2273E593F85D220524114611
:109830000132D2B203EBC101042A81F8400281F85F
:109840003C42EED1054683F85D0224E5D4F8A0221F
:109850000220002592F85D3219460133DBB202EB9B
:10986000C101042B81F8407281F83C0218BF82F8D4
:109870005D324FF0050308BF82F85D7233720AE56E
:10988000D4F8A022022092F85D3219460133DBB2EF
:1098900002EBC101042B81F8405281F83C0286D0D2
:1098A00082F85D3234E590F85D3205211A460133C5
:1098B000DBB200EBC202042B82F8405282F83C1269
:1098C0003FF478AF80F85D3222E5D4F8A022022080
:1098D00092F85D3219460133DBB202EBC101042B71
:1098E00081F8407281F83C02DAD13D4682F85D721F
:1098F000D1E4D4F8A022022092F85D321946013357
:10990000DBB202EBC101042B81F8406281F83C021A
:10991000C6D1354682F85D62BDE483F85D52BAE493
:10992000354688F85D62B6E4D4F8A022042000250C
:1099300092F85D3219460133DBB202EBC10183427A
:1099400081F83C0281F84052AAD130E7D0F8A01249
:1099500010B50B7A022B07D0033B012B02D8002154
:10996000FFF7FEFB002010BD01F21B2291F8191237
:109970000446FFF715FC0028F4DA20460121FFF722
:10998000EFFBEFE738B5D0F8A84201F00F036268AB
:1099900093422BD80A062BD41C25C1EBC102002010
:1099A00005FB014104EB820201F5FE7182F8FD0125
:1099B00001220B708A7094F8BC03904216D084F890
:1099C000BC234A782068012A09781DD000F530624E
:1099D00002EB41121568002D00DBF1B9116841F46A
:1099E000001111601BB3002384F8BC33002038BD84
:1099F0001C21C3EBC302012001FB034104EB8202E3
:109A00003C3182F83D00D3E700F5106202EB4112D1
:109A100015680029E2D0002DE0DB116821F08041BB
:109A20001160116841F400111160002BDBD104F5C5
:109A30007172217C0AF0AEFDD5E700BF10B5044677
:109A40008021FFF79FFF00212046BDE8104099E7E5
:109A500010B50C7882B00023D0F8982214F060047E
:109A6000ADF8063016D0202C0ED14B78023B092BD6
:109A70000AD8DFE803F033390909090909093F2F3A
:109A800090F87432032B5AD00224FFF7D7FF2046F8
:109A900002B010BD4B780B2BF6D80FF2080C5CF817
:109AA00023F000BF299B0008899A0008899A0008C2
:109AB000899A0008899A0008899A0008FF9A000884
:109AC000899A0008899A0008899A0008819A0008F2
:109AD0001B9B00088B7800241360D8E7111D01221E
:109AE0000024FFF7A1FAD2E7114601220024FFF774
:109AF0009BFACCE74B8800241B0A5360C7E74B88CE
:109B00001B0A222B1FD0212BBED1CA881149092A3A
:109B100028BF0922FFF788FAB9E790F87432032BBF
:109B2000B2D18B789360B2E790F87422032AABD15C
:109B300002220DF106011C46FFF776FAA7E702F1B3
:109B400008010122E6E7CA880349362A28BF3622DF
:109B5000E0E700BF04030120CC0201202DE9F04121
:109B60000A7884B000270D4612F060060446D0F84B
:109B700090328DF80D70ADF80E7016D0202E1AD1DF
:109B8000CE8806B3120643D519460193D4F8943211
:109B9000324668783E46D3F80880C047019BEA8881
:109BA00020461946FFF740FA09E04B780A2B20D0EF
:109BB0000B2B28D08BB120460226FFF73FFF304603
:109BC00004B0BDE8F081D0F89432324648789B6802
:109BD0009847304604B0BDE8F08190F87432032B0A
:109BE00029D002262046FFF729FF304604B0BDE801
:109BF000F08190F87432032BF3D101220DF10D01A5
:109C0000FFF712FADBE790F87432032BD7D0E8E7BE
:109C10004A78032583F80162394683F800221A4600
:109C2000C0F848613346C0F84C613E46C0F86C52FB
:109C3000FFF70AFAC3E702220DF10E01FFF7F4F96C
:109C4000BDE700BF70B5D0F8A052044695F81832B1
:109C500013B9D5F814323BB981212046FFF792FEA3
:109C60006B7A022B07D070BD6B7A002BF4D10121E7
:109C7000FFF788FEF0E705F5037220461F23012158
:109C8000BDE87040FFF7E0B9F8B5D0F8A04205464E
:109C9000267A5EB1012E07D104F21B2294F8191224
:109CA000FFF77EFA00282FDB0020F8BDD0F8A8329D
:109CB000D4F81012D3F83032D4F814221F2BC4E990
:109CC0008C1208D12D4BD4F80C229A4203D194F86F
:109CD000191201291DD994F85D32002105205A1C62
:109CE00004EBC303D2B283F83C0283F84012022390
:109CF000042A2846637214BF84F85D2284F85D123A
:109D0000FFF7A0FF0020F8BD28460121FFF728FA41
:109D1000CAE794F81A32013B0F2BDCD804F21B225D
:109D2000FFF73EFA0028237A1DDB013B022BBBD94B
:109D30006189F1B1D5F8A07204F10C020420D7F8C2
:109D40003432D7F814425B1A87F83862A14238726D
:109D5000D5F8A802C7F834320B4628BF2346812124
:109D60000CF02CF8A0E7052BCED02846FFF76AFFB1
:109D70009AE72846FFF7F4F996E700BF55534243A8
:109D800070B5054641B9D0F86C320C46032B10D0A3
:109D9000052B1FD0002070BDD0F88C329B6933B1E9
:109DA00090F87422032A02D19847002070BD022047
:109DB00070BDD0E953639E4212D8D0F88C321B6933
:109DC00023B190F87422032A00D198472846FFF760
:109DD0001DF9DFE7C5F86C12FFF7D4FD204670BD12
:109DE000F61AB342C0F84C6128BF33469BB2FFF766
:109DF0002BF9204670BD00BF10B50D4C002394F820
:109E00002E26C4F85C3512B10A4AC2F8A43044F0D8
:109E100087FD20B10423022084F8603510BD054A77
:109E20000923126884F86035C4F8502510BD00BFBE
:109E3000601F01205830012070B50F4D04460E46BA
:109E400095F86035042B0BD0082B07D1D5F8583581
:109E500083420ED0FFF7D0FF022801D0012070BD51
:109E600008230220C5F85C65C5F8584585F86035BB
:109E700070BD022070BD00BF601F0120F0B500233F
:109E800083B00E460446ADF806300B78D0F8A072C9
:109E900013F0600522D0202D19D14A78FE2A11D066
:109EA000FF2A14D14A8892B9CD8885B91B060ED4F1
:109EB0004FF4807107F503721F2339810121FFF7E9
:109EC000C3F808E04D8815B9CE88012E73D020461E
:109ED0000225FFF7B3FD284603B0F0BD4B780B2BEE
:109EE000F5D801A252F823F0279F00084F9F0008E1
:109EF000CF9E0008CF9E0008CF9E0008CF9E00088E
:109F0000CF9E0008CF9E0008CF9E0008CF9E00087D
:109F10003D9F0008199F000890F87432032BD6D19A
:109F20008B787B60D7E790F87422032ACFD1022286
:109F30000DF106011D46FFF777F8CCE790F8743273
:109F4000032BC4D1391D0122FFF76EF8C3E709794D
:109F5000D0F8A8020BF000FF3179D4F8A8020BF07A
:109F600051FFB38896F9042003F00F03002A4FF045
:109F7000000203EB830304EB83032ADBC3F84421D1
:109F8000237C9BBB4FF40073022201212046FEF785
:109F9000B7FA0123C4F85831D4F8A0727B7A022BA7
:109FA00032D03279D20996D0012B94D020460121AB
:109FB000FFF7D6F88FE71A0689D5D0F8A4329B6947
:109FC000984703463246204639463B60FFF72CF857
:109FD00081E79A61237C83B94FF4007302228121C7
:109FE0002046FEF78DFA0123E362D5E740230222E3
:109FF00001212046FEF784FACBE74023022281218B
:10A000002046FEF77DFAEEE720468121FFF7BAFCF5
:10A0100000237B725FE700BF70B5037C0446012517
:10A0200073BB4FF4007302222946FEF769FA4FF41E
:10A030000073C4F85851022281212046154EFEF7C4
:10A040005FFAE562D4F8A4320025C4F8A062358135
:10A050002846A6F85C521B6898470121D4F8A8024C
:10A060000BF07AFE8121D4F8A8020BF075FE06F5FC
:10A07000037220461F230121FEF7E6FF284670BD2C
:10A08000402302222946FEF73BFA4023C4F85851E8
:10A09000D1E700BFA001002038B50446002501210A
:10A0A000D0F8A8020BF0AEFE8121D4F8A802C4F8C3
:10A0B00058510BF0A7FED4F8A002E5624AF02EFD3D
:10A0C0002846C4F8A05238BD38B504468321D0F8DC
:10A0D000A80200250BF096FED4F89802656518B129
:10A0E0004AF01CFDC4F89852002038BD38B504462B
:10A0F00000258121D0F8A8020BF084FE0121D4F8BC
:10A10000A802E5620BF07EFED4F8A8028221C4F812
:10A1100058510BF077FED4F8903225644BB1D4F847
:10A1200094325B689847D4F890024AF0F7FCC4F880
:10A130009052002038BD00BF10B5082303228321B0
:10A140000446FEF7DDF90123102063654AF0DEFCCA
:10A15000C4F8980218B103460020187310BD0220FD
:10A1600010BD00BF2DE9F041037C04460125BBBBB7
:10A170004FF4007302228121FEF7C2F929464FF401
:10A18000007302222046E562FEF7BAF9C4F858517E
:10A190004FF001080823032282212046FEF7B0F980
:10A1A0004FF40770C4F840804AF0B0FC0546C4F88C
:10A1B000900258B3D4F8943200271B689847267C45
:10A1C000C5F814724146D5F804222046C5F8187225
:10A1D000AEB140233E46FEF737FF3046BDE8F08182
:10A1E000402302228121FEF78BF9294640230222D7
:10A1F0002046E562FEF784F9C4F85851C8E74FF4E9
:10A200000073FEF721FF3046BDE8F0814646E4E7E3
:10A210002DE9F0430D784FF0010883B0044680F833
:10A22000805205F01F0C4F7800F5207EC44580F861
:10A230008172CB788E7806EB0326B6B2A0F88262E4
:10A240004A790B7903EB02239BB2A0F8843291F890
:10A2500007908A79C0F86C8202EB092292B2A0F8CA
:10A260008622C0F870220DD0BCF1020F3ED0BCF1A6
:10A27000000F19D005F08001FFF784FB002003B028
:10A28000BDE8F08305F06002402A67D06A0665D514
:10A2900080212046FFF776FB20460021FFF772FB66
:10A2A000002003B0BDE8F08305F06005202D6FD0DD
:10A2B000402D6DD0002DEBD1092FE9D801A151F827
:10A2C00027F000BFDBA3000809A4000891A2000842
:10A2D00027A4000891A2000837A4000897A400084A
:10A2E00091A20008C5A40008A5A3000805F0600518
:10A2F000202D4DD0402D4BD0002DC9D1012FD9B2EA
:10A3000000F00481032F00F0EF80002FC0D190F8FF
:10A310007422022A00F0CC81032AB9D113F0800FF5
:10A3200001F00F0303EB830300EB830340F0D881BC
:10A33000D3F84431002BABD001F07F03142202FB91
:10A34000030202F5A072002B40F00D82002313607F
:10A35000114620460222FEF767FE8FE794F874222A
:10A36000013A022A94D8DBB2032B91D8D4F88C326C
:10A37000714620469B689847B4F88632002B7FF4DC
:10A380007DAF00287FF47AAF2046FEF73FFE75E7E9
:10A39000D4F88C32714620469B689847002003B061
:10A3A000BDE8F083F6B2C14D012E85F8A8603FF6F6
:10A3B0006FAF90F87432022B00F0BE81032B00F0D7
:10A3C000A9818021FFF7DEFA00212046FFF7DAFAA3
:10A3D000314620460AF0B2F850E790F87432013B5B
:10A3E000022B3FF655AF022A7FF452AF0122D0F87C
:10A3F0007C32C2600BB10323C360022204F10C0162
:10A400002046FEF711FE39E790F87432013B022B2B
:10A410003FF63EAF012E7FF431AF0023C0F87C320F
:10A42000FEF7F4FD2AE7012E7FF428AFC0F87C6226
:10A43000FEF7ECFD22E713437FF42AAF7F2E3FF6B1
:10A4400027AF90F87432032B3FF422AFF1B2D0F86B
:10A45000A83280F8761293F8BC23012A11D01A682A
:10A46000002083F83810D2F8001821F4FE61C2F8F9
:10A470000018D2F8001841EA0611C2F8001883F853
:10A48000BC032046FEF7C2FD002E00F07E810223B1
:10A4900084F87432F2E6330A013B062B3FF6F8AE3D
:10A4A00001A252F823F000BF29A600080FA6000859
:10A4B000FDA5000891A2000891A20008E7A50008E8
:10A4C000A1A50008012A7FF4E3AE90F87432022BB4
:10A4D00000F2FF80002B3FF4DBAE0023014641F881
:10A4E000083FFEF7A1FDC9E690F87432022B00F098
:10A4F000D380032B7FF4CCAE4F063FF445AF56EA32
:10A5000002037FF441AFFFF73DFA3DE790F8742274
:10A51000022A00F0C180032A7FF4BAAE002E7FF435
:10A52000ADAE48063FF430AFD4F8A80201F00F01F9
:10A53000426891423FF628AF13F0800F4FF01C03A2
:10A5400040F0278103FB01020025134602F5FE724D
:10A5500083F8FD5100231170937090F8BC33012BE8
:10A560003FF412AF0121036880F8BC1355781178CD
:10A57000012D0CBF03F5106303F5306303EB4113AA
:10A58000196821F400111960D278023A012A03D81F
:10A590001A6842F080521A60002380F8BC33F3E658
:10A5A000037C002B7FF474AED0F88C320DF10600E2
:10A5B0001B6B984707234370BDF806306BB1B4F8A6
:10A5C0008622002A3FF4E0AE9A420146204628BF88
:10A5D0001A46ADF80620FEF727FDB4F88632002BA8
:10A5E0007FF44CAED0E6037C002B7FF451AED0F864
:10A5F0008C320DF106005B6B9847DDE7F6B2052E55
:10A600003FF646AEDFE806F0302820184038037CDD
:10A61000002B40F09F80D0F88C320DF106009B6A31
:10A62000984702234370C7E7D0F888320DF106013E
:10A63000007C1B689847BFE7D0F888320DF106010F
:10A64000007C1B699847B7E7D0F888320DF1060106
:10A65000007CDB689847AFE7D0F888320DF106013F
:10A66000007C9B689847A7E7D0F888320DF1060177
:10A67000007C5B6898479FE7D0F888320DF10601AF
:10A68000007C9B69984797E7D0F888320DF1060166
:10A69000007C5B6998478FE74D063FF4F9ADFFF703
:10A6A00071F920468021FFF76DF9E7E55830012068
:10A6B0004A067FF4EDAD1B064FF000034FF0020297
:10A6C0004CBF00F1140100F5A0710B60FEF7ACFC6B
:10A6D000D4E5032B7FF4DCAD011DFEF7A5FCCDE531
:10A6E0009B69002B3FF4D4AD01F07F035A1C02EBB1
:10A6F000820200EB8202002B3FF428AED0F8A812B1
:10A700001C2000FB031393F83E30002B3BD00123A9
:10A7100013601DE67EB3416801293FF435AEC9B22E
:10A7200009F00CFF95F8A8102046616009F00EFFB3
:10A7300002287FF429AEABE5002E3FF425AE0121BF
:10A740000323416080F8743209F000FF02287FF48F
:10A750001BAE9DE5D0F88C320DF10600DB6A984700
:10A760000223437028E7D0F8A8321C2000FB0133F5
:10A7700093F8FE31C9E702233146466080F874320F
:10A7800009F0DCFE00E61360E2E5012384F8743290
:10A7900074E503FB0102012513463C3283F83D506A
:10A7A000D8E600BF154BDB68C3F3022310B4C3F136
:10A7B00007041A1D042C28BF0424062A4FF0FF3278
:10A7C0008CBF033B0023A240002821EA020101FACA
:10A7D00003F108DB09010A4BC9B2034483F80013F3
:10A7E0005DF8044B704700F00F000901054BC9B23A
:10A7F000034419765DF8044B704700BF00ED00E09C
:10A8000000E100E0FCEC00E030B5264C00222648D8
:10A8100041F28731D4F8EC3083B0244DA0FB030320
:10A8200004F1AC00C4F8AC50DB0C013BC4E92E12BF
:10A83000C4E92C320AF074FD1D4B062137201A6C36
:10A8400042F020021A641B6C03F020030193019B69
:10A85000FFF7A8FFD4F8AC304FF400001549164AB2
:10A860004860D96841F00101D96099680A40062A18
:10A8700006D0B2F5803F03D01A6842F001021A6098
:10A880000E4B41F2DC0200200D499A5803F24C6451
:10A89000C3F84806C2F81002C3F84006C2E98114A2
:10A8A00003B030BD5830012083DE1B43001400404C
:10A8B0000038024000E100E007000100601F0120B5
:10A8C0004831012038B50F4B0F4AD3F8EC30A2FBCA
:10A8D00003239B09013BB3F1807F10D20B4A002474
:10A8E000F0200B490725536081F82300214694602E
:10A8F0004FF0FF301560FFF755FF204638BD0120AF
:10A9000038BD00BF58300120D34D621010E000E088
:10A9100000ED00E04309012200F01F0084B0013B7C
:10A9200002FA00F0032B0BD8DFE803F015021E0C2F
:10A93000124B5A6C02435A645A6C10400090009BB0
:10A9400004B070470D4B1A6B02431A631A6B104028
:10A950000390039BF4E7094B5A6B02435A635A6B0B
:10A9600010400290029BEBE7044B1A6C02431A64FE
:10A970001A6C10400190019BE2E700BF00380240D2
:10A9800070B5214DD5F86C3293F82620DAB11B69E9
:10A990009847E0B1D5F86C3293F824208AB105F5D8
:10A9A0001C7600241A19E0B29B69013492F82C102D
:10A9B000B6EC010A9847D5F86C3293F824209442FB
:10A9C000F0DB5B69984795F88032332B00D070BD7F
:10A9D00095F88432002BFAD0D5F86C3293F82430F5
:10A9E000042B1E46A8BF0426002BF0D00024074DE0
:10A9F00023460134184645F045FB45F8040BE3B205
:10AA00009E42F6D870BD00BFA0010020280400209F
:10AA10002DE9F041D0F800E00C46DFF8588084B012
:10AA2000DEF804501746DFF850C0194605EA08055D
:10AA3000DDF82880064603932C43424644EA0C0C7A
:10AA4000CEF804C00BF084FA78B931680246039B53
:10AA500030468F624021CDF800800BF0A9FA003813
:10AA600018BF012004B0BDE8F081012004B0BDE8AA
:10AA7000F08100BF009800FC00200180F8B5134F62
:10AA800004460D460AE09B69DB0602D50BF020FA6E
:10AA9000D0B9D7F8F0385B1B0A2B08D823682A46B0
:10AAA0000A2120469E69B606EDD50020F8BD636CEC
:10AAB0002021002201200B4384F84020636484F8A5
:10AAC000411084F84220F8BD0120F8BD5830012023
:10AAD000F0B589B00D46044635F0A2F8031E1CDB24
:10AAE000164A2046164E1A4406EB830392F86C7001
:10AAF000C3F8F45835F0BAF83E440023A588114A4B
:10AB000003A920680793CDE90533CDE903520BF083
:10AB1000CDFA96F83439F02B01D809B0F0BD0A4AC5
:10AB2000F0230321D05786F834390190FFF73AFE1D
:10AB300001980CF073FA09B0F0BD00BFB05C0508D5
:10AB4000583001200000111034CA0508B0B10C497A
:10AB5000D1F83C39102B03D10521002035F036B84F
:10AB600003EB43020A4482F84009202082F841099D
:10AB70000120034482F84209C1F83C39704700BF04
:10AB8000583001208078E1E72DE9F04F634C87B021
:10AB90001E22002104F517604AF070FE94F89039E7
:10ABA0001BB194F8913984F8703994F892391BB13B
:10ABB00094F8933984F8753994F894391BB194F862
:10ABC000953984F87A3994F896391BB194F8973905
:10ABD00084F87F3994F898391BB194F8993984F83E
:10ABE000843994F89A391BB194F89B3984F88939DF
:10ABF00094F8A239013B5FB2DBB2019702933B4666
:10AC0000013300F09C81464EB0220023454802FBF0
:10AC1000076106F5237AA0F1380503937C3106F528
:10AC2000417949F0C9FE039B01222E46984602FA5B
:10AC300007FB1F46307880B33B4A302103E0914543
:10AC40002BD012F8081F8842F9D1517811EA0B0F66
:10AC5000F5D034F021FBFB1DDBB210B10022837173
:10AC6000C271032134F0BEFB31780023302201E0B1
:10AC70001AF83320914200F065810133102BF7D18F
:10AC80000023012208F10100072186F80280737079
:10AC90005FFA80F81346F270317101370536062FDE
:10ACA000C8D194F8AC0901260393FFF733FE4FF4A3
:10ACB0004031DFF878B00022C4F8CC89C4F8B41968
:10ACC0005846D4F8A819C4F8C869C4F8C06984F80B
:10ACD000E069C4F8B829C4F8D829C4F8DC29C4F854
:10ACE000BC2984F8D029C4F8D429C4F8C429C4F8EC
:10ACF000B019FDF785F9019B002B40F02981039BDA
:10AD0000002B00F02581ABF1080046F0BBFE0123CB
:10AD100005F11E0C4FF0000E0DE000BF5830012071
:10AD2000B05C0508003A01203C5F0508083A0120A4
:10AD30000535AC4547D0EA78002AF9D094F8EC19EB
:10AD40005A1C68780129D2B22F79CDF810E036D09C
:10AD50004FF00101092884F8EC1940F245814FF0C9
:10AD600003096FF01D06D4F8B0194FF0070A19FB5C
:10AD70000066D1F80C900AFA06FA07FA06F629EAF4
:10AD80000A07CF60CF683E43CE60062B4FF0050622
:10AD900000F218816FF0040716FB03731F274E6B38
:10ADA0009F4000FA03F326EA07064E634E6B3343D7
:10ADB0004B63B94B994200F0298184F8ECE90535E1
:10ADC0001346AC45B7D1019B02200299234493F965
:10ADD000A32934F0FFFF0546002800F0B08040684A
:10ADE00035F024F80022062135F030F8002800F074
:10ADF000A6806868002635F019F8A84F46F05AF882
:10AE0000B8F1010F6A684FF400638CBF4FF48061A2
:10AE10003146A8684FF40055C4F8081A4FF4807101
:10AE2000C4F8F8294FF40032C4F80C3A0323C4F8EC
:10AE3000FC093846C4F8203AC4F8006AC4F8046A29
:10AE4000C4F81C6AC4F8246AC4F8286AC4F8105A02
:10AE5000C4F8141AC4F8182A0CF03EF894F8EC3927
:10AE6000C4F8E879012B0596C4F830BA67D00123FD
:10AE7000D4F8B05984F8EC39AB68DE0713D4D4F8B1
:10AE8000EC308749AA68B3FBF1F342F0010203EB0F
:10AE90004303AA600593059B2BB1059B013B0593DA
:10AEA000059B002BF9D1AB68D80748D5D4F8F02919
:10AEB0007C4B134043F48073C4F8F0396B68590538
:10AEC00007D5D4F8F03923F4405343F48053C4F841
:10AED000F039D4F8F03913F4805300F0CF80D4F86F
:10AEE000F43923F00603C4F8F4396F4800236F499E
:10AEF0006FF02202C4F8380A6D4884F8EC394346F2
:10AF0000C4F8341A05F14C01C4F8440A2A606E688A
:10AF1000684A46F0806661486E60AE6846F48076A6
:10AF2000AE600BF051FF644B5A68D20640F08F8040
:10AF3000D4F8B0399A6812F0405F00F09A8007B0F8
:10AF4000BDE8F08F5D4A02EBC30393F8903298E6B8
:10AF5000B02200215A4848264AF090FCB022002135
:10AF600057484AF08BFC4C4B304684F85C6AC4F876
:10AF7000583AFFF7CFFC4FF4403000230121D4F8BA
:10AF8000582AC4F8640A4F48C4F8781AC4F8701AEA
:10AF900084F8901AC4F8683AC4F8883AC4F88C3A2D
:10AFA000C4F86C3AC4F87C3A84F8803AC4F8843A1D
:10AFB000C4F8743AC4F8602AFDF722F8404846F015
:10AFC00061FDA4E60C2B2CD86FF0220716FB03734F
:10AFD0001F270E6B9F4000FA03F326EA07060E6355
:10AFE0000E6B33430B63E4E6D4F8B01900EB400A70
:10AFF0004FF007090E6907FA0AF709FA0AF926EA73
:10B0000009060E610E6937430F61BEE6122818D09B
:10B0100011287FF4D2AE28494B6843F400034B60FB
:10B02000CBE66FF0400716FB03731F27CE6A9F40E5
:10B0300000FA03F326EA0706CE62CE6A3343CB62F8
:10B04000B7E61D494B6843F480034B60B5E6D4F87E
:10B05000B02911498A4214D05B68DB063FF56FAF17
:10B06000194B9A427FF46BAF9A6812F0405F7FF4FD
:10B0700066AF9A6842F080429A6060E7C4F8F4399B
:10B0800033E7936813F0405F03D1936843F0804344
:10B090009360094B5B6852E700200140503A012061
:10B0A00040420F00FEF8FFFF0D18010811180108BB
:10B0B000FD1701084804002000230140B05C05088A
:10B0C000B03A0120B83A0120002201402DE9F041B8
:10B0D000D0F800E00C46DFF8588084B0DEF8045069
:10B0E0001746DFF850C0194605EA0805DDF8288044
:10B0F000064603932C43424644EA0C0CCEF804C0A7
:10B100000AF026FF78B931680246039B30468F6209
:10B110008021CDF800800AF04BFF003818BF0120D5
:10B1200004B0BDE8F081012004B0BDE8F08100BFAB
:10B13000009800FC00200181034690F83C000128A3
:10B1400000F03E810220F0B4012483F83D0083F832
:10B150003C40142A45D8DFE812F04D00440044007A
:10B1600044007B00440044004400DA0044004400F2
:10B170004400AA0044004400440006014400440086
:10B18000440015001A688E68156A0F6825F480154A
:10B19000AB4C1562106A556820F40010D2F854C008
:10B1A00040EA0650A74E0CEA0404B24244EA0724DF
:10B1B00000F0088106F58066B24200F003814E6817
:10B1C00055605465D6651062506D0C6940F400609E
:10B1D0005065506D20F480605065516D41EA042146
:10B1E000516500220121104683F83D1083F83C2070
:10B1F000F0BC70471A68D1F808C0156A0F6825F0CE
:10B200000105914C1562106A5668956920F002009C
:10B210002C408C4D40EA0C00AA4244EA070400F09E
:10B22000DD8005F58065AA4200F0D8804D68566043
:10B2300094615563106290690C6940F00800906158
:10B24000906920F004009061916921439161C8E701
:10B250001A68D1F808C0156A0F6825F010057B4CF4
:10B260001562106A5668956920F020002C40754DD3
:10B2700040EA0C10AA4244EA072400F0C38005F516
:10B280008065AA4200F0BE804D6856609461956367
:10B29000106290690C6940F400609061906920F43C
:10B2A00080609061916941EA0421916199E71A688F
:10B2B0008E68156A0F6825F48055644C1562106A13
:10B2C000556820F40050D2F81CC040EA06305D4EAC
:10B2D0000CEA0404B24244EA072400F08D8006F52B
:10B2E0008066B24200F088804E685560D461166472
:10B2F0001062D0690C6940F40060D061D06920F41C
:10B300008060D061D16941EA0421D16169E71A689E
:10B31000D1F808C0156A0F6825F480754A4C15628B
:10B32000106A5668D56920F400702C40454D40EAFB
:10B330000C20AA4244EA070473D005F58065AA42AE
:10B340006FD04D685660D461D5631062D0690C69C6
:10B3500040F00800D061D06920F00400D061D169CC
:10B360002143D1613DE71A688E68156A0F6825F49C
:10B370008035374C1562106A556820F40030D2F8D9
:10B3800054C040EA06402F4E0CEA0404B24244EA9C
:10B3900007041DD006F58066B24219D04E6855608C
:10B3A000546596651062506D0C6940F00800506558
:10B3B000506D20F004005065516D2143516510E738
:10B3C0000220704725F480254E6945EA8625F6E679
:10B3D00025F480354E6945EA0625DFE726F4407CF2
:10B3E00020F008008E69CF684D693843354320F05E
:10B3F000040045EA0C0619E725F480454E6945EA44
:10B40000861571E726F4406C20F080008E69CF68C5
:10B410004D6940EA0710354320F040004CEA8506AC
:10B4200032E726F4405C20F400608E69CF684D69F5
:10B4300040EA0720354320F480604CEA051680E797
:10B44000FF8FFFFE000001408CFFFEFFFF8CFFFE20
:10B450008FFFFEFF0128B5EEC00A10D0F1EE10FA02
:10B460000BDD9FED177ADFED177AE0EE077AFCEE41
:10B47000E77A17EE903A98B2704700207047F1EEE5
:10B4800010FA0BDD9FED107ADFED107AE0EE077A0F
:10B49000FCEEE77A17EE903A98B27047EDD5F7EEEA
:10B4A000006A9FED0B7ADFED0B7A30EE260AE0EEB4
:10B4B000077AFCEEE77A17EE903A98B2704700BF31
:10B4C00000E0F9440000404200C079440000834499
:10B4D00000C079C400E08244F8B53D4E96F8084BB0
:10B4E00004EB8403A70006EB830393F80C3B032BC8
:10B4F00044D8DFE803F0461B0F023C4406EB84040B
:10B50000D4F8103B002B58D0013B0025C4F8103B69
:10B510002846F8BD3B1906EB8303D3F8102B7AB10C
:10B52000013A0025C3F8102B2846F8BD3B1906EB5D
:10B530008303D3F8102B002AF2D1022283F80C2BBC
:10B540003C4406EB840494F8183B013BDBB284F8DE
:10B55000183B4BBB0323D4F8140B84F80C3B4AF084
:10B560003BFBC4F8100B06464AF03AFB80F00100A2
:10B57000002E0CBF002500F0010525BB0125284643
:10B58000F8BD35F00BFD05460028F7D03C440123FB
:10B5900042F2107006EB840484F80C3B4AF01CFB6A
:10B5A000C4F8100B2846F8BD01254FF47A704AF014
:10B5B00013FBC4F8100B2846F8BD4AF021FB80F0BD
:10B5C0000100C5B2B0E7013EC4F8106BACE700BFA4
:10B5D0005830012003689B0AA3F58013522B00D931
:10B5E00070470E4A134470B593F80C4384B00D2C89
:10B5F00012D800294FF0000309494FF0010514BF8C
:10B600001E460226427901EB84106946CDE90065A9
:10B61000CDE9023309F044FD04B070BDB05C05080B
:10B62000B43B012033492DE9F84F91F81C1F1C460B
:10B63000012507460229DFF8C4A0104619464FF03D
:10B640000002DFF8BC9018BF7F02CAF82C50FCF74C
:10B6500081FD294A630240F2FF5BC9F824204FF4C0
:10B660000075C9F828304FF48A62D9F82C300121CE
:10B6700010205E4643F09303C9F82C30C9F838B067
:10B68000C9F808504D46C9F80C2042F03DFF012C86
:10B69000C9F838B04FF00A048CBF4FF052084FF091
:10B6A00051084FF0000939464046FDF755F9013C75
:10B6B000034640F2774201213720E4B223B918460D
:10B6C000CAF82830BDE8F88FAE63C5F80890EA6084
:10B6D00042F01AFFAE63034608B1002CE3D1002B01
:10B6E000EDD000221846CAF82C20CAF82830BDE850
:10B6F000F88F00BF5830012000E1F505601F0120E0
:10B70000002C01402A492DE9F04F91F81C1F01241B
:10B71000DFF8A8B00746022983B0CBF830409A463C
:10B7200018BF4702012B4FF00A04224D40F2FF568A
:10B730008CBF4FF059084FF058084FF000090092A5
:10B7400039464046FDF708F9013C034640F277428E
:10B7500001213720E4B2BBB9009851460122019380
:10B76000154CFCF7F7FC13494FEA4A220020019BD5
:10B770004C628A62CA6A42F09102CA62CBF828001F
:10B78000184603B0BDE8F08FAE63C5F80890EA60D4
:10B7900042F0BAFEAE63034608B1002CD0D1002BB4
:10B7A000DAD000221846CBF8302003B0BDE8F08F85
:10B7B00058300120002C014000E1F505601F0120F8
:10B7C00003681878012801D00020704793F90430ED
:10B7D000074A03EB430302EB431393F8752F202A28
:10B7E000F3D1D3F8343F9869C0F3C030704700BF3D
:10B7F0005830012010B50C4C54F8583C1B78022BE3
:10B8000010D154F8500C33F081FE54F8500C08B1AC
:10B810002323C380012133F0E5FD044834F008FE02
:10B8200024F8540C10BD00BF5041012080969800B0
:10B8300030B5044683B001230D460DF107020848D8
:10B84000214634F079FF9DF8072035EA020304D041
:10B850002A432146024835F04DFA03B030BD00BFFF
:10B86000F840012038B505460A460C4606482946E8
:10B8700034F04AFE45F08001034834F0EDFD231A10
:10B880005842584138BD00BFF840012070B50D4CFA
:10B89000134654F8585C2A78022A07D00A46014613
:10B8A000A4F15800BDE8704034F046BF2A6A0AB1DE
:10B8B000002070BD0A460146A4F1580034F0F4FDA2
:10B8C000012070BD50410120036801221B78022B2A
:10B8D00001D035F05DB934F03FBE13B5394C0023CB
:10B8E000D4F880208DF80730137803F0FD0101298A
:10B8F00005D194F8841011B90C2184F88410022B1E
:10B900001CD0032B2CD001220B212F4842F060FACF
:10B91000042030F053FD01230DF1070200212A48D5
:10B9200042F078FA002837D09DF80730482B33D101
:10B93000264B6367264BA36702B010BDD4F888007E
:10B9400033F0E4FDD4F8880008B13623C380012128
:10B9500033F048FD1F4834F06BFDA4F88400D2E7B3
:10B96000D4F8303546F2A81150681222196100232C
:10B97000372180F8883042F0FFF9D4F880300D226A
:10B980002421586842F0F8F9D4F8803030226A2136
:10B99000586842F0F1F9B6E7D4F880301A78022AF4
:10B9A00003D0032A07D00020C6E7D4F8880034F07B
:10B9B000D9FB0020C0E710223721586842F0DCF99B
:10B9C000F1E700BF50410120D041012073DE04089F
:10B9D000F5DE04088096980030B54CF205028DB073
:10B9E000002304460321ADF8002001AD01228DF8AB
:10B9F00002300B938DF814208DF82820CDF808D054
:10BA0000CDE90633CDE90833CDE9035134F0C8FD63
:10BA1000204602A934F0C6FB204634F0C1FD9DF853
:10BA200006000DB030BD00BF084800230246117863
:10BA30000632022904D00133062BF8D100207047CA
:10BA400003EB430300EB4300704700BFC0480120F5
:10BA50002DE9F041664C82B02422002104F5EE600D
:10BA600049F00CFF002394F89977C4F89437002F1D
:10BA700039D1604EB36E53B39B6A43B35E48984767
:10BA8000836823B3038800255C48013B844606464F
:10BA90009BB23178063603291DD00135062DF8D129
:10BAA000002201780630022900F095800132062A32
:10BAB000F7D1D4F89417052909D002FB01C201314E
:10BAC000C4F89417022000219380107051803846EA
:10BAD00002B0BDE8F081062303FB0545B5F87237D7
:10BAE000013B9BB2DCE704F5F46394F89807C4F8D3
:10BAF0009C3710B900273F4EBCE733F0CDFBC4F8AC
:10BB0000A80718B183790BB1422BF3D139463C48D1
:10BB100034F04EFC80460028ECD0D4F89C37364AEE
:10BB20009868C3F8942008B12223C3800D21314EB8
:10BB300033F058FCD4F89C370025986833F0E6FCC5
:10BB4000304834F075FCD4F89C370146012232208D
:10BB50009980C6F8883086F88C2030F02FFC0423BA
:10BB60009F21D4F89C070DEB0302019534F09CFC57
:10BB70009DF805509DF8043006F168002D029DF8EF
:10BB8000061045EA03450D43294641F05FFC60BBC2
:10BB90002846FDF7BFF840BB9DF806509DF80530DC
:10BBA0002D029DF8072045EA0345174B15439D429A
:10BBB00015D0A6F86C00A6F87800C6E91C00284647
:10BBC000FDF7A8F8074680B994F8980733F064FBAE
:10BBD00034F0C8FA4EE7062101FB02C272E706F113
:10BBE000680041F0EBFB0028E9D0474642E700BF80
:10BBF0005041012058300120C0300120C0480120B0
:10BC0000F0480120404B4C0021AAEF002DE9F04FF5
:10BC10000423BC4C402141F2F40504F64C6704F1C6
:10BC200038064FF0A042E363E1640023022194F858
:10BC3000F5038BB0C4F838746651A263A366A3649D
:10BC40006366E36521656164C4E91533002800F08B
:10BC5000618103211F46164684F8F513936823F08B
:10BC600001039360F368304643F04003F36008F04B
:10BC700077FCB36B012F054643F48033B36317D0D1
:10BC800005B3022384F8F5339F4B93F89C50012DA4
:10BC900000F0FC80A36B8021012059625A6A42F4B3
:10BCA00080029A62FCF7B6FA00200BB0BDE8F08F74
:10BCB000B36843F00603B360B36843F02003B36096
:10BCC000002DDED1A36B3220DA6822F0C042DA60A8
:10BCD000DA6842F08042DA600BF0AEF9E06B50B304
:10BCE0002A4601272946C2EBC203561C04EB8303F4
:10BCF00083F87420A3F87A20F2B283F87570824238
:10BD000083F87710C3F88810C3E91F11EBD3002222
:10BD10001146C2EBC203561C04EB830383F83422A2
:10BD2000F2B283F83512824283F83712C3F8481210
:10BD3000C3E98F11EDD30022A36BD4F844C016469B
:10BD4000D4F84880D4F864E0D4E91471019102F188
:10BD50004001013203EB81010F2A4E60F7D19A6B4B
:10BD6000BEF1000F40F0408122F400129A631A687D
:10BD700042F040021A601A6842F080021A60002203
:10BD8000012F03F50066C3F8002ED3F80028C3F88E
:10BD90000028D3F8002800F01E81032F00F01B813B
:10BDA00042F00302C3F800284FF48461574A196136
:10BDB00002E0013A00F02F8119698F06F9D41021B1
:10BDC000524A196102E0013A00F023811969C9065B
:10BDD000F9D4002131617161F161E0B103F51062C4
:10BDE0004FF0904A4FF0006B0F464FF67F399C465C
:10BDF00007E0176001311761C2F8089020328142D4
:10BE000060D01368002BF4DA11B1C2F800A0F1E79A
:10BE1000C2F800B0EEE73269B8F1010F22F4807287
:10BE2000326100F0EA8000216FF0804299615A612E
:10BE3000B8F1000F03D19A6942F010029A61996932
:10BE4000334A0A439A61019A1AB19A6942F0080288
:10BE50009A61BEF1010F00F0CB80002D7FF411AF8D
:10BE60000121E26D84F870508A4284F8F51300F0E5
:10BE7000D4807368032043F0020373600BF0DCF896
:10BE8000214B93F89C50012D7FF404AF41F06EF8E4
:10BE900000287FF4FFAEA36B8022284640215A621F
:10BEA0005A6A42F400129A62FCF7B4F92021022087
:10BEB000FCF7B0F940210320FCF7ACF900200BB0EF
:10BEC000BDE8F08F002163460CF530624FF0904AD8
:10BED0004FF0006B0F464FF67F39844607E017603E
:10BEE00001311761C2F808902032614593D0106883
:10BEF0000028F4DA11B1C2F800A0F1E7C2F800B0EE
:10BF0000EEE700BF601F012058300120400D030004
:10BF100000383C8000F0FF054B4B03204FF4C05627
:10BF200084F8F4531A6B42F001021A630A221B6B65
:10BF3000069105A903F00103089044480493049B6B
:10BF40000795059609920AF0B1F8636E012B71D03E
:10BF50003D4B062143205A6B42F080025A635A6BD4
:10BF600002F080020292029A5A6C42F480425A64B1
:10BF70005B6C03F480430393039BFEF713FCA66BF7
:10BF80000323334A0821916084F8F533226DB368A6
:10BF9000012AA76C23F00103B3607FF463AEB26B98
:10BFA0002C4B22F48032E16EB2630129F26803EA7D
:10BFB0000203F360F36823F44013F36003D1F368E2
:10BFC00043F48013F360304608F0CAFA012F0546A7
:10BFD0007FF456AE6CE6BCF1000F3FF4E3AE42F0E6
:10BFE0000102C3F80028DFE642F400129A63C6E6B5
:10BFF0009969194A0A439A612FE718490020184A9B
:10C0000031636FF08041376B3A4332639861596115
:10C0100015E70125DDE60125D1E684F82C54996960
:10C02000C4F8342441F000610E4A9961596D0A4305
:10C030005A651EE74FF4007305A904480593CDE93E
:10C0400006550AF033F883E700380240000002404A
:10C0500000E100E0BFFFBDFF0400004000018000E0
:10C06000030001000300001010B51A4C94F83908C1
:10C07000C0B9194B83F88D05C3F8900594F83C3886
:10C08000012B05D0022B21D0D4F840381BB910BDAC
:10C09000124BC4F8403812495B68A1F10C00BDE8AE
:10C0A0001040184733F0F8F894F83B280A49003A52
:10C0B000C1F8900518BF012281F88D250028DDD038
:10C0C00021222021C28033F08DF9D7E7054BC4F837
:10C0D0004038E0E750410120601F01203403012077
:10C0E000944901201003012099B10A6B824216D9AC
:10C0F000154BD3F88428914221D34C3991421ED359
:10C100000B6B9842F9D38B6B9842F6D80B461846C6
:10C1100070470D4BD3F884180A6B904212D30B680A
:10C120000BB9F4E70A6B90420B4602D38A6B90423C
:10C13000EDD951F84C3F002BF4D11846704700233D
:10C14000184670470A46D8E7504101202DE9F047CC
:10C15000CC0143D1034622494FF0FF32022443F879
:10C16000081B7E2642601846DFF878802644051DAD
:10C170006FF07047D8F888984FF0010A013E4946A1
:10C1800008E0A3421CD0631C45F8043C321B1C464B
:10C190000435CAB10B6BA34202D88B6BA34204D205
:10C1A0002046FFF7A1FF014690B10A794B6B002AA8
:10C1B000E7D1A34204D0E6D2631C45F8042CE5E79E
:10C1C000631C45F8047CE1E7C8F88818BDE8F087EF
:10C1D000321B631C494645F804ACD8E78026C3E708
:10C1E000F8FFFF0F504101202DE9F0470023194DC2
:10C1F00084B0074695F9959805F69C064FF0B60A67
:10C2000000EB010805F63C351C46D6F800C0304668
:10C2100000226946E036BCF1000F14D09CF838C00B
:10C22000BCF1140F0FD019F1020F01D0CC450AD187
:10C23000CDE90244CDE90078ADF808A08DF80D40B5
:10C2400027F036FD0346B542DFD1184604B0BDE8FD
:10C25000F08700BF504101202DE9F04FA44CB2EE11
:10C26000045AA44AB4F8B81204F65417B4F8B63213
:10C2700004F62C5B07EE901A04F63C5A06EE103AD0
:10C2800004F65456B8EE677AB8EE466A2DED068B82
:10C2900092F83D3BB6EE009A85B0DFED97AA07EE27
:10C2A000903AB2F83E3B67EE096A0A2BF8EEE77A5D
:10C2B000B8BF0A23C7EE855A07EE903AB2F8403B62
:10C2C00008EE103A92F83C3B0022B8EEE70AB8EECE
:10C2D000C88AC4F8642987ED010AB4EE480AF1EE71
:10C2E00010FA30FE088AF4EEC86AC7ED005AF1EE83
:10C2F00010FA38FE268AC6EE887A082B87ED028A65
:10C30000A8BF0823B1F57A7FF7EE006A38BF13465D
:10C31000C4F8603904F55363FBFE677AF4EE667A7D
:10C32000F1EE10FA48BFF0EE667AFDEEE77AF8EE2D
:10C33000E75A17EE905AC6EE077AC4F8285D67EE02
:10C34000A57A86EEA76ADFED6D7AC7EE256A8BEDDA
:10C35000006A0BF2247BC6EEA78A80EE280AC3EDA2
:10C36000008A46F0C7FF0228B8BF022088EE280ADC
:10C370008046C4F8340D46F0BDFF2328DAED007A7C
:10C380009FED5F8AA8BF2320B8F1230FA8BF4FF00D
:10C390002308C4F8380D4045B8BF4046012DA0EB36
:10C3A00008028146B8BF01250132F5EE407AF1EE70
:10C3B00010FA29D1534900239FED53AA07EE903A72
:10C3C0000193F8EEE79ACDE9021269EEAA9AB0EE6F
:10C3D000690A49F055FCF0EE408AB0EE690A49F06E
:10C3E00003FC019BA8EE880A0299013368EE8A8A51
:10C3F0000831039A242B41ED018A20EE0A0A01ED4F
:10C40000020ADBD1DFED417A002346F80C9C46F8A6
:10C41000045C92FBF5F146F8081C314646E9053804
:10C420000133A1EC018A482BFAD1394806F5907303
:10C430000021D0F860C3D0F864030131C3F800C014
:10C44000586008332429F8D106F515765E45ACD13D
:10C45000DFF8C4900026DFED2F8ACAED007AB81904
:10C46000CA464FF00008D4F8603900F12405984519
:10C4700031DA07EE908A97ED016A74300421F8EE04
:10C48000E76AD7ED027A08F1010877EEC67A36EE50
:10C49000897A67EE877A07EE103AB4F8B632B8EECA
:10C4A000C77A00EE903A87EE870AF8EE600A30EE1F
:10C4B000060AAAEC010A97ED001A85ED178AA6EE86
:10C4C000A81A85ED168A85ED158A85ED148A49F03E
:10C4D000D3FB2846C7E706F5907609F12009B6F5A3
:10C4E000587FBCD105B0BDEC068BBDE8F08F00BF16
:10C4F000A001002050410120C3B8B23D000090428D
:10C5000000000000DC15002072F97F3FBC297E3F4F
:10C51000B05C0508CDCC4C3E080B00202DE9F04F57
:10C52000DFF89C810127614CDFF898A12DED028B8B
:10C530009FED5F8A85B0FEB2592118F8010B324693
:10C540002DF0ACFF0546002800F09680036801211D
:10C55000DFF874B14FF4005C534518BFB3F1804F5E
:10C56000E060DBED3B7A0CBF01230023F8EE677A35
:10C5700004ED088A002B04F8233CDBF8EC3014BFF0
:10C5800008464FF480701A464A4B44F80C0CA3FB43
:10C590000223002218F8010CDB0844ED077A04F8A6
:10C5A000241C44F8083C24F8181C24F8161C44F8F1
:10C5B000042C44E905C232F06FFE206110B159230A
:10C5C000C6718371DFF8049199F8483B012B6AD05A
:10C5D000022B0CBF422102216A7A32F0AFFEDBF857
:10C5E000EC200021284643F0CDFC14F8233C002B1E
:10C5F0004CD0314B002221462846236043F08EFB6D
:10C60000286843F019FD8346A8B1002199F8492B09
:10C6100001238A424FF00402019314BF0B46022308
:10C62000CDE9021269466A79009308F039FD69790B
:10C63000584608F005FE54F80C3C4FF0FF3CE26809
:10C64000013E1E4803EB0C011268F6B290F8440557
:10C65000012391624FF400550021B042C2F82CC072
:10C66000536124F8183C24F8163C44F8041C44E9AF
:10C67000055101D12DF0C0FE01373834052F7FF46C
:10C680005AAF05B0BDEC028BBDE8F08FDFF840E09B
:10C69000221DDFF840C021462846A360C4E900EC13
:10C6A00043F03CFBACE7222196E700BF20170020B7
:10C6B000000000001F85EB511115000098120020AA
:10C6C000944C0120000C00405830012050410120C2
:10C6D00049160000051800000C480D4BD0F8641BEB
:10C6E00010B48A1E0B4C2231C0F8543BB0F8703B9A
:10C6F0001B01A4FB03C3DB08A3F5B06322F8023FD0
:10C700009142F3D15DF8044B704700BF50410120C6
:10C7100071000208CDCCCCCC70B5084C251D2E463E
:10C7200014F8010B27F0E0FC28B10379B44205F8B6
:10C73000013BF5D170BDFF23F8E700BFD44C0120C9
:10C740002DE9F0471C4F01264FF03D094FF000083E
:10C7500007F10805B24617F8010B32F09DFD0446BB
:10C7600090B180F80690C671FB7803F07F02012A31
:10C7700017D013F0800F20460CD185F8048032F0DA
:10C7800073FE85F805802C6001360835052EE2D150
:10C79000BDE8F08785F804A032F0B8FE85F805A062
:10C7A000F1E71B0605D40121204632F01BFEFB7881
:10C7B000DFE732F0ABFEF6E7DC4C01202DE9F04775
:10C7C000D1F800A088B006460C46504690461F4659
:10C7D000BDF8409043F030FC002836D03946424640
:10C7E0000546504643F01EFB206843F025FC617966
:10C7F000237AC8B15F000A46DB00602107F0020718
:10C800004FF4807C03F00803019103974FF4007705
:10C810000493002301A9CDF808900593CDE906C73C
:10C82000FEF78AFC237A61799B07284610D408F02A
:10C8300047FD284608F002FE21686379002001F1D7
:10C8400034027160D1183160D05008B0BDE8F08773
:10C8500008F0F2FBEDE7374BF0EE607AB3F8B63252
:10C8600007EE103ABAEEEF7A2DE9F041B4EEC70ABE
:10C870002DED048BF1EE10FADFED2F8AB0EE408A39
:10C88000F0EE419A06DDF4EEC70AF1EE10FA32D569
:10C89000B0EE478AB5EEC08AF1EE10FA30DDF5EE63
:10C8A000C07AF1EE10FA2BDD27EE887A67EEE77A90
:10C8B000E8EE087A87EE279A00F10C0400F19C0557
:10C8C0001E4E1F4FDFF88080B5EE408A44F80C6C96
:10C8D00044F8047CF1EE10FA04DDB5EEC09AF1EEF6
:10C8E00010FA10DC44F8088C3034AC42ECD1BDECCA
:10C8F000048BBDE8F081B0EE688AB0EE689ADBE7A1
:10C900009FED0D9AD8E70F4BB0EE491AF0EE690A89
:10C910000421B0EE480A204644F8083CC4ED038ADE
:10C92000C4ED028AC4ED018AC4ED008A49F0A4F97D
:10C93000DAE700BFA001002000000000358C0408E9
:10C94000318C0408D91B0000251C00000A449142C8
:10C9500016D030B441F2210511F8014B082380EACA
:10C96000042010F4004F4FEA400485EA40000CBF59
:10C97000A0B280B2013BF4D18A42EDD130BC704705
:10C98000704700BF30B40023314D32494CF250346F
:10C99000C5F8CC3B304AD1F8F00804E0D1F8F038C3
:10C9A0001B1AA3420FD8D368DB03F7D4D16811F464
:10C9B000F9710BD1D06810F0010002D001230846B4
:10C9C000D36030BC7047032030BC7047D3689B07EE
:10C9D00005D5D5F8CC3B43F02003C5F8CC3B1E4B26
:10C9E000DB68DC0605D5D5F8CC3B43F01003C5F871
:10C9F000CC3B194BDB68980605D5D5F8CC3B43F00A
:10CA00000803C5F8CC3B144BDB68590605D5D5F8AF
:10CA1000CC3B43F00403C5F8CC3B0F4BDB681A0654
:10CA200005D5D5F8CC3B43F00203C5F8CC3B0A4B07
:10CA3000DB68DB0505D5D5F8CC3B43F04003C5F8F2
:10CA4000CC3B054B4FF4F9720120DA6030BC7047E3
:10CA50005041012058300120003C02402DE9F041B6
:10CA6000204C00234FF0050894F8D72B04F6D43758
:10CA700004F6D83584F8D02B17F8010B5E1C20BBC8
:10CA80002860032E05F104053346F5D194F8D01B38
:10CA9000D4F8D80BC94301F0010132F095FD94F8A8
:10CAA000D01BD4F8DC0B81F00201C1F3400132F05D
:10CAB0008BFD94F8D01BD4F8E00B81F00401BDE8A5
:10CAC000F041C1F3800132F07FBD32F0E5FB01217E
:10CAD000F3B2286010B180F80680C371286832F084
:10CAE00081FCCEE750410120F0B5284C83B0B4F86A
:10CAF000E85BA4F8EA5BEDB994F8E40B32F0CCFB08
:10CB000094F8E52BC4F8EC0B003A18BF012284F826
:10CB1000F02B48B194F8E61B2D220029C28014BFE7
:10CB20001121012132F05EFC002003B0BDE8F0408D
:10CB300032F052BD94F8E47B00222D2138462DF0CE
:10CB4000ADFC0646384632F0A7FB00B10EB903B083
:10CB5000F0BD2D22C4F8080C0221C280727A32F096
:10CB6000EDFB0B4AA4F80C5C314604F6F430B2FB42
:10CB7000F5F3C3F34F059BB20095FFF71FFE0023AB
:10CB8000D4F8F42B136084F8053CE0E75041012011
:10CB900040420F002DE9F84F264B002693F8182C41
:10CBA00003F60F4703F62C4483F80E2C5FFA86FB3E
:10CBB0004FF0010917F8010F01360BEB090A49463E
:10CBC0004FF000085FFA8AFA52462DF067FC0546DE
:10CBD00048B3387804F80E8C04F80D8C04F80FBCB8
:10CBE00004F8109C44F8045C32F056FB022118B1A2
:10CBF00080F8069080F807A06A7A32F09FFB0E4A10
:10CC00000021284643F0BEF90C4B221D214623602B
:10CC100028460B4BC4E9013843F080F84246697955
:10CC2000286826F00DFB082E04F11C04BED1BDE8D7
:10CC3000F88F00BF5041012040420F0081320308AD
:10CC4000EDEE020870B52C4C00222C4B022194F81A
:10CC5000440DC4F83C3DC4F8FC2CC4F8002DC4F8C5
:10CC6000042DC4F8382DA4F8402D2DF017FC002811
:10CC700036D0234B0546016803F160005A7C12B19F
:10CC80005A6891422DD018338342F7D1002394F88B
:10CC9000440DC4F8285C84F81C3C32F0FDFA08B15D
:10CCA0000223C38000266A7A022132F047FB314614
:10CCB0002846144A43F066F9134B144A2846C4F830
:10CCC0002C3C134B111FC4F8346CC4F8303C43F0B7
:10CCD00025F8324669792868BDE8704026F0B0BA78
:10CCE00070BD8A6A0B4801320B49D0F8EC30B3FBB7
:10CCF000F2F381F85833C9E75041012000FFFF00EB
:10CD0000E017002040420F0015EF0208804D01207F
:10CD1000A1F0020858300120000001202DE9F04F59
:10CD2000DFF86C9399F84A4D2DED048B032C97B0E6
:10CD3000039000F2AE80DFF848830022C04B012749
:10CD4000C04E08F5C16588F83826022C83F8A47B0C
:10CD50000FCE0FC50FCE36680FC599F8503D2E6027
:10CD600040F008829FEDB88AB0EE489A002BB74A8F
:10CD7000B74B0EBF002101211346B64A0491B649B4
:10CD8000C8F81826C8F8201679EE087ADFEDB36ADD
:10CD9000B5EE007AB24C28EE268ADFF8DCA2002538
:10CDA000C8F81C36C7EE278ACDF81480FAFE688AC8
:10CDB000FCEEE88A039BAB4265DD6F1C1AF8018B21
:10CDC00003215FFA87FB40465A462DF067FB064673
:10CDD000002800F0C184404632F05EFA606118B16C
:10CDE000032380F807B08371727A022132F0A6FA29
:10CDF000049B002B00F0F481B9F8483D4FF6FF7218
:10CE000007EE903A974BF8EEE77AD3F8EC10FCEE89
:10CE1000E77A17EE903AB1FBF3F00244120CB1FB43
:10CE2000F2F2B2FBF3F307EE902A00209BB23146F8
:10CE3000B8EE677ADFED8C7A0090204667EE086ADC
:10CE400067EEE67AC4ED026AE7EE097AC4ED037A8A
:10CE5000FFF7B4FC002D00F0BE816168804B02E05A
:10CE60009C4200F0B8815A6818338A42F8D10123F5
:10CE700083F001030122042F3D46237404F11804BA
:10CE800004F8072C96D1794EDFF808B2CBF86C6223
:10CE9000A5E0631FDAB2032A00F295800122684BF5
:10CEA000DFF8DC8183F8A42B99F8533D88F8382605
:10CEB000934200F0F3809A1E53425341082C08BF5E
:10CEC0000023002B40F0EA80694E08F5BB6599F815
:10CED000527DDFF8C0B10FCE0FC50FCED6F800C01F
:10CEE0003E1E0FC518BF0126624B072CC5F800C0B7
:10CEF0008BF88462C8F8E83500F28081042C00F2D7
:10CF0000D5820023DFF890A10493554B05935A4B2B
:10CF1000CDE9063BDDE90332934240F3C3829DF83D
:10CF200010300321069A5D1C0A9312F8016BEDB2D2
:10CF3000069230462A462DF0B1FA0446002800F049
:10CF40000F81304632F0A8F9059B586110B10323D8
:10CF5000C571837199F84A3D2046089332F0FEFE70
:10CF600094F808B00346002800F0F68098F84426AC
:10CF70000992002A40F049814768002F00F0F080B4
:10CF80009B6838460C9332F051FF2A4603210B90E0
:10CF900032F05CFF002800F0E38098F848662568CE
:10CFA0003648CAF89470002E00F0908200220346A2
:10CFB00003E00132B24200F089821968B8338D4231
:10CFC000F7D1D6B28AE21E490022032B81F8A42BA6
:10CFD00023D82B4B0122DFF8BCB083F83826DBF8CE
:10CFE0006C3203B301210022039883F8251083F8E3
:10CFF0002400014683F826209A6248B12C33214A46
:10D000001944084612F8011B03F8011B9842F9D194
:10D0100017B0BDEC048BBDE8F08F194BDFF874B08E
:10D0200083F83826DBE7184D184C0FCD0FC40FCD11
:10D030000FC42B6844F82039CBF86C42E8E700BFF6
:10D040009023002050610508282930380D9E0308E0
:10D05000E9F00208119E030819F302086F12833ADF
:10D06000E01700205830012000007A44A01800206A
:10D0700008610508F5010508A54E0120E418002007
:10D08000981200209C4E0120E4600508CC4E01203F
:10D0900050410120A001002004290020002799F818
:10D0A000523D89F8AC4D794DDC1B039B784E18BF7F
:10D0B0000124C8F83C36DFF80CB289F8797D8BF88A
:10D0C0008442DFF804A20FCD0FC60FCD0FC62B6828
:10D0D00039464FF44C726F4846F8803948F0CEFB21
:10D0E0006D4BCDE9043BD8F83C36BB426FDD049B69
:10D0F00013F8014B204604932DF058FA05462046BC
