:020000040800F2
:10000000F0FF012045970408AD9704084D810308CF
:10001000AD970408AD970408AD97040800000000F0
:10002000000000000000000000000000AD97040880
:10003000AD97040800000000AD970408457C030854
:10004000AD970408AD970408AD970408AD97040870
:10005000AD970408AD970408D9820308D18203083C
:10006000C9820308C1820308B9820308A186040873
:100070009186040881860408718604085D86040858
:100080004986040835860408AD970408AD9704082E
:1000900099C40008AD970408AD970408B18203081D
:1000A000496A0408196B0408396A0408416B04089A
:1000B000096B0408F96A0408E96A0408AD900408A9
:1000C000B990040895900408A1900408AD9704081D
:1000D000AD970408D17C0308C17C0308B17C0308F8
:1000E000A9820308AD970408AD970408AD970408EA
:1000F000696A0408AD970408596A0408AD970408B2
:10010000AD970408AD970408D96A0408AD970408B0
:10011000A17C0308917C03086D6A040859BC00089F
:100120000D860408F9850408E5850408D1850408CE
:10013000BD850408AD970408AD970408AD97040881
:10014000AD970408AD970408AD970408AD9704086F
:10015000AD970408AD970408AD970408AD9704085F
:10016000AD970408AD970408AD970408AD9704084F
:10017000AD970408AD970408AD970408AD9704083F
:10018000296A0408AD970408659004087190040872
:10019000AD97040800000000AD970408AD9704086F
:1001A000AD970408AD970408AD970408AD9704080F
:1001B0007D90040889900408AD970408AD97040861
:1001C00021860408A985040895850408818504080A
:0801D000AD970408AD97040887
:0801D800A492040001000000E4
:08280000082800080040000850
:04400000FFFFFFFFC0
:106000001148002302461178032902F1060215D037
:106010000133062BF7D1436A052B0ED05A1C03EB34
:106020004303426200EB4303032040F2EB3140F2B2
:10603000FF32187059809A807047704703EB430312
:1060400000EB4303F0E700BFC80C00200A44914274
:1060500017D010B40139541E11F8013F08225840DE
:10606000430010F0800F08BF400083F0D50314BF39
:10607000D8B2C0B2013AF3D1A142EDD15DF8044BE0
:1060800070477047037870B42BB30246C0F1010526
:10609000531912F8014FDBB2002CF9D101335B0028
:1060A0000E4C0B80032284F8283084F829200178D4
:1060B00079B1022300265A1CE51854FA82F285F8B9
:1060C000281082F8286010F8011F0233DBB2002983
:1060D000F1D170BC70470223E2E700BFC80C00207A
:1060E000826D136A5B681B78FF2B08D090F8D03064
:1060F000013BDBB280F8D0301BB10120704700209B
:106100007047126A526802201370704770B4C30857
:106110000D4CE25C00F00706B24004EBD004D2B2B2
:106120000020C6F108038B4228BF0B46C3F10805C7
:106130002A419840C91A40EA02004FF0000614F8BC
:10614000012FEED170BC7047300E002030B5EFF358
:106150001181802383F312880A4AD2F8FC31D2F8E5
:106160000042D2F8FC01D2F80052CAB282F3118880
:10617000013BA84294BF4FF4006000201B1B184451
:1061800030BD00BFC80C0020012380F8513070479B
:10619000014BD3F804027047C80C0020012070475F
:1061A000014BC3E982217047C80C0020014BC3E9B1
:1061B00084217047C80C002070477047212838B5EB
:1061C00005D0222827D020280FD0002038BD002954
:1061D000FBD0072AF9D1174B1C6818795A799B799B
:1061E0000C6008714A718B71EFE70029EDD0072A26
:1061F000EBD111480F4B0C79D0F80C224D791C7162
:106200008C7909685D719C711960002ADDD0D0F825
:1062100008029047D9E70029D7D0022AD5D1064AEB
:10622000D2F81432002BD0D00988D2F81002984747
:10623000CBE700BF00000020C80C00200020704702
:106240000A2303800048704708000020642303806D
:106250000048704714000020012901D00020704739
:10626000014BD3F89030184700000020012901D0DD
:1062700008F0F8BB014BD3F88C3018470000002021
:10628000014BD3F8883018470000002010B40B7879
:1062900003F00303012B0A46044605D0022B0BD062
:1062A00000205DF8044B70478B8843B920461146A7
:1062B0005DF8044B0AF0C2BC8B88832BF6D0034BED
:1062C0005DF8044BD3F88030184700BF0000002071
:1062D00038B5054B0446DB6F0D46984729462046E6
:1062E00009F07EFB002038BD0000002038B5054BCA
:1062F00004469B6F0D4698472946204609F0A2FBAD
:10630000002038BD000000200023F0B452004F1CD4
:106310001E46B0F1204F4FEA107404F130052ABF39
:106320003734CD54CC54FE5402339A424FEA001015
:10633000EFD1F0BC704700BF08B50248FFF7A2FEDE
:10634000014808BD28210508F00C002008B50248C6
:10635000FFF798FE014808BD38210508F00C002021
:106360000B4A0C4B10681B681A22C0180A8001D116
:106370000948704710B5094B09491C680822FFF706
:10638000C3FF204607490422FFF7BEFF024810BDA5
:106390009075FF1F9875FF1FB00000209475FF1FB8
:1063A000B2000020C200002008B50248FFF76AFED4
:1063B000014808BD44210508F00C002008B502483A
:1063C000FFF760FE014808BD50210508F00C0020D1
:1063D000042301480B807047CC000020A0B18268E4
:1063E0000D4B12B107229A7070471978DA600329B1
:1063F0004FF004000CBF80214FF48071C3E90111FC
:106400001A611A7598707047034B41F2E4710122CA
:106410005A545A70704700BF406800200378022B1E
:1064200010D0006908B9012070470C4B1B78032B72
:106430000EBF0B4B80B24FF6F773984294BF00200B
:10644000012070470549436841F650028A58B3EB72
:10645000422F2CBF01200020704700BF4068002061
:10646000F7FFFF0F0378022B14D030B4104A4368B3
:10647000006941F6480402F5C2511559096841F610
:106480003C042B4012595B0A023801FB00301044D7
:1064900030BC7047064B426841F6340141F630008B
:1064A0005958185800EB410000EB5220704700BFCC
:1064B0004068002000487047180E0020034B93F8F6
:1064C0004C01032894BF002001207047C80C002015
:1064D000836D1B6A5B681B78FF2B0AD190F8D03064
:1064E000002B03F1FF3380F8D03014BF01200220CD
:1064F00070470020704700BF034B93F84C010038F1
:1065000018BF0120704700BFC80C00202DE9F843D8
:10651000884600294FD04718284C07F1FF39461EFE
:106520008025EFF3118185F31288D4F8FC21D4F88B
:106530000002D4F8FC31D4F800C2C9B281F311884A
:10654000634594BF4FF400630023121A1344012BD8
:106550001AD1012031F06CFBEFF3118185F3128821
:10656000D4F8FC21D4F80002D4F8FC31D4F800723D
:10657000C9B281F31188BB4294BF4FF4006300237A
:10658000121A1344012BE4D0EFF3118285F3128821
:10659000D4F8003216F8011F2344D2B283F818123F
:1065A000D4F800320133C3F30A03C4F8003282F393
:1065B00011884E45B5D14046BDE8F883C80C00208F
:1065C000F8B590F85050002380F85030D5B10F4EF8
:1065D00096F88C2C032A17D1D6F8C47C00F13C0421
:1065E00029462046FFF792FFD6F8C43CDB1B322B2E
:1065F000A5EB0005044401D8002DF1D1B5FA85F0D2
:106600004009F8BD0120FCE71846FAE7C80C002055
:10661000002280F85120D3E790F85020531C024408
:10662000DBB280F8503082F83C1090F851200AB16B
:10663000132B00D9C4E77047F8B50C4E96F88C3C84
:10664000032B0D4614460FD1D6F8C47C002C0BDD6D
:1066500021462846FFF75AFFD6F8C43CDB1B322BF5
:10666000A4EB00040544F1D9F8BD00BFC80C00201C
:1066700010B5134A134B8CB00821069302F5C07075
:10668000002382F8F8110DF1070401226944CDE9D5
:106690000733CDE9034202938DF8143009930B932D
:1066A0008DF8282032F088F8074832F0A3FA9DF8D8
:1066B0000700A0F1FF00B0FA80F040090CB010BD57
:1066C000C80C0020E1600008480E002070B592B0B0
:1066D0000B0E0D0C40F04006952204468DF8081074
:1066E000080A01A98DF805308DF80650002306250B
:1066F0008DF807008DF809200DF1030001220391A8
:1067000015498DF80460CDE90733CDE90D33CDE9A6
:10671000090204938DF818308DF82C300F931193E3
:1067200005958DF840200C91FFF7A2FF00B984B9C0
:106730000A4C082304F5C07003A984F8F83132F03C
:106740003BF804F5C07032F055FA9DF8030012B022
:1067500070BDFF2012B070BDD1640008C80C0020CD
:1067600030B5114A114B8DB002F5C0740146069345
:106770002046002382F8F8110DF10705012202A935
:10678000CDE90733CDE9035202938DF81430099314
:106790000B938DF8282032F00FF8204632F02AFAB9
:1067A0009DF807000DB030BDC80C0020D164000872
:1067B00070B51D4D90B00024FD2201260DF103039C
:1067C00001A905F5C0708DF803200693CDE90144B9
:1067D000CDE90A44CDE90C44C5F848418DF8104094
:1067E000059407948DF824400F94039608968DF82D
:1067F000386031F0E1FF05F5C07032F0FBF930464A
:10680000FFF7AEFFFF2809D0D5F8C43CC5F83C31EE
:106810002046092385F84C3110B070BD04230220B6
:1068200085F84C3110B070BDC80C002070B506461C
:1068300090B008200D46FFF793FFFF2823D0FE28D5
:1068400002D0022010B070BD00240222012301A951
:106850000E4808928DF83830CDE90544CDE90A4458
:10686000CDE90C440296039501948DF810400794ED
:106870008DF824400F9431F09FFF044832F0BAF9AC
:10688000204610B070BD012010B070BD480E002031
:106890002DE9F84F4D4B984210D003F5685308335B
:1068A000984255D04A4B0020A3F8300DA3F83C0D78
:1068B000C3F8340DC3F8380DBDE8F88F444C454F8C
:1068C000DFF81C810223C4F8C83C04F6CC4600253E
:1068D000D7F8D030AB42294605F1010503D0D4F8F2
:1068E0004C0D3EF0F1FC94F8503DD4F84C2D86F858
:1068F00024303262304641463EF0FAFED4F8C83CBD
:106900009D4206F13006E3DB002384F83E3DD4F8D7
:10691000C81CB4F8D02CD4F8D83CD4F8D40CB4F8B3
:10692000DC5CC4F85C3D12FB01F203FB01F3A4F84C
:10693000302DB4F8D21C284AC4F8340DC4F8383DC0
:10694000A4F83C5DA4F8321DC4F82C2D0120B3E757
:106950001F4C204F0223C4F8C83C04F6CC454FF02E
:10696000000B4FF4806A4FF040094FF40068D7F8ED
:10697000D02001265A455946B34403D0D4F84C0DD3
:106980003EF0A2FCD4F84C1D94F8502D296285F8F5
:1069900024204FF400314FF00062C5E90212A5F83F
:1069A00004A0A5F81090A5F80680AE74FFF728FBA8
:1069B00028466E763EF0E8FDD4F8C82C074B45F823
:1069C000303B9345D3DB84F83E6DA0E71971EF00AF
:1069D000C80C002000000020ECCA0408C0CA04084B
:1069E0001940EF002DE9F04103792C4C002B14BF26
:1069F000012200228AB084F8782104D184F84C3135
:106A00000AB0BDE8F081054604F5C07795F900109D
:106A1000384631F0F1FFAD789DBB214B2148C4F8D9
:106A200088514FF00108C4F8F43184F88C8132F0B9
:106A300025F81D4E03464FF47A70A4F8843131F0E6
:106A4000F7F8D4F8880131F0A1FA0FCE6D460FC5E2
:106A50000FCE0FC596E8030085E803006946384667
:106A600031F0AAFE384632F0C5F8D4F8C42C84F8C8
:106A70004C810023C4F83C2184F840310AB0BDE8C1
:106A8000F081284631F0CAF9054608B11E23C380BB
:106A90000D21284631F032FABFE700BFC80C0020B4
:106AA000F00D0020801A060018CB04080F4B07B524
:106AB000D3F8D4205208B2FBF1F3B3F5803F02D3F0
:106AC000012AF7D8F9E799B2019040F09BF90849FB
:106AD000084A019841F2CC53CA5001F5AE51002248
:106AE0000C3103B05DF804EB40F070B800000020FA
:106AF000C80C00209599010810B5074C04F5C0702A
:106B000032F078F80A2031F087F8D4F88801BDE82F
:106B1000104031F03BBA00BFC80C00202DE9F8430B
:106B20001B4C94F84C61042E0546894690461F463E
:106B300008D0082E02D00020BDE8F883FFF738FE09
:106B40000228F8D1D4F8880131F01AFA94F84231C9
:106B5000A3B969021120FFF7B9FDA8B9D4F8C43C64
:106B6000C4F828910522C4E94D87C4F82C5184F853
:106B70004C21C4F83C310120BDE8F883294611209E
:106B8000FFF7A4FD0028E9D0FFF7B6FFD3E700BF69
:106B9000C80C002010B50C4640F092FC58B9084BC8
:106BA00093F8DC34012B4FF012030BBF0548064865
:106BB0002380238010BD12230448238010BD00BF12
:106BC000C01D002000010020EC000020D8000020A3
:106BD00010B509F041FF104C58B194F84C31032B1B
:106BE00013D894F840310133DBB2072B84F84031DD
:106BF00003D9002384F84C3110BDD4F8C43CC4F848
:106C00003C31012384F84C3110BD044831F036FF8B
:106C1000A4F88401E5E700BFC80C0020801A060034
:106C200070B51E4C94F84C31042B06460D4609D025
:106C3000082B23D1D4F8443183422DD0FFF7B8FD7F
:106C400002281BD1D4F8880131F09AF900213720AD
:106C5000FFF73CFD29461720FFF738FDB0B994F83F
:106C600042316BB971021920FFF730FD70B908236A
:106C7000C4E9516584F84C31022070BD012070BD1B
:106C800031461920FFF722FD0028F0D0FFF734FF2E
:106C9000FFF79EFF032070BD022070BDC80C0020CE
:106CA0002DE9F8432A4C0546884617461E4694F8B7
:106CB0004C01042831D0082807D1D4F84431AB4224
:106CC00006D0FFF775FD0228F1D00120BDE8F8835A
:106CD000FC22204BDFF884901F4883F8E024C9F899
:106CE0003C8131F099FD002814BF4FF400734FF43C
:106CF00080731948C9F8443109F58A7131F05CFD97
:106D000001220623C4E94A85C4E94D7684F830217E
:106D100084F84C310020BDE8F883D4F8880131F0C4
:106D20002FF994F8423153B969021820FFF7CEFCCD
:106D300038B994F84C31082BCAD0FE22C9E729464D
:106D4000F3E7FFF7D9FEFFF743FF0320BEE700BFDD
:106D5000C80C0020C01D0020480E002000000020AC
:106D60002DE9F047D04C94F8786194B0002E00F0F3
:106D7000958194F84C2104F5C07704F5B478531E3E
:106D8000082B00F2A480DFE813F0390062002E0126
:106D9000A2009000B4001B00A2000900FFF768FCED
:106DA000002840F04282D4F83C31D4F8C42CFA33A5
:106DB000934280F08980FFF70BFF94F84C21DEE7C7
:106DC000FFF756FC0028EED0D4F848310022012B02
:106DD00084F8402140F24082D4F84421013B511C08
:106DE000C4E95113082284F84C21A2F10806B6FA2E
:106DF00086F67609304614B0BDE8F087D4F88801ED
:106E000031F0BEF800210846FFF760FC0546FFF7A9
:106E100073FE012D58D1D4F888014FF0000984F891
:106E2000419131F0ADF840F2AB110820FFF74EFC74
:106E3000052800F07A81012800F03C81FFF75CFE14
:106E400094F84121002ACED0022384F84C31D4F8A2
:106E5000880131F095F894F84131022B0CBF4FF0C6
:106E60008045002500213720FFF730FC29462920E6
:106E7000FFF72CFC0546FFF73FFE2DBB94F8413190
:106E8000022B00F0818184F84251D4F8880131F05E
:106E900077F800210920FFF719FC002872D0FFF7CE
:106EA0002BFE94F84C21531E11E0D4F828014FF426
:106EB0000071FFF7BBFC012800F01B81022800F0E5
:106EC0002081002800F04C8194F84C21531EDBB245
:106ED000022B0AD8D4F8C43CD4F83C115B1AC82B56
:106EE00083D9FFF775FE94F84C21042A7FF47DAF17
:106EF00080E7D4F880316D481D6A31F08DFC0028A0
:106F000000F01681B5FA85F56D09002DDCD004A9D5
:106F100000250DF10F0302224FF0010905913846BB
:106F200005A9CDE90B390792CDE90955CDE90E55F3
:106F3000CDE91055ADF8105006958DF820508DF81C
:106F4000345013958DF8489031F036FC384631F0C6
:106F500051FE9DF80F3003F01F03052B00F06E81EA
:106F6000FFF736FED4F834A1BAF1000F00F0DA8052
:106F70002A46D4F83831D4F82C114846D04794F832
:106F80004C21FCE610214046FFF750FC0546002846
:106F900085D101217F20FFF7B9F8012881467FF4D0
:106FA0007EAF28460221FFF7B1F8002800F01E81CD
:106FB00001287FF474AF16213A20FFF7A7F80130BB
:106FC0008002C4F85001FFF797FDD4F8880130F033
:106FD000D7FF00210A20FFF779FB002840F0FF804F
:106FE000032384F84C31102105A8FFF71FFC00286B
:106FF0007FF46AAF9DF821309DF822109DF81C2087
:107000009DF815509DF816001B01DBB243EA1113E1
:1070100003F5FA63A4F86231DDF81D3001F00F01C9
:1070200084F864111BBA110902F00F0240EA05202E
:1070300084F8601184F861219DF814109DF81720E0
:10704000C4F85C31069BC4F85831A4F8540184F8A4
:10705000561184F85721FFF74FFD94F8423173B968
:10706000D4F8880130F08CFF4FF400711020FFF746
:107070002DFB0546FFF740FD002D7FF49CAE0C482C
:1070800031F0FCFC00220423A4F884013046C4F84B
:10709000482184F84C3114B0BDE8F087304684F8BC
:1070A0004C6114B0BDE8F087C80C0020480E0020E9
:1070B00040787D01042304AA8DF8340005A96E48A8
:1070C00007930692CDE90999CDE90B99CDF8149073
:1070D0008DF82090CDF8389031F06EFB664831F095
:1070E00089FD9DF81330AB2B04BF022384F8413196
:1070F000A4E6D4F83C31D4F8C42C64339342BFF4F2
:10710000E3AEFFF7F9FCFFF763FDD4F834514DB15E
:1071100000221046D4F83831D4F82C11A84794F83E
:107120004C212CE694F84C2129E684F8415185E65F
:10713000D4F8283194F83011024603EB0121384687
:107140004FF4807331F03CFD94F830310133DBB201
:10715000A3F10205B5FA85F584F830316D09D4E65E
:107160000190FFF7C9FCD4F83451019884F840012C
:10717000042384F84C31002D3FF43CAED4E94A217D
:10718000D4F83831A8479FE6D4F8880130F0F8FEEB
:1071900029463A20FFF79AFA04A9042281460123DE
:1071A0000691384605A9CDE90955CDE90B55059558
:1071B0008DF820500E9507928DF8343031F0FCFA9E
:1071C000384631F017FDB9F1000F08D1FFF794FCF4
:1071D000049B1BBAC3F3807384F8423155E6FFF772
:1071E0008BFCFFF7F5FC94F84C21C8E504212C201A
:1071F000FEF78CFF032105464E20FEF787FF0C218A
:1072000082463620FEF782FF0AF1020A431C03FA87
:107210000AF309FA05F0A3FB0001430A43EAC1534C
:10722000C4F85031FFF768FCCFE60190FFF764FC2B
:1072300001980423064684F84C31DBE5D4F8345138
:10724000D4F8C43CC4F83C31072284F84C21002D0A
:107250003FF4CBAD484691E708D0042384F84C3185
:10726000FFF74AFC94F84C21531E30E6FFF7A0FAD2
:1072700002287FF429AE12E6480E002043090122BD
:1072800000F01F00013B86B002FA00F0042B0CD87E
:10729000DFE803F0161F28030D00174BDA6D0243D9
:1072A000DA65DA6D10400190019B06B07047124B11
:1072B0009A6C02439A649A6C10400590059BF4E71F
:1072C0000D4BDA6C0243DA64DA6C10400490049BD4
:1072D000EBE7094B1A6E02431A661A6E10400390D0
:1072E000039BE2E7044B9A6D02439A659A6D104046
:1072F0000290029BD9E700BF0010024008B50121AF
:10730000032040F0B3F872B63DF078FEF0B5D0F847
:1073100000C0134CDCF8045085B0254045EA010458
:107320000A9F039344F0004444F490341546CCF88B
:10733000044019463A4606460BF060FB68B93168CE
:10734000039B8D6202460097304640210BF086FB7E
:10735000003818BF012005B0F0BD012005B0F0BD18
:10736000009800FCF8B5144F04460D460AE09B69EE
:10737000DB0602D50BF000FBD8B9D7F8E4345B1B71
:107380000A2B09D823689E69B6062A464FF00A01DF
:107390002046ECD50020F8BD636C202100220B4371
:1073A000636484F8402084F8411084F8422001206E
:1073B000F8BD0120F8BD00BFC01D0020164BDB68E2
:1073C000C3F3022310B4C3F107041A1D042C28BF11
:1073D0000424062A4FF0FF3202FA04F28CBF033B6A
:1073E000002321EA0201002801FA03F10ADB00F17F
:1073F000604000F561400901C9B280F800135DF8F2
:10740000044B7047054B00F00F0009010344C9B25B
:1074100019765DF8044B704700ED00E0FCEC00E0ED
:10742000284B294AD3F8D430284910B5A2FB0323AE
:10743000274CDB0C82B00022013BC4F8E81404F5B1
:107440009D6041F28731C4F8EC34C4F8F414C4F8F8
:10745000F824C4F8F0240AF029FC1E4B9A6D42F07F
:1074600020029A659B6D03F02003019306213720CB
:10747000019BFFF7A3FF1849D4F8E834174A4FF4EB
:1074800000004860D96841F00101D96099680A405C
:10749000062A06D0B2F5803F03D01A6842F00102F6
:1074A0001A600F4B0F49D3F8A82C002003F506747F
:1074B000C2E98114C2F81002C3F81402C3F80C0226
:1074C00002B010BD0000002083DE1B43001400400A
:1074D000C01D00200010024000E100E00700010094
:1074E000C80C0020E8220020F0B589B00D46044603
:1074F00030F0D0FE031E1CDB164A174E1A4406EB72
:10750000830392F88070C3F8285D204630F0E8FECF
:107510003E44A588114A2068002303A9CDE905331C
:107520000793CDE903520BF015FB96F8683DF02B5D
:1075300001D809B0F0BD0A4B0321D8570190F023C0
:1075400086F8683DFFF73AFF01980CF0BDFA09B0E4
:10755000F0BD00BFC0CA0408C01D0020000011100B
:10756000A0210508B0B10C49D1F8703D102B03D112
:107570000521002030F05EBE03EB43020A4482F88E
:10758000740D202082F8750D0120034482F8760DD9
:10759000C1F8703D704700BFC01D00208078E1E752
:1075A0002DE9F04FDFF8A4B089B0542200210BF68A
:1075B000A45045F0F1F840F24C421B490BF6F8504C
:1075C00044F088F9194B93F84C211AB193F84D21E6
:1075D0008BF8A42D93F84E211AB193F84F218BF814
:1075E000C82D93F852211AB193F853218BF8BC2D72
:1075F00093F850211AB193F851218BF8B02D0C4912
:107600000C4A0D481288098800880C4DC3F868118F
:107610000B4C0C4EC3F86401511A00270A4A92FB26
:10762000F1F2C3F86C2118E050CB0408B82E00200A
:10763000A875FF1FCA75FF1FAA75FF1F000021C391
:10764000C0CA0408642B002080380100C01D00203F
:107650000137072F06F10C0628D0042F00F04B81CC
:10766000052F00F0708130780028F1D0BA4A00234D
:107670000133312BECD012F80C1F8842F8D103EB08
:10768000430CB64904EB8C0C00220868DC3128B1AD
:107690009CF8DD041041C00700F178840132052A0E
:1076A000F3D10137072F06F10C06D6D1AC4CDFF829
:1076B000DC82DFF8DCA2DFF8DC92AA4FAA4E0025BC
:1076C00054F8083C002B00F0AF80D4F8D020002AFA
:1076D00000F0AA80DC2202FB05B22360D2F85C1E17
:1076E00041F00201C2F85C1E9A6812F0040F9A6819
:1076F00040F05C81110700F15981DA6842F4001210
:10770000DA6020460CF0EEF9002800F0FB812368D7
:1077100096495A68DFF880C202EA08025A6040F2CD
:10772000FF721A609A6822F0A0429A609A6842F04A
:1077300000529A60DA6802EA0A02DA60DA6842F015
:107740000042DA601A6902EA08021A615A6902F014
:1077500080425A619A6902F078429A611A6A02F08C
:10776000F0221A625A6A02F0FF225A629A6A02F002
:10777000FF229A621A6B02EA09021A635A6B3A40B4
:107780005A639A6B3A409A63DA6B22F4FB6222F0F6
:107790000702DA631A6E0A401A665A6E0A405A667F
:1077A0009A6E0A409A66DA6E1140D966D3F8A02024
:1077B00002EA0C02C3F8A020D3F8A42002EA0C02CB
:1077C000C3F8A420D3F8B02002EA0C02C3F8B0201A
:1077D000D3F8B420B3F1A04F22F07F12C3F8B42045
:1077E000634A00F05582934200F05D82614B62492A
:1077F000624A9B68896892680B431343DB0704D491
:107800005F4B9A685F490A409A60DC2202FB05B22E
:107810000023C2F8603EC4E91933C2F85C3E84F824
:107820005830002840F097800135052D04F1DC0424
:107830007FF446AF0024DFF86491274659F8743C82
:1078400023B1D9F86430002B40F0D5800137052FE3
:1078500009F1DC09F2D10026404DDFF844814A4F9E
:1078600034462B68002B00F0F681D5F8D820002A8A
:1078700000F0F181A968B1F1A04F00F01282DFF8A9
:10788000F0C0394B3E48614518BF03469B68886885
:1078900040072FD495F8600001282BD003F01F0378
:1078A0000120092B85F8600000F2648340F221205A
:1078B000D840C00740F15E83886810F0010040F0B6
:1078C0004281D1F808E0DFF8DCC01EEA0C0F00F0BE
:1078D0002081DC2303FB04B4D4F85C3E84F8580E0A
:1078E00043F01003C4F85C3ED4F8603E43F001035B
:1078F000C4F8603EFEE74FF0000C62464FF4803162
:10790000AE46DC2303FB02B23078D2F8D03E86F8D4
:1079100001C00B434FF0070C0121C6F804E0C2F888
:10792000D03E86F80AC0717200283FF491AE30F064
:1079300075FAFB1DDBB210B100228371C271032105
:1079400030F0DCFA84E64FF0000CDFF85CE06246D1
:107950004FF48021D5E7FEE79CCF0408B82B002028
:10796000C02B0020200882E00003005000F0FF033D
:1079700000010050000400500005005000060050B7
:1079800000070050E01000FEC0FFFF7F00F8FFFF7F
:1079900004000080300882E00000F8FF2C2C00205A
:1079A000FEF0FFFF3F000080000084CBDA68920108
:1079B00005D5A18B40F20112914200F0C5829A6870
:1079C000520703D59A68910740F10A849A68120712
:1079D00003D59A68910740F1AE820C21DBF8E404EC
:1079E00005E0DBF8E424121A052A00F23D819A68CA
:1079F0000A42F6D181E619F8700CFFF73FFCD9F87E
:107A0000643059F8742C49F86C2C99085A0801F024
:107A1000333102F077320A44D9089B1A01F011324F
:107A20009B1A03EB131303F00F33FF22B3FBF2F2A5
:107A3000C2EB02229B1A002249E9192249E91022CD
:107A40004FF40020DC2149F84C3C49F8680C012334
:107A500049F85C2C09F8502C09F8482C09F82C2C12
:107A6000059201FB07B108204FF4805249F8583CB9
:107A700009F84F3C09F8343C49F8540C49F8302CCB
:107A8000D1F85C3E002B00F07C8259F86C3C9A687F
:107A9000960005D59A6822F0204222F03F029A60B3
:107AA0009A68D50016D49A6883498448D1F8D410CE
:107AB000B1FBF0F122F0104222F03F0242F080527E
:107AC0009A600591059A2AB1059A013A0592059A9C
:107AD000002AF9D19A68D00040F11D8200259A68E9
:107AE000510740F1FD80DC2303FB07B3D3F85C3E74
:107AF000DC2303FB07B3D3F85C2E42F01002C3F87B
:107B00005C2EFEE7DC2303FB05B30122C3F85C2EE9
:107B1000FDE58868384040F001008860DBF8E4C487
:107B20000EE08868C00704D48868384040F001003F
:107B30008860DBF8E404A0EB0C00022800F2EF837D
:107B40000868C007EDD54FF0DC0C0CFB04BCDFF877
:107B50008CE1DCF85C0E00EA080040F480707145AE
:107B6000CCF85C0E00F01E825548814200F01A826B
:107B7000DC2303FB04B3D3F85C0E20F48010C3F8BD
:107B80005C0EDC2303FB04B34FEA920ED3F85C0EC9
:107B900010F480501CBFD3F8600E20F00600C3F82C
:107BA000600EE86D474BC362474B0363474B43632B
:107BB0001C230B60D1F804C053080EF0333E03F0D1
:107BC000773373444FF000094CF0100E4FEAD20C9B
:107BD00085F86090D31AC1F804E00CF01132D1F8A6
:107BE0000CE09B1A03EB1313394A03F00F334EF0EA
:107BF000010E4FF0FF0CB3FBFCFCCCEB0C2CA3EB09
:107C00000C03C1F80CE002EB460240310BF0F4FD2E
:107C1000AA6893683B4043F004039360002840F057
:107C20007C83D5F8D8302B4A5908980800F03330B7
:107C300001F077310144D8085B1A00F011315B1A6A
:107C400003EB131303F00F33A2FB0312D209C2EBB1
:107C500002229B1A1E440134052C05F1DC057FF439
:107C600000AE09B0BDE8F08FDC2202FB05B20120B6
:107C7000D2F85C1E41F01001C2F85C1ED2F8601E02
:107C80000143C2F8601EDA6842F40012DA603EE591
:107C90009B6892681343DB073FF5B7ADB268334684
:107CA000B0E50D4BF2E54FF0A04292689B6813439C
:107CB000DA07F3D5A9E500BF00000020400D03005E
:107CC00000050050C1ED0008BDED0008A9ED000859
:107CD000C02D0120818080800003005000010050F1
:107CE000DC2202FB07B2D2F85C1ECE063FF500AFE5
:107CF000D2F85C1E21F4817141F00201C2F85C1ED1
:107D00009A68D2071AD4B3F1A04F00F07382CB4A1D
:107D1000934200F07882CA48CA4902F540729268DC
:107D20008068896802430A43D60707D4C648826838
:107D300059F8681C22F47C120A43826059E9191030
:107D400059F8302C02430A4319F84F0C19F8481C13
:107D500042EA4032012942EA014204D159F8441C66
:107D6000013942EA414259F8401C29B159F83C0C0A
:107D700001F4787101430A43DE68B44959F8380CBC
:107D800031400A43DA601A6922F0406202431A6104
:107D900099689A6801F0040102F008020A4327D1A9
:107DA000D96819F8342C19F8506C59F85C0C21F486
:107DB0008041520021F0020142EA86320A43DA6031
:107DC0001A69002840F0898222F480321A61D3F8BF
:107DD000C02022F47F5222F03F02C3F8C02019F8DD
:107DE0002C2C012A00F086821A6922F001021A6105
:107DF00059F8582C012A00F067821A6B22F00F0202
:107E00001A63DC2606FB07B606F65C68D6F85C3E0D
:107E100023F0030343F00103C6F85C3E002D40F05D
:107E2000DE8119F8143C0695012B00F0D781A9F1E9
:107E30006C0303931846012309F8143C0BF052FE1F
:107E4000002840F0C381D6F85C3E814923F4885372
:107E500023F0020343F00203C6F85C3E59F86C2C91
:107E6000936823F0404323F03F0343F000439360C3
:107E70009368002BC0F21282DC2101FB07B10022C3
:107E8000D1F85C3E734DDFF8C0A1DFF8DCC1009291
:107E900023F0030343F00103C1F85C3E012609F817
:107EA000142C06E0009B0133072B00930CF10C0C03
:107EB0007CD09CF80930002BF4D09CF90130BB42F7
:107EC000F0D1654B8CF8084003EB860219F8143C9E
:107ED000611C4FF00008D2F828470191721C012B59
:107EE0000292CDF81C80DCF8042013D059F86C3CC9
:107EF0009968012009F8140C480740F1B780DC2389
:107F000003FB07B3D3F85C2E83F8588E42F02002AF
:107F1000C3F85C2EFEE7DC2202FB07B20125D2F893
:107F20005C1E41F01001C2F85C1ED2F8601E2943AD
:107F3000C2F8601ED3E59A6822F0004222F03F02A8
:107F400042F020029A6048E51A68500607D4434A76
:107F500002E0013A3FF488AE19684906F9D540229B
:107F60001A609A68500703D59A68900740F15381C8
:107F7000042133E5DC2303FB04B4002384F8583EDA
:107F8000B8E4C1F8603E09F8143C7EE50C2101FB21
:107F90000343012193F8E404D3F8E0E481404FFA6D
:107FA00082FCAEE4002B7FF4ECADE1E52C4B3B44CE
:107FB000FEB293F910203146022030F047FAD0F893
:107FC00004800546404630F0ABFB264A2421431E80
:107FD00001FB0323864693F8801100297FF441AE0C
:107FE00001364FF0060C83F8816183F880C10028C8
:107FF0003FF437AEAB68C9F8043080232022C9F8BB
:1080000010304FF480764FF480534FF48065C9E907
:108010000723C9E90211C9E90565C9F800803FF0E5
:10802000D3FD48460BF044FC48460BF0B5FC039BDF
:1080300049F8189CC9F8283008E400BF0001005036
:108040000005005000060050000700500740F0FFF8
:1080500001DE040000030050C0CA0408000040A371
:108060000430002000000020642B00204FEA941E02
:108070000EF00C0E03F1300604F01F045EF80680CB
:108080001F20A040C2F3846101FA04F428EA000032
:1080900020434EF806009C68986804F0040400F041
:1080A0000800204354D1D60D03F1140406F0040651
:1080B000C2F3045856F804E0072000FA08F040EA3A
:1080C0000E003051586920F000405861D868186E91
:1080D000186EC2F31204C0F38460002C00F0B1806B
:1080E00092FAA2F1B1FA81F1884200F09D80596EB6
:1080F000596E03F16000C1F3846103F1640492FAE4
:10810000A2F6B6FA86F68E4203D1216821F000412C
:1081100021608168816800F10804C1F3846192FAEA
:10812000A2F6B6FA86F68E4203D1216821F000410C
:108130002160C168C4680C30C4F3846492FAA2F16F
:10814000B1FA81F1A14203D1016821F0004101603F
:108150009968C90707D4D3F8B010C2F3120021EA16
:108160000001C3F8B01099490A4229D0B3F1A04FD9
:1081700000F0278196498B420CBF29465146954C09
:108180008868A24200F0E07100F0F780924CA242B1
:1081900000F0F380914CA24240F0D780C6010FD48A
:1081A000B3F1A04F00F0CF80894A93420CBF2A461A
:1081B0005246936823F0E0730B4343F0807393605F
:1081C0000023DDE9014609F8143C6BE6D8F80030DD
:1081D00086F8585E43F01003C8F80030FEE790E4DC
:1081E0009A6822F0004222F03F0242F010029A60A8
:1081F000FFF7ECBB76499A6889680A43D1073FF5D7
:108200009DAD774893E54FF0A042926899680A4384
:10821000D207F6D592E59A6822F0004222F03F029A
:1082200042F010029A60A3E6196E184621F0004150
:1082300040F8601F596E596E03F16404C1F3846104
:108240005DE781421DD0586E5C6E03F16000C4F39F
:10825000846403F16406A14203D1346824F000442D
:10826000346084688468C4F38464A14203D1846860
:1082700024F000448460C468C4680C30C4F384648F
:1082800060E71C6E184624F0004440F8604F5C6EB6
:108290005C6E03F16406C4F38464DCE7069B01337F
:1082A0000693069B8B427FF6E3ADDC2303FB07B30B
:1082B0000021D3F85C2E83F8581E22F0120242F0FF
:1082C0001002C3F85C2E89E7196B59F84C2C21F089
:1082D0000F01013A0A431A6393E542F480321A61AE
:1082E000D3F8C02022F47F5222F03F020243C3F8A9
:1082F000C02074E559E90A211E6959F8200C26F4BA
:10830000FF660A4326F0040659F81C1C3243024358
:108310000A4342F001021A616AE5FFF7EBBADC2377
:1083200003FB04B40022D4F85C3E84F8582E43F0DA
:108330001003C4F85C3ED4F8603E43F00103C4F877
:10834000603EFFF7D7BA2A4633E7264CA2427FF4B5
:1083500037AF44023FF534AF1D4A93423FF430AF8C
:10836000B3F1A04F0CBF2B4653469A6822F0E0723F
:108370000A4342F480029A6022E700023FF520AFF0
:10838000B3F1A04F1FD0184A93427FF419AF504663
:108390008268164B164CD3F8D430B3FBF4F322F0BA
:1083A000E0720A430C2142F4000201FB03F38260F5
:1083B000079302E0079B013B0793079B002BF9D132
:1083C000FEE62946DBE62846E2E700BF000008801B
:1083D00000010050000021C31000C090000052C7EF
:1083E00000030050000084CB000600500000002075
:1083F000400D0300F0B5D0F800C0134CDCF8045079
:1084000085B0254045EA01040A9F039344F00144E6
:1084100044F490341546CCF8044019463A460646D2
:108420000AF0ECFA68B93168039B8D620246009746
:10843000304680210AF012FB003818BF012005B039
:10844000F0BD012005B0F0BD009800FC0128B5EE9C
:10845000C00A10D0F1EE10FA0BDD9FED177ADFEDB8
:10846000177AE0EE077AFCEEE77A17EE903A98B2C8
:10847000704700207047F1EE10FA0BDD9FED107A87
:10848000DFED107AE0EE077AFCEEE77A17EE903A2D
:1084900098B27047EDD5F7EE007A30EE270A9FEDDF
:1084A0000A7ADFED0A7AE0EE077AFCEEE77A17EE59
:1084B000903A98B2704700BF00E0F9440000404293
:1084C00000C079440000834400C079C400E08244C5
:1084D00070B5464E96F8704104EB840306EB8303B7
:1084E000A50093F87431032B6ED8DFE803F0592907
:1084F0001E02254406EB8505D5F87801002870D1C9
:1085000096F8C4319C425FD0013404F003029342D8
:1085100086F8702158D002EB820406EB8404022313
:10852000C4F8780184F8743170BD2B1906EB83030D
:10853000D3F8782172B1013AC3F87821002070BDD8
:108540002B1906EB8303D3F87821002AF3D10222FA
:1085500083F87421254406EB850595F88031013BAD
:10856000DBB285F880318BBB214B96F8C461D3F820
:10857000A413D5F87C01621C02F003024B1E0324F5
:10858000B242034485F87441B3FBF1F0C5F87801B9
:108590001AD0994218D80138C5F87801012070BD69
:1085A00031F004F880B1124B2C44D3F8A42306EB2D
:1085B0008404012102F51C5384F874110F33B3FBBA
:1085C000F2F3C4F8783170BD012070BD084BD3F8C8
:1085D000A423012002F2E733B3FBF2F3C5F87831AC
:1085E00070BD0138C5F87801002070BDB82E00209C
:1085F0000000002090F83C30012B00F0D381F0B453
:108600000223012480F83C4080F83D30142A4ED8E3
:10861000DFE812F056004D004D004D00A0004D0067
:108620004D004D0080014D004D004D00EC004D000F
:108630004D004D0038014D004D004D001500036800
:10864000D1F808C01D6A0F68B04E25F480151D6270
:108650001C6A5D681A6D22F0807224F4001422F402
:10866000E042B34244EA0C5442EA072208D006F53D
:108670000066B34204D006F54066B34240F0AC81D8
:108680004E6925F4802545EA86254E685D601A65A9
:10869000DE641C621C6D0D6944F400641C65196D78
:1086A00021F4806119651A6D42EA05221A650023DA
:1086B000012280F83D2080F83C30F0BC184670471D
:1086C0000368D1F808C01D6A0F68904E25F00105B7
:1086D0001D621A6A5D689C6924F4803422F00202EB
:1086E00024F07304B34242EA0C0244EA070413D0B4
:1086F00006F50066B3420FD006F54066B3420BD0D4
:1087000006F58066B34207D006F58066B34203D013
:1087100006F50066B3420BD1CE6822F00802324360
:10872000D1E9056725F440753E4322F00402354344
:108730004E685D609C615E631A629C690D6944F0DD
:1087400008049C61996921F0040199619A692A439E
:108750009A61ACE70368D1F808C01D6A0F686B4ED8
:1087600025F010051D621C6A5D689A6922F080720E
:1087700024F0200422F4E642B34244EA0C1442EA14
:10878000072200F0218106F50066B34200F01C814B
:1087900006F5E056B34200F03F815D4EB3420BD088
:1087A00006F58066B34207D006F58066B34203D073
:1087B00006F50066B34206D1D1E9056725F44065A8
:1087C0003E4345EA86054E685D609A619E631C6281
:1087D0009C690D6944F400649C61996921F480618D
:1087E00099619A6942EA05229A6160E70368D1F8C3
:1087F00008C01D6A0F68454E25F480551D621C6A2D
:108800005D68DA6922F0807224F4005422F4E642B2
:10881000B34244EA0C3442EA072200F0CD8006F568
:108820000066B34200F0C88006F5E056B34200F09F
:10883000EB80374EB3420BD006F58066B34207D0CB
:1088400006F58066B34203D006F50066B34206D152
:10885000D1E9056725F440453E4345EA86154E6853
:108860005D60DA611E641C62DC690D6944F40064B9
:10887000DC61D96921F48061D961DA6942EA0522B3
:10888000DA6114E70368D1F808C01D6A0F681F4E4B
:1088900025F480351D621C6A5D681A6D22F48032F1
:1088A00024F4003422F07002B34244EA0C4442EA59
:1088B000070213D006F50066B3420FD006F54066F6
:1088C000B3420BD006F58066B34207D006F580664A
:1088D000B34203D006F50066B34204D14E6925F4D5
:1088E000803545EA06254E685D601A659E641C6207
:1088F0001C6D0D6944F008041C65196D21F004011C
:1089000019651A6D2A431A65D1E600BF002C014093
:10891000004001400368D1F808C01D6A0F68424E4C
:1089200025F480751D621C6A5D68DA6922F4803264
:1089300024F4007422F07302B34244EA0C2442EAA5
:10894000070231D006F50066B3422DD006F5E05699
:10895000B34251D0354EB3420BD006F58066B342D8
:1089600007D006F58066B34203D006F50066B34231
:1089700006D1D1E9056725F440553E4345EA061581
:108980004E685D60DA61DE631C62DC690D6944F08B
:108990000804DC61D96921F00401D961DA692A434C
:1089A000DA6184E602207047CE6824F4006444EA69
:1089B000062424F48064DCE7CE6824F4004444EA0E
:1089C000063424F4804443E7CE6824F0800444EA6B
:1089D000061424F04004EFE606F58066B3423FF447
:1089E0004FAE06F58066B3423FF44AAE06F5006628
:1089F000B3427FF44AAE43E6CE6824F4006444EA0E
:108A0000062424F48064A5E7CE6824F4004444EAF4
:108A1000063424F480440CE7CE6824F0800444EA51
:108A2000061424F04004B8E6002C01400040014048
:108A300003689B0AA3F58013542B00D970470D4A95
:108A4000134493F844370B2BF8D830B50A4C4279CD
:108A500085B0002914BF0025022504EB8310694668
:108A600000230124CDE90054CDE9023308F0CEFF04
:108A700005B030BDC0CA0408803000200D4BD3F8CB
:108A8000D42010B5520804464FF6FF713EF0BAF9F3
:108A900020460021FFF7CCFF0749084A41F2D05396
:108AA0002046CA5001F5AE51BDE8104000221031F9
:108AB0003EF08CB800000020C80C002011650108B1
:108AC0000F4B104AD3F8D430A2FB03239B09013B80
:108AD000B3F1807F11D210B50B4A0C4953600024CA
:108AE0000723F02081F8230094600F214FF0FF301E
:108AF0001360FEF763FC204610BD0120704700BFE5
:108B000000000020D34D621010E000E000ED00E016
:108B100003681878012801D000207047074A93F9AC
:108B20000430642101FB032393F86125202AF4D14A
:108B3000D3F820359869C0F3C0307047B82E0020B4
:108B400010B50C4CD4F898361B78022B10D1D4F801
:108B5000A0062FF01BFAD4F8A00608B12123C38089
:108B600001212FF0CBF904482FF088FFA4F89C06D0
:108B700010BD00BFB82E00208096980030B583B09D
:108B80000D46012301460DF107020446074830F067
:108B9000F7F89DF8072035EA020304D003482A437A
:108BA000214630F0C1FB03B030BD00BF503500207E
:108BB00038B505460A460C46064829462FF0CEFF32
:108BC00045F0800103482FF071FF231A58425841A5
:108BD00038BD00BF5035002070B50D4CD4F8985604
:108BE0002E78022E134607D00A46014604F5D360BC
:108BF000BDE8704030F0C4B82A6A0AB1002070BDE8
:108C00000A46014604F5D3602FF078FF012070BDBD
:108C1000B82E002003681B78022B4FF0010201D010
:108C200030F0DCBA2FF0C2BF13B53A4C0023D4F8B1
:108C300050278DF80730137803F0FD01012905D185
:108C400094F8541711B90C2184F85417022B1ED034
:108C5000032B2ED001220B212F483DF0C1F8042018
:108C60002EF0E6FF2C4801230DF1070200213DF014
:108C7000D9F8002839D09DF80730482B35D1274B3B
:108C8000C4F84437264BC4F8483702B010BDD4F8B6
:108C900058072FF07BF9D4F8580708B13423C38064
:108CA00001212FF02BF91F482FF0E8FEA4F85407FC
:108CB000D0E7D4F8E03B506846F2A81119610023D0
:108CC00080F86830122237213DF05EF8D4F8503732
:108CD0000D22586824213DF057F8D4F8503730223F
:108CE00058686A213DF050F8B4E7D4F850371A7844
:108CF000022A03D0032A07D00020C6E7D4F8580779
:108D00002FF03AFD0020C0E75868102237213DF0CF
:108D10003BF8F1E7B82E002008360020835E0408F7
:108D2000055F04088096980010B58CB000234CF2C3
:108D30000502044601A9CDE90633CDE90833ADF8B3
:108D400000208DF8023003220B930123CDE903129A
:108D50008DF814308DF82830CDF808D02FF04AFF68
:108D6000204602A92FF028FD20462FF043FF9DF852
:108D700006000CB010BD00BF2DE9F041714C724EE1
:108D800082B020462422002143F006FD96F8E15DE2
:108D900000236362002D38D1D4F82C3D53B39B6A75
:108DA00043B36A489847836823B30388654C013B03
:108DB0009BB22146204600220678032E00F10600D1
:108DC0001CD00132062AF7D100220878022801F1CE
:108DD000060100F097800132062AF6D1616A052962
:108DE00008D0481C02FB01426062022000219380EF
:108DF00010705180284602B0BDE8F081062303FBC5
:108E000002425388013B9BB2DEE796F8E00D06F67E
:108E1000E853C6F8E43D08B90025BDE72EF0FEFF93
:108E2000C6F8F00D18B1837913F0BF0FF4D12946BD
:108E300047482FF0E1FD05460028EDD0D6F8E43D87
:108E4000424A98685A6708B12023C3800D212FF049
:108E500055F8D6F8E43D98682FF098F83D48D6F8D4
:108E6000E47D2FF00BFE4FF00108B8803220C4F8EB
:108E70004C7D84F8508D2EF0DBFE0423D6F8E40DF3
:108E800000270DEB03029F2101972FF037FE9DF87D
:108E900005709DF804309DF806102C483F0247EA03
:108EA00003470F4339463CF023FC00287FF474AF9E
:108EB0003846FDF7EDFC034600287FF46DAF9DF8C2
:108EC00006009DF805209DF80710000240EA0240C8
:108ED000214A0843904219D0A4F8303DA4F83C3D03
:108EE000C4F8343DC4F8383DFDF7D2FC07460028ED
:108EF0007FF452AF96F8E00D2EF090FF2FF03CFC7F
:108F00003D4649E7062101FB02426EE7134BC4F8D8
:108F1000303D4FF4003140234FF00062A4F83C3D57
:108F2000C4F8341DC4F8382D84F83E8DFDF768F878
:108F3000064884F8458D3CF027FB094BC4F82C3DCE
:108F40002AE700BFC80C0020B82E0020F41900202A
:108F5000A03C0020404B4C0021AAEF000004000878
:108F6000C0CA0408114BD3F8C01C91F8280201288C
:108F70001AD00A68B2F858306FEA43436FEA534395
:108F80009BB210B4A2F85830B2F840309BB243F410
:108F90003F43002443F08003A2F8403081F8284288
:108FA00020465DF8044B7047704700BFC80C002096
:108FB0002DE9F041774C784F784BC4F8603E41F290
:108FC000890541F2D00207F61821665DA15004F52B
:108FD000666C00220221082088B0C7F8C0CCC4F813
:108FE000640EC4F8681EC4F8701EC4F8742EC4F869
:108FF000782EC4F87C2EC4F8802E002E74D0032165
:109000006155B3F8405044F27F0129401646A3F859
:109010004010002215464FF0010C04EB4211971C42
:1090200081F8882EA1F8962E013204EB4717D2B2B0
:10903000904281F889CE81F88B5EC1F8985EC1F8C4
:109040009C5EC7F8605EE8D80022154604EB42112A
:1090500002F10A0781F8882F013204EB4717D2B2D8
:10906000904281F8895F81F88B5FC1F8985FC1F801
:109070009C5FC7F8605EE9D800210120A3F840009A
:10908000A3F84010A3F84410A3F85010B3F8402000
:1090900092B242F43F4241F2890542F08002864298
:1090A000A3F8402084F8841E60555FD0142300206C
:1090B00054259421D422A4F88E3F4FF48A7384F867
:1090C000940F84F8940E84F8B40E84F8B40F84F8E6
:1090D000D40EA4F88E5EA4F8AE1EA4F8AE2FA4F8A9
:1090E000CE3E08B0BDE8F08106F0FF072C4E079792
:1090F000F36C43F00103F364F36C049103F0010398
:1091000041F2880202930299A7544FF4C0534FF0E2
:10911000030803A94FF0904003930597CDF81880FA
:1091200009F018FDB36D43F40003B365B36D03F4A8
:109130000003019306211420019BFEF73FF9194A11
:10914000D4F8603ED4F8640E4FF48011116004F836
:109150000580B3F84010D4F87C6E44F27F020A40D8
:10916000A3F8402000287FF454AF85E70E4A117021
:10917000B3F8542041F2C80192B242F001026650A5
:10918000A3F85420B3F8542092B242F00202A3F89C
:1091900054208BE7B82E0020C80C0020005C004053
:1091A0000010024000E100E0783F002010B5194CAB
:1091B00014F8230C90B9184B83F87901C3F87C019B
:1091C00014F8203C012B20D054F81C3C0BB313495D
:1091D0005B68BDE81040A1F10C0018472EF01EFEA0
:1091E00014F8212C0C49003A18BF012281F879218A
:1091F000C1F87C010028E3D01F22C28020212EF07C
:109200007DFE14F8203C012BDED1054B44F81C3CBC
:10921000DDE710BDB03F0020C80C0020983F0020C3
:10922000A803002091B10A6B824214D9144BDA6A68
:10923000914220D34C3991421DD30B6B9842F9D304
:109240008B6B9842F6D80B46184670470C4BD96A80
:109250000A6B904212D30B680BB9F5E70A6B904288
:109260000B4602D38A6B9042EED951F84C3F002B4B
:10927000F4D1184670470023184670470A46D9E7CC
:10928000B03F00202DE9F047CC0143D10346224AEC
:1092900043F8082B4FF0FF324260022418467E2626
:1092A000DFF87880D8F830902644013E051D494605
:1092B0006FF070474FF0010A08E0A3421CD0631C16
:1092C00045F8043C321B1C460435CAB10B6BA34263
:1092D00002D88B6BA34204D22046FFF7A3FF0146BE
:1092E00090B10A794B6B002AE7D1A34204D0E6D2B1
:1092F00045F8042C631CE5E745F8047C631CE1E7B2
:10930000C8F83010BDE8F08745F804AC321B631C88
:109310004946D8E78026C3E7F8FFFF0FB03F00209B
:1093200038B507EE901A2DED028B9FED2A8AF8EEE4
:10933000677A20EE080A154627EE808AF0EE608AEA
:10934000B0EE480A044637F0A9FBF0EE407AB0EEE2
:10935000480AB0EE678A37F08DFBF6EE007A28EE09
:10936000278A012D88EE286A28D0B7EE007A77EE9A
:10937000406AB8EE005A66EEA77A77EE465A20EEBB
:10938000050AB7EE005A36EE056ABDEC028B85EE93
:10939000067A84ED095A67EE877A67EE266A27EE29
:1093A000000A25EE877AC4ED007AC4ED027AC4ED96
:1093B000016A84ED030A84ED047A38BDF8EE006A90
:1093C00060EE266AF7EE007A77EEC65AB0EE660ACD
:1093D000D7E700BF27D4D2362DE9F04FCC4C2DED86
:1093E000048B94F8393094F8509094ED125AD4EDDF
:1093F000134A002B87B014BF022301230293B9F153
:10940000000F00F08081F7EE007AB4EE675AF1EEBB
:1094100010FA14BF012200229945CDE90329C0F2B8
:109420006082F4EE674AF1EE10FA14BF01230023C4
:109430000593216EB74ADFEDB85ADFEDB86ADFED6C
:10944000B83A9FEDB83ADFEDB82A9FEDB82A9FED04
:10945000B81A9FEDB80ADFEDB81A019107EE901A1D
:10946000B8EE677A0025F7EE007A87EEA48A02F15B
:10947000110302F1100E02F1910884F85150C7EE69
:10948000850A86EE874A25EE255A64EEA54A55E000
:109490004FF08C0A0AFB054A4CF2503B5E458AF8B5
:1094A000200800F2E68007EE906A9FEDA46AF8EECD
:1094B000676A86EE267A009E8C2000FB0580092EC6
:1094C00080ED017A40F2168142F21070864200F27D
:1094D000148107EE906AB8EE677A27EE037A8C2043
:1094E00000FB0580BCF1090F80ED047A40F2C480D6
:1094F000BCF57A7F00F2048107EE90CAB8EE677A75
:109500008C2000FB0580632980ED027A40F2AE805A
:1095100007EE901AF8EE677AF4EEC47AF1EE10FADC
:1095200088BFF0EE447A8C2000FB05800135C0ED49
:10953000037AEDB2964503F102036AD012F8010FE7
:109540000028F7D01E88002EF4D0198C0091002935
:10955000F0D04845B3F840C0B3F8601098D907EE92
:1095600090CAB8EEE77A07EE901AF8EEE77A0A2882
:1095700027EE236A67EEA36A00F08180A0F10B0C4E
:10958000BCF1070F00F2DE80B9F1000FD2D0A0F1DC
:109590000A014FF08C0C0CFB054007EE901A4CF2C0
:1095A000503C664598BF07EE106AF8EEE77A98BF20
:1095B000B8EE479A67EE858A88BFB0EE409A88EE8B
:1095C000897A00994FF0010A80F820A88C2000FBCE
:1095D0000580092980ED017A40F2748142F2107011
:1095E000814200F2668107EE101AF8EE478A26EEF5
:1095F000277A28EE836AB4EEE27AF1EE10FA88BF99
:10960000B0EE627AF2EE048A66EEA77AB4EEE87AF9
:10961000D3E0019984F851501DB38C23DFF82081E9
:10962000002703FB05F54FF00009A8F1780606F1C5
:10963000140058ED1A0A18ED1C0A0122FFF770FEFB
:10964000283677603760F760B760464501D0216EF5
:10965000EDE709F18C094D4508F18C0801D0216E28
:10966000E3E707B0BDEC048BBDE8F08FF0EE427A83
:1096700059E7B0EE617A1EE7B2EE047A40E703994B
:1096800000293FF457AF4CF2503C66459ABF07EEB5
:10969000906AB8EE677AB0EE407AC5EE877A8C2091
:1096A00000FB054000994FF0010A80F820A88C20AB
:1096B00000FB05800929C0ED017A40F2068142F2E3
:1096C0001070814200F2F88007EE901AF8EE677A87
:1096D00026EE207AF2EE048AB4EEE27AF1EE10FA87
:1096E00088BFB0EE627A27EE836AB4EEE87A66EE5F
:1096F000A07A62E0B2EE047AEFE6B0EE417AECE6F0
:10970000B0EE627AFCE6CDE90399CDF8149090E6CC
:10971000B03F00203F470020ABAA264300BADB48F9
:109720008988883C0AD7233C00007A440000C8425C
:1097300000401C46005043473EC3AE395555854155
:1097400048480020142853D1059900293FF4F2AE6F
:109750004CF2503C66459ABF07EE906AB8EE677AC5
:10976000B0EE407AC5EE877A8C2000FB0540029966
:1097700080F8201800998C2000FB05800929C0ED95
:10978000017A40F2A88042F21070814200F2A68075
:1097900007EE901AF8EE677A28EE067AF2EE048A5F
:1097A000B4EEE27AF1EE10FA27EE836A88BFB0EEEB
:1097B000627A68EE267AB4EEE87AF1EE10FA4FF0AB
:1097C0008C00F4EEC27A00FB0580B8BFB0EE687A78
:1097D000F1EE10FA80ED046A80ED027A3FF546AFB3
:1097E000F4EEC47AF1EE10FA88BFF0EE447A9AE60D
:1097F000A0F1150CBCF1070F3FF69CAE0299049F37
:10980000B9423FF797AE143807EE900A4CF2503C3D
:10981000664598BF07EE106AF8EEE77A98BFB8EE93
:10982000477A27EEA49A88BFB0EE407AC9EE078A3D
:109830008C2000FB054080F8201800998C2000FB4C
:1098400005800929C0ED018A39D942F210708142A0
:109850003ED807EE101AB8EE477A26EE276AF2EEE7
:10986000048AB4EEE26AF1EE10FA88BFB0EE626AE2
:1098700066EEA77AB4EEE86AF1EE10FA27EE037A04
:109880004FF08C00F4EEC27A00FB0580B8BFB0EE5A
:10989000686AF1EE10FA80ED047A80ED026A3FF515
:1098A000E5AEB4EEE74AF1EE10FA98BFF0EE447A76
:1098B00039E6F0EE418A9AE6F0EE417A08E7B2EE38
:1098C000047ACAE7F2EE048A91E6F2EE047AFFE641
:1098D000B0EE417AC1E7F2EE047A5DE7F0EE417A4C
:1098E0005AE701220023CDE90423A2E52DE9F04F38
:1098F0002DED028BDFF88481DFF884A19FED5B8A78
:1099000085B008F12C0408F118090127FEB218F8F7
:10991000010B324657212CF0E7F90546002800F0EC
:109920008B800068A5600123B0F1804F04F8283CCB
:1099300004D04F4BC31AB3FA83F35B0904F8273CF6
:109940003CF07CFF14F8273C07EE900A002BF8EE61
:10995000677A4FF0000314BF01214FF480714FF478
:109960000052286844F8083C44E9062344F8101CD7
:1099700044ED087A3CF062FFAAFB0030C3080122E4
:1099800018F8010C44F80C3C04ED098A24F81C2C4E
:1099900024F81A2C2EF042FAE06010B15723C67159
:1099A00083716A7A42212EF087FA28683CF046FFDC
:1099B0000021024628463DF025FA14F8273C002BEA
:1099C00045D021462B4B41F8043D002228463DF06E
:1099D000FDF828683DF070FA834670B1002301213C
:1099E000CDE901130422039269466A79009308F0D5
:1099F0000DF86979584608F0D7F8A26854F8103C79
:109A0000126899F8CC00013E591EF6B2916201230A
:109A100000214FF0FF3C4FF40055B042C2F82CC07B
:109A2000536144E9065124F81C3C24F81A3C44F8DC
:109A3000081C01D12CF0C8F80137052F04F13804B7
:109A40007FF464AF05B0BDEC028BBDE8F08F0A482F
:109A5000DFF830C044F8040C63602246211F28461A
:109A6000C4F800C03DF0B2F8B3E700BF000000004A
:109A7000000C0040F94903082D4B030890500020CA
:109A80001F85EB51ED5B03080C480D4BD0F8E81037
:109A900010B40C4CC0F8D8308A1E2231B0F8063110
:109AA0001B01A4FB03C3DB08A3F5B06322F8023F4C
:109AB0009142F3D15DF8044B704700BFA8500020DD
:109AC000BDCF0108CDCCCCCC70B5084C251D2E46A1
:109AD00014F8010B22F03CFE28B1037905F8013B94
:109AE000B442F5D170BDFF23F8E700BFCC51002090
:109AF0002DE9F0471D4F012607F10805B2464FF04A
:109B00003B094FF0000817F8010B2EF087F90446C7
:109B100090B180F80690C671FB7803F07F02012AAD
:109B200018D013F0800F20460DD185F804802EF058
:109B300027FA85F805802C600136052E05F1080509
:109B4000E1D1BDE8F08785F804A02EF01FFA85F872
:109B500005A0F0E71B0605D4012120462EF0CEF922
:109B6000FB78DEE72EF012FAF6E700BFD4510020B2
:109B70002DE9F047D1F800908AB007464846BDF875
:109B800048800C4692461E463DF096F9002839D092
:109B900031465246054648463DF09EF861792068B8
:109BA00001913DF089F9267A0199D8B17300F60048
:109BB0000A4603F0020306F008064FF480714FF0E6
:109BC000600C0593069600234FF40076089103A9D4
:109BD0000996CDF81080CDF80CC00793FEF70AFD6A
:109BE000267A6179B30728460FD408F021F8284671
:109BF00008F0D6F8236862797B6034339818002126
:109C0000386099500AB0BDE8F08707F0CBFEEEE768
:109C10001249134AD1F8E40405E0D1F8E4341B1AE0
:109C2000B3F57A7F0FD81369DB03F6D413694CF2CE
:109C3000FA310B4009D1106910F0010004D0012164
:109C4000184611617047032070470648D0F8D013BA
:109C50001943C0F8D013012013617047C01D0020C4
:109C60000020024000000020014488420ED010B4C1
:109C70000346074C074813F8012B04FB00F09942F8
:109C800080EA0200F7D15DF8044B70470148704745
:109C900093010001C59D1C812DE9F041204D95F8EF
:109CA0005B3185F8543105F5AC7705F5AE760024C7
:109CB0004FF0050817F8010B20BB30600134032C6E
:109CC00006F10406F6D195F85411D5F85C01C943A4
:109CD00001F001012EF0DAF995F85411D5F8600180
:109CE00081F00201C1F340012EF0D0F995F8541132
:109CF000D5F8640181F00401BDE8F041C1F38001B1
:109D00002EF0C4B92EF08AF8013401213060E3B29C
:109D100010B180F80680C37130682EF0EFF8CEE7FE
:109D2000A8500020F0B5284CB4F86C51A4F86E513E
:109D300083B0EDB994F868012EF070F894F86921B9
:109D4000C4F87001003A18BF012284F8742148B1A8
:109D500094F86A112B22002914BF11210121C2801D
:109D60002EF0CCF8002003B0BDE8F0402EF096B9FC
:109D700094F86871002238462B212BF0B5FF064677
:109D800038462EF04BF8E0B1DEB12B22C4F88C013E
:109D9000C280727A02212EF08FF80C4AB2FBF5F3E2
:109DA000C3F34F0000909BB2314604F5BC70A4F899
:109DB0009051FFF7DDFED4F878210023136084F87A
:109DC000893103B0F0BD00BFA850002040420F0011
:109DD0002DE9F84F254C94F89C3184F8923104F227
:109DE0009317002604F5D8745FFA86FB0BF101087F
:109DF0005FFA88F8012117F8010F42460E448A469F
:109E00002BF072FF4FF00009054648B3387804F88C
:109E10000E9C04F80D9C04F80FBC04F810AC44F838
:109E2000045C2DF0FBFF022118B180F806A080F839
:109E300007806A7A2EF040F80D4A002128463CF04F
:109E4000E1FF0C4B23600C4B221D21462846C4E940
:109E500001393CF0BBFE697928684A461EF09AFF3A
:109E6000082E04F11C04BFD1BDE8F88FA8500020D3
:109E700040420F00D58D02084159020870B52C4CA4
:109E80002C4B94F8C802C4F8C03200220221C4E965
:109E9000A022C4F88822C4F8BC22A4F8C4222BF063
:109EA00023FF002837D00668054604F5337304F510
:109EB0004B715A7C12B15A6896422DD018338B429E
:109EC000F7D1002394F8C802C4F8AC5184F8A0314B
:109ED0002DF0A4FF08B10223C3806A7A02212DF07D
:109EE000EBFF2846144A00213CF08CFF134A14492A
:109EF000C4F8B0110026111F2846124BC4F8B43123
:109F0000C4F8B8613CF062FE697928683246BDE861
:109F100070401EF03FBF70BD30463CF08FFCB36A0E
:109F2000094A0133B0FBF3F082F8EC03C9E700BF44
:109F3000A850002000FFFF0040420F005C520020AC
:109F400069590208055B0208000000202DE9F04F66
:109F5000DFF838932DED068B99F8BE4395B0032CAE
:109F6000029000F2A480B74E99F8C4730FCE09F5A1
:109F700063750FC50FCE0FC533682B600022012318
:109F8000022C89F8443F89F8EC2340F0D881DFEDBA
:109F9000AE8AF0EE689AAD4AAD49AE4BC9F8A4134B
:109FA000002FAD49C9F89C1316BF134600220122A9
:109FB000039239EEA87AF5EE006A86EE87AAC9F810
:109FC000A033A64B002503F1FD0B1C46DFEDA47A60
:109FD0009FEDA49A68EEA78A029BAB4263DD1BF853
:109FE00001AB6F1C5FFA87F84246504603212BF005
:109FF0007BFE0646002800F0B38450462DF00EFF8D
:10A00000606118B1032380F807808371727A02219E
:10A010002DF052FF039B002B00F0C381B9F8BC3335
:10A02000306807EE903AF8EEE77AFCEEE77A17EE42
:10A03000908A3CF003FCB0FBF8F202F57F42FF325D
:10A04000120CB0FBF2F2B2FBF8F307EE902AF8EE36
:10A05000676A002026EEA87A009069EE477A9BB2E4
:10A06000E6EEA97A3146204684ED027AC4ED037A01
:10A07000FFF77EFD002D00F08F816168774B02E0D5
:10A080009C4200F089815A688A4203F11803F7D193
:10A09000012383F001030122042F237462743D46DF
:10A0A00004F1180498D1704EC9F8F4639CE0631F62
:10A0B000DAB2032A00F2908099F8C72301239A426A
:10A0C00089F8443F89F8EC3300F0E780022A00F079
:10A0D000E180664E99F8C6730FCE09F5577509955C
:10A0E0000FC50FCE0FC532682A603A1E18BF012275
:10A0F0005F4B89F8EE23072CC9F86C3300F26981B5
:10A10000042C0ED999F8C5335A4AC9F8F823012B03
:10A1100005D0022B06BFB7FA87F35B09002389F845
:10A12000FC33DFF86CB1ABF2F4630393ABF2F7539B
:10A1300004934FF0000A029B534540F3E3825FFA19
:10A140008AF307935D1C049B13F8016B0493EDB233
:10A150002A46304603212BF0C7FD0446002835D09F
:10A1600030462DF05BFE039B586110B10323C5718F
:10A17000837199F8BE3305932046277A2EF044F96F
:10A1800099F8FC330646002800F02A810693002B3C
:10A1900040F02981D0F80480B8F1000F16D0404675
:10A1A0002EF0BEFA344A0890431E242101FB0323FB
:10A1B00093F8802152B90322B16883F8815183F862
:10A1C0008021089B0A91002B40F034811F4B2B4AC1
:10A1D000C9E9DC320023AFE00022032B89F8442FC9
:10A1E00020D8012389F8EC33D9F8F433EBB1029885
:10A1F00083F824000121002283F8251083F826200B
:10A200009A62014648B12C3319441D4A084612F897
:10A21000011B03F8011B9842F9D115B0BDEC068B68
:10A22000BDE8F08F89F8EC23DEE7164D164C0FCD14
:10A230000FC40FCD0FC42B6844F82039C9F8F4437C
:10A24000EBE700BF84D3040828293038B540030861
:10A25000215D02084D5B0208B940030874530020D9
:10A260006F12833A00007A44345400203CD304082F
:10A270002D7004085141030800000020B14003087C
:10A280006854002018D30408385F0020A85000202C
:10A29000685A0020082C00F055826C4E6C4D99F8DD
:10A2A000C67389F8C04E0FCE0FC50FCE0FC5002163
:10A2B0007F1A029A3368C9F8F02318BF012765484E
:10A2C0002B604FF44C7205F67836A5F1800889F8BA
:10A2D000EE737D3589F8EF130F4642F05DFAD9F839
:10A2E000F033BB4256DD15F8014B20462BF084FDC0
:10A2F000824620462DF092FD9AF808B099F8EE3388
:10A300000BF0010A0AF1010A044689F8EDA30BB12A
:10A310008BF0010B002C00F0F781A37913F0BF0F35
:10A3200015D04D494D4A4E4BC9F84433C9E9CF12B7
:10A33000012389F8EF330023C9F8F43354E7032CE1
:10A3400040F0F081DFED478ADFED479A23E62046B3
:10A350002DF0A0FF4FEA4A1A01374AF001014FF0F1
:10A36000030371617060F46086F810B0E771A37147
:10A3700020462DF0C3FD1BF0010F20460ED02DF01E
:10A38000FFFDF368C8F81430042F06F1200608F129
:10A390001808A4D12E4BCFE700237AE62DF0F6FD66
:10A3A000EFE7B0EE4A0A3FF01FFE3068B0EE408A99
:10A3B0003CF044FAFCEEC87A4FF6FF7317EE902A91
:10A3C000B0FBF2F202F57F42FF32120CB0FBF2F268
:10A3D0003BE6082C7FF4A5AE244BC9F8F833A0E681
:10A3E000002B3FF4F3AED4F81480B8F1000F3FF423
:10A3F000EDAE40462EF094F9A2691D4B0A92451E1F
:10A40000242202FB0535089095F88061382E00F073
:10A41000AE8120683CF064FDC0B2002E7FF4D6AE61
:10A42000382385F88031089B85F88101002B3FF4A3
:10A43000CDAE069699F8FD6325680E48CBF82881C5
:10A44000002E00F0A7810022034619E060D3040823
:10A45000D4530020A03F0120B9400308B5400308B1
:10A46000B1400308ACC5A737ACC5A73621410308E6
:10A4700000000020A85400200132B24200F08A817E
:10A4800019688D4203F1B803F6D1D6B2B82306FBA2
:10A490000303079ACBF82C3199F8FD338BF8B520DC
:10A4A000013B207907932DF0B9FC99F8EE2307F0D2
:10A4B0000103591C0AB187F00107490141F00E015F
:10A4C000CBF8B810CBF80840627A2DF0F5FC079B6A
:10A4D0009E4200F0FA81059B063B0B930023CBE9DB
:10A4E0003F33CBE94133CBE94333CBF814310BF1A4
:10A4F000F80308EE103A17F002034FF060020C93D5
:10A500004FEA4703CBF8F82003F002034FF00102B3
:10A5100000F06681CBF80C31CBF8002100274FF416
:10A520008033CBE947370A220223CBF80471CBF8FA
:10A530001821CBF8243163790C2B00F23D81C74AF6
:10A5400099F8FC1302EB8302D2F80878CBF8E87094
:10A55000002900F00B82DBF82C31C3F8A880CBF87F
:10A560002881069B002B00F093810BF1BC000D901D
:10A5700007F07AF899F8FC330D98002B00F05C8115
:10A58000B74A21684FF4907303FB0623DBF82C21B4
:10A5900001F57871C2F8B030CBF8C0300A9BCBF827
:10A5A000E030CBF8BC10059B082B0CBF0623122310
:10A5B000CBF8DC300023CBE932334FF400731022A8
:10A5C000CBF8D4304FF40053CBF8C420CBF8E430B0
:10A5D0008022069BCBF8D0204FF40062CBF8D82025
:10A5E000002B00F015819DF82C30CBF82881022B30
:10A5F00000F2DD80994A02EB8303059AD3F8FC3719
:10A60000082A984AB2FBF3F303F12303CBF8F030A6
:10A610000CBF5F221322DBF82C3158469A803CF0A5
:10A6200071FC99F8FC33002B00F0AC80069B002BEA
:10A6300000F0A88018EE102A3946284606F0E4FDFE
:10A64000012F00F0D680042F00F03781102F00F08A
:10A650009381402F00F0A581B7F5807F00F0AF8196
:10A66000B7F5806F00F0B381B7F5805F00F0B78178
:10A67000B7F5804F00F0BB81B7F5803F00F0BF8198
:10A680002B6D43F400632B6505F11800092376490F
:10A69000764AC95C12F803C00B58042202FA0CF285
:10A6A00023EA02030B502B6843F001032B600C9B41
:10A6B000002B78D02B6A43EA87072F62079B9E42C4
:10A6C0000BD16B6C43F400436B642B6843F0800345
:10A6D0002B602B6843F001032B6099F8EE33002BBD
:10A6E00040F08F80039A01230AF1010A8BF80F30A2
:10A6F0005374BAF1040F02F118030BF59A7B03931C
:10A700007FF419AD099B17E620462DF0C3FD4FEAF3
:10A710004A1A4AF00101013771617060F46086F8ED
:10A7200010B025E6002C40F07281DFED518A5149CE
:10A73000514A0393C9F8A413504BC9F89C23F0EE77
:10A74000689A36E44E4D99F8C6630FCD09F55774F3
:10A7500009940FC40FCD0FC4003E2A68494B2260F4
:10A7600018BF012689F8EE63C9F86C3334E6206817
:10A770003CF0B6FB95F8813183427FF427AD01238D
:10A78000069357E608989BF8B5303F4990223DF074
:10A79000FFF94FE7B82202FB0692731CC2F800547F
:10A7A00089F8FD3372E62B6A1F432F6286E78D23FB
:10A7B000CBF8F03013222EE799F8FC33CBF8E87091
:10A7C000002B7FF4C8AE1F461946DBF82C21ABF8EE
:10A7D0000C10B2F8B43023EA0103A2F8B430C0E69A
:10A7E000CBF808314FF48073CBF8FC20CBF8103154
:10A7F00094E6AB6943F00803AB6105F11800002350
:10A8000045E72368627934334FF6FF71995069E761
:10A810005FFA88F30246A3F1080128F0FF00142331
:10A82000B1FBF3F1013106F02DFFD8F8003043F011
:10A830000203C8F80030D6E6144A0A9BCBF8E03091
:10A84000582303FB0A23CBF83031CBF8C030236800
:10A85000627934331344CBF8BC30A4E6C0CA040890
:10A860004035012000D01213F4D30408E8D30408C3
:10A870006F12833A215D0208B9400308B54003080E
:10A880003CD304082D70040899450408403E01207B
:10A89000D8F800305FFA88F123F001031422C8F8D9
:10A8A000003028F0FF000839B1FBF2F1013106F069
:10A8B00027FF08983DF088F957E6AB6943F0080395
:10A8C000AB6105F118000123E1E600234FF0FF32F0
:10A8D000ADF83C30109312938DF84C3011924F4AE2
:10A8E00052F83320954264D001330C2BF7D100206D
:10A8F000FCF7C4FC2B6823F001032B60059B284662
:10A900009A1F0B923BF09AFF9DF82C3007EE900AAD
:10A91000022BF8EE677A37D8414ADFED426A02EB44
:10A92000830303F2FC7292ED007AB8EE477A87EE69
:10A93000870A30EE260A3FF01FFC059B0138082BE2
:10A94000ADF83C0014BF13225F2200230FA9284654
:10A95000119212938DF84C30109306F023FEBDE552
:10A96000314A324BC9E9E832FFF79EBB2C4A02EB71
:10A970004303B3F83C1828E7AB6943F40063AB61C9
:10A9800005F11800022382E69FED297A9FED250A42
:10A99000A7EE870A3FF0F0FB0138ADF83C00132228
:10A9A000D3E7AB6943F00803AB6105F1180003235B
:10A9B0006DE61B4A02EBC30393F8A00798E7EB6927
:10A9C00043F00803EB6105F1180004235FE6EB692F
:10A9D00043F00803EB6105F11800052357E6EB6926
:10A9E00043F40063EB6105F1180006234FE6EB69C1
:10A9F00043F00803EB6105F11800072347E62B6DD0
:10AA000043F008032B6505F1180008233FE6DFED4E
:10AA1000098AF0EE689AFFF7BEBA00BF5CD204085C
:10AA2000C0CA04080AD7233C555C0208B540030895
:10AA3000FCF4B2346F12033970B5524E96F800012F
:10AA400096F801512DF0EAF960B12D23C380202141
:10AA500004462DF053FA0A202DF0DEF820462DF0A2
:10AA60000FFC18B9D6F8483FDA0000D570BD013D9B
:10AA7000092DFBD896F8FF40CCB9402026F062F9AA
:10AA80000028F3D090F9043096F8D110092BC8BFF4
:10AA9000143B33440A2993F84C4F66D093F8583F3F
:10AAA00096F8FE20002A08BF1C46002CDED0204667
:10AAB0002DF0B4F9054608B12D23C38001212846A5
:10AAC0002DF01CFA012108462DF026FB0121284615
:10AAD0002DF0DCFA3C202DF0ABF8002101202DF008
:10AAE0001BFB96F801311BB30024002108462DF012
:10AAF00013FB002102202DF00FFB002128462DF032
:10AB0000C5FA78202DF088F8012100202DF004FBF3
:10AB1000012102202DF000FB012128462DF0B6FA7C
:10AB200078202DF079F896F8013101349C42DCDB75
:10AB300096F8FF308BB9D6F8003103F0FF13B3F568
:10AB4000803F93D1D6F8483F13F080538ED186F8DA
:10AB50000131BDE8704036F037B932202DF068F889
:10AB6000284600212DF0CAF9E5E7D6F8703F5B05CD
:10AB70007FF57CAF0CF01EFA00287FF477AF002C35
:10AB800095D173E7A850002070B4344890F8743F12
:10AB9000A3F13001092957D800F67474224600F653
:10ABA000837012F8015FA5F13001092904D88242AF
:10ABB000F7D1002070BC7047141B022C4ADD2848D6
:10ABC000002101E010F8013B01EB810103EB41039F
:10ABD000161A303B022E044603F0FF01F2DC214B33
:10ABE00003FB01F1A2424FF000030DD903EB8303F5
:10ABF00014F8016B5B00303B3344A24203F0FF03C7
:10AC0000F4D1194800FB03F32E2D06D01748A0FB02
:10AC1000032301EB930070BC704701320420002431
:10AC2000157804EB8404303D6400092D00F1FF30F9
:10AC3000A4B202D82C44A4B2013210F0FF00EFD12C
:10AC4000642202FB0433E1E700211D4600F6747222
:10AC50000B46D9E7064C0021C4E700BFA8500020EE
:10AC60001D6000208096980040420F00ABAAAAAA5F
:10AC70001C60002038B504460D460A460068FF21D6
:10AC800041F08AFD21682944216038BD83B50C4616
:10AC90001646054626F020F8204626F01DF800212D
:10ACA000204B0846002E08BF1E462DF035FA002125
:10ACB00001202DF031FA28462DF02EF8B0B10121F7
:10ACC00000202DF029FA28462DF01EF807462046D0
:10ACD0002DF01EF80028FAD0394620462DF042F813
:10ACE0003846B047002108462DF016FA20462DF0D0
:10ACF00013F80028DFD0012100202DF00DFA2046A6
:10AD00002DF002F80146284601912DF001F8019935
:10AD10000028F8D028462DF025F8002108462DF00F
:10AD2000FBF9C8E7A1C70208F0B50023C1E9003369
:10AD3000C1E902330B61D0E900258DB007AEDFF821
:10AD400098E0C2F3056C37464CFA03F0C0073C4666
:10AD500004D513F80E0004F8010B27460133062B27
:10AD6000F2D11B4CDFF874E0C2F303200023205C17
:10AD70003B708DF82400C2F3073C0DF125074CFA17
:10AD800003F0C0073C4604D513F80E0004F8010B8D
:10AD900027460133082BF2D100233B70C5F3435CF7
:10ADA000C5F3434409AB0846C5F34F05C2F303514D
:10ADB000CDE902150193CDE9044C02F00F030549DA
:10ADC0000096C2F3031235F07BFC0DB0F0BD00BF5E
:10ADD00090210508682105089821050884210508A7
:10ADE00070B5094CD4F8842F054662B10026D4F81A
:10ADF000840F2D2101362EF0AFFBAE42F7DBBDE80C
:10AE0000704031F0CBB870BDA8500020074B4FF414
:10AE10007A7003F114014FF4FA6223F8040C23F85A
:10AE2000022C04338B42F8D1704700BF34600020FD
:10AE30002DE9F04FCDB2002185B0074608461646F1
:10AE40002DF06AF9002101202DF066F92CF0B4FFF5
:10AE5000022E09D0042E44F6C01818BF4FF49648AD
:10AE6000032D06D900200BE0FF2D4FF41648F7D133
:10AE70000326CE4C94F89C3F2BB90020C4F8A00FB9
:10AE800005B0BDE8F08F032E14D02544002295F8BC
:10AE9000C90303212AF028FF0028EED0C44DC5F8CD
:10AEA000A40D037A9A07E8D400683CF005F841F253
:10AEB000B053E85041F2C753BD4D94F89C0FEE5487
:10AEC000002203212AF010FF41F2A813E8500028C5
:10AED000D3D000683BF0F0FF41F2AC534FF48062F6
:10AEE000E850B44BC5F8603DC5F86C2D0323C5F898
:10AEF000702D41F2B852A5F8643D0023AB5441F2E5
:10AF0000B4524FF0010A25F802A005F5AE5205F63D
:10AF1000A851136041F2C452C5F8741DAB5241F2FE
:10AF2000C65201F20441032EAB54C5F8688DC5F832
:10AF30008C3DC5F8803DC5F87C3DC5F8781DC5F849
:10AF4000883DC5F8843D05F556690ED0D5F8A4BDF9
:10AF50009BF804002CF062FFC5F8A00D58460EF0D7
:10AF6000C4FC514648460EF0CFFC32202CF060FE67
:10AF7000012E0AD141F2A8134146E858FBF796FD8D
:10AF8000D5F8A40DFDF77AFD0BE0022E3DD1D5F8E2
:10AF9000A40D0EF09EFC41F2A8134146E858FBF7C1
:10AFA00085FDC4F8A09F4FF0060A022E12D0D4F8F7
:10AFB000A00F2CF0B1FE68B1012100202DF0ACF8FB
:10AFC000D4F8A00F2CF0A8FE0146002840F086809F
:10AFD0002DF0A2F838462CF09FFE80B101210846E2
:10AFE0002DF09AF84FF0050B4FF0000838462CF082
:10AFF00093FE014600287AD101202DF08DF8042E11
:10B00000D5D005202CF014FECFE7032E5ED141F2FF
:10B01000C8534FF0000A05F803A0514666482022A5
:10B0200041F0BAFB8DF80FA0DFF894A19DF80F3026
:10B03000032B0AD9614801210EF066FC41F2A813E6
:10B040004146E858FBF732FDABE79DF80F3003EBC4
:10B05000430304EBC30393F8DD3283B39DF80F3051
:10B0600003EB430304EBC303D3F8E0323BB39DF897
:10B070000F30234493F8C90308B3002203212AF0B8
:10B0800033FE8346D8B10EF024FC9DF80F309AF8B9
:10B09000002003EB430304EBC30304EBC201D3F82A
:10B0A000E032C1F8A43F9BF80830DB0748BF01231A
:10B0B00002F1010248BF81F8A83F8AF800209DF8FC
:10B0C0000F300133DBB28DF80F30AFE7042E7FF481
:10B0D00068AFD5F8A40D0EF0FCFB4BE7D4F8A00F39
:10B0E0002CF012FE014638462CF03CFE68E738464C
:10B0F0002CF00AFE94F8D23F01468BB9242803D1E4
:10B100004FF0010384F8D23F012E04D1384601915B
:10B110002CF028FE0199D4F8A00F2CF023FE65E74F
:10B12000012B06D14D280CBF0223002384F8D23F07
:10B13000EAE7022B06D13C280CBF0323002384F846
:10B14000D23FE1E7032B10D10A2802D984F8D28F2D
:10B15000DAE7042384F8C50F84F8C48F84F8C78F16
:10B1600084F8C60F84F8D23FCEE7042B09D194F8B7
:10B17000C63F84F8D30F434084F8C63F84F8D2BF5B
:10B18000C2E7052BC0D194F8C43F94F8C59F94F84A
:10B19000C60F4B4516D25A1C2344484084F8C60FAC
:10B1A00084F8C42F83F8C81FAEE700BFA850002062
:10B1B000C80C0020A8D304084C600020281A0020E6
:10B1C000902200208842C1D194F8D33F84F8D2AFB6
:10B1D000F42B99D1B9F1000F96D12421384684F887
:10B1E000D29F2CF0BFFD4D2138462CF0BBFD3E21F7
:10B1F00038462CF0B7FD494638462CF0B3FDF42113
:10B2000038462CF0AFFDF42138462CF0ABFD032E70
:10B2100012D0D5F8A44D20463BF09AFC4946204672
:10B220003BF0AEFC207920210EF042FBD5F8A40DB6
:10B230004A4649463BF0CAFC41F2A8130022E858AE
:10B2400011463BF0C3FC01201AE600BF70B5214D4A
:10B25000D5F8F43393F82620DAB11B699847E0B1AA
:10B26000D5F8F43393F824208AB105F6D476002477
:10B270001A19E0B29B6992F82C10B6EC010A9847B3
:10B28000D5F8F43393F8242001349442F0DB5B6961
:10B29000984795F8E43F332B00D070BD95F8EE3316
:10B2A000002BFAD0D5F8F43393F82430042B1E4643
:10B2B000A8BF0426002BF0D00024074D23461846D3
:10B2C0003BF0ECFF0134E3B29E4245F8040BF6D8A4
:10B2D00070BD00BFA85000209060002070B51D4CCC
:10B2E000096854F8EC5C1C4E54F8F04CD6EDFC7A2E
:10B2F000DFED1A6A491B00EE901A0168F8EEE00AC9
:10B30000091B60EEA70A00EE101A20EEA07AB8EE34
:10B31000C00A1C46A0EE007AB1EE400AF1EEC77AF0
:10B3200067EEA67AFCEEE77AC2ED007A35F034FBE0
:10B330009FED0B7ADFED0B7AE0EE077AFDEEE77A10
:10B3400017EE902A002ABCBF02F50C42A032226000
:10B3500070BD00BFA0610020000000202C7D8E3F4A
:10B36000A00CB34500A00C4638B50F4C14F8D11C06
:10B3700001F03F018B1C024601F10A0504F8D33CA1
:10B3800004F8D65CA4F1D80004F8D52C083117F0E5
:10B3900085F9254405F8DA0C14F8D63C1C44000A5B
:10B3A00004F8D90C38BD00BFA06100202DE9F04F92
:10B3B000CF4C91B004F2213300904FF0000A04F119
:10B3C000A505019354F80B0C002800F053812CF0D4
:10B3D000A3FC0646002800F0AB82C64BD3F8C43C61
:10B3E00044F8073CE027002304F8033C07FB0AF776
:10B3F00054F80B0C2CF090FC002800F03B8154F822
:10B400000B0C2CF081FC14F8023C5A1E06460B2A49
:10B410000DD8DFE812F01F003A004500520082000C
:10B4200099003A0177019601A101CC01E401242899
:10B430000CD0009A3AB995F85E22824240F0D5814C
:10B44000012204F8032C0D2BD2D184E0012304F84F
:10B45000023CCDE700234D28C4F8C53084F8CD3038
:10B4600084F8CE3004D0582808D004F8023CBFE756
:10B47000022204F8022C84F8C430B9E7032304F84C
:10B48000023C022384F8C430B2E704233C2804F8C9
:10B49000023C0AD03E2E0CD0002304F8023CA7E761
:10B4A0000A233C2804F8023CF4D1002304F8013CB0
:10B4B0009EE7012304F8013C9AE7D4F8C510EB1984
:10B4C0000B444A1CC4F8C52003F8A50C94F8CD0021
:10B4D000022A80EA060084F8CD0089D12378C02BA7
:10B4E000DAD86278FF2A08D1052BD5D9012384F850
:10B4F000C430072304F8023C7AE7A4F8C1200022F4
:10B500009342C4F8C93014BF0523062384F8C3202E
:10B51000C4F8C52004F8023C6AE7D4F8C510EB195A
:10B520000B444A1CC4F8C52003F8A50C94F8CD00C0
:10B53000D4F8C93070409A4284F8CD007FF458AFF7
:10B54000062304F8023C53E794F8CD308342A3D19C
:10B550000D2304F8023C14F8017C002F40F0CA814E
:10B56000654B08940FCB04AE86E80F00D4F8C930C1
:10B57000D4F8D100ADF82A7023440993B4F8C1304F
:10B58000ADF8283094F8C3308DF82C304FF0010915
:10B5900003AB324608A98DF82D90039725F0BAFE2B
:10B5A000002860D0049EDFF858B194F8C480059656
:10B5B000102239460CA8CDF810B041F0EDF8242245
:10B5C0008DF830204D4A12F808208DF83120BDF951
:10B5D0001A20531C0CBF21223E22A6EB0B068DF82D
:10B5E0003220B8F1000F40F01581BDF818308DF809
:10B5F0003430FE2E40F3FF80ADF83560FF234FF06E
:10B6000007098DF833300DF13302A9F10303013B33
:10B6100080F0F5803A4A3346002B00F3F5808DF830
:10B620000880012754F80B0C2CF06AFB002800F06E
:10B63000568154F80B0C2CF059FB54F80B0C4A466D
:10B640000CA92CF06DFB2E4954F80B0C32462CF053
:10B6500067FB54F80B0C3A4602A92CF061FB54F836
:10B660000B0C2CF03DFB039E002304F8023C002E43
:10B6700040F056810AF1010ABAF1030F04F1E00427
:10B680007FF4A0AE11B0BDE8F08FD4F8C520EB195F
:10B69000134402F10108C4F8C58003F8A50C94F81E
:10B6A000CD3001464340D52294F8CE0084F8CD3009
:10B6B00035F034FAB8F1070F84F8CE007FF498AE75
:10B6C000B4F80530C02B3FF6E7AEB4F80320A4F879
:10B6D000C120A27884F8C32000229342C4F8C93064
:10B6E00014BF08230923C4F8C52004F8023C7FE6F0
:10B6F000FB600020C80C0020D8D304088021050876
:10B70000781D01200146D52294F8CE0035F006FAC6
:10B7100094F8CD30D4F8C51084F8CE00734084F886
:10B72000CD30EB190B444A1CC4F8C52003F8A56CB6
:10B73000D4F8C9309A427FF45BAE092304F8023C86
:10B7400056E694F8CD30434084F8CD3094F8CE30AE
:10B7500083427FF4A1AEF3E6D4F8C520EB1913447D
:10B7600002F10108C4F8C58003F8A50C0146D522F2
:10B7700094F8CE0035F0D2F9B8F1050F84F8CE0078
:10B780007FF436AEB4F80120B4F80330A4F8C12039
:10B79000227884F8C32000229342C4F8C93014BF31
:10B7A0000B230C23C4F8C52004F8023C20E6014614
:10B7B000D52294F8CE0035F0B1F9D4F8C51084F84C
:10B7C000CE00EB190B444A1CC4F8C52003F8A56C45
:10B7D000D4F8C9309A427FF40BAE0C2345E694F8B6
:10B7E000CE3083427FF458AEB2E6232804BF022253
:10B7F00004F8032C27E6F3B24FF0050901E712F82D
:10B80000011B88EA010802E712F8011B013B88EAE4
:10B81000010801E7B8F1010F43D1B21DFE2A4FF034
:10B82000FF038DF83430D8BFD3B28DF833309DF894
:10B830001C30C8BFADF83A208DF835304FF0050206
:10B84000BDF81830ADF836300DF135014FF000007D
:10B85000CCBF4FF00C094FF00A09ADF83860FAF789
:10B86000F5FB32464F49FAF7F1FBB0468DF8080078
:10B87000A9F103030DF13302013B08D2494BB8F1A2
:10B88000000F08DC78408DF809000227CAE612F89C
:10B89000011B4F40F0E713F8012B08F1FF38574028
:10B8A000EDE7B8F1020F7FF4DEAE9DF81C208DF8B5
:10B8B0003320BDF81820ADF834200DF133010522F6
:10B8C0003846ADF83660FAF7C1FB32465946FAF70A
:10B8D000BDFB4F468DF808004FF00809A2E654F86A
