:020000040800F2
:10000000F0FF0120E55F05084D600508BD2C0408E0
:100010004D6005084D6005084D60050800000000B2
:100020000000000000000000000000004D60050816
:100030004D600508000000004D60050849FD0308FB
:100040004D6005084D6005084D6005084D600508C8
:100050004D6005084D600508312E0408292E04085E
:10006000212E0408192E0408112E04087D4D0508C0
:100070006D4D05085D4D05084D4D0508394D0508C8
:10008000254D0508114D05084D6005084D60050812
:1000900035C700084D6005084D600508092E0408A5
:1000A000F9310508C9320508E9310508F1320508BA
:1000B000B9320508A93205089932050881570508A3
:1000C0008D57050869570508755705084D600508DF
:1000D0004D600508D5FD0308C5FD0308B5FD0308FF
:1000E000012E04084D6005084D6005084D600508A7
:1000F000193205084D600508093205084D600508EC
:100100004D6005084D600508893205084D600508F9
:10011000A5FD030895FD03081D320508F5BE00087E
:10012000E94C0508D54C0508C14C0508AD4C05083F
:10013000994C05084D6005084D6005084D6005089F
:100140004D6005084D6005084D6005084D600508C7
:100150004D6005084D6005084D6005084D600508B7
:100160004D6005084D6005084D6005084D600508A7
:100170004D6005084D6005084D6005084D60050897
:10018000D93105084D600508395705084557050858
:100190004D600508000000004D6005084D60050831
:1001A0004D6005084D6005084D6005084D60050867
:1001B000515705085D5705084D6005084D60050855
:1001C000FD4C0508854C0508714C05085D4C05087B
:0801D0004D6005084D600508B3
:0801D800445B0500010000007A
:08280000082800080040000850
:04400000FFFFFFFFC0
:106000001148002302461178032902F1060215D037
:106010000133062BF7D1436A052B0ED05A1C03EB34
:106020004303426200EB4303032040F2EB3140F2B2
:10603000FF32187059809A807047704703EB430312
:1060400000EB4303F0E700BFF0170020037870B4C3
:106050002BB30246C0F10105531912F8014FDBB210
:10606000002CF9D101335B000E4C0B80032284F825
:10607000283084F82920017879B1022300265A1C9F
:10608000E51854FA82F285F8281082F8286010F892
:10609000011F0233DBB20029F1D170BC704702232B
:1060A000E2E700BFF0170020826D136A5B681B787F
:1060B000FF2B08D090F8D030013BDBB280F8D03015
:1060C0001BB10120704700207047126A52680220FD
:1060D0001370704770B4C3080D4CE25C00F0070603
:1060E000B24004EBD004D2B20020C6F108038B42C8
:1060F00028BF0B46C3F108052A419840C91A40EA57
:1061000002004FF0000614F8012FEED170BC70476A
:106110005819002030B5EFF31181802383F31288E2
:106120000A4AD2F8FC31D2F80042D2F8FC01D2F887
:106130000052CAB282F31188013BA84294BF4FF4C7
:10614000006000201B1B184430BD00BFF01700206A
:10615000012380F851307047014BD3F80402704797
:10616000F017002001207047014BC3E982217047DE
:10617000F0170020014BC3E984217047F01700207D
:1061800070477047212838B505D0222827D020280D
:106190000FD0002038BD0029FBD0072AF9D1174BBA
:1061A0001C6818795A799B790C6008714A718B7157
:1061B000EFE70029EDD0072AEBD111480F4B0C79FE
:1061C000D0F80C224D791C718C7909685D719C7135
:1061D0001960002ADDD0D0F808029047D9E70029DD
:1061E000D7D0022AD5D1064AD2F81432002BD0D00B
:1061F0000988D2F810029847CBE700BF00000020C2
:10620000F0170020002070470A23038000487047E1
:106210000800002064230380004870471400002019
:10622000012901D000207047014BD3F89030184766
:1062300000000020012901D008F07CBD014BD3F8FB
:106240008C30184700000020014BD3F888301847E5
:106250000000002010B40B7803F00303012B0A4662
:10626000044605D0022B0BD000205DF8044B70478C
:106270008B8843B9204611465DF8044B0BF02ABBCE
:106280008B88832BF6D0034B5DF8044BD3F880301A
:10629000184700BF0000002038B5054B0446DB6FEF
:1062A0000D4698472946204609F024FE002038BDB7
:1062B0000000002038B5054B04469B6F0D469847FB
:1062C0002946204609F048FE002038BD0000002085
:1062D0000023F0B452004F1C1E46B0F1204F4FEA8D
:1062E000107404F130052ABF3734CD54CC54FE5419
:1062F00002339A424FEA0010EFD1F0BC704700BF62
:1063000008B50248FFF7A2FE014808BDE8110608DB
:106310001818002008B50248FFF798FE014808BD8C
:10632000F8110608181800200B4A0C4B10681B685F
:106330001A22C0180A8001D10948704710B5094BCC
:1063400009491C680822FFF7C3FF204607490422B9
:10635000FFF7BEFF024810BD9075FF1F9875FF1F25
:10636000B00000209475FF1FB2000020C200002082
:1063700008B50248FFF76AFE014808BD0412060886
:106380001818002008B50248FFF760FE014808BD54
:106390001012060818180020042301480B807047CB
:1063A000CC000020A0B182680D4B12B107229A7078
:1063B00070471978DA6003294FF004000CBF802180
:1063C0004FF48071C3E901111A611A759870704712
:1063D000034B41F2E47101225A545A70704700BFD6
:1063E000147A00200378022B10D0006908B901202C
:1063F00070470C4B1B78032B0EBF0B4B80B24FF634
:10640000F773984294BF0020012070470549436804
:1064100041F650028A58B3EB422F2CBF01200020D6
:10642000704700BF147A0020F7FFFF0F0378022B9C
:1064300014D030B4104A4368006941F6480402F5AC
:10644000C2511559096841F63C042B4012595B0AA8
:10645000023801FB0030104430BC7047064B4268E4
:1064600041F6340141F630005958185800EB41000C
:1064700000EB5220704700BF147A0020004870479C
:1064800040190020034B93F84C01032894BF0020CF
:1064900001207047F0170020836D1B6A5B681B7832
:1064A000FF2B0AD190F8D030002B03F1FF3380F896
:1064B000D03014BF0120022070470020704700BF79
:1064C000034B93F84C01003818BF0120704700BF00
:1064D000F01700202DE9F843884600294FD04718CF
:1064E000284C07F1FF39461E8025EFF3118185F313
:1064F0001288D4F8FC21D4F80002D4F8FC31D4F886
:1065000000C2C9B281F31188634594BF4FF40063A0
:106510000023121A1344012B1AD1012039F00AFC6E
:10652000EFF3118185F31288D4F8FC21D4F800022E
:10653000D4F8FC31D4F80072C9B281F31188BB429F
:1065400094BF4FF400630023121A1344012BE4D0CC
:10655000EFF3118285F31288D4F8003216F8011F88
:106560002344D2B283F81812D4F800320133C3F3B3
:106570000A03C4F8003282F311884E45B5D1404673
:10658000BDE8F883F0170020F8B590F850500023CC
:1065900080F85030D5B10F4E96F88C2C032A17D1C5
:1065A000D6F8C47C00F13C0429462046FFF792FF50
:1065B000D6F8C43CDB1B322BA5EB0005044401D804
:1065C000002DF1D1B5FA85F04009F8BD0120FCE7B6
:1065D0001846FAE7F0170020002280F85120D3E790
:1065E00090F85020531C0244DBB280F8503082F8FF
:1065F0003C1090F851200AB1132B00D9C4E7704722
:10660000F8B50C4E96F88C3C032B0D4614460FD172
:10661000D6F8C47C002C0BDD21462846FFF75AFF34
:10662000D6F8C43CDB1B322BA4EB00040544F1D9A3
:10663000F8BD00BFF017002010B5134A134B8CB003
:106640000821069302F5C070002382F8F8110DF1BD
:10665000070401226944CDE90733CDE903420293DF
:106660008DF8143009930B938DF828203CF04AFDE7
:1066700007483CF065FF9DF80700A0F1FF00B0FA65
:1066800080F040090CB010BDF0170020A960000890
:10669000701900202DE9F04103792C4C002B14BF18
:1066A000012200228AB084F8782104D184F84C3188
:1066B0000AB0BDE8F081054604F5C07795F90010F1
:1066C00038463CF03FFEAD789DBB214B2148C4F8D5
:1066D00088514FF00108C4F8F43184F88C813CF003
:1066E00073FE1D4E03464FF47A70A4F8843139F0DE
:1066F00021FBD4F888013CF001FA0FCE6D460FC59E
:106700000FCE0FC596E8030085E8030069463846BA
:106710003CF0F8FC38463CF013FFD4F8C42C84F865
:106720004C810023C4F83C2184F840310AB0BDE814
:10673000F08128463CF020F9054608B11E23C380AD
:106740000D2128463CF088F9BFE700BFF017002074
:1067500018190020801A06001C97050870B592B021
:106760000B0E0D0C40F04006952204468DF80810E3
:10677000080A01A98DF805308DF80650002306257A
:106780008DF807008DF809200DF103000122039117
:1067900015498DF80460CDE90733CDE90D33CDE916
:1067A000090204938DF818308DF82C300F93119353
:1067B00005958DF840200C91FFF73EFF00B984B994
:1067C0000A4C082304F5C07003A984F8F8313CF0A2
:1067D00099FC04F5C0703CF0B3FE9DF8030012B0C4
:1067E00070BDFF2012B070BD99640008F017002042
:1067F00030B5114A114B8DB002F5C07401460693B5
:106800002046002382F8F8110DF10705012202A9A4
:10681000CDE90733CDE9035202938DF81430099383
:106820000B938DF828203CF06DFC20463CF088FE50
:106830009DF807000DB030BDF017002099640008E6
:1068400070B51D4D90B00024FD2201260DF103030B
:1068500001A905F5C0708DF803200693CDE9014428
:10686000CDE90A44CDE90C44C5F848418DF8104003
:10687000059407948DF824400F94039608968DF89C
:1068800038603CF03FFC05F5C0703CF059FE3046E6
:10689000FFF7AEFFFF2809D0D5F8C43CC5F83C315E
:1068A0002046092385F84C3110B070BD0423022026
:1068B00085F84C3110B070BDF017002070B5064659
:1068C00090B008200D46FFF793FFFF2823D0FE2845
:1068D00002D0022010B070BD00240222012301A9C1
:1068E0000E4808928DF83830CDE90544CDE90A44C8
:1068F000CDE90C440296039501948DF8104007945D
:106900008DF824400F943CF0FDFB04483CF018FE49
:10691000204610B070BD012010B070BD701900206D
:1069200010B5074C04F5C0703CF00AFE0A2039F09F
:10693000F5F9D4F88801BDE810403CF0DFB800BF9D
:10694000F01700202DE9F84F4D4B984210D003F579
:1069500068530833984255D04A4B0020A3F8300DB5
:10696000A3F83C0DC3F8340DC3F8380DBDE8F88F1B
:10697000444C454FDFF81C810223C4F8C83C04F6A0
:10698000CC460025D7F8D030AB42294605F10105A9
:1069900003D0D4F84C0D49F02FFD94F8503DD4F8B5
:1069A0004C2D86F8243032623046414649F038FF9B
:1069B000D4F8C83C9D4206F13006E3DB002384F89E
:1069C0003E3DD4F8C81CB4F8D02CD4F8D83CD4F848
:1069D000D40CB4F8DC5CC4F85C3D12FB01F203FBA0
:1069E00001F3A4F8302DB4F8D21C284AC4F8340DB1
:1069F000C4F8383DA4F83C5DA4F8321DC4F82C2D31
:106A00000120B3E71F4C204F0223C4F8C83C04F612
:106A1000CC454FF0000B4FF4806A4FF040094FF423
:106A20000068D7F8D02001265A455946B34403D010
:106A3000D4F84C0D49F0E0FCD4F84C1D94F8502DDE
:106A4000296285F824204FF400314FF00062C5E937
:106A50000212A5F804A0A5F81090A5F80680AE745F
:106A6000FFF7CEFA28466E7649F026FED4F8C82CF9
:106A7000074B45F8303B9345D3DB84F83E6DA0E7E8
:106A80001971EF00F0170020000000207097050832
:106A9000449705081940EF000F4B07B5D3F8D420F1
:106AA0005208B2FBF1F3B3F5803F02D3012AF7D8C5
:106AB000F9E799B201904CF07DFD0849084A019828
:106AC00041F2CC53CA5001F5AE5100220C3103B053
:106AD0005DF804EB4CF052BC00000020F0170020E1
:106AE000992602082DE9F8431B4C94F84C61042EBA
:106AF0000546894690461F4608D0082E02D0002041
:106B0000BDE8F883FFF79CFE0228F8D1D4F888018D
:106B10003BF0EEFF94F84231A3B969021120FFF770
:106B20001DFEA8B9D4F8C43CC4F828910522C4E9D4
:106B30004D87C4F82C5184F84C21C4F83C31012015
:106B4000BDE8F88329461120FFF708FE0028E9D0A8
:106B5000FFF7E6FED3E700BFF017002010B50C46A4
:106B600049F0ACFA58B9084B93F8DC34012B4FF0DC
:106B700012030BBF054806482380238010BD122353
:106B80000448238010BD00BFE82800200001002039
:106B9000EC000020D800002010B50AF0A9FD104C30
:106BA00058B194F84C31032B13D894F84031013389
:106BB000DBB2072B84F8403103D9002384F84C3131
:106BC00010BDD4F8C43CC4F83C31012384F84C31E6
:106BD00010BD04483CF0F8FBA4F88401E5E700BFD1
:106BE000F0170020801A060070B51E4C94F84C3146
:106BF000042B06460D4609D0082B23D1D4F8443186
:106C000083422DD0FFF71CFE02281BD1D4F8880147
:106C10003BF06EFF00213720FFF7A0FD294617202B
:106C2000FFF79CFDB0B994F842316BB9710219209D
:106C3000FFF794FD70B90823C4E9516584F84C311D
:106C4000022070BD012070BD31461920FFF786FD7E
:106C50000028F0D0FFF764FEFFF79EFF032070BD11
:106C6000022070BDF01700202DE9F8432A4C05469C
:106C7000884617461E4694F84C01042831D008284F
:106C800007D1D4F84431AB4206D0FFF7D9FD022832
:106C9000F1D00120BDE8F883FC22204BDFF884907E
:106CA0001F4883F8E024C9F83C813CF05BFA0028D7
:106CB00014BF4FF400734FF480731948C9F844317E
:106CC00009F58A713CF01EFA01220623C4E94A85BF
:106CD000C4E94D7684F8302184F84C310020BDE8B9
:106CE000F883D4F888013BF003FF94F8423153B99C
:106CF00069021820FFF732FD38B994F84C31082B9F
:106D0000CAD0FE22C9E72946F3E7FFF709FEFFF7DD
:106D100043FF0320BEE700BFF0170020E828002053
:106D200070190020000000202DE9F047D04C94F8A5
:106D3000786194B0002E00F0958194F84C2104F510
:106D4000C07704F5B478531E082B00F2A480DFE866
:106D500013F0390062002E01A2009000B4001B0065
:106D6000A2000900FFF768FC002840F04282D4F836
:106D70003C31D4F8C42CFA33934280F08980FFF779
:106D80000BFF94F84C21DEE7FFF756FC0028EED00D
:106D9000D4F848310022012B84F8402140F240828F
:106DA000D4F84421013B511CC4E95113082284F852
:106DB0004C21A2F10806B6FA86F67609304614B0E0
:106DC000BDE8F087D4F888013BF092FE0021084628
:106DD000FFF7C4FC0546FFF7A3FD012D58D1D4F8F9
:106DE00088014FF0000984F841913BF081FE40F2A8
:106DF000AB110820FFF7B2FC052800F07A810128CA
:106E000000F03C81FFF78CFD94F84121002ACED0A0
:106E1000022384F84C31D4F888013BF069FE94F8E1
:106E20004131022B0CBF4FF0804500250021372057
:106E3000FFF794FC29462920FFF790FC0546FFF751
:106E40006FFD2DBB94F84131022B00F0818184F855
:106E50004251D4F888013BF04BFE00210920FFF796
:106E60007DFC002872D0FFF75BFD94F84C21531E87
:106E700011E0D4F828014FF40071FFF71FFD01283D
:106E800000F01B81022800F02081002800F04C81D6
:106E900094F84C21531EDBB2022B0AD8D4F8C43C20
:106EA000D4F83C115B1AC82B83D9FFF775FE94F810
:106EB0004C21042A7FF47DAF80E7D4F880316D48FF
:106EC0001D6A3CF04FF9002800F01681B5FA85F5EF
:106ED0006D09002DDCD004A900250DF10F0302225D
:106EE0004FF001090591384605A9CDE90B39079204
:106EF000CDE90955CDE90E55CDE91055ADF8105045
:106F000006958DF820508DF8345013958DF84890E3
:106F10003CF0F8F838463CF013FB9DF80F3003F0D6
:106F20001F03052B00F06E81FFF736FED4F834A165
:106F3000BAF1000F00F0DA802A46D4F83831D4F8DC
:106F40002C114846D04794F84C21FCE610214046CD
:106F5000FFF7B4FC0546002885D101217F20FFF70B
:106F6000B9F8012881467FF47EAF28460221FFF759
:106F7000B1F8002800F01E8101287FF474AF1621BB
:106F80003A20FFF7A7F801308002C4F85001FFF75C
:106F9000C7FCD4F888013BF0ABFD00210A20FFF7C5
:106FA000DDFB002840F0FF80032384F84C311021E2
:106FB00005A8FFF783FC00287FF46AAF9DF8213015
:106FC0009DF822109DF81C209DF815509DF8160084
:106FD0001B01DBB243EA111303F5FA63A4F8623133
:106FE000DDF81D3001F00F0184F864111BBA11099E
:106FF00002F00F0240EA052084F8601184F8612154
:107000009DF814109DF81720C4F85C31069BC4F855
:107010005831A4F8540184F8561184F85721FFF729
:107020007FFC94F8423173B9D4F888013BF060FDDD
:107030004FF400711020FFF791FB0546FFF770FC3D
:10704000002D7FF49CAE0C483CF0BEF900220423D6
:10705000A4F884013046C4F8482184F84C3114B0B7
:10706000BDE8F087304684F84C6114B0BDE8F08785
:10707000F01700207019002040787D01042304AA35
:107080008DF8340005A96E4807930692CDE9099959
:10709000CDE90B99CDF814908DF82090CDF838906B
:1070A0003CF030F866483CF04BFA9DF81330AB2BBF
:1070B00004BF022384F84131A4E6D4F83C31D4F86B
:1070C000C42C64339342BFF4E3AEFFF729FCFFF70F
:1070D00063FDD4F834514DB100221046D4F8383154
:1070E000D4F82C11A84794F84C212CE694F84C21A4
:1070F00029E684F8415185E6D4F8283194F8301116
:10710000024603EB012138464FF480733CF0FEF950
:1071100094F830310133DBB2A3F10205B5FA85F5FD
:1071200084F830316D09D4E60190FFF7F9FBD4F80B
:107130003451019884F84001042384F84C31002D27
:107140003FF43CAED4E94A21D4F83831A8479FE651
:10715000D4F888013BF0CCFC29463A20FFF7FEFA30
:1071600004A90422814601230691384605A9CDE9E8
:107170000955CDE90B5505958DF820500E950792D0
:107180008DF834303BF0BEFF38463CF0D9F9B9F108
:10719000000F08D1FFF7C4FB049B1BBAC3F3807335
:1071A00084F8423155E6FFF7BBFBFFF7F5FC94F896
:1071B0004C21C8E504212C20FEF78CFF0321054655
:1071C0004E20FEF787FF0C2182463620FEF782FF15
:1071D0000AF1020A431C03FA0AF309FA05F0A3FBB9
:1071E0000001430A43EAC153C4F85031FFF798FB4A
:1071F000CFE60190FFF794FB01980423064684F83C
:107200004C31DBE5D4F83451D4F8C43CC4F83C31FB
:10721000072284F84C21002D3FF4CBAD484691E77E
:1072200008D0042384F84C31FFF77AFB94F84C2102
:10723000531E30E6FFF704FB02287FF429AE12E666
:10724000701900204309012200F01F00013B86B0A5
:1072500002FA00F0042B0CD8DFE803F0161F280315
:107260000D00174BDA6D0243DA65DA6D10400190BC
:10727000019B06B07047124B9A6C02439A649A6C59
:1072800010400590059BF4E70D4BDA6C0243DA647D
:10729000DA6C10400490049BEBE7094B1A6E024332
:1072A0001A661A6E10400390039BE2E7044B9A6D36
:1072B00002439A659A6D10400290029BD9E700BF85
:1072C0000010024008B5012103204CF0A5FC72B665
:1072D00048F012FFF0B5D0F800C0134CDCF80450B1
:1072E00085B0254045EA01040A9F039344F0004419
:1072F00044F490341546CCF8044019463A46064604
:107300000CF0C8F968B93168039B8D62024600979A
:10731000304640210CF0EEF9003818BF012005B0CE
:10732000F0BD012005B0F0BD009800FCF8B5144F89
:1073300004460D460AE09B69DB0602D50CF068F9AD
:10734000D8B9D7F8E4345B1B0A2B09D823689E69A7
:10735000B6062A464FF00A012046ECD50020F8BDBB
:10736000636C202100220B43636484F8402084F87E
:10737000411084F842200120F8BD0120F8BD00BF73
:10738000E8280020164BDB68C3F3022310B4C3F1D6
:1073900007041A1D042C28BF0424062A4FF0FF32CC
:1073A00002FA04F28CBF033B002321EA0201002809
:1073B00001FA03F10ADB00F1604000F561400901C8
:1073C000C9B280F800135DF8044B7047054B00F01C
:1073D0000F0009010344C9B219765DF8044B7047E8
:1073E00000ED00E0FCEC00E0284B294AD3F8D43053
:1073F000284910B5A2FB0323274CDB0C82B00022E6
:10740000013BC4F8E81404F59D6041F28731C4F8EB
:10741000EC34C4F8F414C4F8F824C4F8F0240BF0E5
:1074200091FA1E4B9A6D42F020029A659B6D03F013
:107430002003019306213720019BFFF7A3FF184982
:10744000D4F8E834174A4FF400004860D96841F096
:107450000101D96099680A40062A06D0B2F5803F3A
:1074600003D01A6842F001021A600F4B0F49D3F89B
:10747000A82C002003F50674C2E98114C2F810029A
:10748000C3F81402C3F80C0202B010BD00000020C3
:1074900083DE1B4300140040E82800200010024057
:1074A00000E100E007000100F0170020102E00208E
:1074B000F0B589B00D4604463BF098FC031E1CDB7A
:1074C000164A174E1A4406EB830392F88070C3F8ED
:1074D000285D20463BF0B0FC3E44A588114A206858
:1074E000002303A9CDE905330793CDE903520CF03E
:1074F0007DF996F8683DF02B01D809B0F0BD0A4B34
:107500000321D8570190F02386F8683DFFF73AFF32
:1075100001980DF021F909B0F0BD00BF1C970508D6
:10752000E8280020000011108412060810B4B8B139
:107530000D4CD4F8703D102B05D15DF8044B05219E
:1075400000203BF023BC03EB4302224482F8751D6C
:1075500001210B4482F8740D82F8761DC4F8703D49
:107560005DF8044B704700BFE82800208078202198
:10757000DCE700BF2DE9F04FDFF8A4B089B054225A
:1075800000210BF6A45051F01DFF40F24C421B4964
:107590000BF6F85050F0B4FF194B93F84C211AB188
:1075A00093F84D218BF8A42D93F84E211AB193F83E
:1075B0004F218BF8C82D93F852211AB193F853211B
:1075C0008BF8BC2D93F850211AB193F851218BF808
:1075D000B02D0C490C4A0D481288098800880C4DC2
:1075E000C3F868110B4C0C4EC3F86401511A002704
:1075F0000A4A92FBF1F2C3F86C2118E0AC97050837
:10760000E0390020A875FF1FCA75FF1FAA75FF1F6C
:10761000000021C31C9705088C360020803801002B
:10762000E82800200137072F06F10C0628D0042F88
:1076300000F04B81052F00F0708130780028F1D0E8
:10764000BA4A00230133312BECD012F80C1F8842C8
:10765000F8D103EB430CB64904EB8C0C002208680C
:10766000DC3128B19CF8DD041041C00700F17884BA
:107670000132052AF3D10137072F06F10C06D6D1C6
:10768000AC4CDFF8DC82DFF8DCA2DFF8DC92AA4F3A
:10769000AA4E002554F8083C002B00F0AF80D4F827
:1076A000D020002A00F0AA80DC2202FB05B2236071
:1076B000D2F85C1E41F00201C2F85C1E9A6812F01A
:1076C000040F9A6840F05C81110700F15981DA6873
:1076D00042F40012DA6020460DF04CF8002800F069
:1076E000FB81236896495A68DFF880C202EA0802E3
:1076F0005A6040F2FF721A609A6822F0A0429A60C3
:107700009A6842F000529A60DA6802EA0A02DA6085
:10771000DA6842F00042DA601A6902EA08021A6185
:107720005A6902F080425A619A6902F078429A617D
:107730001A6A02F0F0221A625A6A02F0FF225A62B2
:107740009A6A02F0FF229A621A6B02EA09021A632D
:107750005A6B3A405A639A6B3A409A63DA6B22F456
:10776000FB6222F00702DA631A6E0A401A665A6E4A
:107770000A405A669A6E0A409A66DA6E1140D966D5
:10778000D3F8A02002EA0C02C3F8A020D3F8A4206A
:1077900002EA0C02C3F8A420D3F8B02002EA0C02DB
:1077A000C3F8B020D3F8B420B3F1A04F22F07F1279
:1077B000C3F8B420634A00F05582934200F05D8222
:1077C000614B6249624A9B68896892680B43134324
:1077D000DB0704D45F4B9A685F490A409A60DC2259
:1077E00002FB05B20023C2F8603EC4E91933C2F8B7
:1077F0005C3E84F85830002840F097800135052D14
:1078000004F1DC047FF446AF0024DFF864912746DE
:1078100059F8743C23B1D9F86430002B40F0D5807E
:107820000137052F09F1DC09F2D10026404DDFF8C0
:1078300044814A4F34462B68002B00F0F681D5F87E
:10784000D820002A00F0F181A968B1F1A04F00F022
:107850001282DFF8F0C0394B3E48614518BF03463D
:107860009B68886840072FD495F8600001282BD0CA
:1078700003F01F030120092B85F8600000F26483E8
:1078800040F22120D840C00740F15E83886810F0A4
:10789000010040F04281D1F808E0DFF8DCC01EEAC8
:1078A0000C0F00F02081DC2303FB04B4D4F85C3E11
:1078B00084F8580E43F01003C4F85C3ED4F8603EE0
:1078C00043F00103C4F8603EFEE74FF0000C62464F
:1078D0004FF48031AE46DC2303FB02B23078D2F89D
:1078E000D03E86F801C00B434FF0070C0121C6F8CB
:1078F00004E0C2F8D03E86F80AC0717200283FF456
:1079000091AE3BF039F8FB1DDBB210B10022837160
:10791000C27103213BF0A0F884E64FF0000CDFF8C1
:107920005CE062464FF48021D5E7FEE7F89B05084E
:10793000E0360020E8360020200882E000030050F6
:1079400000F0FF030001005000040050000500504B
:107950000006005000070050E01000FEC0FFFF7F4F
:1079600000F8FFFF04000080300882E00000F8FF0C
:1079700054370020FEF0FFFF3F000080000084CB62
:10798000DA68920105D5A18B40F20112914200F014
:10799000C5829A68520703D59A68910740F10A8414
:1079A0009A68120703D59A68910740F1AE820C21BC
:1079B000DBF8E40405E0DBF8E424121A052A00F2FF
:1079C0003D819A680A42F6D181E619F8700CFFF7FA
:1079D00039FCD9F8643059F8742C49F86C2C9908A2
:1079E0005A0801F0333102F077320A44D9089B1A61
:1079F00001F011329B1A03EB131303F00F33FF2234
:107A0000B3FBF2F2C2EB02229B1A002249E91922CF
:107A100049E910224FF40020DC2149F84C3C49F898
:107A2000680C012349F85C2C09F8502C09F8482C03
:107A300009F82C2C059201FB07B108204FF4805265
:107A400049F8583C09F84F3C09F8343C49F8540CC3
:107A500049F8302CD1F85C3E002B00F07C8259F8BC
:107A60006C3C9A68960005D59A6822F0204222F074
:107A70003F029A609A68D50016D49A688349844870
:107A8000D1F8D410B1FBF0F122F0104222F03F0205
:107A900042F080529A600591059A2AB1059A013AFE
:107AA0000592059A002AF9D19A68D00040F11D820A
:107AB00000259A68510740F1FD80DC2303FB07B3E2
:107AC000D3F85C3EDC2303FB07B3D3F85C2E42F013
:107AD0001002C3F85C2EFEE7DC2303FB05B3012292
:107AE000C3F85C2EFDE58868384040F001008860EE
:107AF000DBF8E4C40EE08868C00704D48868384026
:107B000040F001008860DBF8E404A0EB0C000228E0
:107B100000F2EF830868C007EDD54FF0DC0C0CFBDA
:107B200004BCDFF88CE1DCF85C0E00EA080040F4ED
:107B300080707145CCF85C0E00F01E825548814281
:107B400000F01A82DC2303FB04B3D3F85C0E20F4AC
:107B50008010C3F85C0EDC2303FB04B34FEA920EE3
:107B6000D3F85C0E10F480501CBFD3F8600E20F0E8
:107B70000600C3F8600EE86D474BC362474B0363D2
:107B8000474B43631C230B60D1F804C053080EF02D
:107B9000333E03F0773373444FF000094CF0100E7E
:107BA0004FEAD20C85F86090D31AC1F804E00CF0CB
:107BB0001132D1F80CE09B1A03EB1313394A03F08E
:107BC0000F334EF0010E4FF0FF0CB3FBFCFCCCEB7F
:107BD0000C2CA3EB0C03C1F80CE002EB4602403185
:107BE0000CF056FCAA6893683B4043F00403936092
:107BF000002840F07C83D5F8D8302B4A59089808E3
:107C000000F0333001F077310144D8085B1A00F0FE
:107C100011315B1A03EB131303F00F33A2FB0312B2
:107C2000D209C2EB02229B1A1E440134052C05F135
:107C3000DC057FF400AE09B0BDE8F08FDC2202FB6A
:107C400005B20120D2F85C1E41F01001C2F85C1EA2
:107C5000D2F8601E0143C2F8601EDA6842F40012D6
:107C6000DA603EE59B6892681343DB073FF5B7ADEA
:107C7000B2683346B0E50D4BF2E54FF0A042926892
:107C80009B681343DA07F3D5A9E500BF0000002085
:107C9000400D03000005005089F0000885F0000841
:107CA00071F0000880560120818080800003005020
:107CB00000010050DC2202FB07B2D2F85C1ECE06A7
:107CC0003FF500AFD2F85C1E21F4817141F0020152
:107CD000C2F85C1E9A68D2071AD4B3F1A04F00F024
:107CE0007382CB4A934200F07882CA48CA4902F5AF
:107CF000407292688068896802430A43D60707D4B5
:107D0000C648826859F8681C22F47C120A438260D3
:107D100059E9191059F8302C02430A4319F84F0C4D
:107D200019F8481C42EA4032012942EA014204D1D2
:107D300059F8441C013942EA414259F8401C29B122
:107D400059F83C0C01F4787101430A43DE68B449E8
:107D500059F8380C31400A43DA601A6922F040625F
:107D600002431A6199689A6801F0040102F008025E
:107D70000A4327D1D96819F8342C19F8506C59F8EE
:107D80005C0C21F48041520021F0020142EA86326B
:107D90000A43DA601A69002840F0898222F48032AE
:107DA0001A61D3F8C02022F47F5222F03F02C3F8B8
:107DB000C02019F82C2C012A00F086821A6922F0C2
:107DC00001021A6159F8582C012A00F067821A6BD7
:107DD00022F00F021A63DC2606FB07B606F65C6883
:107DE000D6F85C3E23F0030343F00103C6F85C3E83
:107DF000002D40F0DE8119F8143C0695012B00F0AF
:107E0000D781A9F16C0303931846012309F8143CA8
:107E10000CF0B0FC002840F0C381D6F85C3E8149EC
:107E200023F4885323F0020343F00203C6F85C3EB8
:107E300059F86C2C936823F0404323F03F0343F040
:107E4000004393609368002BC0F21282DC2101FB97
:107E500007B10022D1F85C3E734DDFF8C0A1DFF816
:107E6000DCC1009223F0030343F00103C1F85C3E40
:107E7000012609F8142C06E0009B0133072B009320
:107E80000CF10C0C7CD09CF80930002BF4D09CF940
:107E90000130BB42F0D1654B8CF8084003EB860201
:107EA00019F8143C611C4FF00008D2F828470191E2
:107EB000721C012B0292CDF81C80DCF8042013D038
:107EC00059F86C3C9968012009F8140C480740F1F6
:107ED000B780DC2303FB07B3D3F85C2E83F8588EFE
:107EE00042F02002C3F85C2EFEE7DC2202FB07B260
:107EF0000125D2F85C1E41F01001C2F85C1ED2F8D8
:107F0000601E2943C2F8601ED3E59A6822F0004241
:107F100022F03F0242F020029A6048E51A685006BB
:107F200007D4434A02E0013A3FF488AE1968490693
:107F3000F9D540221A609A68500703D59A689007CD
:107F400040F15381042133E5DC2303FB04B4002317
:107F500084F8583EB8E4C1F8603E09F8143C7EE568
:107F60000C2101FB0343012193F8E404D3F8E0E47E
:107F700081404FFA82FCAEE4002B7FF4ECADE1E5EA
:107F80002C4B3B44FEB293F91020314602203AF0CC
:107F9000DDFFD0F80480054640463BF005F8264A50
:107FA0002421431E01FB0323864693F880110029F8
:107FB0007FF441AE01364FF0060C83F8816183F8FF
:107FC00080C100283FF437AEAB68C9F80430802385
:107FD0002022C9F810304FF480764FF480534FF4CC
:107FE0008065C9E90723C9E90211C9E90565C9F82E
:107FF00000804CF05BF948460CF0A6FA48460CF0BD
:1080000017FB039B49F8189CC9F8283008E400BF07
:10801000000100500005005000060050000700500D
:108020000740F0FF01DE0400000300501C97050824
:10803000000040A32C3B0020000000208C360020D4
:108040004FEA941E0EF00C0E03F1300604F01F04EC
:108050005EF806801F20A040C2F3846101FA04F498
:1080600028EA000020434EF806009C68986804F057
:10807000040400F00800204354D1D60D03F1140489
:1080800006F00406C2F3045856F804E0072000FA8C
:1080900008F040EA0E003051586920F00040586165
:1080A000D868186E186EC2F31204C0F38460002CF6
:1080B00000F0B18092FAA2F1B1FA81F1884200F0A9
:1080C0009D80596E596E03F16000C1F3846103F124
:1080D000640492FAA2F6B6FA86F68E4203D12168BB
:1080E00021F0004121608168816800F10804C1F33A
:1080F000846192FAA2F6B6FA86F68E4203D121681E
:1081000021F000412160C168C4680C30C4F384646C
:1081100092FAA2F1B1FA81F1A14203D1016821F0F2
:10812000004101609968C90707D4D3F8B010C2F3C1
:10813000120021EA0001C3F8B01099490A4229D07F
:10814000B3F1A04F00F0278196498B420CBF29461E
:108150005146954C8868A24200F0E07100F0F7802B
:10816000924CA24200F0F380914CA24240F0D780A2
:10817000C6010FD4B3F1A04F00F0CF80894A9342DB
:108180000CBF2A465246936823F0E0730B4343F03A
:10819000807393600023DDE9014609F8143C6BE627
:1081A000D8F8003086F8585E43F01003C8F8003065
:1081B000FEE790E49A6822F0004222F03F0242F08B
:1081C00010029A60FFF7ECBB76499A6889680A4307
:1081D000D1073FF59DAD774893E54FF0A0429268F7
:1081E00099680A43D207F6D592E59A6822F00042D0
:1081F00022F03F0242F010029A60A3E6196E184680
:1082000021F0004140F8601F596E596E03F164047B
:10821000C1F384615DE781421DD0586E5C6E03F14D
:108220006000C4F3846403F16406A14203D134689E
:1082300024F00044346084688468C4F38464A142F8
:1082400003D1846824F000448460C468C4680C309E
:10825000C4F3846460E71C6E184624F0004440F8C0
:10826000604F5C6E5C6E03F16406C4F38464DCE70B
:10827000069B01330693069B8B427FF6E3ADDC231E
:1082800003FB07B30021D3F85C2E83F8581E22F0BD
:10829000120242F01002C3F85C2E89E7196B59F8FC
:1082A0004C2C21F00F01013A0A431A6393E542F482
:1082B00080321A61D3F8C02022F47F5222F03F02AC
:1082C0000243C3F8C02074E559E90A211E6959F830
:1082D000200C26F4FF660A4326F0040659F81C1CFD
:1082E000324302430A4342F001021A616AE5FFF792
:1082F000EBBADC2303FB04B40022D4F85C3E84F820
:10830000582E43F01003C4F85C3ED4F8603E43F0AE
:108310000103C4F8603EFFF7D7BA2A4633E7264C7C
:10832000A2427FF437AF44023FF534AF1D4A934277
:108330003FF430AFB3F1A04F0CBF2B4653469A68C1
:1083400022F0E0720A4342F480029A6022E70002BF
:108350003FF520AFB3F1A04F1FD0184A93427FF4EE
:1083600019AF50468268164B164CD3F8D430B3FB85
:10837000F4F322F0E0720A430C2142F4000201FB04
:1083800003F38260079302E0079B013B0793079B7F
:10839000002BF9D1FEE62946DBE62846E2E700BFDE
:1083A0000000088000010050000021C31000C090B0
:1083B000000052C700030050000084CB00060050AC
:1083C00000000020400D0300F0B5D0F800C0134CB1
:1083D000DCF8045085B0254045EA01040A9F039368
:1083E00044F0014444F490341546CCF80440194656
:1083F0003A4606460BF04EF968B93168039B8D6228
:1084000002460097304680210BF074F9003818BFFF
:10841000012005B0F0BD012005B0F0BD009800FCC2
:108420000128B5EEC00A10D0F1EE10FA0BDD9FED79
:10843000177ADFED177AE0EE077AFCEEE77A17EEAF
:10844000903A98B2704700207047F1EE10FA0BDDB9
:108450009FED107ADFED107AE0EE077AFCEEE77A16
:1084600017EE903A98B27047EDD5F7EE007A30EEFD
:10847000270A9FED0A7ADFED0A7AE0EE077AFCEE32
:10848000E77A17EE903A98B2704700BF00E0F944DF
:108490000000404200C079440000834400C079C419
:1084A00000E0824470B5464E96F8704104EB8403B8
:1084B00006EB8303A50093F87431032B6ED8DFE835
:1084C00003F059291E02254406EB8505D5F87801ED
:1084D000002870D196F8C4319C425FD0013404F07A
:1084E0000302934286F8702158D002EB820406EB17
:1084F00084040223C4F8780184F8743170BD2B1908
:1085000006EB8303D3F8782172B1013AC3F87821DE
:10851000002070BD2B1906EB8303D3F87821002AC5
:10852000F3D1022283F87421254406EB850595F8E2
:108530008031013BDBB285F880318BBB214B96F853
:10854000C461D3F8A413D5F87C01621C02F00302C5
:108550004B1E0324B242034485F87441B3FBF1F08F
:10856000C5F878011AD0994218D80138C5F87801B1
:10857000012070BD3BF0C0FC80B1124B2C44D3F8FD
:10858000A42306EB8404012102F51C5384F8741122
:108590000F33B3FBF2F3C4F8783170BD012070BD26
:1085A000084BD3F8A423012002F2E733B3FBF2F324
:1085B000C5F8783170BD0138C5F87801002070BD6C
:1085C000E03900200000002090F83C30012B00F042
:1085D000D381F0B40223012480F83C4080F83D3080
:1085E000142A4ED8DFE812F056004D004D004D0021
:1085F000A0004D004D004D0080014D004D004D008C
:10860000EC004D004D004D0038014D004D004D0077
:1086100015000368D1F808C01D6A0F68B04E25F434
:1086200080151D621C6A5D681A6D22F0807224F448
:10863000001422F4E042B34244EA0C5442EA072216
:1086400008D006F50066B34204D006F54066B34292
:1086500040F0AC814E6925F4802545EA86254E68B8
:108660005D601A65DE641C621C6D0D6944F4006473
:108670001C65196D21F4806119651A6D42EA0522A5
:108680001A650023012280F83D2080F83C30F0BCC0
:10869000184670470368D1F808C01D6A0F68904EED
:1086A00025F001051D621A6A5D689C6924F4803416
:1086B00022F0020224F07304B34242EA0C0244EABC
:1086C000070413D006F50066B3420FD006F54066E6
:1086D000B3420BD006F58066B34207D006F580663C
:1086E000B34203D006F50066B3420BD1CE6822F048
:1086F00008023243D1E9056725F440753E4322F074
:10870000040235434E685D609C615E631A629C6939
:108710000D6944F008049C61996921F00401996194
:108720009A692A439A61ACE70368D1F808C01D6AC8
:108730000F686B4E25F010051D621C6A5D689A6912
:1087400022F0807224F0200422F4E642B34244EA8C
:108750000C1442EA072200F0218106F50066B342BC
:1087600000F01C8106F5E056B34200F03F815D4EFB
:10877000B3420BD006F58066B34207D006F580669B
:10878000B34203D006F50066B34206D1D1E90567CE
:1087900025F440653E4345EA86054E685D609A6172
:1087A0009E631C629C690D6944F400649C61996934
:1087B00021F4806199619A6942EA05229A6160E731
:1087C0000368D1F808C01D6A0F68454E25F480552E
:1087D0001D621C6A5D68DA6922F0807224F400541C
:1087E00022F4E642B34244EA0C3442EA072200F0A3
:1087F000CD8006F50066B34200F0C88006F5E0566D
:10880000B34200F0EB80374EB3420BD006F58066E2
:10881000B34207D006F58066B34203D006F5006682
:10882000B34206D1D1E9056725F440453E4345EA08
:1088300086154E685D60DA611E641C62DC690D6934
:1088400044F40064DC61D96921F48061D961DA699A
:1088500042EA0522DA6114E70368D1F808C01D6A0C
:108860000F681F4E25F480351D621C6A5D681A6D05
:1088700022F4803224F4003422F07002B34244EA3D
:108880000C4442EA070213D006F50066B3420FD04B
:1088900006F54066B3420BD006F58066B34207D0BA
:1088A00006F58066B34203D006F50066B34204D1F4
:1088B0004E6925F4803545EA06254E685D601A65E7
:1088C0009E641C621C6D0D6944F008041C65196DE2
:1088D00021F0040119651A6D2A431A65D1E600BF1B
:1088E000002C0140004001400368D1F808C01D6A17
:1088F0000F68424E25F480751D621C6A5D68DA6956
:1089000022F4803224F4007422F07302B34244EA69
:108910000C2442EA070231D006F50066B3422DD09E
:1089200006F5E056B34251D0354EB3420BD006F5B2
:108930008066B34207D006F58066B34203D006F5E1
:108940000066B34206D1D1E9056725F440553E43A0
:1089500045EA06154E685D60DA61DE631C62DC691B
:108960000D6944F00804DC61D96921F00401D96182
:10897000DA692A43DA6184E602207047CE6824F47B
:10898000006444EA062424F48064DCE7CE6824F41E
:10899000004444EA063424F4804443E7CE6824F0DB
:1089A000800444EA061424F04004EFE606F58066ED
:1089B000B3423FF44FAE06F58066B3423FF44AAE91
:1089C00006F50066B3427FF44AAE43E6CE6824F46F
:1089D000006444EA062424F48064A5E7CE6824F405
:1089E000004444EA063424F480440CE7CE6824F0C2
:1089F000800444EA061424F04004B8E6002C014048
:108A00000040014003689B0AA3F58013542B00D952
:108A100070470D4A134493F844370B2BF8D830B500
:108A20000A4C427985B0002914BF0025022504EBC9
:108A30008310694600230124CDE90054CDE90233B7
:108A400009F030FE05B030BD1C970508A83B00209A
:108A50000D4BD3F8D42010B5520804464FF6FF71E1
:108A60004AF0A8FD20460021FFF7CCFF0749084A3D
:108A700041F2D0532046CA5001F5AE51BDE8104036
:108A8000002210314AF07ABC00000020F0170020CC
:108A900085ED01080F4B104AD3F8D430A2FB032315
:108AA0009B09013BB3F1807F11D210B50B4A0C49F1
:108AB000536000240723F02081F8230094600F21E5
:108AC0004FF0FF301360FEF75DFC204610BD012023
:108AD000704700BF00000020D34D621010E000E09E
:108AE00000ED00E003681878012801D000207047ED
:108AF000074A93F90430642101FB032393F86125AD
:108B0000202AF4D1D3F820359869C0F3C0307047DB
:108B1000E039002010B50C4CD4F898361B78022BA5
:108B200010D1D4F8A00639F0E9FFD4F8A00608B1B6
:108B30002123C380012139F08FFF04483AF044FC1F
:108B4000A4F89C0610BD00BFE03900208096980074
:108B500030B583B00D46012301460DF107020446EE
:108B600007483AF0B3FD9DF8072035EA020304D028
:108B700003482A4321463BF07DF803B030BD00BFD7
:108B80007840002038B505460A460C460648294676
:108B90003AF08AFC45F0800103483AF02DFC231A94
:108BA0005842584138BD00BF7840002070B50D4C88
:108BB000D4F898562E78022E134607D00A4601465E
:108BC00004F5D360BDE870403AF080BD2A6A0AB16E
:108BD000002070BD0A46014604F5D3603AF034FC2B
:108BE000012070BDE039002003681B78022B4FF094
:108BF000010201D03AF098BF3AF07EBC13B53A4C6E
:108C00000023D4F850278DF80730137803F0FD01C6
:108C1000012905D194F8541711B90C2184F854177F
:108C2000022B1ED0032B2ED001220B212F4848F0FF
:108C300027FC042037F07EF82C4801230DF10702B1
:108C4000002148F03FFC002839D09DF80730482B20
:108C500035D1274BC4F84437264BC4F8483702B007
:108C600010BDD4F8580739F049FFD4F8580708B1B7
:108C70003423C380012139F0EFFE1F483AF0A4FBF2
:108C8000A4F85407D0E7D4F8E03B506846F2A811A6
:108C90001961002380F868301222372148F0C3FBA5
:108CA000D4F850370D225868242148F0BCFBD4F882
:108CB0005037302258686A2148F0B5FBB4E7D4F841
:108CC00050371A78022A03D0032A07D00020C6E7BB
:108CD000D4F858073AF0F6F90020C0E75868102297
:108CE000372148F0A0FBF1E7E039002030410020B7
:108CF00023150508A51505088096980030B58DB098
:108D00000446FF21002301228DF807100DF107050D
:108D100002A904928DF814208DF82820CDE9025381
:108D2000CDE90633CDE908330B933AF0EBF922682D
:108D3000136A002BFCD10DB030BD00BF2DE9F0410E
:108D40005E4F5F4C07F6247300254FF4F072064621
:108D500088461846202187F8205F87F8215F50F069
:108D600031FB4FF4F072202100F5F07050F02AFB37
:108D7000322036F0DFFF94F8ED31002B00F09280C6
:108D800094F8EE1104F5F8703AF0DCFA002800F0DF
:108D9000898094F8ED0139F0EFFD0546C4F8F8013B
:108DA00039F09CFE00287DD00DB12323EB800D21EE
:108DB000284639F051FED4F8F80139F09FFE4148B9
:108DC0003AF002FB03464048A4F8F431FFF796FF5F
:108DD0003D488C213AF010FB1B2866D1D4F8F831BD
:108DE000012287F8202F0BB12322DA803648402257
:108DF0000A213AF059FB34488A213AF0FDFA94F8F6
:108E0000EC31C0F3801584F86852002B43D0022B5C
:108E10003AD12E483AF0D8FA0346A4F86A0294F8F8
:108E20006C22182A0FD12A4A2A49D2F8D420C4F831
:108E300070825208B2FBF3F2A1FB0212520BC4E99A
:108E40009E32C4F874522048A4F8F4310222002162
:108E50003AF02AFBC82036F061FF1B4D80212846DE
:108E60003AF0CAFA10F00200F8D17278B37831788B
:108E700084F89012C2F12002C3F1100384F8912209
:108E800084F89232BDE8F08113483AF09DFA034627
:108E9000A4F86A02C3E70B483AF096FA0346A4F82E
:108EA0006A02BCE76FF00100ECE7D4F8F80120217A
:108EB00039F0D2FD4FF0FF30E4E700BFE039002089
:108EC000D84A0020404B4C00C84C0020002D3101F6
:108ED000000000205917B7D18096980010B58CB0CB
:108EE00000234CF20502044601A9CDE90633CDE981
:108EF0000833ADF800208DF8023003220B930123D4
:108F0000CDE903128DF814308DF82830CDF808D053
:108F10003AF016FB204602A93AF0F4F820463AF05F
:108F20000FFB9DF806000CB010BD00BF08480023E1
:108F300002461178022902F1060204D00133062B01
:108F4000F7D10020704703EB430300EB4300704769
:108F5000F01700202DE9F041714C724E82B020468E
:108F60002422002150F02EFA96F8955200236362D5
:108F7000002D38D1D4F82C3D53B39B6A43B36A48D3
:108F80009847836823B30388654C013B9BB2214615
:108F9000204600220678032E00F106001CD0013284
:108FA000062AF7D100220878022801F1060100F014
:108FB00097800132062AF6D1616A052908D0481C3B
:108FC00002FB0142606202200021938010705180F8
:108FD000284602B0BDE8F081062303FB0242538815
:108FE000013B9BB2DEE796F8940206F52777C6F8B8
:108FF000987208B90025BDE739F0BEFCC6F8A40296
:1090000039F06CFD0028F5D0294638463AF09AF937
:1090100005460028EED0D6F89832986804F62C520F
:109020005A6708B12023C3800D2139F015FDD6F809
:109030009832986839F062FD3C48D6F898723AF058
:10904000C3F94FF00108B8803220C4F84C7D84F891
:10905000508D36F06FFE0423D6F8980200270DEBF2
:1090600003029F2101973AF0EFF99DF805709DF8F2
:1090700004309DF806102C483F0247EA03470F438F
:10908000394647F0CDFB00287FF474AF3846FDF732
:1090900059FC034600287FF46DAF9DF806009DF84B
:1090A00005209DF80710000240EA0240204A0843CC
:1090B000904219D0A4F8303DA4F83C3DC4F8343DAA
:1090C000C4F8383DFDF73EFC074600287FF452AF58
:1090D00096F8940239F050FC39F0F4FF3D4649E728
:1090E000062101FB02426EE7124BC4F8303D4FF4FB
:1090F000003140234FF00062A4F83C3DC4F8341D19
:10910000C4F8382D84F83E8DFCF77AFF064884F8C1
:10911000458D47F0D1FA084BC4F82C3D2AE700BF33
:10912000F0170020D84A00201C250020404B4C009E
:1091300021AAEF000004000844970508114BD3F85A
:10914000C01C91F8280201281AD00A68B2F85830D9
:109150006FEA43436FEA53439BB210B4A2F858300E
:10916000B2F840309BB243F43F43002443F0800305
:10917000A2F8403081F8284220465DF8044B704741
:10918000704700BFF0170020F0B56F4C6F4E94F899
:109190003D556F4BC4F8143306F61822022104F52E
:1091A00045770820C4F884250022C4E9C601C4E933
:1091B000C912C4E9CB2289B0C6F8C07CC4F83423F4
:1091C000002D71D0032184F83D15B3F8405044F2CE
:1091D0007F0129401646A3F84010002215464FF0A3
:1091E000010C04EB4211971C81F83C23A1F84A239F
:1091F000013204EB4717D2B29042C1E9D35581F84E
:109200003DC381F83F53C7F81453EAD800221546EE
:1092100004EB421102F10A0781F83C24013204EB0D
:109220004717D2B2904281F83D5481F83F54C1F8BB
:109230004C54C1F85054C7F81453E9D80021012008
:10924000A3F84000A3F84010A3F84410A3F850106E
:10925000B3F8402092B242F43F4242F0800286428C
:10926000A3F8402084F8381384F83D0559D014231E
:10927000002054259421D422A4F842344FF48A7358
:1092800084F8480484F8480384F8680384F8680480
:1092900084F88803A4F84253A4F86213A4F8622463
:1092A000A4F8823309B0F0BD05F0FF06294D0796FA
:1092B000EB6C84F83C6543F00103EB64EB6C0491C8
:1092C00003F00103029303274FF4C05303A94FF0A7
:1092D0009040029A0596039306970AF087FAAB6DC1
:1092E00043F40003AB65AB6D03F400030193062167
:1092F0001420019BFEF746F8D4E9C530164A4FF416
:109300008011116084F83D75B3F84010D4F83063D3
:1093100044F27F020A40A3F8402000287FF45DAFAA
:109320008CE784F87415B3F85420C4F87C6592B2C5
:1093300042F00102A3F85420B3F8542092B242F054
:109340000202A3F8542092E7D84A0020F017002028
:10935000005C00400010024000E100E010B5194C34
:1093600094F8890590B9184B83F87901C3F87C010A
:1093700094F88C35012B20D0D4F890350BB31349D9
:109380005B68BDE81040A1F10C00184739F0F4FA11
:1093900094F88B250C49003A18BF012281F87921F5
:1093A000C1F87C010028E3D01F22C280202139F0BF
:1093B00053FB94F88C35012BDED1054BC4F8903566
:1093C000DDE710BDD84A0020F01700206C500020C7
:1093D000A803002099B10A6B824216D9154BD3F825
:1093E000D425914221D34C3991421ED30B6B984224
:1093F000F9D38B6B9842F6D80B46184670470D4B45
:10940000D3F8D4150A6B904212D30B680BB9F4E76A
:109410000A6B90420B4602D38A6B9042EDD951F809
:109420004C3F002BF4D11846704700231846704774
:109430000A46D8E7D84A00202DE9F047CC0143D1AD
:109440000346224A43F8082B4FF0FF3242600224C1
:1094500018467E26DFF87880D8F8D8952644013E55
:10946000051D49466FF070474FF0010A08E0A3421E
:109470001CD0631C45F8043C321B1C460435CAB1A1
:109480000B6BA34202D88B6BA34204D22046FFF79A
:10949000A1FF014690B10A794B6B002AE7D1A342A4
:1094A00004D0E6D245F8042C631CE5E745F8047CBB
:1094B000631CE1E7C8F8D815BDE8F08745F804ACAF
:1094C000321B631C4946D8E78026C3E7F8FFFF0F2D
:1094D000D84A00200A44914217D010B40139541ED2
:1094E00011F8013F08225840430010F0800F08BFD8
:1094F000400083F0D50314BFD8B2C0B2013AF3D113
:10950000A142EDD15DF8044B704770472DE9F0475B
:10951000164D0746002095F9E59505F2EC5684B006
:1095200007EB010805F68C0504464FF0B60A3368D0
:10953000ABB193F83830142B11D019F1020F01D0D0
:109540004B450CD1002269463046CDE90244CDE9B5
:109550000078ADF808A08DF80D402AF09BFEE036AB
:10956000B542E4D104B0BDE8F08700BFD84A00207E
:109570002DE9F0479AB0DDE9226ADDF890900446C3
:109580000D461746984602E0206836F03FFC2068FA
:1095900036F044FC0028F7D10146642201A84FF0C0
:1095A00011FF264B8DF80450CDF85CA00293002DDE
:1095B00040D0AB1E012B3FD9042D14BF0022032243
:1095C0001F4B0396D3F8C43C8DF805201E4401239D
:1095D000CDE9059404968DF85B3037B142463946A3
:1095E00007A84EF08DFF8DF85A80164E96F8CE984B
:1095F00000231893B9F1000F19D196F8CD08642211
:1096000002FB006001A900F50D604EF079FF012317
:1096100086F8CD9886F8CE38236843B143463A465B
:10962000294620461AB0BDE8F04717F027BF1AB008
:10963000BDE8F0870522C3E70222C1E7645300209A
:10964000F0170020D84A002038B507EE901A2DED0B
:10965000028B9FED2A8AF8EE677A20EE080A1546FB
:1096600027EE808AF0EE608AB0EE480A044646F0A3
:1096700021FAF0EE407AB0EE480AB0EE678A46F082
:1096800005FAF6EE007A28EE278A012D88EE286A80
:1096900028D0B7EE007A77EE406AB8EE005A66EE50
:1096A000A77A77EE465A20EE050AB7EE005A36EE54
:1096B000056ABDEC028B85EE067A84ED095A67EEE9
:1096C000877A67EE266A27EE000A25EE877AC4EDD0
:1096D000007AC4ED027AC4ED016A84ED030A84EDD8
:1096E000047A38BDF8EE006A60EE266AF7EE007A7A
:1096F00077EEC65AB0EE660AD7E700BF27D4D23657
:10970000014488420ED010B40346074C074813F8B2
:10971000012B04FB00F0994280EA0200F7D15DF8CA
:10972000044B70470148704793010001C59D1C819F
:109730001249134AD1F8E40405E0D1F8E4341B1AC5
:10974000B3F57A7F0FD81369DB03F6D413694CF2B3
:10975000FA310B4009D1106910F0010004D0012149
:10976000184611617047032070470648D0F8D0139F
:109770001943C0F8D013012013617047E828002076
:1097800000200240000000202DE9F04FCF4D2DEDCC
:10979000048B95F8393995F85099002B87B005F668
:1097A000481205F64C1314BF0221012192ED005A14
:1097B000D3ED004A0291B9F1000F00F08181F7EE7C
:1097C000007AB4EE675AF1EE10FA14BF01230023B9
:1097D0008945CDE90339C0F26282F4EE674AF1EEC1
:1097E00010FA14BF012300230593D5F86019B84A75
:1097F000DFEDB85ADFEDB86ADFEDB83A9FEDB83A61
:10980000DFEDB82A9FEDB82A9FEDB81A9FEDB80A90
:10981000DFEDB81A019107EE901AB8EE677AF7EE0D
:10982000007A87EEA48A02F1110302F1100E02F110
:1098300069080027C7EE850A86EE874A25EE255A75
:1098400064EEA54A55E04FF08C0A0AFB078A4CF2F9
:10985000503B5C458AF8280000F2E88007EE904A09
:109860009FEDA56AF8EE676A86EE267A009C8C204A
:1098700000FB0780092C80ED0B7A40F2188142F240
:109880001070844200F2168107EE904AB8EE677AB3
:1098900027EE037A8C2000FB0780BCF1090F80EDD6
:1098A0000E7A40F2C680BCF57A7F00F2068107EEA0
:1098B00090CAB8EE677A8C2000FB0780632980EDA0
:1098C0000C7A40F2B08007EE901AF8EE677AF4EE68
:1098D000C47AF1EE10FA88BFF0EE447A8C2000FBD7
:1098E00007800137C0ED0D7AFFB2964503F1020300
:1098F0006AD012F8010F0028F7D01C88002CF4D091
:10990000198C00910029F0D04845B3F840C0B3F855
:10991000601098D907EE90CAB8EEE77A07EE901A71
:10992000F8EEE77A0A2827EE236A67EEA36A00F0CA
:109930008380A0F10B0CBCF1070F00F2E180B9F1BC
:10994000000FD2D0A0F10A014FF08C0C0CFB078065
:1099500007EE901A4CF2503C644598BF07EE104A4F
:10996000F8EEE77A98BFB8EE479A67EE858A88BF27
:10997000B0EE409A88EE897A00994FF0010A80F89B
:1099800028A08C2000FB0780092980ED0B7A40F28B
:10999000778142F21070814200F2698107EE101A5D
:1099A000F8EE478A26EE277A28EE836AB4EEE27A4A
:1099B000F1EE10FA88BFB0EE627AF2EE048A66EE3B
:1099C000A77AB4EEE87AD6E0019985F851792FB3F9
:1099D0008C23DFF82881002603FB07F74FF00009EE
:1099E000A8F1780404F1140058ED1A0A18ED1C0AC5
:1099F0000122FFF729FE283466602660E660A66033
:109A0000444502D0D5F86019ECE709F18C094F45BF
:109A100008F18C0802D0D5F86019E1E707B0BDEC79
:109A2000048BBDE8F08FF0EE427A57E7B0EE617A32
:109A30001CE7B2EE047A3EE7039900293FF455AFE4
:109A40004CF2503C64459ABF07EE904AB8EE677AF4
:109A5000B0EE407AC5EE877A8C2000FB0780009933
:109A60004FF0010A80F828A08C2000FB078009290C
:109A7000C0ED0B7A40F2078142F21070814200F291
:109A8000F98007EE901AF8EE677A26EE207AF2EE69
:109A9000048AB4EEE27AF1EE10FA88BFB0EE627A90
:109AA00027EE836AB4EEE87A66EEA07A63E0B2EE5F
:109AB000047AEDE6B0EE417AEAE6B0EE627AFAE6D2
:109AC000CDE90399CDF814908FE600BFD84A002065
:109AD000675B0020ABAA264300BADB488988883C34
:109AE0000AD7233C00007A440000C84200401C46CC
:109AF000005043473EC3AE3955558541705C002048
:109B0000142853D1059900293FF4EFAE4CF2503C94
:109B100064459ABF07EE904AB8EE677AB0EE407A95
:109B2000C5EE877A8C2000FB0780029980F8281008
:109B300000998C2000FB07800929C0ED0B7A40F2C8
:109B4000A88042F21070814200F2A68007EE901ABF
:109B5000F8EE677A28EE067AF2EE048AB4EEE27A3C
:109B6000F1EE10FA27EE836A88BFB0EE627A68EEF3
:109B7000267AB4EEE87AF1EE10FA4FF08C00F4EEAB
:109B8000C27A00FB0780B8BFB0EE687AF1EE10FA37
:109B900080ED0E6A80ED0C7A3FF545AFF4EEC47AA5
:109BA000F1EE10FA88BFF0EE447A97E6A0F1150CBA
:109BB000BCF1070F3FF699AE0299049EB1423FF700
:109BC00094AE143807EE900A4CF2503C644598BFAE
:109BD00007EE104AF8EEE77A98BFB8EE477A27EE1C
:109BE000A49A88BFB0EE407AC9EE078A8C2000FBA9
:109BF000078080F8281000998C2000FB0780092935
:109C0000C0ED0B8A39D942F2107081423ED807EE7E
:109C1000101AB8EE477A26EE276AF2EE048AB4EEFE
:109C2000E26AF1EE10FA88BFB0EE626A66EEA77AD9
:109C3000B4EEE86AF1EE10FA27EE037A4FF08C00EA
:109C4000F4EEC27A00FB0780B8BFB0EE686AF1EEAE
:109C500010FA80ED0E7A80ED0C6A3FF5E4AEB4EEBA
:109C6000E74AF1EE10FA98BFF0EE447A36E6F0EEED
:109C7000418A97E6F0EE417A07E7B2EE047ACAE746
:109C8000F2EE048A8EE6F2EE047AFEE6B0EE417A57
:109C9000C1E7F2EE047A5DE7F0EE417A5AE701227D
:109CA0000023CDE90423A0E52DE9F04F2DED028B33
:109CB000DFF88481DFF884A19FED5B8A85B008F12D
:109CC0002C04A8F6E8090127FEB218F8010B324669
:109CD000572133F05BFE0546002800F08B800068BA
:109CE000A5600123B0F1804F04F8283C04D04F4B0D
:109CF000C31AB3FA83F35B0904F8273C49F076F9F9
:109D000014F8273C07EE900A002BF8EE677A4FF024
:109D1000000314BF01214FF480714FF400522868F2
:109D200044F8083C44E9062344F8101C44ED087A42
:109D300049F05CF9AAFB0030C308012218F8010CB5
:109D400044F80C3C04ED098A24F81C2C24F81A2C45
:109D500038F012FEE06010B15723C67183716A7A41
:109D6000422138F057FE286849F040F900210246A8
:109D7000284649F01FFC14F8273C002B45D021460B
:109D80002B4B41F8043D0022284649F0F7FA286899
:109D900049F06AFC834670B100230121CDE901132B
:109DA0000422039269466A79009308F07BFC697982
:109DB000584608F045FDA26854F8103C126899F81E
:109DC000CC09013E591EF6B29162012300214FF0E9
:109DD000FF3C4FF40055B042C2F82CC0536144E937
:109DE000065124F81C3C24F81A3C44F8081C01D104
:109DF00033F03CFD0137052F04F138047FF464AFE4
:109E000005B0BDEC028BBDE8F08F0A48DFF830C02A
:109E100044F8040C63602246211F2846C4F800C0A1
:109E200049F0ACFAB3E700BF00000000000C0040AE
:109E300005D2030839D30308B86400201F85EB510D
:109E400091D803080C480D4BD0F8E81910B40C4C0D
:109E5000C0F8D8398A1E2231B0F8063A1B01A4FB9B
:109E600003C3DB08A3F5B06322F8023F9142F3D1AC
:109E70005DF8044B704700BFD05B0020FD5702081F
:109E8000CDCCCCCC70B5084C251D2E4614F8010B5A
:109E90002CF0A4FF28B1037905F8013BB442F5D1B9
:109EA00070BDFF23F8E700BFF46500202DE9F047FF
:109EB0001D4F012607F10805B2464FF03B094FF050
:109EC000000817F8010B38F057FD044690B180F8F0
:109ED0000690C671FB7803F07F02012A18D013F0B8
:109EE000800F20460DD185F8048038F001FE85F8FA
:109EF00005802C600136052E05F10805E1D1BDE88D
:109F0000F08785F804A038F0F9FD85F805A0F0E7A2
:109F10001B0605D40121204638F09EFDFB78DEE7C4
:109F200038F0ECFDF6E700BFFC6500202DE9F041BC
:109F3000204D95F85B3A85F8543A05F6582705F612
:109F40005C2600244FF0050817F8010B20BB306099
:109F50000134032C06F10406F6D195F8541AD5F80D
:109F60005C0AC94301F0010138F048FE95F8541A23
:109F7000D5F8600A81F00201C1F3400138F03EFEDD
:109F800095F8541AD5F8640A81F00401BDE8F0414F
:109F9000C1F3800138F032BE38F0EEFC013401210B
:109FA0003060E3B210B180F80680C371306838F0D9
:109FB00053FDCEE7D05B0020F0B5284CB4F86C5AC6
:109FC000A4F86E5A83B0EDB994F8680A38F0D4FC5E
:109FD00094F8692AC4F8700A003A18BF012284F87C
:109FE000742A48B194F86A1A2B22002914BF11214F
:109FF0000121C28038F030FD002003B0BDE8F04000
:10A0000038F004BE94F8687A002238462B2133F0E9
:10A01000BDFC0646384638F0AFFCE8B1E6B12B226D
:10A02000C4F88C0AC280727A022138F0F3FC00274F
:10A030000B4AB2FBF5F3C3F34F0000909BB23146DD
:10A04000019704F67820A4F8905A29F083F8D4F800
:10A05000783A1F6084F8897A03B0F0BDD05B0020A5
:10A0600040420F002DE9F84F254C94F89C3A84F8B3
:10A07000923A04F69327002604F52B645FFA86FBD8
:10A080000BF101085FFA88F8012117F8010F424629
:10A090000E448A4633F07AFC4FF00009054648B377
:10A0A000387804F80E9C04F80D9C04F80FBC04F8F2
:10A0B00010AC44F8045C38F05FFC022118B180F861
:10A0C00006A080F807806A7A38F0A4FC0D4A0021C7
:10A0D000284649F06FFA0C4B23600C4B221D214699
:10A0E0002846C4E9013949F049F9697928684A469E
:10A0F00028F0E4FF082E04F11C04BFD1BDE8F88F5E
:10A10000D05B002040420F00FD300308F5FB020841
:10A1100070B52D4C2D4B94F8C80BC4F8C03B0022F1
:10A120000221C4F8802BC4F8842BC4F8882BC4F80F
:10A13000BC2BA4F8C42B33F029FC002837D00668C8
:10A14000054604F6CC3304F62C415A7C12B15A6809
:10A1500096422DD018338B42F7D1002394F8C80BC8
:10A16000C4F8AC5A84F8A03A38F006FC08B10223CF
:10A17000C3806A7A022138F04DFC2846144A002137
:10A1800049F018FA134A1449C4F8B01A0026111FEE
:10A190002846124BC4F8B43AC4F8B86A49F0EEF84D
:10A1A000697928683246BDE8704028F087BF70BDE5
:10A1B000304648F01BFFB36A094A0133B0FBF3F0A5
:10A1C00082F8EC03C9E700BFD05B002000FFFF006E
:10A1D00040420F00846600201DFC0208B9FD020801
:10A1E000000000202DE9F04FDFF858932DED068B8D
:10A1F00099F8BE4C032C95B0824600F2AB80BE4E5F
:10A20000BE4F0FCE09F68C450FC50FCE0FC5336874
:10A210002B6000220123022C99F8C40C87F84C37DC
:10A2200089F8EC2C40F00982DFEDB58AF0EE689AEF
:10A23000B44AB549B54BC9F8A41C0028B449C9F8BB
:10A240009C1C16BF134600220122039239EEA87A05
:10A25000F5EE006A86EE87AAC9F8A03CAD4BCDF8B2
:10A2600008A003F1FD0B1C460025DFEDAB7A9FED46
:10A27000AB9A68EEA78A029BAB4240F3B9841BF805
:10A2800001AB6F1C5FFA87F842465046032133F05A
:10A290007DFB0646002800F0BD84504638F06CFB7C
:10A2A000606118B1032380F807808371727A0221FC
:10A2B00038F0B0FB039B002B00F0CC81B9F8BC3C1C
:10A2C000306807EE903AF8EEE77AFCEEE77A17EEA0
:10A2D000908A48F08BFEB0FBF8F202F57F42FF3225
:10A2E000120CB0FBF2F2B2FBF8F307EE902AF8EE94
:10A2F000676A002026EEA87ACDE9000069EE477A69
:10A300009BB2E6EEA97A3146204684ED027AC4ED8E
:10A31000037A28F01FFF002D00F0978161687D4BC4
:10A3200002E0A34200F091815A688A4203F11803C7
:10A33000F7D1012383F001030122042F23746274F7
:10A340003D4604F1180496D1DDF808A0744EC9F812
:10A35000F46CA2E0631FDAB2032A00F2968099F847
:10A36000C72C664901239A4281F84C3789F8EC3CA6
:10A3700000F0EF80022A00F0E9806A4E99F8C67C6E
:10A380000FCE09F65C4509950FC50FCE0FC5326893
:10A390002A603A1E18BF0122634B89F8EE2C072C65
:10A3A000C9F86C3C00F26E81042C0ED999F8C53CBA
:10A3B0005E4AC9F8F82C012B05D0022B06BFB7FA6C
:10A3C00087F35B09002389F8FC3C524B0393FD3370
:10A3D0000493DFF874B1CDF814A000230293059B19
:10A3E000029A934240F35184049B9DF808A013F80D
:10A3F000016B04930AF10105EDB22A4630460321B0
:10A4000033F0C4FA0446002835D0304638F0B4FAA8
:10A41000039B586110B10323C571837199F8BE3C49
:10A4200006932046277A38F055FD99F8FC3C0646FD
:10A43000002800F02E810793002B40F02D81D0F8EA
:10A440000480B8F1000F16D0404638F0ADFD384A10
:10A450000890431E242101FB032393F8802152B965
:10A460000322B16883F8815183F88021089B0A9107
:10A47000002B40F03881234B2E4AC9F8703CDDF8A0
:10A4800014A0C9F8742C0023D4E01C490022032B2B
:10A4900081F84C272BD989F8EC2CD9F8F43CD3B1AE
:10A4A0000022012183F824A083F8251083F82620B8
:10A4B0009A62BAF1000F09D02C331F4A03EB0A004D
:10A4C00012F8011B03F8011B8342F9D115B0BDEC52
:10A4D000068BBDE8F08F194D194C0FCD0FC40FCD71
:10A4E0000FC42B6844F82039C9F8F44CEEE7012377
:10A4F00089F8EC3CD1E700BFE09F0508C86C00205C
:10A5000028293038F1C803081100030801FE0208A9
:10A51000F5C803089C6700206F12833A00007A4454
:10A520005C680020989F0508DD3705085DC90308B1
:10A5300000000020EDC8030890680020749F050803
:10A5400060730020D05B0020906E0020082C00F08B
:10A5500040826B4D81F8C8460FCD6A4E99F8C67C93
:10A56000C9F8F0AC0FC60FCD0FC6002134467F1AD4
:10A570002B6844F8803918BF012789F8EE7C6248BF
:10A58000624F89F8EF1C4FF44C720D467D364EF049
:10A5900019FFA346CDF808A0D9F8F03CAB4205F16D
:10A5A000010544DD16F8018B404633F077FA044686
:10A5B000404638F0E1F994F8088099F8EE3C08F04C
:10A5C00001040134824689F8ED4C0BB188F0010892
:10A5D00038F084FA03465046002B00F00C8338F024
:10A5E00005FC6101034641F001017B605046796141
:10A5F000C7F80CA087F81080EBB2BAF1000F05D0B5
:10A600004FF003028AF806208AF8073038F024FA5F
:10A6100018F0010F50461AD038F06AFAFB68CBF8F0
:10A620001430042D07F120070BF1180BB4D1DDF81D
:10A6300008A0344BC9F8F43C2FE7032C40F0B98153
:10A64000DFED338ADFED339AF2E5002372E638F06E
:10A6500055FAE3E7B0EE4A0A4CF0AAFA3068B0EED9
:10A66000408A48F0C3FCFCEEC87A4FF6FF7317EE41
:10A67000902AB0FBF2F202F57F42FF32120CB0FBDF
:10A68000F2F232E6082C7FF4A0AE234BC9F8F83C76
:10A690009BE6002B3FF4EFAED4F81480B8F1000F26
:10A6A0003FF4E9AE404638F07FFCA2691B4B0A92AA
:10A6B000451E242202FB0535089095F88061382E4E
:10A6C00000F09C81206848F0E3FFC0B2002E7FF4C8
:10A6D000D2AE382385F88031089B85F88101002BA4
:10A6E0003FF4C9AE079699F8FD6C25680C48CBF885
:10A6F0002881002E00F095810022034616E000BF5D
:10A70000BC9F0508FC67002060680120947300204E
:10A71000ACC5A737ACC5A7362DC90308000000207B
:10A72000D06800200132B24200F07B8119688D426E
:10A7300003F1B803F6D1D6B2B82306FB03038BF8B6
:10A74000B5A0CBF82C3199F8FD3C207903F1FF3A04
:10A7500038F012F999F8EE2C07F00103591C0AB1F0
:10A7600087F00107490141F00E01CBF8B810CBF892
:10A770000840627A38F04EF9564500F0EE81069BAB
:10A78000063B0B930023CBE93F33CBE94133CBE9C5
:10A790004333CBF814310BF1F80308EE103A17F0FD
:10A7A00002034FF060020C934FEA4703CBF8F82006
:10A7B00003F002034FF0010200F04581CBF80C31A9
:10A7C000CBF8002100274FF48033CBE947370A222A
:10A7D0000223CBF80471CBF81821CBF8243163792C
:10A7E0000C2B00F23981C84A99F8FC1C02EB830259
:10A7F000D2F80878CBF8E870002900F01582DBF871
:10A800002C31C3F8A880CBF82881079B002B00F0DF
:10A8100066810BF1BC000D9007F072FD99F8FC3CCD
:10A820000D98002B00F04881B84A21684FF49073CE
:10A8300003FB0623DBF82C2101F57871C2F8B03058
:10A84000CBF8C0300A9BCBF8E030CBF8BC10069BAD
:10A85000082B0CBF06231223CBF8DC300023CBE9F6
:10A8600032334FF400731022CBF8D4304FF400533E
:10A87000CBF8C420CBF8E4308022079BCBF8D02063
:10A880004FF40062CBF8D820002B00F001819DF836
:10A890002C30CBF82881022B00F2CC809A4A02EBB4
:10A8A0008303069AD3F8FC37082A994AB2FBF3F3DC
:10A8B00003F12303CBF8F0300CBF5F221322DBF847
:10A8C0002C3158469A8048F0F5FE99F8FC3C002B54
:10A8D00000F09F80079B002B00F09B8018EE102A51
:10A8E0003946284607F0DCFA012F00F0C980042F12
:10A8F00000F02B81102F00F09D81402F00F0AF81E0
:10A90000B7F5807F00F0B981B7F5806F00F0BF81A7
:10A91000B7F5805F00F0C381B7F5804F00F0C781C5
:10A92000B7F5803F00F0CB812B6D43F400632B65BE
:10A9300005F1180009237749774AC95C12F803C06A
:10A940000B58042202FA0CF223EA02030B502B6884
:10A9500043F001032B600C9B002B70D02B6A43EA61
:10A9600087072F6256450BD16B6C43F400436B6431
:10A970002B6843F080032B602B6843F001032B60AE
:10A9800099F8EE3C002B40F0D980029A03990123FC
:10A9900001328BF80F304B74042A01F11803029234
:10A9A0000BF59A7B03937FF41AADDDF814A0099B95
:10A9B00040E6002C40F08B81DFED588A5849594A17
:10A9C0000393C9F8A41C584BC9F89C2CF0EE689A64
:10A9D0003CE4564D99F8C66C0FCD09F65C440994D9
:10A9E0000FC40FCD0FC4003E2A68514B226018BF20
:10A9F000012689F8EE6CC9F86C3C46E6206848F000
:10AA000047FE95F8813183427FF435AD01230793EA
:10AA100069E608989BF8B5304649902249F02AFC2F
:10AA20005CE7B82202FB0692731CC2F8005D89F84D
:10AA3000FD3C81E68D23CBF8F03013223FE72B6AF3
:10AA40001F432F628EE7CBF808314FF48073CBF8A9
:10AA5000FC20CBF81031B5E699F8FC3CCBF8E87057
:10AA6000002B7FF4CCAE1F461946DBF82C21ABF847
:10AA70000C10B2F8B43023EA0103A2F8B430C4E6F3
:10AA8000AB6943F00803AB6105F11800002352E7FE
:10AA90005FFA88F30246A3F1080128F0FF001423AF
:10AAA000B1FBF3F1013107F039FCD8F8003043F085
:10AAB0000203C8F80030EAE61F4A0A9B0299CBF865
:10AAC000E030582303FB0123CBF83031CBF8C03002
:10AAD0002368627934331344CBF8BC30B7E6D8F836
:10AAE00000305FFA88F123F001031422C8F8003027
:10AAF00028F0FF000839B1FBF2F1013107F04CFCFE
:10AB0000089849F0D3FB84E61C970508005E0120F5
:10AB100000D0121350A0050844A005086F12833A14
:10AB200011000308F5C80308F1C80308989F050839
:10AB3000DD370508BD1D050800670120236862791F
:10AB400034334FF6FF7199501FE7AB6943F00803A8
:10AB5000AB6105F118000123EDE600234FF0FF3251
:10AB6000ADF83C30109312938DF84C3011925B4A43
:10AB700052F8332095427AD001330C2BF7D10020C4
:10AB8000FCF760FB2B6823F001032B60069B284633
:10AB90009A1F0B9248F02AFA9DF82C3007EE900A83
:10ABA000022BF8EE677A4DD84D4ADFED4E6A02EB84
:10ABB000830303F2FC7292ED007AB8EE477A87EED7
:10ABC000870A30EE260A4CF0BBF8069B0138082BAA
:10ABD000ADF83C0014BF13225F2200230FA92846C2
:10ABE000119212938DF84C30109307F027FBC9E5B2
:10ABF0009A46FFF7ABBB3C4A3C483D49C9F8442C58
:10AC00000122DDF808A0C9F83C0CC9F8401C89F8FD
:10AC1000EF2C0FE5374A364BDDF808A0C9F8A42C15
:10AC2000C9F8A03CFFF793BB2D4A02EB4303B3F8EE
:10AC30003C181AE7AB6943F40063AB6105F11800F7
:10AC4000022378E69FED2C7A9FED260AA7EE870A6D
:10AC50004CF076F80138ADF83C001322BDE7AB6943
:10AC600043F00803AB6105F11800032363E61C4AB7
:10AC700002EBC30393F8A00782E7EB6943F00803F4
:10AC8000EB6105F11800042355E69A468FE6EB695F
:10AC900043F00803EB6105F1180005234BE6EB696F
:10ACA00043F40063EB6105F11800062343E6EB690A
:10ACB00043F00803EB6105F1180007233BE62B6D19
:10ACC00043F008032B6505F11800082333E6DFED98
:10ACD0000B8AF0EE689AFFF7ABBA00BFB89E050882
:10ACE0001C9705080AD7233CEDC80308F5C80308DC
:10ACF000F1C8030809FF0208FCF4B2346F120339EB
:10AD0000F8B5534E96F8000A96F8015A37F034FE1B
:10AD100060B12D23C3802021044637F09DFE0A2018
:10AD200034F0FCFF204638F057F820B9494FD7F8E7
:10AD30005037DA0000D5F8BD013D092DFBD896F853
:10AD4000FF49CCB940202DF0FFFE0028F3D090F948
:10AD5000043096F8D119092BC8BF143B3B440A298B
:10AD600093F8544766D093F8603796F8FE29002A86
:10AD700008BF1C46002CDED0204637F0FDFD0546FE
:10AD800008B12D23C3800121284637F065FE01213B
:10AD9000084637F079FF0121284637F02FFF3C2085
:10ADA00034F0C8FF0021012037F06EFF96F8013A19
:10ADB0001BB300240021084637F066FF0021022063
:10ADC00037F062FF0021284637F018FF782034F072
:10ADD000A5FF0121002037F057FF0121022037F0A5
:10ADE00053FF0121284637F009FF782034F096FF01
:10ADF00096F8013A01349C42DCDB96F8FF398BB9B6
:10AE0000D6F8003A03F0FF13B3F5803F93D1D7F89B
:10AE1000503713F080538ED186F8013ABDE8F840E0
:10AE200045F022B9322034F085FF2846002137F062
:10AE300013FEE5E7D7F878375B057FF57CAF0FF0B9
:10AE400069F900287FF477AF002C95D173E700BF34
:10AE5000D05B0020C86C002070B4344890F87C3778
:10AE6000A3F13001092957D800F27C74224600F280
:10AE70008B7012F8015FA5F13001092904D88242D4
:10AE8000F7D1002070BC7047141B022C4ADD284803
:10AE9000002101E010F8013B01EB810103EB4103CC
:10AEA000161A303B022E044603F0FF01F2DC214B60
:10AEB00003FB01F1A2424FF000030DD903EB830322
:10AEC00014F8016B5B00303B3344A24203F0FF03F4
:10AED000F4D1194800FB03F32E2D06D01748A0FB30
:10AEE000032301EB930070BC70470132042000245F
:10AEF000157804EB8404303D6400092D00F1FF3027
:10AF0000A4B202D82C44A4B2013210F0FF00EFD159
:10AF1000642202FB0433E1E700211D4600F27C724B
:10AF20000B46D9E7064C0021C4E700BFC86C0020DF
:10AF3000457400208096980040420F00ABAAAAAA50
:10AF40004474002038B504460D460A460068FF21C7
:10AF50004EF038FA21682944216038BD38B5041E06
:10AF60000D4611DB092C24DC08461A4B1A49A3FBB9
:10AF70000423DB0803EB8303A4EB43030022CB5C35
:10AF800003704270284638BD64422D23092C01F815
:10AF9000013B16D80F4B1048A3FB0423DB0803EB3F
:10AFA0008303A4EB43030022C35C0B704A70284662
:10AFB00038BD0848A0FB04300A22C00844F084F8D9
:10AFC000D3E70448A0FB0430C0080A2244F07CF810
:10AFD0000146DFE7CDCCCCCC2812060883B50C4661
:10AFE000164605462DF07AFD20462DF077FD00210E
:10AFF000204B0846002E08BF1E4637F045FE0021B4
:10B00000012037F041FE284634F008FFB0B101219D
:10B01000002037F039FE284634F0F8FE0746204677
:10B0200034F0F8FE0028FAD03946204634F01CFFF0
:10B030003846B0470021084637F026FE204634F057
:10B04000EDFE0028DFD00121002037F01DFE204654
:10B0500034F0DCFE01462846019134F0DBFE019914
:10B060000028F8D0284634F0FFFE0021084637F0CB
:10B070000BFEC8E75D6E0308F0B50023C1E900339D
:10B08000C1E902330B61D0E900258DB007AEDFF8CE
:10B0900098E0C2F3056C37464CFA03F0C0073C4613
:10B0A00004D513F80E0004F8010B27460133062BD4
:10B0B000F2D11B4CDFF874E0C2F303200023205CC4
:10B0C0003B708DF82400C2F3073C0DF125074CFAC4
:10B0D00003F0C0073C4604D513F80E0004F8010B3A
:10B0E00027460133082BF2D100233B70C5F3435CA4
:10B0F000C5F3434409AB0846C5F34F05C2F30351FA
:10B10000CDE902150193CDE9044C02F00F03054986
:10B110000096C2F3031244F077FB0DB0F0BD00BF00
:10B1200074120608501206087C12060868120608F7
:10B1300070B5094CD4F88C27054662B10026D4F8C6
:10B140008C072D21013638F0ADFEAE42F7DBBDE8AD
:10B15000704039F0C9BD70BDC86C0020074B4FF47A
:10B160007A7003F114014FF4FA6223F8040C23F807
:10B17000022C04338B42F8D1704700BF5C7400206E
:10B180002DE9F04FCCB2002185B00746084616469F
:10B1900037F07AFD0021012037F076FD37F0E2FA32
:10B1A000022E09D0042E44F6C01818BF4FF496485A
:10B1B000032C06D900200BE0FF2C4FF41648F7D1E2
:10B1C0000326C54D95F8A4372BB90020C5F8A8076C
:10B1D00005B0BDE8F08F032E15D0C0490C44002205
:10B1E00094F8C90C032132F0D1FB0028EDD0BC4CFF
:10B1F000C4F8A40D037A9A07E7D4006848F034FA3B
:10B2000041F2B053E05041F2C753B54C95F8A40752
:10B21000E6540022032132F0B9FB41F2A813E050BA
:10B220000028D2D0006848F01FFA41F2AC534FF426
:10B230008062E050AB4BC4F8603DC4F86C2D032332
:10B24000C4F8702D41F2B852A4F8643D0023A35411
:10B2500041F2B4524FF0010A24F802A004F5AE52B4
:10B2600004F6A851136041F2C452C4F8741DA352ED
:10B2700041F2C65201F20441032EA354C4F8688D72
:10B28000C4F88C3DC4F8803DC4F87C3DC4F8781DFA
:10B29000C4F8883DC4F8843D04F556690ED0D4F84E
:10B2A000A4BD9BF8040037F067FBC4F8A00D584616
:10B2B00017F09DF95146484617F0A8F9322034F0AE
:10B2C00039FD012E0AD141F2A8134146E058FBF79F
:10B2D000E3FBD4F8A40DFDF7BBFB0BE0022E3DD140
:10B2E000D4F8A40D17F077F941F2A8134146E058BD
:10B2F000FBF7D2FBC5F8A8974FF0060A022E12D032
:10B30000D5F8A80734F08AFD68B10121002037F094
:10B31000BBFCD5F8A80734F081FD0146002840F0B9
:10B32000888037F0B1FC384634F078FD80B10121D7
:10B33000084637F0A9FC4FF0050B4FF000083846DF
:10B3400034F06CFD014600287CD1012037F09CFCD4
:10B35000042ED5D0052034F0EDFCCFE7032E60D1CC
:10B3600041F2C8534FF0000A04F803A051465E486A
:10B37000DFF868B120224EF025F88DF80FA0DFF835
:10B3800070A19DF80F30032B0AD95848012117F0FE
:10B390003DF941F2A8134146E058FBF77DFBA9E7D0
:10B3A0009DF80F3003EB43030BEBC30393F8DD3B36
:10B3B00083B39DF80F3003EB43030BEBC303D3F8C8
:10B3C000E03B3BB39DF80F305B4493F8C90C08B3E6
:10B3D0000022032132F0DAFA0190D8B117F0FBF81D
:10B3E0009DF80F309AF80010019A03EB43030BEB22
:10B3F000C30305EBC100D3F8E03BC0F8AC37137AC8
:10B40000DB0748BF012301F1010148BF80F8B037D5
:10B410008AF800109DF80F300133DBB28DF80F3041
:10B42000AFE7042E7FF466AFD4F8A40D17F0D3F87D
:10B4300049E7D5F8A80734F0E9FC0146384634F06E
:10B4400013FD66E7384634F0E1FC95F8DA3701463B
:10B450008BB9242803D14FF0010385F8DA37012E88
:10B4600004D13846019134F0FFFC0199D5F8A807C2
:10B4700034F0FAFC63E7012B06D14D280CBF022300
:10B48000002385F8DA37EAE7022B06D13C280CBF07
:10B490000323002385F8DA37E1E7032B10D10A28CC
:10B4A00002D985F8DA87DAE7042385F8CD0785F82D
:10B4B000CC8785F8CF8785F8CE0785F8DA37CEE7D1
:10B4C000042B17D195F8CE3785F8DB07434085F874
:10B4D000CE3785F8DAB7C2E7C86C0020D05B002011
:10B4E000F017002004A005087474002050250020E7
:10B4F000B82D0020052BB2D195F8CC3795F8CD9713
:10B5000095F8CE074B4509D25A1C2B44484085F884
:10B51000CE0785F8CC2783F8D017A0E78842C0D1A2
:10B5200095F8DB3785F8DAA7F42B98D1B9F1000F3D
:10B5300095D12421384685F8DA9734F095FC4D21D1
:10B54000384634F091FC3E21384634F08DFC4946B3
:10B55000384634F089FCF421384634F085FCF42177
:10B56000384634F081FC032E12D0D4F8A45D28466E
:10B5700047F0C6FE4946284647F0DAFE28792021E2
:10B5800017F018F8D4F8A40D4A46494647F0F6FEDD
:10B5900041F2A8130022E058114647F0EFFE0120C7
:10B5A00016E600BF30B583B04D1C0093036885726A
:10B5B000C2729C690023A04703B030BD03685B6C76
:10B5C0000BB102211847704770B5214DD5F8F43CF6
:10B5D00093F82620D2B11B699847E0B1D5F8F43C26
:10B5E00093F8242082B11B4E00241A19E0B29B6903
:10B5F00092F82C10B6EC010A9847D5F8F43C93F871
:10B60000242001349442F0DB5B699847124C94F893
:10B610006C22332A00D070BD95F8EE2C002AFAD0A7
:10B62000D5F8F42C92F82420042A1646A8BF042644
:10B63000002AF0D0002504F51C742B46184648F06B
:10B6400003FA0135EBB29E4244F8040BF6D870BD04
:10B65000D05B0020A4740020D84A002070B51D4C97
:10B660000968D4F8F0571C4ED4F8EC47D6EDFC7AB4
:10B67000DFED1A6A491B00EE901A0168F8EEE00A45
:10B68000091B60EEA70A00EE101A20EEA07AB8EEB1
:10B69000C00A1C46A0EE007AB1EE400AF1EEC77A6D
:10B6A00067EEA67AFCEEE77AC2ED007A44F080F904
:10B6B0009FED0B7ADFED0B7AE0EE077AFDEEE77A8D
:10B6C00017EE902A002ABCBF02F50C42A03222607D
:10B6D00070BD00BFC86C0020000000202C7D8E3F94
:10B6E000A00CB34500A00C4638B50F4C94F80B18CD
:10B6F00001F03F018B1C024601F10A0584F809386C
:10B7000084F8065804F6040084F80728083121F06C
:10B71000B7F8254485F8020894F806381C44000A56
:10B7200084F8030838BD00BFC86C00202DE9F04F35
:10B730008DB0CF4CDFF84C93CE4D00904FF0000809
:10B7400054F80B0C002800F0FE8034F067FB06462E
:10B75000002800F0DB81D9F8C43C44F8073CE0261F
:10B760000023C54F04F8033CA4F10B0A06FB08F6BE
:10B7700054F80B0C34F052FB002800F0E48054F82D
:10B780000B0C34F043FB14F8023C5A1E83460B2A80
:10B790000DD8DFE812F01F003A0046005300830086
:10B7A0009B00E30017013701420179019101242830
:10B7B0000CD0009A3AB995F89A28824240F08281DA
:10B7C000012204F8032C0D2BD2D186E0012304F8CA
:10B7D000023CCDE700234D28C4F8C53084F8CD30B5
:10B7E00084F8CE3004D0582808D004F8023CBFE7D3
:10B7F000022204F8022C84F8C430B9E7032304F8C9
:10B80000023C022384F8C430B2E704233C2804F845
:10B81000023C0BD0BBF13E0F0CD0002304F8023CDD
:10B82000A6E70A233C2804F8023CF3D1002304F8DD
:10B83000013C9DE7012304F8013C99E7D4F8C500D9
:10B84000BB190344421CC4F8C52083F8F7B594F82B
:10B85000CD00022A8BEA000184F8CD1088D123782C
:10B86000C02BDAD86278FF2A08D1052BD5D901235D
:10B8700084F8C430072304F8023C79E7A4F8C12017
:10B8800000229342C4F8C93014BF0523062384F86C
:10B89000C320C4F8C52004F8023C69E7D4F8C50009
:10B8A000BB190344421CC4F8C52083F8F7B594F8CB
:10B8B000CD00D4F8C9308BEA00019A4284F8CD104B
:10B8C0007FF456AF062304F8023C51E794F8CD30DC
:10B8D0008342A2D10D2304F8023C14F8017C002F0E
