:020000040800F2
:1000000000000120755B0508115C0508E525040862
:1000100049260408115C0508115C05080000000071
:10002000000000000000000000000000115C050856
:10003000115C050800000000115C050881F503084B
:10004000115C0508115C0508115C0508115C0508C8
:10005000115C0508115C0508A9270408A1270408FC
:10006000992704089127040889270408852A000095
:10007000752A0000652A0000552A0000412A000068
:100080002D2A0000192A0000115C0508115C0508E2
:10009000115C0508115C0508115C0508812704083E
:1000A000492B0508412C0508392B0508692C050842
:1000B000312C0508212C0508112C0508114D0508C7
:1000C0001D4D0508F94C0508054D0508115C05088E
:1000D000115C0508F51A0000E51A0000D51A0000A9
:1000E00079270408115C0508115C0508292B05080F
:1000F000592B0508115C0508812B0508052A00000D
:10010000115C0508F51F0508012C0508115C0508A0
:10011000C51A0000B51A0000912B050875D5000816
:10012000F1290000DD290000C9290000B5290000DF
:10013000A1290000000000000000000000000000F5
:100140000000000000000000000000000DDA0008C0
:100150008D2900007929000065290000A51A0000FA
:10016000E14C0508ED4C0508115C0508115C05081B
:10017000115C0508115C050800000000000000008B
:10018000115C0508115C0508115C0508115C050887
:10019000115C0508115C050800000000115C0508F1
:1001A000000000000000000000000000115C0508D5
:1001B000115C0508115C050800000000000000004B
:1001C000000000000000000000000000000000002F
:1001D000000000000000000000000000115C0508A5
:0801E000CC56050001000000EF
:1001E8000E02010002000000EC4E0120C84F012061
:1001F8000000000068C90608C44F0120140201006D
:1002080005000000FC280120D04F0120000000005C
:100218006AC90608CC4F0120031101000A0000003A
:10022800A04E0120DC4F0120000000002D0901082C
:10023800D84F01202320010010000000884E012023
:10024800EC4F012000000000396A0208E84F012045
:100258000D10010070000000F04E01200050012038
:100268000000000039640308FC4F01202C00050041
:10027800140000002C4E01207450012000000000E2
:100288000170020870500120FD01010024000000E7
:10029800F04D01208C500120000000004FC50308DC
:1002A800885001200610010030000000844D012014
:1002B800B45001200000000055AF0408B0500120E0
:1002C800FB01010001000000804D0120E8500120E1
:1002D80000000000F1AE0408E4500120FC01010018
:1002E800090000004C4C0120F050012000000000E3
:1002F800F9AE0408EC500120F701010006000000E7
:10030800204C0120005101200000000070C906089F
:10031800FC500120F901010004000000104C0120EC
:100328000C51012000000000CDC503080851012030
:100338001102010008000000E44B012014510120C3
:100348000000000076C906081051012012120100B1
:1003580004000000DC4B01202051012000000000B7
:100368007EC906081C510120183001003000000029
:10037800AC4B012028510120000000000DC20408E8
:1003880024510120E803010004000000844B0120EF
:100398005C51012000000000C5AF0408585101203D
:1003A8002042010090000000F44A0120645101201D
:1003B8000000000045E6020860510120EA03010040
:1003C8000E000000E44A0120F8510120000000005E
:1003D80082C90608F4510120000201000B00000048
:1003E800704701200C52012000000000E9AF04080A
:1003F80008520120FF2101000500000014470120D8
:100408001C52012000000000E1AE0408185201202F
:10041800081204001400000020470120285201207F
:1004280000000000F1AF040824520120130201006B
:1004380004000000F42801204052012000000000C0
:1004480090C906083C520120FA010100030000008F
:10045800744601204852012000000000D1AF040872
:10046800445201200C02010004000000D045012084
:100478005052012000000000B5AF04084C52012082
:10048800FE010100140000003C32012058520120F6
:10049800000000004DB0040854520120050201007C
:1004A8000A000000F88B0120A88C01200000000041
:1004B80094C90608A48C01201B2001001400000028
:1004C8001C8E0120D89C012000000000216E01082C
:1004D800D49C01202102010068010000588E0120EF
:1004E800F09C01200000000049890108EC9C0120D3
:1004F8003710010030000000F09901205C9E0120B7
:1005080000000000A0C90608589E01202F10010015
:1005180022000000B09C0120909E012000000000F5
:10052800D0C906088C9E012023220100100000007B
:1005380018920120B89E012000000000F4C90608A6
:10054800B49E01201E000100090000000092012055
:10055800CC9E01200000000004CA0608C89E0120A5
:10056800052001000800000088920120DC9E01207F
:100578000000000010CA0608D89E012012300100B1
:1005880011000000E8910120E89E01200000000011
:1005980018CA0608E49E0120FD0701007A00000041
:1005A800C48C0120009F012000000000E9650108BB
:1005B800FC9E0120F59101006C000000888D01204F
:1005C800809F0120000000006D8801087C9F0120A9
:1005D8002610010008000000F89F0120F09F01206C
:1005E80000000000F5630108EC9F01200B300100BA
:1005F8001E000000F88D01203CA001200000000032
:100608002ACA060838A001201F5001002400000053
:10061800AC90012060A001200000000048CA060834
:100628005CA00120012001000C000000E8A60120C8
:10063800ECB50120000000006CCA0608E8B50120EE
:100648000C4006000801000078A50120FCB5012037
:1006580000000000BDEA0208F8B501200E000600FF
:100668004803000084AB012008B701200000000007
:1006780035AF040804B701200A9001002E000000DD
:100688002CA5012054BA012000000000F5690208D9
:1006980050BA01201310010004000000B8B2012074
:1006A80088BA01200000000078CA060884BA012030
:1006B800000101000400000074A4012090BA012088
:1006C800000000007CCA06088CBA01200201010063
:1006D8000300000070A4012098BA01200000000067
:1006E800F1EE020894BA0120220201001C01000068
:1006F800E0AF0120A0BA012000000000C5C1040835
:100708009CBA0120010201000B00000080A4012016
:10071800C0BB012000000000D9AF0408BCBB012009
:10072800020201000300000090AA0120D0BB0120B2
:100738000000000000000000CCBB01201B020100EB
:10074800100000006CAA0120D8BB012000000000A6
:1007580011AF0408D4BB0120E90301001A0000000E
:1007680020C6012040C601200000000080CA0608FB
:100778003CC60120190001000800000018C601202D
:1007880060C60120000000009ACA06085CC6012065
:100798002920140078000000E8C401206CC601205C
:1007A800000000000000000068C601202B001200B5
:1007B800240000002CC40120E8C60120000000002D
:1007C800D56F0208E4C601201C0202001C000000CC
:1007D800A0C1012010C7012000000000A9BF040823
:1007E8000CC701202830010016000000BCC1012000
:1007F80030C7012000000000218202082CC7012018
:100808000A020100140000004CD20120B8D20120D5
:1008180000000000BDEE0208B4D201201010010053
:1008280002000000DCCC0120D0D201200000000032
:10083800A2CA0608CCD20120380001000700000037
:1008480090CA0120D8D2012000000000A4CA0608DE
:10085800D4D20120EC031D00AE00000048C70120DF
:10086800E4D201200000000055E70208E0D2012090
:10087800EB03200000010000D4CA012098D3012016
:10088800000000000000000094D3012034000100A3
:10089800080000002CD201209CD401200000000098
:1008A80031E6020898D401202A00080080000000E0
:1008B80050CC0120A8D401200000000005E6020861
:1008C800A4D40120020001000C0000007CD5012006
:1008D80058DB0120000000000000000054DB01206C
:1008E800F62101000C0000005CD8012068DB012023
:1008F80000000000ACCA060864DB0120F8310100E2
:1009080002000000F4D7012078DB0120000000007D
:10091800B8CA060874DB0120253020000002000058
:1009280088D5012080DB01200000000000000000C5
:100938007CDB0120290201004000000038D501209D
:1009480084DD012000000000BACA060880DD01200D
:100958002C020100040000000CD90120C8DD012090
:1009680000000000FACA0608C4DD012028020400BD
:100978000400000050E50120E4E801200000000028
:1009880031AF0408E0E80120270204000400000059
:100998004CE50120ECE801200000000025AF040828
:1009A800E8E80120160215003F00000030DE0120B3
:1009B800F4E801200000000095AE0408F0E80120EA
:1009C8001A02010049000000E4DD012038E9012095
:1009D8000000000059C2040834E901200312010094
:1009E8003D00000048DF012088E9012000000000E8
:1009F800FECA060884E901201D0202000600000064
:100A0800D4F00120B4F10120000000000000000033
:100A1800B0F101200612040018000000DCF00120EB
:100A2800C0F10120000000007DC00408BCF10120D5
:100A38001F02080010000000ECF10120DCF1012089
:100A48000000000099AE0408D8F101203900010027
:100A580005000000F4F0012000F201200000000071
:100A680081AE0408FCF1012016100100040000000A
:100A7800E4EB01200CF20120000000003CCB06084A
:040A880008F201204F
:08280000082800080040000850
:04400000FFFFFFFFC0
:10800000026C03463AB11A6CD20608D50022012050
:1080100083F83C207047426480F83C20F3E71A6CF8
:1080200049494A4811401A6841F00201F0B4196404
:108030004168474D21F44031416041685C6821430B
:1080400041605168186921F48071D3F808C0DF6875
:10805000516054689E6A44EA0024AE4254605468F9
:1080600024F040745460506840EA0C0050609068FE
:1080700020F400609060916841EA0701916054D05B
:108080009068DC6A20F07060906091680E439660A2
:10809000906820F040509060916821439160906812
:1080A0009C6920F002009060916841EA440191606F
:1080B00093F82010002941D05468596A44F40064B0
:1080C000481E5460516821F460415160516841EA92
:1080D00040315160D06A0025DC6920F470005E698F
:1080E000611ED0622846D46A44EA0154D46294687E
:1080F00024F400749460946893F8301044EA4124A6
:108100009460946824F480649460916841EA8621C4
:1081100091605D641A6C22F0030242F001021A645D
:10812000002283F83C20F0BC7047916821F0706118
:108130009160916821F040519160B0E7516821F45D
:1081400000615160C6E700BFFDEEFFFF0023014064
:108150000100000F0129F0B42A4C4FF000062A4D0F
:1081600094BF002701272368EE626662A6626763F8
:10817000676B47EA42076763EE63EC6B002A38D10E
:1081800044F49574EC631C6824F001041C601C68C2
:10819000E407FCD4490289085960D8601968EAB933
:1081A00021F04001196019498B421DD018494FF444
:1081B0007410C860196841F01E011960596941F0D6
:1081C00080015961196841F00101196022B90E4A14
:1081D000D36A43F00803D362F0BC704741F040011A
:1081E00019600A498B42E1D14FF0746041F8500C9C
:1081F000E0E744F01A04EC63EC6A44F00804EC6233
:10820000C1E700BF38170120002C0140586402402C
:108210000064024011480023024611780632032907
:1082200016D00133062BF8D10D49CA6D052A0ED0A0
:1082300002EB4203013200EB4303CA65032040F224
:10824000EB3140F2FF32187059809A8070477047C6
:1082500003EB430300EB4303F0E700BF701701207B
:1082600038170120124B30B41D6E6B6A28B943EAEF
:1082700001430020AB6230BC7047AC6A013803EBAD
:1082800014440BD0002303F14002013305EB8202BA
:10829000DBB25268834204EB1244F4D3403044EA28
:1082A000014405EB80004460002030BC704700BFF3
:1082B00038170120037870B42BB30246C0F10105D2
:1082C000531912F8014FDBB2002CF9D101335B00D6
:1082D0000E4C03220B8084F8643484F86524017802
:1082E00079B1022300265A1CE518023354FA82F2AF
:1082F00085F86414DBB282F8646410F8011F002969
:10830000F1D170BC70470223E2E700BF38170120AB
:10831000826D136A5B681B78FF2B08D090F8F030F1
:10832000013BDBB280F8F0301BB101207047002028
:108330007047126A0220526813707047F0B40F4BF6
:10834000C40800F0070700221E5D03EBD005BE4005
:10835000F6B2C7F1080300278B4228BF0B46C3F1D2
:1083600008049A40C91A46FA04F415F8016F42EA63
:108370000402EED11046F0BC704700BFDC1C0120A7
:1083800030B5EFF31181802383F312880A4AD2F8C3
:108390005836D2F85C46D2F85806D2F85C56CAB2C3
:1083A00082F31188013BA84294BF4FF40060002083
:1083B0001B1B184430BD00BF38170120012380F873
:1083C00051307047014BD3F86006704738170120D1
:1083D00001207047024BC3F86426C3F86816704743
:1083E00038170120024BC3F86C26C3F8701670478B
:1083F0003817012070477047212870B505D0222812
:1084000029D0202810D0002070BD0029FBD0072AD9
:10841000F9D1184B18791C685A799B79087100209A
:108420000C604A718B7170BD0029ECD0072AEAD12B
:108430001148104B0C680E794D79D0F8682689796F
:108440001C601E715D719971002ADCD02146D0F844
:1084500064069047D7E70029D5D0022AD3D1064A2F
:10846000D2F87036002BCED00988D2F86C06984727
:10847000C9E700BF00000120381701200020704725
:1084800003460A2201481A80704700BF08000120F5
:108490000346642201481A80704700BF140001207F
:1084A000012901D000207047014BD3F890301847C4
:1084B00000000120012901D007F06ABE014BD3F86A
:1084C0008C30184700000120014BD3F88830184742
:1084D0000000012010B40B780A46044603F00303A1
:1084E000012B05D0022B0BD000205DF8044B704708
:1084F0008B8843B9204611465DF8044B0BF0ACBEA7
:108500008B88832BF6D0034B5DF8044BD3F8803077
:10851000184700BF0000012038B5054B04460D4642
:10852000DB6F98472946204608F0C2FA002038BD84
:108530000000012038B5054B04460D469B6F984757
:108540002946204608F0ECFA002038BD0000012042
:10855000F0B4002452004E1C2746030FB0F1204F08
:108560004FEA001003F1300503F1370334BF0D5516
:108570000B5537550234A242EFD1F0BC704700BF13
:10858000024808B5FFF796FE014808BD480B0608EB
:108590009C1B0120024808B5FFF78CFE014808BD6E
:1085A000580B06089C1B01200B481A220B4B006835
:1085B0001B680A80C01801D109487047094B08227E
:1085C000094910B51C68FFF7C3FF0422074920467C
:1085D000FFF7BEFF024810BD107AF01F187AF01F97
:1085E000B0000120147AF01FB2000120C200012067
:1085F000024808B5FFF75EFE014808BD640B060897
:108600009C1B0120024808B5FFF754FE014808BD35
:10861000700B06089C1B0120042301480B80704747
:10862000CC00012000487047C41C0120004870475E
:10863000C41C0120034B93F88805032894BF002035
:108640000120704738170120034B93F88805032851
:1086500094BF00200120704738170120034B93F886
:108660008805003818BF0120704700BF3817012067
:10867000034B93F88805003818BF0120704700BFEE
:108680003817012098B182680C4B12B107229A70FA
:10869000704718780421DA6003281A611A750CBF34
:1086A00080224FF480729970C3E901227047034B16
:1086B000012241F2E4715A705A5470476C720120E1
:1086C0000378022B0FD0006908B9012070470E4BC8
:1086D0001B78032B12D080B24FF6F773984294BFE9
:1086E000002001207047084941F6500243688A582B
:1086F000B3EB422F2CBF012000207047034B984260
:1087000094BF0020012070476C720120F7FFFF0F1B
:1087100030B40378022B13D0104A41F64801436865
:1087200041F63C04555802F5C25100692B400968D6
:10873000023812595B0A01FB003030BC104470470C
:10874000064B41F6300441F6340142681859595835
:1087500000EB410030BC00EB522070476C720120EE
:10876000826D0346126A52681278FF2A0AD190F885
:10877000F020002A02F1FF3214BF0120022083F80A
:10878000F02070470020704738B540F48062074CF5
:108790000B4640F2FF55012100F03F00A563A360A6
:1087A000E26049F07BFAA56338BD00BF002C0140B0
:1087B0002DE9F843884600294FD04718461E284C1B
:1087C000802507F1FF39EFF3118185F31288D4F882
:1087D0005826C9B2D4F85C06D4F85836D4F85CC62A
:1087E00081F31188634594BF4FF400630023121A8C
:1087F0001344012B1AD1012036F0B8FEEFF311819A
:1088000085F31288D4F85826C9B2D4F85C06D4F897
:108810005836D4F85C7681F31188BB4294BF4FF48C
:1088200000630023121A1344012BE4D0EFF31182EA
:1088300085F31288D4F85C36D2B216F8011F2344AF
:1088400083F87416D4F85C360133C3F30A03C4F812
:108850005C3682F311884E45B5D14046BDE8F883B9
:1088600038170120F8B5002390F8505080F85030A8
:10887000CDB10F4941F2E8028A5C032A15D10D4EB1
:1088800000F13C04B76A29462046FFF791FFB36A1E
:108890002D1A0444DB1B322B01D8002DF3D1B5FA7D
:1088A00085F04009F8BD0120FCE71846FAE700BF53
:1088B0003817012030280120002280F85120D1E70C
:1088C00090F85020531C0244DBB280F8503082F8FC
:1088D0003C1090F851200AB1132B00D9C2E7704721
:1088E000F8B5144641F2E803094A0D46D35C032B60
:1088F0000DD1084EB76A002C09DD21462846FFF746
:1089000057FFB36A241A0544DB1B322BF3D9F8BD99
:10891000381701203028012030B500238DB01349CD
:108920000825012202938DF814300DF107040993F4
:1089300001F2BC500B9381F854560DEB05018DF8F4
:108940002820CDE907330A4BCDE9034206933AF0DC
:10895000CFF808483AF0C8FA9DF80700A0F1FF00E8
:10896000B0FA80F040090DB030BD00BF38170120CB
:1089700011830008F41C01202DE9F04103798AB02D
:108980002B4E002B14BF0122002286F8B42504D1FF
:1089900086F888350AB0BDE8F08106F2BC57044677
:1089A00090F9001038463AF0A9F9A4789CBB4FF032
:1089B0000108204B2048C6F8C4456C46C6F850361E
:1089C00086F8C8853AF0D8F903461C4D4FF47A7002
:1089D000A6F8C03536F0CAFDD6F8C40539F040FD1A
:1089E0000FCD0FC40FCD0FC495E8030084E803003A
:1089F000694638463AF07CF838463AF075FA104B3A
:108A0000002286F888859B6A86F87C25C6F878352A
:108A10000AB0BDE8F081204639F0DEFB044608B11B
:108A20001E23C3800D21204639F07CFCBFE700BF28
:108A3000381701209C1C0120801A06008891050827
:108A40003028012070B5952292B040F040050446D0
:108A50008DF80920080E0A0C8DF80810090A002369
:108A600001AE8DF804508DF8050006250DF10300C8
:108A70008DF806208DF807100122174903960493FC
:108A80008DF818308DF82C300F93119305958DF8D3
:108A900040200C91CDE90733CDE90D33CDE9090232
:108AA000FFF73AFF24B180F0010010F0FF0F10D162
:108AB0000A4C082303A904F2BC5084F854363AF057
:108AC00017F804F2BC503AF00FFA9DF8030012B008
:108AD00070BDFF2012B070BD6187000838170120FB
:108AE00030B500238DB010490546012202938DF860
:108AF00014300DF10704099301F2BC500B9381F877
:108B0000545602A98DF82820CDE90733074BCDE94B
:108B10000342069339F0ECFF05483AF0E5F99DF879
:108B200007000DB030BD00BF381701206187000875
:108B3000F41C012070B590B01C4D0024FD220126CC
:108B40000DF1030301A905F2BC508DF80320069333
:108B5000C5F884458DF81040059407948DF824409D
:108B60000F94039608968DF83860CDE90144CDE95D
:108B70000A44CDE90C4439F0BBFF05F2BC503AF091
:108B8000B3F93046FFF7ACFFFF2809D0084A20466A
:108B90000923926A85F88835C5F8782510B070BD2C
:108BA0000423022085F8883510B070BD38170120E5
:108BB0003028012070B5064690B008200D46FFF71A
:108BC0008FFFFF2823D0FE2802D0022010B070BDF6
:108BD00000240222012301A90E4808928DF83830A2
:108BE0000296039501948DF8104007948DF8244067
:108BF0000F94CDE90544CDE90A44CDE90C4439F0A0
:108C000077FF04483AF070F9204610B070BD01209B
:108C100010B070BDF41C012010B5074C04F2BC501C
:108C20003AF062F90A2036F095FCD4F8C405BDE8A4
:108C3000104039F015BC00BF381701202DE9F84F5E
:108C4000484B98420FD003F56853083398424DD0F3
:108C50000023454A1846A2F89430A2F8A030C2E991
:108C60002633BDE8F88F404C022300263F4F04F125
:108C70003005DFF80481E362D7F8D0303146B342E3
:108C800006F1010603D0D4F8B00046F067FF94F86F
:108C9000B4302846D4F8B020414685F82430303529
:108CA00045F8102C47F06EF9E36A9E42E4DB00239E
:108CB00084F8A230E36A0120E16BA28EA56B12FB5F
:108CC00003F201FB03F3B4F84060A4F89420C4F865
:108CD0009C30E28E264BC4F8C010C4F89850A4F81B
:108CE000A060A4F89620C4F89030BAE71E4C022287
:108CF0004FF0000B1D4F04F130054FF4806A4FF028
:108D000040094FF40068E262D7F8D02001265946A6
:108D10005A45B34403D0D4F8B00046F01FFF4FF0DB
:108D20000062D4F8B0104FF4003094F8B4C0296257
:108D300085F824C0A5F804A0A5F81090A5F8068031
:108D4000AE74C5E90202FFF765FA28466E7647F071
:108D500065F8E26A074B934545F8303BD4DB84F86D
:108D6000A260A7E71971EF00302801200000012060
:108D7000DC910508B09105081940EF0010B50C46CC
:108D800046F012FD50B9074B93F8C430012B4FF059
:108D900012030CBF04480548238010BD1223044869
:108DA000238010BD30280120FC000120E8000120B4
:108DB000D40001202DE9F8431C4C05468946904615
:108DC00094F888651F46042E08D0082E02D0002093
:108DD000BDE8F883FFF7AEFE0228F8D1D4F8C40549
:108DE00039F0ECFA94F87E35B3B969021120FFF737
:108DF00029FEB8B90E4A05230120C4F86495926A89
:108E0000C4F86855C4F87085C4F87475C4F878253A
:108E100084F88835BDE8F88329461120FFF712FE53
:108E20000028E7D0FFF7F8FED1E700BF3817012090
:108E30003028012010B50D4C002394F85626C4F8B4
:108E4000843512B10A4AC2F8C83049F031F920B16C
:108E50000423022084F8883510BD054A0923926A4C
:108E600084F88835C4F8782510BD00BF3817012074
:108E70003028012070B50F4D04460E4695F8883510
:108E8000042B0BD0082B07D1D5F8803583420ED0A8
:108E9000FFF7D0FF022801D0012070BD0823022077
:108EA000C5F88465C5F8804585F8883570BD022011
:108EB00070BD00BF3817012010B508F0CFFF104C6F
:108EC00058B194F88835032B13D894F87C350133C6
:108ED000DBB2072B84F87C3503D9002384F888356E
:108EE00010BD084B01229B6A84F88825C4F87835A8
:108EF00010BD054839F040FFA4F8C005E5E700BF04
:108F00003817012030280120801A060070B51F4C48
:108F100006460D4694F88835042B09D0082B25D138
:108F2000D4F8803583422FD0FFF704FE02281DD1EC
:108F3000D4F8C40539F042FA00213720FFF782FD4A
:108F400029461720FFF77EFDC0B994F87E357BB91E
:108F500071021920FFF776FD80B908230220C4F8BA
:108F60008455C4F8806584F8883570BD012070BDD3
:108F700031461920FFF766FD0028EED0FFF74CFEC2
:108F8000FFF79AFF032070BD022070BD3817012043
:108F900070B50379234C002B14BF0123002384F800
:108FA000B43503D1002384F8883570BD1E4D0021EF
:108FB000032095F9CF2039F0AFFC0028F2D04668A5
:108FC000304639F0D5FC84F855060028EAD095F8EB
:108FD000CD303046003B18BF012384F856364AF0A6
:108FE00029FF08F03BFF38B994F87C3584F88805F0
:108FF000013384F87C3570BD49F032F940B194F802
:109000007C350022013384F8882584F87C3570BDD6
:10901000AA6A012384F87C05C4F8782584F8883589
:1090200070BD00BF381701203028012010B549F06D
:1090300017F958B10C4C94F87C350133DBB2072B8F
:1090400084F87C3503D9002384F8883510BD08F0F6
:1090500005FF0028F7D0054B01229B6A84F888257C
:10906000C4F8783510BD00BF381701203028012022
:109070002DE9F84F904C94F8B455002D00F0028182
:1090800094F8882502278D4E531E082B3ED8DFE822
:1090900003F03436A73D6649153D050049F008F850
:1090A000002840F00181D4F87835B26AFA3393424F
:1090B00029D2FFF7BBFF94F88825E5E748F0F8FFD1
:1090C0000028F0D0D4F884350022012B84F87C25C8
:1090D00040F2EE80D4F88015013B94F856560131E9
:1090E000C4F88435C4F8801515B1744BC3F8C82092
:1090F0000823054684F8883511E084F8887548F01F
:10910000D7FF00284DD194F88825531EDBB2022BDF
:109110003CD9082A18BF042A0CBF0125002528467F
:10912000BDE8F88F236B002B37D1644B0722D4F8AE
:1091300070559B6A84F88825C4F87835002DEED0E8
:10914000D4F874350120D4F86425D4F86815A847FC
:10915000D9E7D4F87835B26A643393421DD2D4F893
:109160002C80B8F1000FF4D148F0A2FF0028A2D063
:109170000423D4F8705584F87C8584F88835002D54
:1091800000F090804046D4F87435DCE74B4BD4F8BF
:1091900078259B6A9B1AC82B79D800252846BDE8FC
:1091A000F88F48F019FC0028ADD196F8D130002B8B
:1091B000A3F10203B3FA83F314BF022201225B0975
:1091C00084F87D2584F87E3548F006FC00287FF47D
:1091D00070AFD6F820210323C4F88C2584F8883595
:1091E00048F0FAFB00288ED1344A4FF0040EC4F840
:1091F0008405032392F804B1B2F80611D2F80801ED
:1092000084F892B5D2F808714FEA106CD2F8086170
:10921000A4F890153F0CD2F808A1360A92F80C91E8
:1092200092F80D5192F80D01D2F8108125FA0EF541
:10923000B2F816B100F00F00B2F81611B2F816210C
:10924000C1F30B1184F893C502F00F0C84F89475E8
:1092500041EA1B21724684F8956501F00F0184F8FC
:1092600096A584F8979501F5FA6184F89C5584F8E1
:109270009D05C4F89885A4F89E1584F8A0C584F8C7
:1092800088E543E7284684F88855BDE8F88FFFF75E
:10929000CDFE94F88855082D18BF042D0CBF01256C
:1092A00000253CE705463AE7042384F8883536E78D
:1092B000FAD1FFF7BFFD26E738170120302801203B
:1092C0002DE9F8430546884617461E462A4C94F871
:1092D0008805042835D0082807D1D4F88035AB425A
:1092E00006D0FFF727FC0228F1D00120BDE8F88363
:1092F000FC22224BDFF88C90214883F83021C9F8FA
:10930000388139F025FC002809F588711C4814BF04
:109310004FF400734FF48073C9F8403139F0E8FB23
:10932000012206230020C4F86485C4F86855C4F8F7
:109330007075C4F8746584F86C2584F88835BDE8C8
:10934000F883D4F8C40539F039F894F87E3553B968
:1093500069021820FFF776FB38B994F88835082B96
:10936000C6D0FE22C5E72946F3E7FFF755FCFFF715
:10937000A3FD0320BAE700BF3817012030280120E1
:10938000F41C0120000001202DE9F04FD84C95B0CD
:1093900094F8B465002E00F0998194F8882504F2C1
:1093A000BC57DFF8508304F2A459531E082B00F277
:1093B000A080DFE813F034005E0029019E008C00DD
:1093C000AF001B009E000900FFF7A6FA002840F03E
:1093D0005782D4F87835D8F82820FA33934280F0B1
:1093E0008580FFF769FD94F88825DEE7FFF794FA9A
:1093F0000028EED0D4F884350022012B84F87C2597
:1094000040F26382D4F88025013B082106460132F0
:10941000C4F8843584F88815C4F8802552E1D4F85E
:10942000C40538F0CBFF00210846FFF70BFB0546CB
:10943000FFF7F2FB012D59D14FF0000AD4F8C40513
:1094400084F87DA538F0BAFF40F2AB110820FFF791
:10945000F9FA052800F09081012800F05181FFF70A
:10946000DBFB94F87D35002B00F02B82022384F87F
:109470008835D4F8C40538F0A1FF94F87D35002173
:109480003720022B0CBF4FF080450D46FFF7DAFA6C
:1094900029202946FFF7D6FA0546FFF7BDFB2DBB6D
:1094A00094F87D35022B00F0988184F87E55D4F82D
:1094B000C40538F083FF00210920FFF7C3FA002814
:1094C00071D0FFF7A9FB94F88825531E11E04FF4E3
:1094D0000071D4F86405FFF76DFB012800F03081BE
:1094E000022800F03581002800F0618194F8882579
:1094F000531EDBB2022B00F2DF807E4BD4F87825BE
:109500009B6A9B1AC82B00F2E7800026304615B0F4
:10951000BDE8F08FD4F8BC3577481D6A39F018FBE8
:10952000002800F02C81B5FA85F56D09002DDDD0FD
:1095300004A800250DF10F0302224FF0010A05A92E
:10954000059038460792ADF8105006958DF82050DA
:109550008DF8345013958DF848A0CDE90B3ACDE93C
:109560000955CDE90E55CDE9105539F0C1FA384607
:1095700039F0BAFC9DF80F3003F01F03052B00F003
:109580008881FFF799FCD4F870B5BBF1000F00F0AB
:10959000F0802A465046D4F87435D4F86815D84778
:1095A00094F8882501E710214846FFF703FB82461F
:1095B000002886D101217F20FEF7C0FE0128054644
:1095C0007FF47FAF50460221FEF7B8FE002800F07E
:1095D000388101287FF475AF16213A20FEF7AEFEE0
:1095E00001308002C4F88C05FFF716FBD4F8C405DF
:1095F00038F0E4FE00210A20FFF724FA002840F0AA
:109600001981032384F88835102105A8FFF7D2FAC1
:1096100000287FF46BAF9DF821309DF822201B01BC
:109620009DF815009DF8165002F00F01DBB245EAD7
:109630000025DDF81D0043EA12139DF81C2000BA36
:1096400084F8A01503F5FA639DF81710C4F898057F
:10965000A4F89E3513099DF8140002F00F0284F857
:109660009C35069BA4F89055C4F8943584F89D2544
:1096700084F8920584F89315FFF7CEFA94F87E35B6
:1096800073B9D4F8C40538F099FE4FF40071102076
:10969000FFF7D8F90546FFF7BFFA002D7FF4A1AE1A
:1096A000164839F069FB00220423A4F8C005C4F869
:1096B00084251A4684F88835082A18BF042A0CBF66
:1096C00001260026304615B0BDE8F08F304684F8FC
:1096D000886515B0BDE8F08FFFF7EEFB94F888655C
:1096E000042E18BF082E0CBF01260026EAE700BF93
:1096F0003817012030280120F41C012040787D011A
:10970000042304AA05A98DF834007848079306922B
:10971000CDF814A08DF820A0CDF838A0CDE909AA85
:10972000CDE90BAA39F0E4F9704839F0DDFB9DF87A
:109730001330AB2B7FF493AE022384F87D358EE695
:10974000D4F87835D8F8282064339342BFF4CEAEED
:10975000FFF762FAFFF7B0FBD4F870554DB1002265
:10976000D4F87435D4F868151046A84794F88825BD
:109770001BE694F8882518E684F87D556FE694F882
:109780006C550246D4F864154FF48073384601EBEB
:10979000052139F08FFB94F86C250132D2B2A2F189
:1097A000020584F86C25B5FA85F56D09BEE60190D1
:1097B000FFF732FA04230198D4F8705584F87C0539
:1097C00084F88835002D3FF47DAFD4F87435D4F893
:1097D0006425D4F86815A84788E6D4F8C40538F09D
:1097E000EDFD29463A20FFF72DF90DF1100C04226A
:1097F0000123824605A9384605958DF820500E951F
:10980000CDF818C007928DF83430CDE90955CDE96F
:109810000B5539F06DF9384639F066FBBAF1000F97
:1098200008D1FFF7F9F9049B1BBAC3F3807384F8DE
:109830007E353CE6FFF7F0F9FFF73EFB94F888250C
:10984000B3E504212C20FEF779FD032182464E204A
:10985000FEF774FD83460C213620FEF76FFD0BF1F9
:10986000020B421C05FA0AF502FA0BF2A2FB0501F3
:10987000420A42EAC152C4F88C25FFF7CDF9B5E699
:109880000190FFF7C9F90423019884F8883506464A
:1098900018E7174B0722D4F870659B6A84F888256F
:1098A000C4F87835002E3FF40DAFD4F87435504627
:1098B000D4F86425D4F86815B04794F88825531E69
:1098C00017E61E4684F88835FCE608D0042384F8A1
:1098D0008835FFF7A1F994F88825531E09E6FFF7AC
:1098E00029F902287FF402AEEBE500BFF41C012049
:1098F00030280120154BDB68C3F3022310B4C3F1F9
:1099000007041A1D042C28BF0424062A4FF0FF3236
:109910008CBF033B0023A240002821EA020101FA88
:1099200003F108DB09010A4BC9B2034483F80013B1
:109930005DF8044B704700F00F000901054BC9B2F8
:10994000034419765DF8044B704700BF00ED00E05A
:1099500000E100E0FCEC00E030B5264C0022264897
:1099600041F28731D4F8743183B0244DA0FB030356
:1099700004F59A70C4F83451DB0C013BC4E9501271
:10998000C4E94E3209F05CF91D4B062137201A6CF0
:1099900042F020021A641B6C03F020030193019B28
:1099A000FFF7A8FFD4F834314FF400001549164AE8
:1099B0004860D96841F00101D96099680A40062AD7
:1099C00006D0B2F5803F03D01A6842F001021A6057
:1099D0000E4B41F2041200200D499A5803F27464B0
:1099E000C3F87006C2F81002C3F86806C2E9811411
:1099F00003B030BD3028012083DE1B43001400403B
:109A00000038024000E100E00700010038170120A3
:109A1000A829012038B50F4B0F4AD3F87431A2FBA7
:109A200003239B09013BB3F1807F10D20B4A002432
:109A3000F0200B490725536081F8230021469460EC
:109A40004FF0FF301560FFF755FF204638BD01206D
:109A500038BD00BF30280120D34D621010E000E077
:109A600000ED00E04309012200F01F0084B0013B3B
:109A700002FA00F0032B0BD8DFE803F015021E0CEE
:109A8000124B5A6C02435A645A6C10400090009B6F
:109A900004B070470D4B1A6B02431A631A6B1040E7
:109AA0000390039BF4E7094B5A6B02435A635A6BCA
:109AB00010400290029BEBE7044B1A6C02431A64BD
:109AC0001A6C10400190019BE2E700BF0038024091
:109AD0002DE9F041D0F800E00C46DFF8588084B062
:109AE000DEF804501746DFF850C0194605EA0805AD
:109AF000DDF82880064603932C43424644EA0C0CCA
:109B0000CEF804C00AF0AAFF78B931680246039B78
:109B100030468F624021CDF800800AF0CFFF003838
:109B200018BF012004B0BDE8F081012004B0BDE8F9
:109B3000F08100BF009800FC00200180F8B5134FB1
:109B400004460D460AE09B69DB0602D50AF046FF93
:109B5000D0B9D7F878395B1B0A2B08D823682A4676
:109B60000A2120469E69B606EDD50020F8BD636C3B
:109B70002021002201200B4384F84020636484F8F4
:109B8000411084F84220F8BD0120F8BD30280120A2
:109B9000F0B589B00D46044638F0E4FD031E1CDB29
:109BA000164A2046164E1A4406EB830392F880703C
:109BB000C3F87C5938F0FCFD3E440023A588114AC7
:109BC00003A920680793CDE90533CDE903520AF0D4
:109BD000F3FF96F8BC39F02B01D809B0F0BD0A4A62
:109BE000F0230321D05786F8BC390190FFF782FE9D
:109BF00001980BF09DFF09B0F0BD00BF88910508EA
:109C00003028012000001110E40B060810B4B8B190
:109C10000D4CD4F8C439102B05D1052100205DF876
:109C2000044B38F06FBD03EB4302224482F8C9199C
:109C3000012182F8C8090B4482F8CA19C4F8C43952
:109C40005DF8044B704700BF302801202021807848
:109C5000DCE700BF2DE9F04FC14C002387B004F6CC
:109C6000F81894F80C2AC4F8F839C8E90133C8E99F
:109C700003331AB194F80D3A84F8F83994F80E3A8F
:109C80001BB194F80F3A84F8073A94F8123A1BB1D2
:109C900094F8133A84F8023A94F8103A1BB194F805
:109CA000113A84F8FD3994F8143A013B5FB2DBB203
:109CB000019702933B46013300F04F81A94EB02239
:109CC0000023A94802FB076106F5287AA0F12805C0
:109CD0000093903106F546794EF0DEF80122009BA4
:109CE0002E4602FA07FB1F46307890B39F494FF08B
:109CF000300C03E089452CD011F808CF6045F9D12C
:109D00004A7812EA0B0FF5D038F066FAFB1DDBB289
:109D100010B100218371C171032138F003FB307849
:109D20000023302101E01AF83310884200F0B2819C
:109D30000133102BF7D14FF0000C009A01210720BE
:109D400086F801C0531CB270F170DBB23071009321
:109D50000B4601370536042FC6D194F8240A012793
:109D60000393FFF77FFE4FF44031814E0022009BAA
:109D7000C4F82C1A3046D4F8201AC4F8443AC4F86F
:109D8000407AC4F8387A84F8587AC4F8302AC4F88B
:109D9000502AC4F8542AC4F8342A84F8482AC4F84B
:109DA0004C2AC4F83C2AC4F8281AFEF729F9019B6A
:109DB000002B40F0EF80039B002B00F0EB80A6F11E
:109DC00008004AF0F9FF012308F114084FF0000AD7
:109DD0009B46EA78002A40F0178105354545F8D1C1
:109DE000019B02200299234493F91C2A38F094FD28
:109DF0000546002800F0B180406838F0B9FD002227
:109E0000062138F0C5FD002800F0A780686800270B
:109E100038F0AEFDDFF8748149F0FAFF009B6A6804
:109E2000012B4FF40063A8684FF400558CBF4FF42A
:109E300080613946C4F8702A4FF40032C4F8801AA1
:109E40004FF48071C4F8843A0323C4F8740A40467E
:109E5000C4F8983AC4F8787AC4F87C7AC4F8947A4A
:109E6000C4F89C7AC4F8A07AC4F8885AC4F88C1A4A
:109E7000C4F8902A0BF0BAFD94F8643AC4F8608AEA
:109E8000012B0597C4F8A86A67D00123D4F8285A93
:109E900084F8643AAB68DE0713D4D4F874313549DA
:109EA000AA68B3FBF1F342F0010203EB4303AA609B
:109EB0000593059B2BB1059B013B0593059B002B4F
:109EC000F9D1AB68D80748D5D4F8682A2A4B134093
:109ED00043F48073C4F8683A6B68590507D5D4F821
:109EE000683A23F4405343F48053C4F8683AD4F8F2
:109EF000683A13F4805300F03881D4F86C3A23F0B8
:109F00000603C4F86C3A1D4800231D496FF0220275
:109F1000C4F8B00A1B4884F8643AC4F8AC1A05F1D6
:109F20004C01C4F8BC0A2A606E68009B46F080664B
:109F3000154A16486E60AE6846F48076AE600BF047
:109F4000C9FC134B5A68D20640F0F880D4F8283A7E
:109F50009A6812F0405F00F0038107B0BDE8F08F0F
:109F600030280120889105085032012028940508E6
:109F70005832012040420F00FEF8FFFF3106010871
:109F8000350601082106010828020020A032012020
:109F900000230140B02200217B4848274EF0DEFE1E
:109FA000B022002178484EF0D9FE784B384684F82C
:109FB000D47AC4F8D03AFFF755FD4FF4403000236F
:109FC0000121D4F8D02AC4F8DC0A7148C4F8F01A88
:109FD000C4F8E81A84F8081BC4F8E03AC4F8003B57
:109FE000C4F8043BC4F8E43AC4F8F43A84F8F83A04
:109FF000C4F8FC3AC4F8EC3AC4F8D82AFEF700F8E2
:10A0000061484AF0D9FEDEE694F8640A5A1C697881
:10A010000128D2B22F79CDF810A039D0092984F8BF
:10A0200064BA52D94FF0030E6FF01D00D4F828CA5D
:10A030004FF007091EFB0100DCF80CE009FA00F9FB
:10A0400007FA00F02EEA0907CCF80C70DCF80C7067
:10A050003843CCF80C00062B4FF0050020D86FF0E9
:10A06000040710FB0373D4F8287A1F2000FA03FCBE
:10A07000786B01FA03F320EA0C007863786B0343F2
:10A080007B63D4F8283A4148834234D084F864AAE8
:10A090001346A2E63F4A02EBC30393F8A4C24CE680
:10A0A0000C2B32D86FF0220710FB0373D4F8280A68
:10A0B0001F2707FA03FC076B01FA03F327EA0C07D3
:10A0C0000763076B3B430363DBE7D4F8280A01EB24
:10A0D00041094FF0070ED0F810C007FA09F70EFA41
:10A0E00009FE2CEA0E0CC0F810C0D0F810C047EAE8
:10A0F0000C070761AFE712291AD01129C6D12649EA
:10A100004B6843F400034B60C0E76FF0400710FB5F
:10A110000373D4F8280A1F2707FA03FCC76A01FA59
:10A1200003F327EA0C07C762C76A3B43C362A8E789
:10A1300019494B6843F480034B60A7E7D4F8282AF9
:10A1400012498A4214D05B68DB063FF506AF134B19
:10A150009A427FF402AF9A6812F0405F7FF4FDAE3E
:10A160009A6842F080429A60F7E6C4F86C3ACAE610
:10A17000936813F0405F03D1936843F0804393608A
:10A18000054B5B68E9E600BF003301200020014079
:10A190000833012088910508002301400022014076
:10A1A0002DE9F041D0F800E00C46DFF8588084B08B
:10A1B000DEF804501746DFF850C0194605EA0805D6
:10A1C000DDF82880064603932C43424644EA0C0CF3
:10A1D000CEF804C00AF042FC78B931680246039B0D
:10A1E00030468F628021CDF800800AF067FC00388D
:10A1F00018BF012004B0BDE8F081012004B0BDE823
:10A20000F08100BF009800FC00200181034690F817
:10A210003C00012800F03E810220F0B4012483F8C4
:10A220003D0083F83C40142A45D8DFE812F04D0089
:10A230004400440044007B00440044004400DA0031
:10A24000440044004400AA004400440044000601C5
:10A2500044004400440015001A688E68156A0F68AF
:10A2600025F48015AB4C1562106A556820F4001077
:10A27000D2F854C040EA0650A74E0CEA0404B24299
:10A2800044EA072400F0088106F58066B24200F037
:10A2900003814E6855605465D6651062506D0C6937
:10A2A00040F400605065506D20F480605065516D41
:10A2B00041EA0421516500220121104683F83D1036
:10A2C00083F83C20F0BC70471A68D1F808C0156AC2
:10A2D0000F6825F00105914C1562106A5668956962
:10A2E00020F002002C408C4D40EA0C00AA4244EAC7
:10A2F000070400F0DD8005F58065AA4200F0D880F3
:10A300004D68566094615563106290690C6940F025
:10A3100008009061906920F00400906191692143E8
:10A320009161C8E71A68D1F808C0156A0F6825F06E
:10A3300010057B4C1562106A5668956920F0200064
:10A340002C40754D40EA0C10AA4244EA072400F064
:10A35000C38005F58065AA4200F0BE804D68566056
:10A3600094619563106290690C6940F4006090619B
:10A37000906920F480609061916941EA04219161C3
:10A3800099E71A688E68156A0F6825F48055644C41
:10A390001562106A556820F40050D2F81CC040EADB
:10A3A00006305D4E0CEA0404B24244EA072400F091
:10A3B0008D8006F58066B24200F088804E68556058
:10A3C000D46116641062D0690C6940F40060D061F9
:10A3D000D06920F48060D061D16941EA0421D16163
:10A3E00069E71A68D1F808C0156A0F6825F4807506
:10A3F0004A4C1562106A5668D56920F400702C40EA
:10A40000454D40EA0C20AA4244EA070473D005F502
:10A410008065AA426FD04D685660D461D5631062E2
:10A42000D0690C6940F00800D061D06920F00400C8
:10A43000D061D1692143D1613DE71A688E68156A00
:10A440000F6825F48035374C1562106A556820F482
:10A450000030D2F854C040EA06402F4E0CEA040403
:10A46000B24244EA07041DD006F58066B24219D014
:10A470004E685560546596651062506D0C6940F0E9
:10A4800008005065506D20F004005065516D214367
:10A49000516510E70220704725F480254E6945EA92
:10A4A0008625F6E625F480354E6945EA0625DFE780
:10A4B00026F4407C20F008008E69CF684D6938434F
:10A4C000354320F0040045EA0C0619E725F48045E1
:10A4D0004E6945EA861571E726F4406C20F080004D
:10A4E0008E69CF684D6940EA0710354320F040007F
:10A4F0004CEA850632E726F4405C20F400608E6961
:10A50000CF684D6940EA0720354320F480604CEA6B
:10A51000051680E7FF8FFFFE000001408CFFFEFF65
:10A52000FF8CFFFE8FFFFEFF0128B5EEC00A10D0A2
:10A53000F1EE10FA0BDD9FED177ADFED177AE0EE02
:10A54000077AFCEEE77A17EE903A98B2704700204F
:10A550007047F1EE10FA0BDD9FED107ADFED107A07
:10A56000E0EE077AFCEEE77A17EE903A98B2704781
:10A57000EDD5F7EE006A9FED0B7ADFED0B7A30EE4A
:10A58000260AE0EE077AFCEEE77A17EE903A98B2E8
:10A59000704700BF00E0F9440000404200C0794429
:10A5A0000000834400C079C400E08244F8B53D4E09
:10A5B00096F8804B04EB8403A70006EB830393F823
:10A5C000843B032B44D8DFE803F0461B0F023C44D6
:10A5D00006EB8404D4F8883B002B58D0013B0025BF
:10A5E000C4F8883B2846F8BD3B1906EB8303D3F833
:10A5F000882B7AB1013A0025C3F8882B2846F8BD8C
:10A600003B1906EB8303D3F8882B002AF2D10222F0
:10A6100083F8842B3C4406EB840494F8903B013B84
:10A62000DBB284F8903B4BBB0323D4F88C0B84F84B
:10A63000843B4EF07DFDC4F8880B06464EF05CFD71
:10A6400080F00100002E0CBF002500F0010525BBA5
:10A6500001252846F8BD39F045F905460028F7D010
:10A660003C44012342F2107006EB840484F8843BDE
:10A670004EF05EFDC4F8880B2846F8BD01254FF466
:10A680007A704EF055FDC4F8880B2846F8BD4EF0A0
:10A6900063FD80F00100C5B2B0E7013EC4F8886BED
:10A6A000ACE700BF3028012003689B0AA3F58013A4
:10A6B000522B00D970470E4A134470B593F82043CB
:10A6C00084B00D2C12D800294FF0000309494FF037
:10A6D000010514BF1E460226427901EB841069462B
:10A6E000CDE90065CDE9023308F06AF904B070BD28
:10A6F000889105080434012033492DE9F84F91F879
:10A70000D1101C46012507460229DFF8C4A01046D7
:10A7100019464FF00002DFF8BC9018BF7F02CAF85C
:10A720002C50FDF717FD294A630240F2FF5BC9F880
:10A7300024204FF40075C9F828304FF48A62D9F804
:10A740002C30012110205E4643F09303C9F82C30D1
:10A75000C9F838B0C9F808504D46C9F80C2047F080
:10A760009DFA012CC9F838B04FF00A048CBF4FF0A5
:10A7700052084FF051084FF0000939464046FEF7A5
:10A7800003F8013C034640F2774201213720E4B24E
:10A7900023B91846CAF82830BDE8F88FAE63C5F86B
:10A7A0000890EA6047F07AFAAE63034608B1002CDD
:10A7B000E3D1002BEDD000221846CAF82C20CAF8AD
:10A7C0002830BDE8F88F00BF3028012000E1F505F2
:10A7D00038170120002C01402DE9F843DFF8748080
:10A7E00004460F46914698F888551E46042D08D019
:10A7F000082D02D00020BDE8F883FEF71BFB0228DD
:10A80000F8D101233A4620460021FFF775FF68B1D1
:10A81000FEF70CFCD8F87045002CEBD00022D8F8DD
:10A820007435D8F868151046A047E3E7084A0523B1
:10A830000120C8F86475926AC8F86845C8F8709530
:10A84000C8F87465C8F8782588F88835BDE8F883B5
:10A8500030280120381701202A492DE9F04F91F8BE
:10A86000D1100124DFF8A8B00746022983B0CBF845
:10A8700030409A4618BF4702012B4FF00A04224D80
:10A8800040F2FF568CBF4FF059084FF058084FF078
:10A890000009009239464046FDF776FF013C034629
:10A8A00040F2774201213720E4B2BBB9009851460B
:10A8B00001220193154CFDF74DFC13494FEA4A2242
:10A8C0000020019B4C628A62CA6A42F09102CA620D
:10A8D000CBF82800184603B0BDE8F08FAE63C5F88A
:10A8E0000890EA6047F0DAF9AE63034608B1002C3D
:10A8F000D0D1002BDAD000221846CBF8302003B09C
:10A90000BDE8F08F30280120002C014000E1F50562
:10A91000381701202DE9F84F05460E4690461F4690
:10A92000394C94F8880504280CD0082807D1D4F8AD
:10A930008035AB4206D0FEF77DFA0228F1D0012027
:10A94000BDE8F88FDFF8C8A0C4F86465DAF8C890ED
:10A95000C4F86855C9F34F234FEA59220F2B2BD85F
:10A96000D4F884B5BBF1000F26D094F8561619B36D
:10A97000B9F5005F41D025484FF400723146484494
:10A980004DF08AFA09F50072C2F34F23CAF8C820C5
:10A99000520A102B31D0BBF1010F2ED0D4F88025F4
:10A9A0000BF1FF33042102200132C4F8843584F80E
:10A9B0008815C4F88025C3E701234FF00109284614
:10A9C000062532460021C4F87085C4F8747584F8F1
:10A9D0006C9584F88855FFF73FFF0028B0D0FEF74C
:10A9E00025FBD4F870556DB14846D4F87435D4F8C9
:10A9F00068150022A8470320A2E792B2034E013A4D
:10AA0000AD1ADAE703209BE7381701206C520120CA
:10AA10003028012003681878012801D000207047F1
:10AA200093F90430074A03EB430302EB431393F813
:10AA3000E92F202AF3D1D3F8A83F9869C0F3C0309A
:10AA4000704700BF3028012010B50A4CE3691B781D
:10AA5000022B0DD1606A37F003FD606A08B1212333
:10AA6000C380012137F05EFC034838F085F920846B
:10AA700010BD00BF283901208096980030B50446EB
:10AA800083B001230D460DF107020848214638F036
:10AA9000F7FA9DF8072035EA020304D02A4321463D
:10AAA000024838F0CBFD03B030BD00BF443901206F
:10AAB00038B505460A460C460648294638F0C8F916
:10AAC00045F08001034838F06BF9231A5842584189
:10AAD00038BD00BF4439012070B50D4C1346E569FF
:10AAE0002A78022A07D00A46014604F11C00BDE874
:10AAF000704038F0C5BA2A6A0AB1002070BD0A4613
:10AB0000014604F11C0038F073F9012070BD00BF4C
:10AB100028390120036801221B78022B01D038F06C
:10AB2000DBBC38F0BDB913B53A4C0023D4F8F4209F
:10AB30008DF80730137803F0FD01012905D194F851
:10AB4000F81011B90C2184F8F810022B1ED0032B39
:10AB50002ED001220B21304846F0BEF8042034F0FC
:10AB600005FD01230DF1070200212B4846F0D6F820
:10AB7000002839D09DF80730482B35D1274BC4F831
:10AB8000E830274BC4F8EC3002B010BDD4F8FC001C
:10AB900037F066FCD4F8FC0008B13423C3800121EF
:10ABA00037F0C0FB1F4838F0E7F8A4F8F800D0E70A
:10ABB000D4F8A43546F2A811506812221961002376
:10ABC000372180F8883046F05CF8D4F8F4300D2254
:10ABD0002421586846F055F8D4F8F43030226A2120
:10ABE000586846F04EF8B4E7D4F8F4301A78022AE0
:10ABF00003D0032A07D00020C6E7D4F8FC0037F0C2
:10AC000057FF0020C0E710223721586846F039F876
:10AC1000F1E700BF283901201C3A01207B0D05080F
:10AC2000FD0D05088096980030B58DB0FF210023FA
:10AC3000012204460DF107058DF8071002A90492C0
:10AC40008DF814208DF828200B93CDE90253CDE91F
:10AC50000633CDE9083337F04BFF2268136A002B27
:10AC6000FCD10DB030BD00BFF8B55C4C00234FF4F3
:10AC7000F07206460F4604F6E800202184F8E43816
:10AC800084F8E5384EF06AF84FF4F072202104F6AB
:10AC9000C8204EF063F8322034F068FC94F8A93CE8
:10ACA000002B00F08F8094F8AA1C04F6AC4038F01A
:10ACB00025F8002800F0868094F8A90C37F08CFA6B
:10ACC0000546C4F8B40C37F06FFB00287AD00DB1FC
:10ACD0002323EB800D21284637F024FBD4F8B40C55
:10ACE00037F0BEFB3E4838F047F803463D48A4F82D
:10ACF000B03CFFF799FF8C213A4838F051F81B28F7
:10AD000063D10122D4F8B43C84F8E4280BB12322A7
:10AD1000DA8040220A21334838F09AF88A213148F3
:10AD200038F03EF894F8A83CC0F3801584F8445DF0
:10AD3000002B40D0022B37D12B4838F01DF80346AA
:10AD4000A4F8460D29490A7A182A0DD1284A29481B
:10AD5000D2F87421CF6052080D614B61B2FBF3F25F
:10AD6000A0FB0202520B8A611E4802220021A4F8B5
:10AD7000B03C38F06DF8C8201A4D34F0EBFB802160
:10AD8000284638F00DF810F00200F8D17278B37848
:10AD90003178C2F12002C3F1100384F8492D84F800
:10ADA0004A3D84F8481DF8BD134837F0E5FF0346D7
:10ADB000A4F8460DC6E70A4837F0DEFF0346A4F8BC
:10ADC000460DBFE76FF00100F8BDD4F8B40C2021A8
:10ADD00037F0A8FA4FF0FF30F8BD00BF2839012046
:10ADE000404B4C00D4450120002D310128020020A9
:10ADF000302801205917B7D18096980030B54CF211
:10AE000005028DB0002304460321ADF8002001ADFA
:10AE100001228DF802300B938DF814208DF8282034
:10AE2000CDF808D0CDE90633CDE90833CDE903519B
:10AE300038F05AF8204602A937F05AFE204638F07A
:10AE400053F89DF806000DB030BD00BF0848002340
:10AE5000024611780632022904D00133062BF8D1BC
:10AE60000020704703EB430300EB4300704700BF33
:10AE7000701701202DE9F043734E83B0734C2422E8
:10AE8000002106F138004DF069FF002394F84D5D74
:10AE9000F365002D37D16E4FD7F8903043B39B6ADE
:10AEA00033B36C489847836813B3038800246A4F10
:10AEB000013BBC4639469BB20878063103281BD0BB
:10AEC0000134062CF8D1002239780637022900F027
:10AED0009D800132062AF7D1F16D052908D002FBC9
:10AEE00001C20131F1650220002193801070518070
:10AEF000284603B0BDE8F083062303FB0464638F98
:10AF0000013B9BB2DFE704F6545794F84C0DC4F8AC
:10AF1000507D10B900254E4FBEE737F05DF9C4F8FB
:10AF20005C0D37F041FA0028F4D02946384637F056
:10AF3000E5FE05460028EDD0D4F8503D454A986816
:10AF4000C3F8942008B12023C3800D21404F37F06F
:10AF5000E9F9D4F8503D4FF00109986837F080FACC
:10AF60003E4837F009FFD4F8503D024632209A801F
:10AF7000C7F8B03087F8B49034F0F8FA04234FF0F3
:10AF8000000C9F21D4F8500D0DEB0302CDF804C046
:10AF900037F02EFF9DF805809DF8043007F19000F2
:10AFA0004FEA08289DF8061048EA034848EA0108D5
:10AFB000414644F0E7FF00287FF46EAF4046FDF7BE
:10AFC0003DFE034600287FF467AF9DF806009DF81C
:10AFD000052000029DF8071040EA0240204A08437D
:10AFE000904217D0A7F89430A7F8A030C7E92633CD
:10AFF000FDF724FE034600287FF44EAF94F84C0D75
:10B000001D4637F0E9F837F053FD45E7062101FB0F
:10B0100002C268E7134B4FF400314FF0006287F82B
:10B02000A290C7F894304023C7E92612A7F8A030B1
:10B03000FDF7F0F807F1900087F8A99044F0EEFED4
:10B04000094BC7F8903027E738170120283901202D
:10B0500030280120C028012070170120404B4C00EF
:10B0600021AAEF0000040008B09105082DE9F04F77
:10B070000423BE4C402141F21C1504F6746704F110
:10B0800060064FF0A042636661670023022194F8D6
:10B090001D048BB0C4F8607466512266C4F8903009
:10B0A0002367C4F88C30C4F88430A167E166C4E932
:10B0B0001F33002800F0628103211F46164684F8E2
:10B0C0001D14936823F001039360F368304643F046
:10B0D0004003F36006F0D4FEB36B012F054643F442
:10B0E0008033B36317D005B3022384F81D34A04B1B
:10B0F00093F8C450012D00F0FD80236E80210120C3
:10B1000059625A6A42F480029A62FDF7ABF8002055
:10B110000BB0BDE8F08FB36843F00603B360B368CB
:10B1200043F02003B360002DDED1236E3220DA68B5
:10B1300022F0C042DA60DA6842F08042DA600AF057
:10B1400005FD606E50B32A4601272946C2EBC203B3
:10B15000561C04EB830383F89C20A3F8A220F2B2D0
:10B1600083F89D70824283F89F10C3F8B010C3E942
:10B170002911EBD300221146C2EBC203561C04EB8B
:10B18000830383F85C22F2B283F85D12824283F873
:10B190005F12C3F87012C3E99911EDD30022236E38
:10B1A000D4F86CC01646D4F87080D4F88CE0D4E99A
:10B1B0001E71019102F14001013203EB81010F2A5E
:10B1C0004E60F7D19A6BBEF1000F40F0438122F43C
:10B1D00000129A631A6842F040021A601A6842F03C
:10B1E00080021A600022012F03F50066C3F8002ECA
:10B1F000D3F80028C3F80028D3F8002800F02181F4
:10B20000032F00F01E8142F00302C3F800284FF420
:10B210008461584A196102E0013A00F032811969EB
:10B220008F06F9D41021534A196102E0013A00F067
:10B2300026811969C906F9D4002131617161F16172
:10B24000E0B103F510624FF0904A4FF0006B0F46EB
:10B250004FF67F399C4607E0176001311761C2F84D
:10B2600008902032814261D01368002BF4DA11B1CA
:10B27000C2F800A0F1E7C2F800B0EEE73269B8F119
:10B28000010F22F48072326100F0ED8000216FF036
:10B29000804299615A61B8F1000F03D19A6942F076
:10B2A00010029A619969344A0A439A61019A1AB163
:10B2B0009A6942F008029A61BEF1010F00F0CE8057
:10B2C000002D7FF411AF0121D4F8842084F8985028
:10B2D0008A4284F81D1400F0D6807368032043F07E
:10B2E000020373600AF032FC214B93F8C450012D25
:10B2F0007FF403AF44F058FA00287FF4FEAE236ECB
:10B300008022284640215A625A6A42F400129A6208
:10B31000FCF7A8FF20210220FCF7A4FF4021032016
:10B32000FCF7A0FF00200BB0BDE8F08F00216346C2
:10B330000CF530624FF0904A4FF0006B0F464FF61D
:10B340007F39844607E0176001311761C2F8089021
:10B350002032614592D010680028F4DA11B1C2F8A9
:10B3600000A0F1E7C2F800B0EEE700BF38170120F7
:10B3700030280120400D030000383C8000F0FF051C
:10B380004C4B03204FF4C05684F81C541A6B42F007
:10B3900001021A630A221B6B069105A903F001033F
:10B3A000089045480493049B07950596099209F077
:10B3B00003FCD4F88C30012B72D03E4B0621432085
:10B3C0005A6B42F080025A635A6B02F0800202927A
:10B3D000029A5A6C42F480425A645B6C03F48043D4
:10B3E0000393039BFEF786FA266E0323334A082154
:10B3F000916084F81D34A26FB368012A276F23F08F
:10B400000103B3607FF461AEB26B2D4B22F4803246
:10B41000D4F89410B2630129F26803EA0203F360DE
:10B42000F36823F44013F36003D1F36843F480130B
:10B43000F360304606F024FD012F05467FF453AE3D
:10B4400069E6BCF1000F3FF4E0AE42F00102C3F840
:10B450000028DCE642F400129A63C3E69969194AAF
:10B460000A439A612CE718490020184A31636FF0AB
:10B470008041376B3A4332639861596112E7012585
:10B48000DAE60125CEE684F854549969C4F85C24C0
:10B4900041F000610E4A9961596D0A435A651CE7F3
:10B4A0004FF4007305A904480593CDE9065509F04A
:10B4B00083FB82E7003802400000024000E100E028
:10B4C000BFFFBDFF04000040000180000300010039
:10B4D0000300001010B51A4C94F8ED0DC0B9194BCB
:10B4E00083F8B505C3F8B80594F8F03D012B05D0F5
:10B4F000022B21D0D4F8F43D1BB910BD124BC4F877
:10B50000F43D12495B68A1F10C00BDE810401847FA
:10B5100036F062FE94F8EF2D0A49003AC1F8B805FA
:10B5200018BF012281F8B5250028DDD01F22202177
:10B53000C28036F0F7FED7E7054BC4F8F43DE0E7EC
:10B5400028390120381701208401012020470120DB
:10B550006001012099B10A6B824216D9154BD3F8CC
:10B560003C2E914221D34C3991421ED30B6B984211
:10B57000F9D38B6B9842F6D80B46184670470D4BA3
:10B58000D3F83C1E0A6B904212D30B680BB9F4E758
:10B590000A6B90420B4602D38A6B9042EDD951F868
:10B5A0004C3F002BF4D118467047002318467047D3
:10B5B0000A46D8E7283901202DE9F047CC0143D1CC
:10B5C000034622494FF0FF32022443F8081B7E262F
:10B5D00042601846DFF878802644051D6FF07047FA
:10B5E000D8F8409E4FF0010A013E494608E0A342C8
:10B5F0001CD0631C45F8043C321B1C460435CAB100
:10B600000B6BA34202D88B6BA34204D22046FFF7F8
:10B61000A1FF014690B10A794B6B002AE7D1A34202
:10B6200004D0E6D2631C45F8042CE5E7631C45F81A
:10B63000047CE1E7C8F8401EBDE8F087321B631CBC
:10B64000494645F804ACD8E78026C3E7F8FFFF0F6A
:10B65000283901200A44914219D0013910B4541EEE
:10B6600011F8012F0823504002E0013BD0B209D06D
:10B6700010F0800F4FEA4002F7D082F0D500013B76
:10B68000C0B2F5D1A142EBD15DF8044B70477047D1
:10B69000194A00232DE9F04702F6546484B00546A8
:10B6A00092F94D8E1F46461804F5287A4FF0B609D8
:10B6B000D4F800C0204600226946E034BCF1000FF7
:10B6C00014D09CF838C0BCF1140F0FD018F1020F41
:10B6D00001D0C4450AD1CDE90277CDE90056ADF8D5
:10B6E00008908DF80D702BF00DF80346A245DFD1C0
:10B6F000184604B0BDE8F087283901202DE9F0474D
:10B700009AB004460D4617469846DDF89090DDE95C
:10B71000226A02E0206833F06BFF206833F070FF8C
:10B720000028F7D10146642201A84DF017FB254BF4
:10B730008DF80450CDF85CA00293002D3ED0AB1ED6
:10B74000012B3DD9042D14BF002303231E4A8DF87D
:10B7500005300123926A039616448DF85B30CDE9DB
:10B760000594049637B14246394607A84CF094FB3D
:10B770008DF85A80154E002396F83E901893B9F133
:10B78000000F18D196F83D00642201A902FB006069
:10B7900040304CF081FB012386F83D9086F83E3026
:10B7A000236843B143463A46294620461AB0BDE8CD
:10B7B000F04717F00BB91AB0BDE8F0870523C5E7CD
:10B7C0000223C3E71C4A012030280120204A01201F
:10B7D000014488420ED00346074810B4074C13F8C2
:10B7E000012B04FB00F0994280EA0200F7D15DF8DA
:10B7F000044B704700487047C59D1C8193010001B0
:10B8000030B40023314D32494CF25034C5F8C030C9
:10B81000304AD1F8780904E0D1F878391B1AA342EC
:10B820000FD8D368DB03F7D4D16811F4F9710BD1C9
:10B83000D06810F0010002D001230846D36030BC6C
:10B840007047032030BC7047D3689B0705D5D5F8F7
:10B85000C03043F02003C5F8C0301E4BDB68DC0667
:10B8600005D5D5F8C03043F01003C5F8C030194BEA
:10B87000DB68980605D5D5F8C03043F00803C5F855
:10B88000C030144BDB68590605D5D5F8C03043F0FD
:10B890000403C5F8C0300F4BDB681A0605D5D5F890
:10B8A000C03043F00203C5F8C0300A4BDB68DB054B
:10B8B00005D5D5F8C03043F04003C5F8C030054B7E
:10B8C0004FF4F9720120DA6030BC7047204A012041
:10B8D00030280120003C02402DE9F04FDE4DF7EE0C
:10B8E000007ADE484FF0000CD5ED0B5A05F5F768ED
:10B8F000A96C00F1D302F4EE675A95F834A007EE74
:10B90000101A00F1E40300F1E30EDFEDD56AB8EEA2
:10B91000476A95ED0C7A9FEDD35AC7EEA52ADFED65
:10B92000D24A9FEDD23A9FEDD24ADFEDD21AC5EE50
:10B93000063ADFEDD10A9FEDD15A9FEDD11A87EE7D
:10B94000870AB0EE662A65EEA65A2DED048B90F8B4
:10B95000C54087B027EE268A6445029114BF0224B1
:10B960000124F1EE10FAB4EE677A039414BF0120BB
:10B970006046A245B4BF00240124E24508BF6046EA
:10B98000F1EE10FA0594019014BF20466046049031
:10B9900051E04FF08C094CF2503B09FB0C595C45CF
:10B9A00089F8B80700F2728107EE904A9FEDB56AF8
:10B9B0008C20092EF8EE676A00FB0C8086EE267A52
:10B9C00080ED017A40F26C8142F21070864200F202
:10B9D000708107EE906AB8EE677A8C2027EE247AA1
:10B9E000092F00FB0C8080ED047A40F25C81B7F5F2
:10B9F0007A7F00F25B8107EE907AB8EE677A8C204E
:10BA0000632900FB0C8080ED027A40F2BE8007EED5
:10BA1000901AF8EE677AC7FEE37A8C200CF10104E5
:10BA200000FB0C805FFA84FCC0ED037A964503F1BD
:10BA3000020300F0AD8012F8010F0028F6D01C8838
:10BA4000002CF3D01E8C002EF0D05045B3F840707F
:10BA5000B3F860109DD907EE907A0A28B8EEE77A1D
:10BA600007EE901AF8EEE77A27EE056A67EE856A28
:10BA700040F0BC800199002900F0B8808C204CF285
:10BA800050374FF0010900FB0C50BC4280F8B897CA
:10BA900000F2468107EE904AB8EE677AC2EE077A66
:10BAA0008C20092E00FB0C80C0ED017A40F23B8116
:10BAB00042F21070864200F2398107EE906AF8EE89
:10BAC000677A26EE227A8C2027EEA46A66EEA27AA6
:10BAD000F4EEC47A00FB0C80F2EE046A87FE437A2F
:10BAE00080ED046AF1EE10FA87FE267A80ED027A84
:10BAF0004BD4C7FEE37A90E7A0F11507072F95D83E
:10BB00000599002992D0A0F114014CF250378C20F5
:10BB100007EE901ABC4200FB0C500399F8EEE77A4E
:10BB200080F8B81727EE889A00F2158107EE104AC0
:10BB3000B8EE477AC9EE078A8C20092E00FB0C80EC
:10BB4000C0ED018A40F20D8142F21070864200F28F
:10BB5000058107EE106AB8EE477A26EE276A8C2038
:10BB600066EEA77A27EE247A00FB0C80F2EE046AD8
:10BB700086FE436AF4EEC47A80ED047A86FE267A65
:10BB800080ED027AF1EE10FAB3D5F0EE447A44E794
:10BB9000029985F838C0BCF1000F22D04FF08C0913
:10BBA000394F4FF00008002609FB0CF9A7F1780483
:10BBB00004F11400012257ED1A0A283417ED1C0A6B
:10BBC0004DF096FA66602660E660A660BC4201D041
:10BBD000A96CEDE708F18C088C37C14501D0A96C40
:10BBE000E4E707B0BDEC048BBDE8F08FA0F10B07D4
:10BBF000072F61D914287FF47FAF049900293FF4FF
:10BC00007BAF8C204CF25037039900FB0C50BC42A8
:10BC100080F8B81700F28D8007EE904AB8EE677A88
:10BC2000C2EE077A8C20092E00FB0C80C0ED017A51
:10BC300040F2858042F21070864200F2838007EE67
:10BC4000906AF8EE677A26EE007A8C2027EEA46AD6
:10BC500066EE807A3CE700BF28020020204A0120DF
:10BC6000ABAA264300BADB480AD7233C00007A443B
:10BC70000000C84200401C46005043478988883C69
:10BC80003EC3AE3955558541580A00208C20B0EE90
:10BC9000417A092E00FB0C8080ED017A3FF694AECC
:10BCA000B2EE047A99E6B2EE047AA8E6B0EE437AF0
:10BCB000A5E6B0EE617A90E6BAF1000F3FF4B6AEB9
:10BCC000A0F10A018C274FF0010907EE901A07FB3B
:10BCD0000C504CF25037F8EEE77A80F8B897BC4237
:10BCE00027EEA59A28D807EE104AF8EE478A89EE83
:10BCF000287A8C20092E00FB0C8080ED017A24D953
:10BD000042F21070864223D807EE106AF8EE478A96
:10BD100026EE277A8C2028EEA46A66EEA77AD7E66C
:10BD2000B0EE607ABAE6F2EE047ACAE6F0EE617A34
:10BD3000C7E6B0EE607A73E7F0EE608AD7E7F2EE1E
:10BD4000047A80E7F0EE617A7DE7F2EE048ADFE7BD
:10BD5000F0EE618ADCE7B0EE607AEBE6B0EE617A95
:10BD6000FBE6B2EE047AF8E62DE9F04FDFF87081D9
:10BD70000127574CDFF86CA1DFF86C912DED028B99
:10BD80009FED548A85B0FEB2572118F8010B324658
:10BD900031F0A6FA0546002800F0828003680122EF
:10BDA000DFF848B14FF4005C534518BFB3F1804F42
:10BDB000E060DBED5D7A0CBF01230023F8EE677ACB
:10BDC00004ED088A002B04F8233CDBF8743114BF1F
:10BDD00010464FF48070A9FB0313002144F80C0CAB
:10BDE000DB0818F8010C44ED077A44F8083C04F825
:10BDF000242C24F8182C24F8162C44F8041C44E9AC
:10BE000005C136F0E9F9206110B15723C67183717D
:10BE10006A7A422136F032FADBF874210021284692
:10BE200047F05EF814F8233C002B43D02A4B002245
:10BE300021462846236046F01FFF286847F0AAF8ED
:10BE4000834670B100230121042200930392CDE9BF
:10BE5000011369466A7906F0B3FD6979584606F020
:10BE60007FFEE2684FF0FF3554F80C3C013E1B4862
:10BE70004FF4005C11682B44F6B290F860008B62BE
:10BE800001220023B042CD624A6124F8182C24F824
:10BE9000162C44F8043C44E905C301D131F0CEF935
:10BEA00001373834052F7FF46EAF05B0BDEC028B3F
:10BEB000BDE8F08FDFF838E0221DDFF838C02146FA
:10BEC0002846A360C4E900EC46F0D6FEB5E700BF03
:10BED000C4120020000000002117000020130020E1
:10BEE000844B0120000C00401F85EB5130280120BD
:10BEF00059180000151A00000C480D4BD0F880119D
:10BF000010B48A1E0B4C2231C0F87031B0F89E314B
:10BF10001B01A4FB03C3DB08A3F5B06322F8023FB7
:10BF20009142F3D15DF8044B704700BF204A0120D5
:10BF3000796C0208CDCCCCCC70B5084C251D2E46B2
:10BF400014F8010B2AF02EFD28B10379B44205F84C
:10BF5000013BF5D170BDFF23F8E700BFDC4B0120AA
:10BF60002DE9F0471C4F01264FF03B094FF0000828
:10BF700007F10805B24617F8010B36F02DF9044613
:10BF800090B180F80690C671FB7803F07F02012A19
:10BF900017D013F0800F20460CD185F8048036F0BE
:10BFA0000DFA85F805802C6001360835052EE2D1A2
:10BFB000BDE8F08785F804A036F052FA85F805A0B0
:10BFC000F1E71B0605D40121204636F0ABF9FB78DA
:10BFD000DFE736F045FAF6E7E44B01202DE9F041C2
:10BFE000204C00234FF0050894F8F32104F5F8776E
:10BFF00004F5FA7584F8EC2117F8010B5E1C20BBE0
:10C000002860032E05F104053346F5D194F8EC11B0
:10C01000D4F8F401C94301F0010136F07FFA94F835
:10C02000EC11D4F8F80181F00201C1F3400136F0BF
:10C0300075FA94F8EC11D4F8FC0181F00401BDE824
:10C04000F041C1F3800136F069BA36F0C5F801213C
:10C05000F3B2286010B180F80680C371286836F00A
:10C0600061F9CEE7204A0120F0B5294C83B0B4F83D
:10C070000452A4F80652EDB994F8000236F0ACF878
:10C0800094F80122C4F80802003A18BF012284F88B
:10C090000C2248B194F802122B220029C28014BF4E
:10C0A0001121012136F03EF9002003B0BDE8F04037
:10C0B00036F03CBA94F8007200222B21384631F059
:10C0C0000FF90646384636F087F800B10EB903B0CE
:10C0D000F0BD2B22C4F8240202210027C280727A0C
:10C0E00036F0CCF80B4AA4F82852314604F5047017
:10C0F0000197B2FBF5F3C3F34F059BB2009529F00E
:10C100009DFDD4F810321F6084F82172DFE700BF74
:10C11000204A012040420F002DE9F84F264B00260F
:10C1200093F8342203F22B2703F5127483F82A22A2
:10C130005FFA86FB4FF0010917F8010F01360BEB90
:10C14000090A49464FF000085FFA8AFA524631F070
:10C15000C7F8054648B3387804F80E8C04F80D8CFF
:10C1600004F80FBC04F8109C44F8045C36F034F872
:10C17000022118B180F8069080F807A06A7A36F09C
:10C180007DF80E4A0021284646F0AAFE0C4B221DDF
:10C190002146236028460B4BC4E9013846F06CFD6C
:10C1A00042466979286829F0FDFC082E04F11C0438
:10C1B000BED1BDE8F88F00BF204A012040420F00E9
:10C1C000E55B0308A9EB020870B52B4C00222B4B52
:10C1D000022194F86003C4F85833C4F82023C4F84B
:10C1E0005423A4F85C23C4E9C62231F079F800286E
:10C1F00036D0234B0546016803F160005A7C12B12A
:10C200005A6891422DD018338342F7D1002394F815
:10C210006003C4F8445284F8383235F0DDFF08B1C9
:10C220000223C38000266A7A022136F027F83146BD
:10C230002846144A46F054FE134B144A2846C4F8C4
:10C240004832134B111FC4F85062C4F84C3246F008
:10C2500013FD324669792868BDE8704029F0A2BC18
:10C2600070BD8A6A0B4801320B49D0F87431B3FBB8
:10C27000F2F381F8A831C9E7204A012000FFFF004E
:10C280008413002040420F00D1EB02086C4C0120C7
:10C2900065ED020830280120000001202DE9F04F53
:10C2A000DFF8609399F866432DED048B032C95B06D
:10C2B000029000F2AF80DFF850A30022BE4B0127AE
:10C2C000BE4E0AF592758AF85421022C83F8C8767E
:10C2D0000FCE0FC50FCE36680FC599F86C332E60A0
:10C2E00040F00F829FEDB68AB0EE489A002BB54A17
:10C2F000B54B0EBF002101211346B44A0391B44946
:10C30000CAF83421CAF83C1179EE087ADFEDB16A37
:10C31000B5EE007AB04C28EE268ADFF8D4B20025BC
:10C32000CAF83831C7EE278ACDF810A0FAFE688A1D
:10C33000FCEEE88A029BAB4266DD6F1C1BF801AB8A
:10C3400003215FFA87F85046424630F0C9FF06469F
:10C35000002800F08884504635F03EFF606118B137
:10C36000032380F807808371727A022135F086FFFB
:10C37000039B002B00F0D181B9F864334FF6FF72B4
:10C3800007EE903A954BF8EEE77AD3F87411FCEE8D
:10C39000E77A17EE903AB1FBF3F00244120CB1FBCE
:10C3A000F2F2B2FBF3F307EE902A00209BB2314683
:10C3B000B8EE677ADFED8A7ACDE9000067EE086AA9
:10C3C000204667EEE67AC4ED026AE7EE097AC4ED2C
:10C3D000037A29F033FC002D00F09A8161687E4BCE
:10C3E00002E09C4200F094815A6818338A42F8D1E6
:10C3F000012383F001030122042F3D46237404F13D
:10C40000180404F8072C95D1DDF810A0754ECAF871
:10C410006061A1E0631FDAB2032A00F29280012278
:10C42000654BDFF8E4A183F8C82699F86F338AF8E2
:10C430005421934200F0EC809A1E53425341082C41
:10C4400008BF0023002B40F0E380674E0AF1F4059B
:10C4500099F86E730FCE0FC50FCED6F800C03E1EF2
:10C460000FC518BF0126614B072CC5F800C08AF81C
:10C470005861CAF8043100F25E81042C00F29F82F8
:10C480000023DFF888B10393534B0493584B059373
:10C49000DDE90232934240F390829DF80C30032193
:10C4A000059A5D1C089312F8016BEDB205923046B7
:10C4B0002A4630F015FF0446002800F01C81304663
:10C4C00035F08AFE049B586110B10323C571837156
:10C4D00099F866332046069336F0E2F994F808801E
:10C4E0000346002800F004819AF868210792002A88
:10C4F00040F028814768002F00F0FD809B68384697
:10C500000A9336F035FA2A460321099036F040FAAC
:10C51000002800F0F0809AF86C6125683548CBF867
:10C520009470002E00F05B820022034603E001328B
:10C53000B24200F054821968B8338D42F7D1D6B2B6
:10C5400055E21D490022032B81F8C82622D8DFF8C6
:10C55000B8A001238AF85431DAF86031FBB1012127
:10C560000022029883F8251083F82400014683F8FE
:10C5700026209A6248B12C331F4A1944084612F803
:10C58000011B03F8011B9842F9D115B0BDEC048BD7
:10C59000BDE8F08FDFF870A08AF85421DCE7174D72
:10C5A000174C0FCD0FC40FCD0FC42B6844F82039A2
:10C5B000CAF86041E9E700BF182400203496050856
:10C5C00028293038B5C50308B1ED0208B9C50308FC
:10C5D00065EF02086F12833A84130020302801208F
:10C5E00000007A4444140020EC95050851310508F8
:10C5F000914D012090140020884D0120C895050818
:10C60000B84D0120204A012020130020B024002032
:10C61000002799F86E33029ADB1B634ECAF85C213F
:10C6200018BF0123614D89F8C8433C468AF8583148
:10C6300089F895730FCE0FC50FCE0FC533683946F5
:10C640004FF44C725A4845F880394CF087FB594EEC
:10C65000594B0393DAF85C3104F10108A34243DD3E
:10C66000039B13F8017B3846039330F0C1FE044668
:10C67000384635F0B1FD277A9AF85831834607F0ED
:10C680000104013489F894430BB187F0010735F0B8
:10C690008BFE03465846002B00F0ED8236F062F820
:10C6A00003466101584673605FFA88F341F0010167
:10C6B000C6F80CB037747161BBF1000F05D04FF0B4
:10C6C00003028BF807308BF8062035F02BFEFB07B2
:10C6D00058461FD535F072FE4446F36818352036AB
:10C6E000042C45F8043CB5D1304BCAF8603133E72F
:10C6F0009AF8683133BB31490023314ACAE94221F3
:10C70000F3E7032C3FD19FED2F8A9FED2F9AEDE5A4
:10C7100000236EE635F0A4FEDEE72C4B18EE902ADF
:10C72000D3F874114FF6FF73B1FBF2F21A44120CF6
:10C73000B1FBF2F237E6082C7FF4A2AE244BCAF824
:10C7400064319DE66769002FD5D0A36938460A9306
:10C7500036F00EF91F4B2422451E099002FB0535C9
:10C7600095F8C831382B00F0BB81206846F026FCD4
:10C77000024638210998D2B236F00AF90028BAD018
:10C7800000230793C7E6002C40F0C582124B134AE2
:10C790009FED138ACAF83431B0EE489A084B0397DC
:10C7A000CAF83C21B0E500BF10960508E41300204C
:10C7B00030270020602A0020914D0120B1C50308D8
:10C7C000B5C50308ACC5A737ACC5A73630280120CE
:10C7D0001D3D040800000120B9C5030865EF0208EB
:10C7E0006F12833A9AF86821CBF85430002A00F08F
:10C7F0008A819846DBF89830C3F8A870CBF894701B
:10C80000079B002B00F0D6810BF118000D9005F06E
:10C81000D9FE9AF868310D98002B00F0B481CE490A
:10C820004FF4907322684FF0030C03FB0613DBF800
:10C8300098104C32C1F8B030CBF81C300A9BCBF8C2
:10C840001820CBF83C30CBF848C0069B40214FF471
:10C85000806C082B4FF00403CBF820104FF480516C
:10C86000CBF844304FF000030CBF06221222CBE974
:10C870001333CBE909334FF40033CBF838204FF4AE
:10C880008042CBF84030079BCBF83420CBE90BC17A
:10C89000002B00F052819DF82C30CBF89470022BC5
:10C8A00000F20D81AD4AAE4902EB8303069AD3F83C
:10C8B000E433082AB1FBF3F308BF5F2203F123033B
:10C8C00018BF1322CBF85C30DBF8983058469A80BA
:10C8D00046F0AEFB9AF868310BB1079B33B9099863
:10C8E00090229BF811309F4947F06CFA18EE102AFD
:10C8F0004146284605F084FCB8F1010F00F015818F
:10C90000B8F1040F00F0F780B8F1100F00F0C0810B
:10C91000B8F1400F00F0D181B8F5807F00F0DB81E5
:10C92000B8F5806F00F0DF81B8F5805F00F0E3813B
:10C93000B8F5803F00F0E7816A6D05F11800082323
:10C9400042F400626A6588490422884FC95CFF5C32
:10C950000B58BA4023EA02030B502B6843F0010343
:10C960002B600C9B002B00F0DB802B6A43EA8803D2
:10C970002B62089B9E420BD16B6C43F400436B64AB
:10C980002B6843F080032B602B6843F001032B607E
:10C990009AF85831002B40F0EF80039A0123049954
:10C9A0000BF1A00B01320BF8913C4B7401F1180311
:10C9B000042A039204937FF46BAD6D4B95E699F8CE
:10C9C0006D336C4A012BCAF8642105D0022B08BFD5
:10C9D000002F0CBF012300238AF8683150E5B823EB
:10C9E000721C03FB06A38AF86C21C3F87051B823AC
:10C9F0009AF86C21089906FB0303013A8BF8111091
:10CA0000CBF898302079089235F0E6FB08F0010168
:10CA10009AF8583101310BB188F001084901CBF87F
:10CA2000084041F00E01CBF81410627A35F026FC74
:10CA3000089B9E4200F0CF80069B063B0B93002391
:10CA400060220BF16401CBF8803008EE101ACBF8AD
:10CA50006420CBE91A33CBE91C33CBE91E3318F041
:10CA600002030C934FEA48032ED0012203F0020385
:10CA7000CBF86C20CBF87830002302224FF48030C2
:10CA80000A21CBF87030CBF88410CBF89020CBE99A
:10CA9000220362790C2A3FF6A5AE304B9AF8681152
:10CAA00003EB8203D3F8F083CBF8548000297FF4A2
:10CAB000A1AE2A4B03EB4202B2F8241425E08D23E9
:10CAC0001322CBF85C30FFE601214FF4807203F0B3
:10CAD0000203CBF86810CBF87C20CBF87430CBE79E
:10CAE000206846F06BFA95F8C93183427FF43DAE79
:10CAF000012307930FE5AA6905F11800012342F00D
:10CB00000802AA611FE790461146DBF89820ABF8AF
:10CB10000C10B2F8B43023EA0103A2F8B4306FE687
:10CB20002B6A43EA08032B6223E7AA6905F1180080
:10CB3000002342F00802AA6105E7FBB21821024671
:10CB400027F0FF00103BB3FBF1F105F04DFD3B6812
:10CB500043F010033B609EE6501A002088910508C0
:10CB600000D01213CD2000007496050868960508C1
:10CB700014140020513D040823684FF6FF716279B8
:10CB80003433995009E70A9A5821DFF8C0C1CBF82D
:10CB90003C20039A01FB02C12268CBF84830CBF855
:10CBA0009C1002F13403CBF81C1062791344CBF8CB
:10CBB00018304AE63A68FBB2182127F0FF0022F04D
:10CBC0000102103B3A60B3FBF1F105F053FD099807
:10CBD00047F01EF918E600224FF0FF311346ADF87A
:10CBE0003C20109212928DF84C2011914D4A52F82F
:10CBF0003320954269D001330E2BF7D10020069BDC
:10CC00009A1F0B92FCF72EFF2B6847499DF82C20AA
:10CC100023F00103D1ED5D7A022A2B60F8EE677AEA
:10CC20003ED84249DFED426A01EB820292EDF97A89
:10CC3000B8EE477A87EE870A30EE260A49F084FD7F
:10CC4000069B0138082BADF83C0014BF13225F226D
:10CC500000230FA92846119212938DF84C3010939F
:10CC600005F034FCEBE6DDF810A0324A324BCAE99D
:10CC70004E32FFF7CCBB314A01213148CAF8D420EB
:10CC80002D4ACAF8DC0089F89513CAF8D8202CE59B
:10CC9000AA6905F11800022342F40062AA6152E673
:10CCA0009FED287A9FED220AA7EE870A49F04CFDF6
:10CCB00001381322ADF83C00CAE7AA6905F1180053
:10CCC000032342F00802AA613DE6184A02EBC303BF
:10CCD00093F8780393E7EA6905F11800042342F01A
:10CCE0000802EA612FE6EA6905F11800052342F01F
:10CCF0000802EA6127E6EA6905F11800062342F412
:10CD00000062EA611FE66A6D05F11800072342F030
:10CD100008026A6517E69FED0C8AB0EE489AFFF7A5
:10CD2000E5BA00BFFC940508302801208891050869
:10CD30000AD7233CB9EE0208B5C50308B9C50308F4
:10CD4000B1C50308FCF4B2346F120339502300203C
:10CD500070B5524E96F8980135F03EFA96F8995112
:10CD600060B12D2304462021C38035F0DBFA0A2070
:10CD700032F0F0FB204635F0EBFC18B9D6F8CC3396
:10CD8000DA0000D570BD013D092DFBD896F897411A
:10CD9000CCB940202BF06CFC0028F3D090F9043083
:10CDA00096F86911092BC8BF143B0A29334493F83C
:10CDB000D04366D093F8DC3396F89621002A08BF5A
:10CDC0001C46002CDED0204635F006FA054608B198
:10CDD0002D23C3800121284635F0A4FA01210846FD
:10CDE00035F0E6FB0121284635F098FB3C2032F077
:10CDF000BDFB0021012035F0DBFB96F899311BB318
:10CE0000002400210134084635F0D2FB0021022025
:10CE100035F0CEFB0021284635F080FB782032F03B
:10CE200099FB0121002035F0C3FB0121022035F0E0
:10CE3000BFFB0121284635F071FB782032F08AFBD8
:10CE400096F899319C42DCDB96F897318BB9D6F88D
:10CE5000983103F0FF13B3F5803F93D1D6F8CC336C
:10CE600013F080538ED186F89931BDE8704042F0BE
:10CE700071BC322032F07AFB2846002135F052FA9C
:10CE8000E5E7D6F8F4335B057FF57CAF0EF032FDB5
:10CE900000287FF477AF002C95D173E7204A01205A
:10CEA000344870B490F8F833A3F13001092958D808
:10CEB00000F57E7400F20740224612F8015FA5F1EA
:10CEC0003001092904D88242F7D1002070BC704794
:10CED000141B022C4BDD2848002101E010F8013B17
:10CEE00001EB8101161A044603EB4103022EA3F164
:10CEF000300303F0FF01F1DC204B03FB01F1A24200
:10CF00004FF000030ED903EB830314F8016B5B00B1
:10CF1000A242A3F13003334403F0FF03F3D11848D6
:10CF200000FB03F32E2D06D01648A0FB032370BC94
:10CF300001EB9300704701320425002404EB8404C4
:10CF40001078013D303864000928A4B2204401D88B
:10CF5000013284B215F0FF05F0D1642202FB0433E4
:10CF6000E2E700211D4600F57E720B46DAE700215C
:10CF7000054CC4E7204A0120194E012080969800F4
:10CF800040420F00ABAAAAAA184E012038B50D46A0
:10CF90000446FF2100682A464BF0E0FE22682A443E
:10CFA000226038BD38B5041E0D4611DB092C1FDC8C
:10CFB0000846134B0021134AA3FB04C34170DB084E
:10CFC00003EB8303A4EB4303D35C0370284638BD13
:10CFD00064422D230846092C00F8013BE9D9084B8F
:10CFE00001460A22A3FB0430C00841F0FBFBE0E746
:10CFF00003480A22A0FB0430C00841F0F3FBD8E745
:10D00000CDCCCCCC880B06080C461646054683B51D
:10D010002BF0F8FA20462BF0F5FA0021204B0846B9
:10D02000002E08BF1E4635F0C3FA0021012035F05E
:10D03000BFFA284632F0E4FAB0B10121002035F001
