:020000040800F2
:10000000F8FF01209DBC090839BD0908F1EF070878
:1000100039BD090839BD090839BD090800000000CB
:1000200000000000000000000000000039BD0908C9
:1000300039BD09080000000039BD0908B5B107083D
:1000400039BD090839BD090839BD090839BD090894
:1000500039BD090839BD0908111B0808D91A080853
:10006000A11A0808691A0808311A0808652D000045
:10007000552D0000452D0000352D0000212D0000DC
:100080000D2D0000F92C000039BD090839BD090803
:1000900039BD090839BD090839BD0908F919080829
:1000A00039BD0908DD97090839BD0908CD97090848
:1000B000BD970908AD9709089D970908217C090893
:1000C000457C0908657B0908897B090839BD090851
:1000D00039BD0908F1190000E5190000D91900001F
:1000E000C119080839BD090800000000D5960908A3
:1000F000E5960908C59609080D970908E52C000042
:1001000039BD0908D55609088D97090839BD090870
:10011000CD190000C11900001D970908297B0408AA
:10012000D12C0000BD2C0000A92C0000952C000053
:10013000812C000039BD090839BD090839BD0908FD
:1001400000000000000000000000000000000000AF
:100150006D2C0000592C0000452C0000B519000042
:10016000A17A0908C97A090839BD090839BD090801
:1001700039BD090839BD090839BD0908000000006A
:1001800039BD090839BD0908A91900009D190000E9
:1001900039BD090839BD090839BD090839BD090843
:1001A00039BD090839BD090839BD090839BD090833
:1001B00039BD090839BD090839BD0908DD790908C3
:1001C000057A090839BD090839BD090839BD09088A
:1001D00039BD0908117F040839BD090839BD09086E
:1001E00039BD090839BD090839BD090839BD0908F3
:1001F00039BD090839BD090839BD090839BD0908E3
:1002000039BD090839BD090839BD090839BD0908D2
:10021000B5960908A59609089596090839BD0908F3
:1002200039BD090839BD090839BD090800000000B9
:100230000959090839BD09080000000039BD09083D
:1002400039BD090839BD090839BD090839BD090892
:1002500039BD090839BD090839BD090839BD090882
:1002600039BD090839BD090839BD090839BD090872
:1002700039BD090839BD090839BD09080000000069
:1002800039BD09080000000039BD09080000000060
:080290000000000039BD09085F
:0828000000001E080000200882
:020000040802F0
:04000000FFFFFFFF00
:020000040804EE
:10000000124B30B41D686B6A28B943EA01430020E3
:10001000AB6230BC7047AC6A013803EB14440BD0C0
:10002000002303F14002013305EB8202DBB2526888
:10003000834204EB1244F4D3403044EA014405EB1C
:1000400080004460002030BC704700BF6014002472
:1000500030B5EFF31181802383F312880A4AD2F876
:100060000834D2F80C44D2F80804D2F80C54CAB2BE
:1000700082F31188013BA84294BF4FF40060002036
:100080001B1B184430BD00BF60140024012380F8FE
:1000900051307047014BD3F81004704760140024AE
:1000A00001207047024BC3F81424C3F8181470479A
:1000B00060140024024BC3F81C24C3F820147047BA
:1000C000601400247047704700207047212870B5E5
:1000D00005D0222829D0202810D0002070BD00296A
:1000E000FBD0072AF9D1184B18791C685A799B79EB
:1000F000087100200C604A718B7170BD0029ECD032
:10010000072AEAD11148104B0C680E794D79D0F8C6
:10011000182489791C601E715D719971002ADCD0E8
:100120002146D0F814049047D7E70029D5D0022AF9
:10013000D3D1064AD2F82034002BCED00988D2F889
:100140001C049847C9E700BF000000246014002485
:100150000020704703460A2201481A80704700BFFA
:10016000080000240346642201481A80704700BF3B
:1001700014000024012901D000207047014BD3F85E
:100180009030184700000024012901D008F086BFF4
:10019000014BD3F88C30184700000024014BD3F8F2
:1001A000883018470000002410B40B780A46044633
:1001B00003F00303012B05D0022B0BD000205DF8C8
:1001C000044B70478B8843B9204611465DF8044BB9
:1001D0000FF062BE8B88832BF6D0034B5DF8044B87
:1001E000D3F88030184700BF0000002438B5054B15
:1001F00004460D46DB6F98472946204609F048FD26
:10020000002038BD0000002438B5054B04460D46DB
:100210009B6F98472946204609F072FD002038BDA3
:10022000000000242DE9F843884600294FD04718E4
:10023000461E284C802507F1FF39EFF3118185F325
:100240001288D4F80824C9B2D4F80C04D4F80834BD
:10025000D4F80CC481F31188634594BF4FF4006354
:100260000023121A1344012B1AD101203AF066FD23
:10027000EFF3118185F31288D4F80824C9B2D4F8B9
:100280000C04D4F80834D4F80C7481F31188BB4200
:1002900094BF4FF400630023121A1344012BE4D0DF
:1002A000EFF3118285F31288D4F80C34D2B216F829
:1002B000011F234483F82414D4F80C340133C3F30E
:1002C0000A03C4F80C3482F311884E45B5D1404678
:1002D000BDE8F88360140024F8B5002390F850506E
:1002E00080F85030CDB10F4E96F8C02E032A16D1AB
:1002F000D6F8047F00F13C0429462046FFF792FF20
:10030000D6F8043F2D1A0444DB1B322B01D8002DF4
:10031000F2D1B5FA85F04009F8BD0120FCE7184696
:10032000FAE700BF60140024002280F85120D3E7D0
:1003300090F85020531C0244DBB280F8503082F811
:100340003C1090F851200AB1132B00D9C4E7704734
:10035000F8B50B4E0D46144696F8C03E032B0ED151
:10036000D6F8047F002C0ADD21462846FFF75AFF05
:10037000D6F8043F241A0544DB1B322BF2D9F8BD12
:1003800060140024434B98422DE9F04111D003F54D
:1003900068530833984256D000233F4A1846A2F8C3
:1003A000703FA2F87C3FC2F8743FC2F8783FBDE8C6
:1003B000F081394C02230026384F04F60C75DFF823
:1003C000E480C4F8083FD7F8B0303146B34206F1B4
:1003D000010603D0D4F88C0F4FF036FE94F8903F0E
:1003E0002846D4F88C2F414685F82430303545F81E
:1003F000102C4FF0D1FFD4F8083F9E42E3DB0023DE
:1004000084F87E3FD4F8083F0120D4F8181FB4F8D0
:10041000102FD4F8145F12FB03F201FB03F3B4F8BE
:100420001C6FA4F8702FC4F8783FB4F8122F1C4B3F
:10043000C4F89C1FC4F8745FA4F87C6FA4F8722FF2
:10044000C4F86C3FB3E7144C02230026134F04F6A4
:100450000C75C4F8083FD7F8B0303146B34206F106
:10046000010603D0D4F88C0F4FF0EEFD94F8903FC6
:100470002846D4F88C2F303505F80C3C45F8102C64
:100480004FF042FFD4F8083F9E42E4DB012384F89A
:100490007E3FB7E71971EF006014002400000024CC
:1004A00090E709081940EF000F4B07B5D3F8B420C7
:1004B0005208B2FBF1F3B3F5803F02D3012AF7D81B
:1004C000F9E799B2019059F049FB084941F60C034C
:1004D000074A0198CA5001F5C05100220C3103B0FF
:1004E0005DF804EB59F0CAB9000000246014002440
:1004F00005C905081C4B93F8402193ED060A12B973
:1005000083EDC20A704793F8422132B1052A0BD01D
:1005100093ED650A83EDC20A704783ED650A83EDAA
:10052000690A83EDC20A7047104AF7EE007AD3F8E1
:100530004401D2F8041FD3F85421091AD3ED655AA7
:10054000013207EE101AF8EEC76A07EE102AB8EE6D
:10055000C77A86EE876A77EEC67A67EEA57AE0EE0E
:10056000067AB0EE670ACBE7F8000020601400249A
:10057000154BDB68C3F3022310B4C3F107041A1D43
:10058000042C28BF0424062A4FF0FF328CBF033B03
:100590000023A240002821EA020101FA03F108DB4E
:1005A00009010A4BC9B2034483F800135DF8044BF8
:1005B000704700F00F000901054BC9B203441976DA
:1005C0005DF8044B704700BF00ED00E000E100E083
:1005D000FCEC00E02D4B41F287302D490022D3F88E
:1005E000B430A1FB03132B49DB0C10B52A4C013BA3
:1005F00082B0C4F8280704F21C70C4F81C17C4F8B1
:100600002C27C4F82427C4F820370CF005FE234B10
:1006100006213720D3F8E82042F02002C3F8E82072
:10062000D3F8E83003F020030193019BFFF7A0FF0C
:100630001B4B4FF400025A6094F85937012B14D128
:10064000D4F81C370221174A84F85917D96841F0A9
:100650000101D96099680A40062A06D0B2F5803FA8
:1006600003D01A6842F001021A600F4B00200F49B4
:10067000D3F8E82E03F22444C3F82004C2F8100291
:10068000C3F81804C2E9811402B010BD00000024B0
:1006900083DE1B4300140040582500240044025808
:1006A00000E100E00700010060140024C02C0024D9
:1006B00003689B0AA3F58013522B00D970470F4A99
:1006C000134493F82C300D2BF8D803EBC302002908
:1006D0000B4903EB420370B584B014BF0026022619
:1006E0004279012501EB830000246946CDE90065CC
:1006F000CDE902440CF092FB04B070BD90E709080C
:10070000C03400240D4B4FF6FF71D3F8B42010B560
:100710000446520859F022FA00212046FFF7C8FF8C
:100720000749084A41F610032046CA5001F5C05156
:1007300000221031BDE8104059F0A0B8000000249C
:1007400060140024A9B005084309012200F01F002D
:100750008AB0023B02FA00F0082B11D8DFE803F060
:10076000665A4E42362A1E120500364BD3F8F42044
:100770000243C3F8F420D3F8F42010400190019B09
:100780000AB070472F4BD3F8E0200243C3F8E020B3
:10079000D3F8E02010400590059BF1E7294BD3F8F2
:1007A000E4200243C3F8E420D3F8E4201040029090
:1007B000029BE5E7234BD3F8D4200243C3F8D420AF
:1007C000D3F8D42010400690069BD9E71D4BD3F8F0
:1007D000DC200243C3F8DC20D3F8DC201040089072
:1007E000089BCDE7174BD3F8D8200243C3F8D82095
:1007F000D3F8D82010400990099BC1E7114BD3F8DA
:10080000EC200243C3F8EC20D3F8EC201040039016
:10081000039BB5E70B4BD3F8E8200243C3F8E8206D
:10082000D3F8E82010400490049BA9E7054BD3F8C7
:10083000F0200243C3F8F020D3F8F02010400790D6
:10084000079B9DE70044025800284DD0274A2DE918
:10085000F84F0446264B006803449B0A02EB43030F
:10086000B3F88000FFF770FFB4F804C02368BCF150
:10087000000F37D000204FF0010B4FF0030A4FF06C
:100880000F0900F007020BFA00FE45000224C7081A
:100890001CEA0E0F4FEA82020AFA05F603EB8707FD
:1008A00000F1010009FA02F804FA05F501FA02F272
:1008B00015D09C6824EA06049C605C6824EA0E0457
:1008C0005C60DC6824EA0604DC603C6A24EA080414
:1008D00014433C621A6822EA06022A431A603CFA70
:1008E00000F2CED1BDE8F88F704700BF90E709084D
:1008F0000000FEA700284CD0264A2DE9F84F0446F8
:10090000254B006803449B0A02EB4303B3F88000C5
:10091000FFF71AFFB4F804C02368BCF1000F36D00B
:1009200000204FF0010B4FF0030A4FF00F0900F0C9
:1009300007020BFA00FE45000224C7081CEA0E0F4E
:100940004FEA82020AFA05F603EB870700F101007D
:1009500009FA02F804FA05F501FA02F214D09C68CB
:1009600034439C605C6824EA0E045C60DC6824EA22
:100970000604DC603C6A24EA080414433C621A68FA
:1009800022EA06022A431A603CFA00F2CFD1BDE8FF
:10099000F88F704790E709080000FEA700487047ED
:1009A0009439002470B4204D06460468E36931EAA6
:1009B000030323D0D5F864369B1AB3F1007F236874
:1009C0001FD25807F2D5E3691B05EFD54FF400623B
:1009D0002023002103202262226822F4D0722260A8
:1009E000A26822F00102A260C6F8803086F87C106E
:1009F000C6F88430C6F8883070BC7047002070BCE0
:100A0000704723F4D0732022002103202360A368C1
:100A100023F00103A360C6F8802086F87C10C6F896
:100A2000842070BC704700BF503600240128B5EE0A
:100A3000C00A10D0F1EE10FA0BDD9FED177ADFED52
:100A4000177AE0EE077AFCEEE77A17EE903A98B262
:100A5000704700207047F1EE10FA0BDD9FED107A21
:100A6000DFED107AE0EE077AFCEEE77A17EE903AC7
:100A700098B27047EDD5F7EE006A9FED0B7ADFED87
:100A80000B7A30EE260AE0EE077AFCEEE77A17EEF4
:100A9000903A98B2704700BF00E0F944000040422D
:100AA00000C079440000834400C079C400E082445F
:100AB000F8B5474E96F8684604EB8403A50006EBAC
:100AC000830393F86C36032B77D8DFE803F0492AC9
:100AD0001F02254406EB8505D5F87036002B6ED134
:100AE00096F8BC26944268D0013404F003018A428F
:100AF00086F8681661D001EB81040222184606EBE5
:100B00008404C4F8703684F86C26F8BD2B1906EB03
:100B10008303D3F8702672B1013A0020C3F870261F
:100B2000F8BD2B1906EB8303D3F87026002AF3D106
:100B3000022283F86C26254406EB850595F8783665
:100B4000013BDBB285F87836F3B1224B0120D3F8B4
:100B5000B82002F2E733B3FBF2F3C5F87036F8BD04
:100B600042F07CFF48B31B4A42F20F732C44012130
:100B7000D2F8B82006EB8404134484F86C16B3FB57
:100B8000F2F3C4F87036F8BD124B601C0327D5F899
:100B90007416D3F8B820384096F8BC46531E85F832
:100BA0006C76001B0B4418BF01209A42B3FBF2F194
:100BB00088BF0020C5F8701630B90120F8BD013B90
:100BC0000020C5F87036F8BD0139C5F87016F8BDBB
:100BD000503600240000002490F83C30012B00F037
:100BE000BE810123F0B580F83C30142A54D8DFE8E8
:100BF00012F058005300530053009F00530053005D
:100C000053007501530053005300E3005300530099
:100C10005300260153005300530015000368D1F818
:100C200008C01D6A0F6825F48015A64E1D62B342E8
:100C30001A6AD3F804E05C6D22F4001224F4E04454
:100C400042EA0C5244EA07240ED09F4DAB420BD02F
:100C500006F5804605F58045AB4218BFB34203D088
:100C600005F58065AB4204D12EF4003E4D694EEA95
:100C7000852E4D68C3F804E05C65DD651A625C6D25
:100C80000D6944F400645C65596D21F48061596517
:100C90005A6D42EA05225A65002380F83C30184616
:100CA000F0BD03688E681D6A0F6825F00105874C4A
:100CB0001D621A6A5D6822F00202D3F818C032433E
:100CC000804E0CEA0404B34244EA07040ED006F551
:100CD0008066B3420AD07E4F06F58046B34218BF05
:100CE000BB4203D006F58066B3420BD1CE6822F03A
:100CF00008028F6925F4407532434E693E4322F065
:100D0000040235434E685D609C615E631A629C69B3
:100D10000D6944F008049C61996921F0040199610E
:100D20009A692A439A61002380F83C301846F0BD46
:100D300003688E681D6A0F6825F01005654A1D62FC
:100D40001C6AD3F804C024F020049D6944EA061408
:100D50005C4E2A40B34242EA072200F002815A4D1B
:100D6000AB4200F0FE805A4E5B4DAB4218BFB3421F
:100D700003D005F58065AB4206D14E692CF4406C7A
:100D80008D6935434CEA850C4E68C3F804C09A61FE
:100D90009E631C629C690D6944F400649C619969BE
:100DA00021F4806199619A6942EA05229A610023DF
:100DB00080F83C301846F0BD0368D1F808C01D6AC1
:100DC0000F6825F480553F4E1D62B3421A6AD3F86E
:100DD00004E0DC6922F4005224F4E64442EA0C32D6
:100DE00044EA07240ED0384DAB420BD006F58046BE
:100DF00005F58045AB4218BFB34203D005F58065C9
:100E0000AB4204D12EF4804E4D694EEA851E4D68EA
:100E1000C3F804E0DC611D641A62DC690D6944F406
:100E20000064DC61D96921F48061D961DA6942EA40
:100E30000522DA61002380F83C301846F0BD0368D3
:100E4000D1F808C01D6A0F6825F480351D4E1D625B
:100E5000B3421A6AD3F804E05C6D22F4003224F045
:100E6000700442EA0C4244EA07040ED0164DAB422D
:100E70000BD006F5804605F58045AB4218BFB3425E
:100E800003D005F58065AB4204D12EF4803E4D6958
:100E90004EEA052E4D68C3F804E05C659D651A6254
:100EA0005C6D0D6944F008045C65596D21F0040126
:100EB00059655A6D2A435A65002380F83C3018461C
:100EC000F0BD00BF00000140000401408CFFFEFFA8
:100ED00000400140FF8CFFFE004401400368D1F850
:100EE00008C01D6A0F6825F48075264E1D62B34246
:100EF0001C6A5D68DA6924F4007422F0730244EA23
:100F00000C2442EA070234D006F58066B34230D0A2
:100F10001D4F1E4EB34218BFBB4203D006F580667C
:100F2000B34206D125F440574E698D69354347EAEF
:100F300005154E685D60DA61DE631C62DC690D696F
:100F400044F00804DC61D96921F00401D961DA694F
:100F50002A43DA61002380F83C301846F0BD0220B5
:100F6000704724F08004CE6844EA061424F040045C
:100F700003E724F40064CE6844EA062424F4806481
:100F8000D0E700BF000001400040014000440140A4
:100F90002DE9F041D0F8008088B004460E46404666
:100FA000174658F037FE002843D0054631464046E4
:100FB000234A58F0EBFC23689B0AA3F58013522BBD
:100FC00021D8204A134493F82C100D291BD8237ADA
:100FD0004C261D485A000297DB0001FB060002F078
:100FE0000202602103F008034FF4807603924FF46D
:100FF000007204930023019101A90593CDE90662D3
:101000006279FFF7E9FD237A284661799B0713D4BB
:101010000CF080F828460CF0A5F9206863790024CC
:1010200000F134020949D518C1F8C406C1F8C05608
:10103000D45008B0BDE8F0810BF092FEEAE700BFA3
:1010400040420F0090E70908C034002450360024C5
:101050002DE9F04FDFF8E0B18DB06C2200210BF5E7
:10106000DB605DF0C9F90BF244704FF431726649F0
:101070005CF060FA9BF8083A3BB19BF8092A9BF8B0
:101080000A3A8BF8D8268BF8D9369BF80B3A1BB165
:10109000BBF80C3AABF8E4369BF80E3A3BB19BF840
:1010A0000F2A9BF8103A8BF8F0268BF8F1369BF854
:1010B000113A1BB1BBF8123AABF8FC369BF8143A64
:1010C0003BB19BF8152A9BF8163A8BF808278BF84A
:1010D00009379BF8173A1BB1BBF8183AABF814372D
:1010E0004A4B00254A4A1B8812881B09494C4A4929
:1010F000C3EB12102288CBF8283A1309474C484F0B
:10110000484ECBF8243A91FBF0F1CBF82C1A0DE0C5
:10111000072D00F0E981082D00F0ED8120780028EE
:1011200040F0A78101350C34092D2AD0062DEFD1CE
:1011300002214FF4802CB8460A46EC234FF0070EEC
:101140006170012103FB02B32078C4F80480D3F856
:101150002C2884F80AE042EA0C026172C3F82C28B9
:101160000028DFD03DF032FBEB1DDBB210B10022D6
:101170008371C2710135032139F076F80C34092DE1
:10118000D4D1294C0025DFF8B490DFF8B480274F84
:10119000DFF8B0A0264E54F8083C002B00F0058183
:1011A000D4F8E020002A00F00081EC22236002FB4A
:1011B00005B2D2F8A01741F00201C2F8A017996851
:1011C0009A6801F0040102F008020A43DA6845D087
:1011D000920105D5A18A40F20112914200F0FB82F2
:1011E0009A68520700F1EC829A68120708D59A684B
:1011F000910705D499680F4A0A4042F020029A608C
:101200000C21DBF8640625E024E8090820E8F11F3A
:1012100040E8F11F60E8F11F80380100283D0024FC
:10122000000084CB90E709089C3D0024200882E060
:1012300000210240C0FFFF7F503600241CF800FC54
:10124000300882E0E03000FEDBF86426121A052A3E
:1012500000F2DB829A680A42F6D1DA6842F40012A0
:101260002046DA6013F0B8FE002800F0838223687D
:1012700040F2FF7CAA490022D3F804E00EEA010103
:10128000DFF8B8E25960C3F800C09968DFF8B0C26F
:1012900021F0A0419960996841F000519960D968A6
:1012A00001F08021D960D96841F00041D960196905
:1012B00001EA09011961596901F0404159619969CF
:1012C00001F078419961196A01F07C411962596A0B
:1012D00001F07C415962D3F8B01001F07C41C3F8B1
:1012E000B010D3F8B41001F07C41C3F8B410D3F8B7
:1012F000B81001F07C41C3F8B810D3F8BC1001F06D
:101300007C41C3F8BC10196B01EA08011963596BE1
:1013100039405963996B39409963D96B01EA0E0ED4
:101320008049C3F83CE08B42D3F860E01A66D3F8FA
:1013300064E05A66D3F868E09A66D3F86CE0DA663F
:10134000D3F8A02002EA0C02C3F8A020D3F8A4200E
:1013500002EA0C02C3F8A420D3F8C02002EA0C026F
:10136000C3F8C020D3F8C42002F0F822C3F8C42088
:1013700000F09081B34200F08D816B4B9B68DB07DE
:1013800004D46A4B9A6802EA0A029A60EC220023AB
:1013900002FB05B2C2F8A437C4E91733C2F8A0377C
:1013A00084F85030002840F074810135EC34032D6E
:1013B0007FF4F1AEDFF880914FF0000A4D46D04641
:1013C000CDF81490D5F8E830002B40F06E8108F18C
:1013D0000108EC35B8F1030FF4D10026DDF81490C4
:1013E000DFF860813546524FDFF85CA1D9F8E8306C
:1013F000002B00F04581D9F808404A4A944200F099
:101400005281444500F04F8148488268A1684907ED
:101410002ED499F8581001292AD002F01F02012178
:10142000092A89F8581000F2C48140F22121D140E4
:10143000C90740F1BE81A16811F0010140F09E8012
:10144000D4F808E0DFF804C11EEA0C0F5AD0EC23F0
:1014500003FB05B5D5F8A03785F89C1743F01003BA
:10146000C5F8A037D5F8A43743F00103C5F8A43771
:10147000FEE7304A002301331E2B3FF453AE12F82F
:101480000C1F8842F7D194F901104A1E41B103EBB9
:10149000430106EB810191F859131141C90716D494
:1014A00003EB43012448002206EB8101D0F800C081
:1014B000EC30BCF1000F06D091F859C34CFA02FC95
:1014C0001CF0010F03D10132032AEFD12AE60C20D0
:1014D0004FF0010C51B200FB036393F86003D3F8A3
:1014E0005C830CFA00FC28E602214FF4002CDFF8A4
:1014F00060800A4621E602214FF4003CDFF8548068
:101500000A461AE6A168394041F00101A160DBF802
:1015100064C68168C9062ED044452CD12EE000BF98
:1015200000F8FFFF002002400060025800630258EC
:10153000C0FFFF7FE8EA0908943D002420F8FFFF80
:101540000000F0FF00210240002302403F00008025
:101550000000B8CF000052C7A168C80704D4A16832
:10156000394041F00101A160DBF86416A1EB0C01E8
:10157000022900F25B842168C907EDD5EC20AD4952
:10158000444500FB05B0D0F8A0C70CEA010141F4C6
:101590008071C0F8A01700D142B9EC2202FB05B25D
:1015A000D2F8A01721F48011C2F8A017EC2202FB98
:1015B00005B2D2F8A01711F4805140F02283C2F88E
:1015C000A4174FEA530ED9F8540099089A4A0EF01E
:1015D000773E01F03331C263DA088E44974902F056
:1015E0001132A3EB0E0E0164954B1C21AEEB020EE3
:1015F000C364FF2321600EEB1E1E626800210EF003
:101600000F3E42F0100289F8581004F14001626068
:10161000E268BEFBF3F322F0030CD9F83420C3EBED
:1016200003234CEA0202DFF840C2AEEB0303E260A0
:101630000CEB460213F00CF8D9F8082093683B40F5
:1016400043F004039360002840F0A483D9F8E83005
:101650007C4A59089C0801F07731D80804F03334EB
:1016600000F0113021445B1A1B1A03EB131303F033
:101670000F33A2FB0312D209C2EB02229B1A1E44B3
:10168000013509F1EC09032D7FF4B0AE0DB0BDE8D2
:10169000F08FFEE76C4B9B68B2681343DA073FF5A7
:1016A00075AE6A4B6EE65046AFE6A8880426FFF793
:1016B0004BF8D5F8E830FF22AE6159089C0801F0DC
:1016C0007731D80804F0333400F01130214403247A
:1016D0005B1AEC211B1A286801FB08B103EB1313FA
:1016E000A8604FF4403003F00F33E8600820B3FBEC
:1016F000F2F2C2EB0222286101209B1A00226861EB
:101700002B624FF480536877A8622A7785F82420EB
:1017100085F840200692C5E90B22C5E90D43D1F8B2
:10172000A037002B00F00982AF68BB68980003D592
:10173000BA68474B1340BB60BB6813F0805F454BF2
:101740001FD00193BB68D90040F1E7810024BB683A
:101750005A0740F18B80EC2303FB08B3D3F8A03782
:10176000EC2303FB08B3D3F8A02742F01002C3F820
:10177000A027FEE7EC23012203FB05B3C3F8A02753
:1017800075E5B9681A460193334BD2F8B4200B4083
:101790003249B2FBF1F243F08053BB600692069BE4
:1017A000002BCFD0069B013B0693069B002BF9D163
:1017B000C8E7EC22002302FB05B585F89C3757E605
:1017C0009A6891073FF510AD9968254A0A4042F0A2
:1017D00010029A6008E51A68500606D4214A01E012
:1017E000013A12D019684906FAD540221A609A685F
:1017F000500708D59A68900705D49968184A0A4096
:1018000042F010029A600421FBE4EC22012002FB6A
:1018100005B2D2F8A01741F01001C2F8A017D2F813
:10182000A4170143C2F8A417DA6842F40012DA6080
:101830001DE500BFFEF0FFFF310E05082D0E050867
:10184000190E05088180808000200240002302409C
:10185000C0FFFF5F00000024C0FFFF6F400D0300CA
:10186000C0FFFF7F00DC0C0000210124EC2303FB00
:1018700008B3D3F8A027D6063FF572AFD3F8A02758
:1018800022F4817242F00202C3F8A027BB68DB0792
:1018900013D4AC4B9F4200F0BF8203F580739F428C
:1018A00000F0BA82A84B9B68D80706D4A7498B687A
:1018B000EA6823F47C1313438B60A54A41F20303C7
:1018C0001268B3EB124F2A69C0F0A281AB6B697F3B
:1018D000134395F8242043EA413343EA0243012AA3
:1018E00003D1AA6A013A43EA4243EA6A22B102F406
:1018F0007872296B0A431343F968964A0A401343E6
:10190000FB60B868BB6800F0040003F008031843EC
:1019100000F02C81AB686A69012A00F0FD811A6B26
:1019200022F00F021A63EC2707FB08B7D7F8A0379D
:1019300007F5F46623F0030343F00103C7F8A0376B
:10194000002C40F0908195F858300794012B00F05E
:10195000828105F1080318460493012385F8583065
:1019600013F03AFB002840F07781D7F8A0177A4AA5
:101970007A4B0A407A4942F00202C7F8A027AA68C7
:101980009068034043F0004393609368002BC0F2DB
:101990004D81EC220020734F02FB08B201460290F9
:1019A000D2F8A03723F0030343F00103C2F8A037B5
:1019B00085F8580006E0029B0C370133092B02938F
:1019C00000F062817B7A002BF5D097F90130434516
:1019D000F1D1654B00224E1C87F808A003EB810073
:1019E00095F858300AF101010892012BD0F8C04453
:1019F0007A68039100F04781AB680120996885F807
:101A00005800490700F13081C2F3130EBEF1000FF8
:101A100040F08A81C2F3846C910E00FA0CF0D3F886
:101A20001CA04FEA941903F1300C04F01F044AEA99
:101A3000000A09F00C004FF01F09C3F81CA001EACE
:101A4000090150F80CA009FA04F9A1402AEA090991
:101A500049EA010140F80C109868996800F0040008
:101A600001F00801014345D1D10DC2F3045A03F13D
:101A700014044FF0070901F004014FF0060C09FAB5
:101A80000AF908590CFA0AFCDFF8C4A020EA090098
:101A900040EA0C000851DAF8001001F07041B1F191
:101AA000805FD96800D0D968196E900601F0F841BE
:101AB000B1EB826F03D1196E21F000411966596EA6
:101AC00001F0F841884203D1596E21F00041596676
:101AD000996E01F0F841884203D1996E21F00041DE
:101AE0009966D96E01F0F841884203D1D96E21F090
:101AF0000041D9669968C80708D4D3F8C010002AF5
:101B000021EA0E01C3F8C010C0F21881002331464B
:101B1000DDF80CA085F858304DE7EC23012403FBD9
:101B200008B3D3F8A02742F01002C3F8A027D3F8D7
:101B3000A4272243C3F8A42709E6C1F8A43785F8EF
:101B40005830F1E50020024000600258006302585E
:101B50000010005C03C0F0FFFDEEFFFFC0FFFE3F82
:101B600000F8C325283D002490E70908FB68BD4A1A
:101B7000297F1A406B6B42EA813295F8401013437B
:101B80000129FB6000F088813B6923F001033B6180
:101B90003A69EB6B22F07042B34913438F423B61C9
:101BA00000F05881B14B9F4200F05481B04B9B68CC
:101BB00013F4403F14BF01230023002B00F0A08149
:101BC0000CF02CFBEB68B3F5003F00F09581B3F50A
:101BD000403F00F08181B3F5803F00F08D81A54A40
:101BE00041F203031268B3EB124FC0F06C81A24BB9
:101BF000984240F26281AB689A6842F480729A60BF
:101C000089E6D2F8A41721F00601C2F8A417D8E497
:101C1000102A7FF45BAE95F82420687F1104AB6B2B
:101C200041EA40310B4343F01C0358E6079B013364
:101C30000793079B8B42FFF4A8AEEC23002103FB24
:101C400008B3D3F8A02783F89C1722F0120242F0C1
:101C50001002C3F8A027FEE7336887F89C4743F0DB
:101C600010033360F7E784E5EC2303FB08B3D3F8F4
:101C7000A02742F02002C3F8A027EC23002203FB98
:101C800008B383F89C27FEE77C4B5FFA88F60220B6
:101C90004344314693F9192039F09CFC47680446C7
:101CA000384639F087FC01994FF0240C431E0CFB99
:101CB000031393F8D81000297FF4E8AC01364FF0F5
:101CC000060C83F8D96083F8D8C000283FF4DEAC56
:101CD000A3684FF480644FF48072EF662B674FF473
:101CE00000664FF480334FF40057EC6705F16C0445
:101CF0006967A967C5E92223C5E9206756F0F2FBA9
:101D0000204612F04FFE204612F02EFF049B6C6519
:101D1000C5F8A430FFF75BBB196B2A6A21F00F01ED
:101D2000013A0A431A63FEE592FAA2FCBCFA8CFC63
:101D3000910E0CF01F0C00FA0CF070E64A498B4231
:101D40002AD001F580718B4226D04D4948488468DD
:101D5000896804F0E07CC94301F00101002983D0C7
:101D600048498A4239D048498A4226D047498A425E
:101D70007FF4CCAE64023FF5C9AE414A93427FF492
:101D8000C5AE836823F0E07343EA0C0343F4800399
:101D90008360BBE6FFF76CBB3D498C680846A1F544
:101DA000407104F0E07CD1F80890D1F808E149EAEC
:101DB0000E01C94301F00101D0E7E2013FF5A6AEF3
:101DC0002F4A93427FF4A2AE836823F0E07343EA84
:101DD0000C0343F08073836098E621023FF596AED2
:101DE000274A93427FF492AE019B8268D3F8B430C5
:101DF000284922F0E072B3FBF1F342EA0C0C5A00DE
:101E00004CF400038360089202E0089B013B0893B6
:101E1000089B002BF9D179E6134B144A9B68926812
:101E20001343DE073FF549AD194940E5EC23002295
:101E300003FB05B5D5F8A03785F89C2743F01003C0
:101E4000C5F8A037D5F8A43743F00103C5F8A43787
:101E5000FFF70EBB0E4B9B6813F4403F14BF0123EA
:101E60000023AAE6FCBFFFFF002002400021024041
:101E7000006302580010005C002D3101584000241E
:101E800000600258000084CB000052C70000B8CFA9
:101E900000230240400D0300D5E91123E96C013A0B
:101EA0002E6D0B43396943EA02434F4A33430A40DC
:101EB000134343F001033B616AE6AB689A6822F47E
:101EC00080729A6027E5494B984207D8AB689A68B8
:101ED00022F440729A601EE5800880E6444B9842E6
:101EE0003FD9444B9842AB689A6824D822F4407298
:101EF00042F400729A600EE51B0CB0FBF3F06EE644
:101F00003D4A936D03F44033B3F5803F5BD0B3F5A6
:101F1000003F4BD0002B5FD0EB68B3F5101F43D0D0
:101F20000DD8B3F5E01F3DD023D9B3F5001F7FF4E2
:101F300056AE400953E642F440729A60EBE4B3F5C2
:101F4000201F4ED0B3F5301F7FF449AE2B4A41F22B
:101F500003031268B3EB124FAFD2244BB3EB102F35
:101F6000B4D2AB689A6822F4407242F480729A60EC
:101F7000D1E4B3F5801F07D00BD9B3F5A01F03D070
:101F8000B3F5C01F7FF42BAE9B0C5B00B0FBF3F0EE
:101F900025E6B3F5002FF7D023F40022B2F5802F09
:101FA000F2D01CE600091AE6800918E6D36C13F09B
:101FB00040530FD0B3F1805F0AD0114AB3F1005FF4
:101FC00008BF1046A8E709A80BF0E8F90B98A3E7AB
:101FD0000C48A1E70C489FE709A80BF08BFA099879
:101FE0009AE7C009FBE500BF1EF800FC21BCBE005B
:101FF00041787D0181F0FA02004402580010005C33
:1020000000127A0000093D000090D0032DE9F04154
:10201000D0F800E00C46DFF8588084B0DEF80450B9
:102020001746DFF850C0194605EA0805DDF8288094
:10203000064603932C43424644EA0C0CCEF804C0F7
:102040000EF0A4F878B931680246039B30468F62DF
:102050008021CDF800800EF0C9F8003818BF0120AB
:1020600004B0BDE8F081012004B0BDE8F08100BFFC
:10207000009800FC00200181F8B5134F04460D467E
:102080000AE09B69DB0602D50EF040F8D0B9D7F81C
:1020900064365B1B0A2B08D823682A460A2120468F
:1020A0009E69B606EDD50020F8BD636C20210022A4
:1020B00001200B4384F84020636484F8411084F8C5
:1020C0004220F8BD0120F8BD503600242DE9F04132
:1020D000D0F800E00C46DFF8588084B0DEF80450F9
:1020E0001746DFF850C0194605EA0805DDF82880D4
:1020F000064603932C43424644EA0C0CCEF804C037
:102100000EF044F878B931680246039B30468F627E
:102110004021CDF800800EF069F8003818BF01208A
:1021200004B0BDE8F081012004B0BDE8F08100BF3B
:10213000009800FC00200180F8B5364C05460821C7
:10214000D4F8300AD4F864660AF01EFC00B1F8BD79
:10215000D4F8741AD4F8300A09040AF0B5FB002840
:10216000F5D1D4F8303A4FF0FF31082259629A6223
:1021700001301F28FCD9DA6A0020274941F23317C1
:1021800022F0FF0242F03302DA6298601846DA6801
:10219000114041F288320F433321DF600AF0FAFA2E
:1021A0000028D4D1D4F8302A8446074640F22A5178
:1021B00004E0D4F864369B1B01331ED0536B0B42F2
:1021C000536B09D11B03F4D40028F2D1D2F88070EC
:1021D0000120D2F880C0ECE7190714D4536B9B0799
:1021E0000ED4506B10F0200010D19CFA8CF33FBA43
:1021F0000A499163C5E90037F8BD4FF00040F8BDCA
:1022000002209063F8BD08209063F8BD2020906301
:10221000F8BD00BF50360024C0E0FEFF3A0F0018A2
:1022200070B5114C41F20D13104D41F28832D4F8C3
:10223000741AD4F8300A0E040D218660C668354041
:102240002B43C3600AF0A6FA38B1D4F8642A0346D7
:1022500000201343C4F8643A70BDD4F8303A58698A
:10226000C0F3432070BD00BF50360024C0E0FEFF25
:10227000F8B500286FD0474C94F8603A012BDEB2D5
:1022800055D18B18D4F8805A0027AB42C4F8647A31
:1022900050D8D4F8683A4FF0030ED4F8305A4FEAC9
:1022A000422C012B84F860EA4FF00003EF6218BF64
:1022B00049024FF0FF37C4F858CAC4F8540A6F6295
:1022C000C5F828C001331F2BFCD9EB6A012723F086
:1022D000FF03BA4243F09203EB62EB6843F0400322
:1022E000EB60A8652F6540D982232B4F2846C4F8A0
:1022F0005C3A41F21213A9601221EA68174041F2D8
:1023000088323B43EB600AF045FAD8B1D4F8301A72
:102310000122224D00238D63D4F8641A0843C4F8C7
:10232000640A304684F8602AC4F85C3AF8BD022694
:102330003046F8BDD4F8643A304643F00073C4F830
:10234000643AF8BDD4F8302A0646D36B304643F4DD
:102350009573D363F8BD0F4A0126D2F8643A30462C
:1023600043F00063C2F8643AF8BD81230A4F28465F
:10237000C4F85C3A41F21113A9601121EA681740D0
:1023800041F288323B43EB600AF004FA0028D9D0CE
:10239000BCE700BF50360024C0E0FEFFFF0FE01F87
:1023A000F8B50121514D12F01F04C5F8D01A6FD1B4
:1023B0004FEA432CBFF34F8FBCF1000F08D002EB64
:1023C0000C0711464A4EC6F868122031B942FAD1BC
:1023D000BFF34F8FBFF36F8F002A7ED095F8601A3E
:1023E000012953D103EB000ED5F8806A002701467E
:1023F000B645C5F8647A68D8D5F8686A4FF0030E18
:10240000D5F8300A012E4FF0FF3685F860EA18BF84
:102410004902C762C5F84C2A4662C5F850CAC0F8DE
:1024200028C001341F2CFCD9C46A012624F0FF0403
:10243000B34244F09004C462C46844F04004C460F1
:102440008265066526D9A0222A4C41F21913C5F8E7
:102450005C2A41F288328160C1680C401921234313
:10246000C3600AF097F903463BB3D5F8300A01215F
:10247000214C002284632A20D5F8644A2343C5F8FE
:10248000643A85F8601AC5F85C2AF8BD2A20F8BDC0
:102490000920F8BD9022174C41F21813C5F85C2AA8
:1024A00041F288328160C1680C4018212343C36027
:1024B0000AF070F90346002BD7D1D5F8302A184618
:1024C000D36B43F48D73D363F8BDD5F8643A2A20F7
:1024D00043F00073C5F8643AF8BDD5F8643A2A2091
:1024E00043F00063C5F8643AF8BD00BF50360024DD
:1024F00000ED00E0C0E0FEFFFF0FE01F134B30B423
:10250000D3F8DC0A0025D3F8E42AD3F8E04A20F017
:102510001F01C3F8CC5A04FB0202521ABFF34F8FBB
:10252000AA420DDD013A01F12003094822F01F0201
:102530001A449342C0F85C12194603F12003F8D103
:10254000BFF34F8FBFF36F8F30BC704750360024FE
:1025500000ED00E00B4BD3F8CC2A3AB1D3F8D42AE3
:1025600000210132C3F8CC1AC3F8D42AD3F8D02AF8
:102570003AB1D3F8D82A00210132C3F8D01AC3F8EF
:10258000D82A70475036002470B5214DD5F8D03484
:1025900093F82620DAB11B699847E0B1D5F8D0341A
:1025A00093F824208AB105F2D44600241A19E0B227
:1025B0009B69013492F82C10B6EC010A9847D5F8C3
:1025C000D03493F824209442F0DB5B69984795F867
:1025D000E434332B00D070BD95F8E834002BFAD0EA
:1025E000D5F8D03493F82430042B1E46A8BF042617
:1025F000002BF0D00024074D23460134184654F038
:1026000083F945F8040BE3B29E42F6D870BD00BFD3
:10261000F8000020E40500202D4C00252D49002263
:1026200008B504F2D443CD601A605A609A60DA604B
:10263000FFF7AAFF322038F081FBD4F8D034DB68F2
:102640009847D4F8D03440F2DC5083F826509D628D
:1026500083F8255038F0F2F8D4F80C3513B11D602A
:10266000C4F80C55D4F814351BB100221A60C4F814
:102670001425D4F81C351BB100221A60C4F81C259F
:10268000D4F824351BB100221A60C4F82425D4F8EC
:102690002C351BB100221A60C4F82C25D4F834352F
:1026A0001BB100221A60C4F83425D4F83C351BB1A4
:1026B00000221A60C4F83C25D4F844351BB100222E
:1026C0001A60C4F84425642038F038FB57F01EFF28
:1026D000F8000020504000582DE9F84FCB4C05463B
:1026E00094F8E81AD4F8F00AC1F340013CF03EFA3D
:1026F00094F8E81AD4F8EC0AC94301F001013CF05F
:1027000035FA002D00F0E78005F1FF39C04E4FF09B
:102710001008C04F5FFA89F9BF4DD4F8F03A33B1D1
:102720001A689B8851690B4218BF1B049361D4F847
:10273000EC3A33B11A689B8851690B4218BF1B04ED
:102740009361B4F8F83A002B40F0578194F8FA1AE4
:10275000D4F8FC0A3CF00AFAFA204FF47A714FF0F0
:10276000010C7B68C3F30803002B40F01981EFF3E1
:102770001183002B40F01481D6F8042FD5F808E01F
:10278000D6F8043F9A42F7D1D4F8083B9E45F3D8D7
:10279000D4F804AB01FB0AF3A3EB0E03B3FBFAF38B
:1027A00001FB02327B68C3F30803002B40F0B680C4
:1027B000EFF31183002B40F0B180D6F8043FD5F839
:1027C00008B0D6F804EF7345F7D1D4F808EBF34519
:1027D000F3D8D4F804AB01FB0AFEAEEB0B0EBEFB44
:1027E000FAFE01FB03E39B1AB3F57A7FDAD30138D3
:1027F000B7D1D4F8F03A33B11A689B8851690B42CB
:1028000018BF1B049361D4F8EC3A33B11A689B8863
:1028100051690B4218BF1B049361B4F8F83A002BBE
:1028200040F0DF8094F8FA1AD4F8FC0A81F0010134
:102830003CF09CF9FA204FF47A714FF0010C7B6860
:10284000C3F30803002B40F08A80EFF31183002BC1
:1028500040F08580D6F8042FD5F808E0D6F8043F7C
:102860009A42F7D1D4F8083B9E45F3D8D4F804AB8C
:1028700001FB0AF3A3EB0E03B3FBFAF301FB0232F5
:102880007B68C3F3080343BBEFF311832BBBD6F87C
:10289000043FD5F808B0D6F804EF7345F7D1D4F863
:1028A00008EBF345F3D8D4F804AB01FB0AFEAEEB1A
:1028B0000B0EBEFBFAFE01FB03E39B1AB3F57A7F16
:1028C000DED30138BBD109F1FF395FFA89F9B9F1DB
:1028D000FF0F7FF422AFBDE8F88FEFF3118A88F382
:1028E0001288D5F808B02B68DB0303D5C4F800CBF9
:1028F000D5F808B0D6F8043F5FFA8AFAD4F800EBAE
:102900008AF31188D4F804AB734401FB0AFEAEEBE2
:102910000B0EBEFBFAFE01FB03E3CEE7EFF3118AD9
:1029200088F31288D5F808B02B68DB0303D5C4F808
:1029300000CBD5F808B0D6F8043F5FFA8AFAD4F88D
:1029400000EB8AF31188D4F804AB734401FB0AFE50
:10295000AEEB0B0EBEFBFAFE01FB03E343E7EFF326
:10296000118E88F31288D5F808A02B68DA0303D5F6
:10297000C4F800CBD5F808A0D6F8043F5FFA8EFE65
:10298000D4F8002B8EF31188D4F804EB1A4401FB21
:102990000EF3A3EB0A03B3FBFEF301FB02326FE776
:1029A000EFF3118E88F31288D5F808A02B68DA03AC
:1029B00003D5C4F800CBD5F808A0D6F8043F5FFAD9
:1029C0008EFED4F8002B8EF31188D4F804EB1A4451
:1029D00001FB0EF3A3EB0A03B3FBFEF301FB023290
:1029E000E0E6D4F8D436002B3FF424AF0023D4F82B
:1029F000C026136084F8D1361CE7D4F8D436002BF7
:102A00003FF4AAAE38F0FCFBA6E600BF5036002427
:102A10006014002400ED00E010E000E02DE9F04F2C
:102A2000CA4C83B00523CA4E94F8E81A4FF0100937
:102A3000D4F8F00AC1F3400101933CF097F894F800
:102A4000E81AD4F8EC0AC943DFF80C83C14D01F051
:102A500001013CF08BF8D4F8F03A33B11A689B8846
:102A600051690B4218BF1B049361D4F8EC3A33B19F
:102A70001A689B8851690B4218BF1B049361B4F814
:102A8000F83A002B40F0598194F8FA1AD4F8FC0A6D
:102A90003CF06CF832204FF47A710127D8F80430FA
:102AA000C3F30803002B40F01B81EFF31183002BCD
:102AB00040F01681D6F8042FD5F808E0D6F8043F88
:102AC0009A42F7D1D4F8083B9E45F3D8D4F804AB2A
:102AD00001FB0AF3A3EB0E03B3FBFAF301FB023293
:102AE000D8F80430C3F30803002B40F0B780EFF3AD
:102AF0001183002B40F0B280D6F8043FD5F808B01F
:102B0000D6F804EF7345F7D1D4F808EBF345F3D8C2
:102B1000D4F804AB01FB0AFEAEEB0B0EBEFBFAFED3
:102B200001FB03E39B1AB3F57A7FD9D30138B5D102
:102B3000D4F8F03A33B11A689B8851690B4218BF38
:102B40001B049361D4F8EC3A33B11A689B8851693D
:102B50000B4218BF1B049361B4F8F83A002B40F005
:102B6000E08094F8FA1AD4F8FC0A81F001013BF0F5
:102B7000FDFF32204FF47A710127D8F80430C3F3F7
:102B80000803002B40F08B80EFF31183002B40F003
:102B90008680D6F8042FD5F808E0D6F8043F9A428C
:102BA000F7D1D4F8083B9E45F3D8D4F804AB01FB29
:102BB0000AF3A3EB0E03B3FBFAF301FB0232D8F8DE
:102BC0000430C3F3080343BBEFF311832BBBD6F8E8
:102BD000043FD5F808B0D6F804EF7345F7D1D4F820
:102BE00008EBF345F3D8D4F804AB01FB0AFEAEEBD7
:102BF0000B0EBEFBFAFE01FB03E39B1AB3F57A7FD3
:102C0000DDD30138B9D1019B5F1E17F0FF0301939B
:102C10007FF421AF03B0BDE8F08FEFF3118A89F3A1
:102C20001288D5F808B02B68DB0303D5C4F8007B05
:102C3000D5F808B0D6F8043F5FFA8AFAD4F800EB6A
:102C40008AF31188D4F804AB734401FB0AFEAEEB9F
:102C50000B0EBEFBFAFE01FB03E3CEE7EFF3118A96
:102C600089F31288D5F808B02B68DB0303D5C4F8C4
:102C7000007BD5F808B0D6F8043F5FFA8AFAD4F89A
:102C800000EB8AF31188D4F804AB734401FB0AFE0D
:102C9000AEEB0B0EBEFBFAFE01FB03E342E7EFF3E4
:102CA000118E89F31288D5F808A02B68DA0303D5B2
:102CB000C4F8007BD5F808A0D6F8043F5FFA8EFE72
:102CC000D4F8002B8EF31188D4F804EB1A4401FBDE
:102CD0000EF3A3EB0A03B3FBFEF301FB02326EE734
:102CE000EFF3118E89F31288D5F808A02B68DA0368
:102CF00003D5C4F8007BD5F808A0D6F8043F5FFAE6
:102D00008EFED4F8002B8EF31188D4F804EB1A440D
:102D100001FB0EF3A3EB0A03B3FBFEF301FB02324C
:102D2000DEE6D4F8D436002B3FF423AF0023D4F8EA
:102D3000C026136084F8D1361BE7D4F8D436002BB4
:102D40003FF4A8AE38F05CFAA4E600BF5036002489
:102D50006014002410E000E000ED00E0002800F026
:102D6000FF802DE9F04F848885B0B4FA84F3202BDE
:102D7000C3F11F0200F099807A4E4FF00045DFF852
:102D80000C82164435FA03F308EB820296F80065CC
:102D9000C2F80C1B019605D0734A116821EA0301A1
:102DA000116093600368002C79D00021DFF8E0E126
:102DB0006D4F00944FF00109009809FA01F20240AA
:102DC00069D04FF0030A01FA09FCDD684FF00F0BE0
:102DD0000AFA0CFC01EA0A0021F00306634C25EA1A
:102DE0000C05800006F1B046A342DD600BFA00F549
:102DF000D3F800B006F580662BEA0C0CC3F800C0CF
:102E0000DEF8F4C04CF0020CCEF8F4C0DEF8F4C0EA
:102E10000CF0020CCDF80CC0DDF80CC0D6F808C0E0
:102E20002CEA050526D004F58064A34240D0504C1E
:102E3000A3426DD04F4CA34276D04F4CA3426DD0ED
:102E40004E4CA34274D0DFF84CC163457CD0DFF810
:102E500048C163457ED0DFF844C163456ED0DFF8DA
:102E600040C163450CBF4FF0090C4FF00A0C0CFA3F
:102E700000F00543B5604FF0B0403D6815433D603C
:102E80007D6825EA02057D60056815430560456893
:102E900025EA020242600131009ACA408AD1019BB0
:102EA000984498F84C3BF02B06D805B0BDE8F08F5D
:102EB00009FA00F00543DDE7F021314A314B0120EA
:102EC00088F84C1BD2680199C2F302222E4D595C3E
:102ED000C2F10704131D01F01F06042C00FA06F0CE
:102EE00028BF0424062B4FF0FF338CBF033A002287
:102EF000A3406C184909DB4303F0030393401B0113
:102F0000DBB284F8003345F8210005B0BDE8F08F4E
:102F10004FF0020C0CFA00F00543ABE74FF0040C45
:102F20000CFA00F00543A5E70AFA00F00543A1E713
:102F30004FF0050C0CFA00F005439BE74FF0080C2E
:102F40000CFA00F0054395E74FF0060C0CFA00F080
:102F500005438FE74FF0070C0CFA00F0054389E7B3
:102F6000704700BF90E70908800000580000025831
:102F700000080258000C02580010025800140258B1
:102F800000ED00E0587B0A0800E100E05036002424
:102F90000044025800180258001C02580020025831
:102FA00000240258034BD3F8AC2B136A002BFCD13E
:102FB000704700BF50360024B0B10C49D1F8483CEE
:102FC000102B03D10521002037F0F0BA03EB4302A8
:102FD0000A4482F84C0C202082F84D0C0120034456
:102FE00082F84E0CC1F8483C704700BF50360024B0
:102FF00003681878012801D000207047074A64212F
:1030000093F9043001FB032393F8D52C202AF4D143
:10301000D3F8943C9869C0F3C03070475036002410
:1030200010B50C4CD4F80C3E1B78022B10D1D4F800
:10303000140E3BF095FDD4F8140E08B12323C38081
:10304000012137F011F904483FF050FEA4F8100EAA
:1030500010BD00BF503600248096980030B504465D
:1030600083B001230D460DF107020848214640F0C8
:103070000FF99DF8072035EA020304D02A432146C0
:10308000024840F03BFC03B030BD00BF5C4400246C
:1030900038B505460A460C46064829463FF042FF29
:1030A00045F0800103483FF033FE231A584258414F
:1030B00038BD00BF5C440024F0B5344C134693B0D7
:1030C000D4F80C5E2A78022A07D00A46014604F694
:1030D0000C6040F0DDF813B0F0BD2A6A12B1002098
:1030E00013B0F0BD0DF1070C002600278DF8070086
:1030F000012003928DF814200B920E921092CDF8BD
:1031000008C004908DF828008DF83C00CDE9062217
:10311000CDE90813CDE90C67EFF31180102383F399
:103120001288D4F80C3E1B6A13B302AE049B3246DD
:103130001BB1D3691432002BFBD12B6A13B39968EE
:1031400039B993420AD0196829B15B689968002996
:10315000F7D01433F3E70E4AC3E90026C0B280F378
:103160001188D4F80C2E136A002BFCD10120B2E791
:1031700002ABC0B22B6280F3118804F60C6055F0EC
:1031800017FBEEE7024A1A60FFDE00BF503600244C
:103190005C4400242DE9F047046882B02578022DB4
:1031A00000F08580012D04D00024204602B0BDE847
:1031B000F08794F904704A4E032F86F8D85ED4BF86
:1031C00000240124B7F1FF3F08BF44F00104002CA4
:1031D000EAD10A466421034601FB0761D1F8940C49
:1031E0000028E1D091F8D5CCBCF1200FDCD180696A
:1031F00010F40048D8D191F8D40C0128D4D04FF065
:10320000400C38484FF0210993F804A0D6F864E642
:1032100081F8D59C81F8D6CC06F6D86CC1F8D88C4C
:10322000A1F8BE5CC1F8C00CB1F8BE3C2E489BB200
:1032300081F8D45CC1F8B8CCFF2BC1F8C80C49D8D0
:10324000B1F8BECC4FF000791FFA8CFC64204FEA35
:103250004A0ACDF800E0192300FB07F7234851463E
:10326000F5193844A5F8BCCCFEF7D0FE40BBD5F824
:10327000942C1F49536895F8BC6C0B401D4CD5F835
:10328000C81C43EA0A03A14243EA064343EA09038E
:10329000536085F8D40C04D0174B994218BF4FF0F7
:1032A000F2081368012443EA080313607DE7236AE8
:1032B000002B7FF479AF012214463FF033FE74E710
:1032C000B6F8DA3E0022013385F8D42C9BB2A6F87A
:1032D000DA3E6AE74FF0FF0C4FF08079B6E700BFA7
:1032E000503600240000FFFF29090508E4420024AD
:1032F000009C00FCB9060508E507050813B53B4C22
:103300000023D4F8E82E8DF80730137803F0FD0180
:10331000012905D194F8EC1E11B90C2184F8EC1E9A
:10332000022B1ED0032B2ED001220B2130484DF052
:10333000F9FC042037F002FD01230DF10702002102
:103340002B484DF011FD00283AD09DF80730482B4E
:1033500036D1284BC4F8DC3E274BC4F8E03E02B01F
:1033600010BDD4F8F00E3BF0FBFBD4F8F00E08B122
:103370003623C380012136F077FF20483FF0B6FCAA
:10338000A4F8EC0ED0E741F2983346F2A811506849
:103390001222E35819610023372180F888304DF05C
:1033A00095FCD4F8E83E0D22242158684DF08EFC9F
:1033B000D4F8E83E30226A2158684DF087FCB3E724
:1033C000D4F8E83E1A78022A03D0032A07D0002056
:1033D000C5E7D4F8F00E3EF085FC0020BFE71022D0
:1033E000372158684DF072FCF1E700BF50360024D9
:1033F00038450024C70D0908490E09088096980031
:1034000030B54CF205028DB0002304460321ADF81F
:10341000002001AD01228DF802300B938DF81420AD
:103420008DF82820CDF808D0CDE90633CDE9083352
:10343000CDE903513FF014FE204602A93FF082F986
:1034400020463FF00DFE9DF806000DB030BD00BFD8
:1034500008480023024611780632022904D00133BD
:10346000062BF8D10020704703EB430300EB430029
:10347000704700BF684C00242DE9F041674C82B0D2
:103480002422002104F5A4605AF0B6FF002394F82A
:103490004975C4F84435002F3AD1614ED6F86C3FD7
:1034A00053B39B6A43B35F489847836823B3038849
:1034B00000255D48013B844606469BB231780636BE
:1034C00003291DD00135062DF8D1002201780630E0
:1034D000022900F097800132062AF7D1D4F844156A
:1034E000052909D002FB01C20131C4F844150220AC
:1034F0000021938010705180384602B0BDE8F08101
:10350000062303FB0545B5F82235013B9BB2DCE7FA
:1035100004F5AA6394F84805C4F84C3510B900279F
:103520003F4EBBE73BF052F9C4F8580518B1837918
:103530000BB1422BF3D139463C483FF0A1FB80460A
:103540000028ECD0D4F84C35364A9868C3F894205B
:1035500008B12223C3800D21314E36F085FED4F808
:103560004C35002598683BF0FBFA31483FF0BEFB34
:10357000D4F84C350146012232209980C6F88C3FA0
:1035800086F8902F37F0DAFB04239F21D4F84C05FE
:103590000DEB030201953FF071FC9DF805509DF87D
:1035A000043006F66C702D029DF8061045EA0345BE
:1035B0000D4329464CF0F0FE70BB2846FCF7E2FEB6
:1035C00050BB9DF806509DF805302D029DF8072050
:1035D00045EA0345174B15439D4217D0A6F8700FD7
:1035E000A6F87C0FC6F8740FC6F8780F2846FCF7CB
:1035F000C9FE074680B994F848053BF0E7F83EF06D
:1036000071FB4BE7062101FB02C270E706F66C7006
:103610004CF07AFE0028E9D047463FE748470024AF
:1036200060140024CC230024684C0024984C00240F
:10363000404B4C0021AAEF00F0B500230E680DE0CE
:10364000BCF1050F17D9BEF1050F18D80A2C16D1F9
:1036500003EB830316F8010B04EB4303A0F13005E1
:10366000A0F1610CA0F1410EA0F13704EFB2092FD7
:10367000E6D82C46ECE7A0F157040A2CE8D00E60FF
:103680001360F0BD30B5034683B0084C00250DF142
:103690000600C4F8DC3EADF80650DB6A98470346E6
:1036A0002846C4F8E43E03B030BD00BF60140024D7
:1036B0002DE9F04FBB4C002302220926BA4D04F637
:1036C000244094F8BD138BB0C4F8004F6660C4F872
:1036D000040425602363636123616362A261E26085
:1036E000C4E90733C4E90A33002900F086811E4685
:1036F0000321AD4B84F8BD13DB6B13F48078AB680A
:1037000018BFD4F8108023F0010308BFC4F810805C
:10371000012AAB6040F0DD80AA6BA44B22F480321A
:10372000616BAA630129EA6803EA0203EB60EB68B4
:1037300023F44013EB6000F0A681284608F098FBC4
:103740000746B8F1010F17D007B3022384F8BD3341
:10375000974B93F8E855012D00F0088123688021EC
:10376000012059625A6A42F480029A62FCF748FCCE
:1037700000200BB0BDE8F08FAB6843F00603AB60F0
:10378000AB6843F02003AB60002FDED1236832200A
:10379000DA6822F0C042DA60DA6842F08042DA6029
:1037A00011F058FC666846B33A4601253946C2EB2B
:1037B000C203501C04EB830383F83C20A3F842208F
:1037C000C2B283F83D50B24283F83F101965C3E995
:1037D0001111ECD30022C7EBC703791C04EB830360
:1037E00083F8FC71CFB283F8FD21B74283F8FF2143
:1037F000C3F81022C3E98122EDD300232568D4F851
:103800000CC01946D4F81090D4F82C80D4E90602E4
:10381000019203F14002013305EB82020F2B51604C
:10382000F7D1B8F1000F40F02181D5F8043805F543
:10383000006743F002037B60AB6B23F40013AB63C0
:103840002B6843F040032B602B6843F080032B6010
:1038500000230128C5F8003E3B683B603B6800F050
:103860001C8143F003033B601021284608F0D0FC84
:103870001023504A2B61D2F8641605E0D2F8643662
:103880005B1A052B00F2FD802B69DB06F6D40038AD
:1038900018BF012000223A617A61FA6166B305F52A
:1038A00010634FF0904A4FF0006B11464FF67F3E89
:1038B000844607E0196001321961C3F808E020333B
:1038C000B2427BD018680028F4DA92B1C3F800A0A5
:1038D000F1E7EB68284643F04003EB6008F0C8FAD4
:1038E000AB6B0746002E40F0C88043F48033AB63D7
:1038F00027E7C3F800B0DEE73B6900216FF08042A4
:1039000023F480733B61A9616A61B9F1000F03D1AF
:10391000AB6943F01003AB61AA69274B1343AB615A
:10392000019B1BB1AB6943F00803AB61B8F1010F18
:1039300000F0AE8000287FF408AF0123626A84F8AB
:1039400038009A4284F8BD33236800F0AE80D3F883
:103950000428032042F00202C3F8042811F07AFB85
:10396000134B93F8E855012D7FF4F8AE4CF0A4FA10
:1039700000287FF4F3AE23688022284640215A6253
:103980005A6A42F400129A62FCF73AFB20210220A4
:10399000FCF736FB40210320FCF732FB00200BB084
:1039A000BDE8F08F6014002400000840BFFFBDFF99
:1039B000484700245036002400383C8000226046EE
:1039C00005F530634FF0904A4FF0006B11464FF60B
:1039D0007F3EB44607E0196001321961C3F808E080
:1039E0002033624588D01E68002EF4DA12B1C3F885
:1039F00000A0F1E7C3F800B0EEE701F0FF06364B98
:103A000003204FF4C05584F8BC63D3F8E01041F0B4
:103A10000101C3F8E01005A9D3F8E03006920A22AC
:103A200003F0010308902D480493049B0796059525
:103A300009920FF0ADFFE36A012B43D0264B06211C
:103A40006520D3F8D82042F00062C3F8D820D3F81C
:103A5000D83003F000630393039BFCF789FD202219
:103A60001F4BA66A2568DA60A26941E6AB6B05F5D3
:103A7000006743F40013AB63EAE623F48033AB63DF
:103A80005FE6012006E7EB6843F48013EB6054E641
:103A9000AA69144B1343AB614CE7BCF1000F3FF430
:103AA000E2AE43F001033B60DEE684F8F40399697B
:103AB000C4F8FC2341F000610B4A9961596D0A4337
:103AC0005A6544E74FF4007305A904480593CDE90E
:103AD00006660FF05DFFB1E700440258000002588F
:103AE00000E100E0040000400300001010B51A4C93
:103AF00094F8ED05C0B9194B83F8A50BC3F8A80BD2
:103B000094F8F035012B05D0022B21D0D4F8F435F0
:103B10001BB910BD124BC4F8F43512495B68A1F112
:103B20000C00BDE8104018473AF050FE94F8EF251D
:103B30000A49003AC1F8A80B18BF012281F8A52B49
:103B40000028DDD021222021C28036F08DFBD7E76E
:103B5000054BC4F8F435E0E748470024503600240C
:103B600020030024404D0024FC02002499B10A6B7C
:103B7000824216D9154BD3F84426914221D34C39B1
:103B800091421ED30B6B9842F9D38B6B9842F6D8B7
:103B90000B46184670470D4BD3F844160A6B9042FB
:103BA00012D30B680BB9F4E70A6B90420B4602D3B1
:103BB0008A6B9042EDD951F84C3F002BF4D1184656
:103BC00070470023184670470A46D8E74847002444
:103BD0002DE9F047CC0143D1034622494FF0FF3293
:103BE000022443F8081B7E2642601846DFF87880DE
:103BF0002644051D6FF07047D8F848964FF0010A2B
:103C0000013E494608E0A3421CD0631C45F8043C31
:103C1000321B1C460435CAB10B6BA34202D88B6B16
:103C2000A34204D22046FFF7A1FF014690B10A79D2
:103C30004B6B002AE7D1A34204D0E6D2631C45F8BF
:103C4000042CE5E7631C45F8047CE1E7C8F8481656
:103C5000BDE8F087321B631C494645F804ACD8E741
:103C60008026C3E7F8FFFF0F48470024F0B5154D45
:103C700083B00E4695F85036022B0DD1070AC4B218
:103C8000D5F884080023012201A9384406F04CFA33
:103C9000012806D003B0F0BDC0F3D41700F07F04B4
:103CA000EEE795F85036022B019B04D133F814301F
:103CB000336003B0F0BD53F8243023F07043336019
:103CC00003B0F0BD484700242DE9F0470023194D0B
:103CD00084B0074695F9AD9805F6B4064FF0B60ADC
:103CE00000EB010805F654351C46D6F800C03046F6
:103CF00000226946E036BCF1000F14D09CF838C0B1
:103D0000BCF1140F0FD019F1020F01D0CC450AD12C
:103D1000CDE90244CDE90078ADF808A08DF80D405A
:103D20002FF064FD0346B542DFD1184604B0BDE86C
:103D3000F08700BF48470024B5EE400A10B4F1EE0A
:103D400010FA0CD0F5EE400AF1EE10FA07D0094B4C
:103D5000094C0A491A46C0E90034816006E0084B64
:103D6000084C06491A46C0E9003481600C305DF801
:103D7000044B104715A60808251C0000559D08088F
:103D800065AC08086D1C00002DE9F04FA34CB2EEA5
:103D9000045AA34AB4F8501504F6EC37B4F84E357B
:103DA00004F6C47B07EE901A04F6D47A06EE103AB5
:103DB00004F6EC76B8EE677AB8EE466A2DED068B1F
:103DC00092F8553BB6EE009A85B0DFED96AA07EE65
:103DD000903AB2F8563B67EE096A0A2BF8EEE77A9A
:103DE000B8BF0A23C7EE855A07EE903AB2F8583B9F
:103DF00008EE103A92F8543B0022B8EEE70AB8EE0B
:103E0000C88AC4F8FC2B87ED010AB4EE480AF1EE2B
:103E100010FA30FE088AF4EEC86AC7ED005AF1EED7
:103E200010FA38FE268AC6EE887A082B87ED028AB9
:103E3000A8BF0823B1F57A7FF7EE006A38BF1346B2
:103E4000C4F8F83B04F6C873FBFE677AF4EE667AB2
:103E5000F1EE10FA48BFF0EE667AFDEEE77AF8EE82
:103E6000E75A17EE905AC6EE077AC4F8C05F67EEBD
:103E7000A57A86EEA76ADFED6C7AC7EE256A8BED30
:103E8000006A0BF2247BC6EEA78A80EE280AC3EDF7
:103E9000008A57F0E7FF0228B8BF022088EE280A00
:103EA0008046C4F8CC0F57F0DDFF2328DAED007A06
:103EB0009FED5E8AA8BF2320B8F1230FA8BF4FF063
:103EC0002308C4F8D00F4045B8BF4046012DA0EBF1
:103ED00008028146B8BF01250132F5EE407AF1EEC5
:103EE00010FA29D1524900239FED52AA07EE903AC9
:103EF0000193F8EEE79ACDE9021269EEAA9AB0EEC4
:103F0000690A5AF03DFCF0EE408AB0EE690A5AF0B8
:103F10001FFC019BA8EE880A0299013368EE8A8A89
:103F20000831039A242B41ED018A20EE0A0A01EDA3
:103F3000020ADBD1DFED407A002346F80C9C46F8FC
:103F4000045C92FBF5F146F8081C314646E9053859
:103F50000133A1EC018A482BFAD1384806F5907359
:103F60000021D0F800C040680131C3F800C058609B
:103F700008332429F8D106F515765E45ADD1DFF872
:103F8000C4900026DFED2E8ACAED007AB819CA4621
:103F90004FF00008D4F8F83B00F12405984531DAD9
:103FA00007EE908A97ED016A74300421F8EEE76A13
:103FB000D7ED027A08F1010877EEC67A36EE897AF3
:103FC00067EE877A07EE103AB4F84E35B8EEC77A46
:103FD00000EE903A87EE870AF8EE600A30EE060AA5
:103FE000AAEC010A97ED001A85ED178AA6EEA81A29
:103FF00085ED168A85ED158A85ED148A5AF0B4FB95
:104000002846C7E706F5907609F12009B6F5587FEE
:10401000BCD105B0BDEC068BBDE8F08FF8000020E8
:1040200048470024C3B8B23D0000904200000000A1
:10403000CC17002072F97F3FBC297E3FA0EC090815
:10404000CDCC4C3EF80C00202DE9F04FDFF88081FC
:1040500001275B4CDFF87CA1DFF87C912DED028B12
:104060009FED588A85B0FEB2592118F8010B3246EF
:1040700035F0F6FF0546002800F08B8000684FF011
:10408000010BE560504518BFB0F1804F04F824BC27
:104090000CBF0123002304F8233C55F0ABF90023A7
:1040A00014F8232C07EE900A28689A424FF4005225
:1040B000F8EE677A44F8043C14BF59464FF4007197
:1040C00044F8142C44F8103C44F80C1C44ED077AD6
:1040D00055F090F9034618F8010C24F818BCA9FB18
:1040E000032324F816BCDB0804ED088A44F8083CD6
:1040F0003AF06CFB206130B15922C67142218271C5
:104100006A7A36F07BF9286855F074F90021024686
:10411000284655F023FD14F8233C002B43D02A4BAE
:10412000002221462846236055F0A8FB286855F058
:1041300071FD834670B10023012104220093039294
:10414000CDE9011369466A7908F068FE6979584635
:1041500008F03AFFE2684FF0FF3554F80C3C013E9E
:104160001A484FF4005C11682B44F6B290F8DC0753
:104170008B6201220023B042CD624A6124F8182CE0
:1041800024F8162C44F8043C44E905C301D135F069
:10419000F9FE01373834052F7FF465AF05B0BDEC6B
:1041A000028BBDE8F08FDFF834E0221DDFF830C06D
:1041B00021462846A360C4E900EC55F05FFBB5E753
:1041C000101900200000000035160000F01100203A
:1041D000A4520024000C00401F85EB516D17000015
:1041E000091900000C480D4BD0F8781B10B48A1E3A
:1041F0000B4C2231C0F8683BB0F8843B1B01A4FB98
:1042000003C3DB08A3F5B06322F8023F9142F3D168
:104210005DF8044B704700BF484700248119060829
:10422000CDCCCCCC70B5084C251D2E4614F8010B16
:104230002FF026FC28B10379B44205F8013BF5D1F3
:1042400070BDFF23F8E700BFE05200242DE9F047DE
:104250001C4F01264FF03D094FF0000807F10805FB
:10426000B24617F8010B3AF0B1FA044690B180F863
:104270000690C671FB7803F07F02012A17D013F075
:10428000800F20460CD185F804803AF063FC85F855
:1042900005802C6001360835052EE2D1BDE8F08797
:1042A00085F804A03AF05CFC85F805A0F1E71B0650
:1042B00005D40121204635F0D7FFFB78DFE73AF03F
:1042C0004FFCF6E7E85200242DE9F04F82460868DB
:1042D00089B00C46850AA5F58015522D68D8374E51
:1042E000354495F82C500D2D62D8194605EBC50BB9
:1042F00055F04CFB2068324F05EB4B0B800A61797F
:1043000007EB8B0B237AA0F58010522827D80644A0
:1043100096F82C000D2822D800EBC0060A4659005A
:104320004FF4007C00EB46004FF06008DB0001F02A
:10433000020107EB80004FF0000903F0080300269C
:104340004FF48077029169460393CDF818C0CDE908
:104350000089CDE90467FCF73FFC237A61799B076C
:10436000584628D408F0D6FE164B4C2202FB0535E1
:1043700095F8A53F012B10D10221D5F8682F124BDB
:1043800085F8A51F91680B40062B06D0B3F5803F3A
:1043900003D0136843F001031360216800206379A0
:1043A00001F13402CAF80410D118CAF80010D05034
:1043B00009B0BDE8F08F08F0D3FCD5E790E7090815
:1043C000C034002458250024070001002DE9F04FD7
:1043D000C64BC74D03F5FC64C64F2DED048B89B069
:1043E00007900FCD0FC40FCD2E6897F8CA5B022D32
:1043F0000FC497F8D03B266000F0B681032D00F083
:10440000AC81002D00F0B581DFEDBB7AF0EE678A5C
:10441000002BBA4AB5480CBF00210121B84B18BF88
:1044200013460591B74AB849C0F8F027C0F8F81705
:1044300037EEA87A9FEDB58AF5EE006AB44AAB492B
:1044400027EE888A02F123089FEDB29AC6EE879A7A
:10445000C1F8F43701F5016B002304920293079B26
:10446000029A934240F32081049B13F8015B04936A
:10447000002D00F01F81002302E0152B00F01A81AF
:1044800003EB43025C00013318F80210A942F4D197
:10449000984B1A4492F8F91B002900F078812846BD
:1044A00035F084FD06460390304635F09BFD0278DA
:1044B0000192002A40F0FE80029B5A1C8D4B5FFA4D
:1044C00082FA23440324069283F839AC83F8384CEB
:1044D000002E00F0EF802F0905F00F03013F062F9B
:1044E00000F232818C4D05EB4702B2F83C0540FAF0
:1044F00003F212F0010200F02D8101262F44DFF8B3
:10450000389206FA03F3013B184057F00FFA97F878
:104510004C15824A014409EBC107BC7187F807A01A
:1045200059F83130CBF814701A44039B920A93F86F
:1045300009A005EB4205B5F88000FCF705F9BF8836
:1045400059F83100002F39D0A646019A0196019DF5
:1045500002F0070351004FF00F0C05FA02F6D408E1
:104560009B004FF0020937420EFA01F50CFA03FCEA
:1045700000EB840402F101020AFA03F309FA01F1E3
:1045800019D0D0F8089029EA0509C0F80890D0F8A9
:10459000049029EA06064660C66826EA0506C66053
:1045A000266A26EA0C0C43EA0C032362036823EA1A
:1045B00005030B43036037FA02F3C8D1059B002BB8
:1045C00000F085804B4BB3F8C83B07EE903AF8EE0D
:1045D000E77AFCEEE77A17EE904A039B504A1B6895
:1045E00093420ED002F5806293420AD04D4902F503
:1045F0008042934218BF8B4203D002F580629342FF
:104600006CD109F03BFE484BDA69C2F302224649FD
:104610004FF6FF73454D0969C1F3C03142EAC1024B
:104620000599AA5C00FB02F0B0FBF4F21A44120CEC
:10463000B0FBF2F211B1B2FBF4F39BB207EE902A99
:1046400003995846B8EE677A67EE086A69EE667AAB
:10465000CBED026AE7EE287ACBED037AFFF734FE62
:104660000299002974D02148DBF80430D0F81428CE
:10467000934277D001296BD0D0F82C28934271D087
:10468000032965D1D0F84428D31A18BF0123069A0C
:104690000BF1180B0BF8083C114602920122042979
:1046A0000BF8072C7FF4DBAE214809B0BDEC048B7E
:1046B000BDE8F08F0D4900201E4A104BC1F8F827C5
:1046C000C1F8F43709B0BDEC048BBDE8F08FFAFEF9
:1046D000697AFCEEE77A17EE904A7EE709F0E0FD92
:1046E000114BDA69C2F3021291E700BFF01100200A
:1046F000A8EC0908484700246F12033911990708EC
:1047000059AB0608159907086DAD06086F12833A74
:104710001D53002400007A4490E709080000FEA71A
:10472000000001400040014000440258447B0A0858
:10473000D0190020D1AC060834390024ACC5A73705
:10474000ACC5A73628293038019BCBF8143035E7A3
:1047500001239CE7CBF8142030E75FED087A5FED8A
:10476000088A55E6002392E75FED0A7AF0EE678A41
:104770004EE60123074ADFED087A0593074BF0EE7A
:10478000678A44F8082C44F8103C054B50E60E4666
:10479000039189E66DAD06086F12833A15990708F3
:1047A00011990708364BF0EE607AB3F84E3507EEF4
:1047B000103ABAEEEF7A2DE9F041B4EEC70A2DEDCA
:1047C000048BF1EE10FADFED2F8AB0EE408AF0EEA6
:1047D000419A06DDF4EEC70AF1EE10FA32D5B0EEDA
:1047E000478AB5EEC08AF1EE10FA30DDF5EEC07AF8
:1047F000F1EE10FA2BDD27EE887A67EEE77AE8EE25
:10480000087A87EE279A00F10C0400F19C051E4EF1
:104810001E4FDFF88080B5EE408A44F80C6C44F8F7
:10482000047CF1EE10FA04DDB5EEC09AF1EE10FA58
:1048300010DC44F8088C3034AC42ECD1BDEC048B75
:10484000BDE8F081B0EE688AB0EE689ADBE79FEDD4
:104850000D9AD8E70E4BB0EE491AF0EE690A042122
:10486000B0EE480A204644F8083CC4ED038AC4ED83
:10487000028AC4ED018AC4ED008A59F075FFDAE7B7
:10488000F80000200000000065AC0808559D0808ED
:10489000251C00006D1C00000A44914216D030B463
:1048A00041F2210511F8014B082380EA042010F49D
:1048B000004F4FEA400485EA40000CBFA0B280B22E
:1048C000013BF4D18A42EDD130BC7047704700BF44
:1048D000F0B42E4B02282E4D1F69D5F8646642D0E5
:1048E0002C4B04241F40294A4CF25031042C11D087
:1048F000D2F8103124EA030313F0040F0CBF012394
:10490000002363B1D5F864369B1B8B42EED903209C
:10491000F0BC70471369C3F38003002BF2D137F06A
:1049200000420DD10128194A27D0D2F81011C9032D
:1049300016D54FF480311846F0BCC2F814117047F8
:104940001549002F4FF00100D1F87C3C43EA0703E2
:10495000C1F87C3C0D4B0EDAC3F81421F0BC704753
:104960001846F0BC7047D3F810710A4B0B4C1F402F
:1049700047F00047B7E75F61CAE71169C803EFD5A1
:104980004FF4803118465161C2E700BF0020005249
:10499000503600240000EE17484700240400008031
:1049A000F8B52E4E96F8782C012A4DD000F17843B8
:1049B000012705460C46B3F5801F86F8787C33D373
:1049C000A0F10163B3F5801F3CD200230220C6F89A
:1049D0007C3CFFF77DFF18BB214A0227D2F80C313F
:1049E0003B43C2F80C312146BFF36F8FBFF34F8FAB
:1049F0002B1B04F120000A68CA5004318142FAD10D
:104A0000BFF36F8FBFF34F8F3846FFF761FF012F62
:104A1000134A1BD0D2F80C3123F00203C2F80C3138
:104A2000002386F8783CF8BD00233846C6F87C3C65
:104A3000FFF74EFF0028F3D1094AD36843F0020381
:104A4000D360D0E73846F8BD0220F8BDD36823F024
:104A50000203D360002386F8783CE4E7484700244B
:104A600000200052014488420ED00346074810B48B
:104A7000074C13F8012B04FB00F0994280EA020076
:104A8000F7D15DF8044B704700487047C59D1C8105
:104A9000930100012DE9F041214D0023214E4FF0FB
:104AA000050895F8832C05F5486506F6EC2486F88C
:104AB000E82A15F8010B5F1C20BB2060032F04F1CE
:104AC00004043B46F5D196F8E81AD6F8EC0AC94337
:104AD00001F001013AF04AF896F8E81AD6F8F00A1F
:104AE00081F00201C1F340013AF040F896F8E81A6B
:104AF000D6F8F40A81F00401BDE8F041C1F3800169
:104B00003AF034B839F062FE0121FBB2206010B1F6
:104B100080F80680C371206835F0A6FBCEE700BFA1
:104B200048470024503600242DE9F041254C264DFD
:104B3000B4F8886CA5F8F86AE6B994F8840C39F0F2
:104B400045FE94F8852CC5F8FC0A003A18BF0122EE
:104B500085F8FA2A48B194F8861C2D220029C280D3
:104B600014BF1121012135F07FFB0020BDE8F04189
:104B70003AF07ABA94F8848C00222D21404635F020
:104B80006FFA0746404639F021FE00B10FB9BDE883
:104B9000F0812D22C5F8D406C280797AFBF754FE45
:104BA0000A493846A4F88A6CB1FBF6F1C1F34F020A
:104BB00089B2FCF7EDF90023D5F8C026136085F81B
:104BC000D136E4E7484700245036002440420F0025
:104BD0002DE9F84F254B002693F8982C03F68F47C4
:104BE00003F6AC4483F88C2C5FFA86FB4FF0010986
:104BF00017F8010F01360BEB090A49464FF0000880
:104C00005FFA8AFA524635F02BFA054640B33878F7
:104C100004F80E8C04F80D8C04F80FBC04F8109CFA
:104C200044F8045C39F0D2FD18B180F8069080F8A1
:104C300007A0697AFBF708FE0D4A0021284654F0C8
:104C40008DFF0C4B221D2146236028460A4BC4E9E8
:104C5000013854F013FE4246697928682DF072FE3F
:104C6000082E04F11C04BFD1BDE8F88F484700248A
:104C700040420F00852907085DA9060870B52C4C35
:104C800000222C4B022194F8C40DC4F8BC3DC4F89A
:104C90007C2DC4F8802DC4F8842DC4F8B82DA4F858
:104CA000C02D35F0DDF9002835D0234B05460668C8
:104CB00003F160015A7C12B15A6896422CD0183325
:104CC0008B42F7D1002394F8C40DC4F8A85C84F893
:104CD0009C3C39F07BFD08B10223C380697A002631
:104CE000FBF7B2FD2846154A002154F037FF144A5D
:104CF0001448154B111FC4F8AC0C2846C4F8B03C3E
:104D0000C4F8B46C54F0BAFD324669792868BDE83D
:104D100070402DF017BE70BD304654F06BFBB36A87
:104D20000A4A0133B0FBF3F082F84403CAE700BF3C
:104D30004847002400FFFF00001A002040420F00F7
:104D4000F853002485A9060811AB060800000024CA
:104D50002DE9F04FC24F85B0044697F8CA5B032D8A
:104D6000A5F105032BD8DFF800930122032B89F866
:104D7000602932D90023DFF824A3204689F8D038EF
:104D8000FFF724FBCAF8D004DAF8D034002B00F087
:104D90009A800022012183F8244083F8251083F8AB
:104DA00026209A6244B12C33AE4A1C4412F8011BEF
:104DB00003F8011BA342F9D105B0BDE8F08FDAB2C8
:104DC000032AD0D9A84A0021032B82F8601974D98C
:104DD000DFF8C8A282F8D018D6E797F8D33B89F855
:104DE000D028012B00F08180082D01D0022B7CD02F
:104DF000DFF8ACC29D4E97F8D2EBDFF8A0A2BCE87A
:104E00000F000FC6BCE80F00DCF80080BEF1000CFC
:104E10000FC618BF4FF0010C954B072DC6F8008048
:104E20008AF8E8C4C9F8B03859D8042D00F20681D0
:104E3000904B0025DFF86C820193CDF80CA05FFA4F
:104E400085FBAC424FF0030105F101050BF10106B2
:104E50002DDD019AF6B212F8013B18460192324656
:104E6000029335F0FDF8029B82461846BAF1000F16
:104E700000F0CA8039F0AAFC024659465046C8F8EC
:104E800014201AB14FF00303D671937197F8CA2B0F
:104E90009AF8083051F060FD002800F0B5804FF01E
:104EA0000103042D08F1180808F8073CC7D1DDF804
:104EB0000CA06E4BCAF8D03466E70123DFF8DCA102
:104EC00082F8D03860E76C4D6C4C0FCD0FC40FCD1D
:104ED0000FC42B6844F82039CAF8D0446CE7082D79
:104EE000A6D1674BC9F8D838A2E74FF0000C97F865
:104EF000D23BDFF8B4E187F8F85DB3EB0C05614E07
:104F0000E34618BF0125DFF894A1C9F8D44887F813
:104F1000C6CD8AF8E854BEE80F000FC6BEE80F0001
:104F20000FC6DEF80020B0466146574848F8502BBF
:104F30004FF4607259F060FA803E4E4B0394444641
:104F40000193D9F8D4285A4558DD019B13F8018BF9
:104F50004046019335F00AF90546404639F036FCE3
:104F600095F808809AF8E834054608F00101013107
:104F700087F8C51D0BB188F00108002D4ED0A87927
:104F8000A8B1A0F142035842584180B93F4A0146B6
:104F90003F4D0120C9F88028039C3E4AC9F8885833
:104FA00087F8C60DC9F88428CAF8D014ECE628465C
:104FB00002913CF0FBFC02990BF1010B4FF0030353
:104FC0004901E560606041F0010184F81080616191
:104FD00085F807B0AB71284635F046F918F0010F97
:104FE00028460ED039F0B6FDE268BBF1040F04F19B
:104FF000200406F1180646F8042CA2D1039C21498E
:10500000D2E739F0ADFDEFE721490023214ADDF871
:105010000CA0C9F8B818C9F8B4284BE72846029183
:105020003CF0C4FC02990BF1010BE56049016060A2
:1050300084F8108041F001016161CCE797F8D13B21
:10504000154A012BC9F8D82806D0022B08BFBEF19B
:10505000000F0CBF0123002389F8DC38E8E600BF0D
:105060004847002414530024F0110020901A002017
:10507000E95009081D530024E4EC090810550024E8
:10508000B91F0808601A0020005D0124159907085F
:105090000D99070811990708ED1F0808F80000206E
:1050A00008ED0908001A00202CED0908F8B5724F28
:1050B00097F8130E39F08AFB97F8145E60B12F232E
:1050C00004462021C38035F0CFF80A2035F0B6FB26
:1050D00020463CF061FC18B9D7F81C3EDA0100D537
:1050E000F8BD013D092DFBD897F8124ED4B94020E8
:1050F00030F0D8FA0028F3D090F9043097F8611B0B
:10510000092BC8BF143B0A293B4493F8204E00F0FA
:10511000A58093F82C3E97F8062E002A08BF1C465F
:10512000002CDDD0204639F051FB0546002800F068
:105130008D802F230121C38035F096F80121084688
:1051400039F01CFD2B68AA889A613C2035F0F6FDE9
:105150000021012039F012FD97F8143E002B38D0C1
:105160000026464C94F8E81AD4F8EC0AC94301F03A
:10517000010139F0FBFC94F8E81AD4F8F40A81F044
:105180000401C1F3800139F0F1FC7820002D39D001
:10519000AB8801362A681B04936135F04FFB94F805
:1051A000E81AD4F8EC0A01F0010139F0DFFC94F8B8
:1051B000E81AD4F8F40AC1F3800139F0D7FC2B685F
:1051C000AA8878209A6135F039FB97F8143E9E4200
:1051D000C8DB97F8123E8BBB97F8133E002B7FF489
:1051E0007FAF97F8153E012B7FF47AAFD7F81C3EBE
:1051F00013F080737FF474AF87F8143EBDE8F84075
:105200004AF092BD7820013635F018FB94F8E81A80
:10521000D4F8EC0A01F0010139F0A8FC94F8E81A7E
:10522000D4F8F40AC1F3800139F0A0FC782035F0FD
:1052300005FB97F8143E9E4294DBCAE7322035F016
:105240007DFD2846002135F00FF8C5E7012135F036
:105250000BF80121084639F091FC76E7D7F8443E77
:105260005B057FF53DAF12F00FF800287FF438AFF3
:10527000002C7FF457AF33E7484700245036002412
:10528000344870B490F8483EA3F13001092958D849
:1052900000F6486400F65760224612F8015FA5F157
:1052A0003001092904D88242F7D1002070BC704730
:1052B000141B022C4BDD2848002101E010F8013BB3
:1052C00001EB8101161A044603EB4103022EA3F100
:1052D000300303F0FF01F1DC204B03FB01F1A2429C
:1052E0004FF000030ED903EB830314F8016B5B004E
:1052F000A242A3F13003334403F0FF03F3D1184873
:1053000000FB03F32E2D06D01648A0FB032370BC30
:1053100001EB9300704701320425002404EB840460
:105320001078013D303864000928A4B2204401D827
:10533000013284B215F0FF05F0D1642202FB043380
:10534000E2E700211D4600F648620B46DAE700213D
:10535000054CC4E7484700249155002480969800E6
:1053600040420F00ABAAAAAA905500242DE9F047AD
:10537000041E0D4612DB092C26DC0B46814A8248AE
:105380000021A0FB04605970C00800EB8000A4EB72
:105390004000125C28461A70BDE8F08764422D2355
:1053A000092C01F8013B24D8764A774B0020A3FB57
:1053B000046348702846DB0803EB8303A4EB430334
:1053C000D35C0B70BDE8F0876F4B632CA3FB042606
:1053D0004FEAD60621DC0B466A4A6B49A1FB06015F
:1053E000C90801EB8101A6EB4101515C03F8011BE7
:1053F000C5E7654A632CA2FB04364FEAD60637D8C8
:10540000604A614BA3FB0603DB0803EB8303A6EBB7
:105410004303D35C01F8013BC7E7A3FB0627B4F5C0
:105420007A7F4FEAD7070DD20B46564A5649A1FB61
:105430000701C90801EB8101A7EB4101515C03F8A9
:10544000011BCAE7A3FB072842F20F7294424FEAFE
:10545000D80836D80B464B4A4B49A1FB0801C9086E
:1054600001EB8101A8EB4101515C03F8011BDDE771
:10547000A2FB0637B4F57A7F4FEAD7070CD2414A30
:10548000414BA3FB0703DB0803EB8303A7EB4303B9
:10549000D35C01F8013BB4E7A2FB073942F20F737A
:1054A0009C424FEAD90921D8364A374BA3FB09035E
:1054B000DB0803EB8303A9EB4303D35C01F8013B57
:1054C000DEE7A3FB0829314A94424FEAD90921D8E3
:1054D0000B462C4A2C49A1FB0901C90801EB8101AB
:1054E000A9EB4101515C03F8011BB5E7A2FB093AA6
:1054F000264B9C424FEADA0A21D8224A224BA3FBD0
:105500000A03DB0803EB8303AAEB4303D35C01F834
:10551000013BCAE7A3FB09231D4A94424FEAD30A81
:1055200021D80B461849174AA1FB0A01C90801EB0B
:105530008101AAEB4101515C03F8011BCAE7A2FB00
:105540000A38134B9C424FEAD80813D80E4B0D4A29
:10555000A3FB0803DB0803EB8303A8EB4303D35C43
:1055600001F8013BCAE70A22BAFBF2F049F0DEFA81
:105570000346D7E70A22B8FBF2F049F0D7FA014612
:10558000E4E700BFD87A0A08CDCCCCCC9F860100D6
:105590003F420F000C461646054683B530F04AF8E8
:1055A000204630F047F80021204B0846002E08BF67
:1055B0001E4639F0E3FA0021012039F0DFFA2846CF
:1055C00036F072F8B0B10121002039F0D7FA284640
:1055D00036F062F80746204636F062F80028FAD026
:1055E0003946204636F064F83846B0470021084670
:1055F00039F0C4FA204636F057F80028DFD00121F0
:10560000002039F0BBFA204636F046F8014628461D
:10561000019136F045F801990028F8D0284636F077
:1056200047F80021084639F0A9FAC8E7AB2A07086D
:10563000F0B500228DB0DFF8ACE007AF13460A6189
:10564000BC46C1E90022C1E90222D0E90020C2F330
:10565000056646FA03F46546E40704D513F80E40E0
:1056600005F8014BAC460133062BF2D11B4DC2F3BA
:1056700003240023C2F3073E2C5D0DF125068CF8B0
:105680000030DFF864C08DF824404EFA03F435464C
:10569000E40704D513F80C4005F8014B2E460133FE
:1056A000082BF2D10025C0F3435CC0F34343C0F3A1
:1056B0004F0435700846C2F3035509A900970394B7
:1056C000CDE9043CCDE9011502F00F030449C2F312
:1056D000031249F0C7FD0DB0F0BD00BF347B0A08CE
:1056E000007B0A083C7B0A08287B0A0870B5094C35
:1056F0000546D4F8582E62B1002601362D21D4F883
:10570000580E3EF015F9AE42F7DBBDE870403EF0B2
:1057100015BB70BD484700242DE9F04FCCB20021E5
:10572000164685B00746084639F028FA00210120C0
:1057300039F024FA38F09EFE022E09D0042E44F6E9
:10574000C01818BF4FF49648032C06D900200BE070
:10575000FF2C4FF41648F7D10326CB4D95F85C3E4D
:105760002BB90020C5F8600E05B0BDE8F08F032E00
:1057700014D02C440022032194F8D50B34F070FC93
:105780000028EED0C14CC4F8E40F037A9A07E8D49D
:10579000006854F03FFA41F2F073E05041F607031D
:1057A000BA4C00220321E65495F85C0E34F058FC04
:1057B00041F2E833E0500028D3D000684FF0010AEE
:1057C00054F028FA41F2EC734FF4806204F6E87169
:1057D000E050032EAE4B04F57A69C4F8AC2FC4F840
:1057E000A03F4FF00303C4F8B02F41F2F872A4F8C1
:1057F000A43F4FF00003C4F8B41F01F20441A354C6
:1058000041F2F472C4F8A88F24F802A004F5C05243
:10581000C4F8CC3F136041F60402C4F8C03FA35261
